{
	"contracts/Require_Transfer.sol": {
		"Bank_Require": {
			"abi": [
				{
					"inputs": [],
					"stateMutability": "nonpayable",
					"type": "constructor"
				},
				{
					"inputs": [
						{
							"internalType": "uint256",
							"name": "_toAdd",
							"type": "uint256"
						}
					],
					"name": "addBalance",
					"outputs": [
						{
							"internalType": "uint256",
							"name": "",
							"type": "uint256"
						}
					],
					"stateMutability": "nonpayable",
					"type": "function"
				},
				{
					"inputs": [],
					"name": "getBalance",
					"outputs": [
						{
							"internalType": "uint256",
							"name": "",
							"type": "uint256"
						}
					],
					"stateMutability": "view",
					"type": "function"
				},
				{
					"inputs": [
						{
							"internalType": "address",
							"name": "recipient",
							"type": "address"
						},
						{
							"internalType": "uint256",
							"name": "amount",
							"type": "uint256"
						}
					],
					"name": "transfer",
					"outputs": [],
					"stateMutability": "nonpayable",
					"type": "function"
				}
			],
			"devdoc": {
				"kind": "dev",
				"methods": {},
				"version": 1
			},
			"evm": {
				"assembly": "    /* \"contracts/Require_Transfer.sol\":27:1099  contract Bank_Require{... */\n  mstore(0x40, 0x80)\n    /* \"contracts/Require_Transfer.sol\":136:213  constructor(){... */\n  callvalue\n  dup1\n  iszero\n  tag_1\n  jumpi\n  0x00\n  dup1\n  revert\ntag_1:\n  pop\n    /* \"contracts/Require_Transfer.sol\":168:178  msg.sender */\n  caller\n    /* \"contracts/Require_Transfer.sol\":160:165  owner */\n  0x01\n  0x00\n    /* \"contracts/Require_Transfer.sol\":160:178  owner = msg.sender */\n  0x0100\n  exp\n  dup2\n  sload\n  dup2\n  0xffffffffffffffffffffffffffffffffffffffff\n  mul\n  not\n  and\n  swap1\n  dup4\n  0xffffffffffffffffffffffffffffffffffffffff\n  and\n  mul\n  or\n  swap1\n  sstore\n  pop\n    /* \"contracts/Require_Transfer.sol\":27:1099  contract Bank_Require{... */\n  dataSize(sub_0)\n  dup1\n  dataOffset(sub_0)\n  0x00\n  codecopy\n  0x00\n  return\nstop\n\nsub_0: assembly {\n        /* \"contracts/Require_Transfer.sol\":27:1099  contract Bank_Require{... */\n      mstore(0x40, 0x80)\n      callvalue\n      dup1\n      iszero\n      tag_1\n      jumpi\n      0x00\n      dup1\n      revert\n    tag_1:\n      pop\n      jumpi(tag_2, lt(calldatasize, 0x04))\n      shr(0xe0, calldataload(0x00))\n      dup1\n      0x12065fe0\n      eq\n      tag_3\n      jumpi\n      dup1\n      0xa9059cbb\n      eq\n      tag_4\n      jumpi\n      dup1\n      0xd91921ed\n      eq\n      tag_5\n      jumpi\n    tag_2:\n      0x00\n      dup1\n      revert\n        /* \"contracts/Require_Transfer.sol\":488:582  function getBalance () public view returns (uint){... */\n    tag_3:\n      tag_6\n      tag_7\n      jump\t// in\n    tag_6:\n      mload(0x40)\n      tag_8\n      swap2\n      swap1\n      tag_9\n      jump\t// in\n    tag_8:\n      mload(0x40)\n      dup1\n      swap2\n      sub\n      swap1\n      return\n        /* \"contracts/Require_Transfer.sol\":590:946  function transfer(address recipient, uint amount) public {... */\n    tag_4:\n      tag_10\n      0x04\n      dup1\n      calldatasize\n      sub\n      dup2\n      add\n      swap1\n      tag_11\n      swap2\n      swap1\n      tag_12\n      jump\t// in\n    tag_11:\n      tag_13\n      jump\t// in\n    tag_10:\n      stop\n        /* \"contracts/Require_Transfer.sol\":221:480  function addBalance (uint _toAdd) public returns (uint){ ... */\n    tag_5:\n      tag_14\n      0x04\n      dup1\n      calldatasize\n      sub\n      dup2\n      add\n      swap1\n      tag_15\n      swap2\n      swap1\n      tag_16\n      jump\t// in\n    tag_15:\n      tag_17\n      jump\t// in\n    tag_14:\n      mload(0x40)\n      tag_18\n      swap2\n      swap1\n      tag_9\n      jump\t// in\n    tag_18:\n      mload(0x40)\n      dup1\n      swap2\n      sub\n      swap1\n      return\n        /* \"contracts/Require_Transfer.sol\":488:582  function getBalance () public view returns (uint){... */\n    tag_7:\n        /* \"contracts/Require_Transfer.sol\":532:536  uint */\n      0x00\n        /* \"contracts/Require_Transfer.sol\":555:562  balance */\n      dup1\n        /* \"contracts/Require_Transfer.sol\":555:574  balance[msg.sender] */\n      0x00\n        /* \"contracts/Require_Transfer.sol\":563:573  msg.sender */\n      caller\n        /* \"contracts/Require_Transfer.sol\":555:574  balance[msg.sender] */\n      0xffffffffffffffffffffffffffffffffffffffff\n      and\n      0xffffffffffffffffffffffffffffffffffffffff\n      and\n      dup2\n      mstore\n      0x20\n      add\n      swap1\n      dup2\n      mstore\n      0x20\n      add\n      0x00\n      keccak256\n      sload\n        /* \"contracts/Require_Transfer.sol\":548:574  return balance[msg.sender] */\n      swap1\n      pop\n        /* \"contracts/Require_Transfer.sol\":488:582  function getBalance () public view returns (uint){... */\n      swap1\n      jump\t// out\n        /* \"contracts/Require_Transfer.sol\":590:946  function transfer(address recipient, uint amount) public {... */\n    tag_13:\n        /* \"contracts/Require_Transfer.sol\":727:733  amount */\n      dup1\n        /* \"contracts/Require_Transfer.sol\":705:712  balance */\n      0x00\n        /* \"contracts/Require_Transfer.sol\":705:724  balance[msg.sender] */\n      dup1\n        /* \"contracts/Require_Transfer.sol\":713:723  msg.sender */\n      caller\n        /* \"contracts/Require_Transfer.sol\":705:724  balance[msg.sender] */\n      0xffffffffffffffffffffffffffffffffffffffff\n      and\n      0xffffffffffffffffffffffffffffffffffffffff\n      and\n      dup2\n      mstore\n      0x20\n      add\n      swap1\n      dup2\n      mstore\n      0x20\n      add\n      0x00\n      keccak256\n      sload\n        /* \"contracts/Require_Transfer.sol\":705:733  balance[msg.sender]>= amount */\n      lt\n      iszero\n        /* \"contracts/Require_Transfer.sol\":697:771  require(balance[msg.sender]>= amount,\"ERInsufficient Balance to Transfer\") */\n      tag_21\n      jumpi\n      mload(0x40)\n      0x08c379a000000000000000000000000000000000000000000000000000000000\n      dup2\n      mstore\n      0x04\n      add\n      tag_22\n      swap1\n      tag_23\n      jump\t// in\n    tag_22:\n      mload(0x40)\n      dup1\n      swap2\n      sub\n      swap1\n      revert\n    tag_21:\n        /* \"contracts/Require_Transfer.sol\":804:813  recipient */\n      dup2\n        /* \"contracts/Require_Transfer.sol\":790:813  msg.sender != recipient */\n      0xffffffffffffffffffffffffffffffffffffffff\n      and\n        /* \"contracts/Require_Transfer.sol\":790:800  msg.sender */\n      caller\n        /* \"contracts/Require_Transfer.sol\":790:813  msg.sender != recipient */\n      0xffffffffffffffffffffffffffffffffffffffff\n      and\n      sub\n        /* \"contracts/Require_Transfer.sol\":782:814  require(msg.sender != recipient) */\n      tag_24\n      jumpi\n      0x00\n      dup1\n      revert\n    tag_24:\n        /* \"contracts/Require_Transfer.sol\":827:868  _transfer (msg.sender, recipient, amount) */\n      tag_25\n        /* \"contracts/Require_Transfer.sol\":838:848  msg.sender */\n      caller\n        /* \"contracts/Require_Transfer.sol\":850:859  recipient */\n      dup4\n        /* \"contracts/Require_Transfer.sol\":861:867  amount */\n      dup4\n        /* \"contracts/Require_Transfer.sol\":827:836  _transfer */\n      tag_26\n        /* \"contracts/Require_Transfer.sol\":827:868  _transfer (msg.sender, recipient, amount) */\n      jump\t// in\n    tag_25:\n        /* \"contracts/Require_Transfer.sol\":590:946  function transfer(address recipient, uint amount) public {... */\n      pop\n      pop\n      jump\t// out\n        /* \"contracts/Require_Transfer.sol\":221:480  function addBalance (uint _toAdd) public returns (uint){ ... */\n    tag_17:\n        /* \"contracts/Require_Transfer.sol\":271:275  uint */\n      0x00\n        /* \"contracts/Require_Transfer.sol\":389:394  owner */\n      0x01\n      0x00\n      swap1\n      sload\n      swap1\n      0x0100\n      exp\n      swap1\n      div\n      0xffffffffffffffffffffffffffffffffffffffff\n      and\n        /* \"contracts/Require_Transfer.sol\":375:394  msg.sender == owner */\n      0xffffffffffffffffffffffffffffffffffffffff\n      and\n        /* \"contracts/Require_Transfer.sol\":375:385  msg.sender */\n      caller\n        /* \"contracts/Require_Transfer.sol\":375:394  msg.sender == owner */\n      0xffffffffffffffffffffffffffffffffffffffff\n      and\n      eq\n        /* \"contracts/Require_Transfer.sol\":367:395  require(msg.sender == owner) */\n      tag_28\n      jumpi\n      0x00\n      dup1\n      revert\n    tag_28:\n        /* \"contracts/Require_Transfer.sol\":429:435  _toAdd */\n      dup2\n        /* \"contracts/Require_Transfer.sol\":406:413  balance */\n      0x00\n        /* \"contracts/Require_Transfer.sol\":406:425  balance[msg.sender] */\n      dup1\n        /* \"contracts/Require_Transfer.sol\":414:424  msg.sender */\n      caller\n        /* \"contracts/Require_Transfer.sol\":406:425  balance[msg.sender] */\n      0xffffffffffffffffffffffffffffffffffffffff\n      and\n      0xffffffffffffffffffffffffffffffffffffffff\n      and\n      dup2\n      mstore\n      0x20\n      add\n      swap1\n      dup2\n      mstore\n      0x20\n      add\n      0x00\n      keccak256\n      0x00\n        /* \"contracts/Require_Transfer.sol\":406:435  balance[msg.sender] += _toAdd */\n      dup3\n      dup3\n      sload\n      tag_29\n      swap2\n      swap1\n      tag_30\n      jump\t// in\n    tag_29:\n      swap3\n      pop\n      pop\n      dup2\n      swap1\n      sstore\n      pop\n        /* \"contracts/Require_Transfer.sol\":453:460  balance */\n      0x00\n        /* \"contracts/Require_Transfer.sol\":453:472  balance[msg.sender] */\n      dup1\n        /* \"contracts/Require_Transfer.sol\":461:471  msg.sender */\n      caller\n        /* \"contracts/Require_Transfer.sol\":453:472  balance[msg.sender] */\n      0xffffffffffffffffffffffffffffffffffffffff\n      and\n      0xffffffffffffffffffffffffffffffffffffffff\n      and\n      dup2\n      mstore\n      0x20\n      add\n      swap1\n      dup2\n      mstore\n      0x20\n      add\n      0x00\n      keccak256\n      sload\n        /* \"contracts/Require_Transfer.sol\":446:472  return balance[msg.sender] */\n      swap1\n      pop\n        /* \"contracts/Require_Transfer.sol\":221:480  function addBalance (uint _toAdd) public returns (uint){ ... */\n      swap2\n      swap1\n      pop\n      jump\t// out\n        /* \"contracts/Require_Transfer.sol\":954:1094  function _transfer(address from, address to, uint amount) private {... */\n    tag_26:\n        /* \"contracts/Require_Transfer.sol\":1048:1054  amount */\n      dup1\n        /* \"contracts/Require_Transfer.sol\":1031:1038  balance */\n      0x00\n        /* \"contracts/Require_Transfer.sol\":1031:1044  balance[from] */\n      dup1\n        /* \"contracts/Require_Transfer.sol\":1039:1043  from */\n      dup6\n        /* \"contracts/Require_Transfer.sol\":1031:1044  balance[from] */\n      0xffffffffffffffffffffffffffffffffffffffff\n      and\n      0xffffffffffffffffffffffffffffffffffffffff\n      and\n      dup2\n      mstore\n      0x20\n      add\n      swap1\n      dup2\n      mstore\n      0x20\n      add\n      0x00\n      keccak256\n      0x00\n        /* \"contracts/Require_Transfer.sol\":1031:1054  balance[from] -= amount */\n      dup3\n      dup3\n      sload\n      tag_32\n      swap2\n      swap1\n      tag_33\n      jump\t// in\n    tag_32:\n      swap3\n      pop\n      pop\n      dup2\n      swap1\n      sstore\n      pop\n        /* \"contracts/Require_Transfer.sol\":1080:1086  amount */\n      dup1\n        /* \"contracts/Require_Transfer.sol\":1065:1072  balance */\n      0x00\n        /* \"contracts/Require_Transfer.sol\":1065:1076  balance[to] */\n      dup1\n        /* \"contracts/Require_Transfer.sol\":1073:1075  to */\n      dup5\n        /* \"contracts/Require_Transfer.sol\":1065:1076  balance[to] */\n      0xffffffffffffffffffffffffffffffffffffffff\n      and\n      0xffffffffffffffffffffffffffffffffffffffff\n      and\n      dup2\n      mstore\n      0x20\n      add\n      swap1\n      dup2\n      mstore\n      0x20\n      add\n      0x00\n      keccak256\n      0x00\n        /* \"contracts/Require_Transfer.sol\":1065:1086  balance[to] += amount */\n      dup3\n      dup3\n      sload\n      tag_34\n      swap2\n      swap1\n      tag_30\n      jump\t// in\n    tag_34:\n      swap3\n      pop\n      pop\n      dup2\n      swap1\n      sstore\n      pop\n        /* \"contracts/Require_Transfer.sol\":954:1094  function _transfer(address from, address to, uint amount) private {... */\n      pop\n      pop\n      pop\n      jump\t// out\n        /* \"#utility.yul\":7:84   */\n    tag_35:\n        /* \"#utility.yul\":44:51   */\n      0x00\n        /* \"#utility.yul\":73:78   */\n      dup2\n        /* \"#utility.yul\":62:78   */\n      swap1\n      pop\n        /* \"#utility.yul\":7:84   */\n      swap2\n      swap1\n      pop\n      jump\t// out\n        /* \"#utility.yul\":90:208   */\n    tag_36:\n        /* \"#utility.yul\":177:201   */\n      tag_53\n        /* \"#utility.yul\":195:200   */\n      dup2\n        /* \"#utility.yul\":177:201   */\n      tag_35\n      jump\t// in\n    tag_53:\n        /* \"#utility.yul\":172:175   */\n      dup3\n        /* \"#utility.yul\":165:202   */\n      mstore\n        /* \"#utility.yul\":90:208   */\n      pop\n      pop\n      jump\t// out\n        /* \"#utility.yul\":214:436   */\n    tag_9:\n        /* \"#utility.yul\":307:311   */\n      0x00\n        /* \"#utility.yul\":345:347   */\n      0x20\n        /* \"#utility.yul\":334:343   */\n      dup3\n        /* \"#utility.yul\":330:348   */\n      add\n        /* \"#utility.yul\":322:348   */\n      swap1\n      pop\n        /* \"#utility.yul\":358:429   */\n      tag_55\n        /* \"#utility.yul\":426:427   */\n      0x00\n        /* \"#utility.yul\":415:424   */\n      dup4\n        /* \"#utility.yul\":411:428   */\n      add\n        /* \"#utility.yul\":402:408   */\n      dup5\n        /* \"#utility.yul\":358:429   */\n      tag_36\n      jump\t// in\n    tag_55:\n        /* \"#utility.yul\":214:436   */\n      swap3\n      swap2\n      pop\n      pop\n      jump\t// out\n        /* \"#utility.yul\":523:640   */\n    tag_38:\n        /* \"#utility.yul\":632:633   */\n      0x00\n        /* \"#utility.yul\":629:630   */\n      dup1\n        /* \"#utility.yul\":622:634   */\n      revert\n        /* \"#utility.yul\":769:895   */\n    tag_40:\n        /* \"#utility.yul\":806:813   */\n      0x00\n        /* \"#utility.yul\":846:888   */\n      0xffffffffffffffffffffffffffffffffffffffff\n        /* \"#utility.yul\":839:844   */\n      dup3\n        /* \"#utility.yul\":835:889   */\n      and\n        /* \"#utility.yul\":824:889   */\n      swap1\n      pop\n        /* \"#utility.yul\":769:895   */\n      swap2\n      swap1\n      pop\n      jump\t// out\n        /* \"#utility.yul\":901:997   */\n    tag_41:\n        /* \"#utility.yul\":938:945   */\n      0x00\n        /* \"#utility.yul\":967:991   */\n      tag_61\n        /* \"#utility.yul\":985:990   */\n      dup3\n        /* \"#utility.yul\":967:991   */\n      tag_40\n      jump\t// in\n    tag_61:\n        /* \"#utility.yul\":956:991   */\n      swap1\n      pop\n        /* \"#utility.yul\":901:997   */\n      swap2\n      swap1\n      pop\n      jump\t// out\n        /* \"#utility.yul\":1003:1125   */\n    tag_42:\n        /* \"#utility.yul\":1076:1100   */\n      tag_63\n        /* \"#utility.yul\":1094:1099   */\n      dup2\n        /* \"#utility.yul\":1076:1100   */\n      tag_41\n      jump\t// in\n    tag_63:\n        /* \"#utility.yul\":1069:1074   */\n      dup2\n        /* \"#utility.yul\":1066:1101   */\n      eq\n        /* \"#utility.yul\":1056:1119   */\n      tag_64\n      jumpi\n        /* \"#utility.yul\":1115:1116   */\n      0x00\n        /* \"#utility.yul\":1112:1113   */\n      dup1\n        /* \"#utility.yul\":1105:1117   */\n      revert\n        /* \"#utility.yul\":1056:1119   */\n    tag_64:\n        /* \"#utility.yul\":1003:1125   */\n      pop\n      jump\t// out\n        /* \"#utility.yul\":1131:1270   */\n    tag_43:\n        /* \"#utility.yul\":1177:1182   */\n      0x00\n        /* \"#utility.yul\":1215:1221   */\n      dup2\n        /* \"#utility.yul\":1202:1222   */\n      calldataload\n        /* \"#utility.yul\":1193:1222   */\n      swap1\n      pop\n        /* \"#utility.yul\":1231:1264   */\n      tag_66\n        /* \"#utility.yul\":1258:1263   */\n      dup2\n        /* \"#utility.yul\":1231:1264   */\n      tag_42\n      jump\t// in\n    tag_66:\n        /* \"#utility.yul\":1131:1270   */\n      swap3\n      swap2\n      pop\n      pop\n      jump\t// out\n        /* \"#utility.yul\":1276:1398   */\n    tag_44:\n        /* \"#utility.yul\":1349:1373   */\n      tag_68\n        /* \"#utility.yul\":1367:1372   */\n      dup2\n        /* \"#utility.yul\":1349:1373   */\n      tag_35\n      jump\t// in\n    tag_68:\n        /* \"#utility.yul\":1342:1347   */\n      dup2\n        /* \"#utility.yul\":1339:1374   */\n      eq\n        /* \"#utility.yul\":1329:1392   */\n      tag_69\n      jumpi\n        /* \"#utility.yul\":1388:1389   */\n      0x00\n        /* \"#utility.yul\":1385:1386   */\n      dup1\n        /* \"#utility.yul\":1378:1390   */\n      revert\n        /* \"#utility.yul\":1329:1392   */\n    tag_69:\n        /* \"#utility.yul\":1276:1398   */\n      pop\n      jump\t// out\n        /* \"#utility.yul\":1404:1543   */\n    tag_45:\n        /* \"#utility.yul\":1450:1455   */\n      0x00\n        /* \"#utility.yul\":1488:1494   */\n      dup2\n        /* \"#utility.yul\":1475:1495   */\n      calldataload\n        /* \"#utility.yul\":1466:1495   */\n      swap1\n      pop\n        /* \"#utility.yul\":1504:1537   */\n      tag_71\n        /* \"#utility.yul\":1531:1536   */\n      dup2\n        /* \"#utility.yul\":1504:1537   */\n      tag_44\n      jump\t// in\n    tag_71:\n        /* \"#utility.yul\":1404:1543   */\n      swap3\n      swap2\n      pop\n      pop\n      jump\t// out\n        /* \"#utility.yul\":1549:2023   */\n    tag_12:\n        /* \"#utility.yul\":1617:1623   */\n      0x00\n        /* \"#utility.yul\":1625:1631   */\n      dup1\n        /* \"#utility.yul\":1674:1676   */\n      0x40\n        /* \"#utility.yul\":1662:1671   */\n      dup4\n        /* \"#utility.yul\":1653:1660   */\n      dup6\n        /* \"#utility.yul\":1649:1672   */\n      sub\n        /* \"#utility.yul\":1645:1677   */\n      slt\n        /* \"#utility.yul\":1642:1761   */\n      iszero\n      tag_73\n      jumpi\n        /* \"#utility.yul\":1680:1759   */\n      tag_74\n      tag_38\n      jump\t// in\n    tag_74:\n        /* \"#utility.yul\":1642:1761   */\n    tag_73:\n        /* \"#utility.yul\":1800:1801   */\n      0x00\n        /* \"#utility.yul\":1825:1878   */\n      tag_75\n        /* \"#utility.yul\":1870:1877   */\n      dup6\n        /* \"#utility.yul\":1861:1867   */\n      dup3\n        /* \"#utility.yul\":1850:1859   */\n      dup7\n        /* \"#utility.yul\":1846:1868   */\n      add\n        /* \"#utility.yul\":1825:1878   */\n      tag_43\n      jump\t// in\n    tag_75:\n        /* \"#utility.yul\":1815:1878   */\n      swap3\n      pop\n        /* \"#utility.yul\":1771:1888   */\n      pop\n        /* \"#utility.yul\":1927:1929   */\n      0x20\n        /* \"#utility.yul\":1953:2006   */\n      tag_76\n        /* \"#utility.yul\":1998:2005   */\n      dup6\n        /* \"#utility.yul\":1989:1995   */\n      dup3\n        /* \"#utility.yul\":1978:1987   */\n      dup7\n        /* \"#utility.yul\":1974:1996   */\n      add\n        /* \"#utility.yul\":1953:2006   */\n      tag_45\n      jump\t// in\n    tag_76:\n        /* \"#utility.yul\":1943:2006   */\n      swap2\n      pop\n        /* \"#utility.yul\":1898:2016   */\n      pop\n        /* \"#utility.yul\":1549:2023   */\n      swap3\n      pop\n      swap3\n      swap1\n      pop\n      jump\t// out\n        /* \"#utility.yul\":2029:2358   */\n    tag_16:\n        /* \"#utility.yul\":2088:2094   */\n      0x00\n        /* \"#utility.yul\":2137:2139   */\n      0x20\n        /* \"#utility.yul\":2125:2134   */\n      dup3\n        /* \"#utility.yul\":2116:2123   */\n      dup5\n        /* \"#utility.yul\":2112:2135   */\n      sub\n        /* \"#utility.yul\":2108:2140   */\n      slt\n        /* \"#utility.yul\":2105:2224   */\n      iszero\n      tag_78\n      jumpi\n        /* \"#utility.yul\":2143:2222   */\n      tag_79\n      tag_38\n      jump\t// in\n    tag_79:\n        /* \"#utility.yul\":2105:2224   */\n    tag_78:\n        /* \"#utility.yul\":2263:2264   */\n      0x00\n        /* \"#utility.yul\":2288:2341   */\n      tag_80\n        /* \"#utility.yul\":2333:2340   */\n      dup5\n        /* \"#utility.yul\":2324:2330   */\n      dup3\n        /* \"#utility.yul\":2313:2322   */\n      dup6\n        /* \"#utility.yul\":2309:2331   */\n      add\n        /* \"#utility.yul\":2288:2341   */\n      tag_45\n      jump\t// in\n    tag_80:\n        /* \"#utility.yul\":2278:2341   */\n      swap2\n      pop\n        /* \"#utility.yul\":2234:2351   */\n      pop\n        /* \"#utility.yul\":2029:2358   */\n      swap3\n      swap2\n      pop\n      pop\n      jump\t// out\n        /* \"#utility.yul\":2364:2533   */\n    tag_46:\n        /* \"#utility.yul\":2448:2459   */\n      0x00\n        /* \"#utility.yul\":2482:2488   */\n      dup3\n        /* \"#utility.yul\":2477:2480   */\n      dup3\n        /* \"#utility.yul\":2470:2489   */\n      mstore\n        /* \"#utility.yul\":2522:2526   */\n      0x20\n        /* \"#utility.yul\":2517:2520   */\n      dup3\n        /* \"#utility.yul\":2513:2527   */\n      add\n        /* \"#utility.yul\":2498:2527   */\n      swap1\n      pop\n        /* \"#utility.yul\":2364:2533   */\n      swap3\n      swap2\n      pop\n      pop\n      jump\t// out\n        /* \"#utility.yul\":2539:2760   */\n    tag_47:\n        /* \"#utility.yul\":2679:2713   */\n      0x4552496e73756666696369656e742042616c616e636520746f205472616e7366\n        /* \"#utility.yul\":2675:2676   */\n      0x00\n        /* \"#utility.yul\":2667:2673   */\n      dup3\n        /* \"#utility.yul\":2663:2677   */\n      add\n        /* \"#utility.yul\":2656:2714   */\n      mstore\n        /* \"#utility.yul\":2748:2752   */\n      0x6572000000000000000000000000000000000000000000000000000000000000\n        /* \"#utility.yul\":2743:2745   */\n      0x20\n        /* \"#utility.yul\":2735:2741   */\n      dup3\n        /* \"#utility.yul\":2731:2746   */\n      add\n        /* \"#utility.yul\":2724:2753   */\n      mstore\n        /* \"#utility.yul\":2539:2760   */\n      pop\n      jump\t// out\n        /* \"#utility.yul\":2766:3132   */\n    tag_48:\n        /* \"#utility.yul\":2908:2911   */\n      0x00\n        /* \"#utility.yul\":2929:2996   */\n      tag_84\n        /* \"#utility.yul\":2993:2995   */\n      0x22\n        /* \"#utility.yul\":2988:2991   */\n      dup4\n        /* \"#utility.yul\":2929:2996   */\n      tag_46\n      jump\t// in\n    tag_84:\n        /* \"#utility.yul\":2922:2996   */\n      swap2\n      pop\n        /* \"#utility.yul\":3005:3098   */\n      tag_85\n        /* \"#utility.yul\":3094:3097   */\n      dup3\n        /* \"#utility.yul\":3005:3098   */\n      tag_47\n      jump\t// in\n    tag_85:\n        /* \"#utility.yul\":3123:3125   */\n      0x40\n        /* \"#utility.yul\":3118:3121   */\n      dup3\n        /* \"#utility.yul\":3114:3126   */\n      add\n        /* \"#utility.yul\":3107:3126   */\n      swap1\n      pop\n        /* \"#utility.yul\":2766:3132   */\n      swap2\n      swap1\n      pop\n      jump\t// out\n        /* \"#utility.yul\":3138:3557   */\n    tag_23:\n        /* \"#utility.yul\":3304:3308   */\n      0x00\n        /* \"#utility.yul\":3342:3344   */\n      0x20\n        /* \"#utility.yul\":3331:3340   */\n      dup3\n        /* \"#utility.yul\":3327:3345   */\n      add\n        /* \"#utility.yul\":3319:3345   */\n      swap1\n      pop\n        /* \"#utility.yul\":3391:3400   */\n      dup2\n        /* \"#utility.yul\":3385:3389   */\n      dup2\n        /* \"#utility.yul\":3381:3401   */\n      sub\n        /* \"#utility.yul\":3377:3378   */\n      0x00\n        /* \"#utility.yul\":3366:3375   */\n      dup4\n        /* \"#utility.yul\":3362:3379   */\n      add\n        /* \"#utility.yul\":3355:3402   */\n      mstore\n        /* \"#utility.yul\":3419:3550   */\n      tag_87\n        /* \"#utility.yul\":3545:3549   */\n      dup2\n        /* \"#utility.yul\":3419:3550   */\n      tag_48\n      jump\t// in\n    tag_87:\n        /* \"#utility.yul\":3411:3550   */\n      swap1\n      pop\n        /* \"#utility.yul\":3138:3557   */\n      swap2\n      swap1\n      pop\n      jump\t// out\n        /* \"#utility.yul\":3563:3743   */\n    tag_49:\n        /* \"#utility.yul\":3611:3688   */\n      0x4e487b7100000000000000000000000000000000000000000000000000000000\n        /* \"#utility.yul\":3608:3609   */\n      0x00\n        /* \"#utility.yul\":3601:3689   */\n      mstore\n        /* \"#utility.yul\":3708:3712   */\n      0x11\n        /* \"#utility.yul\":3705:3706   */\n      0x04\n        /* \"#utility.yul\":3698:3713   */\n      mstore\n        /* \"#utility.yul\":3732:3736   */\n      0x24\n        /* \"#utility.yul\":3729:3730   */\n      0x00\n        /* \"#utility.yul\":3722:3737   */\n      revert\n        /* \"#utility.yul\":3749:4054   */\n    tag_30:\n        /* \"#utility.yul\":3789:3792   */\n      0x00\n        /* \"#utility.yul\":3808:3828   */\n      tag_90\n        /* \"#utility.yul\":3826:3827   */\n      dup3\n        /* \"#utility.yul\":3808:3828   */\n      tag_35\n      jump\t// in\n    tag_90:\n        /* \"#utility.yul\":3803:3828   */\n      swap2\n      pop\n        /* \"#utility.yul\":3842:3862   */\n      tag_91\n        /* \"#utility.yul\":3860:3861   */\n      dup4\n        /* \"#utility.yul\":3842:3862   */\n      tag_35\n      jump\t// in\n    tag_91:\n        /* \"#utility.yul\":3837:3862   */\n      swap3\n      pop\n        /* \"#utility.yul\":3996:3997   */\n      dup3\n        /* \"#utility.yul\":3928:3994   */\n      0xffffffffffffffffffffffffffffffffffffffffffffffffffffffffffffffff\n        /* \"#utility.yul\":3924:3998   */\n      sub\n        /* \"#utility.yul\":3921:3922   */\n      dup3\n        /* \"#utility.yul\":3918:3999   */\n      gt\n        /* \"#utility.yul\":3915:4022   */\n      iszero\n      tag_92\n      jumpi\n        /* \"#utility.yul\":4002:4020   */\n      tag_93\n      tag_49\n      jump\t// in\n    tag_93:\n        /* \"#utility.yul\":3915:4022   */\n    tag_92:\n        /* \"#utility.yul\":4046:4047   */\n      dup3\n        /* \"#utility.yul\":4043:4044   */\n      dup3\n        /* \"#utility.yul\":4039:4048   */\n      add\n        /* \"#utility.yul\":4032:4048   */\n      swap1\n      pop\n        /* \"#utility.yul\":3749:4054   */\n      swap3\n      swap2\n      pop\n      pop\n      jump\t// out\n        /* \"#utility.yul\":4060:4251   */\n    tag_33:\n        /* \"#utility.yul\":4100:4104   */\n      0x00\n        /* \"#utility.yul\":4120:4140   */\n      tag_95\n        /* \"#utility.yul\":4138:4139   */\n      dup3\n        /* \"#utility.yul\":4120:4140   */\n      tag_35\n      jump\t// in\n    tag_95:\n        /* \"#utility.yul\":4115:4140   */\n      swap2\n      pop\n        /* \"#utility.yul\":4154:4174   */\n      tag_96\n        /* \"#utility.yul\":4172:4173   */\n      dup4\n        /* \"#utility.yul\":4154:4174   */\n      tag_35\n      jump\t// in\n    tag_96:\n        /* \"#utility.yul\":4149:4174   */\n      swap3\n      pop\n        /* \"#utility.yul\":4193:4194   */\n      dup3\n        /* \"#utility.yul\":4190:4191   */\n      dup3\n        /* \"#utility.yul\":4187:4195   */\n      lt\n        /* \"#utility.yul\":4184:4218   */\n      iszero\n      tag_97\n      jumpi\n        /* \"#utility.yul\":4198:4216   */\n      tag_98\n      tag_49\n      jump\t// in\n    tag_98:\n        /* \"#utility.yul\":4184:4218   */\n    tag_97:\n        /* \"#utility.yul\":4243:4244   */\n      dup3\n        /* \"#utility.yul\":4240:4241   */\n      dup3\n        /* \"#utility.yul\":4236:4245   */\n      sub\n        /* \"#utility.yul\":4228:4245   */\n      swap1\n      pop\n        /* \"#utility.yul\":4060:4251   */\n      swap3\n      swap2\n      pop\n      pop\n      jump\t// out\n\n    auxdata: 0xa2646970667358221220ac629101e7d8df87f8c36cda50dd0767bb5aee46774bb296ade15a7cac405c3f64736f6c634300080d0033\n}\n",
				"bytecode": {
					"linkReferences": {},
					"object": "608060405234801561001057600080fd5b5033600160006101000a81548173ffffffffffffffffffffffffffffffffffffffff021916908373ffffffffffffffffffffffffffffffffffffffff160217905550610626806100616000396000f3fe608060405234801561001057600080fd5b50600436106100415760003560e01c806312065fe014610046578063a9059cbb14610064578063d91921ed14610080575b600080fd5b61004e6100b0565b60405161005b919061037d565b60405180910390f35b61007e60048036038101906100799190610427565b6100f6565b005b61009a60048036038101906100959190610467565b6101be565b6040516100a7919061037d565b60405180910390f35b60008060003373ffffffffffffffffffffffffffffffffffffffff1673ffffffffffffffffffffffffffffffffffffffff16815260200190815260200160002054905090565b806000803373ffffffffffffffffffffffffffffffffffffffff1673ffffffffffffffffffffffffffffffffffffffff168152602001908152602001600020541015610177576040517f08c379a000000000000000000000000000000000000000000000000000000000815260040161016e90610517565b60405180910390fd5b8173ffffffffffffffffffffffffffffffffffffffff163373ffffffffffffffffffffffffffffffffffffffff16036101af57600080fd5b6101ba3383836102b5565b5050565b6000600160009054906101000a900473ffffffffffffffffffffffffffffffffffffffff1673ffffffffffffffffffffffffffffffffffffffff163373ffffffffffffffffffffffffffffffffffffffff161461021a57600080fd5b816000803373ffffffffffffffffffffffffffffffffffffffff1673ffffffffffffffffffffffffffffffffffffffff16815260200190815260200160002060008282546102689190610566565b925050819055506000803373ffffffffffffffffffffffffffffffffffffffff1673ffffffffffffffffffffffffffffffffffffffff168152602001908152602001600020549050919050565b806000808573ffffffffffffffffffffffffffffffffffffffff1673ffffffffffffffffffffffffffffffffffffffff168152602001908152602001600020600082825461030391906105bc565b92505081905550806000808473ffffffffffffffffffffffffffffffffffffffff1673ffffffffffffffffffffffffffffffffffffffff16815260200190815260200160002060008282546103589190610566565b92505081905550505050565b6000819050919050565b61037781610364565b82525050565b6000602082019050610392600083018461036e565b92915050565b600080fd5b600073ffffffffffffffffffffffffffffffffffffffff82169050919050565b60006103c88261039d565b9050919050565b6103d8816103bd565b81146103e357600080fd5b50565b6000813590506103f5816103cf565b92915050565b61040481610364565b811461040f57600080fd5b50565b600081359050610421816103fb565b92915050565b6000806040838503121561043e5761043d610398565b5b600061044c858286016103e6565b925050602061045d85828601610412565b9150509250929050565b60006020828403121561047d5761047c610398565b5b600061048b84828501610412565b91505092915050565b600082825260208201905092915050565b7f4552496e73756666696369656e742042616c616e636520746f205472616e736660008201527f6572000000000000000000000000000000000000000000000000000000000000602082015250565b6000610501602283610494565b915061050c826104a5565b604082019050919050565b60006020820190508181036000830152610530816104f4565b9050919050565b7f4e487b7100000000000000000000000000000000000000000000000000000000600052601160045260246000fd5b600061057182610364565b915061057c83610364565b9250827fffffffffffffffffffffffffffffffffffffffffffffffffffffffffffffffff038211156105b1576105b0610537565b5b828201905092915050565b60006105c782610364565b91506105d283610364565b9250828210156105e5576105e4610537565b5b82820390509291505056fea2646970667358221220ac629101e7d8df87f8c36cda50dd0767bb5aee46774bb296ade15a7cac405c3f64736f6c634300080d0033",
					"opcodes": "PUSH1 0x80 PUSH1 0x40 MSTORE CALLVALUE DUP1 ISZERO PUSH2 0x10 JUMPI PUSH1 0x0 DUP1 REVERT JUMPDEST POP CALLER PUSH1 0x1 PUSH1 0x0 PUSH2 0x100 EXP DUP2 SLOAD DUP2 PUSH20 0xFFFFFFFFFFFFFFFFFFFFFFFFFFFFFFFFFFFFFFFF MUL NOT AND SWAP1 DUP4 PUSH20 0xFFFFFFFFFFFFFFFFFFFFFFFFFFFFFFFFFFFFFFFF AND MUL OR SWAP1 SSTORE POP PUSH2 0x626 DUP1 PUSH2 0x61 PUSH1 0x0 CODECOPY PUSH1 0x0 RETURN INVALID PUSH1 0x80 PUSH1 0x40 MSTORE CALLVALUE DUP1 ISZERO PUSH2 0x10 JUMPI PUSH1 0x0 DUP1 REVERT JUMPDEST POP PUSH1 0x4 CALLDATASIZE LT PUSH2 0x41 JUMPI PUSH1 0x0 CALLDATALOAD PUSH1 0xE0 SHR DUP1 PUSH4 0x12065FE0 EQ PUSH2 0x46 JUMPI DUP1 PUSH4 0xA9059CBB EQ PUSH2 0x64 JUMPI DUP1 PUSH4 0xD91921ED EQ PUSH2 0x80 JUMPI JUMPDEST PUSH1 0x0 DUP1 REVERT JUMPDEST PUSH2 0x4E PUSH2 0xB0 JUMP JUMPDEST PUSH1 0x40 MLOAD PUSH2 0x5B SWAP2 SWAP1 PUSH2 0x37D JUMP JUMPDEST PUSH1 0x40 MLOAD DUP1 SWAP2 SUB SWAP1 RETURN JUMPDEST PUSH2 0x7E PUSH1 0x4 DUP1 CALLDATASIZE SUB DUP2 ADD SWAP1 PUSH2 0x79 SWAP2 SWAP1 PUSH2 0x427 JUMP JUMPDEST PUSH2 0xF6 JUMP JUMPDEST STOP JUMPDEST PUSH2 0x9A PUSH1 0x4 DUP1 CALLDATASIZE SUB DUP2 ADD SWAP1 PUSH2 0x95 SWAP2 SWAP1 PUSH2 0x467 JUMP JUMPDEST PUSH2 0x1BE JUMP JUMPDEST PUSH1 0x40 MLOAD PUSH2 0xA7 SWAP2 SWAP1 PUSH2 0x37D JUMP JUMPDEST PUSH1 0x40 MLOAD DUP1 SWAP2 SUB SWAP1 RETURN JUMPDEST PUSH1 0x0 DUP1 PUSH1 0x0 CALLER PUSH20 0xFFFFFFFFFFFFFFFFFFFFFFFFFFFFFFFFFFFFFFFF AND PUSH20 0xFFFFFFFFFFFFFFFFFFFFFFFFFFFFFFFFFFFFFFFF AND DUP2 MSTORE PUSH1 0x20 ADD SWAP1 DUP2 MSTORE PUSH1 0x20 ADD PUSH1 0x0 KECCAK256 SLOAD SWAP1 POP SWAP1 JUMP JUMPDEST DUP1 PUSH1 0x0 DUP1 CALLER PUSH20 0xFFFFFFFFFFFFFFFFFFFFFFFFFFFFFFFFFFFFFFFF AND PUSH20 0xFFFFFFFFFFFFFFFFFFFFFFFFFFFFFFFFFFFFFFFF AND DUP2 MSTORE PUSH1 0x20 ADD SWAP1 DUP2 MSTORE PUSH1 0x20 ADD PUSH1 0x0 KECCAK256 SLOAD LT ISZERO PUSH2 0x177 JUMPI PUSH1 0x40 MLOAD PUSH32 0x8C379A000000000000000000000000000000000000000000000000000000000 DUP2 MSTORE PUSH1 0x4 ADD PUSH2 0x16E SWAP1 PUSH2 0x517 JUMP JUMPDEST PUSH1 0x40 MLOAD DUP1 SWAP2 SUB SWAP1 REVERT JUMPDEST DUP2 PUSH20 0xFFFFFFFFFFFFFFFFFFFFFFFFFFFFFFFFFFFFFFFF AND CALLER PUSH20 0xFFFFFFFFFFFFFFFFFFFFFFFFFFFFFFFFFFFFFFFF AND SUB PUSH2 0x1AF JUMPI PUSH1 0x0 DUP1 REVERT JUMPDEST PUSH2 0x1BA CALLER DUP4 DUP4 PUSH2 0x2B5 JUMP JUMPDEST POP POP JUMP JUMPDEST PUSH1 0x0 PUSH1 0x1 PUSH1 0x0 SWAP1 SLOAD SWAP1 PUSH2 0x100 EXP SWAP1 DIV PUSH20 0xFFFFFFFFFFFFFFFFFFFFFFFFFFFFFFFFFFFFFFFF AND PUSH20 0xFFFFFFFFFFFFFFFFFFFFFFFFFFFFFFFFFFFFFFFF AND CALLER PUSH20 0xFFFFFFFFFFFFFFFFFFFFFFFFFFFFFFFFFFFFFFFF AND EQ PUSH2 0x21A JUMPI PUSH1 0x0 DUP1 REVERT JUMPDEST DUP2 PUSH1 0x0 DUP1 CALLER PUSH20 0xFFFFFFFFFFFFFFFFFFFFFFFFFFFFFFFFFFFFFFFF AND PUSH20 0xFFFFFFFFFFFFFFFFFFFFFFFFFFFFFFFFFFFFFFFF AND DUP2 MSTORE PUSH1 0x20 ADD SWAP1 DUP2 MSTORE PUSH1 0x20 ADD PUSH1 0x0 KECCAK256 PUSH1 0x0 DUP3 DUP3 SLOAD PUSH2 0x268 SWAP2 SWAP1 PUSH2 0x566 JUMP JUMPDEST SWAP3 POP POP DUP2 SWAP1 SSTORE POP PUSH1 0x0 DUP1 CALLER PUSH20 0xFFFFFFFFFFFFFFFFFFFFFFFFFFFFFFFFFFFFFFFF AND PUSH20 0xFFFFFFFFFFFFFFFFFFFFFFFFFFFFFFFFFFFFFFFF AND DUP2 MSTORE PUSH1 0x20 ADD SWAP1 DUP2 MSTORE PUSH1 0x20 ADD PUSH1 0x0 KECCAK256 SLOAD SWAP1 POP SWAP2 SWAP1 POP JUMP JUMPDEST DUP1 PUSH1 0x0 DUP1 DUP6 PUSH20 0xFFFFFFFFFFFFFFFFFFFFFFFFFFFFFFFFFFFFFFFF AND PUSH20 0xFFFFFFFFFFFFFFFFFFFFFFFFFFFFFFFFFFFFFFFF AND DUP2 MSTORE PUSH1 0x20 ADD SWAP1 DUP2 MSTORE PUSH1 0x20 ADD PUSH1 0x0 KECCAK256 PUSH1 0x0 DUP3 DUP3 SLOAD PUSH2 0x303 SWAP2 SWAP1 PUSH2 0x5BC JUMP JUMPDEST SWAP3 POP POP DUP2 SWAP1 SSTORE POP DUP1 PUSH1 0x0 DUP1 DUP5 PUSH20 0xFFFFFFFFFFFFFFFFFFFFFFFFFFFFFFFFFFFFFFFF AND PUSH20 0xFFFFFFFFFFFFFFFFFFFFFFFFFFFFFFFFFFFFFFFF AND DUP2 MSTORE PUSH1 0x20 ADD SWAP1 DUP2 MSTORE PUSH1 0x20 ADD PUSH1 0x0 KECCAK256 PUSH1 0x0 DUP3 DUP3 SLOAD PUSH2 0x358 SWAP2 SWAP1 PUSH2 0x566 JUMP JUMPDEST SWAP3 POP POP DUP2 SWAP1 SSTORE POP POP POP POP JUMP JUMPDEST PUSH1 0x0 DUP2 SWAP1 POP SWAP2 SWAP1 POP JUMP JUMPDEST PUSH2 0x377 DUP2 PUSH2 0x364 JUMP JUMPDEST DUP3 MSTORE POP POP JUMP JUMPDEST PUSH1 0x0 PUSH1 0x20 DUP3 ADD SWAP1 POP PUSH2 0x392 PUSH1 0x0 DUP4 ADD DUP5 PUSH2 0x36E JUMP JUMPDEST SWAP3 SWAP2 POP POP JUMP JUMPDEST PUSH1 0x0 DUP1 REVERT JUMPDEST PUSH1 0x0 PUSH20 0xFFFFFFFFFFFFFFFFFFFFFFFFFFFFFFFFFFFFFFFF DUP3 AND SWAP1 POP SWAP2 SWAP1 POP JUMP JUMPDEST PUSH1 0x0 PUSH2 0x3C8 DUP3 PUSH2 0x39D JUMP JUMPDEST SWAP1 POP SWAP2 SWAP1 POP JUMP JUMPDEST PUSH2 0x3D8 DUP2 PUSH2 0x3BD JUMP JUMPDEST DUP2 EQ PUSH2 0x3E3 JUMPI PUSH1 0x0 DUP1 REVERT JUMPDEST POP JUMP JUMPDEST PUSH1 0x0 DUP2 CALLDATALOAD SWAP1 POP PUSH2 0x3F5 DUP2 PUSH2 0x3CF JUMP JUMPDEST SWAP3 SWAP2 POP POP JUMP JUMPDEST PUSH2 0x404 DUP2 PUSH2 0x364 JUMP JUMPDEST DUP2 EQ PUSH2 0x40F JUMPI PUSH1 0x0 DUP1 REVERT JUMPDEST POP JUMP JUMPDEST PUSH1 0x0 DUP2 CALLDATALOAD SWAP1 POP PUSH2 0x421 DUP2 PUSH2 0x3FB JUMP JUMPDEST SWAP3 SWAP2 POP POP JUMP JUMPDEST PUSH1 0x0 DUP1 PUSH1 0x40 DUP4 DUP6 SUB SLT ISZERO PUSH2 0x43E JUMPI PUSH2 0x43D PUSH2 0x398 JUMP JUMPDEST JUMPDEST PUSH1 0x0 PUSH2 0x44C DUP6 DUP3 DUP7 ADD PUSH2 0x3E6 JUMP JUMPDEST SWAP3 POP POP PUSH1 0x20 PUSH2 0x45D DUP6 DUP3 DUP7 ADD PUSH2 0x412 JUMP JUMPDEST SWAP2 POP POP SWAP3 POP SWAP3 SWAP1 POP JUMP JUMPDEST PUSH1 0x0 PUSH1 0x20 DUP3 DUP5 SUB SLT ISZERO PUSH2 0x47D JUMPI PUSH2 0x47C PUSH2 0x398 JUMP JUMPDEST JUMPDEST PUSH1 0x0 PUSH2 0x48B DUP5 DUP3 DUP6 ADD PUSH2 0x412 JUMP JUMPDEST SWAP2 POP POP SWAP3 SWAP2 POP POP JUMP JUMPDEST PUSH1 0x0 DUP3 DUP3 MSTORE PUSH1 0x20 DUP3 ADD SWAP1 POP SWAP3 SWAP2 POP POP JUMP JUMPDEST PUSH32 0x4552496E73756666696369656E742042616C616E636520746F205472616E7366 PUSH1 0x0 DUP3 ADD MSTORE PUSH32 0x6572000000000000000000000000000000000000000000000000000000000000 PUSH1 0x20 DUP3 ADD MSTORE POP JUMP JUMPDEST PUSH1 0x0 PUSH2 0x501 PUSH1 0x22 DUP4 PUSH2 0x494 JUMP JUMPDEST SWAP2 POP PUSH2 0x50C DUP3 PUSH2 0x4A5 JUMP JUMPDEST PUSH1 0x40 DUP3 ADD SWAP1 POP SWAP2 SWAP1 POP JUMP JUMPDEST PUSH1 0x0 PUSH1 0x20 DUP3 ADD SWAP1 POP DUP2 DUP2 SUB PUSH1 0x0 DUP4 ADD MSTORE PUSH2 0x530 DUP2 PUSH2 0x4F4 JUMP JUMPDEST SWAP1 POP SWAP2 SWAP1 POP JUMP JUMPDEST PUSH32 0x4E487B7100000000000000000000000000000000000000000000000000000000 PUSH1 0x0 MSTORE PUSH1 0x11 PUSH1 0x4 MSTORE PUSH1 0x24 PUSH1 0x0 REVERT JUMPDEST PUSH1 0x0 PUSH2 0x571 DUP3 PUSH2 0x364 JUMP JUMPDEST SWAP2 POP PUSH2 0x57C DUP4 PUSH2 0x364 JUMP JUMPDEST SWAP3 POP DUP3 PUSH32 0xFFFFFFFFFFFFFFFFFFFFFFFFFFFFFFFFFFFFFFFFFFFFFFFFFFFFFFFFFFFFFFFF SUB DUP3 GT ISZERO PUSH2 0x5B1 JUMPI PUSH2 0x5B0 PUSH2 0x537 JUMP JUMPDEST JUMPDEST DUP3 DUP3 ADD SWAP1 POP SWAP3 SWAP2 POP POP JUMP JUMPDEST PUSH1 0x0 PUSH2 0x5C7 DUP3 PUSH2 0x364 JUMP JUMPDEST SWAP2 POP PUSH2 0x5D2 DUP4 PUSH2 0x364 JUMP JUMPDEST SWAP3 POP DUP3 DUP3 LT ISZERO PUSH2 0x5E5 JUMPI PUSH2 0x5E4 PUSH2 0x537 JUMP JUMPDEST JUMPDEST DUP3 DUP3 SUB SWAP1 POP SWAP3 SWAP2 POP POP JUMP INVALID LOG2 PUSH5 0x6970667358 0x22 SLT KECCAK256 0xAC PUSH3 0x9101E7 0xD8 0xDF DUP8 0xF8 0xC3 PUSH13 0xDA50DD0767BB5AEE46774BB296 0xAD 0xE1 GAS PUSH29 0xAC405C3F64736F6C634300080D00330000000000000000000000000000 "
				},
				"gasEstimates": {
					"creation": {
						"codeDepositCost": "314800",
						"executionCost": "24621",
						"totalCost": "339421"
					},
					"external": {
						"addBalance(uint256)": "infinite",
						"getBalance()": "2504",
						"transfer(address,uint256)": "infinite"
					},
					"internal": {
						"_transfer(address,address,uint256)": "infinite"
					}
				},
				"methodIdentifiers": {
					"addBalance(uint256)": "d91921ed",
					"getBalance()": "12065fe0",
					"transfer(address,uint256)": "a9059cbb"
				}
			},
			"storageLayout": {
				"storage": [
					{
						"astId": 5,
						"contract": "contracts/Require_Transfer.sol:Bank_Require",
						"label": "balance",
						"offset": 0,
						"slot": "0",
						"type": "t_mapping(t_address,t_uint256)"
					},
					{
						"astId": 7,
						"contract": "contracts/Require_Transfer.sol:Bank_Require",
						"label": "owner",
						"offset": 0,
						"slot": "1",
						"type": "t_address"
					}
				],
				"types": {
					"t_address": {
						"encoding": "inplace",
						"label": "address",
						"numberOfBytes": "20"
					},
					"t_mapping(t_address,t_uint256)": {
						"encoding": "mapping",
						"key": "t_address",
						"label": "mapping(address => uint256)",
						"numberOfBytes": "32",
						"value": "t_uint256"
					},
					"t_uint256": {
						"encoding": "inplace",
						"label": "uint256",
						"numberOfBytes": "32"
					}
				}
			},
			"userdoc": {
				"kind": "user",
				"methods": {},
				"version": 1
			}
		}
	}
}