{
	"contracts/MultiSIG_Wallet.sol": {
		"Multisig_Wallet": {
			"abi": [
				{
					"inputs": [
						{
							"internalType": "address[]",
							"name": "_owners",
							"type": "address[]"
						},
						{
							"internalType": "uint256",
							"name": "_limit",
							"type": "uint256"
						}
					],
					"stateMutability": "nonpayable",
					"type": "constructor"
				},
				{
					"anonymous": false,
					"inputs": [
						{
							"indexed": false,
							"internalType": "uint256",
							"name": "_id",
							"type": "uint256"
						},
						{
							"indexed": false,
							"internalType": "uint256",
							"name": "_approvals",
							"type": "uint256"
						},
						{
							"indexed": false,
							"internalType": "address",
							"name": "_approver",
							"type": "address"
						}
					],
					"name": "ApprovalReceived",
					"type": "event"
				},
				{
					"anonymous": false,
					"inputs": [
						{
							"indexed": false,
							"internalType": "uint256",
							"name": "_id",
							"type": "uint256"
						}
					],
					"name": "TransferApproved",
					"type": "event"
				},
				{
					"anonymous": false,
					"inputs": [
						{
							"indexed": false,
							"internalType": "uint256",
							"name": "_id",
							"type": "uint256"
						},
						{
							"indexed": false,
							"internalType": "uint256",
							"name": "_amount",
							"type": "uint256"
						},
						{
							"indexed": false,
							"internalType": "address",
							"name": "_initiator",
							"type": "address"
						},
						{
							"indexed": false,
							"internalType": "address",
							"name": "_receiver",
							"type": "address"
						}
					],
					"name": "TransferRequestCreated",
					"type": "event"
				},
				{
					"anonymous": false,
					"inputs": [
						{
							"indexed": true,
							"internalType": "uint256",
							"name": "amount",
							"type": "uint256"
						},
						{
							"indexed": true,
							"internalType": "address",
							"name": "depositedTo",
							"type": "address"
						}
					],
					"name": "deposited",
					"type": "event"
				},
				{
					"anonymous": false,
					"inputs": [
						{
							"indexed": true,
							"internalType": "address",
							"name": "from",
							"type": "address"
						},
						{
							"indexed": true,
							"internalType": "address",
							"name": "to",
							"type": "address"
						},
						{
							"indexed": true,
							"internalType": "uint256",
							"name": "amount",
							"type": "uint256"
						}
					],
					"name": "transferedAmount",
					"type": "event"
				},
				{
					"inputs": [
						{
							"internalType": "uint256",
							"name": "_id",
							"type": "uint256"
						}
					],
					"name": "approve",
					"outputs": [],
					"stateMutability": "nonpayable",
					"type": "function"
				},
				{
					"inputs": [
						{
							"internalType": "uint256",
							"name": "_amount",
							"type": "uint256"
						},
						{
							"internalType": "address payable",
							"name": "_receiver",
							"type": "address"
						}
					],
					"name": "createTransfer",
					"outputs": [],
					"stateMutability": "nonpayable",
					"type": "function"
				},
				{
					"inputs": [],
					"name": "deposit",
					"outputs": [
						{
							"internalType": "uint256",
							"name": "",
							"type": "uint256"
						}
					],
					"stateMutability": "payable",
					"type": "function"
				},
				{
					"inputs": [],
					"name": "getBalance",
					"outputs": [
						{
							"internalType": "uint256",
							"name": "",
							"type": "uint256"
						}
					],
					"stateMutability": "view",
					"type": "function"
				},
				{
					"inputs": [],
					"name": "getTransferRequests",
					"outputs": [
						{
							"components": [
								{
									"internalType": "uint256",
									"name": "amount",
									"type": "uint256"
								},
								{
									"internalType": "address payable",
									"name": "receiver",
									"type": "address"
								},
								{
									"internalType": "uint256",
									"name": "approvals",
									"type": "uint256"
								},
								{
									"internalType": "bool",
									"name": "hasBeenSent",
									"type": "bool"
								},
								{
									"internalType": "uint256",
									"name": "id",
									"type": "uint256"
								}
							],
							"internalType": "struct Multisig_Wallet.Transfer[]",
							"name": "",
							"type": "tuple[]"
						}
					],
					"stateMutability": "view",
					"type": "function"
				},
				{
					"inputs": [
						{
							"internalType": "uint256",
							"name": "",
							"type": "uint256"
						}
					],
					"name": "owners",
					"outputs": [
						{
							"internalType": "address",
							"name": "",
							"type": "address"
						}
					],
					"stateMutability": "view",
					"type": "function"
				},
				{
					"inputs": [
						{
							"internalType": "uint256",
							"name": "amount",
							"type": "uint256"
						}
					],
					"name": "withdraw",
					"outputs": [
						{
							"internalType": "uint256",
							"name": "",
							"type": "uint256"
						}
					],
					"stateMutability": "nonpayable",
					"type": "function"
				}
			],
			"devdoc": {
				"author": "ronmedina@superiorblocks.io",
				"details": "Multisig Wallet Smart Contract where multiple “signatures” or approvals  are needed for an outgoing transfer to take place. The wallet requires determine  many signatures are required to do a transfer. Anyone can deposit funds.  As soon as we want to spend funds, it requires the specified number of approvals.",
				"kind": "dev",
				"methods": {
					"approve(uint256)": {
						"details": "A method to approve a transfer by an owner."
					},
					"deposit()": {
						"details": "A method to make a deposit.",
						"returns": {
							"_0": "balance of the sender."
						}
					},
					"getBalance()": {
						"details": "A method to get the sender's balance.",
						"returns": {
							"_0": "balance of the sender."
						}
					},
					"withdraw(uint256)": {
						"details": "A method to make a withdrawal only if there is sufficient balance.",
						"params": {
							"amount": "The amount to withdraw."
						},
						"returns": {
							"_0": "balance of the sender/owner."
						}
					}
				},
				"title": "Multisig Wallet",
				"version": 1
			},
			"evm": {
				"assembly": "    /* \"contracts/MultiSIG_Wallet.sol\":567:4597  contract Multisig_Wallet is Ownable {... */\n  mstore(0x40, 0x80)\n    /* \"contracts/MultiSIG_Wallet.sol\":1118:1229  constructor(address[] memory _owners, uint _limit) {... */\n  callvalue\n  dup1\n  iszero\n  tag_1\n  jumpi\n  0x00\n  dup1\n  revert\ntag_1:\n  pop\n  mload(0x40)\n  sub(codesize, bytecodeSize)\n  dup1\n  bytecodeSize\n  dup4\n  codecopy\n  dup2\n  dup2\n  add\n  0x40\n  mstore\n  dup2\n  add\n  swap1\n  tag_2\n  swap2\n  swap1\n  tag_3\n  jump\t// in\ntag_2:\n    /* \"contracts/Ownable.sol\":439:449  msg.sender */\n  caller\n    /* \"contracts/Ownable.sol\":431:436  owner */\n  0x00\n  dup1\n    /* \"contracts/Ownable.sol\":431:449  owner = msg.sender */\n  0x0100\n  exp\n  dup2\n  sload\n  dup2\n  0xffffffffffffffffffffffffffffffffffffffff\n  mul\n  not\n  and\n  swap1\n  dup4\n  0xffffffffffffffffffffffffffffffffffffffff\n  and\n  mul\n  or\n  swap1\n  sstore\n  pop\n    /* \"contracts/MultiSIG_Wallet.sol\":1189:1196  _owners */\n  dup2\n    /* \"contracts/MultiSIG_Wallet.sol\":1180:1186  owners */\n  0x01\n    /* \"contracts/MultiSIG_Wallet.sol\":1180:1196  owners = _owners */\n  swap1\n  dup1\n  mload\n  swap1\n  0x20\n  add\n  swap1\n  tag_8\n  swap3\n  swap2\n  swap1\n  tag_9\n  jump\t// in\ntag_8:\n  pop\n    /* \"contracts/MultiSIG_Wallet.sol\":1215:1221  _limit */\n  dup1\n    /* \"contracts/MultiSIG_Wallet.sol\":1207:1212  limit */\n  0x02\n    /* \"contracts/MultiSIG_Wallet.sol\":1207:1221  limit = _limit */\n  dup2\n  swap1\n  sstore\n  pop\n    /* \"contracts/MultiSIG_Wallet.sol\":1118:1229  constructor(address[] memory _owners, uint _limit) {... */\n  pop\n  pop\n    /* \"contracts/MultiSIG_Wallet.sol\":567:4597  contract Multisig_Wallet is Ownable {... */\n  jump(tag_10)\ntag_9:\n  dup3\n  dup1\n  sload\n  dup3\n  dup3\n  sstore\n  swap1\n  0x00\n  mstore\n  keccak256(0x00, 0x20)\n  swap1\n  dup2\n  add\n  swap3\n  dup3\n  iszero\n  tag_11\n  jumpi\n  swap2\n  0x20\n  mul\n  dup3\n  add\ntag_12:\n  dup3\n  dup2\n  gt\n  iszero\n  tag_13\n  jumpi\n  dup3\n  mload\n  dup3\n  exp(0x0100, 0x00)\n  dup2\n  sload\n  dup2\n  0xffffffffffffffffffffffffffffffffffffffff\n  mul\n  not\n  and\n  swap1\n  dup4\n  0xffffffffffffffffffffffffffffffffffffffff\n  and\n  mul\n  or\n  swap1\n  sstore\n  pop\n  swap2\n  0x20\n  add\n  swap2\n  swap1\n  0x01\n  add\n  swap1\n  jump(tag_12)\ntag_13:\ntag_11:\n  pop\n  swap1\n  pop\n  tag_14\n  swap2\n  swap1\n  tag_15\n  jump\t// in\ntag_14:\n  pop\n  swap1\n  jump\t// out\ntag_15:\ntag_16:\n  dup1\n  dup3\n  gt\n  iszero\n  tag_17\n  jumpi\n  0x00\n  dup2\n  0x00\n  swap1\n  sstore\n  pop\n  0x01\n  add\n  jump(tag_16)\ntag_17:\n  pop\n  swap1\n  jump\t// out\n    /* \"#utility.yul\":7:82   */\ntag_18:\n    /* \"#utility.yul\":40:46   */\n  0x00\n    /* \"#utility.yul\":73:75   */\n  0x40\n    /* \"#utility.yul\":67:76   */\n  mload\n    /* \"#utility.yul\":57:76   */\n  swap1\n  pop\n    /* \"#utility.yul\":7:82   */\n  swap1\n  jump\t// out\n    /* \"#utility.yul\":88:205   */\ntag_19:\n    /* \"#utility.yul\":197:198   */\n  0x00\n    /* \"#utility.yul\":194:195   */\n  dup1\n    /* \"#utility.yul\":187:199   */\n  revert\n    /* \"#utility.yul\":211:328   */\ntag_20:\n    /* \"#utility.yul\":320:321   */\n  0x00\n    /* \"#utility.yul\":317:318   */\n  dup1\n    /* \"#utility.yul\":310:322   */\n  revert\n    /* \"#utility.yul\":334:451   */\ntag_21:\n    /* \"#utility.yul\":443:444   */\n  0x00\n    /* \"#utility.yul\":440:441   */\n  dup1\n    /* \"#utility.yul\":433:445   */\n  revert\n    /* \"#utility.yul\":457:559   */\ntag_22:\n    /* \"#utility.yul\":498:504   */\n  0x00\n    /* \"#utility.yul\":549:551   */\n  0x1f\n    /* \"#utility.yul\":545:552   */\n  not\n    /* \"#utility.yul\":540:542   */\n  0x1f\n    /* \"#utility.yul\":533:538   */\n  dup4\n    /* \"#utility.yul\":529:543   */\n  add\n    /* \"#utility.yul\":525:553   */\n  and\n    /* \"#utility.yul\":515:553   */\n  swap1\n  pop\n    /* \"#utility.yul\":457:559   */\n  swap2\n  swap1\n  pop\n  jump\t// out\n    /* \"#utility.yul\":565:745   */\ntag_23:\n    /* \"#utility.yul\":613:690   */\n  0x4e487b7100000000000000000000000000000000000000000000000000000000\n    /* \"#utility.yul\":610:611   */\n  0x00\n    /* \"#utility.yul\":603:691   */\n  mstore\n    /* \"#utility.yul\":710:714   */\n  0x41\n    /* \"#utility.yul\":707:708   */\n  0x04\n    /* \"#utility.yul\":700:715   */\n  mstore\n    /* \"#utility.yul\":734:738   */\n  0x24\n    /* \"#utility.yul\":731:732   */\n  0x00\n    /* \"#utility.yul\":724:739   */\n  revert\n    /* \"#utility.yul\":751:1032   */\ntag_24:\n    /* \"#utility.yul\":834:861   */\n  tag_45\n    /* \"#utility.yul\":856:860   */\n  dup3\n    /* \"#utility.yul\":834:861   */\n  tag_22\n  jump\t// in\ntag_45:\n    /* \"#utility.yul\":826:832   */\n  dup2\n    /* \"#utility.yul\":822:862   */\n  add\n    /* \"#utility.yul\":964:970   */\n  dup2\n    /* \"#utility.yul\":952:962   */\n  dup2\n    /* \"#utility.yul\":949:971   */\n  lt\n    /* \"#utility.yul\":928:946   */\n  0xffffffffffffffff\n    /* \"#utility.yul\":916:926   */\n  dup3\n    /* \"#utility.yul\":913:947   */\n  gt\n    /* \"#utility.yul\":910:972   */\n  or\n    /* \"#utility.yul\":907:995   */\n  iszero\n  tag_46\n  jumpi\n    /* \"#utility.yul\":975:993   */\n  tag_47\n  tag_23\n  jump\t// in\ntag_47:\n    /* \"#utility.yul\":907:995   */\ntag_46:\n    /* \"#utility.yul\":1015:1025   */\n  dup1\n    /* \"#utility.yul\":1011:1013   */\n  0x40\n    /* \"#utility.yul\":1004:1026   */\n  mstore\n    /* \"#utility.yul\":794:1032   */\n  pop\n    /* \"#utility.yul\":751:1032   */\n  pop\n  pop\n  jump\t// out\n    /* \"#utility.yul\":1038:1167   */\ntag_25:\n    /* \"#utility.yul\":1072:1078   */\n  0x00\n    /* \"#utility.yul\":1099:1119   */\n  tag_49\n  tag_18\n  jump\t// in\ntag_49:\n    /* \"#utility.yul\":1089:1119   */\n  swap1\n  pop\n    /* \"#utility.yul\":1128:1161   */\n  tag_50\n    /* \"#utility.yul\":1156:1160   */\n  dup3\n    /* \"#utility.yul\":1148:1154   */\n  dup3\n    /* \"#utility.yul\":1128:1161   */\n  tag_24\n  jump\t// in\ntag_50:\n    /* \"#utility.yul\":1038:1167   */\n  swap2\n  swap1\n  pop\n  jump\t// out\n    /* \"#utility.yul\":1173:1484   */\ntag_26:\n    /* \"#utility.yul\":1250:1254   */\n  0x00\n    /* \"#utility.yul\":1340:1358   */\n  0xffffffffffffffff\n    /* \"#utility.yul\":1332:1338   */\n  dup3\n    /* \"#utility.yul\":1329:1359   */\n  gt\n    /* \"#utility.yul\":1326:1382   */\n  iszero\n  tag_52\n  jumpi\n    /* \"#utility.yul\":1362:1380   */\n  tag_53\n  tag_23\n  jump\t// in\ntag_53:\n    /* \"#utility.yul\":1326:1382   */\ntag_52:\n    /* \"#utility.yul\":1412:1416   */\n  0x20\n    /* \"#utility.yul\":1404:1410   */\n  dup3\n    /* \"#utility.yul\":1400:1417   */\n  mul\n    /* \"#utility.yul\":1392:1417   */\n  swap1\n  pop\n    /* \"#utility.yul\":1472:1476   */\n  0x20\n    /* \"#utility.yul\":1466:1470   */\n  dup2\n    /* \"#utility.yul\":1462:1477   */\n  add\n    /* \"#utility.yul\":1454:1477   */\n  swap1\n  pop\n    /* \"#utility.yul\":1173:1484   */\n  swap2\n  swap1\n  pop\n  jump\t// out\n    /* \"#utility.yul\":1490:1607   */\ntag_27:\n    /* \"#utility.yul\":1599:1600   */\n  0x00\n    /* \"#utility.yul\":1596:1597   */\n  dup1\n    /* \"#utility.yul\":1589:1601   */\n  revert\n    /* \"#utility.yul\":1613:1739   */\ntag_28:\n    /* \"#utility.yul\":1650:1657   */\n  0x00\n    /* \"#utility.yul\":1690:1732   */\n  0xffffffffffffffffffffffffffffffffffffffff\n    /* \"#utility.yul\":1683:1688   */\n  dup3\n    /* \"#utility.yul\":1679:1733   */\n  and\n    /* \"#utility.yul\":1668:1733   */\n  swap1\n  pop\n    /* \"#utility.yul\":1613:1739   */\n  swap2\n  swap1\n  pop\n  jump\t// out\n    /* \"#utility.yul\":1745:1841   */\ntag_29:\n    /* \"#utility.yul\":1782:1789   */\n  0x00\n    /* \"#utility.yul\":1811:1835   */\n  tag_57\n    /* \"#utility.yul\":1829:1834   */\n  dup3\n    /* \"#utility.yul\":1811:1835   */\n  tag_28\n  jump\t// in\ntag_57:\n    /* \"#utility.yul\":1800:1835   */\n  swap1\n  pop\n    /* \"#utility.yul\":1745:1841   */\n  swap2\n  swap1\n  pop\n  jump\t// out\n    /* \"#utility.yul\":1847:1969   */\ntag_30:\n    /* \"#utility.yul\":1920:1944   */\n  tag_59\n    /* \"#utility.yul\":1938:1943   */\n  dup2\n    /* \"#utility.yul\":1920:1944   */\n  tag_29\n  jump\t// in\ntag_59:\n    /* \"#utility.yul\":1913:1918   */\n  dup2\n    /* \"#utility.yul\":1910:1945   */\n  eq\n    /* \"#utility.yul\":1900:1963   */\n  tag_60\n  jumpi\n    /* \"#utility.yul\":1959:1960   */\n  0x00\n    /* \"#utility.yul\":1956:1957   */\n  dup1\n    /* \"#utility.yul\":1949:1961   */\n  revert\n    /* \"#utility.yul\":1900:1963   */\ntag_60:\n    /* \"#utility.yul\":1847:1969   */\n  pop\n  jump\t// out\n    /* \"#utility.yul\":1975:2118   */\ntag_31:\n    /* \"#utility.yul\":2032:2037   */\n  0x00\n    /* \"#utility.yul\":2063:2069   */\n  dup2\n    /* \"#utility.yul\":2057:2070   */\n  mload\n    /* \"#utility.yul\":2048:2070   */\n  swap1\n  pop\n    /* \"#utility.yul\":2079:2112   */\n  tag_62\n    /* \"#utility.yul\":2106:2111   */\n  dup2\n    /* \"#utility.yul\":2079:2112   */\n  tag_30\n  jump\t// in\ntag_62:\n    /* \"#utility.yul\":1975:2118   */\n  swap3\n  swap2\n  pop\n  pop\n  jump\t// out\n    /* \"#utility.yul\":2141:2873   */\ntag_32:\n    /* \"#utility.yul\":2248:2253   */\n  0x00\n    /* \"#utility.yul\":2273:2354   */\n  tag_64\n    /* \"#utility.yul\":2289:2353   */\n  tag_65\n    /* \"#utility.yul\":2346:2352   */\n  dup5\n    /* \"#utility.yul\":2289:2353   */\n  tag_26\n  jump\t// in\ntag_65:\n    /* \"#utility.yul\":2273:2354   */\n  tag_25\n  jump\t// in\ntag_64:\n    /* \"#utility.yul\":2264:2354   */\n  swap1\n  pop\n    /* \"#utility.yul\":2374:2379   */\n  dup1\n    /* \"#utility.yul\":2403:2409   */\n  dup4\n    /* \"#utility.yul\":2396:2401   */\n  dup3\n    /* \"#utility.yul\":2389:2410   */\n  mstore\n    /* \"#utility.yul\":2437:2441   */\n  0x20\n    /* \"#utility.yul\":2430:2435   */\n  dup3\n    /* \"#utility.yul\":2426:2442   */\n  add\n    /* \"#utility.yul\":2419:2442   */\n  swap1\n  pop\n    /* \"#utility.yul\":2490:2494   */\n  0x20\n    /* \"#utility.yul\":2482:2488   */\n  dup5\n    /* \"#utility.yul\":2478:2495   */\n  mul\n    /* \"#utility.yul\":2470:2476   */\n  dup4\n    /* \"#utility.yul\":2466:2496   */\n  add\n    /* \"#utility.yul\":2519:2522   */\n  dup6\n    /* \"#utility.yul\":2511:2517   */\n  dup2\n    /* \"#utility.yul\":2508:2523   */\n  gt\n    /* \"#utility.yul\":2505:2627   */\n  iszero\n  tag_66\n  jumpi\n    /* \"#utility.yul\":2538:2617   */\n  tag_67\n  tag_27\n  jump\t// in\ntag_67:\n    /* \"#utility.yul\":2505:2627   */\ntag_66:\n    /* \"#utility.yul\":2653:2659   */\n  dup4\n    /* \"#utility.yul\":2636:2867   */\ntag_68:\n    /* \"#utility.yul\":2670:2676   */\n  dup2\n    /* \"#utility.yul\":2665:2668   */\n  dup2\n    /* \"#utility.yul\":2662:2677   */\n  lt\n    /* \"#utility.yul\":2636:2867   */\n  iszero\n  tag_70\n  jumpi\n    /* \"#utility.yul\":2745:2748   */\n  dup1\n    /* \"#utility.yul\":2774:2822   */\n  tag_71\n    /* \"#utility.yul\":2818:2821   */\n  dup9\n    /* \"#utility.yul\":2806:2816   */\n  dup3\n    /* \"#utility.yul\":2774:2822   */\n  tag_31\n  jump\t// in\ntag_71:\n    /* \"#utility.yul\":2769:2772   */\n  dup5\n    /* \"#utility.yul\":2762:2823   */\n  mstore\n    /* \"#utility.yul\":2852:2856   */\n  0x20\n    /* \"#utility.yul\":2847:2850   */\n  dup5\n    /* \"#utility.yul\":2843:2857   */\n  add\n    /* \"#utility.yul\":2836:2857   */\n  swap4\n  pop\n    /* \"#utility.yul\":2712:2867   */\n  pop\n    /* \"#utility.yul\":2696:2700   */\n  0x20\n    /* \"#utility.yul\":2691:2694   */\n  dup2\n    /* \"#utility.yul\":2687:2701   */\n  add\n    /* \"#utility.yul\":2680:2701   */\n  swap1\n  pop\n    /* \"#utility.yul\":2636:2867   */\n  jump(tag_68)\ntag_70:\n    /* \"#utility.yul\":2640:2661   */\n  pop\n    /* \"#utility.yul\":2254:2873   */\n  pop\n  pop\n    /* \"#utility.yul\":2141:2873   */\n  swap4\n  swap3\n  pop\n  pop\n  pop\n  jump\t// out\n    /* \"#utility.yul\":2896:3281   */\ntag_33:\n    /* \"#utility.yul\":2978:2983   */\n  0x00\n    /* \"#utility.yul\":3027:3030   */\n  dup3\n    /* \"#utility.yul\":3020:3024   */\n  0x1f\n    /* \"#utility.yul\":3012:3018   */\n  dup4\n    /* \"#utility.yul\":3008:3025   */\n  add\n    /* \"#utility.yul\":3004:3031   */\n  slt\n    /* \"#utility.yul\":2994:3116   */\n  tag_73\n  jumpi\n    /* \"#utility.yul\":3035:3114   */\n  tag_74\n  tag_21\n  jump\t// in\ntag_74:\n    /* \"#utility.yul\":2994:3116   */\ntag_73:\n    /* \"#utility.yul\":3145:3151   */\n  dup2\n    /* \"#utility.yul\":3139:3152   */\n  mload\n    /* \"#utility.yul\":3170:3275   */\n  tag_75\n    /* \"#utility.yul\":3271:3274   */\n  dup5\n    /* \"#utility.yul\":3263:3269   */\n  dup3\n    /* \"#utility.yul\":3256:3260   */\n  0x20\n    /* \"#utility.yul\":3248:3254   */\n  dup7\n    /* \"#utility.yul\":3244:3261   */\n  add\n    /* \"#utility.yul\":3170:3275   */\n  tag_32\n  jump\t// in\ntag_75:\n    /* \"#utility.yul\":3161:3275   */\n  swap2\n  pop\n    /* \"#utility.yul\":2984:3281   */\n  pop\n    /* \"#utility.yul\":2896:3281   */\n  swap3\n  swap2\n  pop\n  pop\n  jump\t// out\n    /* \"#utility.yul\":3287:3364   */\ntag_34:\n    /* \"#utility.yul\":3324:3331   */\n  0x00\n    /* \"#utility.yul\":3353:3358   */\n  dup2\n    /* \"#utility.yul\":3342:3358   */\n  swap1\n  pop\n    /* \"#utility.yul\":3287:3364   */\n  swap2\n  swap1\n  pop\n  jump\t// out\n    /* \"#utility.yul\":3370:3492   */\ntag_35:\n    /* \"#utility.yul\":3443:3467   */\n  tag_78\n    /* \"#utility.yul\":3461:3466   */\n  dup2\n    /* \"#utility.yul\":3443:3467   */\n  tag_34\n  jump\t// in\ntag_78:\n    /* \"#utility.yul\":3436:3441   */\n  dup2\n    /* \"#utility.yul\":3433:3468   */\n  eq\n    /* \"#utility.yul\":3423:3486   */\n  tag_79\n  jumpi\n    /* \"#utility.yul\":3482:3483   */\n  0x00\n    /* \"#utility.yul\":3479:3480   */\n  dup1\n    /* \"#utility.yul\":3472:3484   */\n  revert\n    /* \"#utility.yul\":3423:3486   */\ntag_79:\n    /* \"#utility.yul\":3370:3492   */\n  pop\n  jump\t// out\n    /* \"#utility.yul\":3498:3641   */\ntag_36:\n    /* \"#utility.yul\":3555:3560   */\n  0x00\n    /* \"#utility.yul\":3586:3592   */\n  dup2\n    /* \"#utility.yul\":3580:3593   */\n  mload\n    /* \"#utility.yul\":3571:3593   */\n  swap1\n  pop\n    /* \"#utility.yul\":3602:3635   */\n  tag_81\n    /* \"#utility.yul\":3629:3634   */\n  dup2\n    /* \"#utility.yul\":3602:3635   */\n  tag_35\n  jump\t// in\ntag_81:\n    /* \"#utility.yul\":3498:3641   */\n  swap3\n  swap2\n  pop\n  pop\n  jump\t// out\n    /* \"#utility.yul\":3647:4357   */\ntag_3:\n    /* \"#utility.yul\":3751:3757   */\n  0x00\n    /* \"#utility.yul\":3759:3765   */\n  dup1\n    /* \"#utility.yul\":3808:3810   */\n  0x40\n    /* \"#utility.yul\":3796:3805   */\n  dup4\n    /* \"#utility.yul\":3787:3794   */\n  dup6\n    /* \"#utility.yul\":3783:3806   */\n  sub\n    /* \"#utility.yul\":3779:3811   */\n  slt\n    /* \"#utility.yul\":3776:3895   */\n  iszero\n  tag_83\n  jumpi\n    /* \"#utility.yul\":3814:3893   */\n  tag_84\n  tag_19\n  jump\t// in\ntag_84:\n    /* \"#utility.yul\":3776:3895   */\ntag_83:\n    /* \"#utility.yul\":3955:3956   */\n  0x00\n    /* \"#utility.yul\":3944:3953   */\n  dup4\n    /* \"#utility.yul\":3940:3957   */\n  add\n    /* \"#utility.yul\":3934:3958   */\n  mload\n    /* \"#utility.yul\":3985:4003   */\n  0xffffffffffffffff\n    /* \"#utility.yul\":3977:3983   */\n  dup2\n    /* \"#utility.yul\":3974:4004   */\n  gt\n    /* \"#utility.yul\":3971:4088   */\n  iszero\n  tag_85\n  jumpi\n    /* \"#utility.yul\":4007:4086   */\n  tag_86\n  tag_20\n  jump\t// in\ntag_86:\n    /* \"#utility.yul\":3971:4088   */\ntag_85:\n    /* \"#utility.yul\":4112:4201   */\n  tag_87\n    /* \"#utility.yul\":4193:4200   */\n  dup6\n    /* \"#utility.yul\":4184:4190   */\n  dup3\n    /* \"#utility.yul\":4173:4182   */\n  dup7\n    /* \"#utility.yul\":4169:4191   */\n  add\n    /* \"#utility.yul\":4112:4201   */\n  tag_33\n  jump\t// in\ntag_87:\n    /* \"#utility.yul\":4102:4201   */\n  swap3\n  pop\n    /* \"#utility.yul\":3905:4211   */\n  pop\n    /* \"#utility.yul\":4250:4252   */\n  0x20\n    /* \"#utility.yul\":4276:4340   */\n  tag_88\n    /* \"#utility.yul\":4332:4339   */\n  dup6\n    /* \"#utility.yul\":4323:4329   */\n  dup3\n    /* \"#utility.yul\":4312:4321   */\n  dup7\n    /* \"#utility.yul\":4308:4330   */\n  add\n    /* \"#utility.yul\":4276:4340   */\n  tag_36\n  jump\t// in\ntag_88:\n    /* \"#utility.yul\":4266:4340   */\n  swap2\n  pop\n    /* \"#utility.yul\":4221:4350   */\n  pop\n    /* \"#utility.yul\":3647:4357   */\n  swap3\n  pop\n  swap3\n  swap1\n  pop\n  jump\t// out\n    /* \"contracts/MultiSIG_Wallet.sol\":567:4597  contract Multisig_Wallet is Ownable {... */\ntag_10:\n  dataSize(sub_0)\n  dup1\n  dataOffset(sub_0)\n  0x00\n  codecopy\n  0x00\n  return\nstop\n\nsub_0: assembly {\n        /* \"contracts/MultiSIG_Wallet.sol\":567:4597  contract Multisig_Wallet is Ownable {... */\n      mstore(0x40, 0x80)\n      jumpi(tag_1, lt(calldatasize, 0x04))\n      shr(0xe0, calldataload(0x00))\n      dup1\n      0x4c12fa47\n      gt\n      tag_9\n      jumpi\n      dup1\n      0x4c12fa47\n      eq\n      tag_5\n      jumpi\n      dup1\n      0xa04ef145\n      eq\n      tag_6\n      jumpi\n      dup1\n      0xb759f954\n      eq\n      tag_7\n      jumpi\n      dup1\n      0xd0e30db0\n      eq\n      tag_8\n      jumpi\n      jump(tag_1)\n    tag_9:\n      dup1\n      0x025e7c27\n      eq\n      tag_2\n      jumpi\n      dup1\n      0x12065fe0\n      eq\n      tag_3\n      jumpi\n      dup1\n      0x2e1a7d4d\n      eq\n      tag_4\n      jumpi\n    tag_1:\n      0x00\n      dup1\n      revert\n        /* \"contracts/MultiSIG_Wallet.sol\":630:653  address[] public owners */\n    tag_2:\n      callvalue\n      dup1\n      iszero\n      tag_10\n      jumpi\n      0x00\n      dup1\n      revert\n    tag_10:\n      pop\n      tag_11\n      0x04\n      dup1\n      calldatasize\n      sub\n      dup2\n      add\n      swap1\n      tag_12\n      swap2\n      swap1\n      tag_13\n      jump\t// in\n    tag_12:\n      tag_14\n      jump\t// in\n    tag_11:\n      mload(0x40)\n      tag_15\n      swap2\n      swap1\n      tag_16\n      jump\t// in\n    tag_15:\n      mload(0x40)\n      dup1\n      swap2\n      sub\n      swap1\n      return\n        /* \"contracts/MultiSIG_Wallet.sol\":3206:3299  function getBalance() public view returns (uint){... */\n    tag_3:\n      callvalue\n      dup1\n      iszero\n      tag_17\n      jumpi\n      0x00\n      dup1\n      revert\n    tag_17:\n      pop\n      tag_18\n      tag_19\n      jump\t// in\n    tag_18:\n      mload(0x40)\n      tag_20\n      swap2\n      swap1\n      tag_21\n      jump\t// in\n    tag_20:\n      mload(0x40)\n      dup1\n      swap2\n      sub\n      swap1\n      return\n        /* \"contracts/MultiSIG_Wallet.sol\":3496:3778  function withdraw(uint amount) public returns (uint){... */\n    tag_4:\n      callvalue\n      dup1\n      iszero\n      tag_22\n      jumpi\n      0x00\n      dup1\n      revert\n    tag_22:\n      pop\n      tag_23\n      0x04\n      dup1\n      calldatasize\n      sub\n      dup2\n      add\n      swap1\n      tag_24\n      swap2\n      swap1\n      tag_13\n      jump\t// in\n    tag_24:\n      tag_25\n      jump\t// in\n    tag_23:\n      mload(0x40)\n      tag_26\n      swap2\n      swap1\n      tag_21\n      jump\t// in\n    tag_26:\n      mload(0x40)\n      dup1\n      swap2\n      sub\n      swap1\n      return\n        /* \"contracts/MultiSIG_Wallet.sol\":2889:3076  function createTransfer(uint _amount, address payable _receiver) public onlyOwners{... */\n    tag_5:\n      callvalue\n      dup1\n      iszero\n      tag_27\n      jumpi\n      0x00\n      dup1\n      revert\n    tag_27:\n      pop\n      tag_28\n      0x04\n      dup1\n      calldatasize\n      sub\n      dup2\n      add\n      swap1\n      tag_29\n      swap2\n      swap1\n      tag_30\n      jump\t// in\n    tag_29:\n      tag_31\n      jump\t// in\n    tag_28:\n      stop\n        /* \"contracts/MultiSIG_Wallet.sol\":4480:4592  function getTransferRequests() public view returns (Transfer[] memory){... */\n    tag_6:\n      callvalue\n      dup1\n      iszero\n      tag_32\n      jumpi\n      0x00\n      dup1\n      revert\n    tag_32:\n      pop\n      tag_33\n      tag_34\n      jump\t// in\n    tag_33:\n      mload(0x40)\n      tag_35\n      swap2\n      swap1\n      tag_36\n      jump\t// in\n    tag_35:\n      mload(0x40)\n      dup1\n      swap2\n      sub\n      swap1\n      return\n        /* \"contracts/MultiSIG_Wallet.sol\":3862:4472  function approve(uint _id) public onlyOwners {  ... */\n    tag_7:\n      callvalue\n      dup1\n      iszero\n      tag_37\n      jumpi\n      0x00\n      dup1\n      revert\n    tag_37:\n      pop\n      tag_38\n      0x04\n      dup1\n      calldatasize\n      sub\n      dup2\n      add\n      swap1\n      tag_39\n      swap2\n      swap1\n      tag_13\n      jump\t// in\n    tag_39:\n      tag_40\n      jump\t// in\n    tag_38:\n      stop\n        /* \"contracts/MultiSIG_Wallet.sol\":2582:2787  function deposit() public payable returns (uint) { ... */\n    tag_8:\n      tag_41\n      tag_42\n      jump\t// in\n    tag_41:\n      mload(0x40)\n      tag_43\n      swap2\n      swap1\n      tag_21\n      jump\t// in\n    tag_43:\n      mload(0x40)\n      dup1\n      swap2\n      sub\n      swap1\n      return\n        /* \"contracts/MultiSIG_Wallet.sol\":630:653  address[] public owners */\n    tag_14:\n      0x01\n      dup2\n      dup2\n      sload\n      dup2\n      lt\n      tag_44\n      jumpi\n      0x00\n      dup1\n      revert\n    tag_44:\n      swap1\n      0x00\n      mstore\n      keccak256(0x00, 0x20)\n      add\n      0x00\n      swap2\n      pop\n      sload\n      swap1\n      0x0100\n      exp\n      swap1\n      div\n      0xffffffffffffffffffffffffffffffffffffffff\n      and\n      dup2\n      jump\t// out\n        /* \"contracts/MultiSIG_Wallet.sol\":3206:3299  function getBalance() public view returns (uint){... */\n    tag_19:\n        /* \"contracts/MultiSIG_Wallet.sol\":3249:3253  uint */\n      0x00\n        /* \"contracts/MultiSIG_Wallet.sol\":3272:3279  balance */\n      0x04\n        /* \"contracts/MultiSIG_Wallet.sol\":3272:3291  balance[msg.sender] */\n      0x00\n        /* \"contracts/MultiSIG_Wallet.sol\":3280:3290  msg.sender */\n      caller\n        /* \"contracts/MultiSIG_Wallet.sol\":3272:3291  balance[msg.sender] */\n      0xffffffffffffffffffffffffffffffffffffffff\n      and\n      0xffffffffffffffffffffffffffffffffffffffff\n      and\n      dup2\n      mstore\n      0x20\n      add\n      swap1\n      dup2\n      mstore\n      0x20\n      add\n      0x00\n      keccak256\n      sload\n        /* \"contracts/MultiSIG_Wallet.sol\":3265:3291  return balance[msg.sender] */\n      swap1\n      pop\n        /* \"contracts/MultiSIG_Wallet.sol\":3206:3299  function getBalance() public view returns (uint){... */\n      swap1\n      jump\t// out\n        /* \"contracts/MultiSIG_Wallet.sol\":3496:3778  function withdraw(uint amount) public returns (uint){... */\n    tag_25:\n        /* \"contracts/MultiSIG_Wallet.sol\":3543:3547  uint */\n      0x00\n        /* \"contracts/MultiSIG_Wallet.sol\":3589:3595  amount */\n      dup2\n        /* \"contracts/MultiSIG_Wallet.sol\":3567:3574  balance */\n      0x04\n        /* \"contracts/MultiSIG_Wallet.sol\":3567:3586  balance[msg.sender] */\n      0x00\n        /* \"contracts/MultiSIG_Wallet.sol\":3575:3585  msg.sender */\n      caller\n        /* \"contracts/MultiSIG_Wallet.sol\":3567:3586  balance[msg.sender] */\n      0xffffffffffffffffffffffffffffffffffffffff\n      and\n      0xffffffffffffffffffffffffffffffffffffffff\n      and\n      dup2\n      mstore\n      0x20\n      add\n      swap1\n      dup2\n      mstore\n      0x20\n      add\n      0x00\n      keccak256\n      sload\n        /* \"contracts/MultiSIG_Wallet.sol\":3567:3595  balance[msg.sender]>= amount */\n      lt\n      iszero\n        /* \"contracts/MultiSIG_Wallet.sol\":3559:3646  require(balance[msg.sender]>= amount,\"ERROR 1_Insufficient balance to withdraw funds.\") */\n      tag_48\n      jumpi\n      mload(0x40)\n      0x08c379a000000000000000000000000000000000000000000000000000000000\n      dup2\n      mstore\n      0x04\n      add\n      tag_49\n      swap1\n      tag_50\n      jump\t// in\n    tag_49:\n      mload(0x40)\n      dup1\n      swap2\n      sub\n      swap1\n      revert\n    tag_48:\n        /* \"contracts/MultiSIG_Wallet.sol\":3665:3675  msg.sender */\n      caller\n        /* \"contracts/MultiSIG_Wallet.sol\":3657:3685  payable(msg.sender).transfer */\n      0xffffffffffffffffffffffffffffffffffffffff\n      and\n        /* \"contracts/MultiSIG_Wallet.sol\":3657:3693  payable(msg.sender).transfer(amount) */\n      0x08fc\n        /* \"contracts/MultiSIG_Wallet.sol\":3686:3692  amount */\n      dup4\n        /* \"contracts/MultiSIG_Wallet.sol\":3657:3693  payable(msg.sender).transfer(amount) */\n      swap1\n      dup2\n      iszero\n      mul\n      swap1\n      mload(0x40)\n      0x00\n      mload(0x40)\n      dup1\n      dup4\n      sub\n      dup2\n      dup6\n      dup9\n      dup9\n      call\n      swap4\n      pop\n      pop\n      pop\n      pop\n      iszero\n      dup1\n      iszero\n      tag_52\n      jumpi\n      returndatasize\n      0x00\n      dup1\n      returndatacopy\n      revert(0x00, returndatasize)\n    tag_52:\n      pop\n        /* \"contracts/MultiSIG_Wallet.sol\":3727:3733  amount */\n      dup2\n        /* \"contracts/MultiSIG_Wallet.sol\":3704:3711  balance */\n      0x04\n        /* \"contracts/MultiSIG_Wallet.sol\":3704:3723  balance[msg.sender] */\n      0x00\n        /* \"contracts/MultiSIG_Wallet.sol\":3712:3722  msg.sender */\n      caller\n        /* \"contracts/MultiSIG_Wallet.sol\":3704:3723  balance[msg.sender] */\n      0xffffffffffffffffffffffffffffffffffffffff\n      and\n      0xffffffffffffffffffffffffffffffffffffffff\n      and\n      dup2\n      mstore\n      0x20\n      add\n      swap1\n      dup2\n      mstore\n      0x20\n      add\n      0x00\n      keccak256\n      0x00\n        /* \"contracts/MultiSIG_Wallet.sol\":3704:3733  balance[msg.sender] -= amount */\n      dup3\n      dup3\n      sload\n      tag_53\n      swap2\n      swap1\n      tag_54\n      jump\t// in\n    tag_53:\n      swap3\n      pop\n      pop\n      dup2\n      swap1\n      sstore\n      pop\n        /* \"contracts/MultiSIG_Wallet.sol\":3751:3758  balance */\n      0x04\n        /* \"contracts/MultiSIG_Wallet.sol\":3751:3770  balance[msg.sender] */\n      0x00\n        /* \"contracts/MultiSIG_Wallet.sol\":3759:3769  msg.sender */\n      caller\n        /* \"contracts/MultiSIG_Wallet.sol\":3751:3770  balance[msg.sender] */\n      0xffffffffffffffffffffffffffffffffffffffff\n      and\n      0xffffffffffffffffffffffffffffffffffffffff\n      and\n      dup2\n      mstore\n      0x20\n      add\n      swap1\n      dup2\n      mstore\n      0x20\n      add\n      0x00\n      keccak256\n      sload\n        /* \"contracts/MultiSIG_Wallet.sol\":3744:3770  return balance[msg.sender] */\n      swap1\n      pop\n        /* \"contracts/MultiSIG_Wallet.sol\":3496:3778  function withdraw(uint amount) public returns (uint){... */\n      swap2\n      swap1\n      pop\n      jump\t// out\n        /* \"contracts/MultiSIG_Wallet.sol\":2889:3076  function createTransfer(uint _amount, address payable _receiver) public onlyOwners{... */\n    tag_31:\n        /* \"contracts/MultiSIG_Wallet.sol\":875:885  bool owner */\n      0x00\n        /* \"contracts/MultiSIG_Wallet.sol\":908:914  uint i */\n      dup1\n        /* \"contracts/MultiSIG_Wallet.sol\":904:1039  for(uint i=0; i<owners.length;i++){... */\n    tag_56:\n        /* \"contracts/MultiSIG_Wallet.sol\":920:926  owners */\n      0x01\n        /* \"contracts/MultiSIG_Wallet.sol\":920:933  owners.length */\n      dup1\n      sload\n      swap1\n      pop\n        /* \"contracts/MultiSIG_Wallet.sol\":918:919  i */\n      dup2\n        /* \"contracts/MultiSIG_Wallet.sol\":918:933  i<owners.length */\n      lt\n        /* \"contracts/MultiSIG_Wallet.sol\":904:1039  for(uint i=0; i<owners.length;i++){... */\n      iszero\n      tag_57\n      jumpi\n        /* \"contracts/MultiSIG_Wallet.sol\":970:980  msg.sender */\n      caller\n        /* \"contracts/MultiSIG_Wallet.sol\":957:980  owners[i] == msg.sender */\n      0xffffffffffffffffffffffffffffffffffffffff\n      and\n        /* \"contracts/MultiSIG_Wallet.sol\":957:963  owners */\n      0x01\n        /* \"contracts/MultiSIG_Wallet.sol\":964:965  i */\n      dup3\n        /* \"contracts/MultiSIG_Wallet.sol\":957:966  owners[i] */\n      dup2\n      sload\n      dup2\n      lt\n      tag_59\n      jumpi\n      tag_60\n      tag_61\n      jump\t// in\n    tag_60:\n    tag_59:\n      swap1\n      0x00\n      mstore\n      keccak256(0x00, 0x20)\n      add\n      0x00\n      swap1\n      sload\n      swap1\n      0x0100\n      exp\n      swap1\n      div\n      0xffffffffffffffffffffffffffffffffffffffff\n      and\n        /* \"contracts/MultiSIG_Wallet.sol\":957:980  owners[i] == msg.sender */\n      0xffffffffffffffffffffffffffffffffffffffff\n      and\n      sub\n        /* \"contracts/MultiSIG_Wallet.sol\":953:1028  if (owners[i] == msg.sender){... */\n      tag_63\n      jumpi\n        /* \"contracts/MultiSIG_Wallet.sol\":1008:1012  true */\n      0x01\n        /* \"contracts/MultiSIG_Wallet.sol\":1000:1012  owner = true */\n      swap2\n      pop\n        /* \"contracts/MultiSIG_Wallet.sol\":953:1028  if (owners[i] == msg.sender){... */\n    tag_63:\n        /* \"contracts/MultiSIG_Wallet.sol\":934:937  i++ */\n      dup1\n      dup1\n      tag_64\n      swap1\n      tag_65\n      jump\t// in\n    tag_64:\n      swap2\n      pop\n      pop\n        /* \"contracts/MultiSIG_Wallet.sol\":904:1039  for(uint i=0; i<owners.length;i++){... */\n      jump(tag_56)\n    tag_57:\n      pop\n        /* \"contracts/MultiSIG_Wallet.sol\":1066:1070  true */\n      0x01\n        /* \"contracts/MultiSIG_Wallet.sol\":1057:1070  owner == true */\n      iszero\n      iszero\n        /* \"contracts/MultiSIG_Wallet.sol\":1057:1062  owner */\n      dup2\n        /* \"contracts/MultiSIG_Wallet.sol\":1057:1070  owner == true */\n      iszero\n      iszero\n      eq\n        /* \"contracts/MultiSIG_Wallet.sol\":1049:1071  require(owner == true) */\n      tag_66\n      jumpi\n      0x00\n      dup1\n      revert\n    tag_66:\n        /* \"contracts/MultiSIG_Wallet.sol\":2982:2998  transferRequests */\n      0x03\n        /* \"contracts/MultiSIG_Wallet.sol\":3004:3067  Transfer(_amount, _receiver, 0, false, transferRequests.length) */\n      mload(0x40)\n      dup1\n      0xa0\n      add\n      0x40\n      mstore\n      dup1\n        /* \"contracts/MultiSIG_Wallet.sol\":3013:3020  _amount */\n      dup6\n        /* \"contracts/MultiSIG_Wallet.sol\":3004:3067  Transfer(_amount, _receiver, 0, false, transferRequests.length) */\n      dup2\n      mstore\n      0x20\n      add\n        /* \"contracts/MultiSIG_Wallet.sol\":3022:3031  _receiver */\n      dup5\n        /* \"contracts/MultiSIG_Wallet.sol\":3004:3067  Transfer(_amount, _receiver, 0, false, transferRequests.length) */\n      0xffffffffffffffffffffffffffffffffffffffff\n      and\n      dup2\n      mstore\n      0x20\n      add\n        /* \"contracts/MultiSIG_Wallet.sol\":3033:3034  0 */\n      0x00\n        /* \"contracts/MultiSIG_Wallet.sol\":3004:3067  Transfer(_amount, _receiver, 0, false, transferRequests.length) */\n      dup2\n      mstore\n      0x20\n      add\n        /* \"contracts/MultiSIG_Wallet.sol\":3036:3041  false */\n      0x00\n        /* \"contracts/MultiSIG_Wallet.sol\":3004:3067  Transfer(_amount, _receiver, 0, false, transferRequests.length) */\n      iszero\n      iszero\n      dup2\n      mstore\n      0x20\n      add\n        /* \"contracts/MultiSIG_Wallet.sol\":3043:3059  transferRequests */\n      0x03\n        /* \"contracts/MultiSIG_Wallet.sol\":3043:3066  transferRequests.length */\n      dup1\n      sload\n      swap1\n      pop\n        /* \"contracts/MultiSIG_Wallet.sol\":3004:3067  Transfer(_amount, _receiver, 0, false, transferRequests.length) */\n      dup2\n      mstore\n      pop\n        /* \"contracts/MultiSIG_Wallet.sol\":2982:3068  transferRequests.push(Transfer(_amount, _receiver, 0, false, transferRequests.length)) */\n      swap1\n      dup1\n      0x01\n      dup2\n      sload\n      add\n      dup1\n      dup3\n      sstore\n      dup1\n      swap2\n      pop\n      pop\n      0x01\n      swap1\n      sub\n      swap1\n      0x00\n      mstore\n      keccak256(0x00, 0x20)\n      swap1\n      0x05\n      mul\n      add\n      0x00\n      swap1\n      swap2\n      swap1\n      swap2\n      swap1\n      swap2\n      pop\n      0x00\n      dup3\n      add\n      mload\n      dup2\n      0x00\n      add\n      sstore\n      0x20\n      dup3\n      add\n      mload\n      dup2\n      0x01\n      add\n      exp(0x0100, 0x00)\n      dup2\n      sload\n      dup2\n      0xffffffffffffffffffffffffffffffffffffffff\n      mul\n      not\n      and\n      swap1\n      dup4\n      0xffffffffffffffffffffffffffffffffffffffff\n      and\n      mul\n      or\n      swap1\n      sstore\n      pop\n      0x40\n      dup3\n      add\n      mload\n      dup2\n      0x02\n      add\n      sstore\n      0x60\n      dup3\n      add\n      mload\n      dup2\n      0x03\n      add\n      exp(0x0100, 0x00)\n      dup2\n      sload\n      dup2\n      0xff\n      mul\n      not\n      and\n      swap1\n      dup4\n      iszero\n      iszero\n      mul\n      or\n      swap1\n      sstore\n      pop\n      0x80\n      dup3\n      add\n      mload\n      dup2\n      0x04\n      add\n      sstore\n      pop\n      pop\n        /* \"contracts/MultiSIG_Wallet.sol\":864:1091  {... */\n      pop\n        /* \"contracts/MultiSIG_Wallet.sol\":2889:3076  function createTransfer(uint _amount, address payable _receiver) public onlyOwners{... */\n      pop\n      pop\n      jump\t// out\n        /* \"contracts/MultiSIG_Wallet.sol\":4480:4592  function getTransferRequests() public view returns (Transfer[] memory){... */\n    tag_34:\n        /* \"contracts/MultiSIG_Wallet.sol\":4532:4549  Transfer[] memory */\n      0x60\n        /* \"contracts/MultiSIG_Wallet.sol\":4568:4584  transferRequests */\n      0x03\n        /* \"contracts/MultiSIG_Wallet.sol\":4561:4584  return transferRequests */\n      dup1\n      sload\n      dup1\n      0x20\n      mul\n      0x20\n      add\n      mload(0x40)\n      swap1\n      dup2\n      add\n      0x40\n      mstore\n      dup1\n      swap3\n      swap2\n      swap1\n      dup2\n      dup2\n      mstore\n      0x20\n      add\n      0x00\n      swap1\n    tag_70:\n      dup3\n      dup3\n      lt\n      iszero\n      tag_71\n      jumpi\n      dup4\n      dup3\n      swap1\n      0x00\n      mstore\n      keccak256(0x00, 0x20)\n      swap1\n      0x05\n      mul\n      add\n      mload(0x40)\n      dup1\n      0xa0\n      add\n      0x40\n      mstore\n      swap1\n      dup2\n      0x00\n      dup3\n      add\n      sload\n      dup2\n      mstore\n      0x20\n      add\n      0x01\n      dup3\n      add\n      0x00\n      swap1\n      sload\n      swap1\n      0x0100\n      exp\n      swap1\n      div\n      0xffffffffffffffffffffffffffffffffffffffff\n      and\n      0xffffffffffffffffffffffffffffffffffffffff\n      and\n      0xffffffffffffffffffffffffffffffffffffffff\n      and\n      dup2\n      mstore\n      0x20\n      add\n      0x02\n      dup3\n      add\n      sload\n      dup2\n      mstore\n      0x20\n      add\n      0x03\n      dup3\n      add\n      0x00\n      swap1\n      sload\n      swap1\n      0x0100\n      exp\n      swap1\n      div\n      0xff\n      and\n      iszero\n      iszero\n      iszero\n      iszero\n      dup2\n      mstore\n      0x20\n      add\n      0x04\n      dup3\n      add\n      sload\n      dup2\n      mstore\n      pop\n      pop\n      dup2\n      mstore\n      0x20\n      add\n      swap1\n      0x01\n      add\n      swap1\n      jump(tag_70)\n    tag_71:\n      pop\n      pop\n      pop\n      pop\n      swap1\n      pop\n        /* \"contracts/MultiSIG_Wallet.sol\":4480:4592  function getTransferRequests() public view returns (Transfer[] memory){... */\n      swap1\n      jump\t// out\n        /* \"contracts/MultiSIG_Wallet.sol\":3862:4472  function approve(uint _id) public onlyOwners {  ... */\n    tag_40:\n        /* \"contracts/MultiSIG_Wallet.sol\":875:885  bool owner */\n      0x00\n        /* \"contracts/MultiSIG_Wallet.sol\":908:914  uint i */\n      dup1\n        /* \"contracts/MultiSIG_Wallet.sol\":904:1039  for(uint i=0; i<owners.length;i++){... */\n    tag_74:\n        /* \"contracts/MultiSIG_Wallet.sol\":920:926  owners */\n      0x01\n        /* \"contracts/MultiSIG_Wallet.sol\":920:933  owners.length */\n      dup1\n      sload\n      swap1\n      pop\n        /* \"contracts/MultiSIG_Wallet.sol\":918:919  i */\n      dup2\n        /* \"contracts/MultiSIG_Wallet.sol\":918:933  i<owners.length */\n      lt\n        /* \"contracts/MultiSIG_Wallet.sol\":904:1039  for(uint i=0; i<owners.length;i++){... */\n      iszero\n      tag_75\n      jumpi\n        /* \"contracts/MultiSIG_Wallet.sol\":970:980  msg.sender */\n      caller\n        /* \"contracts/MultiSIG_Wallet.sol\":957:980  owners[i] == msg.sender */\n      0xffffffffffffffffffffffffffffffffffffffff\n      and\n        /* \"contracts/MultiSIG_Wallet.sol\":957:963  owners */\n      0x01\n        /* \"contracts/MultiSIG_Wallet.sol\":964:965  i */\n      dup3\n        /* \"contracts/MultiSIG_Wallet.sol\":957:966  owners[i] */\n      dup2\n      sload\n      dup2\n      lt\n      tag_77\n      jumpi\n      tag_78\n      tag_61\n      jump\t// in\n    tag_78:\n    tag_77:\n      swap1\n      0x00\n      mstore\n      keccak256(0x00, 0x20)\n      add\n      0x00\n      swap1\n      sload\n      swap1\n      0x0100\n      exp\n      swap1\n      div\n      0xffffffffffffffffffffffffffffffffffffffff\n      and\n        /* \"contracts/MultiSIG_Wallet.sol\":957:980  owners[i] == msg.sender */\n      0xffffffffffffffffffffffffffffffffffffffff\n      and\n      sub\n        /* \"contracts/MultiSIG_Wallet.sol\":953:1028  if (owners[i] == msg.sender){... */\n      tag_80\n      jumpi\n        /* \"contracts/MultiSIG_Wallet.sol\":1008:1012  true */\n      0x01\n        /* \"contracts/MultiSIG_Wallet.sol\":1000:1012  owner = true */\n      swap2\n      pop\n        /* \"contracts/MultiSIG_Wallet.sol\":953:1028  if (owners[i] == msg.sender){... */\n    tag_80:\n        /* \"contracts/MultiSIG_Wallet.sol\":934:937  i++ */\n      dup1\n      dup1\n      tag_81\n      swap1\n      tag_65\n      jump\t// in\n    tag_81:\n      swap2\n      pop\n      pop\n        /* \"contracts/MultiSIG_Wallet.sol\":904:1039  for(uint i=0; i<owners.length;i++){... */\n      jump(tag_74)\n    tag_75:\n      pop\n        /* \"contracts/MultiSIG_Wallet.sol\":1066:1070  true */\n      0x01\n        /* \"contracts/MultiSIG_Wallet.sol\":1057:1070  owner == true */\n      iszero\n      iszero\n        /* \"contracts/MultiSIG_Wallet.sol\":1057:1062  owner */\n      dup2\n        /* \"contracts/MultiSIG_Wallet.sol\":1057:1070  owner == true */\n      iszero\n      iszero\n      eq\n        /* \"contracts/MultiSIG_Wallet.sol\":1049:1071  require(owner == true) */\n      tag_82\n      jumpi\n      0x00\n      dup1\n      revert\n    tag_82:\n        /* \"contracts/MultiSIG_Wallet.sol\":3958:3963  false */\n      0x00\n        /* \"contracts/MultiSIG_Wallet.sol\":3928:3963  approvals[msg.sender][_id] == false */\n      iszero\n      iszero\n        /* \"contracts/MultiSIG_Wallet.sol\":3928:3937  approvals */\n      0x05\n        /* \"contracts/MultiSIG_Wallet.sol\":3928:3949  approvals[msg.sender] */\n      0x00\n        /* \"contracts/MultiSIG_Wallet.sol\":3938:3948  msg.sender */\n      caller\n        /* \"contracts/MultiSIG_Wallet.sol\":3928:3949  approvals[msg.sender] */\n      0xffffffffffffffffffffffffffffffffffffffff\n      and\n      0xffffffffffffffffffffffffffffffffffffffff\n      and\n      dup2\n      mstore\n      0x20\n      add\n      swap1\n      dup2\n      mstore\n      0x20\n      add\n      0x00\n      keccak256\n        /* \"contracts/MultiSIG_Wallet.sol\":3928:3954  approvals[msg.sender][_id] */\n      0x00\n        /* \"contracts/MultiSIG_Wallet.sol\":3950:3953  _id */\n      dup5\n        /* \"contracts/MultiSIG_Wallet.sol\":3928:3954  approvals[msg.sender][_id] */\n      dup2\n      mstore\n      0x20\n      add\n      swap1\n      dup2\n      mstore\n      0x20\n      add\n      0x00\n      keccak256\n      0x00\n      swap1\n      sload\n      swap1\n      0x0100\n      exp\n      swap1\n      div\n      0xff\n      and\n        /* \"contracts/MultiSIG_Wallet.sol\":3928:3963  approvals[msg.sender][_id] == false */\n      iszero\n      iszero\n      eq\n        /* \"contracts/MultiSIG_Wallet.sol\":3920:4011  require(approvals[msg.sender][_id] == false, \"ERROR 7_Owner is not allowed to vote twice.\") */\n      tag_84\n      jumpi\n      mload(0x40)\n      0x08c379a000000000000000000000000000000000000000000000000000000000\n      dup2\n      mstore\n      0x04\n      add\n      tag_85\n      swap1\n      tag_86\n      jump\t// in\n    tag_85:\n      mload(0x40)\n      dup1\n      swap2\n      sub\n      swap1\n      revert\n    tag_84:\n        /* \"contracts/MultiSIG_Wallet.sol\":4080:4085  false */\n      0x00\n        /* \"contracts/MultiSIG_Wallet.sol\":4043:4085  transferRequests[_id].hasBeenSent == false */\n      iszero\n      iszero\n        /* \"contracts/MultiSIG_Wallet.sol\":4043:4059  transferRequests */\n      0x03\n        /* \"contracts/MultiSIG_Wallet.sol\":4060:4063  _id */\n      dup4\n        /* \"contracts/MultiSIG_Wallet.sol\":4043:4064  transferRequests[_id] */\n      dup2\n      sload\n      dup2\n      lt\n      tag_87\n      jumpi\n      tag_88\n      tag_61\n      jump\t// in\n    tag_88:\n    tag_87:\n      swap1\n      0x00\n      mstore\n      keccak256(0x00, 0x20)\n      swap1\n      0x05\n      mul\n      add\n        /* \"contracts/MultiSIG_Wallet.sol\":4043:4076  transferRequests[_id].hasBeenSent */\n      0x03\n      add\n      0x00\n      swap1\n      sload\n      swap1\n      0x0100\n      exp\n      swap1\n      div\n      0xff\n      and\n        /* \"contracts/MultiSIG_Wallet.sol\":4043:4085  transferRequests[_id].hasBeenSent == false */\n      iszero\n      iszero\n      eq\n        /* \"contracts/MultiSIG_Wallet.sol\":4035:4167  require(transferRequests[_id].hasBeenSent == false, \"ERROR 8_Not allowed to vote on a transfer request that has already been sent.\") */\n      tag_90\n      jumpi\n      mload(0x40)\n      0x08c379a000000000000000000000000000000000000000000000000000000000\n      dup2\n      mstore\n      0x04\n      add\n      tag_91\n      swap1\n      tag_92\n      jump\t// in\n    tag_91:\n      mload(0x40)\n      dup1\n      swap2\n      sub\n      swap1\n      revert\n    tag_90:\n        /* \"contracts/MultiSIG_Wallet.sol\":4209:4213  true */\n      0x01\n        /* \"contracts/MultiSIG_Wallet.sol\":4180:4189  approvals */\n      0x05\n        /* \"contracts/MultiSIG_Wallet.sol\":4180:4201  approvals[msg.sender] */\n      0x00\n        /* \"contracts/MultiSIG_Wallet.sol\":4190:4200  msg.sender */\n      caller\n        /* \"contracts/MultiSIG_Wallet.sol\":4180:4201  approvals[msg.sender] */\n      0xffffffffffffffffffffffffffffffffffffffff\n      and\n      0xffffffffffffffffffffffffffffffffffffffff\n      and\n      dup2\n      mstore\n      0x20\n      add\n      swap1\n      dup2\n      mstore\n      0x20\n      add\n      0x00\n      keccak256\n        /* \"contracts/MultiSIG_Wallet.sol\":4180:4206  approvals[msg.sender][_id] */\n      0x00\n        /* \"contracts/MultiSIG_Wallet.sol\":4202:4205  _id */\n      dup5\n        /* \"contracts/MultiSIG_Wallet.sol\":4180:4206  approvals[msg.sender][_id] */\n      dup2\n      mstore\n      0x20\n      add\n      swap1\n      dup2\n      mstore\n      0x20\n      add\n      0x00\n      keccak256\n      0x00\n        /* \"contracts/MultiSIG_Wallet.sol\":4180:4213  approvals[msg.sender][_id] = true */\n      0x0100\n      exp\n      dup2\n      sload\n      dup2\n      0xff\n      mul\n      not\n      and\n      swap1\n      dup4\n      iszero\n      iszero\n      mul\n      or\n      swap1\n      sstore\n      pop\n        /* \"contracts/MultiSIG_Wallet.sol\":4224:4240  transferRequests */\n      0x03\n        /* \"contracts/MultiSIG_Wallet.sol\":4241:4244  _id */\n      dup3\n        /* \"contracts/MultiSIG_Wallet.sol\":4224:4245  transferRequests[_id] */\n      dup2\n      sload\n      dup2\n      lt\n      tag_93\n      jumpi\n      tag_94\n      tag_61\n      jump\t// in\n    tag_94:\n    tag_93:\n      swap1\n      0x00\n      mstore\n      keccak256(0x00, 0x20)\n      swap1\n      0x05\n      mul\n      add\n        /* \"contracts/MultiSIG_Wallet.sol\":4224:4255  transferRequests[_id].approvals */\n      0x02\n      add\n      0x00\n        /* \"contracts/MultiSIG_Wallet.sol\":4224:4257  transferRequests[_id].approvals++ */\n      dup2\n      sload\n      dup1\n      swap3\n      swap2\n      swap1\n      tag_96\n      swap1\n      tag_65\n      jump\t// in\n    tag_96:\n      swap2\n      swap1\n      pop\n      sstore\n      pop\n        /* \"contracts/MultiSIG_Wallet.sol\":4308:4313  limit */\n      sload(0x02)\n        /* \"contracts/MultiSIG_Wallet.sol\":4273:4289  transferRequests */\n      0x03\n        /* \"contracts/MultiSIG_Wallet.sol\":4290:4293  _id */\n      dup4\n        /* \"contracts/MultiSIG_Wallet.sol\":4273:4294  transferRequests[_id] */\n      dup2\n      sload\n      dup2\n      lt\n      tag_97\n      jumpi\n      tag_98\n      tag_61\n      jump\t// in\n    tag_98:\n    tag_97:\n      swap1\n      0x00\n      mstore\n      keccak256(0x00, 0x20)\n      swap1\n      0x05\n      mul\n      add\n        /* \"contracts/MultiSIG_Wallet.sol\":4273:4304  transferRequests[_id].approvals */\n      0x02\n      add\n      sload\n        /* \"contracts/MultiSIG_Wallet.sol\":4273:4313  transferRequests[_id].approvals >= limit */\n      lt\n        /* \"contracts/MultiSIG_Wallet.sol\":4270:4465  if(transferRequests[_id].approvals >= limit){... */\n      tag_100\n      jumpi\n        /* \"contracts/MultiSIG_Wallet.sol\":4365:4369  true */\n      0x01\n        /* \"contracts/MultiSIG_Wallet.sol\":4329:4345  transferRequests */\n      0x03\n        /* \"contracts/MultiSIG_Wallet.sol\":4346:4349  _id */\n      dup4\n        /* \"contracts/MultiSIG_Wallet.sol\":4329:4350  transferRequests[_id] */\n      dup2\n      sload\n      dup2\n      lt\n      tag_101\n      jumpi\n      tag_102\n      tag_61\n      jump\t// in\n    tag_102:\n    tag_101:\n      swap1\n      0x00\n      mstore\n      keccak256(0x00, 0x20)\n      swap1\n      0x05\n      mul\n      add\n        /* \"contracts/MultiSIG_Wallet.sol\":4329:4362  transferRequests[_id].hasBeenSent */\n      0x03\n      add\n      0x00\n        /* \"contracts/MultiSIG_Wallet.sol\":4329:4369  transferRequests[_id].hasBeenSent = true */\n      0x0100\n      exp\n      dup2\n      sload\n      dup2\n      0xff\n      mul\n      not\n      and\n      swap1\n      dup4\n      iszero\n      iszero\n      mul\n      or\n      swap1\n      sstore\n      pop\n        /* \"contracts/MultiSIG_Wallet.sol\":4384:4400  transferRequests */\n      0x03\n        /* \"contracts/MultiSIG_Wallet.sol\":4401:4404  _id */\n      dup3\n        /* \"contracts/MultiSIG_Wallet.sol\":4384:4405  transferRequests[_id] */\n      dup2\n      sload\n      dup2\n      lt\n      tag_104\n      jumpi\n      tag_105\n      tag_61\n      jump\t// in\n    tag_105:\n    tag_104:\n      swap1\n      0x00\n      mstore\n      keccak256(0x00, 0x20)\n      swap1\n      0x05\n      mul\n      add\n        /* \"contracts/MultiSIG_Wallet.sol\":4384:4414  transferRequests[_id].receiver */\n      0x01\n      add\n      0x00\n      swap1\n      sload\n      swap1\n      0x0100\n      exp\n      swap1\n      div\n      0xffffffffffffffffffffffffffffffffffffffff\n      and\n        /* \"contracts/MultiSIG_Wallet.sol\":4384:4423  transferRequests[_id].receiver.transfer */\n      0xffffffffffffffffffffffffffffffffffffffff\n      and\n        /* \"contracts/MultiSIG_Wallet.sol\":4384:4453  transferRequests[_id].receiver.transfer(transferRequests[_id].amount) */\n      0x08fc\n        /* \"contracts/MultiSIG_Wallet.sol\":4424:4440  transferRequests */\n      0x03\n        /* \"contracts/MultiSIG_Wallet.sol\":4441:4444  _id */\n      dup5\n        /* \"contracts/MultiSIG_Wallet.sol\":4424:4445  transferRequests[_id] */\n      dup2\n      sload\n      dup2\n      lt\n      tag_107\n      jumpi\n      tag_108\n      tag_61\n      jump\t// in\n    tag_108:\n    tag_107:\n      swap1\n      0x00\n      mstore\n      keccak256(0x00, 0x20)\n      swap1\n      0x05\n      mul\n      add\n        /* \"contracts/MultiSIG_Wallet.sol\":4424:4452  transferRequests[_id].amount */\n      0x00\n      add\n      sload\n        /* \"contracts/MultiSIG_Wallet.sol\":4384:4453  transferRequests[_id].receiver.transfer(transferRequests[_id].amount) */\n      swap1\n      dup2\n      iszero\n      mul\n      swap1\n      mload(0x40)\n      0x00\n      mload(0x40)\n      dup1\n      dup4\n      sub\n      dup2\n      dup6\n      dup9\n      dup9\n      call\n      swap4\n      pop\n      pop\n      pop\n      pop\n      iszero\n      dup1\n      iszero\n      tag_111\n      jumpi\n      returndatasize\n      0x00\n      dup1\n      returndatacopy\n      revert(0x00, returndatasize)\n    tag_111:\n      pop\n        /* \"contracts/MultiSIG_Wallet.sol\":4270:4465  if(transferRequests[_id].approvals >= limit){... */\n    tag_100:\n        /* \"contracts/MultiSIG_Wallet.sol\":864:1091  {... */\n      pop\n        /* \"contracts/MultiSIG_Wallet.sol\":3862:4472  function approve(uint _id) public onlyOwners {  ... */\n      pop\n      jump\t// out\n        /* \"contracts/MultiSIG_Wallet.sol\":2582:2787  function deposit() public payable returns (uint) { ... */\n    tag_42:\n        /* \"contracts/MultiSIG_Wallet.sol\":2625:2629  uint */\n      0x00\n        /* \"contracts/MultiSIG_Wallet.sol\":2666:2675  msg.value */\n      callvalue\n        /* \"contracts/MultiSIG_Wallet.sol\":2643:2650  balance */\n      0x04\n        /* \"contracts/MultiSIG_Wallet.sol\":2643:2662  balance[msg.sender] */\n      0x00\n        /* \"contracts/MultiSIG_Wallet.sol\":2651:2661  msg.sender */\n      caller\n        /* \"contracts/MultiSIG_Wallet.sol\":2643:2662  balance[msg.sender] */\n      0xffffffffffffffffffffffffffffffffffffffff\n      and\n      0xffffffffffffffffffffffffffffffffffffffff\n      and\n      dup2\n      mstore\n      0x20\n      add\n      swap1\n      dup2\n      mstore\n      0x20\n      add\n      0x00\n      keccak256\n      0x00\n        /* \"contracts/MultiSIG_Wallet.sol\":2643:2675  balance[msg.sender] += msg.value */\n      dup3\n      dup3\n      sload\n      tag_113\n      swap2\n      swap1\n      tag_114\n      jump\t// in\n    tag_113:\n      swap3\n      pop\n      pop\n      dup2\n      swap1\n      sstore\n      pop\n        /* \"contracts/MultiSIG_Wallet.sol\":2714:2724  msg.sender */\n      caller\n        /* \"contracts/MultiSIG_Wallet.sol\":2692:2725  deposited (msg.value, msg.sender) */\n      0xffffffffffffffffffffffffffffffffffffffff\n      and\n        /* \"contracts/MultiSIG_Wallet.sol\":2703:2712  msg.value */\n      callvalue\n        /* \"contracts/MultiSIG_Wallet.sol\":2692:2725  deposited (msg.value, msg.sender) */\n      0xa23831066066ec8812cc52afc91a52134a8b50c9209b68c276be679f4073d95d\n      mload(0x40)\n      mload(0x40)\n      dup1\n      swap2\n      sub\n      swap1\n      log3\n        /* \"contracts/MultiSIG_Wallet.sol\":2760:2767  balance */\n      0x04\n        /* \"contracts/MultiSIG_Wallet.sol\":2760:2779  balance[msg.sender] */\n      0x00\n        /* \"contracts/MultiSIG_Wallet.sol\":2768:2778  msg.sender */\n      caller\n        /* \"contracts/MultiSIG_Wallet.sol\":2760:2779  balance[msg.sender] */\n      0xffffffffffffffffffffffffffffffffffffffff\n      and\n      0xffffffffffffffffffffffffffffffffffffffff\n      and\n      dup2\n      mstore\n      0x20\n      add\n      swap1\n      dup2\n      mstore\n      0x20\n      add\n      0x00\n      keccak256\n      sload\n        /* \"contracts/MultiSIG_Wallet.sol\":2753:2779  return balance[msg.sender] */\n      swap1\n      pop\n        /* \"contracts/MultiSIG_Wallet.sol\":2582:2787  function deposit() public payable returns (uint) { ... */\n      swap1\n      jump\t// out\n        /* \"#utility.yul\":88:205   */\n    tag_116:\n        /* \"#utility.yul\":197:198   */\n      0x00\n        /* \"#utility.yul\":194:195   */\n      dup1\n        /* \"#utility.yul\":187:199   */\n      revert\n        /* \"#utility.yul\":334:411   */\n    tag_118:\n        /* \"#utility.yul\":371:378   */\n      0x00\n        /* \"#utility.yul\":400:405   */\n      dup2\n        /* \"#utility.yul\":389:405   */\n      swap1\n      pop\n        /* \"#utility.yul\":334:411   */\n      swap2\n      swap1\n      pop\n      jump\t// out\n        /* \"#utility.yul\":417:539   */\n    tag_119:\n        /* \"#utility.yul\":490:514   */\n      tag_153\n        /* \"#utility.yul\":508:513   */\n      dup2\n        /* \"#utility.yul\":490:514   */\n      tag_118\n      jump\t// in\n    tag_153:\n        /* \"#utility.yul\":483:488   */\n      dup2\n        /* \"#utility.yul\":480:515   */\n      eq\n        /* \"#utility.yul\":470:533   */\n      tag_154\n      jumpi\n        /* \"#utility.yul\":529:530   */\n      0x00\n        /* \"#utility.yul\":526:527   */\n      dup1\n        /* \"#utility.yul\":519:531   */\n      revert\n        /* \"#utility.yul\":470:533   */\n    tag_154:\n        /* \"#utility.yul\":417:539   */\n      pop\n      jump\t// out\n        /* \"#utility.yul\":545:684   */\n    tag_120:\n        /* \"#utility.yul\":591:596   */\n      0x00\n        /* \"#utility.yul\":629:635   */\n      dup2\n        /* \"#utility.yul\":616:636   */\n      calldataload\n        /* \"#utility.yul\":607:636   */\n      swap1\n      pop\n        /* \"#utility.yul\":645:678   */\n      tag_156\n        /* \"#utility.yul\":672:677   */\n      dup2\n        /* \"#utility.yul\":645:678   */\n      tag_119\n      jump\t// in\n    tag_156:\n        /* \"#utility.yul\":545:684   */\n      swap3\n      swap2\n      pop\n      pop\n      jump\t// out\n        /* \"#utility.yul\":690:1019   */\n    tag_13:\n        /* \"#utility.yul\":749:755   */\n      0x00\n        /* \"#utility.yul\":798:800   */\n      0x20\n        /* \"#utility.yul\":786:795   */\n      dup3\n        /* \"#utility.yul\":777:784   */\n      dup5\n        /* \"#utility.yul\":773:796   */\n      sub\n        /* \"#utility.yul\":769:801   */\n      slt\n        /* \"#utility.yul\":766:885   */\n      iszero\n      tag_158\n      jumpi\n        /* \"#utility.yul\":804:883   */\n      tag_159\n      tag_116\n      jump\t// in\n    tag_159:\n        /* \"#utility.yul\":766:885   */\n    tag_158:\n        /* \"#utility.yul\":924:925   */\n      0x00\n        /* \"#utility.yul\":949:1002   */\n      tag_160\n        /* \"#utility.yul\":994:1001   */\n      dup5\n        /* \"#utility.yul\":985:991   */\n      dup3\n        /* \"#utility.yul\":974:983   */\n      dup6\n        /* \"#utility.yul\":970:992   */\n      add\n        /* \"#utility.yul\":949:1002   */\n      tag_120\n      jump\t// in\n    tag_160:\n        /* \"#utility.yul\":939:1002   */\n      swap2\n      pop\n        /* \"#utility.yul\":895:1012   */\n      pop\n        /* \"#utility.yul\":690:1019   */\n      swap3\n      swap2\n      pop\n      pop\n      jump\t// out\n        /* \"#utility.yul\":1025:1151   */\n    tag_121:\n        /* \"#utility.yul\":1062:1069   */\n      0x00\n        /* \"#utility.yul\":1102:1144   */\n      0xffffffffffffffffffffffffffffffffffffffff\n        /* \"#utility.yul\":1095:1100   */\n      dup3\n        /* \"#utility.yul\":1091:1145   */\n      and\n        /* \"#utility.yul\":1080:1145   */\n      swap1\n      pop\n        /* \"#utility.yul\":1025:1151   */\n      swap2\n      swap1\n      pop\n      jump\t// out\n        /* \"#utility.yul\":1157:1253   */\n    tag_122:\n        /* \"#utility.yul\":1194:1201   */\n      0x00\n        /* \"#utility.yul\":1223:1247   */\n      tag_163\n        /* \"#utility.yul\":1241:1246   */\n      dup3\n        /* \"#utility.yul\":1223:1247   */\n      tag_121\n      jump\t// in\n    tag_163:\n        /* \"#utility.yul\":1212:1247   */\n      swap1\n      pop\n        /* \"#utility.yul\":1157:1253   */\n      swap2\n      swap1\n      pop\n      jump\t// out\n        /* \"#utility.yul\":1259:1377   */\n    tag_123:\n        /* \"#utility.yul\":1346:1370   */\n      tag_165\n        /* \"#utility.yul\":1364:1369   */\n      dup2\n        /* \"#utility.yul\":1346:1370   */\n      tag_122\n      jump\t// in\n    tag_165:\n        /* \"#utility.yul\":1341:1344   */\n      dup3\n        /* \"#utility.yul\":1334:1371   */\n      mstore\n        /* \"#utility.yul\":1259:1377   */\n      pop\n      pop\n      jump\t// out\n        /* \"#utility.yul\":1383:1605   */\n    tag_16:\n        /* \"#utility.yul\":1476:1480   */\n      0x00\n        /* \"#utility.yul\":1514:1516   */\n      0x20\n        /* \"#utility.yul\":1503:1512   */\n      dup3\n        /* \"#utility.yul\":1499:1517   */\n      add\n        /* \"#utility.yul\":1491:1517   */\n      swap1\n      pop\n        /* \"#utility.yul\":1527:1598   */\n      tag_167\n        /* \"#utility.yul\":1595:1596   */\n      0x00\n        /* \"#utility.yul\":1584:1593   */\n      dup4\n        /* \"#utility.yul\":1580:1597   */\n      add\n        /* \"#utility.yul\":1571:1577   */\n      dup5\n        /* \"#utility.yul\":1527:1598   */\n      tag_123\n      jump\t// in\n    tag_167:\n        /* \"#utility.yul\":1383:1605   */\n      swap3\n      swap2\n      pop\n      pop\n      jump\t// out\n        /* \"#utility.yul\":1611:1729   */\n    tag_124:\n        /* \"#utility.yul\":1698:1722   */\n      tag_169\n        /* \"#utility.yul\":1716:1721   */\n      dup2\n        /* \"#utility.yul\":1698:1722   */\n      tag_118\n      jump\t// in\n    tag_169:\n        /* \"#utility.yul\":1693:1696   */\n      dup3\n        /* \"#utility.yul\":1686:1723   */\n      mstore\n        /* \"#utility.yul\":1611:1729   */\n      pop\n      pop\n      jump\t// out\n        /* \"#utility.yul\":1735:1957   */\n    tag_21:\n        /* \"#utility.yul\":1828:1832   */\n      0x00\n        /* \"#utility.yul\":1866:1868   */\n      0x20\n        /* \"#utility.yul\":1855:1864   */\n      dup3\n        /* \"#utility.yul\":1851:1869   */\n      add\n        /* \"#utility.yul\":1843:1869   */\n      swap1\n      pop\n        /* \"#utility.yul\":1879:1950   */\n      tag_171\n        /* \"#utility.yul\":1947:1948   */\n      0x00\n        /* \"#utility.yul\":1936:1945   */\n      dup4\n        /* \"#utility.yul\":1932:1949   */\n      add\n        /* \"#utility.yul\":1923:1929   */\n      dup5\n        /* \"#utility.yul\":1879:1950   */\n      tag_124\n      jump\t// in\n    tag_171:\n        /* \"#utility.yul\":1735:1957   */\n      swap3\n      swap2\n      pop\n      pop\n      jump\t// out\n        /* \"#utility.yul\":1963:2067   */\n    tag_125:\n        /* \"#utility.yul\":2008:2015   */\n      0x00\n        /* \"#utility.yul\":2037:2061   */\n      tag_173\n        /* \"#utility.yul\":2055:2060   */\n      dup3\n        /* \"#utility.yul\":2037:2061   */\n      tag_121\n      jump\t// in\n    tag_173:\n        /* \"#utility.yul\":2026:2061   */\n      swap1\n      pop\n        /* \"#utility.yul\":1963:2067   */\n      swap2\n      swap1\n      pop\n      jump\t// out\n        /* \"#utility.yul\":2073:2211   */\n    tag_126:\n        /* \"#utility.yul\":2154:2186   */\n      tag_175\n        /* \"#utility.yul\":2180:2185   */\n      dup2\n        /* \"#utility.yul\":2154:2186   */\n      tag_125\n      jump\t// in\n    tag_175:\n        /* \"#utility.yul\":2147:2152   */\n      dup2\n        /* \"#utility.yul\":2144:2187   */\n      eq\n        /* \"#utility.yul\":2134:2205   */\n      tag_176\n      jumpi\n        /* \"#utility.yul\":2201:2202   */\n      0x00\n        /* \"#utility.yul\":2198:2199   */\n      dup1\n        /* \"#utility.yul\":2191:2203   */\n      revert\n        /* \"#utility.yul\":2134:2205   */\n    tag_176:\n        /* \"#utility.yul\":2073:2211   */\n      pop\n      jump\t// out\n        /* \"#utility.yul\":2217:2372   */\n    tag_127:\n        /* \"#utility.yul\":2271:2276   */\n      0x00\n        /* \"#utility.yul\":2309:2315   */\n      dup2\n        /* \"#utility.yul\":2296:2316   */\n      calldataload\n        /* \"#utility.yul\":2287:2316   */\n      swap1\n      pop\n        /* \"#utility.yul\":2325:2366   */\n      tag_178\n        /* \"#utility.yul\":2360:2365   */\n      dup2\n        /* \"#utility.yul\":2325:2366   */\n      tag_126\n      jump\t// in\n    tag_178:\n        /* \"#utility.yul\":2217:2372   */\n      swap3\n      swap2\n      pop\n      pop\n      jump\t// out\n        /* \"#utility.yul\":2378:2868   */\n    tag_30:\n        /* \"#utility.yul\":2454:2460   */\n      0x00\n        /* \"#utility.yul\":2462:2468   */\n      dup1\n        /* \"#utility.yul\":2511:2513   */\n      0x40\n        /* \"#utility.yul\":2499:2508   */\n      dup4\n        /* \"#utility.yul\":2490:2497   */\n      dup6\n        /* \"#utility.yul\":2486:2509   */\n      sub\n        /* \"#utility.yul\":2482:2514   */\n      slt\n        /* \"#utility.yul\":2479:2598   */\n      iszero\n      tag_180\n      jumpi\n        /* \"#utility.yul\":2517:2596   */\n      tag_181\n      tag_116\n      jump\t// in\n    tag_181:\n        /* \"#utility.yul\":2479:2598   */\n    tag_180:\n        /* \"#utility.yul\":2637:2638   */\n      0x00\n        /* \"#utility.yul\":2662:2715   */\n      tag_182\n        /* \"#utility.yul\":2707:2714   */\n      dup6\n        /* \"#utility.yul\":2698:2704   */\n      dup3\n        /* \"#utility.yul\":2687:2696   */\n      dup7\n        /* \"#utility.yul\":2683:2705   */\n      add\n        /* \"#utility.yul\":2662:2715   */\n      tag_120\n      jump\t// in\n    tag_182:\n        /* \"#utility.yul\":2652:2715   */\n      swap3\n      pop\n        /* \"#utility.yul\":2608:2725   */\n      pop\n        /* \"#utility.yul\":2764:2766   */\n      0x20\n        /* \"#utility.yul\":2790:2851   */\n      tag_183\n        /* \"#utility.yul\":2843:2850   */\n      dup6\n        /* \"#utility.yul\":2834:2840   */\n      dup3\n        /* \"#utility.yul\":2823:2832   */\n      dup7\n        /* \"#utility.yul\":2819:2841   */\n      add\n        /* \"#utility.yul\":2790:2851   */\n      tag_127\n      jump\t// in\n    tag_183:\n        /* \"#utility.yul\":2780:2851   */\n      swap2\n      pop\n        /* \"#utility.yul\":2735:2861   */\n      pop\n        /* \"#utility.yul\":2378:2868   */\n      swap3\n      pop\n      swap3\n      swap1\n      pop\n      jump\t// out\n        /* \"#utility.yul\":2874:3012   */\n    tag_128:\n        /* \"#utility.yul\":2965:2971   */\n      0x00\n        /* \"#utility.yul\":2999:3004   */\n      dup2\n        /* \"#utility.yul\":2993:3005   */\n      mload\n        /* \"#utility.yul\":2983:3005   */\n      swap1\n      pop\n        /* \"#utility.yul\":2874:3012   */\n      swap2\n      swap1\n      pop\n      jump\t// out\n        /* \"#utility.yul\":3018:3226   */\n    tag_129:\n        /* \"#utility.yul\":3141:3152   */\n      0x00\n        /* \"#utility.yul\":3175:3181   */\n      dup3\n        /* \"#utility.yul\":3170:3173   */\n      dup3\n        /* \"#utility.yul\":3163:3182   */\n      mstore\n        /* \"#utility.yul\":3215:3219   */\n      0x20\n        /* \"#utility.yul\":3210:3213   */\n      dup3\n        /* \"#utility.yul\":3206:3220   */\n      add\n        /* \"#utility.yul\":3191:3220   */\n      swap1\n      pop\n        /* \"#utility.yul\":3018:3226   */\n      swap3\n      swap2\n      pop\n      pop\n      jump\t// out\n        /* \"#utility.yul\":3232:3388   */\n    tag_130:\n        /* \"#utility.yul\":3323:3327   */\n      0x00\n        /* \"#utility.yul\":3346:3349   */\n      dup2\n        /* \"#utility.yul\":3338:3349   */\n      swap1\n      pop\n        /* \"#utility.yul\":3376:3380   */\n      0x20\n        /* \"#utility.yul\":3371:3374   */\n      dup3\n        /* \"#utility.yul\":3367:3381   */\n      add\n        /* \"#utility.yul\":3359:3381   */\n      swap1\n      pop\n        /* \"#utility.yul\":3232:3388   */\n      swap2\n      swap1\n      pop\n      jump\t// out\n        /* \"#utility.yul\":3394:3502   */\n    tag_131:\n        /* \"#utility.yul\":3471:3495   */\n      tag_188\n        /* \"#utility.yul\":3489:3494   */\n      dup2\n        /* \"#utility.yul\":3471:3495   */\n      tag_118\n      jump\t// in\n    tag_188:\n        /* \"#utility.yul\":3466:3469   */\n      dup3\n        /* \"#utility.yul\":3459:3496   */\n      mstore\n        /* \"#utility.yul\":3394:3502   */\n      pop\n      pop\n      jump\t// out\n        /* \"#utility.yul\":3508:3640   */\n    tag_132:\n        /* \"#utility.yul\":3601:3633   */\n      tag_190\n        /* \"#utility.yul\":3627:3632   */\n      dup2\n        /* \"#utility.yul\":3601:3633   */\n      tag_125\n      jump\t// in\n    tag_190:\n        /* \"#utility.yul\":3596:3599   */\n      dup3\n        /* \"#utility.yul\":3589:3634   */\n      mstore\n        /* \"#utility.yul\":3508:3640   */\n      pop\n      pop\n      jump\t// out\n        /* \"#utility.yul\":3646:3736   */\n    tag_133:\n        /* \"#utility.yul\":3680:3687   */\n      0x00\n        /* \"#utility.yul\":3723:3728   */\n      dup2\n        /* \"#utility.yul\":3716:3729   */\n      iszero\n        /* \"#utility.yul\":3709:3730   */\n      iszero\n        /* \"#utility.yul\":3698:3730   */\n      swap1\n      pop\n        /* \"#utility.yul\":3646:3736   */\n      swap2\n      swap1\n      pop\n      jump\t// out\n        /* \"#utility.yul\":3742:3841   */\n    tag_134:\n        /* \"#utility.yul\":3813:3834   */\n      tag_193\n        /* \"#utility.yul\":3828:3833   */\n      dup2\n        /* \"#utility.yul\":3813:3834   */\n      tag_133\n      jump\t// in\n    tag_193:\n        /* \"#utility.yul\":3808:3811   */\n      dup3\n        /* \"#utility.yul\":3801:3835   */\n      mstore\n        /* \"#utility.yul\":3742:3841   */\n      pop\n      pop\n      jump\t// out\n        /* \"#utility.yul\":3921:4964   */\n    tag_135:\n        /* \"#utility.yul\":4056:4060   */\n      0xa0\n        /* \"#utility.yul\":4051:4054   */\n      dup3\n        /* \"#utility.yul\":4047:4061   */\n      add\n        /* \"#utility.yul\":4145:4149   */\n      0x00\n        /* \"#utility.yul\":4138:4143   */\n      dup3\n        /* \"#utility.yul\":4134:4150   */\n      add\n        /* \"#utility.yul\":4128:4151   */\n      mload\n        /* \"#utility.yul\":4164:4227   */\n      tag_195\n        /* \"#utility.yul\":4221:4225   */\n      0x00\n        /* \"#utility.yul\":4216:4219   */\n      dup6\n        /* \"#utility.yul\":4212:4226   */\n      add\n        /* \"#utility.yul\":4198:4210   */\n      dup3\n        /* \"#utility.yul\":4164:4227   */\n      tag_131\n      jump\t// in\n    tag_195:\n        /* \"#utility.yul\":4071:4237   */\n      pop\n        /* \"#utility.yul\":4323:4327   */\n      0x20\n        /* \"#utility.yul\":4316:4321   */\n      dup3\n        /* \"#utility.yul\":4312:4328   */\n      add\n        /* \"#utility.yul\":4306:4329   */\n      mload\n        /* \"#utility.yul\":4342:4421   */\n      tag_196\n        /* \"#utility.yul\":4415:4419   */\n      0x20\n        /* \"#utility.yul\":4410:4413   */\n      dup6\n        /* \"#utility.yul\":4406:4420   */\n      add\n        /* \"#utility.yul\":4392:4404   */\n      dup3\n        /* \"#utility.yul\":4342:4421   */\n      tag_132\n      jump\t// in\n    tag_196:\n        /* \"#utility.yul\":4247:4431   */\n      pop\n        /* \"#utility.yul\":4518:4522   */\n      0x40\n        /* \"#utility.yul\":4511:4516   */\n      dup3\n        /* \"#utility.yul\":4507:4523   */\n      add\n        /* \"#utility.yul\":4501:4524   */\n      mload\n        /* \"#utility.yul\":4537:4600   */\n      tag_197\n        /* \"#utility.yul\":4594:4598   */\n      0x40\n        /* \"#utility.yul\":4589:4592   */\n      dup6\n        /* \"#utility.yul\":4585:4599   */\n      add\n        /* \"#utility.yul\":4571:4583   */\n      dup3\n        /* \"#utility.yul\":4537:4600   */\n      tag_131\n      jump\t// in\n    tag_197:\n        /* \"#utility.yul\":4441:4610   */\n      pop\n        /* \"#utility.yul\":4699:4703   */\n      0x60\n        /* \"#utility.yul\":4692:4697   */\n      dup3\n        /* \"#utility.yul\":4688:4704   */\n      add\n        /* \"#utility.yul\":4682:4705   */\n      mload\n        /* \"#utility.yul\":4718:4775   */\n      tag_198\n        /* \"#utility.yul\":4769:4773   */\n      0x60\n        /* \"#utility.yul\":4764:4767   */\n      dup6\n        /* \"#utility.yul\":4760:4774   */\n      add\n        /* \"#utility.yul\":4746:4758   */\n      dup3\n        /* \"#utility.yul\":4718:4775   */\n      tag_134\n      jump\t// in\n    tag_198:\n        /* \"#utility.yul\":4620:4785   */\n      pop\n        /* \"#utility.yul\":4865:4869   */\n      0x80\n        /* \"#utility.yul\":4858:4863   */\n      dup3\n        /* \"#utility.yul\":4854:4870   */\n      add\n        /* \"#utility.yul\":4848:4871   */\n      mload\n        /* \"#utility.yul\":4884:4947   */\n      tag_199\n        /* \"#utility.yul\":4941:4945   */\n      0x80\n        /* \"#utility.yul\":4936:4939   */\n      dup6\n        /* \"#utility.yul\":4932:4946   */\n      add\n        /* \"#utility.yul\":4918:4930   */\n      dup3\n        /* \"#utility.yul\":4884:4947   */\n      tag_131\n      jump\t// in\n    tag_199:\n        /* \"#utility.yul\":4795:4957   */\n      pop\n        /* \"#utility.yul\":4025:4964   */\n      pop\n        /* \"#utility.yul\":3921:4964   */\n      pop\n      pop\n      jump\t// out\n        /* \"#utility.yul\":4970:5245   */\n    tag_136:\n        /* \"#utility.yul\":5087:5097   */\n      0x00\n        /* \"#utility.yul\":5108:5202   */\n      tag_201\n        /* \"#utility.yul\":5198:5201   */\n      dup4\n        /* \"#utility.yul\":5190:5196   */\n      dup4\n        /* \"#utility.yul\":5108:5202   */\n      tag_135\n      jump\t// in\n    tag_201:\n        /* \"#utility.yul\":5234:5238   */\n      0xa0\n        /* \"#utility.yul\":5229:5232   */\n      dup4\n        /* \"#utility.yul\":5225:5239   */\n      add\n        /* \"#utility.yul\":5211:5239   */\n      swap1\n      pop\n        /* \"#utility.yul\":4970:5245   */\n      swap3\n      swap2\n      pop\n      pop\n      jump\t// out\n        /* \"#utility.yul\":5251:5388   */\n    tag_137:\n        /* \"#utility.yul\":5345:5349   */\n      0x00\n        /* \"#utility.yul\":5377:5381   */\n      0x20\n        /* \"#utility.yul\":5372:5375   */\n      dup3\n        /* \"#utility.yul\":5368:5382   */\n      add\n        /* \"#utility.yul\":5360:5382   */\n      swap1\n      pop\n        /* \"#utility.yul\":5251:5388   */\n      swap2\n      swap1\n      pop\n      jump\t// out\n        /* \"#utility.yul\":5472:6396   */\n    tag_138:\n        /* \"#utility.yul\":5639:5642   */\n      0x00\n        /* \"#utility.yul\":5668:5746   */\n      tag_204\n        /* \"#utility.yul\":5740:5745   */\n      dup3\n        /* \"#utility.yul\":5668:5746   */\n      tag_128\n      jump\t// in\n    tag_204:\n        /* \"#utility.yul\":5762:5872   */\n      tag_205\n        /* \"#utility.yul\":5865:5871   */\n      dup2\n        /* \"#utility.yul\":5860:5863   */\n      dup6\n        /* \"#utility.yul\":5762:5872   */\n      tag_129\n      jump\t// in\n    tag_205:\n        /* \"#utility.yul\":5755:5872   */\n      swap4\n      pop\n        /* \"#utility.yul\":5896:5976   */\n      tag_206\n        /* \"#utility.yul\":5970:5975   */\n      dup4\n        /* \"#utility.yul\":5896:5976   */\n      tag_130\n      jump\t// in\n    tag_206:\n        /* \"#utility.yul\":5999:6006   */\n      dup1\n        /* \"#utility.yul\":6030:6031   */\n      0x00\n        /* \"#utility.yul\":6015:6371   */\n    tag_207:\n        /* \"#utility.yul\":6040:6046   */\n      dup4\n        /* \"#utility.yul\":6037:6038   */\n      dup2\n        /* \"#utility.yul\":6034:6047   */\n      lt\n        /* \"#utility.yul\":6015:6371   */\n      iszero\n      tag_209\n      jumpi\n        /* \"#utility.yul\":6116:6122   */\n      dup2\n        /* \"#utility.yul\":6110:6123   */\n      mload\n        /* \"#utility.yul\":6143:6254   */\n      tag_210\n        /* \"#utility.yul\":6250:6253   */\n      dup9\n        /* \"#utility.yul\":6235:6248   */\n      dup3\n        /* \"#utility.yul\":6143:6254   */\n      tag_136\n      jump\t// in\n    tag_210:\n        /* \"#utility.yul\":6136:6254   */\n      swap8\n      pop\n        /* \"#utility.yul\":6277:6361   */\n      tag_211\n        /* \"#utility.yul\":6354:6360   */\n      dup4\n        /* \"#utility.yul\":6277:6361   */\n      tag_137\n      jump\t// in\n    tag_211:\n        /* \"#utility.yul\":6267:6361   */\n      swap3\n      pop\n        /* \"#utility.yul\":6075:6371   */\n      pop\n        /* \"#utility.yul\":6062:6063   */\n      0x01\n        /* \"#utility.yul\":6059:6060   */\n      dup2\n        /* \"#utility.yul\":6055:6064   */\n      add\n        /* \"#utility.yul\":6050:6064   */\n      swap1\n      pop\n        /* \"#utility.yul\":6015:6371   */\n      jump(tag_207)\n    tag_209:\n        /* \"#utility.yul\":6019:6033   */\n      pop\n        /* \"#utility.yul\":6387:6390   */\n      dup6\n        /* \"#utility.yul\":6380:6390   */\n      swap4\n      pop\n        /* \"#utility.yul\":5644:6396   */\n      pop\n      pop\n      pop\n        /* \"#utility.yul\":5472:6396   */\n      swap3\n      swap2\n      pop\n      pop\n      jump\t// out\n        /* \"#utility.yul\":6402:6871   */\n    tag_36:\n        /* \"#utility.yul\":6593:6597   */\n      0x00\n        /* \"#utility.yul\":6631:6633   */\n      0x20\n        /* \"#utility.yul\":6620:6629   */\n      dup3\n        /* \"#utility.yul\":6616:6634   */\n      add\n        /* \"#utility.yul\":6608:6634   */\n      swap1\n      pop\n        /* \"#utility.yul\":6680:6689   */\n      dup2\n        /* \"#utility.yul\":6674:6678   */\n      dup2\n        /* \"#utility.yul\":6670:6690   */\n      sub\n        /* \"#utility.yul\":6666:6667   */\n      0x00\n        /* \"#utility.yul\":6655:6664   */\n      dup4\n        /* \"#utility.yul\":6651:6668   */\n      add\n        /* \"#utility.yul\":6644:6691   */\n      mstore\n        /* \"#utility.yul\":6708:6864   */\n      tag_213\n        /* \"#utility.yul\":6859:6863   */\n      dup2\n        /* \"#utility.yul\":6850:6856   */\n      dup5\n        /* \"#utility.yul\":6708:6864   */\n      tag_138\n      jump\t// in\n    tag_213:\n        /* \"#utility.yul\":6700:6864   */\n      swap1\n      pop\n        /* \"#utility.yul\":6402:6871   */\n      swap3\n      swap2\n      pop\n      pop\n      jump\t// out\n        /* \"#utility.yul\":6877:7046   */\n    tag_139:\n        /* \"#utility.yul\":6961:6972   */\n      0x00\n        /* \"#utility.yul\":6995:7001   */\n      dup3\n        /* \"#utility.yul\":6990:6993   */\n      dup3\n        /* \"#utility.yul\":6983:7002   */\n      mstore\n        /* \"#utility.yul\":7035:7039   */\n      0x20\n        /* \"#utility.yul\":7030:7033   */\n      dup3\n        /* \"#utility.yul\":7026:7040   */\n      add\n        /* \"#utility.yul\":7011:7040   */\n      swap1\n      pop\n        /* \"#utility.yul\":6877:7046   */\n      swap3\n      swap2\n      pop\n      pop\n      jump\t// out\n        /* \"#utility.yul\":7052:7286   */\n    tag_140:\n        /* \"#utility.yul\":7192:7226   */\n      0x4552524f5220315f496e73756666696369656e742062616c616e636520746f20\n        /* \"#utility.yul\":7188:7189   */\n      0x00\n        /* \"#utility.yul\":7180:7186   */\n      dup3\n        /* \"#utility.yul\":7176:7190   */\n      add\n        /* \"#utility.yul\":7169:7227   */\n      mstore\n        /* \"#utility.yul\":7261:7278   */\n      0x77697468647261772066756e64732e0000000000000000000000000000000000\n        /* \"#utility.yul\":7256:7258   */\n      0x20\n        /* \"#utility.yul\":7248:7254   */\n      dup3\n        /* \"#utility.yul\":7244:7259   */\n      add\n        /* \"#utility.yul\":7237:7279   */\n      mstore\n        /* \"#utility.yul\":7052:7286   */\n      pop\n      jump\t// out\n        /* \"#utility.yul\":7292:7658   */\n    tag_141:\n        /* \"#utility.yul\":7434:7437   */\n      0x00\n        /* \"#utility.yul\":7455:7522   */\n      tag_217\n        /* \"#utility.yul\":7519:7521   */\n      0x2f\n        /* \"#utility.yul\":7514:7517   */\n      dup4\n        /* \"#utility.yul\":7455:7522   */\n      tag_139\n      jump\t// in\n    tag_217:\n        /* \"#utility.yul\":7448:7522   */\n      swap2\n      pop\n        /* \"#utility.yul\":7531:7624   */\n      tag_218\n        /* \"#utility.yul\":7620:7623   */\n      dup3\n        /* \"#utility.yul\":7531:7624   */\n      tag_140\n      jump\t// in\n    tag_218:\n        /* \"#utility.yul\":7649:7651   */\n      0x40\n        /* \"#utility.yul\":7644:7647   */\n      dup3\n        /* \"#utility.yul\":7640:7652   */\n      add\n        /* \"#utility.yul\":7633:7652   */\n      swap1\n      pop\n        /* \"#utility.yul\":7292:7658   */\n      swap2\n      swap1\n      pop\n      jump\t// out\n        /* \"#utility.yul\":7664:8083   */\n    tag_50:\n        /* \"#utility.yul\":7830:7834   */\n      0x00\n        /* \"#utility.yul\":7868:7870   */\n      0x20\n        /* \"#utility.yul\":7857:7866   */\n      dup3\n        /* \"#utility.yul\":7853:7871   */\n      add\n        /* \"#utility.yul\":7845:7871   */\n      swap1\n      pop\n        /* \"#utility.yul\":7917:7926   */\n      dup2\n        /* \"#utility.yul\":7911:7915   */\n      dup2\n        /* \"#utility.yul\":7907:7927   */\n      sub\n        /* \"#utility.yul\":7903:7904   */\n      0x00\n        /* \"#utility.yul\":7892:7901   */\n      dup4\n        /* \"#utility.yul\":7888:7905   */\n      add\n        /* \"#utility.yul\":7881:7928   */\n      mstore\n        /* \"#utility.yul\":7945:8076   */\n      tag_220\n        /* \"#utility.yul\":8071:8075   */\n      dup2\n        /* \"#utility.yul\":7945:8076   */\n      tag_141\n      jump\t// in\n    tag_220:\n        /* \"#utility.yul\":7937:8076   */\n      swap1\n      pop\n        /* \"#utility.yul\":7664:8083   */\n      swap2\n      swap1\n      pop\n      jump\t// out\n        /* \"#utility.yul\":8089:8269   */\n    tag_142:\n        /* \"#utility.yul\":8137:8214   */\n      0x4e487b7100000000000000000000000000000000000000000000000000000000\n        /* \"#utility.yul\":8134:8135   */\n      0x00\n        /* \"#utility.yul\":8127:8215   */\n      mstore\n        /* \"#utility.yul\":8234:8238   */\n      0x11\n        /* \"#utility.yul\":8231:8232   */\n      0x04\n        /* \"#utility.yul\":8224:8239   */\n      mstore\n        /* \"#utility.yul\":8258:8262   */\n      0x24\n        /* \"#utility.yul\":8255:8256   */\n      0x00\n        /* \"#utility.yul\":8248:8263   */\n      revert\n        /* \"#utility.yul\":8275:8466   */\n    tag_54:\n        /* \"#utility.yul\":8315:8319   */\n      0x00\n        /* \"#utility.yul\":8335:8355   */\n      tag_223\n        /* \"#utility.yul\":8353:8354   */\n      dup3\n        /* \"#utility.yul\":8335:8355   */\n      tag_118\n      jump\t// in\n    tag_223:\n        /* \"#utility.yul\":8330:8355   */\n      swap2\n      pop\n        /* \"#utility.yul\":8369:8389   */\n      tag_224\n        /* \"#utility.yul\":8387:8388   */\n      dup4\n        /* \"#utility.yul\":8369:8389   */\n      tag_118\n      jump\t// in\n    tag_224:\n        /* \"#utility.yul\":8364:8389   */\n      swap3\n      pop\n        /* \"#utility.yul\":8408:8409   */\n      dup3\n        /* \"#utility.yul\":8405:8406   */\n      dup3\n        /* \"#utility.yul\":8402:8410   */\n      lt\n        /* \"#utility.yul\":8399:8433   */\n      iszero\n      tag_225\n      jumpi\n        /* \"#utility.yul\":8413:8431   */\n      tag_226\n      tag_142\n      jump\t// in\n    tag_226:\n        /* \"#utility.yul\":8399:8433   */\n    tag_225:\n        /* \"#utility.yul\":8458:8459   */\n      dup3\n        /* \"#utility.yul\":8455:8456   */\n      dup3\n        /* \"#utility.yul\":8451:8460   */\n      sub\n        /* \"#utility.yul\":8443:8460   */\n      swap1\n      pop\n        /* \"#utility.yul\":8275:8466   */\n      swap3\n      swap2\n      pop\n      pop\n      jump\t// out\n        /* \"#utility.yul\":8472:8652   */\n    tag_61:\n        /* \"#utility.yul\":8520:8597   */\n      0x4e487b7100000000000000000000000000000000000000000000000000000000\n        /* \"#utility.yul\":8517:8518   */\n      0x00\n        /* \"#utility.yul\":8510:8598   */\n      mstore\n        /* \"#utility.yul\":8617:8621   */\n      0x32\n        /* \"#utility.yul\":8614:8615   */\n      0x04\n        /* \"#utility.yul\":8607:8622   */\n      mstore\n        /* \"#utility.yul\":8641:8645   */\n      0x24\n        /* \"#utility.yul\":8638:8639   */\n      0x00\n        /* \"#utility.yul\":8631:8646   */\n      revert\n        /* \"#utility.yul\":8658:8891   */\n    tag_65:\n        /* \"#utility.yul\":8697:8700   */\n      0x00\n        /* \"#utility.yul\":8720:8744   */\n      tag_229\n        /* \"#utility.yul\":8738:8743   */\n      dup3\n        /* \"#utility.yul\":8720:8744   */\n      tag_118\n      jump\t// in\n    tag_229:\n        /* \"#utility.yul\":8711:8744   */\n      swap2\n      pop\n        /* \"#utility.yul\":8766:8832   */\n      0xffffffffffffffffffffffffffffffffffffffffffffffffffffffffffffffff\n        /* \"#utility.yul\":8759:8764   */\n      dup3\n        /* \"#utility.yul\":8756:8833   */\n      sub\n        /* \"#utility.yul\":8753:8856   */\n      tag_230\n      jumpi\n        /* \"#utility.yul\":8836:8854   */\n      tag_231\n      tag_142\n      jump\t// in\n    tag_231:\n        /* \"#utility.yul\":8753:8856   */\n    tag_230:\n        /* \"#utility.yul\":8883:8884   */\n      0x01\n        /* \"#utility.yul\":8876:8881   */\n      dup3\n        /* \"#utility.yul\":8872:8885   */\n      add\n        /* \"#utility.yul\":8865:8885   */\n      swap1\n      pop\n        /* \"#utility.yul\":8658:8891   */\n      swap2\n      swap1\n      pop\n      jump\t// out\n        /* \"#utility.yul\":8897:9127   */\n    tag_143:\n        /* \"#utility.yul\":9037:9071   */\n      0x4552524f5220375f4f776e6572206973206e6f7420616c6c6f77656420746f20\n        /* \"#utility.yul\":9033:9034   */\n      0x00\n        /* \"#utility.yul\":9025:9031   */\n      dup3\n        /* \"#utility.yul\":9021:9035   */\n      add\n        /* \"#utility.yul\":9014:9072   */\n      mstore\n        /* \"#utility.yul\":9106:9119   */\n      0x766f74652074776963652e000000000000000000000000000000000000000000\n        /* \"#utility.yul\":9101:9103   */\n      0x20\n        /* \"#utility.yul\":9093:9099   */\n      dup3\n        /* \"#utility.yul\":9089:9104   */\n      add\n        /* \"#utility.yul\":9082:9120   */\n      mstore\n        /* \"#utility.yul\":8897:9127   */\n      pop\n      jump\t// out\n        /* \"#utility.yul\":9133:9499   */\n    tag_144:\n        /* \"#utility.yul\":9275:9278   */\n      0x00\n        /* \"#utility.yul\":9296:9363   */\n      tag_234\n        /* \"#utility.yul\":9360:9362   */\n      0x2b\n        /* \"#utility.yul\":9355:9358   */\n      dup4\n        /* \"#utility.yul\":9296:9363   */\n      tag_139\n      jump\t// in\n    tag_234:\n        /* \"#utility.yul\":9289:9363   */\n      swap2\n      pop\n        /* \"#utility.yul\":9372:9465   */\n      tag_235\n        /* \"#utility.yul\":9461:9464   */\n      dup3\n        /* \"#utility.yul\":9372:9465   */\n      tag_143\n      jump\t// in\n    tag_235:\n        /* \"#utility.yul\":9490:9492   */\n      0x40\n        /* \"#utility.yul\":9485:9488   */\n      dup3\n        /* \"#utility.yul\":9481:9493   */\n      add\n        /* \"#utility.yul\":9474:9493   */\n      swap1\n      pop\n        /* \"#utility.yul\":9133:9499   */\n      swap2\n      swap1\n      pop\n      jump\t// out\n        /* \"#utility.yul\":9505:9924   */\n    tag_86:\n        /* \"#utility.yul\":9671:9675   */\n      0x00\n        /* \"#utility.yul\":9709:9711   */\n      0x20\n        /* \"#utility.yul\":9698:9707   */\n      dup3\n        /* \"#utility.yul\":9694:9712   */\n      add\n        /* \"#utility.yul\":9686:9712   */\n      swap1\n      pop\n        /* \"#utility.yul\":9758:9767   */\n      dup2\n        /* \"#utility.yul\":9752:9756   */\n      dup2\n        /* \"#utility.yul\":9748:9768   */\n      sub\n        /* \"#utility.yul\":9744:9745   */\n      0x00\n        /* \"#utility.yul\":9733:9742   */\n      dup4\n        /* \"#utility.yul\":9729:9746   */\n      add\n        /* \"#utility.yul\":9722:9769   */\n      mstore\n        /* \"#utility.yul\":9786:9917   */\n      tag_237\n        /* \"#utility.yul\":9912:9916   */\n      dup2\n        /* \"#utility.yul\":9786:9917   */\n      tag_144\n      jump\t// in\n    tag_237:\n        /* \"#utility.yul\":9778:9917   */\n      swap1\n      pop\n        /* \"#utility.yul\":9505:9924   */\n      swap2\n      swap1\n      pop\n      jump\t// out\n        /* \"#utility.yul\":9930:10231   */\n    tag_145:\n        /* \"#utility.yul\":10070:10104   */\n      0x4552524f5220385f4e6f7420616c6c6f77656420746f20766f7465206f6e2061\n        /* \"#utility.yul\":10066:10067   */\n      0x00\n        /* \"#utility.yul\":10058:10064   */\n      dup3\n        /* \"#utility.yul\":10054:10068   */\n      add\n        /* \"#utility.yul\":10047:10105   */\n      mstore\n        /* \"#utility.yul\":10139:10173   */\n      0x207472616e73666572207265717565737420746861742068617320616c726561\n        /* \"#utility.yul\":10134:10136   */\n      0x20\n        /* \"#utility.yul\":10126:10132   */\n      dup3\n        /* \"#utility.yul\":10122:10137   */\n      add\n        /* \"#utility.yul\":10115:10174   */\n      mstore\n        /* \"#utility.yul\":10208:10223   */\n      0x6479206265656e2073656e742e00000000000000000000000000000000000000\n        /* \"#utility.yul\":10203:10205   */\n      0x40\n        /* \"#utility.yul\":10195:10201   */\n      dup3\n        /* \"#utility.yul\":10191:10206   */\n      add\n        /* \"#utility.yul\":10184:10224   */\n      mstore\n        /* \"#utility.yul\":9930:10231   */\n      pop\n      jump\t// out\n        /* \"#utility.yul\":10237:10603   */\n    tag_146:\n        /* \"#utility.yul\":10379:10382   */\n      0x00\n        /* \"#utility.yul\":10400:10467   */\n      tag_240\n        /* \"#utility.yul\":10464:10466   */\n      0x4d\n        /* \"#utility.yul\":10459:10462   */\n      dup4\n        /* \"#utility.yul\":10400:10467   */\n      tag_139\n      jump\t// in\n    tag_240:\n        /* \"#utility.yul\":10393:10467   */\n      swap2\n      pop\n        /* \"#utility.yul\":10476:10569   */\n      tag_241\n        /* \"#utility.yul\":10565:10568   */\n      dup3\n        /* \"#utility.yul\":10476:10569   */\n      tag_145\n      jump\t// in\n    tag_241:\n        /* \"#utility.yul\":10594:10596   */\n      0x60\n        /* \"#utility.yul\":10589:10592   */\n      dup3\n        /* \"#utility.yul\":10585:10597   */\n      add\n        /* \"#utility.yul\":10578:10597   */\n      swap1\n      pop\n        /* \"#utility.yul\":10237:10603   */\n      swap2\n      swap1\n      pop\n      jump\t// out\n        /* \"#utility.yul\":10609:11028   */\n    tag_92:\n        /* \"#utility.yul\":10775:10779   */\n      0x00\n        /* \"#utility.yul\":10813:10815   */\n      0x20\n        /* \"#utility.yul\":10802:10811   */\n      dup3\n        /* \"#utility.yul\":10798:10816   */\n      add\n        /* \"#utility.yul\":10790:10816   */\n      swap1\n      pop\n        /* \"#utility.yul\":10862:10871   */\n      dup2\n        /* \"#utility.yul\":10856:10860   */\n      dup2\n        /* \"#utility.yul\":10852:10872   */\n      sub\n        /* \"#utility.yul\":10848:10849   */\n      0x00\n        /* \"#utility.yul\":10837:10846   */\n      dup4\n        /* \"#utility.yul\":10833:10850   */\n      add\n        /* \"#utility.yul\":10826:10873   */\n      mstore\n        /* \"#utility.yul\":10890:11021   */\n      tag_243\n        /* \"#utility.yul\":11016:11020   */\n      dup2\n        /* \"#utility.yul\":10890:11021   */\n      tag_146\n      jump\t// in\n    tag_243:\n        /* \"#utility.yul\":10882:11021   */\n      swap1\n      pop\n        /* \"#utility.yul\":10609:11028   */\n      swap2\n      swap1\n      pop\n      jump\t// out\n        /* \"#utility.yul\":11034:11339   */\n    tag_114:\n        /* \"#utility.yul\":11074:11077   */\n      0x00\n        /* \"#utility.yul\":11093:11113   */\n      tag_245\n        /* \"#utility.yul\":11111:11112   */\n      dup3\n        /* \"#utility.yul\":11093:11113   */\n      tag_118\n      jump\t// in\n    tag_245:\n        /* \"#utility.yul\":11088:11113   */\n      swap2\n      pop\n        /* \"#utility.yul\":11127:11147   */\n      tag_246\n        /* \"#utility.yul\":11145:11146   */\n      dup4\n        /* \"#utility.yul\":11127:11147   */\n      tag_118\n      jump\t// in\n    tag_246:\n        /* \"#utility.yul\":11122:11147   */\n      swap3\n      pop\n        /* \"#utility.yul\":11281:11282   */\n      dup3\n        /* \"#utility.yul\":11213:11279   */\n      0xffffffffffffffffffffffffffffffffffffffffffffffffffffffffffffffff\n        /* \"#utility.yul\":11209:11283   */\n      sub\n        /* \"#utility.yul\":11206:11207   */\n      dup3\n        /* \"#utility.yul\":11203:11284   */\n      gt\n        /* \"#utility.yul\":11200:11307   */\n      iszero\n      tag_247\n      jumpi\n        /* \"#utility.yul\":11287:11305   */\n      tag_248\n      tag_142\n      jump\t// in\n    tag_248:\n        /* \"#utility.yul\":11200:11307   */\n    tag_247:\n        /* \"#utility.yul\":11331:11332   */\n      dup3\n        /* \"#utility.yul\":11328:11329   */\n      dup3\n        /* \"#utility.yul\":11324:11333   */\n      add\n        /* \"#utility.yul\":11317:11333   */\n      swap1\n      pop\n        /* \"#utility.yul\":11034:11339   */\n      swap3\n      swap2\n      pop\n      pop\n      jump\t// out\n\n    auxdata: 0xa26469706673582212202dd33fe21dda684940f4d9096f7fe784f42c306c5db84a7be19e55dc3a9eb02264736f6c634300080d0033\n}\n",
				"bytecode": {
					"linkReferences": {},
					"object": "60806040523480156200001157600080fd5b50604051620014c7380380620014c7833981810160405281019062000037919062000376565b336000806101000a81548173ffffffffffffffffffffffffffffffffffffffff021916908373ffffffffffffffffffffffffffffffffffffffff16021790555081600190805190602001906200008f9291906200009f565b50806002819055505050620003dc565b8280548282559060005260206000209081019282156200011b579160200282015b828111156200011a5782518260006101000a81548173ffffffffffffffffffffffffffffffffffffffff021916908373ffffffffffffffffffffffffffffffffffffffff16021790555091602001919060010190620000c0565b5b5090506200012a91906200012e565b5090565b5b80821115620001495760008160009055506001016200012f565b5090565b6000604051905090565b600080fd5b600080fd5b600080fd5b6000601f19601f8301169050919050565b7f4e487b7100000000000000000000000000000000000000000000000000000000600052604160045260246000fd5b620001b18262000166565b810181811067ffffffffffffffff82111715620001d357620001d262000177565b5b80604052505050565b6000620001e86200014d565b9050620001f68282620001a6565b919050565b600067ffffffffffffffff82111562000219576200021862000177565b5b602082029050602081019050919050565b600080fd5b600073ffffffffffffffffffffffffffffffffffffffff82169050919050565b60006200025c826200022f565b9050919050565b6200026e816200024f565b81146200027a57600080fd5b50565b6000815190506200028e8162000263565b92915050565b6000620002ab620002a584620001fb565b620001dc565b90508083825260208201905060208402830185811115620002d157620002d06200022a565b5b835b81811015620002fe5780620002e988826200027d565b845260208401935050602081019050620002d3565b5050509392505050565b600082601f83011262000320576200031f62000161565b5b81516200033284826020860162000294565b91505092915050565b6000819050919050565b62000350816200033b565b81146200035c57600080fd5b50565b600081519050620003708162000345565b92915050565b6000806040838503121562000390576200038f62000157565b5b600083015167ffffffffffffffff811115620003b157620003b06200015c565b5b620003bf8582860162000308565b9250506020620003d2858286016200035f565b9150509250929050565b6110db80620003ec6000396000f3fe6080604052600436106100705760003560e01c80634c12fa471161004e5780634c12fa471461011a578063a04ef14514610143578063b759f9541461016e578063d0e30db01461019757610070565b8063025e7c271461007557806312065fe0146100b25780632e1a7d4d146100dd575b600080fd5b34801561008157600080fd5b5061009c60048036038101906100979190610ae5565b6101b5565b6040516100a99190610b53565b60405180910390f35b3480156100be57600080fd5b506100c76101f4565b6040516100d49190610b7d565b60405180910390f35b3480156100e957600080fd5b5061010460048036038101906100ff9190610ae5565b61023b565b6040516101119190610b7d565b60405180910390f35b34801561012657600080fd5b50610141600480360381019061013c9190610bd6565b6103a3565b005b34801561014f57600080fd5b5061015861054c565b6040516101659190610d66565b60405180910390f35b34801561017a57600080fd5b5061019560048036038101906101909190610ae5565b61063a565b005b61019f6109c9565b6040516101ac9190610b7d565b60405180910390f35b600181815481106101c557600080fd5b906000526020600020016000915054906101000a900473ffffffffffffffffffffffffffffffffffffffff1681565b6000600460003373ffffffffffffffffffffffffffffffffffffffff1673ffffffffffffffffffffffffffffffffffffffff16815260200190815260200160002054905090565b600081600460003373ffffffffffffffffffffffffffffffffffffffff1673ffffffffffffffffffffffffffffffffffffffff1681526020019081526020016000205410156102bf576040517f08c379a00000000000000000000000000000000000000000000000000000000081526004016102b690610e0b565b60405180910390fd5b3373ffffffffffffffffffffffffffffffffffffffff166108fc839081150290604051600060405180830381858888f19350505050158015610305573d6000803e3d6000fd5b5081600460003373ffffffffffffffffffffffffffffffffffffffff1673ffffffffffffffffffffffffffffffffffffffff16815260200190815260200160002060008282546103559190610e5a565b92505081905550600460003373ffffffffffffffffffffffffffffffffffffffff1673ffffffffffffffffffffffffffffffffffffffff168152602001908152602001600020549050919050565b6000805b60018054905081101561043d573373ffffffffffffffffffffffffffffffffffffffff16600182815481106103df576103de610e8e565b5b9060005260206000200160009054906101000a900473ffffffffffffffffffffffffffffffffffffffff1673ffffffffffffffffffffffffffffffffffffffff160361042a57600191505b808061043590610ebd565b9150506103a7565b50600115158115151461044f57600080fd5b60036040518060a001604052808581526020018473ffffffffffffffffffffffffffffffffffffffff1681526020016000815260200160001515815260200160038054905081525090806001815401808255809150506001900390600052602060002090600502016000909190919091506000820151816000015560208201518160010160006101000a81548173ffffffffffffffffffffffffffffffffffffffff021916908373ffffffffffffffffffffffffffffffffffffffff1602179055506040820151816002015560608201518160030160006101000a81548160ff021916908315150217905550608082015181600401555050505050565b60606003805480602002602001604051908101604052809291908181526020016000905b8282101561063157838290600052602060002090600502016040518060a0016040529081600082015481526020016001820160009054906101000a900473ffffffffffffffffffffffffffffffffffffffff1673ffffffffffffffffffffffffffffffffffffffff1673ffffffffffffffffffffffffffffffffffffffff168152602001600282015481526020016003820160009054906101000a900460ff1615151515815260200160048201548152505081526020019060010190610570565b50505050905090565b6000805b6001805490508110156106d4573373ffffffffffffffffffffffffffffffffffffffff166001828154811061067657610675610e8e565b5b9060005260206000200160009054906101000a900473ffffffffffffffffffffffffffffffffffffffff1673ffffffffffffffffffffffffffffffffffffffff16036106c157600191505b80806106cc90610ebd565b91505061063e565b5060011515811515146106e657600080fd5b60001515600560003373ffffffffffffffffffffffffffffffffffffffff1673ffffffffffffffffffffffffffffffffffffffff168152602001908152602001600020600084815260200190815260200160002060009054906101000a900460ff1615151461078a576040517f08c379a000000000000000000000000000000000000000000000000000000000815260040161078190610f77565b60405180910390fd5b60001515600383815481106107a2576107a1610e8e565b5b906000526020600020906005020160030160009054906101000a900460ff16151514610803576040517f08c379a00000000000000000000000000000000000000000000000000000000081526004016107fa9061102f565b60405180910390fd5b6001600560003373ffffffffffffffffffffffffffffffffffffffff1673ffffffffffffffffffffffffffffffffffffffff168152602001908152602001600020600084815260200190815260200160002060006101000a81548160ff021916908315150217905550600382815481106108805761087f610e8e565b5b906000526020600020906005020160020160008154809291906108a290610ebd565b9190505550600254600383815481106108be576108bd610e8e565b5b906000526020600020906005020160020154106109c5576001600383815481106108eb576108ea610e8e565b5b906000526020600020906005020160030160006101000a81548160ff0219169083151502179055506003828154811061092757610926610e8e565b5b906000526020600020906005020160010160009054906101000a900473ffffffffffffffffffffffffffffffffffffffff1673ffffffffffffffffffffffffffffffffffffffff166108fc6003848154811061098657610985610e8e565b5b9060005260206000209060050201600001549081150290604051600060405180830381858888f193505050501580156109c3573d6000803e3d6000fd5b505b5050565b600034600460003373ffffffffffffffffffffffffffffffffffffffff1673ffffffffffffffffffffffffffffffffffffffff1681526020019081526020016000206000828254610a1a919061104f565b925050819055503373ffffffffffffffffffffffffffffffffffffffff16347fa23831066066ec8812cc52afc91a52134a8b50c9209b68c276be679f4073d95d60405160405180910390a3600460003373ffffffffffffffffffffffffffffffffffffffff1673ffffffffffffffffffffffffffffffffffffffff16815260200190815260200160002054905090565b600080fd5b6000819050919050565b610ac281610aaf565b8114610acd57600080fd5b50565b600081359050610adf81610ab9565b92915050565b600060208284031215610afb57610afa610aaa565b5b6000610b0984828501610ad0565b91505092915050565b600073ffffffffffffffffffffffffffffffffffffffff82169050919050565b6000610b3d82610b12565b9050919050565b610b4d81610b32565b82525050565b6000602082019050610b686000830184610b44565b92915050565b610b7781610aaf565b82525050565b6000602082019050610b926000830184610b6e565b92915050565b6000610ba382610b12565b9050919050565b610bb381610b98565b8114610bbe57600080fd5b50565b600081359050610bd081610baa565b92915050565b60008060408385031215610bed57610bec610aaa565b5b6000610bfb85828601610ad0565b9250506020610c0c85828601610bc1565b9150509250929050565b600081519050919050565b600082825260208201905092915050565b6000819050602082019050919050565b610c4b81610aaf565b82525050565b610c5a81610b98565b82525050565b60008115159050919050565b610c7581610c60565b82525050565b60a082016000820151610c916000850182610c42565b506020820151610ca46020850182610c51565b506040820151610cb76040850182610c42565b506060820151610cca6060850182610c6c565b506080820151610cdd6080850182610c42565b50505050565b6000610cef8383610c7b565b60a08301905092915050565b6000602082019050919050565b6000610d1382610c16565b610d1d8185610c21565b9350610d2883610c32565b8060005b83811015610d59578151610d408882610ce3565b9750610d4b83610cfb565b925050600181019050610d2c565b5085935050505092915050565b60006020820190508181036000830152610d808184610d08565b905092915050565b600082825260208201905092915050565b7f4552524f5220315f496e73756666696369656e742062616c616e636520746f2060008201527f77697468647261772066756e64732e0000000000000000000000000000000000602082015250565b6000610df5602f83610d88565b9150610e0082610d99565b604082019050919050565b60006020820190508181036000830152610e2481610de8565b9050919050565b7f4e487b7100000000000000000000000000000000000000000000000000000000600052601160045260246000fd5b6000610e6582610aaf565b9150610e7083610aaf565b925082821015610e8357610e82610e2b565b5b828203905092915050565b7f4e487b7100000000000000000000000000000000000000000000000000000000600052603260045260246000fd5b6000610ec882610aaf565b91507fffffffffffffffffffffffffffffffffffffffffffffffffffffffffffffffff8203610efa57610ef9610e2b565b5b600182019050919050565b7f4552524f5220375f4f776e6572206973206e6f7420616c6c6f77656420746f2060008201527f766f74652074776963652e000000000000000000000000000000000000000000602082015250565b6000610f61602b83610d88565b9150610f6c82610f05565b604082019050919050565b60006020820190508181036000830152610f9081610f54565b9050919050565b7f4552524f5220385f4e6f7420616c6c6f77656420746f20766f7465206f6e206160008201527f207472616e73666572207265717565737420746861742068617320616c72656160208201527f6479206265656e2073656e742e00000000000000000000000000000000000000604082015250565b6000611019604d83610d88565b915061102482610f97565b606082019050919050565b600060208201905081810360008301526110488161100c565b9050919050565b600061105a82610aaf565b915061106583610aaf565b9250827fffffffffffffffffffffffffffffffffffffffffffffffffffffffffffffffff0382111561109a57611099610e2b565b5b82820190509291505056fea26469706673582212202dd33fe21dda684940f4d9096f7fe784f42c306c5db84a7be19e55dc3a9eb02264736f6c634300080d0033",
					"opcodes": "PUSH1 0x80 PUSH1 0x40 MSTORE CALLVALUE DUP1 ISZERO PUSH3 0x11 JUMPI PUSH1 0x0 DUP1 REVERT JUMPDEST POP PUSH1 0x40 MLOAD PUSH3 0x14C7 CODESIZE SUB DUP1 PUSH3 0x14C7 DUP4 CODECOPY DUP2 DUP2 ADD PUSH1 0x40 MSTORE DUP2 ADD SWAP1 PUSH3 0x37 SWAP2 SWAP1 PUSH3 0x376 JUMP JUMPDEST CALLER PUSH1 0x0 DUP1 PUSH2 0x100 EXP DUP2 SLOAD DUP2 PUSH20 0xFFFFFFFFFFFFFFFFFFFFFFFFFFFFFFFFFFFFFFFF MUL NOT AND SWAP1 DUP4 PUSH20 0xFFFFFFFFFFFFFFFFFFFFFFFFFFFFFFFFFFFFFFFF AND MUL OR SWAP1 SSTORE POP DUP2 PUSH1 0x1 SWAP1 DUP1 MLOAD SWAP1 PUSH1 0x20 ADD SWAP1 PUSH3 0x8F SWAP3 SWAP2 SWAP1 PUSH3 0x9F JUMP JUMPDEST POP DUP1 PUSH1 0x2 DUP2 SWAP1 SSTORE POP POP POP PUSH3 0x3DC JUMP JUMPDEST DUP3 DUP1 SLOAD DUP3 DUP3 SSTORE SWAP1 PUSH1 0x0 MSTORE PUSH1 0x20 PUSH1 0x0 KECCAK256 SWAP1 DUP2 ADD SWAP3 DUP3 ISZERO PUSH3 0x11B JUMPI SWAP2 PUSH1 0x20 MUL DUP3 ADD JUMPDEST DUP3 DUP2 GT ISZERO PUSH3 0x11A JUMPI DUP3 MLOAD DUP3 PUSH1 0x0 PUSH2 0x100 EXP DUP2 SLOAD DUP2 PUSH20 0xFFFFFFFFFFFFFFFFFFFFFFFFFFFFFFFFFFFFFFFF MUL NOT AND SWAP1 DUP4 PUSH20 0xFFFFFFFFFFFFFFFFFFFFFFFFFFFFFFFFFFFFFFFF AND MUL OR SWAP1 SSTORE POP SWAP2 PUSH1 0x20 ADD SWAP2 SWAP1 PUSH1 0x1 ADD SWAP1 PUSH3 0xC0 JUMP JUMPDEST JUMPDEST POP SWAP1 POP PUSH3 0x12A SWAP2 SWAP1 PUSH3 0x12E JUMP JUMPDEST POP SWAP1 JUMP JUMPDEST JUMPDEST DUP1 DUP3 GT ISZERO PUSH3 0x149 JUMPI PUSH1 0x0 DUP2 PUSH1 0x0 SWAP1 SSTORE POP PUSH1 0x1 ADD PUSH3 0x12F JUMP JUMPDEST POP SWAP1 JUMP JUMPDEST PUSH1 0x0 PUSH1 0x40 MLOAD SWAP1 POP SWAP1 JUMP JUMPDEST PUSH1 0x0 DUP1 REVERT JUMPDEST PUSH1 0x0 DUP1 REVERT JUMPDEST PUSH1 0x0 DUP1 REVERT JUMPDEST PUSH1 0x0 PUSH1 0x1F NOT PUSH1 0x1F DUP4 ADD AND SWAP1 POP SWAP2 SWAP1 POP JUMP JUMPDEST PUSH32 0x4E487B7100000000000000000000000000000000000000000000000000000000 PUSH1 0x0 MSTORE PUSH1 0x41 PUSH1 0x4 MSTORE PUSH1 0x24 PUSH1 0x0 REVERT JUMPDEST PUSH3 0x1B1 DUP3 PUSH3 0x166 JUMP JUMPDEST DUP2 ADD DUP2 DUP2 LT PUSH8 0xFFFFFFFFFFFFFFFF DUP3 GT OR ISZERO PUSH3 0x1D3 JUMPI PUSH3 0x1D2 PUSH3 0x177 JUMP JUMPDEST JUMPDEST DUP1 PUSH1 0x40 MSTORE POP POP POP JUMP JUMPDEST PUSH1 0x0 PUSH3 0x1E8 PUSH3 0x14D JUMP JUMPDEST SWAP1 POP PUSH3 0x1F6 DUP3 DUP3 PUSH3 0x1A6 JUMP JUMPDEST SWAP2 SWAP1 POP JUMP JUMPDEST PUSH1 0x0 PUSH8 0xFFFFFFFFFFFFFFFF DUP3 GT ISZERO PUSH3 0x219 JUMPI PUSH3 0x218 PUSH3 0x177 JUMP JUMPDEST JUMPDEST PUSH1 0x20 DUP3 MUL SWAP1 POP PUSH1 0x20 DUP2 ADD SWAP1 POP SWAP2 SWAP1 POP JUMP JUMPDEST PUSH1 0x0 DUP1 REVERT JUMPDEST PUSH1 0x0 PUSH20 0xFFFFFFFFFFFFFFFFFFFFFFFFFFFFFFFFFFFFFFFF DUP3 AND SWAP1 POP SWAP2 SWAP1 POP JUMP JUMPDEST PUSH1 0x0 PUSH3 0x25C DUP3 PUSH3 0x22F JUMP JUMPDEST SWAP1 POP SWAP2 SWAP1 POP JUMP JUMPDEST PUSH3 0x26E DUP2 PUSH3 0x24F JUMP JUMPDEST DUP2 EQ PUSH3 0x27A JUMPI PUSH1 0x0 DUP1 REVERT JUMPDEST POP JUMP JUMPDEST PUSH1 0x0 DUP2 MLOAD SWAP1 POP PUSH3 0x28E DUP2 PUSH3 0x263 JUMP JUMPDEST SWAP3 SWAP2 POP POP JUMP JUMPDEST PUSH1 0x0 PUSH3 0x2AB PUSH3 0x2A5 DUP5 PUSH3 0x1FB JUMP JUMPDEST PUSH3 0x1DC JUMP JUMPDEST SWAP1 POP DUP1 DUP4 DUP3 MSTORE PUSH1 0x20 DUP3 ADD SWAP1 POP PUSH1 0x20 DUP5 MUL DUP4 ADD DUP6 DUP2 GT ISZERO PUSH3 0x2D1 JUMPI PUSH3 0x2D0 PUSH3 0x22A JUMP JUMPDEST JUMPDEST DUP4 JUMPDEST DUP2 DUP2 LT ISZERO PUSH3 0x2FE JUMPI DUP1 PUSH3 0x2E9 DUP9 DUP3 PUSH3 0x27D JUMP JUMPDEST DUP5 MSTORE PUSH1 0x20 DUP5 ADD SWAP4 POP POP PUSH1 0x20 DUP2 ADD SWAP1 POP PUSH3 0x2D3 JUMP JUMPDEST POP POP POP SWAP4 SWAP3 POP POP POP JUMP JUMPDEST PUSH1 0x0 DUP3 PUSH1 0x1F DUP4 ADD SLT PUSH3 0x320 JUMPI PUSH3 0x31F PUSH3 0x161 JUMP JUMPDEST JUMPDEST DUP2 MLOAD PUSH3 0x332 DUP5 DUP3 PUSH1 0x20 DUP7 ADD PUSH3 0x294 JUMP JUMPDEST SWAP2 POP POP SWAP3 SWAP2 POP POP JUMP JUMPDEST PUSH1 0x0 DUP2 SWAP1 POP SWAP2 SWAP1 POP JUMP JUMPDEST PUSH3 0x350 DUP2 PUSH3 0x33B JUMP JUMPDEST DUP2 EQ PUSH3 0x35C JUMPI PUSH1 0x0 DUP1 REVERT JUMPDEST POP JUMP JUMPDEST PUSH1 0x0 DUP2 MLOAD SWAP1 POP PUSH3 0x370 DUP2 PUSH3 0x345 JUMP JUMPDEST SWAP3 SWAP2 POP POP JUMP JUMPDEST PUSH1 0x0 DUP1 PUSH1 0x40 DUP4 DUP6 SUB SLT ISZERO PUSH3 0x390 JUMPI PUSH3 0x38F PUSH3 0x157 JUMP JUMPDEST JUMPDEST PUSH1 0x0 DUP4 ADD MLOAD PUSH8 0xFFFFFFFFFFFFFFFF DUP2 GT ISZERO PUSH3 0x3B1 JUMPI PUSH3 0x3B0 PUSH3 0x15C JUMP JUMPDEST JUMPDEST PUSH3 0x3BF DUP6 DUP3 DUP7 ADD PUSH3 0x308 JUMP JUMPDEST SWAP3 POP POP PUSH1 0x20 PUSH3 0x3D2 DUP6 DUP3 DUP7 ADD PUSH3 0x35F JUMP JUMPDEST SWAP2 POP POP SWAP3 POP SWAP3 SWAP1 POP JUMP JUMPDEST PUSH2 0x10DB DUP1 PUSH3 0x3EC PUSH1 0x0 CODECOPY PUSH1 0x0 RETURN INVALID PUSH1 0x80 PUSH1 0x40 MSTORE PUSH1 0x4 CALLDATASIZE LT PUSH2 0x70 JUMPI PUSH1 0x0 CALLDATALOAD PUSH1 0xE0 SHR DUP1 PUSH4 0x4C12FA47 GT PUSH2 0x4E JUMPI DUP1 PUSH4 0x4C12FA47 EQ PUSH2 0x11A JUMPI DUP1 PUSH4 0xA04EF145 EQ PUSH2 0x143 JUMPI DUP1 PUSH4 0xB759F954 EQ PUSH2 0x16E JUMPI DUP1 PUSH4 0xD0E30DB0 EQ PUSH2 0x197 JUMPI PUSH2 0x70 JUMP JUMPDEST DUP1 PUSH4 0x25E7C27 EQ PUSH2 0x75 JUMPI DUP1 PUSH4 0x12065FE0 EQ PUSH2 0xB2 JUMPI DUP1 PUSH4 0x2E1A7D4D EQ PUSH2 0xDD JUMPI JUMPDEST PUSH1 0x0 DUP1 REVERT JUMPDEST CALLVALUE DUP1 ISZERO PUSH2 0x81 JUMPI PUSH1 0x0 DUP1 REVERT JUMPDEST POP PUSH2 0x9C PUSH1 0x4 DUP1 CALLDATASIZE SUB DUP2 ADD SWAP1 PUSH2 0x97 SWAP2 SWAP1 PUSH2 0xAE5 JUMP JUMPDEST PUSH2 0x1B5 JUMP JUMPDEST PUSH1 0x40 MLOAD PUSH2 0xA9 SWAP2 SWAP1 PUSH2 0xB53 JUMP JUMPDEST PUSH1 0x40 MLOAD DUP1 SWAP2 SUB SWAP1 RETURN JUMPDEST CALLVALUE DUP1 ISZERO PUSH2 0xBE JUMPI PUSH1 0x0 DUP1 REVERT JUMPDEST POP PUSH2 0xC7 PUSH2 0x1F4 JUMP JUMPDEST PUSH1 0x40 MLOAD PUSH2 0xD4 SWAP2 SWAP1 PUSH2 0xB7D JUMP JUMPDEST PUSH1 0x40 MLOAD DUP1 SWAP2 SUB SWAP1 RETURN JUMPDEST CALLVALUE DUP1 ISZERO PUSH2 0xE9 JUMPI PUSH1 0x0 DUP1 REVERT JUMPDEST POP PUSH2 0x104 PUSH1 0x4 DUP1 CALLDATASIZE SUB DUP2 ADD SWAP1 PUSH2 0xFF SWAP2 SWAP1 PUSH2 0xAE5 JUMP JUMPDEST PUSH2 0x23B JUMP JUMPDEST PUSH1 0x40 MLOAD PUSH2 0x111 SWAP2 SWAP1 PUSH2 0xB7D JUMP JUMPDEST PUSH1 0x40 MLOAD DUP1 SWAP2 SUB SWAP1 RETURN JUMPDEST CALLVALUE DUP1 ISZERO PUSH2 0x126 JUMPI PUSH1 0x0 DUP1 REVERT JUMPDEST POP PUSH2 0x141 PUSH1 0x4 DUP1 CALLDATASIZE SUB DUP2 ADD SWAP1 PUSH2 0x13C SWAP2 SWAP1 PUSH2 0xBD6 JUMP JUMPDEST PUSH2 0x3A3 JUMP JUMPDEST STOP JUMPDEST CALLVALUE DUP1 ISZERO PUSH2 0x14F JUMPI PUSH1 0x0 DUP1 REVERT JUMPDEST POP PUSH2 0x158 PUSH2 0x54C JUMP JUMPDEST PUSH1 0x40 MLOAD PUSH2 0x165 SWAP2 SWAP1 PUSH2 0xD66 JUMP JUMPDEST PUSH1 0x40 MLOAD DUP1 SWAP2 SUB SWAP1 RETURN JUMPDEST CALLVALUE DUP1 ISZERO PUSH2 0x17A JUMPI PUSH1 0x0 DUP1 REVERT JUMPDEST POP PUSH2 0x195 PUSH1 0x4 DUP1 CALLDATASIZE SUB DUP2 ADD SWAP1 PUSH2 0x190 SWAP2 SWAP1 PUSH2 0xAE5 JUMP JUMPDEST PUSH2 0x63A JUMP JUMPDEST STOP JUMPDEST PUSH2 0x19F PUSH2 0x9C9 JUMP JUMPDEST PUSH1 0x40 MLOAD PUSH2 0x1AC SWAP2 SWAP1 PUSH2 0xB7D JUMP JUMPDEST PUSH1 0x40 MLOAD DUP1 SWAP2 SUB SWAP1 RETURN JUMPDEST PUSH1 0x1 DUP2 DUP2 SLOAD DUP2 LT PUSH2 0x1C5 JUMPI PUSH1 0x0 DUP1 REVERT JUMPDEST SWAP1 PUSH1 0x0 MSTORE PUSH1 0x20 PUSH1 0x0 KECCAK256 ADD PUSH1 0x0 SWAP2 POP SLOAD SWAP1 PUSH2 0x100 EXP SWAP1 DIV PUSH20 0xFFFFFFFFFFFFFFFFFFFFFFFFFFFFFFFFFFFFFFFF AND DUP2 JUMP JUMPDEST PUSH1 0x0 PUSH1 0x4 PUSH1 0x0 CALLER PUSH20 0xFFFFFFFFFFFFFFFFFFFFFFFFFFFFFFFFFFFFFFFF AND PUSH20 0xFFFFFFFFFFFFFFFFFFFFFFFFFFFFFFFFFFFFFFFF AND DUP2 MSTORE PUSH1 0x20 ADD SWAP1 DUP2 MSTORE PUSH1 0x20 ADD PUSH1 0x0 KECCAK256 SLOAD SWAP1 POP SWAP1 JUMP JUMPDEST PUSH1 0x0 DUP2 PUSH1 0x4 PUSH1 0x0 CALLER PUSH20 0xFFFFFFFFFFFFFFFFFFFFFFFFFFFFFFFFFFFFFFFF AND PUSH20 0xFFFFFFFFFFFFFFFFFFFFFFFFFFFFFFFFFFFFFFFF AND DUP2 MSTORE PUSH1 0x20 ADD SWAP1 DUP2 MSTORE PUSH1 0x20 ADD PUSH1 0x0 KECCAK256 SLOAD LT ISZERO PUSH2 0x2BF JUMPI PUSH1 0x40 MLOAD PUSH32 0x8C379A000000000000000000000000000000000000000000000000000000000 DUP2 MSTORE PUSH1 0x4 ADD PUSH2 0x2B6 SWAP1 PUSH2 0xE0B JUMP JUMPDEST PUSH1 0x40 MLOAD DUP1 SWAP2 SUB SWAP1 REVERT JUMPDEST CALLER PUSH20 0xFFFFFFFFFFFFFFFFFFFFFFFFFFFFFFFFFFFFFFFF AND PUSH2 0x8FC DUP4 SWAP1 DUP2 ISZERO MUL SWAP1 PUSH1 0x40 MLOAD PUSH1 0x0 PUSH1 0x40 MLOAD DUP1 DUP4 SUB DUP2 DUP6 DUP9 DUP9 CALL SWAP4 POP POP POP POP ISZERO DUP1 ISZERO PUSH2 0x305 JUMPI RETURNDATASIZE PUSH1 0x0 DUP1 RETURNDATACOPY RETURNDATASIZE PUSH1 0x0 REVERT JUMPDEST POP DUP2 PUSH1 0x4 PUSH1 0x0 CALLER PUSH20 0xFFFFFFFFFFFFFFFFFFFFFFFFFFFFFFFFFFFFFFFF AND PUSH20 0xFFFFFFFFFFFFFFFFFFFFFFFFFFFFFFFFFFFFFFFF AND DUP2 MSTORE PUSH1 0x20 ADD SWAP1 DUP2 MSTORE PUSH1 0x20 ADD PUSH1 0x0 KECCAK256 PUSH1 0x0 DUP3 DUP3 SLOAD PUSH2 0x355 SWAP2 SWAP1 PUSH2 0xE5A JUMP JUMPDEST SWAP3 POP POP DUP2 SWAP1 SSTORE POP PUSH1 0x4 PUSH1 0x0 CALLER PUSH20 0xFFFFFFFFFFFFFFFFFFFFFFFFFFFFFFFFFFFFFFFF AND PUSH20 0xFFFFFFFFFFFFFFFFFFFFFFFFFFFFFFFFFFFFFFFF AND DUP2 MSTORE PUSH1 0x20 ADD SWAP1 DUP2 MSTORE PUSH1 0x20 ADD PUSH1 0x0 KECCAK256 SLOAD SWAP1 POP SWAP2 SWAP1 POP JUMP JUMPDEST PUSH1 0x0 DUP1 JUMPDEST PUSH1 0x1 DUP1 SLOAD SWAP1 POP DUP2 LT ISZERO PUSH2 0x43D JUMPI CALLER PUSH20 0xFFFFFFFFFFFFFFFFFFFFFFFFFFFFFFFFFFFFFFFF AND PUSH1 0x1 DUP3 DUP2 SLOAD DUP2 LT PUSH2 0x3DF JUMPI PUSH2 0x3DE PUSH2 0xE8E JUMP JUMPDEST JUMPDEST SWAP1 PUSH1 0x0 MSTORE PUSH1 0x20 PUSH1 0x0 KECCAK256 ADD PUSH1 0x0 SWAP1 SLOAD SWAP1 PUSH2 0x100 EXP SWAP1 DIV PUSH20 0xFFFFFFFFFFFFFFFFFFFFFFFFFFFFFFFFFFFFFFFF AND PUSH20 0xFFFFFFFFFFFFFFFFFFFFFFFFFFFFFFFFFFFFFFFF AND SUB PUSH2 0x42A JUMPI PUSH1 0x1 SWAP2 POP JUMPDEST DUP1 DUP1 PUSH2 0x435 SWAP1 PUSH2 0xEBD JUMP JUMPDEST SWAP2 POP POP PUSH2 0x3A7 JUMP JUMPDEST POP PUSH1 0x1 ISZERO ISZERO DUP2 ISZERO ISZERO EQ PUSH2 0x44F JUMPI PUSH1 0x0 DUP1 REVERT JUMPDEST PUSH1 0x3 PUSH1 0x40 MLOAD DUP1 PUSH1 0xA0 ADD PUSH1 0x40 MSTORE DUP1 DUP6 DUP2 MSTORE PUSH1 0x20 ADD DUP5 PUSH20 0xFFFFFFFFFFFFFFFFFFFFFFFFFFFFFFFFFFFFFFFF AND DUP2 MSTORE PUSH1 0x20 ADD PUSH1 0x0 DUP2 MSTORE PUSH1 0x20 ADD PUSH1 0x0 ISZERO ISZERO DUP2 MSTORE PUSH1 0x20 ADD PUSH1 0x3 DUP1 SLOAD SWAP1 POP DUP2 MSTORE POP SWAP1 DUP1 PUSH1 0x1 DUP2 SLOAD ADD DUP1 DUP3 SSTORE DUP1 SWAP2 POP POP PUSH1 0x1 SWAP1 SUB SWAP1 PUSH1 0x0 MSTORE PUSH1 0x20 PUSH1 0x0 KECCAK256 SWAP1 PUSH1 0x5 MUL ADD PUSH1 0x0 SWAP1 SWAP2 SWAP1 SWAP2 SWAP1 SWAP2 POP PUSH1 0x0 DUP3 ADD MLOAD DUP2 PUSH1 0x0 ADD SSTORE PUSH1 0x20 DUP3 ADD MLOAD DUP2 PUSH1 0x1 ADD PUSH1 0x0 PUSH2 0x100 EXP DUP2 SLOAD DUP2 PUSH20 0xFFFFFFFFFFFFFFFFFFFFFFFFFFFFFFFFFFFFFFFF MUL NOT AND SWAP1 DUP4 PUSH20 0xFFFFFFFFFFFFFFFFFFFFFFFFFFFFFFFFFFFFFFFF AND MUL OR SWAP1 SSTORE POP PUSH1 0x40 DUP3 ADD MLOAD DUP2 PUSH1 0x2 ADD SSTORE PUSH1 0x60 DUP3 ADD MLOAD DUP2 PUSH1 0x3 ADD PUSH1 0x0 PUSH2 0x100 EXP DUP2 SLOAD DUP2 PUSH1 0xFF MUL NOT AND SWAP1 DUP4 ISZERO ISZERO MUL OR SWAP1 SSTORE POP PUSH1 0x80 DUP3 ADD MLOAD DUP2 PUSH1 0x4 ADD SSTORE POP POP POP POP POP JUMP JUMPDEST PUSH1 0x60 PUSH1 0x3 DUP1 SLOAD DUP1 PUSH1 0x20 MUL PUSH1 0x20 ADD PUSH1 0x40 MLOAD SWAP1 DUP2 ADD PUSH1 0x40 MSTORE DUP1 SWAP3 SWAP2 SWAP1 DUP2 DUP2 MSTORE PUSH1 0x20 ADD PUSH1 0x0 SWAP1 JUMPDEST DUP3 DUP3 LT ISZERO PUSH2 0x631 JUMPI DUP4 DUP3 SWAP1 PUSH1 0x0 MSTORE PUSH1 0x20 PUSH1 0x0 KECCAK256 SWAP1 PUSH1 0x5 MUL ADD PUSH1 0x40 MLOAD DUP1 PUSH1 0xA0 ADD PUSH1 0x40 MSTORE SWAP1 DUP2 PUSH1 0x0 DUP3 ADD SLOAD DUP2 MSTORE PUSH1 0x20 ADD PUSH1 0x1 DUP3 ADD PUSH1 0x0 SWAP1 SLOAD SWAP1 PUSH2 0x100 EXP SWAP1 DIV PUSH20 0xFFFFFFFFFFFFFFFFFFFFFFFFFFFFFFFFFFFFFFFF AND PUSH20 0xFFFFFFFFFFFFFFFFFFFFFFFFFFFFFFFFFFFFFFFF AND PUSH20 0xFFFFFFFFFFFFFFFFFFFFFFFFFFFFFFFFFFFFFFFF AND DUP2 MSTORE PUSH1 0x20 ADD PUSH1 0x2 DUP3 ADD SLOAD DUP2 MSTORE PUSH1 0x20 ADD PUSH1 0x3 DUP3 ADD PUSH1 0x0 SWAP1 SLOAD SWAP1 PUSH2 0x100 EXP SWAP1 DIV PUSH1 0xFF AND ISZERO ISZERO ISZERO ISZERO DUP2 MSTORE PUSH1 0x20 ADD PUSH1 0x4 DUP3 ADD SLOAD DUP2 MSTORE POP POP DUP2 MSTORE PUSH1 0x20 ADD SWAP1 PUSH1 0x1 ADD SWAP1 PUSH2 0x570 JUMP JUMPDEST POP POP POP POP SWAP1 POP SWAP1 JUMP JUMPDEST PUSH1 0x0 DUP1 JUMPDEST PUSH1 0x1 DUP1 SLOAD SWAP1 POP DUP2 LT ISZERO PUSH2 0x6D4 JUMPI CALLER PUSH20 0xFFFFFFFFFFFFFFFFFFFFFFFFFFFFFFFFFFFFFFFF AND PUSH1 0x1 DUP3 DUP2 SLOAD DUP2 LT PUSH2 0x676 JUMPI PUSH2 0x675 PUSH2 0xE8E JUMP JUMPDEST JUMPDEST SWAP1 PUSH1 0x0 MSTORE PUSH1 0x20 PUSH1 0x0 KECCAK256 ADD PUSH1 0x0 SWAP1 SLOAD SWAP1 PUSH2 0x100 EXP SWAP1 DIV PUSH20 0xFFFFFFFFFFFFFFFFFFFFFFFFFFFFFFFFFFFFFFFF AND PUSH20 0xFFFFFFFFFFFFFFFFFFFFFFFFFFFFFFFFFFFFFFFF AND SUB PUSH2 0x6C1 JUMPI PUSH1 0x1 SWAP2 POP JUMPDEST DUP1 DUP1 PUSH2 0x6CC SWAP1 PUSH2 0xEBD JUMP JUMPDEST SWAP2 POP POP PUSH2 0x63E JUMP JUMPDEST POP PUSH1 0x1 ISZERO ISZERO DUP2 ISZERO ISZERO EQ PUSH2 0x6E6 JUMPI PUSH1 0x0 DUP1 REVERT JUMPDEST PUSH1 0x0 ISZERO ISZERO PUSH1 0x5 PUSH1 0x0 CALLER PUSH20 0xFFFFFFFFFFFFFFFFFFFFFFFFFFFFFFFFFFFFFFFF AND PUSH20 0xFFFFFFFFFFFFFFFFFFFFFFFFFFFFFFFFFFFFFFFF AND DUP2 MSTORE PUSH1 0x20 ADD SWAP1 DUP2 MSTORE PUSH1 0x20 ADD PUSH1 0x0 KECCAK256 PUSH1 0x0 DUP5 DUP2 MSTORE PUSH1 0x20 ADD SWAP1 DUP2 MSTORE PUSH1 0x20 ADD PUSH1 0x0 KECCAK256 PUSH1 0x0 SWAP1 SLOAD SWAP1 PUSH2 0x100 EXP SWAP1 DIV PUSH1 0xFF AND ISZERO ISZERO EQ PUSH2 0x78A JUMPI PUSH1 0x40 MLOAD PUSH32 0x8C379A000000000000000000000000000000000000000000000000000000000 DUP2 MSTORE PUSH1 0x4 ADD PUSH2 0x781 SWAP1 PUSH2 0xF77 JUMP JUMPDEST PUSH1 0x40 MLOAD DUP1 SWAP2 SUB SWAP1 REVERT JUMPDEST PUSH1 0x0 ISZERO ISZERO PUSH1 0x3 DUP4 DUP2 SLOAD DUP2 LT PUSH2 0x7A2 JUMPI PUSH2 0x7A1 PUSH2 0xE8E JUMP JUMPDEST JUMPDEST SWAP1 PUSH1 0x0 MSTORE PUSH1 0x20 PUSH1 0x0 KECCAK256 SWAP1 PUSH1 0x5 MUL ADD PUSH1 0x3 ADD PUSH1 0x0 SWAP1 SLOAD SWAP1 PUSH2 0x100 EXP SWAP1 DIV PUSH1 0xFF AND ISZERO ISZERO EQ PUSH2 0x803 JUMPI PUSH1 0x40 MLOAD PUSH32 0x8C379A000000000000000000000000000000000000000000000000000000000 DUP2 MSTORE PUSH1 0x4 ADD PUSH2 0x7FA SWAP1 PUSH2 0x102F JUMP JUMPDEST PUSH1 0x40 MLOAD DUP1 SWAP2 SUB SWAP1 REVERT JUMPDEST PUSH1 0x1 PUSH1 0x5 PUSH1 0x0 CALLER PUSH20 0xFFFFFFFFFFFFFFFFFFFFFFFFFFFFFFFFFFFFFFFF AND PUSH20 0xFFFFFFFFFFFFFFFFFFFFFFFFFFFFFFFFFFFFFFFF AND DUP2 MSTORE PUSH1 0x20 ADD SWAP1 DUP2 MSTORE PUSH1 0x20 ADD PUSH1 0x0 KECCAK256 PUSH1 0x0 DUP5 DUP2 MSTORE PUSH1 0x20 ADD SWAP1 DUP2 MSTORE PUSH1 0x20 ADD PUSH1 0x0 KECCAK256 PUSH1 0x0 PUSH2 0x100 EXP DUP2 SLOAD DUP2 PUSH1 0xFF MUL NOT AND SWAP1 DUP4 ISZERO ISZERO MUL OR SWAP1 SSTORE POP PUSH1 0x3 DUP3 DUP2 SLOAD DUP2 LT PUSH2 0x880 JUMPI PUSH2 0x87F PUSH2 0xE8E JUMP JUMPDEST JUMPDEST SWAP1 PUSH1 0x0 MSTORE PUSH1 0x20 PUSH1 0x0 KECCAK256 SWAP1 PUSH1 0x5 MUL ADD PUSH1 0x2 ADD PUSH1 0x0 DUP2 SLOAD DUP1 SWAP3 SWAP2 SWAP1 PUSH2 0x8A2 SWAP1 PUSH2 0xEBD JUMP JUMPDEST SWAP2 SWAP1 POP SSTORE POP PUSH1 0x2 SLOAD PUSH1 0x3 DUP4 DUP2 SLOAD DUP2 LT PUSH2 0x8BE JUMPI PUSH2 0x8BD PUSH2 0xE8E JUMP JUMPDEST JUMPDEST SWAP1 PUSH1 0x0 MSTORE PUSH1 0x20 PUSH1 0x0 KECCAK256 SWAP1 PUSH1 0x5 MUL ADD PUSH1 0x2 ADD SLOAD LT PUSH2 0x9C5 JUMPI PUSH1 0x1 PUSH1 0x3 DUP4 DUP2 SLOAD DUP2 LT PUSH2 0x8EB JUMPI PUSH2 0x8EA PUSH2 0xE8E JUMP JUMPDEST JUMPDEST SWAP1 PUSH1 0x0 MSTORE PUSH1 0x20 PUSH1 0x0 KECCAK256 SWAP1 PUSH1 0x5 MUL ADD PUSH1 0x3 ADD PUSH1 0x0 PUSH2 0x100 EXP DUP2 SLOAD DUP2 PUSH1 0xFF MUL NOT AND SWAP1 DUP4 ISZERO ISZERO MUL OR SWAP1 SSTORE POP PUSH1 0x3 DUP3 DUP2 SLOAD DUP2 LT PUSH2 0x927 JUMPI PUSH2 0x926 PUSH2 0xE8E JUMP JUMPDEST JUMPDEST SWAP1 PUSH1 0x0 MSTORE PUSH1 0x20 PUSH1 0x0 KECCAK256 SWAP1 PUSH1 0x5 MUL ADD PUSH1 0x1 ADD PUSH1 0x0 SWAP1 SLOAD SWAP1 PUSH2 0x100 EXP SWAP1 DIV PUSH20 0xFFFFFFFFFFFFFFFFFFFFFFFFFFFFFFFFFFFFFFFF AND PUSH20 0xFFFFFFFFFFFFFFFFFFFFFFFFFFFFFFFFFFFFFFFF AND PUSH2 0x8FC PUSH1 0x3 DUP5 DUP2 SLOAD DUP2 LT PUSH2 0x986 JUMPI PUSH2 0x985 PUSH2 0xE8E JUMP JUMPDEST JUMPDEST SWAP1 PUSH1 0x0 MSTORE PUSH1 0x20 PUSH1 0x0 KECCAK256 SWAP1 PUSH1 0x5 MUL ADD PUSH1 0x0 ADD SLOAD SWAP1 DUP2 ISZERO MUL SWAP1 PUSH1 0x40 MLOAD PUSH1 0x0 PUSH1 0x40 MLOAD DUP1 DUP4 SUB DUP2 DUP6 DUP9 DUP9 CALL SWAP4 POP POP POP POP ISZERO DUP1 ISZERO PUSH2 0x9C3 JUMPI RETURNDATASIZE PUSH1 0x0 DUP1 RETURNDATACOPY RETURNDATASIZE PUSH1 0x0 REVERT JUMPDEST POP JUMPDEST POP POP JUMP JUMPDEST PUSH1 0x0 CALLVALUE PUSH1 0x4 PUSH1 0x0 CALLER PUSH20 0xFFFFFFFFFFFFFFFFFFFFFFFFFFFFFFFFFFFFFFFF AND PUSH20 0xFFFFFFFFFFFFFFFFFFFFFFFFFFFFFFFFFFFFFFFF AND DUP2 MSTORE PUSH1 0x20 ADD SWAP1 DUP2 MSTORE PUSH1 0x20 ADD PUSH1 0x0 KECCAK256 PUSH1 0x0 DUP3 DUP3 SLOAD PUSH2 0xA1A SWAP2 SWAP1 PUSH2 0x104F JUMP JUMPDEST SWAP3 POP POP DUP2 SWAP1 SSTORE POP CALLER PUSH20 0xFFFFFFFFFFFFFFFFFFFFFFFFFFFFFFFFFFFFFFFF AND CALLVALUE PUSH32 0xA23831066066EC8812CC52AFC91A52134A8B50C9209B68C276BE679F4073D95D PUSH1 0x40 MLOAD PUSH1 0x40 MLOAD DUP1 SWAP2 SUB SWAP1 LOG3 PUSH1 0x4 PUSH1 0x0 CALLER PUSH20 0xFFFFFFFFFFFFFFFFFFFFFFFFFFFFFFFFFFFFFFFF AND PUSH20 0xFFFFFFFFFFFFFFFFFFFFFFFFFFFFFFFFFFFFFFFF AND DUP2 MSTORE PUSH1 0x20 ADD SWAP1 DUP2 MSTORE PUSH1 0x20 ADD PUSH1 0x0 KECCAK256 SLOAD SWAP1 POP SWAP1 JUMP JUMPDEST PUSH1 0x0 DUP1 REVERT JUMPDEST PUSH1 0x0 DUP2 SWAP1 POP SWAP2 SWAP1 POP JUMP JUMPDEST PUSH2 0xAC2 DUP2 PUSH2 0xAAF JUMP JUMPDEST DUP2 EQ PUSH2 0xACD JUMPI PUSH1 0x0 DUP1 REVERT JUMPDEST POP JUMP JUMPDEST PUSH1 0x0 DUP2 CALLDATALOAD SWAP1 POP PUSH2 0xADF DUP2 PUSH2 0xAB9 JUMP JUMPDEST SWAP3 SWAP2 POP POP JUMP JUMPDEST PUSH1 0x0 PUSH1 0x20 DUP3 DUP5 SUB SLT ISZERO PUSH2 0xAFB JUMPI PUSH2 0xAFA PUSH2 0xAAA JUMP JUMPDEST JUMPDEST PUSH1 0x0 PUSH2 0xB09 DUP5 DUP3 DUP6 ADD PUSH2 0xAD0 JUMP JUMPDEST SWAP2 POP POP SWAP3 SWAP2 POP POP JUMP JUMPDEST PUSH1 0x0 PUSH20 0xFFFFFFFFFFFFFFFFFFFFFFFFFFFFFFFFFFFFFFFF DUP3 AND SWAP1 POP SWAP2 SWAP1 POP JUMP JUMPDEST PUSH1 0x0 PUSH2 0xB3D DUP3 PUSH2 0xB12 JUMP JUMPDEST SWAP1 POP SWAP2 SWAP1 POP JUMP JUMPDEST PUSH2 0xB4D DUP2 PUSH2 0xB32 JUMP JUMPDEST DUP3 MSTORE POP POP JUMP JUMPDEST PUSH1 0x0 PUSH1 0x20 DUP3 ADD SWAP1 POP PUSH2 0xB68 PUSH1 0x0 DUP4 ADD DUP5 PUSH2 0xB44 JUMP JUMPDEST SWAP3 SWAP2 POP POP JUMP JUMPDEST PUSH2 0xB77 DUP2 PUSH2 0xAAF JUMP JUMPDEST DUP3 MSTORE POP POP JUMP JUMPDEST PUSH1 0x0 PUSH1 0x20 DUP3 ADD SWAP1 POP PUSH2 0xB92 PUSH1 0x0 DUP4 ADD DUP5 PUSH2 0xB6E JUMP JUMPDEST SWAP3 SWAP2 POP POP JUMP JUMPDEST PUSH1 0x0 PUSH2 0xBA3 DUP3 PUSH2 0xB12 JUMP JUMPDEST SWAP1 POP SWAP2 SWAP1 POP JUMP JUMPDEST PUSH2 0xBB3 DUP2 PUSH2 0xB98 JUMP JUMPDEST DUP2 EQ PUSH2 0xBBE JUMPI PUSH1 0x0 DUP1 REVERT JUMPDEST POP JUMP JUMPDEST PUSH1 0x0 DUP2 CALLDATALOAD SWAP1 POP PUSH2 0xBD0 DUP2 PUSH2 0xBAA JUMP JUMPDEST SWAP3 SWAP2 POP POP JUMP JUMPDEST PUSH1 0x0 DUP1 PUSH1 0x40 DUP4 DUP6 SUB SLT ISZERO PUSH2 0xBED JUMPI PUSH2 0xBEC PUSH2 0xAAA JUMP JUMPDEST JUMPDEST PUSH1 0x0 PUSH2 0xBFB DUP6 DUP3 DUP7 ADD PUSH2 0xAD0 JUMP JUMPDEST SWAP3 POP POP PUSH1 0x20 PUSH2 0xC0C DUP6 DUP3 DUP7 ADD PUSH2 0xBC1 JUMP JUMPDEST SWAP2 POP POP SWAP3 POP SWAP3 SWAP1 POP JUMP JUMPDEST PUSH1 0x0 DUP2 MLOAD SWAP1 POP SWAP2 SWAP1 POP JUMP JUMPDEST PUSH1 0x0 DUP3 DUP3 MSTORE PUSH1 0x20 DUP3 ADD SWAP1 POP SWAP3 SWAP2 POP POP JUMP JUMPDEST PUSH1 0x0 DUP2 SWAP1 POP PUSH1 0x20 DUP3 ADD SWAP1 POP SWAP2 SWAP1 POP JUMP JUMPDEST PUSH2 0xC4B DUP2 PUSH2 0xAAF JUMP JUMPDEST DUP3 MSTORE POP POP JUMP JUMPDEST PUSH2 0xC5A DUP2 PUSH2 0xB98 JUMP JUMPDEST DUP3 MSTORE POP POP JUMP JUMPDEST PUSH1 0x0 DUP2 ISZERO ISZERO SWAP1 POP SWAP2 SWAP1 POP JUMP JUMPDEST PUSH2 0xC75 DUP2 PUSH2 0xC60 JUMP JUMPDEST DUP3 MSTORE POP POP JUMP JUMPDEST PUSH1 0xA0 DUP3 ADD PUSH1 0x0 DUP3 ADD MLOAD PUSH2 0xC91 PUSH1 0x0 DUP6 ADD DUP3 PUSH2 0xC42 JUMP JUMPDEST POP PUSH1 0x20 DUP3 ADD MLOAD PUSH2 0xCA4 PUSH1 0x20 DUP6 ADD DUP3 PUSH2 0xC51 JUMP JUMPDEST POP PUSH1 0x40 DUP3 ADD MLOAD PUSH2 0xCB7 PUSH1 0x40 DUP6 ADD DUP3 PUSH2 0xC42 JUMP JUMPDEST POP PUSH1 0x60 DUP3 ADD MLOAD PUSH2 0xCCA PUSH1 0x60 DUP6 ADD DUP3 PUSH2 0xC6C JUMP JUMPDEST POP PUSH1 0x80 DUP3 ADD MLOAD PUSH2 0xCDD PUSH1 0x80 DUP6 ADD DUP3 PUSH2 0xC42 JUMP JUMPDEST POP POP POP POP JUMP JUMPDEST PUSH1 0x0 PUSH2 0xCEF DUP4 DUP4 PUSH2 0xC7B JUMP JUMPDEST PUSH1 0xA0 DUP4 ADD SWAP1 POP SWAP3 SWAP2 POP POP JUMP JUMPDEST PUSH1 0x0 PUSH1 0x20 DUP3 ADD SWAP1 POP SWAP2 SWAP1 POP JUMP JUMPDEST PUSH1 0x0 PUSH2 0xD13 DUP3 PUSH2 0xC16 JUMP JUMPDEST PUSH2 0xD1D DUP2 DUP6 PUSH2 0xC21 JUMP JUMPDEST SWAP4 POP PUSH2 0xD28 DUP4 PUSH2 0xC32 JUMP JUMPDEST DUP1 PUSH1 0x0 JUMPDEST DUP4 DUP2 LT ISZERO PUSH2 0xD59 JUMPI DUP2 MLOAD PUSH2 0xD40 DUP9 DUP3 PUSH2 0xCE3 JUMP JUMPDEST SWAP8 POP PUSH2 0xD4B DUP4 PUSH2 0xCFB JUMP JUMPDEST SWAP3 POP POP PUSH1 0x1 DUP2 ADD SWAP1 POP PUSH2 0xD2C JUMP JUMPDEST POP DUP6 SWAP4 POP POP POP POP SWAP3 SWAP2 POP POP JUMP JUMPDEST PUSH1 0x0 PUSH1 0x20 DUP3 ADD SWAP1 POP DUP2 DUP2 SUB PUSH1 0x0 DUP4 ADD MSTORE PUSH2 0xD80 DUP2 DUP5 PUSH2 0xD08 JUMP JUMPDEST SWAP1 POP SWAP3 SWAP2 POP POP JUMP JUMPDEST PUSH1 0x0 DUP3 DUP3 MSTORE PUSH1 0x20 DUP3 ADD SWAP1 POP SWAP3 SWAP2 POP POP JUMP JUMPDEST PUSH32 0x4552524F5220315F496E73756666696369656E742062616C616E636520746F20 PUSH1 0x0 DUP3 ADD MSTORE PUSH32 0x77697468647261772066756E64732E0000000000000000000000000000000000 PUSH1 0x20 DUP3 ADD MSTORE POP JUMP JUMPDEST PUSH1 0x0 PUSH2 0xDF5 PUSH1 0x2F DUP4 PUSH2 0xD88 JUMP JUMPDEST SWAP2 POP PUSH2 0xE00 DUP3 PUSH2 0xD99 JUMP JUMPDEST PUSH1 0x40 DUP3 ADD SWAP1 POP SWAP2 SWAP1 POP JUMP JUMPDEST PUSH1 0x0 PUSH1 0x20 DUP3 ADD SWAP1 POP DUP2 DUP2 SUB PUSH1 0x0 DUP4 ADD MSTORE PUSH2 0xE24 DUP2 PUSH2 0xDE8 JUMP JUMPDEST SWAP1 POP SWAP2 SWAP1 POP JUMP JUMPDEST PUSH32 0x4E487B7100000000000000000000000000000000000000000000000000000000 PUSH1 0x0 MSTORE PUSH1 0x11 PUSH1 0x4 MSTORE PUSH1 0x24 PUSH1 0x0 REVERT JUMPDEST PUSH1 0x0 PUSH2 0xE65 DUP3 PUSH2 0xAAF JUMP JUMPDEST SWAP2 POP PUSH2 0xE70 DUP4 PUSH2 0xAAF JUMP JUMPDEST SWAP3 POP DUP3 DUP3 LT ISZERO PUSH2 0xE83 JUMPI PUSH2 0xE82 PUSH2 0xE2B JUMP JUMPDEST JUMPDEST DUP3 DUP3 SUB SWAP1 POP SWAP3 SWAP2 POP POP JUMP JUMPDEST PUSH32 0x4E487B7100000000000000000000000000000000000000000000000000000000 PUSH1 0x0 MSTORE PUSH1 0x32 PUSH1 0x4 MSTORE PUSH1 0x24 PUSH1 0x0 REVERT JUMPDEST PUSH1 0x0 PUSH2 0xEC8 DUP3 PUSH2 0xAAF JUMP JUMPDEST SWAP2 POP PUSH32 0xFFFFFFFFFFFFFFFFFFFFFFFFFFFFFFFFFFFFFFFFFFFFFFFFFFFFFFFFFFFFFFFF DUP3 SUB PUSH2 0xEFA JUMPI PUSH2 0xEF9 PUSH2 0xE2B JUMP JUMPDEST JUMPDEST PUSH1 0x1 DUP3 ADD SWAP1 POP SWAP2 SWAP1 POP JUMP JUMPDEST PUSH32 0x4552524F5220375F4F776E6572206973206E6F7420616C6C6F77656420746F20 PUSH1 0x0 DUP3 ADD MSTORE PUSH32 0x766F74652074776963652E000000000000000000000000000000000000000000 PUSH1 0x20 DUP3 ADD MSTORE POP JUMP JUMPDEST PUSH1 0x0 PUSH2 0xF61 PUSH1 0x2B DUP4 PUSH2 0xD88 JUMP JUMPDEST SWAP2 POP PUSH2 0xF6C DUP3 PUSH2 0xF05 JUMP JUMPDEST PUSH1 0x40 DUP3 ADD SWAP1 POP SWAP2 SWAP1 POP JUMP JUMPDEST PUSH1 0x0 PUSH1 0x20 DUP3 ADD SWAP1 POP DUP2 DUP2 SUB PUSH1 0x0 DUP4 ADD MSTORE PUSH2 0xF90 DUP2 PUSH2 0xF54 JUMP JUMPDEST SWAP1 POP SWAP2 SWAP1 POP JUMP JUMPDEST PUSH32 0x4552524F5220385F4E6F7420616C6C6F77656420746F20766F7465206F6E2061 PUSH1 0x0 DUP3 ADD MSTORE PUSH32 0x207472616E73666572207265717565737420746861742068617320616C726561 PUSH1 0x20 DUP3 ADD MSTORE PUSH32 0x6479206265656E2073656E742E00000000000000000000000000000000000000 PUSH1 0x40 DUP3 ADD MSTORE POP JUMP JUMPDEST PUSH1 0x0 PUSH2 0x1019 PUSH1 0x4D DUP4 PUSH2 0xD88 JUMP JUMPDEST SWAP2 POP PUSH2 0x1024 DUP3 PUSH2 0xF97 JUMP JUMPDEST PUSH1 0x60 DUP3 ADD SWAP1 POP SWAP2 SWAP1 POP JUMP JUMPDEST PUSH1 0x0 PUSH1 0x20 DUP3 ADD SWAP1 POP DUP2 DUP2 SUB PUSH1 0x0 DUP4 ADD MSTORE PUSH2 0x1048 DUP2 PUSH2 0x100C JUMP JUMPDEST SWAP1 POP SWAP2 SWAP1 POP JUMP JUMPDEST PUSH1 0x0 PUSH2 0x105A DUP3 PUSH2 0xAAF JUMP JUMPDEST SWAP2 POP PUSH2 0x1065 DUP4 PUSH2 0xAAF JUMP JUMPDEST SWAP3 POP DUP3 PUSH32 0xFFFFFFFFFFFFFFFFFFFFFFFFFFFFFFFFFFFFFFFFFFFFFFFFFFFFFFFFFFFFFFFF SUB DUP3 GT ISZERO PUSH2 0x109A JUMPI PUSH2 0x1099 PUSH2 0xE2B JUMP JUMPDEST JUMPDEST DUP3 DUP3 ADD SWAP1 POP SWAP3 SWAP2 POP POP JUMP INVALID LOG2 PUSH5 0x6970667358 0x22 SLT KECCAK256 0x2D 0xD3 EXTCODEHASH 0xE2 SAR 0xDA PUSH9 0x4940F4D9096F7FE784 DELEGATECALL 0x2C ADDRESS PUSH13 0x5DB84A7BE19E55DC3A9EB02264 PUSH20 0x6F6C634300080D00330000000000000000000000 "
				},
				"gasEstimates": {
					"creation": {
						"codeDepositCost": "863000",
						"executionCost": "infinite",
						"totalCost": "infinite"
					},
					"external": {
						"approve(uint256)": "infinite",
						"createTransfer(uint256,address)": "infinite",
						"deposit()": "infinite",
						"getBalance()": "2549",
						"getTransferRequests()": "infinite",
						"owners(uint256)": "4957",
						"withdraw(uint256)": "infinite"
					}
				},
				"methodIdentifiers": {
					"approve(uint256)": "b759f954",
					"createTransfer(uint256,address)": "4c12fa47",
					"deposit()": "d0e30db0",
					"getBalance()": "12065fe0",
					"getTransferRequests()": "a04ef145",
					"owners(uint256)": "025e7c27",
					"withdraw(uint256)": "2e1a7d4d"
				}
			},
			"storageLayout": {
				"storage": [
					{
						"astId": 318,
						"contract": "contracts/MultiSIG_Wallet.sol:Multisig_Wallet",
						"label": "owner",
						"offset": 0,
						"slot": "0",
						"type": "t_address"
					},
					{
						"astId": 9,
						"contract": "contracts/MultiSIG_Wallet.sol:Multisig_Wallet",
						"label": "owners",
						"offset": 0,
						"slot": "1",
						"type": "t_array(t_address)dyn_storage"
					},
					{
						"astId": 11,
						"contract": "contracts/MultiSIG_Wallet.sol:Multisig_Wallet",
						"label": "limit",
						"offset": 0,
						"slot": "2",
						"type": "t_uint256"
					},
					{
						"astId": 15,
						"contract": "contracts/MultiSIG_Wallet.sol:Multisig_Wallet",
						"label": "transferRequests",
						"offset": 0,
						"slot": "3",
						"type": "t_array(t_struct(Transfer)93_storage)dyn_storage"
					},
					{
						"astId": 75,
						"contract": "contracts/MultiSIG_Wallet.sol:Multisig_Wallet",
						"label": "balance",
						"offset": 0,
						"slot": "4",
						"type": "t_mapping(t_address,t_uint256)"
					},
					{
						"astId": 82,
						"contract": "contracts/MultiSIG_Wallet.sol:Multisig_Wallet",
						"label": "approvals",
						"offset": 0,
						"slot": "5",
						"type": "t_mapping(t_address,t_mapping(t_uint256,t_bool))"
					}
				],
				"types": {
					"t_address": {
						"encoding": "inplace",
						"label": "address",
						"numberOfBytes": "20"
					},
					"t_address_payable": {
						"encoding": "inplace",
						"label": "address payable",
						"numberOfBytes": "20"
					},
					"t_array(t_address)dyn_storage": {
						"base": "t_address",
						"encoding": "dynamic_array",
						"label": "address[]",
						"numberOfBytes": "32"
					},
					"t_array(t_struct(Transfer)93_storage)dyn_storage": {
						"base": "t_struct(Transfer)93_storage",
						"encoding": "dynamic_array",
						"label": "struct Multisig_Wallet.Transfer[]",
						"numberOfBytes": "32"
					},
					"t_bool": {
						"encoding": "inplace",
						"label": "bool",
						"numberOfBytes": "1"
					},
					"t_mapping(t_address,t_mapping(t_uint256,t_bool))": {
						"encoding": "mapping",
						"key": "t_address",
						"label": "mapping(address => mapping(uint256 => bool))",
						"numberOfBytes": "32",
						"value": "t_mapping(t_uint256,t_bool)"
					},
					"t_mapping(t_address,t_uint256)": {
						"encoding": "mapping",
						"key": "t_address",
						"label": "mapping(address => uint256)",
						"numberOfBytes": "32",
						"value": "t_uint256"
					},
					"t_mapping(t_uint256,t_bool)": {
						"encoding": "mapping",
						"key": "t_uint256",
						"label": "mapping(uint256 => bool)",
						"numberOfBytes": "32",
						"value": "t_bool"
					},
					"t_struct(Transfer)93_storage": {
						"encoding": "inplace",
						"label": "struct Multisig_Wallet.Transfer",
						"members": [
							{
								"astId": 84,
								"contract": "contracts/MultiSIG_Wallet.sol:Multisig_Wallet",
								"label": "amount",
								"offset": 0,
								"slot": "0",
								"type": "t_uint256"
							},
							{
								"astId": 86,
								"contract": "contracts/MultiSIG_Wallet.sol:Multisig_Wallet",
								"label": "receiver",
								"offset": 0,
								"slot": "1",
								"type": "t_address_payable"
							},
							{
								"astId": 88,
								"contract": "contracts/MultiSIG_Wallet.sol:Multisig_Wallet",
								"label": "approvals",
								"offset": 0,
								"slot": "2",
								"type": "t_uint256"
							},
							{
								"astId": 90,
								"contract": "contracts/MultiSIG_Wallet.sol:Multisig_Wallet",
								"label": "hasBeenSent",
								"offset": 0,
								"slot": "3",
								"type": "t_bool"
							},
							{
								"astId": 92,
								"contract": "contracts/MultiSIG_Wallet.sol:Multisig_Wallet",
								"label": "id",
								"offset": 0,
								"slot": "4",
								"type": "t_uint256"
							}
						],
						"numberOfBytes": "160"
					},
					"t_uint256": {
						"encoding": "inplace",
						"label": "uint256",
						"numberOfBytes": "32"
					}
				}
			},
			"userdoc": {
				"kind": "user",
				"methods": {},
				"version": 1
			}
		}
	}
}