{
	"contracts/Bank_MultiSIG.sol": {
		"Multisig_Wallet": {
			"abi": [
				{
					"anonymous": false,
					"inputs": [
						{
							"indexed": false,
							"internalType": "address",
							"name": "owner",
							"type": "address"
						}
					],
					"name": "OwnerAdded",
					"type": "event"
				},
				{
					"anonymous": false,
					"inputs": [
						{
							"indexed": false,
							"internalType": "address",
							"name": "owner",
							"type": "address"
						}
					],
					"name": "OwnerRemoved",
					"type": "event"
				},
				{
					"anonymous": false,
					"inputs": [
						{
							"indexed": true,
							"internalType": "uint256",
							"name": "amount",
							"type": "uint256"
						},
						{
							"indexed": true,
							"internalType": "address",
							"name": "depositedTo",
							"type": "address"
						}
					],
					"name": "deposited",
					"type": "event"
				},
				{
					"anonymous": false,
					"inputs": [
						{
							"indexed": true,
							"internalType": "address",
							"name": "from",
							"type": "address"
						},
						{
							"indexed": true,
							"internalType": "address",
							"name": "to",
							"type": "address"
						},
						{
							"indexed": true,
							"internalType": "uint256",
							"name": "amount",
							"type": "uint256"
						}
					],
					"name": "transferedAmount",
					"type": "event"
				},
				{
					"inputs": [
						{
							"internalType": "address",
							"name": "from",
							"type": "address"
						},
						{
							"internalType": "address",
							"name": "to",
							"type": "address"
						},
						{
							"internalType": "uint256",
							"name": "amount",
							"type": "uint256"
						}
					],
					"name": "_transfer",
					"outputs": [],
					"stateMutability": "nonpayable",
					"type": "function"
				},
				{
					"inputs": [
						{
							"internalType": "address",
							"name": "_owner",
							"type": "address"
						}
					],
					"name": "addOwners",
					"outputs": [],
					"stateMutability": "nonpayable",
					"type": "function"
				},
				{
					"inputs": [
						{
							"internalType": "bool",
							"name": "_decision",
							"type": "bool"
						}
					],
					"name": "approveIt",
					"outputs": [
						{
							"internalType": "uint256",
							"name": "",
							"type": "uint256"
						}
					],
					"stateMutability": "nonpayable",
					"type": "function"
				},
				{
					"inputs": [],
					"name": "deposit",
					"outputs": [
						{
							"internalType": "uint256",
							"name": "",
							"type": "uint256"
						}
					],
					"stateMutability": "payable",
					"type": "function"
				},
				{
					"inputs": [],
					"name": "getApproved",
					"outputs": [
						{
							"internalType": "uint256",
							"name": "",
							"type": "uint256"
						}
					],
					"stateMutability": "view",
					"type": "function"
				},
				{
					"inputs": [],
					"name": "getBalance",
					"outputs": [
						{
							"internalType": "uint256",
							"name": "",
							"type": "uint256"
						}
					],
					"stateMutability": "view",
					"type": "function"
				},
				{
					"inputs": [],
					"name": "getRequiredApprovals",
					"outputs": [
						{
							"internalType": "uint256",
							"name": "",
							"type": "uint256"
						}
					],
					"stateMutability": "view",
					"type": "function"
				},
				{
					"inputs": [
						{
							"internalType": "address",
							"name": "_owner",
							"type": "address"
						}
					],
					"name": "isOwner",
					"outputs": [
						{
							"internalType": "bool",
							"name": "",
							"type": "bool"
						}
					],
					"stateMutability": "view",
					"type": "function"
				},
				{
					"inputs": [
						{
							"internalType": "address",
							"name": "_owner",
							"type": "address"
						}
					],
					"name": "removeOwners",
					"outputs": [],
					"stateMutability": "nonpayable",
					"type": "function"
				},
				{
					"inputs": [
						{
							"internalType": "uint256",
							"name": "_number",
							"type": "uint256"
						}
					],
					"name": "setRequiredApprovals",
					"outputs": [],
					"stateMutability": "nonpayable",
					"type": "function"
				},
				{
					"inputs": [
						{
							"internalType": "address",
							"name": "recipient",
							"type": "address"
						},
						{
							"internalType": "uint256",
							"name": "amount",
							"type": "uint256"
						}
					],
					"name": "transfer",
					"outputs": [],
					"stateMutability": "nonpayable",
					"type": "function"
				},
				{
					"inputs": [
						{
							"internalType": "uint256",
							"name": "amount",
							"type": "uint256"
						}
					],
					"name": "withdraw",
					"outputs": [
						{
							"internalType": "uint256",
							"name": "",
							"type": "uint256"
						}
					],
					"stateMutability": "nonpayable",
					"type": "function"
				}
			],
			"devdoc": {
				"author": "Superior Blocks",
				"details": "Multisig Wallet Smart Contract where multiple “signatures” or approvals  are needed for an outgoing transfer to take place. The wallet requires at  least 2 to sign any transfer before it is valid. Anyone can deposit funds into  this wallet. But as soon as we want to spend funds, it requires 2/3 approvals",
				"kind": "dev",
				"methods": {
					"_transfer(address,address,uint256)": {
						"details": "A method to update the sender's balance and the recipients balance.",
						"params": {
							"from": "The address of the sender.  to The address of the recipient."
						}
					},
					"addOwners(address)": {
						"details": "A method to add an address to the Ownerlist",
						"params": {
							"_owner": "The address to add as a owner."
						}
					},
					"approveIt(bool)": {
						"details": "A method to approve a transfer by an owner.",
						"returns": {
							"_0": "the current number of approvals."
						}
					},
					"deposit()": {
						"details": "A method to make a deposit.",
						"returns": {
							"_0": "balance of the sender/owner."
						}
					},
					"getApproved()": {
						"details": "A method that gets the current number of approved transfers.",
						"returns": {
							"_0": "approvals Current number of approved transfers."
						}
					},
					"getBalance()": {
						"details": "A method to get the sender's/owner's balance.",
						"returns": {
							"_0": "balance of the sender/owner."
						}
					},
					"getRequiredApprovals()": {
						"details": "A method that gets the required number of approvals.",
						"returns": {
							"_0": "RequiredApprovals Number of approvals required."
						}
					},
					"isOwner(address)": {
						"details": "A method to verify whether an address is a owner on the Ownerlist",
						"params": {
							"_owner": "The address to verify."
						},
						"returns": {
							"_0": "Whether the address is in the Ownerlist."
						}
					},
					"removeOwners(address)": {
						"details": "A method to remove a owner from the Ownerlist",
						"params": {
							"_owner": "The address to remove as a owner."
						}
					},
					"setRequiredApprovals(uint256)": {
						"details": "A method that sets the required number of approvals setter function.",
						"params": {
							"_number": "The number of approvals required."
						}
					},
					"transfer(address,uint256)": {
						"details": "A method to make a transfer.  The sender must be the owner, have sufficient balance, and cannot be the recipient.  The method calls _transfer",
						"params": {
							"recipient": "The address of the recipient.  amount The amount to be  transferred from owner and sent to recipient."
						}
					},
					"withdraw(uint256)": {
						"details": "A method to make a withdrawal only if there is sufficient balance.",
						"params": {
							"amount": "The amount to withdraw."
						},
						"returns": {
							"_0": "balance of the sender/owner."
						}
					}
				},
				"title": "Multisig Wallet",
				"version": 1
			},
			"evm": {
				"assembly": "    /* \"contracts/Bank_MultiSIG.sol\":579:5107  contract Multisig_Wallet is Ownable, Ownerlist {... */\n  mstore(0x40, 0x80)\n  callvalue\n  dup1\n  iszero\n  tag_1\n  jumpi\n  0x00\n  dup1\n  revert\ntag_1:\n  pop\n    /* \"contracts/Ownable.sol\":448:458  msg.sender */\n  caller\n    /* \"contracts/Ownable.sol\":440:445  owner */\n  0x00\n  dup1\n    /* \"contracts/Ownable.sol\":440:458  owner = msg.sender */\n  0x0100\n  exp\n  dup2\n  sload\n  dup2\n  0xffffffffffffffffffffffffffffffffffffffff\n  mul\n  not\n  and\n  swap1\n  dup4\n  0xffffffffffffffffffffffffffffffffffffffff\n  and\n  mul\n  or\n  swap1\n  sstore\n  pop\n    /* \"contracts/Bank_MultiSIG.sol\":579:5107  contract Multisig_Wallet is Ownable, Ownerlist {... */\n  dataSize(sub_0)\n  dup1\n  dataOffset(sub_0)\n  0x00\n  codecopy\n  0x00\n  return\nstop\n\nsub_0: assembly {\n        /* \"contracts/Bank_MultiSIG.sol\":579:5107  contract Multisig_Wallet is Ownable, Ownerlist {... */\n      mstore(0x40, 0x80)\n      jumpi(tag_1, lt(calldatasize, 0x04))\n      shr(0xe0, calldataload(0x00))\n      dup1\n      0x5f3b1f3b\n      gt\n      tag_14\n      jumpi\n      dup1\n      0x5f3b1f3b\n      eq\n      tag_8\n      jumpi\n      dup1\n      0x8b1e24ab\n      eq\n      tag_9\n      jumpi\n      dup1\n      0xa9059cbb\n      eq\n      tag_10\n      jumpi\n      dup1\n      0xb64c14fe\n      eq\n      tag_11\n      jumpi\n      dup1\n      0xd07b77b5\n      eq\n      tag_12\n      jumpi\n      dup1\n      0xd0e30db0\n      eq\n      tag_13\n      jumpi\n      jump(tag_1)\n    tag_14:\n      dup1\n      0xf76eb4\n      eq\n      tag_2\n      jumpi\n      dup1\n      0x12065fe0\n      eq\n      tag_3\n      jumpi\n      dup1\n      0x222a242e\n      eq\n      tag_4\n      jumpi\n      dup1\n      0x2e1a7d4d\n      eq\n      tag_5\n      jumpi\n      dup1\n      0x2f54bf6e\n      eq\n      tag_6\n      jumpi\n      dup1\n      0x30e0789e\n      eq\n      tag_7\n      jumpi\n    tag_1:\n      0x00\n      dup1\n      revert\n        /* \"contracts/Bank_MultiSIG.sol\":4157:4533  function approveIt(bool _decision) public returns(uint){  ... */\n    tag_2:\n      callvalue\n      dup1\n      iszero\n      tag_15\n      jumpi\n      0x00\n      dup1\n      revert\n    tag_15:\n      pop\n      tag_16\n      0x04\n      dup1\n      calldatasize\n      sub\n      dup2\n      add\n      swap1\n      tag_17\n      swap2\n      swap1\n      tag_18\n      jump\t// in\n    tag_17:\n      tag_19\n      jump\t// in\n    tag_16:\n      mload(0x40)\n      tag_20\n      swap2\n      swap1\n      tag_21\n      jump\t// in\n    tag_20:\n      mload(0x40)\n      dup1\n      swap2\n      sub\n      swap1\n      return\n        /* \"contracts/Bank_MultiSIG.sol\":2449:2542  function getBalance() public view returns (uint){... */\n    tag_3:\n      callvalue\n      dup1\n      iszero\n      tag_22\n      jumpi\n      0x00\n      dup1\n      revert\n    tag_22:\n      pop\n      tag_23\n      tag_24\n      jump\t// in\n    tag_23:\n      mload(0x40)\n      tag_25\n      swap2\n      swap1\n      tag_21\n      jump\t// in\n    tag_25:\n      mload(0x40)\n      dup1\n      swap2\n      sub\n      swap1\n      return\n        /* \"contracts/Bank_MultiSIG.sol\":1211:1638  function setRequiredApprovals(uint _number) public onlyOwner {  //not view or pure because we are changing the state of \"RequiredApprovals\"... */\n    tag_4:\n      callvalue\n      dup1\n      iszero\n      tag_26\n      jumpi\n      0x00\n      dup1\n      revert\n    tag_26:\n      pop\n      tag_27\n      0x04\n      dup1\n      calldatasize\n      sub\n      dup2\n      add\n      swap1\n      tag_28\n      swap2\n      swap1\n      tag_29\n      jump\t// in\n    tag_28:\n      tag_30\n      jump\t// in\n    tag_27:\n      stop\n        /* \"contracts/Bank_MultiSIG.sol\":2739:3021  function withdraw(uint amount) public returns (uint){... */\n    tag_5:\n      callvalue\n      dup1\n      iszero\n      tag_31\n      jumpi\n      0x00\n      dup1\n      revert\n    tag_31:\n      pop\n      tag_32\n      0x04\n      dup1\n      calldatasize\n      sub\n      dup2\n      add\n      swap1\n      tag_33\n      swap2\n      swap1\n      tag_29\n      jump\t// in\n    tag_33:\n      tag_34\n      jump\t// in\n    tag_32:\n      mload(0x40)\n      tag_35\n      swap2\n      swap1\n      tag_21\n      jump\t// in\n    tag_35:\n      mload(0x40)\n      dup1\n      swap2\n      sub\n      swap1\n      return\n        /* \"contracts/Ownerlist.sol\":802:906  function isOwner(address _owner) public view returns(bool)... */\n    tag_6:\n      callvalue\n      dup1\n      iszero\n      tag_36\n      jumpi\n      0x00\n      dup1\n      revert\n    tag_36:\n      pop\n      tag_37\n      0x04\n      dup1\n      calldatasize\n      sub\n      dup2\n      add\n      swap1\n      tag_38\n      swap2\n      swap1\n      tag_39\n      jump\t// in\n    tag_38:\n      tag_40\n      jump\t// in\n    tag_37:\n      mload(0x40)\n      tag_41\n      swap2\n      swap1\n      tag_42\n      jump\t// in\n    tag_41:\n      mload(0x40)\n      dup1\n      swap2\n      sub\n      swap1\n      return\n        /* \"contracts/Bank_MultiSIG.sol\":4965:5104  function _transfer(address from, address to, uint amount) public {... */\n    tag_7:\n      callvalue\n      dup1\n      iszero\n      tag_43\n      jumpi\n      0x00\n      dup1\n      revert\n    tag_43:\n      pop\n      tag_44\n      0x04\n      dup1\n      calldatasize\n      sub\n      dup2\n      add\n      swap1\n      tag_45\n      swap2\n      swap1\n      tag_46\n      jump\t// in\n    tag_45:\n      tag_47\n      jump\t// in\n    tag_44:\n      stop\n        /* \"contracts/Ownerlist.sol\":1042:1278  function addOwners(address _owner) public onlyOwner ... */\n    tag_8:\n      callvalue\n      dup1\n      iszero\n      tag_48\n      jumpi\n      0x00\n      dup1\n      revert\n    tag_48:\n      pop\n      tag_49\n      0x04\n      dup1\n      calldatasize\n      sub\n      dup2\n      add\n      swap1\n      tag_50\n      swap2\n      swap1\n      tag_39\n      jump\t// in\n    tag_50:\n      tag_51\n      jump\t// in\n    tag_49:\n      stop\n        /* \"contracts/Bank_MultiSIG.sol\":1794:1894  function getRequiredApprovals() public view returns(uint){... */\n    tag_9:\n      callvalue\n      dup1\n      iszero\n      tag_52\n      jumpi\n      0x00\n      dup1\n      revert\n    tag_52:\n      pop\n      tag_53\n      tag_54\n      jump\t// in\n    tag_53:\n      mload(0x40)\n      tag_55\n      swap2\n      swap1\n      tag_21\n      jump\t// in\n    tag_55:\n      mload(0x40)\n      dup1\n      swap2\n      sub\n      swap1\n      return\n        /* \"contracts/Bank_MultiSIG.sol\":3345:4024  function transfer(address recipient, uint amount) onlyOwner public {... */\n    tag_10:\n      callvalue\n      dup1\n      iszero\n      tag_56\n      jumpi\n      0x00\n      dup1\n      revert\n    tag_56:\n      pop\n      tag_57\n      0x04\n      dup1\n      calldatasize\n      sub\n      dup2\n      add\n      swap1\n      tag_58\n      swap2\n      swap1\n      tag_59\n      jump\t// in\n    tag_58:\n      tag_60\n      jump\t// in\n    tag_57:\n      stop\n        /* \"contracts/Ownerlist.sol\":1419:1656  function removeOwners(address _owner) public onlyOwner... */\n    tag_11:\n      callvalue\n      dup1\n      iszero\n      tag_61\n      jumpi\n      0x00\n      dup1\n      revert\n    tag_61:\n      pop\n      tag_62\n      0x04\n      dup1\n      calldatasize\n      sub\n      dup2\n      add\n      swap1\n      tag_63\n      swap2\n      swap1\n      tag_39\n      jump\t// in\n    tag_63:\n      tag_64\n      jump\t// in\n    tag_62:\n      stop\n        /* \"contracts/Bank_MultiSIG.sol\":4697:4780  function getApproved() public view returns(uint){... */\n    tag_12:\n      callvalue\n      dup1\n      iszero\n      tag_65\n      jumpi\n      0x00\n      dup1\n      revert\n    tag_65:\n      pop\n      tag_66\n      tag_67\n      jump\t// in\n    tag_66:\n      mload(0x40)\n      tag_68\n      swap2\n      swap1\n      tag_21\n      jump\t// in\n    tag_68:\n      mload(0x40)\n      dup1\n      swap2\n      sub\n      swap1\n      return\n        /* \"contracts/Bank_MultiSIG.sol\":2006:2319  function deposit() public payable returns (uint) { ... */\n    tag_13:\n      tag_69\n      tag_70\n      jump\t// in\n    tag_69:\n      mload(0x40)\n      tag_71\n      swap2\n      swap1\n      tag_21\n      jump\t// in\n    tag_71:\n      mload(0x40)\n      dup1\n      swap2\n      sub\n      swap1\n      return\n        /* \"contracts/Bank_MultiSIG.sol\":4157:4533  function approveIt(bool _decision) public returns(uint){  ... */\n    tag_19:\n        /* \"contracts/Bank_MultiSIG.sol\":4207:4211  uint */\n      0x00\n        /* \"contracts/Bank_MultiSIG.sol\":4233:4252  isOwner(msg.sender) */\n      tag_73\n        /* \"contracts/Bank_MultiSIG.sol\":4241:4251  msg.sender */\n      caller\n        /* \"contracts/Bank_MultiSIG.sol\":4233:4240  isOwner */\n      tag_40\n        /* \"contracts/Bank_MultiSIG.sol\":4233:4252  isOwner(msg.sender) */\n      jump\t// in\n    tag_73:\n        /* \"contracts/Bank_MultiSIG.sol\":4225:4324  require(isOwner(msg.sender), \"ERROR 3_You are not an owner and not allowed to approve a transfer.\") */\n      tag_74\n      jumpi\n      mload(0x40)\n      0x08c379a000000000000000000000000000000000000000000000000000000000\n      dup2\n      mstore\n      0x04\n      add\n      tag_75\n      swap1\n      tag_76\n      jump\t// in\n    tag_75:\n      mload(0x40)\n      dup1\n      swap2\n      sub\n      swap1\n      revert\n    tag_74:\n        /* \"contracts/Bank_MultiSIG.sol\":4364:4368  true */\n      0x01\n        /* \"contracts/Bank_MultiSIG.sol\":4351:4368  _decision == true */\n      iszero\n      iszero\n        /* \"contracts/Bank_MultiSIG.sol\":4351:4360  _decision */\n      dup3\n        /* \"contracts/Bank_MultiSIG.sol\":4351:4368  _decision == true */\n      iszero\n      iszero\n      sub\n        /* \"contracts/Bank_MultiSIG.sol\":4348:4526  if(_decision == true){... */\n      tag_77\n      jumpi\n        /* \"contracts/Bank_MultiSIG.sol\":4384:4393  approvals */\n      0x02\n      0x00\n        /* \"contracts/Bank_MultiSIG.sol\":4384:4395  approvals++ */\n      dup2\n      sload\n      dup1\n      swap3\n      swap2\n      swap1\n      tag_78\n      swap1\n      tag_79\n      jump\t// in\n    tag_78:\n      swap2\n      swap1\n      pop\n      sstore\n      pop\n        /* \"contracts/Bank_MultiSIG.sol\":4418:4427  approvals */\n      sload(0x02)\n        /* \"contracts/Bank_MultiSIG.sol\":4410:4428  return (approvals) */\n      swap1\n      pop\n      jump(tag_72)\n        /* \"contracts/Bank_MultiSIG.sol\":4348:4526  if(_decision == true){... */\n    tag_77:\n        /* \"contracts/Bank_MultiSIG.sol\":4504:4513  approvals */\n      sload(0x02)\n        /* \"contracts/Bank_MultiSIG.sol\":4496:4514  return (approvals) */\n      swap1\n      pop\n        /* \"contracts/Bank_MultiSIG.sol\":4157:4533  function approveIt(bool _decision) public returns(uint){  ... */\n    tag_72:\n      swap2\n      swap1\n      pop\n      jump\t// out\n        /* \"contracts/Bank_MultiSIG.sol\":2449:2542  function getBalance() public view returns (uint){... */\n    tag_24:\n        /* \"contracts/Bank_MultiSIG.sol\":2492:2496  uint */\n      0x00\n        /* \"contracts/Bank_MultiSIG.sol\":2515:2522  balance */\n      0x04\n        /* \"contracts/Bank_MultiSIG.sol\":2515:2534  balance[msg.sender] */\n      0x00\n        /* \"contracts/Bank_MultiSIG.sol\":2523:2533  msg.sender */\n      caller\n        /* \"contracts/Bank_MultiSIG.sol\":2515:2534  balance[msg.sender] */\n      0xffffffffffffffffffffffffffffffffffffffff\n      and\n      0xffffffffffffffffffffffffffffffffffffffff\n      and\n      dup2\n      mstore\n      0x20\n      add\n      swap1\n      dup2\n      mstore\n      0x20\n      add\n      0x00\n      keccak256\n      sload\n        /* \"contracts/Bank_MultiSIG.sol\":2508:2534  return balance[msg.sender] */\n      swap1\n      pop\n        /* \"contracts/Bank_MultiSIG.sol\":2449:2542  function getBalance() public view returns (uint){... */\n      swap1\n      jump\t// out\n        /* \"contracts/Bank_MultiSIG.sol\":1211:1638  function setRequiredApprovals(uint _number) public onlyOwner {  //not view or pure because we are changing the state of \"RequiredApprovals\"... */\n    tag_30:\n        /* \"contracts/Ownable.sol\":342:347  owner */\n      0x00\n      dup1\n      sload\n      swap1\n      0x0100\n      exp\n      swap1\n      div\n      0xffffffffffffffffffffffffffffffffffffffff\n      and\n        /* \"contracts/Ownable.sol\":328:347  msg.sender == owner */\n      0xffffffffffffffffffffffffffffffffffffffff\n      and\n        /* \"contracts/Ownable.sol\":328:338  msg.sender */\n      caller\n        /* \"contracts/Ownable.sol\":328:347  msg.sender == owner */\n      0xffffffffffffffffffffffffffffffffffffffff\n      and\n      eq\n        /* \"contracts/Ownable.sol\":320:348  require(msg.sender == owner) */\n      tag_83\n      jumpi\n      0x00\n      dup1\n      revert\n    tag_83:\n        /* \"contracts/Bank_MultiSIG.sol\":1623:1630  _number */\n      dup1\n        /* \"contracts/Bank_MultiSIG.sol\":1603:1620  RequiredApprovals */\n      0x03\n        /* \"contracts/Bank_MultiSIG.sol\":1603:1630  RequiredApprovals = _number */\n      dup2\n      swap1\n      sstore\n      pop\n        /* \"contracts/Bank_MultiSIG.sol\":1211:1638  function setRequiredApprovals(uint _number) public onlyOwner {  //not view or pure because we are changing the state of \"RequiredApprovals\"... */\n      pop\n      jump\t// out\n        /* \"contracts/Bank_MultiSIG.sol\":2739:3021  function withdraw(uint amount) public returns (uint){... */\n    tag_34:\n        /* \"contracts/Bank_MultiSIG.sol\":2786:2790  uint */\n      0x00\n        /* \"contracts/Bank_MultiSIG.sol\":2832:2838  amount */\n      dup2\n        /* \"contracts/Bank_MultiSIG.sol\":2810:2817  balance */\n      0x04\n        /* \"contracts/Bank_MultiSIG.sol\":2810:2829  balance[msg.sender] */\n      0x00\n        /* \"contracts/Bank_MultiSIG.sol\":2818:2828  msg.sender */\n      caller\n        /* \"contracts/Bank_MultiSIG.sol\":2810:2829  balance[msg.sender] */\n      0xffffffffffffffffffffffffffffffffffffffff\n      and\n      0xffffffffffffffffffffffffffffffffffffffff\n      and\n      dup2\n      mstore\n      0x20\n      add\n      swap1\n      dup2\n      mstore\n      0x20\n      add\n      0x00\n      keccak256\n      sload\n        /* \"contracts/Bank_MultiSIG.sol\":2810:2838  balance[msg.sender]>= amount */\n      lt\n      iszero\n        /* \"contracts/Bank_MultiSIG.sol\":2802:2889  require(balance[msg.sender]>= amount,\"ERROR 1_Insufficient balance to withdraw funds.\") */\n      tag_86\n      jumpi\n      mload(0x40)\n      0x08c379a000000000000000000000000000000000000000000000000000000000\n      dup2\n      mstore\n      0x04\n      add\n      tag_87\n      swap1\n      tag_88\n      jump\t// in\n    tag_87:\n      mload(0x40)\n      dup1\n      swap2\n      sub\n      swap1\n      revert\n    tag_86:\n        /* \"contracts/Bank_MultiSIG.sol\":2908:2918  msg.sender */\n      caller\n        /* \"contracts/Bank_MultiSIG.sol\":2900:2928  payable(msg.sender).transfer */\n      0xffffffffffffffffffffffffffffffffffffffff\n      and\n        /* \"contracts/Bank_MultiSIG.sol\":2900:2936  payable(msg.sender).transfer(amount) */\n      0x08fc\n        /* \"contracts/Bank_MultiSIG.sol\":2929:2935  amount */\n      dup4\n        /* \"contracts/Bank_MultiSIG.sol\":2900:2936  payable(msg.sender).transfer(amount) */\n      swap1\n      dup2\n      iszero\n      mul\n      swap1\n      mload(0x40)\n      0x00\n      mload(0x40)\n      dup1\n      dup4\n      sub\n      dup2\n      dup6\n      dup9\n      dup9\n      call\n      swap4\n      pop\n      pop\n      pop\n      pop\n      iszero\n      dup1\n      iszero\n      tag_90\n      jumpi\n      returndatasize\n      0x00\n      dup1\n      returndatacopy\n      revert(0x00, returndatasize)\n    tag_90:\n      pop\n        /* \"contracts/Bank_MultiSIG.sol\":2970:2976  amount */\n      dup2\n        /* \"contracts/Bank_MultiSIG.sol\":2947:2954  balance */\n      0x04\n        /* \"contracts/Bank_MultiSIG.sol\":2947:2966  balance[msg.sender] */\n      0x00\n        /* \"contracts/Bank_MultiSIG.sol\":2955:2965  msg.sender */\n      caller\n        /* \"contracts/Bank_MultiSIG.sol\":2947:2966  balance[msg.sender] */\n      0xffffffffffffffffffffffffffffffffffffffff\n      and\n      0xffffffffffffffffffffffffffffffffffffffff\n      and\n      dup2\n      mstore\n      0x20\n      add\n      swap1\n      dup2\n      mstore\n      0x20\n      add\n      0x00\n      keccak256\n      0x00\n        /* \"contracts/Bank_MultiSIG.sol\":2947:2976  balance[msg.sender] -= amount */\n      dup3\n      dup3\n      sload\n      tag_91\n      swap2\n      swap1\n      tag_92\n      jump\t// in\n    tag_91:\n      swap3\n      pop\n      pop\n      dup2\n      swap1\n      sstore\n      pop\n        /* \"contracts/Bank_MultiSIG.sol\":2994:3001  balance */\n      0x04\n        /* \"contracts/Bank_MultiSIG.sol\":2994:3013  balance[msg.sender] */\n      0x00\n        /* \"contracts/Bank_MultiSIG.sol\":3002:3012  msg.sender */\n      caller\n        /* \"contracts/Bank_MultiSIG.sol\":2994:3013  balance[msg.sender] */\n      0xffffffffffffffffffffffffffffffffffffffff\n      and\n      0xffffffffffffffffffffffffffffffffffffffff\n      and\n      dup2\n      mstore\n      0x20\n      add\n      swap1\n      dup2\n      mstore\n      0x20\n      add\n      0x00\n      keccak256\n      sload\n        /* \"contracts/Bank_MultiSIG.sol\":2987:3013  return balance[msg.sender] */\n      swap1\n      pop\n        /* \"contracts/Bank_MultiSIG.sol\":2739:3021  function withdraw(uint amount) public returns (uint){... */\n      swap2\n      swap1\n      pop\n      jump\t// out\n        /* \"contracts/Ownerlist.sol\":802:906  function isOwner(address _owner) public view returns(bool)... */\n    tag_40:\n        /* \"contracts/Ownerlist.sol\":855:859  bool */\n      0x00\n        /* \"contracts/Ownerlist.sol\":884:890  owners */\n      0x01\n        /* \"contracts/Ownerlist.sol\":884:898  owners[_owner] */\n      0x00\n        /* \"contracts/Ownerlist.sol\":891:897  _owner */\n      dup4\n        /* \"contracts/Ownerlist.sol\":884:898  owners[_owner] */\n      0xffffffffffffffffffffffffffffffffffffffff\n      and\n      0xffffffffffffffffffffffffffffffffffffffff\n      and\n      dup2\n      mstore\n      0x20\n      add\n      swap1\n      dup2\n      mstore\n      0x20\n      add\n      0x00\n      keccak256\n      0x00\n      swap1\n      sload\n      swap1\n      0x0100\n      exp\n      swap1\n      div\n      0xff\n      and\n        /* \"contracts/Ownerlist.sol\":877:898  return owners[_owner] */\n      swap1\n      pop\n        /* \"contracts/Ownerlist.sol\":802:906  function isOwner(address _owner) public view returns(bool)... */\n      swap2\n      swap1\n      pop\n      jump\t// out\n        /* \"contracts/Bank_MultiSIG.sol\":4965:5104  function _transfer(address from, address to, uint amount) public {... */\n    tag_47:\n        /* \"contracts/Bank_MultiSIG.sol\":5058:5064  amount */\n      dup1\n        /* \"contracts/Bank_MultiSIG.sol\":5041:5048  balance */\n      0x04\n        /* \"contracts/Bank_MultiSIG.sol\":5041:5054  balance[from] */\n      0x00\n        /* \"contracts/Bank_MultiSIG.sol\":5049:5053  from */\n      dup6\n        /* \"contracts/Bank_MultiSIG.sol\":5041:5054  balance[from] */\n      0xffffffffffffffffffffffffffffffffffffffff\n      and\n      0xffffffffffffffffffffffffffffffffffffffff\n      and\n      dup2\n      mstore\n      0x20\n      add\n      swap1\n      dup2\n      mstore\n      0x20\n      add\n      0x00\n      keccak256\n      0x00\n        /* \"contracts/Bank_MultiSIG.sol\":5041:5064  balance[from] -= amount */\n      dup3\n      dup3\n      sload\n      tag_95\n      swap2\n      swap1\n      tag_92\n      jump\t// in\n    tag_95:\n      swap3\n      pop\n      pop\n      dup2\n      swap1\n      sstore\n      pop\n        /* \"contracts/Bank_MultiSIG.sol\":5090:5096  amount */\n      dup1\n        /* \"contracts/Bank_MultiSIG.sol\":5075:5082  balance */\n      0x04\n        /* \"contracts/Bank_MultiSIG.sol\":5075:5086  balance[to] */\n      0x00\n        /* \"contracts/Bank_MultiSIG.sol\":5083:5085  to */\n      dup5\n        /* \"contracts/Bank_MultiSIG.sol\":5075:5086  balance[to] */\n      0xffffffffffffffffffffffffffffffffffffffff\n      and\n      0xffffffffffffffffffffffffffffffffffffffff\n      and\n      dup2\n      mstore\n      0x20\n      add\n      swap1\n      dup2\n      mstore\n      0x20\n      add\n      0x00\n      keccak256\n      0x00\n        /* \"contracts/Bank_MultiSIG.sol\":5075:5096  balance[to] += amount */\n      dup3\n      dup3\n      sload\n      tag_96\n      swap2\n      swap1\n      tag_97\n      jump\t// in\n    tag_96:\n      swap3\n      pop\n      pop\n      dup2\n      swap1\n      sstore\n      pop\n        /* \"contracts/Bank_MultiSIG.sol\":4965:5104  function _transfer(address from, address to, uint amount) public {... */\n      pop\n      pop\n      pop\n      jump\t// out\n        /* \"contracts/Ownerlist.sol\":1042:1278  function addOwners(address _owner) public onlyOwner ... */\n    tag_51:\n        /* \"contracts/Ownable.sol\":342:347  owner */\n      0x00\n      dup1\n      sload\n      swap1\n      0x0100\n      exp\n      swap1\n      div\n      0xffffffffffffffffffffffffffffffffffffffff\n      and\n        /* \"contracts/Ownable.sol\":328:347  msg.sender == owner */\n      0xffffffffffffffffffffffffffffffffffffffff\n      and\n        /* \"contracts/Ownable.sol\":328:338  msg.sender */\n      caller\n        /* \"contracts/Ownable.sol\":328:347  msg.sender == owner */\n      0xffffffffffffffffffffffffffffffffffffffff\n      and\n      eq\n        /* \"contracts/Ownable.sol\":320:348  require(msg.sender == owner) */\n      tag_99\n      jumpi\n      0x00\n      dup1\n      revert\n    tag_99:\n        /* \"contracts/Ownerlist.sol\":1134:1149  isOwner(_owner) */\n      tag_101\n        /* \"contracts/Ownerlist.sol\":1142:1148  _owner */\n      dup2\n        /* \"contracts/Ownerlist.sol\":1134:1141  isOwner */\n      tag_40\n        /* \"contracts/Ownerlist.sol\":1134:1149  isOwner(_owner) */\n      jump\t// in\n    tag_101:\n        /* \"contracts/Ownerlist.sol\":1133:1149  !isOwner(_owner) */\n      iszero\n        /* \"contracts/Ownerlist.sol\":1111:1202  require(... */\n      tag_102\n      jumpi\n      mload(0x40)\n      0x08c379a000000000000000000000000000000000000000000000000000000000\n      dup2\n      mstore\n      0x04\n      add\n      tag_103\n      swap1\n      tag_104\n      jump\t// in\n    tag_103:\n      mload(0x40)\n      dup1\n      swap2\n      sub\n      swap1\n      revert\n    tag_102:\n        /* \"contracts/Ownerlist.sol\":1232:1236  true */\n      0x01\n        /* \"contracts/Ownerlist.sol\":1215:1221  owners */\n      dup1\n        /* \"contracts/Ownerlist.sol\":1215:1229  owners[_owner] */\n      0x00\n        /* \"contracts/Ownerlist.sol\":1222:1228  _owner */\n      dup4\n        /* \"contracts/Ownerlist.sol\":1215:1229  owners[_owner] */\n      0xffffffffffffffffffffffffffffffffffffffff\n      and\n      0xffffffffffffffffffffffffffffffffffffffff\n      and\n      dup2\n      mstore\n      0x20\n      add\n      swap1\n      dup2\n      mstore\n      0x20\n      add\n      0x00\n      keccak256\n      0x00\n        /* \"contracts/Ownerlist.sol\":1215:1236  owners[_owner] = true */\n      0x0100\n      exp\n      dup2\n      sload\n      dup2\n      0xff\n      mul\n      not\n      and\n      swap1\n      dup4\n      iszero\n      iszero\n      mul\n      or\n      swap1\n      sstore\n      pop\n        /* \"contracts/Ownerlist.sol\":1252:1270  OwnerAdded(_owner) */\n      0x994a936646fe87ffe4f1e469d3d6aa417d6b855598397f323de5b449f765f0c3\n        /* \"contracts/Ownerlist.sol\":1263:1269  _owner */\n      dup2\n        /* \"contracts/Ownerlist.sol\":1252:1270  OwnerAdded(_owner) */\n      mload(0x40)\n      tag_105\n      swap2\n      swap1\n      tag_106\n      jump\t// in\n    tag_105:\n      mload(0x40)\n      dup1\n      swap2\n      sub\n      swap1\n      log1\n        /* \"contracts/Ownerlist.sol\":1042:1278  function addOwners(address _owner) public onlyOwner ... */\n      pop\n      jump\t// out\n        /* \"contracts/Bank_MultiSIG.sol\":1794:1894  function getRequiredApprovals() public view returns(uint){... */\n    tag_54:\n        /* \"contracts/Bank_MultiSIG.sol\":1846:1850  uint */\n      0x00\n        /* \"contracts/Bank_MultiSIG.sol\":1869:1886  RequiredApprovals */\n      sload(0x03)\n        /* \"contracts/Bank_MultiSIG.sol\":1862:1886  return RequiredApprovals */\n      swap1\n      pop\n        /* \"contracts/Bank_MultiSIG.sol\":1794:1894  function getRequiredApprovals() public view returns(uint){... */\n      swap1\n      jump\t// out\n        /* \"contracts/Bank_MultiSIG.sol\":3345:4024  function transfer(address recipient, uint amount) onlyOwner public {... */\n    tag_60:\n        /* \"contracts/Ownable.sol\":342:347  owner */\n      0x00\n      dup1\n      sload\n      swap1\n      0x0100\n      exp\n      swap1\n      div\n      0xffffffffffffffffffffffffffffffffffffffff\n      and\n        /* \"contracts/Ownable.sol\":328:347  msg.sender == owner */\n      0xffffffffffffffffffffffffffffffffffffffff\n      and\n        /* \"contracts/Ownable.sol\":328:338  msg.sender */\n      caller\n        /* \"contracts/Ownable.sol\":328:347  msg.sender == owner */\n      0xffffffffffffffffffffffffffffffffffffffff\n      and\n      eq\n        /* \"contracts/Ownable.sol\":320:348  require(msg.sender == owner) */\n      tag_109\n      jumpi\n      0x00\n      dup1\n      revert\n    tag_109:\n        /* \"contracts/Bank_MultiSIG.sol\":3453:3459  amount */\n      dup1\n        /* \"contracts/Bank_MultiSIG.sol\":3431:3438  balance */\n      0x04\n        /* \"contracts/Bank_MultiSIG.sol\":3431:3450  balance[msg.sender] */\n      0x00\n        /* \"contracts/Bank_MultiSIG.sol\":3439:3449  msg.sender */\n      caller\n        /* \"contracts/Bank_MultiSIG.sol\":3431:3450  balance[msg.sender] */\n      0xffffffffffffffffffffffffffffffffffffffff\n      and\n      0xffffffffffffffffffffffffffffffffffffffff\n      and\n      dup2\n      mstore\n      0x20\n      add\n      swap1\n      dup2\n      mstore\n      0x20\n      add\n      0x00\n      keccak256\n      sload\n        /* \"contracts/Bank_MultiSIG.sol\":3431:3459  balance[msg.sender]>= amount */\n      lt\n      iszero\n        /* \"contracts/Bank_MultiSIG.sol\":3423:3510  require(balance[msg.sender]>= amount,\"ERROR 1_Insufficient balance to transfer funds.\") */\n      tag_111\n      jumpi\n      mload(0x40)\n      0x08c379a000000000000000000000000000000000000000000000000000000000\n      dup2\n      mstore\n      0x04\n      add\n      tag_112\n      swap1\n      tag_113\n      jump\t// in\n    tag_112:\n      mload(0x40)\n      dup1\n      swap2\n      sub\n      swap1\n      revert\n    tag_111:\n        /* \"contracts/Bank_MultiSIG.sol\":3574:3583  recipient */\n      dup2\n        /* \"contracts/Bank_MultiSIG.sol\":3560:3583  msg.sender != recipient */\n      0xffffffffffffffffffffffffffffffffffffffff\n      and\n        /* \"contracts/Bank_MultiSIG.sol\":3560:3570  msg.sender */\n      caller\n        /* \"contracts/Bank_MultiSIG.sol\":3560:3583  msg.sender != recipient */\n      0xffffffffffffffffffffffffffffffffffffffff\n      and\n      sub\n        /* \"contracts/Bank_MultiSIG.sol\":3552:3630  require(msg.sender != recipient,\"ERROR 2_The sender cannot be the recipient.\") */\n      tag_114\n      jumpi\n      mload(0x40)\n      0x08c379a000000000000000000000000000000000000000000000000000000000\n      dup2\n      mstore\n      0x04\n      add\n      tag_115\n      swap1\n      tag_116\n      jump\t// in\n    tag_115:\n      mload(0x40)\n      dup1\n      swap2\n      sub\n      swap1\n      revert\n    tag_114:\n        /* \"contracts/Bank_MultiSIG.sol\":3649:3668  isOwner(msg.sender) */\n      tag_117\n        /* \"contracts/Bank_MultiSIG.sol\":3657:3667  msg.sender */\n      caller\n        /* \"contracts/Bank_MultiSIG.sol\":3649:3656  isOwner */\n      tag_40\n        /* \"contracts/Bank_MultiSIG.sol\":3649:3668  isOwner(msg.sender) */\n      jump\t// in\n    tag_117:\n        /* \"contracts/Bank_MultiSIG.sol\":3641:3735  require(isOwner(msg.sender), \"ERROR 3_You are not an owner and not allowed to make transfer.\") */\n      tag_118\n      jumpi\n      mload(0x40)\n      0x08c379a000000000000000000000000000000000000000000000000000000000\n      dup2\n      mstore\n      0x04\n      add\n      tag_119\n      swap1\n      tag_120\n      jump\t// in\n    tag_119:\n      mload(0x40)\n      dup1\n      swap2\n      sub\n      swap1\n      revert\n    tag_118:\n        /* \"contracts/Bank_MultiSIG.sol\":3763:3789  uint previousSenderBalance */\n      0x00\n        /* \"contracts/Bank_MultiSIG.sol\":3792:3799  balance */\n      0x04\n        /* \"contracts/Bank_MultiSIG.sol\":3792:3811  balance[msg.sender] */\n      0x00\n        /* \"contracts/Bank_MultiSIG.sol\":3800:3810  msg.sender */\n      caller\n        /* \"contracts/Bank_MultiSIG.sol\":3792:3811  balance[msg.sender] */\n      0xffffffffffffffffffffffffffffffffffffffff\n      and\n      0xffffffffffffffffffffffffffffffffffffffff\n      and\n      dup2\n      mstore\n      0x20\n      add\n      swap1\n      dup2\n      mstore\n      0x20\n      add\n      0x00\n      keccak256\n      sload\n        /* \"contracts/Bank_MultiSIG.sol\":3763:3811  uint previousSenderBalance = balance[msg.sender] */\n      swap1\n      pop\n        /* \"contracts/Bank_MultiSIG.sol\":3822:3863  _transfer (msg.sender, recipient, amount) */\n      tag_121\n        /* \"contracts/Bank_MultiSIG.sol\":3833:3843  msg.sender */\n      caller\n        /* \"contracts/Bank_MultiSIG.sol\":3845:3854  recipient */\n      dup5\n        /* \"contracts/Bank_MultiSIG.sol\":3856:3862  amount */\n      dup5\n        /* \"contracts/Bank_MultiSIG.sol\":3822:3831  _transfer */\n      tag_47\n        /* \"contracts/Bank_MultiSIG.sol\":3822:3863  _transfer (msg.sender, recipient, amount) */\n      jump\t// in\n    tag_121:\n        /* \"contracts/Bank_MultiSIG.sol\":3921:3927  amount */\n      dup2\n        /* \"contracts/Bank_MultiSIG.sol\":3910:3919  recipient */\n      dup4\n        /* \"contracts/Bank_MultiSIG.sol\":3881:3928  transferedAmount(msg.sender, recipient, amount) */\n      0xffffffffffffffffffffffffffffffffffffffff\n      and\n        /* \"contracts/Bank_MultiSIG.sol\":3898:3908  msg.sender */\n      caller\n        /* \"contracts/Bank_MultiSIG.sol\":3881:3928  transferedAmount(msg.sender, recipient, amount) */\n      0xffffffffffffffffffffffffffffffffffffffff\n      and\n      0x3573881c639e018e0c3ba3a7d19063f6a7a8205d54eb828319a7f98db00426a0\n      mload(0x40)\n      mload(0x40)\n      dup1\n      swap2\n      sub\n      swap1\n      log4\n        /* \"contracts/Bank_MultiSIG.sol\":4008:4014  amount */\n      dup2\n        /* \"contracts/Bank_MultiSIG.sol\":3984:4005  previousSenderBalance */\n      dup2\n        /* \"contracts/Bank_MultiSIG.sol\":3984:4014  previousSenderBalance - amount */\n      tag_122\n      swap2\n      swap1\n      tag_92\n      jump\t// in\n    tag_122:\n        /* \"contracts/Bank_MultiSIG.sol\":3961:3968  balance */\n      0x04\n        /* \"contracts/Bank_MultiSIG.sol\":3961:3980  balance[msg.sender] */\n      0x00\n        /* \"contracts/Bank_MultiSIG.sol\":3969:3979  msg.sender */\n      caller\n        /* \"contracts/Bank_MultiSIG.sol\":3961:3980  balance[msg.sender] */\n      0xffffffffffffffffffffffffffffffffffffffff\n      and\n      0xffffffffffffffffffffffffffffffffffffffff\n      and\n      dup2\n      mstore\n      0x20\n      add\n      swap1\n      dup2\n      mstore\n      0x20\n      add\n      0x00\n      keccak256\n      sload\n        /* \"contracts/Bank_MultiSIG.sol\":3961:4014  balance[msg.sender] == previousSenderBalance - amount */\n      eq\n        /* \"contracts/Bank_MultiSIG.sol\":3954:4015  assert(balance[msg.sender] == previousSenderBalance - amount) */\n      tag_123\n      jumpi\n      tag_124\n      tag_125\n      jump\t// in\n    tag_124:\n    tag_123:\n        /* \"contracts/Bank_MultiSIG.sol\":3412:4024  {... */\n      pop\n        /* \"contracts/Bank_MultiSIG.sol\":3345:4024  function transfer(address recipient, uint amount) onlyOwner public {... */\n      pop\n      pop\n      jump\t// out\n        /* \"contracts/Ownerlist.sol\":1419:1656  function removeOwners(address _owner) public onlyOwner... */\n    tag_64:\n        /* \"contracts/Ownable.sol\":342:347  owner */\n      0x00\n      dup1\n      sload\n      swap1\n      0x0100\n      exp\n      swap1\n      div\n      0xffffffffffffffffffffffffffffffffffffffff\n      and\n        /* \"contracts/Ownable.sol\":328:347  msg.sender == owner */\n      0xffffffffffffffffffffffffffffffffffffffff\n      and\n        /* \"contracts/Ownable.sol\":328:338  msg.sender */\n      caller\n        /* \"contracts/Ownable.sol\":328:347  msg.sender == owner */\n      0xffffffffffffffffffffffffffffffffffffffff\n      and\n      eq\n        /* \"contracts/Ownable.sol\":320:348  require(msg.sender == owner) */\n      tag_127\n      jumpi\n      0x00\n      dup1\n      revert\n    tag_127:\n        /* \"contracts/Ownerlist.sol\":1512:1527  isOwner(_owner) */\n      tag_129\n        /* \"contracts/Ownerlist.sol\":1520:1526  _owner */\n      dup2\n        /* \"contracts/Ownerlist.sol\":1512:1519  isOwner */\n      tag_40\n        /* \"contracts/Ownerlist.sol\":1512:1527  isOwner(_owner) */\n      jump\t// in\n    tag_129:\n        /* \"contracts/Ownerlist.sol\":1490:1578  require(... */\n      tag_130\n      jumpi\n      mload(0x40)\n      0x08c379a000000000000000000000000000000000000000000000000000000000\n      dup2\n      mstore\n      0x04\n      add\n      tag_131\n      swap1\n      tag_132\n      jump\t// in\n    tag_131:\n      mload(0x40)\n      dup1\n      swap2\n      sub\n      swap1\n      revert\n    tag_130:\n        /* \"contracts/Ownerlist.sol\":1598:1604  owners */\n      0x01\n        /* \"contracts/Ownerlist.sol\":1598:1612  owners[_owner] */\n      0x00\n        /* \"contracts/Ownerlist.sol\":1605:1611  _owner */\n      dup3\n        /* \"contracts/Ownerlist.sol\":1598:1612  owners[_owner] */\n      0xffffffffffffffffffffffffffffffffffffffff\n      and\n      0xffffffffffffffffffffffffffffffffffffffff\n      and\n      dup2\n      mstore\n      0x20\n      add\n      swap1\n      dup2\n      mstore\n      0x20\n      add\n      0x00\n      keccak256\n      0x00\n        /* \"contracts/Ownerlist.sol\":1591:1612  delete owners[_owner] */\n      0x0100\n      exp\n      dup2\n      sload\n      swap1\n      0xff\n      mul\n      not\n      and\n      swap1\n      sstore\n        /* \"contracts/Ownerlist.sol\":1628:1648  OwnerRemoved(_owner) */\n      0x58619076adf5bb0943d100ef88d52d7c3fd691b19d3a9071b555b651fbf418da\n        /* \"contracts/Ownerlist.sol\":1641:1647  _owner */\n      dup2\n        /* \"contracts/Ownerlist.sol\":1628:1648  OwnerRemoved(_owner) */\n      mload(0x40)\n      tag_133\n      swap2\n      swap1\n      tag_106\n      jump\t// in\n    tag_133:\n      mload(0x40)\n      dup1\n      swap2\n      sub\n      swap1\n      log1\n        /* \"contracts/Ownerlist.sol\":1419:1656  function removeOwners(address _owner) public onlyOwner... */\n      pop\n      jump\t// out\n        /* \"contracts/Bank_MultiSIG.sol\":4697:4780  function getApproved() public view returns(uint){... */\n    tag_67:\n        /* \"contracts/Bank_MultiSIG.sol\":4740:4744  uint */\n      0x00\n        /* \"contracts/Bank_MultiSIG.sol\":4763:4772  approvals */\n      sload(0x02)\n        /* \"contracts/Bank_MultiSIG.sol\":4756:4772  return approvals */\n      swap1\n      pop\n        /* \"contracts/Bank_MultiSIG.sol\":4697:4780  function getApproved() public view returns(uint){... */\n      swap1\n      jump\t// out\n        /* \"contracts/Bank_MultiSIG.sol\":2006:2319  function deposit() public payable returns (uint) { ... */\n    tag_70:\n        /* \"contracts/Bank_MultiSIG.sol\":2049:2053  uint */\n      0x00\n        /* \"contracts/Bank_MultiSIG.sol\":2090:2099  msg.value */\n      callvalue\n        /* \"contracts/Bank_MultiSIG.sol\":2067:2074  balance */\n      0x04\n        /* \"contracts/Bank_MultiSIG.sol\":2067:2086  balance[msg.sender] */\n      0x00\n        /* \"contracts/Bank_MultiSIG.sol\":2075:2085  msg.sender */\n      caller\n        /* \"contracts/Bank_MultiSIG.sol\":2067:2086  balance[msg.sender] */\n      0xffffffffffffffffffffffffffffffffffffffff\n      and\n      0xffffffffffffffffffffffffffffffffffffffff\n      and\n      dup2\n      mstore\n      0x20\n      add\n      swap1\n      dup2\n      mstore\n      0x20\n      add\n      0x00\n      keccak256\n      0x00\n        /* \"contracts/Bank_MultiSIG.sol\":2067:2099  balance[msg.sender] += msg.value */\n      dup3\n      dup3\n      sload\n      tag_136\n      swap2\n      swap1\n      tag_97\n      jump\t// in\n    tag_136:\n      swap3\n      pop\n      pop\n      dup2\n      swap1\n      sstore\n      pop\n        /* \"contracts/Bank_MultiSIG.sol\":2246:2256  msg.sender */\n      caller\n        /* \"contracts/Bank_MultiSIG.sol\":2224:2257  deposited (msg.value, msg.sender) */\n      0xffffffffffffffffffffffffffffffffffffffff\n      and\n        /* \"contracts/Bank_MultiSIG.sol\":2235:2244  msg.value */\n      callvalue\n        /* \"contracts/Bank_MultiSIG.sol\":2224:2257  deposited (msg.value, msg.sender) */\n      0xa23831066066ec8812cc52afc91a52134a8b50c9209b68c276be679f4073d95d\n      mload(0x40)\n      mload(0x40)\n      dup1\n      swap2\n      sub\n      swap1\n      log3\n        /* \"contracts/Bank_MultiSIG.sol\":2292:2299  balance */\n      0x04\n        /* \"contracts/Bank_MultiSIG.sol\":2292:2311  balance[msg.sender] */\n      0x00\n        /* \"contracts/Bank_MultiSIG.sol\":2300:2310  msg.sender */\n      caller\n        /* \"contracts/Bank_MultiSIG.sol\":2292:2311  balance[msg.sender] */\n      0xffffffffffffffffffffffffffffffffffffffff\n      and\n      0xffffffffffffffffffffffffffffffffffffffff\n      and\n      dup2\n      mstore\n      0x20\n      add\n      swap1\n      dup2\n      mstore\n      0x20\n      add\n      0x00\n      keccak256\n      sload\n        /* \"contracts/Bank_MultiSIG.sol\":2285:2311  return balance[msg.sender] */\n      swap1\n      pop\n        /* \"contracts/Bank_MultiSIG.sol\":2006:2319  function deposit() public payable returns (uint) { ... */\n      swap1\n      jump\t// out\n        /* \"#utility.yul\":88:205   */\n    tag_138:\n        /* \"#utility.yul\":197:198   */\n      0x00\n        /* \"#utility.yul\":194:195   */\n      dup1\n        /* \"#utility.yul\":187:199   */\n      revert\n        /* \"#utility.yul\":334:424   */\n    tag_140:\n        /* \"#utility.yul\":368:375   */\n      0x00\n        /* \"#utility.yul\":411:416   */\n      dup2\n        /* \"#utility.yul\":404:417   */\n      iszero\n        /* \"#utility.yul\":397:418   */\n      iszero\n        /* \"#utility.yul\":386:418   */\n      swap1\n      pop\n        /* \"#utility.yul\":334:424   */\n      swap2\n      swap1\n      pop\n      jump\t// out\n        /* \"#utility.yul\":430:546   */\n    tag_141:\n        /* \"#utility.yul\":500:521   */\n      tag_175\n        /* \"#utility.yul\":515:520   */\n      dup2\n        /* \"#utility.yul\":500:521   */\n      tag_140\n      jump\t// in\n    tag_175:\n        /* \"#utility.yul\":493:498   */\n      dup2\n        /* \"#utility.yul\":490:522   */\n      eq\n        /* \"#utility.yul\":480:540   */\n      tag_176\n      jumpi\n        /* \"#utility.yul\":536:537   */\n      0x00\n        /* \"#utility.yul\":533:534   */\n      dup1\n        /* \"#utility.yul\":526:538   */\n      revert\n        /* \"#utility.yul\":480:540   */\n    tag_176:\n        /* \"#utility.yul\":430:546   */\n      pop\n      jump\t// out\n        /* \"#utility.yul\":552:685   */\n    tag_142:\n        /* \"#utility.yul\":595:600   */\n      0x00\n        /* \"#utility.yul\":633:639   */\n      dup2\n        /* \"#utility.yul\":620:640   */\n      calldataload\n        /* \"#utility.yul\":611:640   */\n      swap1\n      pop\n        /* \"#utility.yul\":649:679   */\n      tag_178\n        /* \"#utility.yul\":673:678   */\n      dup2\n        /* \"#utility.yul\":649:679   */\n      tag_141\n      jump\t// in\n    tag_178:\n        /* \"#utility.yul\":552:685   */\n      swap3\n      swap2\n      pop\n      pop\n      jump\t// out\n        /* \"#utility.yul\":691:1014   */\n    tag_18:\n        /* \"#utility.yul\":747:753   */\n      0x00\n        /* \"#utility.yul\":796:798   */\n      0x20\n        /* \"#utility.yul\":784:793   */\n      dup3\n        /* \"#utility.yul\":775:782   */\n      dup5\n        /* \"#utility.yul\":771:794   */\n      sub\n        /* \"#utility.yul\":767:799   */\n      slt\n        /* \"#utility.yul\":764:883   */\n      iszero\n      tag_180\n      jumpi\n        /* \"#utility.yul\":802:881   */\n      tag_181\n      tag_138\n      jump\t// in\n    tag_181:\n        /* \"#utility.yul\":764:883   */\n    tag_180:\n        /* \"#utility.yul\":922:923   */\n      0x00\n        /* \"#utility.yul\":947:997   */\n      tag_182\n        /* \"#utility.yul\":989:996   */\n      dup5\n        /* \"#utility.yul\":980:986   */\n      dup3\n        /* \"#utility.yul\":969:978   */\n      dup6\n        /* \"#utility.yul\":965:987   */\n      add\n        /* \"#utility.yul\":947:997   */\n      tag_142\n      jump\t// in\n    tag_182:\n        /* \"#utility.yul\":937:997   */\n      swap2\n      pop\n        /* \"#utility.yul\":893:1007   */\n      pop\n        /* \"#utility.yul\":691:1014   */\n      swap3\n      swap2\n      pop\n      pop\n      jump\t// out\n        /* \"#utility.yul\":1020:1097   */\n    tag_143:\n        /* \"#utility.yul\":1057:1064   */\n      0x00\n        /* \"#utility.yul\":1086:1091   */\n      dup2\n        /* \"#utility.yul\":1075:1091   */\n      swap1\n      pop\n        /* \"#utility.yul\":1020:1097   */\n      swap2\n      swap1\n      pop\n      jump\t// out\n        /* \"#utility.yul\":1103:1221   */\n    tag_144:\n        /* \"#utility.yul\":1190:1214   */\n      tag_185\n        /* \"#utility.yul\":1208:1213   */\n      dup2\n        /* \"#utility.yul\":1190:1214   */\n      tag_143\n      jump\t// in\n    tag_185:\n        /* \"#utility.yul\":1185:1188   */\n      dup3\n        /* \"#utility.yul\":1178:1215   */\n      mstore\n        /* \"#utility.yul\":1103:1221   */\n      pop\n      pop\n      jump\t// out\n        /* \"#utility.yul\":1227:1449   */\n    tag_21:\n        /* \"#utility.yul\":1320:1324   */\n      0x00\n        /* \"#utility.yul\":1358:1360   */\n      0x20\n        /* \"#utility.yul\":1347:1356   */\n      dup3\n        /* \"#utility.yul\":1343:1361   */\n      add\n        /* \"#utility.yul\":1335:1361   */\n      swap1\n      pop\n        /* \"#utility.yul\":1371:1442   */\n      tag_187\n        /* \"#utility.yul\":1439:1440   */\n      0x00\n        /* \"#utility.yul\":1428:1437   */\n      dup4\n        /* \"#utility.yul\":1424:1441   */\n      add\n        /* \"#utility.yul\":1415:1421   */\n      dup5\n        /* \"#utility.yul\":1371:1442   */\n      tag_144\n      jump\t// in\n    tag_187:\n        /* \"#utility.yul\":1227:1449   */\n      swap3\n      swap2\n      pop\n      pop\n      jump\t// out\n        /* \"#utility.yul\":1455:1577   */\n    tag_145:\n        /* \"#utility.yul\":1528:1552   */\n      tag_189\n        /* \"#utility.yul\":1546:1551   */\n      dup2\n        /* \"#utility.yul\":1528:1552   */\n      tag_143\n      jump\t// in\n    tag_189:\n        /* \"#utility.yul\":1521:1526   */\n      dup2\n        /* \"#utility.yul\":1518:1553   */\n      eq\n        /* \"#utility.yul\":1508:1571   */\n      tag_190\n      jumpi\n        /* \"#utility.yul\":1567:1568   */\n      0x00\n        /* \"#utility.yul\":1564:1565   */\n      dup1\n        /* \"#utility.yul\":1557:1569   */\n      revert\n        /* \"#utility.yul\":1508:1571   */\n    tag_190:\n        /* \"#utility.yul\":1455:1577   */\n      pop\n      jump\t// out\n        /* \"#utility.yul\":1583:1722   */\n    tag_146:\n        /* \"#utility.yul\":1629:1634   */\n      0x00\n        /* \"#utility.yul\":1667:1673   */\n      dup2\n        /* \"#utility.yul\":1654:1674   */\n      calldataload\n        /* \"#utility.yul\":1645:1674   */\n      swap1\n      pop\n        /* \"#utility.yul\":1683:1716   */\n      tag_192\n        /* \"#utility.yul\":1710:1715   */\n      dup2\n        /* \"#utility.yul\":1683:1716   */\n      tag_145\n      jump\t// in\n    tag_192:\n        /* \"#utility.yul\":1583:1722   */\n      swap3\n      swap2\n      pop\n      pop\n      jump\t// out\n        /* \"#utility.yul\":1728:2057   */\n    tag_29:\n        /* \"#utility.yul\":1787:1793   */\n      0x00\n        /* \"#utility.yul\":1836:1838   */\n      0x20\n        /* \"#utility.yul\":1824:1833   */\n      dup3\n        /* \"#utility.yul\":1815:1822   */\n      dup5\n        /* \"#utility.yul\":1811:1834   */\n      sub\n        /* \"#utility.yul\":1807:1839   */\n      slt\n        /* \"#utility.yul\":1804:1923   */\n      iszero\n      tag_194\n      jumpi\n        /* \"#utility.yul\":1842:1921   */\n      tag_195\n      tag_138\n      jump\t// in\n    tag_195:\n        /* \"#utility.yul\":1804:1923   */\n    tag_194:\n        /* \"#utility.yul\":1962:1963   */\n      0x00\n        /* \"#utility.yul\":1987:2040   */\n      tag_196\n        /* \"#utility.yul\":2032:2039   */\n      dup5\n        /* \"#utility.yul\":2023:2029   */\n      dup3\n        /* \"#utility.yul\":2012:2021   */\n      dup6\n        /* \"#utility.yul\":2008:2030   */\n      add\n        /* \"#utility.yul\":1987:2040   */\n      tag_146\n      jump\t// in\n    tag_196:\n        /* \"#utility.yul\":1977:2040   */\n      swap2\n      pop\n        /* \"#utility.yul\":1933:2050   */\n      pop\n        /* \"#utility.yul\":1728:2057   */\n      swap3\n      swap2\n      pop\n      pop\n      jump\t// out\n        /* \"#utility.yul\":2063:2189   */\n    tag_147:\n        /* \"#utility.yul\":2100:2107   */\n      0x00\n        /* \"#utility.yul\":2140:2182   */\n      0xffffffffffffffffffffffffffffffffffffffff\n        /* \"#utility.yul\":2133:2138   */\n      dup3\n        /* \"#utility.yul\":2129:2183   */\n      and\n        /* \"#utility.yul\":2118:2183   */\n      swap1\n      pop\n        /* \"#utility.yul\":2063:2189   */\n      swap2\n      swap1\n      pop\n      jump\t// out\n        /* \"#utility.yul\":2195:2291   */\n    tag_148:\n        /* \"#utility.yul\":2232:2239   */\n      0x00\n        /* \"#utility.yul\":2261:2285   */\n      tag_199\n        /* \"#utility.yul\":2279:2284   */\n      dup3\n        /* \"#utility.yul\":2261:2285   */\n      tag_147\n      jump\t// in\n    tag_199:\n        /* \"#utility.yul\":2250:2285   */\n      swap1\n      pop\n        /* \"#utility.yul\":2195:2291   */\n      swap2\n      swap1\n      pop\n      jump\t// out\n        /* \"#utility.yul\":2297:2419   */\n    tag_149:\n        /* \"#utility.yul\":2370:2394   */\n      tag_201\n        /* \"#utility.yul\":2388:2393   */\n      dup2\n        /* \"#utility.yul\":2370:2394   */\n      tag_148\n      jump\t// in\n    tag_201:\n        /* \"#utility.yul\":2363:2368   */\n      dup2\n        /* \"#utility.yul\":2360:2395   */\n      eq\n        /* \"#utility.yul\":2350:2413   */\n      tag_202\n      jumpi\n        /* \"#utility.yul\":2409:2410   */\n      0x00\n        /* \"#utility.yul\":2406:2407   */\n      dup1\n        /* \"#utility.yul\":2399:2411   */\n      revert\n        /* \"#utility.yul\":2350:2413   */\n    tag_202:\n        /* \"#utility.yul\":2297:2419   */\n      pop\n      jump\t// out\n        /* \"#utility.yul\":2425:2564   */\n    tag_150:\n        /* \"#utility.yul\":2471:2476   */\n      0x00\n        /* \"#utility.yul\":2509:2515   */\n      dup2\n        /* \"#utility.yul\":2496:2516   */\n      calldataload\n        /* \"#utility.yul\":2487:2516   */\n      swap1\n      pop\n        /* \"#utility.yul\":2525:2558   */\n      tag_204\n        /* \"#utility.yul\":2552:2557   */\n      dup2\n        /* \"#utility.yul\":2525:2558   */\n      tag_149\n      jump\t// in\n    tag_204:\n        /* \"#utility.yul\":2425:2564   */\n      swap3\n      swap2\n      pop\n      pop\n      jump\t// out\n        /* \"#utility.yul\":2570:2899   */\n    tag_39:\n        /* \"#utility.yul\":2629:2635   */\n      0x00\n        /* \"#utility.yul\":2678:2680   */\n      0x20\n        /* \"#utility.yul\":2666:2675   */\n      dup3\n        /* \"#utility.yul\":2657:2664   */\n      dup5\n        /* \"#utility.yul\":2653:2676   */\n      sub\n        /* \"#utility.yul\":2649:2681   */\n      slt\n        /* \"#utility.yul\":2646:2765   */\n      iszero\n      tag_206\n      jumpi\n        /* \"#utility.yul\":2684:2763   */\n      tag_207\n      tag_138\n      jump\t// in\n    tag_207:\n        /* \"#utility.yul\":2646:2765   */\n    tag_206:\n        /* \"#utility.yul\":2804:2805   */\n      0x00\n        /* \"#utility.yul\":2829:2882   */\n      tag_208\n        /* \"#utility.yul\":2874:2881   */\n      dup5\n        /* \"#utility.yul\":2865:2871   */\n      dup3\n        /* \"#utility.yul\":2854:2863   */\n      dup6\n        /* \"#utility.yul\":2850:2872   */\n      add\n        /* \"#utility.yul\":2829:2882   */\n      tag_150\n      jump\t// in\n    tag_208:\n        /* \"#utility.yul\":2819:2882   */\n      swap2\n      pop\n        /* \"#utility.yul\":2775:2892   */\n      pop\n        /* \"#utility.yul\":2570:2899   */\n      swap3\n      swap2\n      pop\n      pop\n      jump\t// out\n        /* \"#utility.yul\":2905:3014   */\n    tag_151:\n        /* \"#utility.yul\":2986:3007   */\n      tag_210\n        /* \"#utility.yul\":3001:3006   */\n      dup2\n        /* \"#utility.yul\":2986:3007   */\n      tag_140\n      jump\t// in\n    tag_210:\n        /* \"#utility.yul\":2981:2984   */\n      dup3\n        /* \"#utility.yul\":2974:3008   */\n      mstore\n        /* \"#utility.yul\":2905:3014   */\n      pop\n      pop\n      jump\t// out\n        /* \"#utility.yul\":3020:3230   */\n    tag_42:\n        /* \"#utility.yul\":3107:3111   */\n      0x00\n        /* \"#utility.yul\":3145:3147   */\n      0x20\n        /* \"#utility.yul\":3134:3143   */\n      dup3\n        /* \"#utility.yul\":3130:3148   */\n      add\n        /* \"#utility.yul\":3122:3148   */\n      swap1\n      pop\n        /* \"#utility.yul\":3158:3223   */\n      tag_212\n        /* \"#utility.yul\":3220:3221   */\n      0x00\n        /* \"#utility.yul\":3209:3218   */\n      dup4\n        /* \"#utility.yul\":3205:3222   */\n      add\n        /* \"#utility.yul\":3196:3202   */\n      dup5\n        /* \"#utility.yul\":3158:3223   */\n      tag_151\n      jump\t// in\n    tag_212:\n        /* \"#utility.yul\":3020:3230   */\n      swap3\n      swap2\n      pop\n      pop\n      jump\t// out\n        /* \"#utility.yul\":3236:3855   */\n    tag_46:\n        /* \"#utility.yul\":3313:3319   */\n      0x00\n        /* \"#utility.yul\":3321:3327   */\n      dup1\n        /* \"#utility.yul\":3329:3335   */\n      0x00\n        /* \"#utility.yul\":3378:3380   */\n      0x60\n        /* \"#utility.yul\":3366:3375   */\n      dup5\n        /* \"#utility.yul\":3357:3364   */\n      dup7\n        /* \"#utility.yul\":3353:3376   */\n      sub\n        /* \"#utility.yul\":3349:3381   */\n      slt\n        /* \"#utility.yul\":3346:3465   */\n      iszero\n      tag_214\n      jumpi\n        /* \"#utility.yul\":3384:3463   */\n      tag_215\n      tag_138\n      jump\t// in\n    tag_215:\n        /* \"#utility.yul\":3346:3465   */\n    tag_214:\n        /* \"#utility.yul\":3504:3505   */\n      0x00\n        /* \"#utility.yul\":3529:3582   */\n      tag_216\n        /* \"#utility.yul\":3574:3581   */\n      dup7\n        /* \"#utility.yul\":3565:3571   */\n      dup3\n        /* \"#utility.yul\":3554:3563   */\n      dup8\n        /* \"#utility.yul\":3550:3572   */\n      add\n        /* \"#utility.yul\":3529:3582   */\n      tag_150\n      jump\t// in\n    tag_216:\n        /* \"#utility.yul\":3519:3582   */\n      swap4\n      pop\n        /* \"#utility.yul\":3475:3592   */\n      pop\n        /* \"#utility.yul\":3631:3633   */\n      0x20\n        /* \"#utility.yul\":3657:3710   */\n      tag_217\n        /* \"#utility.yul\":3702:3709   */\n      dup7\n        /* \"#utility.yul\":3693:3699   */\n      dup3\n        /* \"#utility.yul\":3682:3691   */\n      dup8\n        /* \"#utility.yul\":3678:3700   */\n      add\n        /* \"#utility.yul\":3657:3710   */\n      tag_150\n      jump\t// in\n    tag_217:\n        /* \"#utility.yul\":3647:3710   */\n      swap3\n      pop\n        /* \"#utility.yul\":3602:3720   */\n      pop\n        /* \"#utility.yul\":3759:3761   */\n      0x40\n        /* \"#utility.yul\":3785:3838   */\n      tag_218\n        /* \"#utility.yul\":3830:3837   */\n      dup7\n        /* \"#utility.yul\":3821:3827   */\n      dup3\n        /* \"#utility.yul\":3810:3819   */\n      dup8\n        /* \"#utility.yul\":3806:3828   */\n      add\n        /* \"#utility.yul\":3785:3838   */\n      tag_146\n      jump\t// in\n    tag_218:\n        /* \"#utility.yul\":3775:3838   */\n      swap2\n      pop\n        /* \"#utility.yul\":3730:3848   */\n      pop\n        /* \"#utility.yul\":3236:3855   */\n      swap3\n      pop\n      swap3\n      pop\n      swap3\n      jump\t// out\n        /* \"#utility.yul\":3861:4335   */\n    tag_59:\n        /* \"#utility.yul\":3929:3935   */\n      0x00\n        /* \"#utility.yul\":3937:3943   */\n      dup1\n        /* \"#utility.yul\":3986:3988   */\n      0x40\n        /* \"#utility.yul\":3974:3983   */\n      dup4\n        /* \"#utility.yul\":3965:3972   */\n      dup6\n        /* \"#utility.yul\":3961:3984   */\n      sub\n        /* \"#utility.yul\":3957:3989   */\n      slt\n        /* \"#utility.yul\":3954:4073   */\n      iszero\n      tag_220\n      jumpi\n        /* \"#utility.yul\":3992:4071   */\n      tag_221\n      tag_138\n      jump\t// in\n    tag_221:\n        /* \"#utility.yul\":3954:4073   */\n    tag_220:\n        /* \"#utility.yul\":4112:4113   */\n      0x00\n        /* \"#utility.yul\":4137:4190   */\n      tag_222\n        /* \"#utility.yul\":4182:4189   */\n      dup6\n        /* \"#utility.yul\":4173:4179   */\n      dup3\n        /* \"#utility.yul\":4162:4171   */\n      dup7\n        /* \"#utility.yul\":4158:4180   */\n      add\n        /* \"#utility.yul\":4137:4190   */\n      tag_150\n      jump\t// in\n    tag_222:\n        /* \"#utility.yul\":4127:4190   */\n      swap3\n      pop\n        /* \"#utility.yul\":4083:4200   */\n      pop\n        /* \"#utility.yul\":4239:4241   */\n      0x20\n        /* \"#utility.yul\":4265:4318   */\n      tag_223\n        /* \"#utility.yul\":4310:4317   */\n      dup6\n        /* \"#utility.yul\":4301:4307   */\n      dup3\n        /* \"#utility.yul\":4290:4299   */\n      dup7\n        /* \"#utility.yul\":4286:4308   */\n      add\n        /* \"#utility.yul\":4265:4318   */\n      tag_146\n      jump\t// in\n    tag_223:\n        /* \"#utility.yul\":4255:4318   */\n      swap2\n      pop\n        /* \"#utility.yul\":4210:4328   */\n      pop\n        /* \"#utility.yul\":3861:4335   */\n      swap3\n      pop\n      swap3\n      swap1\n      pop\n      jump\t// out\n        /* \"#utility.yul\":4341:4510   */\n    tag_152:\n        /* \"#utility.yul\":4425:4436   */\n      0x00\n        /* \"#utility.yul\":4459:4465   */\n      dup3\n        /* \"#utility.yul\":4454:4457   */\n      dup3\n        /* \"#utility.yul\":4447:4466   */\n      mstore\n        /* \"#utility.yul\":4499:4503   */\n      0x20\n        /* \"#utility.yul\":4494:4497   */\n      dup3\n        /* \"#utility.yul\":4490:4504   */\n      add\n        /* \"#utility.yul\":4475:4504   */\n      swap1\n      pop\n        /* \"#utility.yul\":4341:4510   */\n      swap3\n      swap2\n      pop\n      pop\n      jump\t// out\n        /* \"#utility.yul\":4516:4807   */\n    tag_153:\n        /* \"#utility.yul\":4656:4690   */\n      0x4552524f5220335f596f7520617265206e6f7420616e206f776e657220616e64\n        /* \"#utility.yul\":4652:4653   */\n      0x00\n        /* \"#utility.yul\":4644:4650   */\n      dup3\n        /* \"#utility.yul\":4640:4654   */\n      add\n        /* \"#utility.yul\":4633:4691   */\n      mstore\n        /* \"#utility.yul\":4725:4759   */\n      0x206e6f7420616c6c6f77656420746f20617070726f76652061207472616e7366\n        /* \"#utility.yul\":4720:4722   */\n      0x20\n        /* \"#utility.yul\":4712:4718   */\n      dup3\n        /* \"#utility.yul\":4708:4723   */\n      add\n        /* \"#utility.yul\":4701:4760   */\n      mstore\n        /* \"#utility.yul\":4794:4799   */\n      0x65722e0000000000000000000000000000000000000000000000000000000000\n        /* \"#utility.yul\":4789:4791   */\n      0x40\n        /* \"#utility.yul\":4781:4787   */\n      dup3\n        /* \"#utility.yul\":4777:4792   */\n      add\n        /* \"#utility.yul\":4770:4800   */\n      mstore\n        /* \"#utility.yul\":4516:4807   */\n      pop\n      jump\t// out\n        /* \"#utility.yul\":4813:5179   */\n    tag_154:\n        /* \"#utility.yul\":4955:4958   */\n      0x00\n        /* \"#utility.yul\":4976:5043   */\n      tag_227\n        /* \"#utility.yul\":5040:5042   */\n      0x43\n        /* \"#utility.yul\":5035:5038   */\n      dup4\n        /* \"#utility.yul\":4976:5043   */\n      tag_152\n      jump\t// in\n    tag_227:\n        /* \"#utility.yul\":4969:5043   */\n      swap2\n      pop\n        /* \"#utility.yul\":5052:5145   */\n      tag_228\n        /* \"#utility.yul\":5141:5144   */\n      dup3\n        /* \"#utility.yul\":5052:5145   */\n      tag_153\n      jump\t// in\n    tag_228:\n        /* \"#utility.yul\":5170:5172   */\n      0x60\n        /* \"#utility.yul\":5165:5168   */\n      dup3\n        /* \"#utility.yul\":5161:5173   */\n      add\n        /* \"#utility.yul\":5154:5173   */\n      swap1\n      pop\n        /* \"#utility.yul\":4813:5179   */\n      swap2\n      swap1\n      pop\n      jump\t// out\n        /* \"#utility.yul\":5185:5604   */\n    tag_76:\n        /* \"#utility.yul\":5351:5355   */\n      0x00\n        /* \"#utility.yul\":5389:5391   */\n      0x20\n        /* \"#utility.yul\":5378:5387   */\n      dup3\n        /* \"#utility.yul\":5374:5392   */\n      add\n        /* \"#utility.yul\":5366:5392   */\n      swap1\n      pop\n        /* \"#utility.yul\":5438:5447   */\n      dup2\n        /* \"#utility.yul\":5432:5436   */\n      dup2\n        /* \"#utility.yul\":5428:5448   */\n      sub\n        /* \"#utility.yul\":5424:5425   */\n      0x00\n        /* \"#utility.yul\":5413:5422   */\n      dup4\n        /* \"#utility.yul\":5409:5426   */\n      add\n        /* \"#utility.yul\":5402:5449   */\n      mstore\n        /* \"#utility.yul\":5466:5597   */\n      tag_230\n        /* \"#utility.yul\":5592:5596   */\n      dup2\n        /* \"#utility.yul\":5466:5597   */\n      tag_154\n      jump\t// in\n    tag_230:\n        /* \"#utility.yul\":5458:5597   */\n      swap1\n      pop\n        /* \"#utility.yul\":5185:5604   */\n      swap2\n      swap1\n      pop\n      jump\t// out\n        /* \"#utility.yul\":5610:5790   */\n    tag_155:\n        /* \"#utility.yul\":5658:5735   */\n      0x4e487b7100000000000000000000000000000000000000000000000000000000\n        /* \"#utility.yul\":5655:5656   */\n      0x00\n        /* \"#utility.yul\":5648:5736   */\n      mstore\n        /* \"#utility.yul\":5755:5759   */\n      0x11\n        /* \"#utility.yul\":5752:5753   */\n      0x04\n        /* \"#utility.yul\":5745:5760   */\n      mstore\n        /* \"#utility.yul\":5779:5783   */\n      0x24\n        /* \"#utility.yul\":5776:5777   */\n      0x00\n        /* \"#utility.yul\":5769:5784   */\n      revert\n        /* \"#utility.yul\":5796:6029   */\n    tag_79:\n        /* \"#utility.yul\":5835:5838   */\n      0x00\n        /* \"#utility.yul\":5858:5882   */\n      tag_233\n        /* \"#utility.yul\":5876:5881   */\n      dup3\n        /* \"#utility.yul\":5858:5882   */\n      tag_143\n      jump\t// in\n    tag_233:\n        /* \"#utility.yul\":5849:5882   */\n      swap2\n      pop\n        /* \"#utility.yul\":5904:5970   */\n      0xffffffffffffffffffffffffffffffffffffffffffffffffffffffffffffffff\n        /* \"#utility.yul\":5897:5902   */\n      dup3\n        /* \"#utility.yul\":5894:5971   */\n      sub\n        /* \"#utility.yul\":5891:5994   */\n      tag_234\n      jumpi\n        /* \"#utility.yul\":5974:5992   */\n      tag_235\n      tag_155\n      jump\t// in\n    tag_235:\n        /* \"#utility.yul\":5891:5994   */\n    tag_234:\n        /* \"#utility.yul\":6021:6022   */\n      0x01\n        /* \"#utility.yul\":6014:6019   */\n      dup3\n        /* \"#utility.yul\":6010:6023   */\n      add\n        /* \"#utility.yul\":6003:6023   */\n      swap1\n      pop\n        /* \"#utility.yul\":5796:6029   */\n      swap2\n      swap1\n      pop\n      jump\t// out\n        /* \"#utility.yul\":6035:6269   */\n    tag_156:\n        /* \"#utility.yul\":6175:6209   */\n      0x4552524f5220315f496e73756666696369656e742062616c616e636520746f20\n        /* \"#utility.yul\":6171:6172   */\n      0x00\n        /* \"#utility.yul\":6163:6169   */\n      dup3\n        /* \"#utility.yul\":6159:6173   */\n      add\n        /* \"#utility.yul\":6152:6210   */\n      mstore\n        /* \"#utility.yul\":6244:6261   */\n      0x77697468647261772066756e64732e0000000000000000000000000000000000\n        /* \"#utility.yul\":6239:6241   */\n      0x20\n        /* \"#utility.yul\":6231:6237   */\n      dup3\n        /* \"#utility.yul\":6227:6242   */\n      add\n        /* \"#utility.yul\":6220:6262   */\n      mstore\n        /* \"#utility.yul\":6035:6269   */\n      pop\n      jump\t// out\n        /* \"#utility.yul\":6275:6641   */\n    tag_157:\n        /* \"#utility.yul\":6417:6420   */\n      0x00\n        /* \"#utility.yul\":6438:6505   */\n      tag_238\n        /* \"#utility.yul\":6502:6504   */\n      0x2f\n        /* \"#utility.yul\":6497:6500   */\n      dup4\n        /* \"#utility.yul\":6438:6505   */\n      tag_152\n      jump\t// in\n    tag_238:\n        /* \"#utility.yul\":6431:6505   */\n      swap2\n      pop\n        /* \"#utility.yul\":6514:6607   */\n      tag_239\n        /* \"#utility.yul\":6603:6606   */\n      dup3\n        /* \"#utility.yul\":6514:6607   */\n      tag_156\n      jump\t// in\n    tag_239:\n        /* \"#utility.yul\":6632:6634   */\n      0x40\n        /* \"#utility.yul\":6627:6630   */\n      dup3\n        /* \"#utility.yul\":6623:6635   */\n      add\n        /* \"#utility.yul\":6616:6635   */\n      swap1\n      pop\n        /* \"#utility.yul\":6275:6641   */\n      swap2\n      swap1\n      pop\n      jump\t// out\n        /* \"#utility.yul\":6647:7066   */\n    tag_88:\n        /* \"#utility.yul\":6813:6817   */\n      0x00\n        /* \"#utility.yul\":6851:6853   */\n      0x20\n        /* \"#utility.yul\":6840:6849   */\n      dup3\n        /* \"#utility.yul\":6836:6854   */\n      add\n        /* \"#utility.yul\":6828:6854   */\n      swap1\n      pop\n        /* \"#utility.yul\":6900:6909   */\n      dup2\n        /* \"#utility.yul\":6894:6898   */\n      dup2\n        /* \"#utility.yul\":6890:6910   */\n      sub\n        /* \"#utility.yul\":6886:6887   */\n      0x00\n        /* \"#utility.yul\":6875:6884   */\n      dup4\n        /* \"#utility.yul\":6871:6888   */\n      add\n        /* \"#utility.yul\":6864:6911   */\n      mstore\n        /* \"#utility.yul\":6928:7059   */\n      tag_241\n        /* \"#utility.yul\":7054:7058   */\n      dup2\n        /* \"#utility.yul\":6928:7059   */\n      tag_157\n      jump\t// in\n    tag_241:\n        /* \"#utility.yul\":6920:7059   */\n      swap1\n      pop\n        /* \"#utility.yul\":6647:7066   */\n      swap2\n      swap1\n      pop\n      jump\t// out\n        /* \"#utility.yul\":7072:7263   */\n    tag_92:\n        /* \"#utility.yul\":7112:7116   */\n      0x00\n        /* \"#utility.yul\":7132:7152   */\n      tag_243\n        /* \"#utility.yul\":7150:7151   */\n      dup3\n        /* \"#utility.yul\":7132:7152   */\n      tag_143\n      jump\t// in\n    tag_243:\n        /* \"#utility.yul\":7127:7152   */\n      swap2\n      pop\n        /* \"#utility.yul\":7166:7186   */\n      tag_244\n        /* \"#utility.yul\":7184:7185   */\n      dup4\n        /* \"#utility.yul\":7166:7186   */\n      tag_143\n      jump\t// in\n    tag_244:\n        /* \"#utility.yul\":7161:7186   */\n      swap3\n      pop\n        /* \"#utility.yul\":7205:7206   */\n      dup3\n        /* \"#utility.yul\":7202:7203   */\n      dup3\n        /* \"#utility.yul\":7199:7207   */\n      lt\n        /* \"#utility.yul\":7196:7230   */\n      iszero\n      tag_245\n      jumpi\n        /* \"#utility.yul\":7210:7228   */\n      tag_246\n      tag_155\n      jump\t// in\n    tag_246:\n        /* \"#utility.yul\":7196:7230   */\n    tag_245:\n        /* \"#utility.yul\":7255:7256   */\n      dup3\n        /* \"#utility.yul\":7252:7253   */\n      dup3\n        /* \"#utility.yul\":7248:7257   */\n      sub\n        /* \"#utility.yul\":7240:7257   */\n      swap1\n      pop\n        /* \"#utility.yul\":7072:7263   */\n      swap3\n      swap2\n      pop\n      pop\n      jump\t// out\n        /* \"#utility.yul\":7269:7574   */\n    tag_97:\n        /* \"#utility.yul\":7309:7312   */\n      0x00\n        /* \"#utility.yul\":7328:7348   */\n      tag_248\n        /* \"#utility.yul\":7346:7347   */\n      dup3\n        /* \"#utility.yul\":7328:7348   */\n      tag_143\n      jump\t// in\n    tag_248:\n        /* \"#utility.yul\":7323:7348   */\n      swap2\n      pop\n        /* \"#utility.yul\":7362:7382   */\n      tag_249\n        /* \"#utility.yul\":7380:7381   */\n      dup4\n        /* \"#utility.yul\":7362:7382   */\n      tag_143\n      jump\t// in\n    tag_249:\n        /* \"#utility.yul\":7357:7382   */\n      swap3\n      pop\n        /* \"#utility.yul\":7516:7517   */\n      dup3\n        /* \"#utility.yul\":7448:7514   */\n      0xffffffffffffffffffffffffffffffffffffffffffffffffffffffffffffffff\n        /* \"#utility.yul\":7444:7518   */\n      sub\n        /* \"#utility.yul\":7441:7442   */\n      dup3\n        /* \"#utility.yul\":7438:7519   */\n      gt\n        /* \"#utility.yul\":7435:7542   */\n      iszero\n      tag_250\n      jumpi\n        /* \"#utility.yul\":7522:7540   */\n      tag_251\n      tag_155\n      jump\t// in\n    tag_251:\n        /* \"#utility.yul\":7435:7542   */\n    tag_250:\n        /* \"#utility.yul\":7566:7567   */\n      dup3\n        /* \"#utility.yul\":7563:7564   */\n      dup3\n        /* \"#utility.yul\":7559:7568   */\n      add\n        /* \"#utility.yul\":7552:7568   */\n      swap1\n      pop\n        /* \"#utility.yul\":7269:7574   */\n      swap3\n      swap2\n      pop\n      pop\n      jump\t// out\n        /* \"#utility.yul\":7580:7755   */\n    tag_158:\n        /* \"#utility.yul\":7720:7747   */\n      0x41646472657373206973206f776e657220616c72656164792e00000000000000\n        /* \"#utility.yul\":7716:7717   */\n      0x00\n        /* \"#utility.yul\":7708:7714   */\n      dup3\n        /* \"#utility.yul\":7704:7718   */\n      add\n        /* \"#utility.yul\":7697:7748   */\n      mstore\n        /* \"#utility.yul\":7580:7755   */\n      pop\n      jump\t// out\n        /* \"#utility.yul\":7761:8127   */\n    tag_159:\n        /* \"#utility.yul\":7903:7906   */\n      0x00\n        /* \"#utility.yul\":7924:7991   */\n      tag_254\n        /* \"#utility.yul\":7988:7990   */\n      0x19\n        /* \"#utility.yul\":7983:7986   */\n      dup4\n        /* \"#utility.yul\":7924:7991   */\n      tag_152\n      jump\t// in\n    tag_254:\n        /* \"#utility.yul\":7917:7991   */\n      swap2\n      pop\n        /* \"#utility.yul\":8000:8093   */\n      tag_255\n        /* \"#utility.yul\":8089:8092   */\n      dup3\n        /* \"#utility.yul\":8000:8093   */\n      tag_158\n      jump\t// in\n    tag_255:\n        /* \"#utility.yul\":8118:8120   */\n      0x20\n        /* \"#utility.yul\":8113:8116   */\n      dup3\n        /* \"#utility.yul\":8109:8121   */\n      add\n        /* \"#utility.yul\":8102:8121   */\n      swap1\n      pop\n        /* \"#utility.yul\":7761:8127   */\n      swap2\n      swap1\n      pop\n      jump\t// out\n        /* \"#utility.yul\":8133:8552   */\n    tag_104:\n        /* \"#utility.yul\":8299:8303   */\n      0x00\n        /* \"#utility.yul\":8337:8339   */\n      0x20\n        /* \"#utility.yul\":8326:8335   */\n      dup3\n        /* \"#utility.yul\":8322:8340   */\n      add\n        /* \"#utility.yul\":8314:8340   */\n      swap1\n      pop\n        /* \"#utility.yul\":8386:8395   */\n      dup2\n        /* \"#utility.yul\":8380:8384   */\n      dup2\n        /* \"#utility.yul\":8376:8396   */\n      sub\n        /* \"#utility.yul\":8372:8373   */\n      0x00\n        /* \"#utility.yul\":8361:8370   */\n      dup4\n        /* \"#utility.yul\":8357:8374   */\n      add\n        /* \"#utility.yul\":8350:8397   */\n      mstore\n        /* \"#utility.yul\":8414:8545   */\n      tag_257\n        /* \"#utility.yul\":8540:8544   */\n      dup2\n        /* \"#utility.yul\":8414:8545   */\n      tag_159\n      jump\t// in\n    tag_257:\n        /* \"#utility.yul\":8406:8545   */\n      swap1\n      pop\n        /* \"#utility.yul\":8133:8552   */\n      swap2\n      swap1\n      pop\n      jump\t// out\n        /* \"#utility.yul\":8558:8676   */\n    tag_160:\n        /* \"#utility.yul\":8645:8669   */\n      tag_259\n        /* \"#utility.yul\":8663:8668   */\n      dup2\n        /* \"#utility.yul\":8645:8669   */\n      tag_148\n      jump\t// in\n    tag_259:\n        /* \"#utility.yul\":8640:8643   */\n      dup3\n        /* \"#utility.yul\":8633:8670   */\n      mstore\n        /* \"#utility.yul\":8558:8676   */\n      pop\n      pop\n      jump\t// out\n        /* \"#utility.yul\":8682:8904   */\n    tag_106:\n        /* \"#utility.yul\":8775:8779   */\n      0x00\n        /* \"#utility.yul\":8813:8815   */\n      0x20\n        /* \"#utility.yul\":8802:8811   */\n      dup3\n        /* \"#utility.yul\":8798:8816   */\n      add\n        /* \"#utility.yul\":8790:8816   */\n      swap1\n      pop\n        /* \"#utility.yul\":8826:8897   */\n      tag_261\n        /* \"#utility.yul\":8894:8895   */\n      0x00\n        /* \"#utility.yul\":8883:8892   */\n      dup4\n        /* \"#utility.yul\":8879:8896   */\n      add\n        /* \"#utility.yul\":8870:8876   */\n      dup5\n        /* \"#utility.yul\":8826:8897   */\n      tag_160\n      jump\t// in\n    tag_261:\n        /* \"#utility.yul\":8682:8904   */\n      swap3\n      swap2\n      pop\n      pop\n      jump\t// out\n        /* \"#utility.yul\":8910:9144   */\n    tag_161:\n        /* \"#utility.yul\":9050:9084   */\n      0x4552524f5220315f496e73756666696369656e742062616c616e636520746f20\n        /* \"#utility.yul\":9046:9047   */\n      0x00\n        /* \"#utility.yul\":9038:9044   */\n      dup3\n        /* \"#utility.yul\":9034:9048   */\n      add\n        /* \"#utility.yul\":9027:9085   */\n      mstore\n        /* \"#utility.yul\":9119:9136   */\n      0x7472616e736665722066756e64732e0000000000000000000000000000000000\n        /* \"#utility.yul\":9114:9116   */\n      0x20\n        /* \"#utility.yul\":9106:9112   */\n      dup3\n        /* \"#utility.yul\":9102:9117   */\n      add\n        /* \"#utility.yul\":9095:9137   */\n      mstore\n        /* \"#utility.yul\":8910:9144   */\n      pop\n      jump\t// out\n        /* \"#utility.yul\":9150:9516   */\n    tag_162:\n        /* \"#utility.yul\":9292:9295   */\n      0x00\n        /* \"#utility.yul\":9313:9380   */\n      tag_264\n        /* \"#utility.yul\":9377:9379   */\n      0x2f\n        /* \"#utility.yul\":9372:9375   */\n      dup4\n        /* \"#utility.yul\":9313:9380   */\n      tag_152\n      jump\t// in\n    tag_264:\n        /* \"#utility.yul\":9306:9380   */\n      swap2\n      pop\n        /* \"#utility.yul\":9389:9482   */\n      tag_265\n        /* \"#utility.yul\":9478:9481   */\n      dup3\n        /* \"#utility.yul\":9389:9482   */\n      tag_161\n      jump\t// in\n    tag_265:\n        /* \"#utility.yul\":9507:9509   */\n      0x40\n        /* \"#utility.yul\":9502:9505   */\n      dup3\n        /* \"#utility.yul\":9498:9510   */\n      add\n        /* \"#utility.yul\":9491:9510   */\n      swap1\n      pop\n        /* \"#utility.yul\":9150:9516   */\n      swap2\n      swap1\n      pop\n      jump\t// out\n        /* \"#utility.yul\":9522:9941   */\n    tag_113:\n        /* \"#utility.yul\":9688:9692   */\n      0x00\n        /* \"#utility.yul\":9726:9728   */\n      0x20\n        /* \"#utility.yul\":9715:9724   */\n      dup3\n        /* \"#utility.yul\":9711:9729   */\n      add\n        /* \"#utility.yul\":9703:9729   */\n      swap1\n      pop\n        /* \"#utility.yul\":9775:9784   */\n      dup2\n        /* \"#utility.yul\":9769:9773   */\n      dup2\n        /* \"#utility.yul\":9765:9785   */\n      sub\n        /* \"#utility.yul\":9761:9762   */\n      0x00\n        /* \"#utility.yul\":9750:9759   */\n      dup4\n        /* \"#utility.yul\":9746:9763   */\n      add\n        /* \"#utility.yul\":9739:9786   */\n      mstore\n        /* \"#utility.yul\":9803:9934   */\n      tag_267\n        /* \"#utility.yul\":9929:9933   */\n      dup2\n        /* \"#utility.yul\":9803:9934   */\n      tag_162\n      jump\t// in\n    tag_267:\n        /* \"#utility.yul\":9795:9934   */\n      swap1\n      pop\n        /* \"#utility.yul\":9522:9941   */\n      swap2\n      swap1\n      pop\n      jump\t// out\n        /* \"#utility.yul\":9947:10177   */\n    tag_163:\n        /* \"#utility.yul\":10087:10121   */\n      0x4552524f5220325f5468652073656e6465722063616e6e6f7420626520746865\n        /* \"#utility.yul\":10083:10084   */\n      0x00\n        /* \"#utility.yul\":10075:10081   */\n      dup3\n        /* \"#utility.yul\":10071:10085   */\n      add\n        /* \"#utility.yul\":10064:10122   */\n      mstore\n        /* \"#utility.yul\":10156:10169   */\n      0x20726563697069656e742e000000000000000000000000000000000000000000\n        /* \"#utility.yul\":10151:10153   */\n      0x20\n        /* \"#utility.yul\":10143:10149   */\n      dup3\n        /* \"#utility.yul\":10139:10154   */\n      add\n        /* \"#utility.yul\":10132:10170   */\n      mstore\n        /* \"#utility.yul\":9947:10177   */\n      pop\n      jump\t// out\n        /* \"#utility.yul\":10183:10549   */\n    tag_164:\n        /* \"#utility.yul\":10325:10328   */\n      0x00\n        /* \"#utility.yul\":10346:10413   */\n      tag_270\n        /* \"#utility.yul\":10410:10412   */\n      0x2b\n        /* \"#utility.yul\":10405:10408   */\n      dup4\n        /* \"#utility.yul\":10346:10413   */\n      tag_152\n      jump\t// in\n    tag_270:\n        /* \"#utility.yul\":10339:10413   */\n      swap2\n      pop\n        /* \"#utility.yul\":10422:10515   */\n      tag_271\n        /* \"#utility.yul\":10511:10514   */\n      dup3\n        /* \"#utility.yul\":10422:10515   */\n      tag_163\n      jump\t// in\n    tag_271:\n        /* \"#utility.yul\":10540:10542   */\n      0x40\n        /* \"#utility.yul\":10535:10538   */\n      dup3\n        /* \"#utility.yul\":10531:10543   */\n      add\n        /* \"#utility.yul\":10524:10543   */\n      swap1\n      pop\n        /* \"#utility.yul\":10183:10549   */\n      swap2\n      swap1\n      pop\n      jump\t// out\n        /* \"#utility.yul\":10555:10974   */\n    tag_116:\n        /* \"#utility.yul\":10721:10725   */\n      0x00\n        /* \"#utility.yul\":10759:10761   */\n      0x20\n        /* \"#utility.yul\":10748:10757   */\n      dup3\n        /* \"#utility.yul\":10744:10762   */\n      add\n        /* \"#utility.yul\":10736:10762   */\n      swap1\n      pop\n        /* \"#utility.yul\":10808:10817   */\n      dup2\n        /* \"#utility.yul\":10802:10806   */\n      dup2\n        /* \"#utility.yul\":10798:10818   */\n      sub\n        /* \"#utility.yul\":10794:10795   */\n      0x00\n        /* \"#utility.yul\":10783:10792   */\n      dup4\n        /* \"#utility.yul\":10779:10796   */\n      add\n        /* \"#utility.yul\":10772:10819   */\n      mstore\n        /* \"#utility.yul\":10836:10967   */\n      tag_273\n        /* \"#utility.yul\":10962:10966   */\n      dup2\n        /* \"#utility.yul\":10836:10967   */\n      tag_164\n      jump\t// in\n    tag_273:\n        /* \"#utility.yul\":10828:10967   */\n      swap1\n      pop\n        /* \"#utility.yul\":10555:10974   */\n      swap2\n      swap1\n      pop\n      jump\t// out\n        /* \"#utility.yul\":10980:11229   */\n    tag_165:\n        /* \"#utility.yul\":11120:11154   */\n      0x4552524f5220335f596f7520617265206e6f7420616e206f776e657220616e64\n        /* \"#utility.yul\":11116:11117   */\n      0x00\n        /* \"#utility.yul\":11108:11114   */\n      dup3\n        /* \"#utility.yul\":11104:11118   */\n      add\n        /* \"#utility.yul\":11097:11155   */\n      mstore\n        /* \"#utility.yul\":11189:11221   */\n      0x206e6f7420616c6c6f77656420746f206d616b65207472616e736665722e0000\n        /* \"#utility.yul\":11184:11186   */\n      0x20\n        /* \"#utility.yul\":11176:11182   */\n      dup3\n        /* \"#utility.yul\":11172:11187   */\n      add\n        /* \"#utility.yul\":11165:11222   */\n      mstore\n        /* \"#utility.yul\":10980:11229   */\n      pop\n      jump\t// out\n        /* \"#utility.yul\":11235:11601   */\n    tag_166:\n        /* \"#utility.yul\":11377:11380   */\n      0x00\n        /* \"#utility.yul\":11398:11465   */\n      tag_276\n        /* \"#utility.yul\":11462:11464   */\n      0x3e\n        /* \"#utility.yul\":11457:11460   */\n      dup4\n        /* \"#utility.yul\":11398:11465   */\n      tag_152\n      jump\t// in\n    tag_276:\n        /* \"#utility.yul\":11391:11465   */\n      swap2\n      pop\n        /* \"#utility.yul\":11474:11567   */\n      tag_277\n        /* \"#utility.yul\":11563:11566   */\n      dup3\n        /* \"#utility.yul\":11474:11567   */\n      tag_165\n      jump\t// in\n    tag_277:\n        /* \"#utility.yul\":11592:11594   */\n      0x40\n        /* \"#utility.yul\":11587:11590   */\n      dup3\n        /* \"#utility.yul\":11583:11595   */\n      add\n        /* \"#utility.yul\":11576:11595   */\n      swap1\n      pop\n        /* \"#utility.yul\":11235:11601   */\n      swap2\n      swap1\n      pop\n      jump\t// out\n        /* \"#utility.yul\":11607:12026   */\n    tag_120:\n        /* \"#utility.yul\":11773:11777   */\n      0x00\n        /* \"#utility.yul\":11811:11813   */\n      0x20\n        /* \"#utility.yul\":11800:11809   */\n      dup3\n        /* \"#utility.yul\":11796:11814   */\n      add\n        /* \"#utility.yul\":11788:11814   */\n      swap1\n      pop\n        /* \"#utility.yul\":11860:11869   */\n      dup2\n        /* \"#utility.yul\":11854:11858   */\n      dup2\n        /* \"#utility.yul\":11850:11870   */\n      sub\n        /* \"#utility.yul\":11846:11847   */\n      0x00\n        /* \"#utility.yul\":11835:11844   */\n      dup4\n        /* \"#utility.yul\":11831:11848   */\n      add\n        /* \"#utility.yul\":11824:11871   */\n      mstore\n        /* \"#utility.yul\":11888:12019   */\n      tag_279\n        /* \"#utility.yul\":12014:12018   */\n      dup2\n        /* \"#utility.yul\":11888:12019   */\n      tag_166\n      jump\t// in\n    tag_279:\n        /* \"#utility.yul\":11880:12019   */\n      swap1\n      pop\n        /* \"#utility.yul\":11607:12026   */\n      swap2\n      swap1\n      pop\n      jump\t// out\n        /* \"#utility.yul\":12032:12212   */\n    tag_125:\n        /* \"#utility.yul\":12080:12157   */\n      0x4e487b7100000000000000000000000000000000000000000000000000000000\n        /* \"#utility.yul\":12077:12078   */\n      0x00\n        /* \"#utility.yul\":12070:12158   */\n      mstore\n        /* \"#utility.yul\":12177:12181   */\n      0x01\n        /* \"#utility.yul\":12174:12175   */\n      0x04\n        /* \"#utility.yul\":12167:12182   */\n      mstore\n        /* \"#utility.yul\":12201:12205   */\n      0x24\n        /* \"#utility.yul\":12198:12199   */\n      0x00\n        /* \"#utility.yul\":12191:12206   */\n      revert\n        /* \"#utility.yul\":12218:12391   */\n    tag_167:\n        /* \"#utility.yul\":12358:12383   */\n      0x4e6f74206f776e6572206f66206f776e65726c6973742e000000000000000000\n        /* \"#utility.yul\":12354:12355   */\n      0x00\n        /* \"#utility.yul\":12346:12352   */\n      dup3\n        /* \"#utility.yul\":12342:12356   */\n      add\n        /* \"#utility.yul\":12335:12384   */\n      mstore\n        /* \"#utility.yul\":12218:12391   */\n      pop\n      jump\t// out\n        /* \"#utility.yul\":12397:12763   */\n    tag_168:\n        /* \"#utility.yul\":12539:12542   */\n      0x00\n        /* \"#utility.yul\":12560:12627   */\n      tag_283\n        /* \"#utility.yul\":12624:12626   */\n      0x17\n        /* \"#utility.yul\":12619:12622   */\n      dup4\n        /* \"#utility.yul\":12560:12627   */\n      tag_152\n      jump\t// in\n    tag_283:\n        /* \"#utility.yul\":12553:12627   */\n      swap2\n      pop\n        /* \"#utility.yul\":12636:12729   */\n      tag_284\n        /* \"#utility.yul\":12725:12728   */\n      dup3\n        /* \"#utility.yul\":12636:12729   */\n      tag_167\n      jump\t// in\n    tag_284:\n        /* \"#utility.yul\":12754:12756   */\n      0x20\n        /* \"#utility.yul\":12749:12752   */\n      dup3\n        /* \"#utility.yul\":12745:12757   */\n      add\n        /* \"#utility.yul\":12738:12757   */\n      swap1\n      pop\n        /* \"#utility.yul\":12397:12763   */\n      swap2\n      swap1\n      pop\n      jump\t// out\n        /* \"#utility.yul\":12769:13188   */\n    tag_132:\n        /* \"#utility.yul\":12935:12939   */\n      0x00\n        /* \"#utility.yul\":12973:12975   */\n      0x20\n        /* \"#utility.yul\":12962:12971   */\n      dup3\n        /* \"#utility.yul\":12958:12976   */\n      add\n        /* \"#utility.yul\":12950:12976   */\n      swap1\n      pop\n        /* \"#utility.yul\":13022:13031   */\n      dup2\n        /* \"#utility.yul\":13016:13020   */\n      dup2\n        /* \"#utility.yul\":13012:13032   */\n      sub\n        /* \"#utility.yul\":13008:13009   */\n      0x00\n        /* \"#utility.yul\":12997:13006   */\n      dup4\n        /* \"#utility.yul\":12993:13010   */\n      add\n        /* \"#utility.yul\":12986:13033   */\n      mstore\n        /* \"#utility.yul\":13050:13181   */\n      tag_286\n        /* \"#utility.yul\":13176:13180   */\n      dup2\n        /* \"#utility.yul\":13050:13181   */\n      tag_168\n      jump\t// in\n    tag_286:\n        /* \"#utility.yul\":13042:13181   */\n      swap1\n      pop\n        /* \"#utility.yul\":12769:13188   */\n      swap2\n      swap1\n      pop\n      jump\t// out\n\n    auxdata: 0xa2646970667358221220909ae0488ebcc0b2f53d703889d3bf8155c93df7615b59b45cbdcdfdf03a156f64736f6c634300080d0033\n}\n",
				"bytecode": {
					"linkReferences": {},
					"object": "608060405234801561001057600080fd5b50336000806101000a81548173ffffffffffffffffffffffffffffffffffffffff021916908373ffffffffffffffffffffffffffffffffffffffff16021790555061140a806100606000396000f3fe6080604052600436106100a65760003560e01c80635f3b1f3b116100645780635f3b1f3b146101df5780638b1e24ab14610208578063a9059cbb14610233578063b64c14fe1461025c578063d07b77b514610285578063d0e30db0146102b0576100a6565b8062f76eb4146100ab57806312065fe0146100e8578063222a242e146101135780632e1a7d4d1461013c5780632f54bf6e1461017957806330e0789e146101b6575b600080fd5b3480156100b757600080fd5b506100d260048036038101906100cd9190610c8f565b6102ce565b6040516100df9190610cd5565b60405180910390f35b3480156100f457600080fd5b506100fd610351565b60405161010a9190610cd5565b60405180910390f35b34801561011f57600080fd5b5061013a60048036038101906101359190610d1c565b610398565b005b34801561014857600080fd5b50610163600480360381019061015e9190610d1c565b6103fa565b6040516101709190610cd5565b60405180910390f35b34801561018557600080fd5b506101a0600480360381019061019b9190610da7565b610562565b6040516101ad9190610de3565b60405180910390f35b3480156101c257600080fd5b506101dd60048036038101906101d89190610dfe565b6105b8565b005b3480156101eb57600080fd5b5061020660048036038101906102019190610da7565b610669565b005b34801561021457600080fd5b5061021d61079b565b60405161022a9190610cd5565b60405180910390f35b34801561023f57600080fd5b5061025a60048036038101906102559190610e51565b6107a5565b005b34801561026857600080fd5b50610283600480360381019061027e9190610da7565b610a3e565b005b34801561029157600080fd5b5061029a610b67565b6040516102a79190610cd5565b60405180910390f35b6102b8610b71565b6040516102c59190610cd5565b60405180910390f35b60006102d933610562565b610318576040517f08c379a000000000000000000000000000000000000000000000000000000000815260040161030f90610f3a565b60405180910390fd5b6001151582151503610346576002600081548092919061033790610f89565b9190505550600254905061034c565b60025490505b919050565b6000600460003373ffffffffffffffffffffffffffffffffffffffff1673ffffffffffffffffffffffffffffffffffffffff16815260200190815260200160002054905090565b60008054906101000a900473ffffffffffffffffffffffffffffffffffffffff1673ffffffffffffffffffffffffffffffffffffffff163373ffffffffffffffffffffffffffffffffffffffff16146103f057600080fd5b8060038190555050565b600081600460003373ffffffffffffffffffffffffffffffffffffffff1673ffffffffffffffffffffffffffffffffffffffff16815260200190815260200160002054101561047e576040517f08c379a000000000000000000000000000000000000000000000000000000000815260040161047590611043565b60405180910390fd5b3373ffffffffffffffffffffffffffffffffffffffff166108fc839081150290604051600060405180830381858888f193505050501580156104c4573d6000803e3d6000fd5b5081600460003373ffffffffffffffffffffffffffffffffffffffff1673ffffffffffffffffffffffffffffffffffffffff16815260200190815260200160002060008282546105149190611063565b92505081905550600460003373ffffffffffffffffffffffffffffffffffffffff1673ffffffffffffffffffffffffffffffffffffffff168152602001908152602001600020549050919050565b6000600160008373ffffffffffffffffffffffffffffffffffffffff1673ffffffffffffffffffffffffffffffffffffffff16815260200190815260200160002060009054906101000a900460ff169050919050565b80600460008573ffffffffffffffffffffffffffffffffffffffff1673ffffffffffffffffffffffffffffffffffffffff16815260200190815260200160002060008282546106079190611063565b9250508190555080600460008473ffffffffffffffffffffffffffffffffffffffff1673ffffffffffffffffffffffffffffffffffffffff168152602001908152602001600020600082825461065d9190611097565b92505081905550505050565b60008054906101000a900473ffffffffffffffffffffffffffffffffffffffff1673ffffffffffffffffffffffffffffffffffffffff163373ffffffffffffffffffffffffffffffffffffffff16146106c157600080fd5b6106ca81610562565b1561070a576040517f08c379a000000000000000000000000000000000000000000000000000000000815260040161070190611139565b60405180910390fd5b60018060008373ffffffffffffffffffffffffffffffffffffffff1673ffffffffffffffffffffffffffffffffffffffff16815260200190815260200160002060006101000a81548160ff0219169083151502179055507f994a936646fe87ffe4f1e469d3d6aa417d6b855598397f323de5b449f765f0c3816040516107909190611168565b60405180910390a150565b6000600354905090565b60008054906101000a900473ffffffffffffffffffffffffffffffffffffffff1673ffffffffffffffffffffffffffffffffffffffff163373ffffffffffffffffffffffffffffffffffffffff16146107fd57600080fd5b80600460003373ffffffffffffffffffffffffffffffffffffffff1673ffffffffffffffffffffffffffffffffffffffff16815260200190815260200160002054101561087f576040517f08c379a0000000000000000000000000000000000000000000000000000000008152600401610876906111f5565b60405180910390fd5b8173ffffffffffffffffffffffffffffffffffffffff163373ffffffffffffffffffffffffffffffffffffffff16036108ed576040517f08c379a00000000000000000000000000000000000000000000000000000000081526004016108e490611287565b60405180910390fd5b6108f633610562565b610935576040517f08c379a000000000000000000000000000000000000000000000000000000000815260040161092c90611319565b60405180910390fd5b6000600460003373ffffffffffffffffffffffffffffffffffffffff1673ffffffffffffffffffffffffffffffffffffffff1681526020019081526020016000205490506109843384846105b8565b818373ffffffffffffffffffffffffffffffffffffffff163373ffffffffffffffffffffffffffffffffffffffff167f3573881c639e018e0c3ba3a7d19063f6a7a8205d54eb828319a7f98db00426a060405160405180910390a481816109eb9190611063565b600460003373ffffffffffffffffffffffffffffffffffffffff1673ffffffffffffffffffffffffffffffffffffffff1681526020019081526020016000205414610a3957610a38611339565b5b505050565b60008054906101000a900473ffffffffffffffffffffffffffffffffffffffff1673ffffffffffffffffffffffffffffffffffffffff163373ffffffffffffffffffffffffffffffffffffffff1614610a9657600080fd5b610a9f81610562565b610ade576040517f08c379a0000000000000000000000000000000000000000000000000000000008152600401610ad5906113b4565b60405180910390fd5b600160008273ffffffffffffffffffffffffffffffffffffffff1673ffffffffffffffffffffffffffffffffffffffff16815260200190815260200160002060006101000a81549060ff02191690557f58619076adf5bb0943d100ef88d52d7c3fd691b19d3a9071b555b651fbf418da81604051610b5c9190611168565b60405180910390a150565b6000600254905090565b600034600460003373ffffffffffffffffffffffffffffffffffffffff1673ffffffffffffffffffffffffffffffffffffffff1681526020019081526020016000206000828254610bc29190611097565b925050819055503373ffffffffffffffffffffffffffffffffffffffff16347fa23831066066ec8812cc52afc91a52134a8b50c9209b68c276be679f4073d95d60405160405180910390a3600460003373ffffffffffffffffffffffffffffffffffffffff1673ffffffffffffffffffffffffffffffffffffffff16815260200190815260200160002054905090565b600080fd5b60008115159050919050565b610c6c81610c57565b8114610c7757600080fd5b50565b600081359050610c8981610c63565b92915050565b600060208284031215610ca557610ca4610c52565b5b6000610cb384828501610c7a565b91505092915050565b6000819050919050565b610ccf81610cbc565b82525050565b6000602082019050610cea6000830184610cc6565b92915050565b610cf981610cbc565b8114610d0457600080fd5b50565b600081359050610d1681610cf0565b92915050565b600060208284031215610d3257610d31610c52565b5b6000610d4084828501610d07565b91505092915050565b600073ffffffffffffffffffffffffffffffffffffffff82169050919050565b6000610d7482610d49565b9050919050565b610d8481610d69565b8114610d8f57600080fd5b50565b600081359050610da181610d7b565b92915050565b600060208284031215610dbd57610dbc610c52565b5b6000610dcb84828501610d92565b91505092915050565b610ddd81610c57565b82525050565b6000602082019050610df86000830184610dd4565b92915050565b600080600060608486031215610e1757610e16610c52565b5b6000610e2586828701610d92565b9350506020610e3686828701610d92565b9250506040610e4786828701610d07565b9150509250925092565b60008060408385031215610e6857610e67610c52565b5b6000610e7685828601610d92565b9250506020610e8785828601610d07565b9150509250929050565b600082825260208201905092915050565b7f4552524f5220335f596f7520617265206e6f7420616e206f776e657220616e6460008201527f206e6f7420616c6c6f77656420746f20617070726f76652061207472616e736660208201527f65722e0000000000000000000000000000000000000000000000000000000000604082015250565b6000610f24604383610e91565b9150610f2f82610ea2565b606082019050919050565b60006020820190508181036000830152610f5381610f17565b9050919050565b7f4e487b7100000000000000000000000000000000000000000000000000000000600052601160045260246000fd5b6000610f9482610cbc565b91507fffffffffffffffffffffffffffffffffffffffffffffffffffffffffffffffff8203610fc657610fc5610f5a565b5b600182019050919050565b7f4552524f5220315f496e73756666696369656e742062616c616e636520746f2060008201527f77697468647261772066756e64732e0000000000000000000000000000000000602082015250565b600061102d602f83610e91565b915061103882610fd1565b604082019050919050565b6000602082019050818103600083015261105c81611020565b9050919050565b600061106e82610cbc565b915061107983610cbc565b92508282101561108c5761108b610f5a565b5b828203905092915050565b60006110a282610cbc565b91506110ad83610cbc565b9250827fffffffffffffffffffffffffffffffffffffffffffffffffffffffffffffffff038211156110e2576110e1610f5a565b5b828201905092915050565b7f41646472657373206973206f776e657220616c72656164792e00000000000000600082015250565b6000611123601983610e91565b915061112e826110ed565b602082019050919050565b6000602082019050818103600083015261115281611116565b9050919050565b61116281610d69565b82525050565b600060208201905061117d6000830184611159565b92915050565b7f4552524f5220315f496e73756666696369656e742062616c616e636520746f2060008201527f7472616e736665722066756e64732e0000000000000000000000000000000000602082015250565b60006111df602f83610e91565b91506111ea82611183565b604082019050919050565b6000602082019050818103600083015261120e816111d2565b9050919050565b7f4552524f5220325f5468652073656e6465722063616e6e6f742062652074686560008201527f20726563697069656e742e000000000000000000000000000000000000000000602082015250565b6000611271602b83610e91565b915061127c82611215565b604082019050919050565b600060208201905081810360008301526112a081611264565b9050919050565b7f4552524f5220335f596f7520617265206e6f7420616e206f776e657220616e6460008201527f206e6f7420616c6c6f77656420746f206d616b65207472616e736665722e0000602082015250565b6000611303603e83610e91565b915061130e826112a7565b604082019050919050565b60006020820190508181036000830152611332816112f6565b9050919050565b7f4e487b7100000000000000000000000000000000000000000000000000000000600052600160045260246000fd5b7f4e6f74206f776e6572206f66206f776e65726c6973742e000000000000000000600082015250565b600061139e601783610e91565b91506113a982611368565b602082019050919050565b600060208201905081810360008301526113cd81611391565b905091905056fea2646970667358221220909ae0488ebcc0b2f53d703889d3bf8155c93df7615b59b45cbdcdfdf03a156f64736f6c634300080d0033",
					"opcodes": "PUSH1 0x80 PUSH1 0x40 MSTORE CALLVALUE DUP1 ISZERO PUSH2 0x10 JUMPI PUSH1 0x0 DUP1 REVERT JUMPDEST POP CALLER PUSH1 0x0 DUP1 PUSH2 0x100 EXP DUP2 SLOAD DUP2 PUSH20 0xFFFFFFFFFFFFFFFFFFFFFFFFFFFFFFFFFFFFFFFF MUL NOT AND SWAP1 DUP4 PUSH20 0xFFFFFFFFFFFFFFFFFFFFFFFFFFFFFFFFFFFFFFFF AND MUL OR SWAP1 SSTORE POP PUSH2 0x140A DUP1 PUSH2 0x60 PUSH1 0x0 CODECOPY PUSH1 0x0 RETURN INVALID PUSH1 0x80 PUSH1 0x40 MSTORE PUSH1 0x4 CALLDATASIZE LT PUSH2 0xA6 JUMPI PUSH1 0x0 CALLDATALOAD PUSH1 0xE0 SHR DUP1 PUSH4 0x5F3B1F3B GT PUSH2 0x64 JUMPI DUP1 PUSH4 0x5F3B1F3B EQ PUSH2 0x1DF JUMPI DUP1 PUSH4 0x8B1E24AB EQ PUSH2 0x208 JUMPI DUP1 PUSH4 0xA9059CBB EQ PUSH2 0x233 JUMPI DUP1 PUSH4 0xB64C14FE EQ PUSH2 0x25C JUMPI DUP1 PUSH4 0xD07B77B5 EQ PUSH2 0x285 JUMPI DUP1 PUSH4 0xD0E30DB0 EQ PUSH2 0x2B0 JUMPI PUSH2 0xA6 JUMP JUMPDEST DUP1 PUSH3 0xF76EB4 EQ PUSH2 0xAB JUMPI DUP1 PUSH4 0x12065FE0 EQ PUSH2 0xE8 JUMPI DUP1 PUSH4 0x222A242E EQ PUSH2 0x113 JUMPI DUP1 PUSH4 0x2E1A7D4D EQ PUSH2 0x13C JUMPI DUP1 PUSH4 0x2F54BF6E EQ PUSH2 0x179 JUMPI DUP1 PUSH4 0x30E0789E EQ PUSH2 0x1B6 JUMPI JUMPDEST PUSH1 0x0 DUP1 REVERT JUMPDEST CALLVALUE DUP1 ISZERO PUSH2 0xB7 JUMPI PUSH1 0x0 DUP1 REVERT JUMPDEST POP PUSH2 0xD2 PUSH1 0x4 DUP1 CALLDATASIZE SUB DUP2 ADD SWAP1 PUSH2 0xCD SWAP2 SWAP1 PUSH2 0xC8F JUMP JUMPDEST PUSH2 0x2CE JUMP JUMPDEST PUSH1 0x40 MLOAD PUSH2 0xDF SWAP2 SWAP1 PUSH2 0xCD5 JUMP JUMPDEST PUSH1 0x40 MLOAD DUP1 SWAP2 SUB SWAP1 RETURN JUMPDEST CALLVALUE DUP1 ISZERO PUSH2 0xF4 JUMPI PUSH1 0x0 DUP1 REVERT JUMPDEST POP PUSH2 0xFD PUSH2 0x351 JUMP JUMPDEST PUSH1 0x40 MLOAD PUSH2 0x10A SWAP2 SWAP1 PUSH2 0xCD5 JUMP JUMPDEST PUSH1 0x40 MLOAD DUP1 SWAP2 SUB SWAP1 RETURN JUMPDEST CALLVALUE DUP1 ISZERO PUSH2 0x11F JUMPI PUSH1 0x0 DUP1 REVERT JUMPDEST POP PUSH2 0x13A PUSH1 0x4 DUP1 CALLDATASIZE SUB DUP2 ADD SWAP1 PUSH2 0x135 SWAP2 SWAP1 PUSH2 0xD1C JUMP JUMPDEST PUSH2 0x398 JUMP JUMPDEST STOP JUMPDEST CALLVALUE DUP1 ISZERO PUSH2 0x148 JUMPI PUSH1 0x0 DUP1 REVERT JUMPDEST POP PUSH2 0x163 PUSH1 0x4 DUP1 CALLDATASIZE SUB DUP2 ADD SWAP1 PUSH2 0x15E SWAP2 SWAP1 PUSH2 0xD1C JUMP JUMPDEST PUSH2 0x3FA JUMP JUMPDEST PUSH1 0x40 MLOAD PUSH2 0x170 SWAP2 SWAP1 PUSH2 0xCD5 JUMP JUMPDEST PUSH1 0x40 MLOAD DUP1 SWAP2 SUB SWAP1 RETURN JUMPDEST CALLVALUE DUP1 ISZERO PUSH2 0x185 JUMPI PUSH1 0x0 DUP1 REVERT JUMPDEST POP PUSH2 0x1A0 PUSH1 0x4 DUP1 CALLDATASIZE SUB DUP2 ADD SWAP1 PUSH2 0x19B SWAP2 SWAP1 PUSH2 0xDA7 JUMP JUMPDEST PUSH2 0x562 JUMP JUMPDEST PUSH1 0x40 MLOAD PUSH2 0x1AD SWAP2 SWAP1 PUSH2 0xDE3 JUMP JUMPDEST PUSH1 0x40 MLOAD DUP1 SWAP2 SUB SWAP1 RETURN JUMPDEST CALLVALUE DUP1 ISZERO PUSH2 0x1C2 JUMPI PUSH1 0x0 DUP1 REVERT JUMPDEST POP PUSH2 0x1DD PUSH1 0x4 DUP1 CALLDATASIZE SUB DUP2 ADD SWAP1 PUSH2 0x1D8 SWAP2 SWAP1 PUSH2 0xDFE JUMP JUMPDEST PUSH2 0x5B8 JUMP JUMPDEST STOP JUMPDEST CALLVALUE DUP1 ISZERO PUSH2 0x1EB JUMPI PUSH1 0x0 DUP1 REVERT JUMPDEST POP PUSH2 0x206 PUSH1 0x4 DUP1 CALLDATASIZE SUB DUP2 ADD SWAP1 PUSH2 0x201 SWAP2 SWAP1 PUSH2 0xDA7 JUMP JUMPDEST PUSH2 0x669 JUMP JUMPDEST STOP JUMPDEST CALLVALUE DUP1 ISZERO PUSH2 0x214 JUMPI PUSH1 0x0 DUP1 REVERT JUMPDEST POP PUSH2 0x21D PUSH2 0x79B JUMP JUMPDEST PUSH1 0x40 MLOAD PUSH2 0x22A SWAP2 SWAP1 PUSH2 0xCD5 JUMP JUMPDEST PUSH1 0x40 MLOAD DUP1 SWAP2 SUB SWAP1 RETURN JUMPDEST CALLVALUE DUP1 ISZERO PUSH2 0x23F JUMPI PUSH1 0x0 DUP1 REVERT JUMPDEST POP PUSH2 0x25A PUSH1 0x4 DUP1 CALLDATASIZE SUB DUP2 ADD SWAP1 PUSH2 0x255 SWAP2 SWAP1 PUSH2 0xE51 JUMP JUMPDEST PUSH2 0x7A5 JUMP JUMPDEST STOP JUMPDEST CALLVALUE DUP1 ISZERO PUSH2 0x268 JUMPI PUSH1 0x0 DUP1 REVERT JUMPDEST POP PUSH2 0x283 PUSH1 0x4 DUP1 CALLDATASIZE SUB DUP2 ADD SWAP1 PUSH2 0x27E SWAP2 SWAP1 PUSH2 0xDA7 JUMP JUMPDEST PUSH2 0xA3E JUMP JUMPDEST STOP JUMPDEST CALLVALUE DUP1 ISZERO PUSH2 0x291 JUMPI PUSH1 0x0 DUP1 REVERT JUMPDEST POP PUSH2 0x29A PUSH2 0xB67 JUMP JUMPDEST PUSH1 0x40 MLOAD PUSH2 0x2A7 SWAP2 SWAP1 PUSH2 0xCD5 JUMP JUMPDEST PUSH1 0x40 MLOAD DUP1 SWAP2 SUB SWAP1 RETURN JUMPDEST PUSH2 0x2B8 PUSH2 0xB71 JUMP JUMPDEST PUSH1 0x40 MLOAD PUSH2 0x2C5 SWAP2 SWAP1 PUSH2 0xCD5 JUMP JUMPDEST PUSH1 0x40 MLOAD DUP1 SWAP2 SUB SWAP1 RETURN JUMPDEST PUSH1 0x0 PUSH2 0x2D9 CALLER PUSH2 0x562 JUMP JUMPDEST PUSH2 0x318 JUMPI PUSH1 0x40 MLOAD PUSH32 0x8C379A000000000000000000000000000000000000000000000000000000000 DUP2 MSTORE PUSH1 0x4 ADD PUSH2 0x30F SWAP1 PUSH2 0xF3A JUMP JUMPDEST PUSH1 0x40 MLOAD DUP1 SWAP2 SUB SWAP1 REVERT JUMPDEST PUSH1 0x1 ISZERO ISZERO DUP3 ISZERO ISZERO SUB PUSH2 0x346 JUMPI PUSH1 0x2 PUSH1 0x0 DUP2 SLOAD DUP1 SWAP3 SWAP2 SWAP1 PUSH2 0x337 SWAP1 PUSH2 0xF89 JUMP JUMPDEST SWAP2 SWAP1 POP SSTORE POP PUSH1 0x2 SLOAD SWAP1 POP PUSH2 0x34C JUMP JUMPDEST PUSH1 0x2 SLOAD SWAP1 POP JUMPDEST SWAP2 SWAP1 POP JUMP JUMPDEST PUSH1 0x0 PUSH1 0x4 PUSH1 0x0 CALLER PUSH20 0xFFFFFFFFFFFFFFFFFFFFFFFFFFFFFFFFFFFFFFFF AND PUSH20 0xFFFFFFFFFFFFFFFFFFFFFFFFFFFFFFFFFFFFFFFF AND DUP2 MSTORE PUSH1 0x20 ADD SWAP1 DUP2 MSTORE PUSH1 0x20 ADD PUSH1 0x0 KECCAK256 SLOAD SWAP1 POP SWAP1 JUMP JUMPDEST PUSH1 0x0 DUP1 SLOAD SWAP1 PUSH2 0x100 EXP SWAP1 DIV PUSH20 0xFFFFFFFFFFFFFFFFFFFFFFFFFFFFFFFFFFFFFFFF AND PUSH20 0xFFFFFFFFFFFFFFFFFFFFFFFFFFFFFFFFFFFFFFFF AND CALLER PUSH20 0xFFFFFFFFFFFFFFFFFFFFFFFFFFFFFFFFFFFFFFFF AND EQ PUSH2 0x3F0 JUMPI PUSH1 0x0 DUP1 REVERT JUMPDEST DUP1 PUSH1 0x3 DUP2 SWAP1 SSTORE POP POP JUMP JUMPDEST PUSH1 0x0 DUP2 PUSH1 0x4 PUSH1 0x0 CALLER PUSH20 0xFFFFFFFFFFFFFFFFFFFFFFFFFFFFFFFFFFFFFFFF AND PUSH20 0xFFFFFFFFFFFFFFFFFFFFFFFFFFFFFFFFFFFFFFFF AND DUP2 MSTORE PUSH1 0x20 ADD SWAP1 DUP2 MSTORE PUSH1 0x20 ADD PUSH1 0x0 KECCAK256 SLOAD LT ISZERO PUSH2 0x47E JUMPI PUSH1 0x40 MLOAD PUSH32 0x8C379A000000000000000000000000000000000000000000000000000000000 DUP2 MSTORE PUSH1 0x4 ADD PUSH2 0x475 SWAP1 PUSH2 0x1043 JUMP JUMPDEST PUSH1 0x40 MLOAD DUP1 SWAP2 SUB SWAP1 REVERT JUMPDEST CALLER PUSH20 0xFFFFFFFFFFFFFFFFFFFFFFFFFFFFFFFFFFFFFFFF AND PUSH2 0x8FC DUP4 SWAP1 DUP2 ISZERO MUL SWAP1 PUSH1 0x40 MLOAD PUSH1 0x0 PUSH1 0x40 MLOAD DUP1 DUP4 SUB DUP2 DUP6 DUP9 DUP9 CALL SWAP4 POP POP POP POP ISZERO DUP1 ISZERO PUSH2 0x4C4 JUMPI RETURNDATASIZE PUSH1 0x0 DUP1 RETURNDATACOPY RETURNDATASIZE PUSH1 0x0 REVERT JUMPDEST POP DUP2 PUSH1 0x4 PUSH1 0x0 CALLER PUSH20 0xFFFFFFFFFFFFFFFFFFFFFFFFFFFFFFFFFFFFFFFF AND PUSH20 0xFFFFFFFFFFFFFFFFFFFFFFFFFFFFFFFFFFFFFFFF AND DUP2 MSTORE PUSH1 0x20 ADD SWAP1 DUP2 MSTORE PUSH1 0x20 ADD PUSH1 0x0 KECCAK256 PUSH1 0x0 DUP3 DUP3 SLOAD PUSH2 0x514 SWAP2 SWAP1 PUSH2 0x1063 JUMP JUMPDEST SWAP3 POP POP DUP2 SWAP1 SSTORE POP PUSH1 0x4 PUSH1 0x0 CALLER PUSH20 0xFFFFFFFFFFFFFFFFFFFFFFFFFFFFFFFFFFFFFFFF AND PUSH20 0xFFFFFFFFFFFFFFFFFFFFFFFFFFFFFFFFFFFFFFFF AND DUP2 MSTORE PUSH1 0x20 ADD SWAP1 DUP2 MSTORE PUSH1 0x20 ADD PUSH1 0x0 KECCAK256 SLOAD SWAP1 POP SWAP2 SWAP1 POP JUMP JUMPDEST PUSH1 0x0 PUSH1 0x1 PUSH1 0x0 DUP4 PUSH20 0xFFFFFFFFFFFFFFFFFFFFFFFFFFFFFFFFFFFFFFFF AND PUSH20 0xFFFFFFFFFFFFFFFFFFFFFFFFFFFFFFFFFFFFFFFF AND DUP2 MSTORE PUSH1 0x20 ADD SWAP1 DUP2 MSTORE PUSH1 0x20 ADD PUSH1 0x0 KECCAK256 PUSH1 0x0 SWAP1 SLOAD SWAP1 PUSH2 0x100 EXP SWAP1 DIV PUSH1 0xFF AND SWAP1 POP SWAP2 SWAP1 POP JUMP JUMPDEST DUP1 PUSH1 0x4 PUSH1 0x0 DUP6 PUSH20 0xFFFFFFFFFFFFFFFFFFFFFFFFFFFFFFFFFFFFFFFF AND PUSH20 0xFFFFFFFFFFFFFFFFFFFFFFFFFFFFFFFFFFFFFFFF AND DUP2 MSTORE PUSH1 0x20 ADD SWAP1 DUP2 MSTORE PUSH1 0x20 ADD PUSH1 0x0 KECCAK256 PUSH1 0x0 DUP3 DUP3 SLOAD PUSH2 0x607 SWAP2 SWAP1 PUSH2 0x1063 JUMP JUMPDEST SWAP3 POP POP DUP2 SWAP1 SSTORE POP DUP1 PUSH1 0x4 PUSH1 0x0 DUP5 PUSH20 0xFFFFFFFFFFFFFFFFFFFFFFFFFFFFFFFFFFFFFFFF AND PUSH20 0xFFFFFFFFFFFFFFFFFFFFFFFFFFFFFFFFFFFFFFFF AND DUP2 MSTORE PUSH1 0x20 ADD SWAP1 DUP2 MSTORE PUSH1 0x20 ADD PUSH1 0x0 KECCAK256 PUSH1 0x0 DUP3 DUP3 SLOAD PUSH2 0x65D SWAP2 SWAP1 PUSH2 0x1097 JUMP JUMPDEST SWAP3 POP POP DUP2 SWAP1 SSTORE POP POP POP POP JUMP JUMPDEST PUSH1 0x0 DUP1 SLOAD SWAP1 PUSH2 0x100 EXP SWAP1 DIV PUSH20 0xFFFFFFFFFFFFFFFFFFFFFFFFFFFFFFFFFFFFFFFF AND PUSH20 0xFFFFFFFFFFFFFFFFFFFFFFFFFFFFFFFFFFFFFFFF AND CALLER PUSH20 0xFFFFFFFFFFFFFFFFFFFFFFFFFFFFFFFFFFFFFFFF AND EQ PUSH2 0x6C1 JUMPI PUSH1 0x0 DUP1 REVERT JUMPDEST PUSH2 0x6CA DUP2 PUSH2 0x562 JUMP JUMPDEST ISZERO PUSH2 0x70A JUMPI PUSH1 0x40 MLOAD PUSH32 0x8C379A000000000000000000000000000000000000000000000000000000000 DUP2 MSTORE PUSH1 0x4 ADD PUSH2 0x701 SWAP1 PUSH2 0x1139 JUMP JUMPDEST PUSH1 0x40 MLOAD DUP1 SWAP2 SUB SWAP1 REVERT JUMPDEST PUSH1 0x1 DUP1 PUSH1 0x0 DUP4 PUSH20 0xFFFFFFFFFFFFFFFFFFFFFFFFFFFFFFFFFFFFFFFF AND PUSH20 0xFFFFFFFFFFFFFFFFFFFFFFFFFFFFFFFFFFFFFFFF AND DUP2 MSTORE PUSH1 0x20 ADD SWAP1 DUP2 MSTORE PUSH1 0x20 ADD PUSH1 0x0 KECCAK256 PUSH1 0x0 PUSH2 0x100 EXP DUP2 SLOAD DUP2 PUSH1 0xFF MUL NOT AND SWAP1 DUP4 ISZERO ISZERO MUL OR SWAP1 SSTORE POP PUSH32 0x994A936646FE87FFE4F1E469D3D6AA417D6B855598397F323DE5B449F765F0C3 DUP2 PUSH1 0x40 MLOAD PUSH2 0x790 SWAP2 SWAP1 PUSH2 0x1168 JUMP JUMPDEST PUSH1 0x40 MLOAD DUP1 SWAP2 SUB SWAP1 LOG1 POP JUMP JUMPDEST PUSH1 0x0 PUSH1 0x3 SLOAD SWAP1 POP SWAP1 JUMP JUMPDEST PUSH1 0x0 DUP1 SLOAD SWAP1 PUSH2 0x100 EXP SWAP1 DIV PUSH20 0xFFFFFFFFFFFFFFFFFFFFFFFFFFFFFFFFFFFFFFFF AND PUSH20 0xFFFFFFFFFFFFFFFFFFFFFFFFFFFFFFFFFFFFFFFF AND CALLER PUSH20 0xFFFFFFFFFFFFFFFFFFFFFFFFFFFFFFFFFFFFFFFF AND EQ PUSH2 0x7FD JUMPI PUSH1 0x0 DUP1 REVERT JUMPDEST DUP1 PUSH1 0x4 PUSH1 0x0 CALLER PUSH20 0xFFFFFFFFFFFFFFFFFFFFFFFFFFFFFFFFFFFFFFFF AND PUSH20 0xFFFFFFFFFFFFFFFFFFFFFFFFFFFFFFFFFFFFFFFF AND DUP2 MSTORE PUSH1 0x20 ADD SWAP1 DUP2 MSTORE PUSH1 0x20 ADD PUSH1 0x0 KECCAK256 SLOAD LT ISZERO PUSH2 0x87F JUMPI PUSH1 0x40 MLOAD PUSH32 0x8C379A000000000000000000000000000000000000000000000000000000000 DUP2 MSTORE PUSH1 0x4 ADD PUSH2 0x876 SWAP1 PUSH2 0x11F5 JUMP JUMPDEST PUSH1 0x40 MLOAD DUP1 SWAP2 SUB SWAP1 REVERT JUMPDEST DUP2 PUSH20 0xFFFFFFFFFFFFFFFFFFFFFFFFFFFFFFFFFFFFFFFF AND CALLER PUSH20 0xFFFFFFFFFFFFFFFFFFFFFFFFFFFFFFFFFFFFFFFF AND SUB PUSH2 0x8ED JUMPI PUSH1 0x40 MLOAD PUSH32 0x8C379A000000000000000000000000000000000000000000000000000000000 DUP2 MSTORE PUSH1 0x4 ADD PUSH2 0x8E4 SWAP1 PUSH2 0x1287 JUMP JUMPDEST PUSH1 0x40 MLOAD DUP1 SWAP2 SUB SWAP1 REVERT JUMPDEST PUSH2 0x8F6 CALLER PUSH2 0x562 JUMP JUMPDEST PUSH2 0x935 JUMPI PUSH1 0x40 MLOAD PUSH32 0x8C379A000000000000000000000000000000000000000000000000000000000 DUP2 MSTORE PUSH1 0x4 ADD PUSH2 0x92C SWAP1 PUSH2 0x1319 JUMP JUMPDEST PUSH1 0x40 MLOAD DUP1 SWAP2 SUB SWAP1 REVERT JUMPDEST PUSH1 0x0 PUSH1 0x4 PUSH1 0x0 CALLER PUSH20 0xFFFFFFFFFFFFFFFFFFFFFFFFFFFFFFFFFFFFFFFF AND PUSH20 0xFFFFFFFFFFFFFFFFFFFFFFFFFFFFFFFFFFFFFFFF AND DUP2 MSTORE PUSH1 0x20 ADD SWAP1 DUP2 MSTORE PUSH1 0x20 ADD PUSH1 0x0 KECCAK256 SLOAD SWAP1 POP PUSH2 0x984 CALLER DUP5 DUP5 PUSH2 0x5B8 JUMP JUMPDEST DUP2 DUP4 PUSH20 0xFFFFFFFFFFFFFFFFFFFFFFFFFFFFFFFFFFFFFFFF AND CALLER PUSH20 0xFFFFFFFFFFFFFFFFFFFFFFFFFFFFFFFFFFFFFFFF AND PUSH32 0x3573881C639E018E0C3BA3A7D19063F6A7A8205D54EB828319A7F98DB00426A0 PUSH1 0x40 MLOAD PUSH1 0x40 MLOAD DUP1 SWAP2 SUB SWAP1 LOG4 DUP2 DUP2 PUSH2 0x9EB SWAP2 SWAP1 PUSH2 0x1063 JUMP JUMPDEST PUSH1 0x4 PUSH1 0x0 CALLER PUSH20 0xFFFFFFFFFFFFFFFFFFFFFFFFFFFFFFFFFFFFFFFF AND PUSH20 0xFFFFFFFFFFFFFFFFFFFFFFFFFFFFFFFFFFFFFFFF AND DUP2 MSTORE PUSH1 0x20 ADD SWAP1 DUP2 MSTORE PUSH1 0x20 ADD PUSH1 0x0 KECCAK256 SLOAD EQ PUSH2 0xA39 JUMPI PUSH2 0xA38 PUSH2 0x1339 JUMP JUMPDEST JUMPDEST POP POP POP JUMP JUMPDEST PUSH1 0x0 DUP1 SLOAD SWAP1 PUSH2 0x100 EXP SWAP1 DIV PUSH20 0xFFFFFFFFFFFFFFFFFFFFFFFFFFFFFFFFFFFFFFFF AND PUSH20 0xFFFFFFFFFFFFFFFFFFFFFFFFFFFFFFFFFFFFFFFF AND CALLER PUSH20 0xFFFFFFFFFFFFFFFFFFFFFFFFFFFFFFFFFFFFFFFF AND EQ PUSH2 0xA96 JUMPI PUSH1 0x0 DUP1 REVERT JUMPDEST PUSH2 0xA9F DUP2 PUSH2 0x562 JUMP JUMPDEST PUSH2 0xADE JUMPI PUSH1 0x40 MLOAD PUSH32 0x8C379A000000000000000000000000000000000000000000000000000000000 DUP2 MSTORE PUSH1 0x4 ADD PUSH2 0xAD5 SWAP1 PUSH2 0x13B4 JUMP JUMPDEST PUSH1 0x40 MLOAD DUP1 SWAP2 SUB SWAP1 REVERT JUMPDEST PUSH1 0x1 PUSH1 0x0 DUP3 PUSH20 0xFFFFFFFFFFFFFFFFFFFFFFFFFFFFFFFFFFFFFFFF AND PUSH20 0xFFFFFFFFFFFFFFFFFFFFFFFFFFFFFFFFFFFFFFFF AND DUP2 MSTORE PUSH1 0x20 ADD SWAP1 DUP2 MSTORE PUSH1 0x20 ADD PUSH1 0x0 KECCAK256 PUSH1 0x0 PUSH2 0x100 EXP DUP2 SLOAD SWAP1 PUSH1 0xFF MUL NOT AND SWAP1 SSTORE PUSH32 0x58619076ADF5BB0943D100EF88D52D7C3FD691B19D3A9071B555B651FBF418DA DUP2 PUSH1 0x40 MLOAD PUSH2 0xB5C SWAP2 SWAP1 PUSH2 0x1168 JUMP JUMPDEST PUSH1 0x40 MLOAD DUP1 SWAP2 SUB SWAP1 LOG1 POP JUMP JUMPDEST PUSH1 0x0 PUSH1 0x2 SLOAD SWAP1 POP SWAP1 JUMP JUMPDEST PUSH1 0x0 CALLVALUE PUSH1 0x4 PUSH1 0x0 CALLER PUSH20 0xFFFFFFFFFFFFFFFFFFFFFFFFFFFFFFFFFFFFFFFF AND PUSH20 0xFFFFFFFFFFFFFFFFFFFFFFFFFFFFFFFFFFFFFFFF AND DUP2 MSTORE PUSH1 0x20 ADD SWAP1 DUP2 MSTORE PUSH1 0x20 ADD PUSH1 0x0 KECCAK256 PUSH1 0x0 DUP3 DUP3 SLOAD PUSH2 0xBC2 SWAP2 SWAP1 PUSH2 0x1097 JUMP JUMPDEST SWAP3 POP POP DUP2 SWAP1 SSTORE POP CALLER PUSH20 0xFFFFFFFFFFFFFFFFFFFFFFFFFFFFFFFFFFFFFFFF AND CALLVALUE PUSH32 0xA23831066066EC8812CC52AFC91A52134A8B50C9209B68C276BE679F4073D95D PUSH1 0x40 MLOAD PUSH1 0x40 MLOAD DUP1 SWAP2 SUB SWAP1 LOG3 PUSH1 0x4 PUSH1 0x0 CALLER PUSH20 0xFFFFFFFFFFFFFFFFFFFFFFFFFFFFFFFFFFFFFFFF AND PUSH20 0xFFFFFFFFFFFFFFFFFFFFFFFFFFFFFFFFFFFFFFFF AND DUP2 MSTORE PUSH1 0x20 ADD SWAP1 DUP2 MSTORE PUSH1 0x20 ADD PUSH1 0x0 KECCAK256 SLOAD SWAP1 POP SWAP1 JUMP JUMPDEST PUSH1 0x0 DUP1 REVERT JUMPDEST PUSH1 0x0 DUP2 ISZERO ISZERO SWAP1 POP SWAP2 SWAP1 POP JUMP JUMPDEST PUSH2 0xC6C DUP2 PUSH2 0xC57 JUMP JUMPDEST DUP2 EQ PUSH2 0xC77 JUMPI PUSH1 0x0 DUP1 REVERT JUMPDEST POP JUMP JUMPDEST PUSH1 0x0 DUP2 CALLDATALOAD SWAP1 POP PUSH2 0xC89 DUP2 PUSH2 0xC63 JUMP JUMPDEST SWAP3 SWAP2 POP POP JUMP JUMPDEST PUSH1 0x0 PUSH1 0x20 DUP3 DUP5 SUB SLT ISZERO PUSH2 0xCA5 JUMPI PUSH2 0xCA4 PUSH2 0xC52 JUMP JUMPDEST JUMPDEST PUSH1 0x0 PUSH2 0xCB3 DUP5 DUP3 DUP6 ADD PUSH2 0xC7A JUMP JUMPDEST SWAP2 POP POP SWAP3 SWAP2 POP POP JUMP JUMPDEST PUSH1 0x0 DUP2 SWAP1 POP SWAP2 SWAP1 POP JUMP JUMPDEST PUSH2 0xCCF DUP2 PUSH2 0xCBC JUMP JUMPDEST DUP3 MSTORE POP POP JUMP JUMPDEST PUSH1 0x0 PUSH1 0x20 DUP3 ADD SWAP1 POP PUSH2 0xCEA PUSH1 0x0 DUP4 ADD DUP5 PUSH2 0xCC6 JUMP JUMPDEST SWAP3 SWAP2 POP POP JUMP JUMPDEST PUSH2 0xCF9 DUP2 PUSH2 0xCBC JUMP JUMPDEST DUP2 EQ PUSH2 0xD04 JUMPI PUSH1 0x0 DUP1 REVERT JUMPDEST POP JUMP JUMPDEST PUSH1 0x0 DUP2 CALLDATALOAD SWAP1 POP PUSH2 0xD16 DUP2 PUSH2 0xCF0 JUMP JUMPDEST SWAP3 SWAP2 POP POP JUMP JUMPDEST PUSH1 0x0 PUSH1 0x20 DUP3 DUP5 SUB SLT ISZERO PUSH2 0xD32 JUMPI PUSH2 0xD31 PUSH2 0xC52 JUMP JUMPDEST JUMPDEST PUSH1 0x0 PUSH2 0xD40 DUP5 DUP3 DUP6 ADD PUSH2 0xD07 JUMP JUMPDEST SWAP2 POP POP SWAP3 SWAP2 POP POP JUMP JUMPDEST PUSH1 0x0 PUSH20 0xFFFFFFFFFFFFFFFFFFFFFFFFFFFFFFFFFFFFFFFF DUP3 AND SWAP1 POP SWAP2 SWAP1 POP JUMP JUMPDEST PUSH1 0x0 PUSH2 0xD74 DUP3 PUSH2 0xD49 JUMP JUMPDEST SWAP1 POP SWAP2 SWAP1 POP JUMP JUMPDEST PUSH2 0xD84 DUP2 PUSH2 0xD69 JUMP JUMPDEST DUP2 EQ PUSH2 0xD8F JUMPI PUSH1 0x0 DUP1 REVERT JUMPDEST POP JUMP JUMPDEST PUSH1 0x0 DUP2 CALLDATALOAD SWAP1 POP PUSH2 0xDA1 DUP2 PUSH2 0xD7B JUMP JUMPDEST SWAP3 SWAP2 POP POP JUMP JUMPDEST PUSH1 0x0 PUSH1 0x20 DUP3 DUP5 SUB SLT ISZERO PUSH2 0xDBD JUMPI PUSH2 0xDBC PUSH2 0xC52 JUMP JUMPDEST JUMPDEST PUSH1 0x0 PUSH2 0xDCB DUP5 DUP3 DUP6 ADD PUSH2 0xD92 JUMP JUMPDEST SWAP2 POP POP SWAP3 SWAP2 POP POP JUMP JUMPDEST PUSH2 0xDDD DUP2 PUSH2 0xC57 JUMP JUMPDEST DUP3 MSTORE POP POP JUMP JUMPDEST PUSH1 0x0 PUSH1 0x20 DUP3 ADD SWAP1 POP PUSH2 0xDF8 PUSH1 0x0 DUP4 ADD DUP5 PUSH2 0xDD4 JUMP JUMPDEST SWAP3 SWAP2 POP POP JUMP JUMPDEST PUSH1 0x0 DUP1 PUSH1 0x0 PUSH1 0x60 DUP5 DUP7 SUB SLT ISZERO PUSH2 0xE17 JUMPI PUSH2 0xE16 PUSH2 0xC52 JUMP JUMPDEST JUMPDEST PUSH1 0x0 PUSH2 0xE25 DUP7 DUP3 DUP8 ADD PUSH2 0xD92 JUMP JUMPDEST SWAP4 POP POP PUSH1 0x20 PUSH2 0xE36 DUP7 DUP3 DUP8 ADD PUSH2 0xD92 JUMP JUMPDEST SWAP3 POP POP PUSH1 0x40 PUSH2 0xE47 DUP7 DUP3 DUP8 ADD PUSH2 0xD07 JUMP JUMPDEST SWAP2 POP POP SWAP3 POP SWAP3 POP SWAP3 JUMP JUMPDEST PUSH1 0x0 DUP1 PUSH1 0x40 DUP4 DUP6 SUB SLT ISZERO PUSH2 0xE68 JUMPI PUSH2 0xE67 PUSH2 0xC52 JUMP JUMPDEST JUMPDEST PUSH1 0x0 PUSH2 0xE76 DUP6 DUP3 DUP7 ADD PUSH2 0xD92 JUMP JUMPDEST SWAP3 POP POP PUSH1 0x20 PUSH2 0xE87 DUP6 DUP3 DUP7 ADD PUSH2 0xD07 JUMP JUMPDEST SWAP2 POP POP SWAP3 POP SWAP3 SWAP1 POP JUMP JUMPDEST PUSH1 0x0 DUP3 DUP3 MSTORE PUSH1 0x20 DUP3 ADD SWAP1 POP SWAP3 SWAP2 POP POP JUMP JUMPDEST PUSH32 0x4552524F5220335F596F7520617265206E6F7420616E206F776E657220616E64 PUSH1 0x0 DUP3 ADD MSTORE PUSH32 0x206E6F7420616C6C6F77656420746F20617070726F76652061207472616E7366 PUSH1 0x20 DUP3 ADD MSTORE PUSH32 0x65722E0000000000000000000000000000000000000000000000000000000000 PUSH1 0x40 DUP3 ADD MSTORE POP JUMP JUMPDEST PUSH1 0x0 PUSH2 0xF24 PUSH1 0x43 DUP4 PUSH2 0xE91 JUMP JUMPDEST SWAP2 POP PUSH2 0xF2F DUP3 PUSH2 0xEA2 JUMP JUMPDEST PUSH1 0x60 DUP3 ADD SWAP1 POP SWAP2 SWAP1 POP JUMP JUMPDEST PUSH1 0x0 PUSH1 0x20 DUP3 ADD SWAP1 POP DUP2 DUP2 SUB PUSH1 0x0 DUP4 ADD MSTORE PUSH2 0xF53 DUP2 PUSH2 0xF17 JUMP JUMPDEST SWAP1 POP SWAP2 SWAP1 POP JUMP JUMPDEST PUSH32 0x4E487B7100000000000000000000000000000000000000000000000000000000 PUSH1 0x0 MSTORE PUSH1 0x11 PUSH1 0x4 MSTORE PUSH1 0x24 PUSH1 0x0 REVERT JUMPDEST PUSH1 0x0 PUSH2 0xF94 DUP3 PUSH2 0xCBC JUMP JUMPDEST SWAP2 POP PUSH32 0xFFFFFFFFFFFFFFFFFFFFFFFFFFFFFFFFFFFFFFFFFFFFFFFFFFFFFFFFFFFFFFFF DUP3 SUB PUSH2 0xFC6 JUMPI PUSH2 0xFC5 PUSH2 0xF5A JUMP JUMPDEST JUMPDEST PUSH1 0x1 DUP3 ADD SWAP1 POP SWAP2 SWAP1 POP JUMP JUMPDEST PUSH32 0x4552524F5220315F496E73756666696369656E742062616C616E636520746F20 PUSH1 0x0 DUP3 ADD MSTORE PUSH32 0x77697468647261772066756E64732E0000000000000000000000000000000000 PUSH1 0x20 DUP3 ADD MSTORE POP JUMP JUMPDEST PUSH1 0x0 PUSH2 0x102D PUSH1 0x2F DUP4 PUSH2 0xE91 JUMP JUMPDEST SWAP2 POP PUSH2 0x1038 DUP3 PUSH2 0xFD1 JUMP JUMPDEST PUSH1 0x40 DUP3 ADD SWAP1 POP SWAP2 SWAP1 POP JUMP JUMPDEST PUSH1 0x0 PUSH1 0x20 DUP3 ADD SWAP1 POP DUP2 DUP2 SUB PUSH1 0x0 DUP4 ADD MSTORE PUSH2 0x105C DUP2 PUSH2 0x1020 JUMP JUMPDEST SWAP1 POP SWAP2 SWAP1 POP JUMP JUMPDEST PUSH1 0x0 PUSH2 0x106E DUP3 PUSH2 0xCBC JUMP JUMPDEST SWAP2 POP PUSH2 0x1079 DUP4 PUSH2 0xCBC JUMP JUMPDEST SWAP3 POP DUP3 DUP3 LT ISZERO PUSH2 0x108C JUMPI PUSH2 0x108B PUSH2 0xF5A JUMP JUMPDEST JUMPDEST DUP3 DUP3 SUB SWAP1 POP SWAP3 SWAP2 POP POP JUMP JUMPDEST PUSH1 0x0 PUSH2 0x10A2 DUP3 PUSH2 0xCBC JUMP JUMPDEST SWAP2 POP PUSH2 0x10AD DUP4 PUSH2 0xCBC JUMP JUMPDEST SWAP3 POP DUP3 PUSH32 0xFFFFFFFFFFFFFFFFFFFFFFFFFFFFFFFFFFFFFFFFFFFFFFFFFFFFFFFFFFFFFFFF SUB DUP3 GT ISZERO PUSH2 0x10E2 JUMPI PUSH2 0x10E1 PUSH2 0xF5A JUMP JUMPDEST JUMPDEST DUP3 DUP3 ADD SWAP1 POP SWAP3 SWAP2 POP POP JUMP JUMPDEST PUSH32 0x41646472657373206973206F776E657220616C72656164792E00000000000000 PUSH1 0x0 DUP3 ADD MSTORE POP JUMP JUMPDEST PUSH1 0x0 PUSH2 0x1123 PUSH1 0x19 DUP4 PUSH2 0xE91 JUMP JUMPDEST SWAP2 POP PUSH2 0x112E DUP3 PUSH2 0x10ED JUMP JUMPDEST PUSH1 0x20 DUP3 ADD SWAP1 POP SWAP2 SWAP1 POP JUMP JUMPDEST PUSH1 0x0 PUSH1 0x20 DUP3 ADD SWAP1 POP DUP2 DUP2 SUB PUSH1 0x0 DUP4 ADD MSTORE PUSH2 0x1152 DUP2 PUSH2 0x1116 JUMP JUMPDEST SWAP1 POP SWAP2 SWAP1 POP JUMP JUMPDEST PUSH2 0x1162 DUP2 PUSH2 0xD69 JUMP JUMPDEST DUP3 MSTORE POP POP JUMP JUMPDEST PUSH1 0x0 PUSH1 0x20 DUP3 ADD SWAP1 POP PUSH2 0x117D PUSH1 0x0 DUP4 ADD DUP5 PUSH2 0x1159 JUMP JUMPDEST SWAP3 SWAP2 POP POP JUMP JUMPDEST PUSH32 0x4552524F5220315F496E73756666696369656E742062616C616E636520746F20 PUSH1 0x0 DUP3 ADD MSTORE PUSH32 0x7472616E736665722066756E64732E0000000000000000000000000000000000 PUSH1 0x20 DUP3 ADD MSTORE POP JUMP JUMPDEST PUSH1 0x0 PUSH2 0x11DF PUSH1 0x2F DUP4 PUSH2 0xE91 JUMP JUMPDEST SWAP2 POP PUSH2 0x11EA DUP3 PUSH2 0x1183 JUMP JUMPDEST PUSH1 0x40 DUP3 ADD SWAP1 POP SWAP2 SWAP1 POP JUMP JUMPDEST PUSH1 0x0 PUSH1 0x20 DUP3 ADD SWAP1 POP DUP2 DUP2 SUB PUSH1 0x0 DUP4 ADD MSTORE PUSH2 0x120E DUP2 PUSH2 0x11D2 JUMP JUMPDEST SWAP1 POP SWAP2 SWAP1 POP JUMP JUMPDEST PUSH32 0x4552524F5220325F5468652073656E6465722063616E6E6F7420626520746865 PUSH1 0x0 DUP3 ADD MSTORE PUSH32 0x20726563697069656E742E000000000000000000000000000000000000000000 PUSH1 0x20 DUP3 ADD MSTORE POP JUMP JUMPDEST PUSH1 0x0 PUSH2 0x1271 PUSH1 0x2B DUP4 PUSH2 0xE91 JUMP JUMPDEST SWAP2 POP PUSH2 0x127C DUP3 PUSH2 0x1215 JUMP JUMPDEST PUSH1 0x40 DUP3 ADD SWAP1 POP SWAP2 SWAP1 POP JUMP JUMPDEST PUSH1 0x0 PUSH1 0x20 DUP3 ADD SWAP1 POP DUP2 DUP2 SUB PUSH1 0x0 DUP4 ADD MSTORE PUSH2 0x12A0 DUP2 PUSH2 0x1264 JUMP JUMPDEST SWAP1 POP SWAP2 SWAP1 POP JUMP JUMPDEST PUSH32 0x4552524F5220335F596F7520617265206E6F7420616E206F776E657220616E64 PUSH1 0x0 DUP3 ADD MSTORE PUSH32 0x206E6F7420616C6C6F77656420746F206D616B65207472616E736665722E0000 PUSH1 0x20 DUP3 ADD MSTORE POP JUMP JUMPDEST PUSH1 0x0 PUSH2 0x1303 PUSH1 0x3E DUP4 PUSH2 0xE91 JUMP JUMPDEST SWAP2 POP PUSH2 0x130E DUP3 PUSH2 0x12A7 JUMP JUMPDEST PUSH1 0x40 DUP3 ADD SWAP1 POP SWAP2 SWAP1 POP JUMP JUMPDEST PUSH1 0x0 PUSH1 0x20 DUP3 ADD SWAP1 POP DUP2 DUP2 SUB PUSH1 0x0 DUP4 ADD MSTORE PUSH2 0x1332 DUP2 PUSH2 0x12F6 JUMP JUMPDEST SWAP1 POP SWAP2 SWAP1 POP JUMP JUMPDEST PUSH32 0x4E487B7100000000000000000000000000000000000000000000000000000000 PUSH1 0x0 MSTORE PUSH1 0x1 PUSH1 0x4 MSTORE PUSH1 0x24 PUSH1 0x0 REVERT JUMPDEST PUSH32 0x4E6F74206F776E6572206F66206F776E65726C6973742E000000000000000000 PUSH1 0x0 DUP3 ADD MSTORE POP JUMP JUMPDEST PUSH1 0x0 PUSH2 0x139E PUSH1 0x17 DUP4 PUSH2 0xE91 JUMP JUMPDEST SWAP2 POP PUSH2 0x13A9 DUP3 PUSH2 0x1368 JUMP JUMPDEST PUSH1 0x20 DUP3 ADD SWAP1 POP SWAP2 SWAP1 POP JUMP JUMPDEST PUSH1 0x0 PUSH1 0x20 DUP3 ADD SWAP1 POP DUP2 DUP2 SUB PUSH1 0x0 DUP4 ADD MSTORE PUSH2 0x13CD DUP2 PUSH2 0x1391 JUMP JUMPDEST SWAP1 POP SWAP2 SWAP1 POP JUMP INVALID LOG2 PUSH5 0x6970667358 0x22 SLT KECCAK256 SWAP1 SWAP11 0xE0 BASEFEE DUP15 0xBC 0xC0 0xB2 CREATE2 RETURNDATASIZE PUSH17 0x3889D3BF8155C93DF7615B59B45CBDCDFD CREATE GASPRICE ISZERO PUSH16 0x64736F6C634300080D00330000000000 "
				},
				"gasEstimates": {
					"creation": {
						"codeDepositCost": "1026000",
						"executionCost": "25333",
						"totalCost": "1051333"
					},
					"external": {
						"_transfer(address,address,uint256)": "infinite",
						"addOwners(address)": "infinite",
						"approveIt(bool)": "infinite",
						"deposit()": "infinite",
						"getApproved()": "2525",
						"getBalance()": "2549",
						"getRequiredApprovals()": "2459",
						"isOwner(address)": "2972",
						"removeOwners(address)": "infinite",
						"setRequiredApprovals(uint256)": "24732",
						"transfer(address,uint256)": "infinite",
						"withdraw(uint256)": "infinite"
					}
				},
				"methodIdentifiers": {
					"_transfer(address,address,uint256)": "30e0789e",
					"addOwners(address)": "5f3b1f3b",
					"approveIt(bool)": "00f76eb4",
					"deposit()": "d0e30db0",
					"getApproved()": "d07b77b5",
					"getBalance()": "12065fe0",
					"getRequiredApprovals()": "8b1e24ab",
					"isOwner(address)": "2f54bf6e",
					"removeOwners(address)": "b64c14fe",
					"setRequiredApprovals(uint256)": "222a242e",
					"transfer(address,uint256)": "a9059cbb",
					"withdraw(uint256)": "2e1a7d4d"
				}
			},
			"storageLayout": {
				"storage": [
					{
						"astId": 270,
						"contract": "contracts/Bank_MultiSIG.sol:Multisig_Wallet",
						"label": "owner",
						"offset": 0,
						"slot": "0",
						"type": "t_address"
					},
					{
						"astId": 308,
						"contract": "contracts/Bank_MultiSIG.sol:Multisig_Wallet",
						"label": "owners",
						"offset": 0,
						"slot": "1",
						"type": "t_mapping(t_address,t_bool)"
					},
					{
						"astId": 10,
						"contract": "contracts/Bank_MultiSIG.sol:Multisig_Wallet",
						"label": "approvals",
						"offset": 0,
						"slot": "2",
						"type": "t_uint256"
					},
					{
						"astId": 12,
						"contract": "contracts/Bank_MultiSIG.sol:Multisig_Wallet",
						"label": "RequiredApprovals",
						"offset": 0,
						"slot": "3",
						"type": "t_uint256"
					},
					{
						"astId": 17,
						"contract": "contracts/Bank_MultiSIG.sol:Multisig_Wallet",
						"label": "balance",
						"offset": 0,
						"slot": "4",
						"type": "t_mapping(t_address,t_uint256)"
					}
				],
				"types": {
					"t_address": {
						"encoding": "inplace",
						"label": "address",
						"numberOfBytes": "20"
					},
					"t_bool": {
						"encoding": "inplace",
						"label": "bool",
						"numberOfBytes": "1"
					},
					"t_mapping(t_address,t_bool)": {
						"encoding": "mapping",
						"key": "t_address",
						"label": "mapping(address => bool)",
						"numberOfBytes": "32",
						"value": "t_bool"
					},
					"t_mapping(t_address,t_uint256)": {
						"encoding": "mapping",
						"key": "t_address",
						"label": "mapping(address => uint256)",
						"numberOfBytes": "32",
						"value": "t_uint256"
					},
					"t_uint256": {
						"encoding": "inplace",
						"label": "uint256",
						"numberOfBytes": "32"
					}
				}
			},
			"userdoc": {
				"kind": "user",
				"methods": {},
				"version": 1
			}
		}
	}
}