{
	"contracts/Bank_MultiSIG.sol": {
		"Multisig_Wallet": {
			"abi": [
				{
					"anonymous": false,
					"inputs": [
						{
							"indexed": false,
							"internalType": "address",
							"name": "owner",
							"type": "address"
						}
					],
					"name": "OwnerAdded",
					"type": "event"
				},
				{
					"anonymous": false,
					"inputs": [
						{
							"indexed": false,
							"internalType": "address",
							"name": "owner",
							"type": "address"
						}
					],
					"name": "OwnerRemoved",
					"type": "event"
				},
				{
					"anonymous": false,
					"inputs": [
						{
							"indexed": true,
							"internalType": "uint256",
							"name": "amount",
							"type": "uint256"
						},
						{
							"indexed": true,
							"internalType": "address",
							"name": "depositedTo",
							"type": "address"
						}
					],
					"name": "deposited",
					"type": "event"
				},
				{
					"anonymous": false,
					"inputs": [
						{
							"indexed": true,
							"internalType": "address",
							"name": "from",
							"type": "address"
						},
						{
							"indexed": true,
							"internalType": "address",
							"name": "to",
							"type": "address"
						},
						{
							"indexed": true,
							"internalType": "uint256",
							"name": "amount",
							"type": "uint256"
						}
					],
					"name": "transferedAmount",
					"type": "event"
				},
				{
					"inputs": [
						{
							"internalType": "address",
							"name": "_owner",
							"type": "address"
						}
					],
					"name": "addOwners",
					"outputs": [],
					"stateMutability": "nonpayable",
					"type": "function"
				},
				{
					"inputs": [
						{
							"internalType": "bool",
							"name": "_decision",
							"type": "bool"
						}
					],
					"name": "approveIt",
					"outputs": [
						{
							"internalType": "uint256",
							"name": "",
							"type": "uint256"
						}
					],
					"stateMutability": "nonpayable",
					"type": "function"
				},
				{
					"inputs": [],
					"name": "deposit",
					"outputs": [
						{
							"internalType": "uint256",
							"name": "",
							"type": "uint256"
						}
					],
					"stateMutability": "payable",
					"type": "function"
				},
				{
					"inputs": [],
					"name": "getApproved",
					"outputs": [
						{
							"internalType": "uint256",
							"name": "",
							"type": "uint256"
						}
					],
					"stateMutability": "view",
					"type": "function"
				},
				{
					"inputs": [],
					"name": "getBalance",
					"outputs": [
						{
							"internalType": "uint256",
							"name": "",
							"type": "uint256"
						}
					],
					"stateMutability": "view",
					"type": "function"
				},
				{
					"inputs": [],
					"name": "getRequiredApprovals",
					"outputs": [
						{
							"internalType": "uint256",
							"name": "",
							"type": "uint256"
						}
					],
					"stateMutability": "view",
					"type": "function"
				},
				{
					"inputs": [
						{
							"internalType": "address",
							"name": "_owner",
							"type": "address"
						}
					],
					"name": "isOwner",
					"outputs": [
						{
							"internalType": "bool",
							"name": "",
							"type": "bool"
						}
					],
					"stateMutability": "view",
					"type": "function"
				},
				{
					"inputs": [
						{
							"internalType": "address",
							"name": "_owner",
							"type": "address"
						}
					],
					"name": "removeOwners",
					"outputs": [],
					"stateMutability": "nonpayable",
					"type": "function"
				},
				{
					"inputs": [
						{
							"internalType": "uint256",
							"name": "_number",
							"type": "uint256"
						}
					],
					"name": "setRequiredApprovals",
					"outputs": [],
					"stateMutability": "nonpayable",
					"type": "function"
				},
				{
					"inputs": [
						{
							"internalType": "address",
							"name": "recipient",
							"type": "address"
						},
						{
							"internalType": "uint256",
							"name": "amount",
							"type": "uint256"
						}
					],
					"name": "transfer",
					"outputs": [],
					"stateMutability": "nonpayable",
					"type": "function"
				},
				{
					"inputs": [
						{
							"internalType": "uint256",
							"name": "amount",
							"type": "uint256"
						}
					],
					"name": "withdraw",
					"outputs": [
						{
							"internalType": "uint256",
							"name": "",
							"type": "uint256"
						}
					],
					"stateMutability": "nonpayable",
					"type": "function"
				}
			],
			"devdoc": {
				"author": "Superior Blocks",
				"details": "Multisig Wallet Smart Contract where multiple “signatures” or approvals  are needed for an outgoing transfer to take place. The wallet requires at  least 2 to sign any transfer before it is valid. Anyone can deposit funds into  this wallet. But as soon as we want to spend funds, it requires 2/3 approvals",
				"kind": "dev",
				"methods": {
					"addOwners(address)": {
						"details": "A method to add an address to the Ownerlist",
						"params": {
							"_owner": "The address to add as a owner."
						}
					},
					"approveIt(bool)": {
						"details": "A method to approve a transfer by an owner.",
						"returns": {
							"_0": "the current number of approvals."
						}
					},
					"deposit()": {
						"details": "A method to make a deposit.",
						"returns": {
							"_0": "balance of the sender/owner."
						}
					},
					"getApproved()": {
						"details": "A method that gets the current number of approved transfers.",
						"returns": {
							"_0": "approvals Current number of approved transfers."
						}
					},
					"getBalance()": {
						"details": "A method to get the sender's/owner's balance.",
						"returns": {
							"_0": "balance of the sender/owner."
						}
					},
					"getRequiredApprovals()": {
						"details": "A method that gets the required number of approvals.",
						"returns": {
							"_0": "RequiredApprovals Number of approvals required."
						}
					},
					"isOwner(address)": {
						"details": "A method to verify whether an address is a owner on the Ownerlist",
						"params": {
							"_owner": "The address to verify."
						},
						"returns": {
							"_0": "Whether the address is in the Ownerlist."
						}
					},
					"removeOwners(address)": {
						"details": "A method to remove a owner from the Ownerlist",
						"params": {
							"_owner": "The address to remove as a owner."
						}
					},
					"setRequiredApprovals(uint256)": {
						"details": "A method that sets the required number of approvals setter function.",
						"params": {
							"_number": "The number of approvals required."
						}
					},
					"transfer(address,uint256)": {
						"details": "A method to make a transfer.  The sender must be the owner, have sufficient balance, and cannot be the recipient.  The method calls _transfer",
						"params": {
							"recipient": "The address of the recipient.  amount The amount to be  transferred from owner and sent to recipient."
						}
					},
					"withdraw(uint256)": {
						"details": "A method to make a withdrawal only if there is sufficient balance.",
						"params": {
							"amount": "The amount to withdraw."
						},
						"returns": {
							"_0": "balance of the sender/owner."
						}
					}
				},
				"title": "Multisig Wallet",
				"version": 1
			},
			"evm": {
				"assembly": "    /* \"contracts/Bank_MultiSIG.sol\":579:5112  contract Multisig_Wallet is Ownable, Ownerlist {... */\n  mstore(0x40, 0x80)\n  callvalue\n  dup1\n  iszero\n  tag_1\n  jumpi\n  0x00\n  dup1\n  revert\ntag_1:\n  pop\n    /* \"contracts/Ownable.sol\":448:458  msg.sender */\n  caller\n    /* \"contracts/Ownable.sol\":440:445  owner */\n  0x00\n  dup1\n    /* \"contracts/Ownable.sol\":440:458  owner = msg.sender */\n  0x0100\n  exp\n  dup2\n  sload\n  dup2\n  0xffffffffffffffffffffffffffffffffffffffff\n  mul\n  not\n  and\n  swap1\n  dup4\n  0xffffffffffffffffffffffffffffffffffffffff\n  and\n  mul\n  or\n  swap1\n  sstore\n  pop\n    /* \"contracts/Bank_MultiSIG.sol\":579:5112  contract Multisig_Wallet is Ownable, Ownerlist {... */\n  dataSize(sub_0)\n  dup1\n  dataOffset(sub_0)\n  0x00\n  codecopy\n  0x00\n  return\nstop\n\nsub_0: assembly {\n        /* \"contracts/Bank_MultiSIG.sol\":579:5112  contract Multisig_Wallet is Ownable, Ownerlist {... */\n      mstore(0x40, 0x80)\n      jumpi(tag_1, lt(calldatasize, 0x04))\n      shr(0xe0, calldataload(0x00))\n      dup1\n      0x5f3b1f3b\n      gt\n      tag_13\n      jumpi\n      dup1\n      0x5f3b1f3b\n      eq\n      tag_7\n      jumpi\n      dup1\n      0x8b1e24ab\n      eq\n      tag_8\n      jumpi\n      dup1\n      0xa9059cbb\n      eq\n      tag_9\n      jumpi\n      dup1\n      0xb64c14fe\n      eq\n      tag_10\n      jumpi\n      dup1\n      0xd07b77b5\n      eq\n      tag_11\n      jumpi\n      dup1\n      0xd0e30db0\n      eq\n      tag_12\n      jumpi\n      jump(tag_1)\n    tag_13:\n      dup1\n      0xf76eb4\n      eq\n      tag_2\n      jumpi\n      dup1\n      0x12065fe0\n      eq\n      tag_3\n      jumpi\n      dup1\n      0x222a242e\n      eq\n      tag_4\n      jumpi\n      dup1\n      0x2e1a7d4d\n      eq\n      tag_5\n      jumpi\n      dup1\n      0x2f54bf6e\n      eq\n      tag_6\n      jumpi\n    tag_1:\n      0x00\n      dup1\n      revert\n        /* \"contracts/Bank_MultiSIG.sol\":4487:4862  function approveIt(bool _decision) public returns(uint){  ... */\n    tag_2:\n      callvalue\n      dup1\n      iszero\n      tag_14\n      jumpi\n      0x00\n      dup1\n      revert\n    tag_14:\n      pop\n      tag_15\n      0x04\n      dup1\n      calldatasize\n      sub\n      dup2\n      add\n      swap1\n      tag_16\n      swap2\n      swap1\n      tag_17\n      jump\t// in\n    tag_16:\n      tag_18\n      jump\t// in\n    tag_15:\n      mload(0x40)\n      tag_19\n      swap2\n      swap1\n      tag_20\n      jump\t// in\n    tag_19:\n      mload(0x40)\n      dup1\n      swap2\n      sub\n      swap1\n      return\n        /* \"contracts/Bank_MultiSIG.sol\":2449:2542  function getBalance() public view returns (uint){... */\n    tag_3:\n      callvalue\n      dup1\n      iszero\n      tag_21\n      jumpi\n      0x00\n      dup1\n      revert\n    tag_21:\n      pop\n      tag_22\n      tag_23\n      jump\t// in\n    tag_22:\n      mload(0x40)\n      tag_24\n      swap2\n      swap1\n      tag_20\n      jump\t// in\n    tag_24:\n      mload(0x40)\n      dup1\n      swap2\n      sub\n      swap1\n      return\n        /* \"contracts/Bank_MultiSIG.sol\":1211:1638  function setRequiredApprovals(uint _number) public onlyOwner {  //not view or pure because we are changing the state of \"RequiredApprovals\"... */\n    tag_4:\n      callvalue\n      dup1\n      iszero\n      tag_25\n      jumpi\n      0x00\n      dup1\n      revert\n    tag_25:\n      pop\n      tag_26\n      0x04\n      dup1\n      calldatasize\n      sub\n      dup2\n      add\n      swap1\n      tag_27\n      swap2\n      swap1\n      tag_28\n      jump\t// in\n    tag_27:\n      tag_29\n      jump\t// in\n    tag_26:\n      stop\n        /* \"contracts/Bank_MultiSIG.sol\":2739:3021  function withdraw(uint amount) public returns (uint){... */\n    tag_5:\n      callvalue\n      dup1\n      iszero\n      tag_30\n      jumpi\n      0x00\n      dup1\n      revert\n    tag_30:\n      pop\n      tag_31\n      0x04\n      dup1\n      calldatasize\n      sub\n      dup2\n      add\n      swap1\n      tag_32\n      swap2\n      swap1\n      tag_28\n      jump\t// in\n    tag_32:\n      tag_33\n      jump\t// in\n    tag_31:\n      mload(0x40)\n      tag_34\n      swap2\n      swap1\n      tag_20\n      jump\t// in\n    tag_34:\n      mload(0x40)\n      dup1\n      swap2\n      sub\n      swap1\n      return\n        /* \"contracts/Ownerlist.sol\":802:906  function isOwner(address _owner) public view returns(bool)... */\n    tag_6:\n      callvalue\n      dup1\n      iszero\n      tag_35\n      jumpi\n      0x00\n      dup1\n      revert\n    tag_35:\n      pop\n      tag_36\n      0x04\n      dup1\n      calldatasize\n      sub\n      dup2\n      add\n      swap1\n      tag_37\n      swap2\n      swap1\n      tag_38\n      jump\t// in\n    tag_37:\n      tag_39\n      jump\t// in\n    tag_36:\n      mload(0x40)\n      tag_40\n      swap2\n      swap1\n      tag_41\n      jump\t// in\n    tag_40:\n      mload(0x40)\n      dup1\n      swap2\n      sub\n      swap1\n      return\n        /* \"contracts/Ownerlist.sol\":1042:1278  function addOwners(address _owner) public onlyOwner ... */\n    tag_7:\n      callvalue\n      dup1\n      iszero\n      tag_42\n      jumpi\n      0x00\n      dup1\n      revert\n    tag_42:\n      pop\n      tag_43\n      0x04\n      dup1\n      calldatasize\n      sub\n      dup2\n      add\n      swap1\n      tag_44\n      swap2\n      swap1\n      tag_38\n      jump\t// in\n    tag_44:\n      tag_45\n      jump\t// in\n    tag_43:\n      stop\n        /* \"contracts/Bank_MultiSIG.sol\":1794:1894  function getRequiredApprovals() public view returns(uint){... */\n    tag_8:\n      callvalue\n      dup1\n      iszero\n      tag_46\n      jumpi\n      0x00\n      dup1\n      revert\n    tag_46:\n      pop\n      tag_47\n      tag_48\n      jump\t// in\n    tag_47:\n      mload(0x40)\n      tag_49\n      swap2\n      swap1\n      tag_20\n      jump\t// in\n    tag_49:\n      mload(0x40)\n      dup1\n      swap2\n      sub\n      swap1\n      return\n        /* \"contracts/Bank_MultiSIG.sol\":3345:4024  function transfer(address recipient, uint amount) onlyOwner public {... */\n    tag_9:\n      callvalue\n      dup1\n      iszero\n      tag_50\n      jumpi\n      0x00\n      dup1\n      revert\n    tag_50:\n      pop\n      tag_51\n      0x04\n      dup1\n      calldatasize\n      sub\n      dup2\n      add\n      swap1\n      tag_52\n      swap2\n      swap1\n      tag_53\n      jump\t// in\n    tag_52:\n      tag_54\n      jump\t// in\n    tag_51:\n      stop\n        /* \"contracts/Ownerlist.sol\":1419:1656  function removeOwners(address _owner) public onlyOwner... */\n    tag_10:\n      callvalue\n      dup1\n      iszero\n      tag_55\n      jumpi\n      0x00\n      dup1\n      revert\n    tag_55:\n      pop\n      tag_56\n      0x04\n      dup1\n      calldatasize\n      sub\n      dup2\n      add\n      swap1\n      tag_57\n      swap2\n      swap1\n      tag_38\n      jump\t// in\n    tag_57:\n      tag_58\n      jump\t// in\n    tag_56:\n      stop\n        /* \"contracts/Bank_MultiSIG.sol\":5026:5109  function getApproved() public view returns(uint){... */\n    tag_11:\n      callvalue\n      dup1\n      iszero\n      tag_59\n      jumpi\n      0x00\n      dup1\n      revert\n    tag_59:\n      pop\n      tag_60\n      tag_61\n      jump\t// in\n    tag_60:\n      mload(0x40)\n      tag_62\n      swap2\n      swap1\n      tag_20\n      jump\t// in\n    tag_62:\n      mload(0x40)\n      dup1\n      swap2\n      sub\n      swap1\n      return\n        /* \"contracts/Bank_MultiSIG.sol\":2006:2319  function deposit() public payable returns (uint) { ... */\n    tag_12:\n      tag_63\n      tag_64\n      jump\t// in\n    tag_63:\n      mload(0x40)\n      tag_65\n      swap2\n      swap1\n      tag_20\n      jump\t// in\n    tag_65:\n      mload(0x40)\n      dup1\n      swap2\n      sub\n      swap1\n      return\n        /* \"contracts/Bank_MultiSIG.sol\":4487:4862  function approveIt(bool _decision) public returns(uint){  ... */\n    tag_18:\n        /* \"contracts/Bank_MultiSIG.sol\":4537:4541  uint */\n      0x00\n        /* \"contracts/Bank_MultiSIG.sol\":4563:4582  isOwner(msg.sender) */\n      tag_67\n        /* \"contracts/Bank_MultiSIG.sol\":4571:4581  msg.sender */\n      caller\n        /* \"contracts/Bank_MultiSIG.sol\":4563:4570  isOwner */\n      tag_39\n        /* \"contracts/Bank_MultiSIG.sol\":4563:4582  isOwner(msg.sender) */\n      jump\t// in\n    tag_67:\n        /* \"contracts/Bank_MultiSIG.sol\":4555:4653  require(isOwner(msg.sender), \"ERROR 3_You are not an owner and not allowed to approved transfer.\") */\n      tag_68\n      jumpi\n      mload(0x40)\n      0x08c379a000000000000000000000000000000000000000000000000000000000\n      dup2\n      mstore\n      0x04\n      add\n      tag_69\n      swap1\n      tag_70\n      jump\t// in\n    tag_69:\n      mload(0x40)\n      dup1\n      swap2\n      sub\n      swap1\n      revert\n    tag_68:\n        /* \"contracts/Bank_MultiSIG.sol\":4693:4697  true */\n      0x01\n        /* \"contracts/Bank_MultiSIG.sol\":4680:4697  _decision == true */\n      iszero\n      iszero\n        /* \"contracts/Bank_MultiSIG.sol\":4680:4689  _decision */\n      dup3\n        /* \"contracts/Bank_MultiSIG.sol\":4680:4697  _decision == true */\n      iszero\n      iszero\n      sub\n        /* \"contracts/Bank_MultiSIG.sol\":4677:4855  if(_decision == true){... */\n      tag_71\n      jumpi\n        /* \"contracts/Bank_MultiSIG.sol\":4713:4722  approvals */\n      0x02\n      0x00\n        /* \"contracts/Bank_MultiSIG.sol\":4713:4724  approvals++ */\n      dup2\n      sload\n      dup1\n      swap3\n      swap2\n      swap1\n      tag_72\n      swap1\n      tag_73\n      jump\t// in\n    tag_72:\n      swap2\n      swap1\n      pop\n      sstore\n      pop\n        /* \"contracts/Bank_MultiSIG.sol\":4747:4756  approvals */\n      sload(0x02)\n        /* \"contracts/Bank_MultiSIG.sol\":4739:4757  return (approvals) */\n      swap1\n      pop\n      jump(tag_66)\n        /* \"contracts/Bank_MultiSIG.sol\":4677:4855  if(_decision == true){... */\n    tag_71:\n        /* \"contracts/Bank_MultiSIG.sol\":4833:4842  approvals */\n      sload(0x02)\n        /* \"contracts/Bank_MultiSIG.sol\":4825:4843  return (approvals) */\n      swap1\n      pop\n        /* \"contracts/Bank_MultiSIG.sol\":4487:4862  function approveIt(bool _decision) public returns(uint){  ... */\n    tag_66:\n      swap2\n      swap1\n      pop\n      jump\t// out\n        /* \"contracts/Bank_MultiSIG.sol\":2449:2542  function getBalance() public view returns (uint){... */\n    tag_23:\n        /* \"contracts/Bank_MultiSIG.sol\":2492:2496  uint */\n      0x00\n        /* \"contracts/Bank_MultiSIG.sol\":2515:2522  balance */\n      0x04\n        /* \"contracts/Bank_MultiSIG.sol\":2515:2534  balance[msg.sender] */\n      0x00\n        /* \"contracts/Bank_MultiSIG.sol\":2523:2533  msg.sender */\n      caller\n        /* \"contracts/Bank_MultiSIG.sol\":2515:2534  balance[msg.sender] */\n      0xffffffffffffffffffffffffffffffffffffffff\n      and\n      0xffffffffffffffffffffffffffffffffffffffff\n      and\n      dup2\n      mstore\n      0x20\n      add\n      swap1\n      dup2\n      mstore\n      0x20\n      add\n      0x00\n      keccak256\n      sload\n        /* \"contracts/Bank_MultiSIG.sol\":2508:2534  return balance[msg.sender] */\n      swap1\n      pop\n        /* \"contracts/Bank_MultiSIG.sol\":2449:2542  function getBalance() public view returns (uint){... */\n      swap1\n      jump\t// out\n        /* \"contracts/Bank_MultiSIG.sol\":1211:1638  function setRequiredApprovals(uint _number) public onlyOwner {  //not view or pure because we are changing the state of \"RequiredApprovals\"... */\n    tag_29:\n        /* \"contracts/Ownable.sol\":342:347  owner */\n      0x00\n      dup1\n      sload\n      swap1\n      0x0100\n      exp\n      swap1\n      div\n      0xffffffffffffffffffffffffffffffffffffffff\n      and\n        /* \"contracts/Ownable.sol\":328:347  msg.sender == owner */\n      0xffffffffffffffffffffffffffffffffffffffff\n      and\n        /* \"contracts/Ownable.sol\":328:338  msg.sender */\n      caller\n        /* \"contracts/Ownable.sol\":328:347  msg.sender == owner */\n      0xffffffffffffffffffffffffffffffffffffffff\n      and\n      eq\n        /* \"contracts/Ownable.sol\":320:348  require(msg.sender == owner) */\n      tag_77\n      jumpi\n      0x00\n      dup1\n      revert\n    tag_77:\n        /* \"contracts/Bank_MultiSIG.sol\":1623:1630  _number */\n      dup1\n        /* \"contracts/Bank_MultiSIG.sol\":1603:1620  RequiredApprovals */\n      0x03\n        /* \"contracts/Bank_MultiSIG.sol\":1603:1630  RequiredApprovals = _number */\n      dup2\n      swap1\n      sstore\n      pop\n        /* \"contracts/Bank_MultiSIG.sol\":1211:1638  function setRequiredApprovals(uint _number) public onlyOwner {  //not view or pure because we are changing the state of \"RequiredApprovals\"... */\n      pop\n      jump\t// out\n        /* \"contracts/Bank_MultiSIG.sol\":2739:3021  function withdraw(uint amount) public returns (uint){... */\n    tag_33:\n        /* \"contracts/Bank_MultiSIG.sol\":2786:2790  uint */\n      0x00\n        /* \"contracts/Bank_MultiSIG.sol\":2832:2838  amount */\n      dup2\n        /* \"contracts/Bank_MultiSIG.sol\":2810:2817  balance */\n      0x04\n        /* \"contracts/Bank_MultiSIG.sol\":2810:2829  balance[msg.sender] */\n      0x00\n        /* \"contracts/Bank_MultiSIG.sol\":2818:2828  msg.sender */\n      caller\n        /* \"contracts/Bank_MultiSIG.sol\":2810:2829  balance[msg.sender] */\n      0xffffffffffffffffffffffffffffffffffffffff\n      and\n      0xffffffffffffffffffffffffffffffffffffffff\n      and\n      dup2\n      mstore\n      0x20\n      add\n      swap1\n      dup2\n      mstore\n      0x20\n      add\n      0x00\n      keccak256\n      sload\n        /* \"contracts/Bank_MultiSIG.sol\":2810:2838  balance[msg.sender]>= amount */\n      lt\n      iszero\n        /* \"contracts/Bank_MultiSIG.sol\":2802:2889  require(balance[msg.sender]>= amount,\"ERROR 1_Insufficient balance to withdraw funds.\") */\n      tag_80\n      jumpi\n      mload(0x40)\n      0x08c379a000000000000000000000000000000000000000000000000000000000\n      dup2\n      mstore\n      0x04\n      add\n      tag_81\n      swap1\n      tag_82\n      jump\t// in\n    tag_81:\n      mload(0x40)\n      dup1\n      swap2\n      sub\n      swap1\n      revert\n    tag_80:\n        /* \"contracts/Bank_MultiSIG.sol\":2908:2918  msg.sender */\n      caller\n        /* \"contracts/Bank_MultiSIG.sol\":2900:2928  payable(msg.sender).transfer */\n      0xffffffffffffffffffffffffffffffffffffffff\n      and\n        /* \"contracts/Bank_MultiSIG.sol\":2900:2936  payable(msg.sender).transfer(amount) */\n      0x08fc\n        /* \"contracts/Bank_MultiSIG.sol\":2929:2935  amount */\n      dup4\n        /* \"contracts/Bank_MultiSIG.sol\":2900:2936  payable(msg.sender).transfer(amount) */\n      swap1\n      dup2\n      iszero\n      mul\n      swap1\n      mload(0x40)\n      0x00\n      mload(0x40)\n      dup1\n      dup4\n      sub\n      dup2\n      dup6\n      dup9\n      dup9\n      call\n      swap4\n      pop\n      pop\n      pop\n      pop\n      iszero\n      dup1\n      iszero\n      tag_84\n      jumpi\n      returndatasize\n      0x00\n      dup1\n      returndatacopy\n      revert(0x00, returndatasize)\n    tag_84:\n      pop\n        /* \"contracts/Bank_MultiSIG.sol\":2970:2976  amount */\n      dup2\n        /* \"contracts/Bank_MultiSIG.sol\":2947:2954  balance */\n      0x04\n        /* \"contracts/Bank_MultiSIG.sol\":2947:2966  balance[msg.sender] */\n      0x00\n        /* \"contracts/Bank_MultiSIG.sol\":2955:2965  msg.sender */\n      caller\n        /* \"contracts/Bank_MultiSIG.sol\":2947:2966  balance[msg.sender] */\n      0xffffffffffffffffffffffffffffffffffffffff\n      and\n      0xffffffffffffffffffffffffffffffffffffffff\n      and\n      dup2\n      mstore\n      0x20\n      add\n      swap1\n      dup2\n      mstore\n      0x20\n      add\n      0x00\n      keccak256\n      0x00\n        /* \"contracts/Bank_MultiSIG.sol\":2947:2976  balance[msg.sender] -= amount */\n      dup3\n      dup3\n      sload\n      tag_85\n      swap2\n      swap1\n      tag_86\n      jump\t// in\n    tag_85:\n      swap3\n      pop\n      pop\n      dup2\n      swap1\n      sstore\n      pop\n        /* \"contracts/Bank_MultiSIG.sol\":2994:3001  balance */\n      0x04\n        /* \"contracts/Bank_MultiSIG.sol\":2994:3013  balance[msg.sender] */\n      0x00\n        /* \"contracts/Bank_MultiSIG.sol\":3002:3012  msg.sender */\n      caller\n        /* \"contracts/Bank_MultiSIG.sol\":2994:3013  balance[msg.sender] */\n      0xffffffffffffffffffffffffffffffffffffffff\n      and\n      0xffffffffffffffffffffffffffffffffffffffff\n      and\n      dup2\n      mstore\n      0x20\n      add\n      swap1\n      dup2\n      mstore\n      0x20\n      add\n      0x00\n      keccak256\n      sload\n        /* \"contracts/Bank_MultiSIG.sol\":2987:3013  return balance[msg.sender] */\n      swap1\n      pop\n        /* \"contracts/Bank_MultiSIG.sol\":2739:3021  function withdraw(uint amount) public returns (uint){... */\n      swap2\n      swap1\n      pop\n      jump\t// out\n        /* \"contracts/Ownerlist.sol\":802:906  function isOwner(address _owner) public view returns(bool)... */\n    tag_39:\n        /* \"contracts/Ownerlist.sol\":855:859  bool */\n      0x00\n        /* \"contracts/Ownerlist.sol\":884:890  owners */\n      0x01\n        /* \"contracts/Ownerlist.sol\":884:898  owners[_owner] */\n      0x00\n        /* \"contracts/Ownerlist.sol\":891:897  _owner */\n      dup4\n        /* \"contracts/Ownerlist.sol\":884:898  owners[_owner] */\n      0xffffffffffffffffffffffffffffffffffffffff\n      and\n      0xffffffffffffffffffffffffffffffffffffffff\n      and\n      dup2\n      mstore\n      0x20\n      add\n      swap1\n      dup2\n      mstore\n      0x20\n      add\n      0x00\n      keccak256\n      0x00\n      swap1\n      sload\n      swap1\n      0x0100\n      exp\n      swap1\n      div\n      0xff\n      and\n        /* \"contracts/Ownerlist.sol\":877:898  return owners[_owner] */\n      swap1\n      pop\n        /* \"contracts/Ownerlist.sol\":802:906  function isOwner(address _owner) public view returns(bool)... */\n      swap2\n      swap1\n      pop\n      jump\t// out\n        /* \"contracts/Ownerlist.sol\":1042:1278  function addOwners(address _owner) public onlyOwner ... */\n    tag_45:\n        /* \"contracts/Ownable.sol\":342:347  owner */\n      0x00\n      dup1\n      sload\n      swap1\n      0x0100\n      exp\n      swap1\n      div\n      0xffffffffffffffffffffffffffffffffffffffff\n      and\n        /* \"contracts/Ownable.sol\":328:347  msg.sender == owner */\n      0xffffffffffffffffffffffffffffffffffffffff\n      and\n        /* \"contracts/Ownable.sol\":328:338  msg.sender */\n      caller\n        /* \"contracts/Ownable.sol\":328:347  msg.sender == owner */\n      0xffffffffffffffffffffffffffffffffffffffff\n      and\n      eq\n        /* \"contracts/Ownable.sol\":320:348  require(msg.sender == owner) */\n      tag_89\n      jumpi\n      0x00\n      dup1\n      revert\n    tag_89:\n        /* \"contracts/Ownerlist.sol\":1134:1149  isOwner(_owner) */\n      tag_91\n        /* \"contracts/Ownerlist.sol\":1142:1148  _owner */\n      dup2\n        /* \"contracts/Ownerlist.sol\":1134:1141  isOwner */\n      tag_39\n        /* \"contracts/Ownerlist.sol\":1134:1149  isOwner(_owner) */\n      jump\t// in\n    tag_91:\n        /* \"contracts/Ownerlist.sol\":1133:1149  !isOwner(_owner) */\n      iszero\n        /* \"contracts/Ownerlist.sol\":1111:1202  require(... */\n      tag_92\n      jumpi\n      mload(0x40)\n      0x08c379a000000000000000000000000000000000000000000000000000000000\n      dup2\n      mstore\n      0x04\n      add\n      tag_93\n      swap1\n      tag_94\n      jump\t// in\n    tag_93:\n      mload(0x40)\n      dup1\n      swap2\n      sub\n      swap1\n      revert\n    tag_92:\n        /* \"contracts/Ownerlist.sol\":1232:1236  true */\n      0x01\n        /* \"contracts/Ownerlist.sol\":1215:1221  owners */\n      dup1\n        /* \"contracts/Ownerlist.sol\":1215:1229  owners[_owner] */\n      0x00\n        /* \"contracts/Ownerlist.sol\":1222:1228  _owner */\n      dup4\n        /* \"contracts/Ownerlist.sol\":1215:1229  owners[_owner] */\n      0xffffffffffffffffffffffffffffffffffffffff\n      and\n      0xffffffffffffffffffffffffffffffffffffffff\n      and\n      dup2\n      mstore\n      0x20\n      add\n      swap1\n      dup2\n      mstore\n      0x20\n      add\n      0x00\n      keccak256\n      0x00\n        /* \"contracts/Ownerlist.sol\":1215:1236  owners[_owner] = true */\n      0x0100\n      exp\n      dup2\n      sload\n      dup2\n      0xff\n      mul\n      not\n      and\n      swap1\n      dup4\n      iszero\n      iszero\n      mul\n      or\n      swap1\n      sstore\n      pop\n        /* \"contracts/Ownerlist.sol\":1252:1270  OwnerAdded(_owner) */\n      0x994a936646fe87ffe4f1e469d3d6aa417d6b855598397f323de5b449f765f0c3\n        /* \"contracts/Ownerlist.sol\":1263:1269  _owner */\n      dup2\n        /* \"contracts/Ownerlist.sol\":1252:1270  OwnerAdded(_owner) */\n      mload(0x40)\n      tag_95\n      swap2\n      swap1\n      tag_96\n      jump\t// in\n    tag_95:\n      mload(0x40)\n      dup1\n      swap2\n      sub\n      swap1\n      log1\n        /* \"contracts/Ownerlist.sol\":1042:1278  function addOwners(address _owner) public onlyOwner ... */\n      pop\n      jump\t// out\n        /* \"contracts/Bank_MultiSIG.sol\":1794:1894  function getRequiredApprovals() public view returns(uint){... */\n    tag_48:\n        /* \"contracts/Bank_MultiSIG.sol\":1846:1850  uint */\n      0x00\n        /* \"contracts/Bank_MultiSIG.sol\":1869:1886  RequiredApprovals */\n      sload(0x03)\n        /* \"contracts/Bank_MultiSIG.sol\":1862:1886  return RequiredApprovals */\n      swap1\n      pop\n        /* \"contracts/Bank_MultiSIG.sol\":1794:1894  function getRequiredApprovals() public view returns(uint){... */\n      swap1\n      jump\t// out\n        /* \"contracts/Bank_MultiSIG.sol\":3345:4024  function transfer(address recipient, uint amount) onlyOwner public {... */\n    tag_54:\n        /* \"contracts/Ownable.sol\":342:347  owner */\n      0x00\n      dup1\n      sload\n      swap1\n      0x0100\n      exp\n      swap1\n      div\n      0xffffffffffffffffffffffffffffffffffffffff\n      and\n        /* \"contracts/Ownable.sol\":328:347  msg.sender == owner */\n      0xffffffffffffffffffffffffffffffffffffffff\n      and\n        /* \"contracts/Ownable.sol\":328:338  msg.sender */\n      caller\n        /* \"contracts/Ownable.sol\":328:347  msg.sender == owner */\n      0xffffffffffffffffffffffffffffffffffffffff\n      and\n      eq\n        /* \"contracts/Ownable.sol\":320:348  require(msg.sender == owner) */\n      tag_99\n      jumpi\n      0x00\n      dup1\n      revert\n    tag_99:\n        /* \"contracts/Bank_MultiSIG.sol\":3453:3459  amount */\n      dup1\n        /* \"contracts/Bank_MultiSIG.sol\":3431:3438  balance */\n      0x04\n        /* \"contracts/Bank_MultiSIG.sol\":3431:3450  balance[msg.sender] */\n      0x00\n        /* \"contracts/Bank_MultiSIG.sol\":3439:3449  msg.sender */\n      caller\n        /* \"contracts/Bank_MultiSIG.sol\":3431:3450  balance[msg.sender] */\n      0xffffffffffffffffffffffffffffffffffffffff\n      and\n      0xffffffffffffffffffffffffffffffffffffffff\n      and\n      dup2\n      mstore\n      0x20\n      add\n      swap1\n      dup2\n      mstore\n      0x20\n      add\n      0x00\n      keccak256\n      sload\n        /* \"contracts/Bank_MultiSIG.sol\":3431:3459  balance[msg.sender]>= amount */\n      lt\n      iszero\n        /* \"contracts/Bank_MultiSIG.sol\":3423:3510  require(balance[msg.sender]>= amount,\"ERROR 1_Insufficient balance to transfer funds.\") */\n      tag_101\n      jumpi\n      mload(0x40)\n      0x08c379a000000000000000000000000000000000000000000000000000000000\n      dup2\n      mstore\n      0x04\n      add\n      tag_102\n      swap1\n      tag_103\n      jump\t// in\n    tag_102:\n      mload(0x40)\n      dup1\n      swap2\n      sub\n      swap1\n      revert\n    tag_101:\n        /* \"contracts/Bank_MultiSIG.sol\":3574:3583  recipient */\n      dup2\n        /* \"contracts/Bank_MultiSIG.sol\":3560:3583  msg.sender != recipient */\n      0xffffffffffffffffffffffffffffffffffffffff\n      and\n        /* \"contracts/Bank_MultiSIG.sol\":3560:3570  msg.sender */\n      caller\n        /* \"contracts/Bank_MultiSIG.sol\":3560:3583  msg.sender != recipient */\n      0xffffffffffffffffffffffffffffffffffffffff\n      and\n      sub\n        /* \"contracts/Bank_MultiSIG.sol\":3552:3630  require(msg.sender != recipient,\"ERROR 2_The sender cannot be the recipient.\") */\n      tag_104\n      jumpi\n      mload(0x40)\n      0x08c379a000000000000000000000000000000000000000000000000000000000\n      dup2\n      mstore\n      0x04\n      add\n      tag_105\n      swap1\n      tag_106\n      jump\t// in\n    tag_105:\n      mload(0x40)\n      dup1\n      swap2\n      sub\n      swap1\n      revert\n    tag_104:\n        /* \"contracts/Bank_MultiSIG.sol\":3649:3668  isOwner(msg.sender) */\n      tag_107\n        /* \"contracts/Bank_MultiSIG.sol\":3657:3667  msg.sender */\n      caller\n        /* \"contracts/Bank_MultiSIG.sol\":3649:3656  isOwner */\n      tag_39\n        /* \"contracts/Bank_MultiSIG.sol\":3649:3668  isOwner(msg.sender) */\n      jump\t// in\n    tag_107:\n        /* \"contracts/Bank_MultiSIG.sol\":3641:3735  require(isOwner(msg.sender), \"ERROR 3_You are not an owner and not allowed to make transfer.\") */\n      tag_108\n      jumpi\n      mload(0x40)\n      0x08c379a000000000000000000000000000000000000000000000000000000000\n      dup2\n      mstore\n      0x04\n      add\n      tag_109\n      swap1\n      tag_110\n      jump\t// in\n    tag_109:\n      mload(0x40)\n      dup1\n      swap2\n      sub\n      swap1\n      revert\n    tag_108:\n        /* \"contracts/Bank_MultiSIG.sol\":3763:3789  uint previousSenderBalance */\n      0x00\n        /* \"contracts/Bank_MultiSIG.sol\":3792:3799  balance */\n      0x04\n        /* \"contracts/Bank_MultiSIG.sol\":3792:3811  balance[msg.sender] */\n      0x00\n        /* \"contracts/Bank_MultiSIG.sol\":3800:3810  msg.sender */\n      caller\n        /* \"contracts/Bank_MultiSIG.sol\":3792:3811  balance[msg.sender] */\n      0xffffffffffffffffffffffffffffffffffffffff\n      and\n      0xffffffffffffffffffffffffffffffffffffffff\n      and\n      dup2\n      mstore\n      0x20\n      add\n      swap1\n      dup2\n      mstore\n      0x20\n      add\n      0x00\n      keccak256\n      sload\n        /* \"contracts/Bank_MultiSIG.sol\":3763:3811  uint previousSenderBalance = balance[msg.sender] */\n      swap1\n      pop\n        /* \"contracts/Bank_MultiSIG.sol\":3822:3863  _transfer (msg.sender, recipient, amount) */\n      tag_111\n        /* \"contracts/Bank_MultiSIG.sol\":3833:3843  msg.sender */\n      caller\n        /* \"contracts/Bank_MultiSIG.sol\":3845:3854  recipient */\n      dup5\n        /* \"contracts/Bank_MultiSIG.sol\":3856:3862  amount */\n      dup5\n        /* \"contracts/Bank_MultiSIG.sol\":3822:3831  _transfer */\n      tag_112\n        /* \"contracts/Bank_MultiSIG.sol\":3822:3863  _transfer (msg.sender, recipient, amount) */\n      jump\t// in\n    tag_111:\n        /* \"contracts/Bank_MultiSIG.sol\":3921:3927  amount */\n      dup2\n        /* \"contracts/Bank_MultiSIG.sol\":3910:3919  recipient */\n      dup4\n        /* \"contracts/Bank_MultiSIG.sol\":3881:3928  transferedAmount(msg.sender, recipient, amount) */\n      0xffffffffffffffffffffffffffffffffffffffff\n      and\n        /* \"contracts/Bank_MultiSIG.sol\":3898:3908  msg.sender */\n      caller\n        /* \"contracts/Bank_MultiSIG.sol\":3881:3928  transferedAmount(msg.sender, recipient, amount) */\n      0xffffffffffffffffffffffffffffffffffffffff\n      and\n      0x3573881c639e018e0c3ba3a7d19063f6a7a8205d54eb828319a7f98db00426a0\n      mload(0x40)\n      mload(0x40)\n      dup1\n      swap2\n      sub\n      swap1\n      log4\n        /* \"contracts/Bank_MultiSIG.sol\":4008:4014  amount */\n      dup2\n        /* \"contracts/Bank_MultiSIG.sol\":3984:4005  previousSenderBalance */\n      dup2\n        /* \"contracts/Bank_MultiSIG.sol\":3984:4014  previousSenderBalance - amount */\n      tag_113\n      swap2\n      swap1\n      tag_86\n      jump\t// in\n    tag_113:\n        /* \"contracts/Bank_MultiSIG.sol\":3961:3968  balance */\n      0x04\n        /* \"contracts/Bank_MultiSIG.sol\":3961:3980  balance[msg.sender] */\n      0x00\n        /* \"contracts/Bank_MultiSIG.sol\":3969:3979  msg.sender */\n      caller\n        /* \"contracts/Bank_MultiSIG.sol\":3961:3980  balance[msg.sender] */\n      0xffffffffffffffffffffffffffffffffffffffff\n      and\n      0xffffffffffffffffffffffffffffffffffffffff\n      and\n      dup2\n      mstore\n      0x20\n      add\n      swap1\n      dup2\n      mstore\n      0x20\n      add\n      0x00\n      keccak256\n      sload\n        /* \"contracts/Bank_MultiSIG.sol\":3961:4014  balance[msg.sender] == previousSenderBalance - amount */\n      eq\n        /* \"contracts/Bank_MultiSIG.sol\":3954:4015  assert(balance[msg.sender] == previousSenderBalance - amount) */\n      tag_114\n      jumpi\n      tag_115\n      tag_116\n      jump\t// in\n    tag_115:\n    tag_114:\n        /* \"contracts/Bank_MultiSIG.sol\":3412:4024  {... */\n      pop\n        /* \"contracts/Bank_MultiSIG.sol\":3345:4024  function transfer(address recipient, uint amount) onlyOwner public {... */\n      pop\n      pop\n      jump\t// out\n        /* \"contracts/Ownerlist.sol\":1419:1656  function removeOwners(address _owner) public onlyOwner... */\n    tag_58:\n        /* \"contracts/Ownable.sol\":342:347  owner */\n      0x00\n      dup1\n      sload\n      swap1\n      0x0100\n      exp\n      swap1\n      div\n      0xffffffffffffffffffffffffffffffffffffffff\n      and\n        /* \"contracts/Ownable.sol\":328:347  msg.sender == owner */\n      0xffffffffffffffffffffffffffffffffffffffff\n      and\n        /* \"contracts/Ownable.sol\":328:338  msg.sender */\n      caller\n        /* \"contracts/Ownable.sol\":328:347  msg.sender == owner */\n      0xffffffffffffffffffffffffffffffffffffffff\n      and\n      eq\n        /* \"contracts/Ownable.sol\":320:348  require(msg.sender == owner) */\n      tag_118\n      jumpi\n      0x00\n      dup1\n      revert\n    tag_118:\n        /* \"contracts/Ownerlist.sol\":1512:1527  isOwner(_owner) */\n      tag_120\n        /* \"contracts/Ownerlist.sol\":1520:1526  _owner */\n      dup2\n        /* \"contracts/Ownerlist.sol\":1512:1519  isOwner */\n      tag_39\n        /* \"contracts/Ownerlist.sol\":1512:1527  isOwner(_owner) */\n      jump\t// in\n    tag_120:\n        /* \"contracts/Ownerlist.sol\":1490:1578  require(... */\n      tag_121\n      jumpi\n      mload(0x40)\n      0x08c379a000000000000000000000000000000000000000000000000000000000\n      dup2\n      mstore\n      0x04\n      add\n      tag_122\n      swap1\n      tag_123\n      jump\t// in\n    tag_122:\n      mload(0x40)\n      dup1\n      swap2\n      sub\n      swap1\n      revert\n    tag_121:\n        /* \"contracts/Ownerlist.sol\":1598:1604  owners */\n      0x01\n        /* \"contracts/Ownerlist.sol\":1598:1612  owners[_owner] */\n      0x00\n        /* \"contracts/Ownerlist.sol\":1605:1611  _owner */\n      dup3\n        /* \"contracts/Ownerlist.sol\":1598:1612  owners[_owner] */\n      0xffffffffffffffffffffffffffffffffffffffff\n      and\n      0xffffffffffffffffffffffffffffffffffffffff\n      and\n      dup2\n      mstore\n      0x20\n      add\n      swap1\n      dup2\n      mstore\n      0x20\n      add\n      0x00\n      keccak256\n      0x00\n        /* \"contracts/Ownerlist.sol\":1591:1612  delete owners[_owner] */\n      0x0100\n      exp\n      dup2\n      sload\n      swap1\n      0xff\n      mul\n      not\n      and\n      swap1\n      sstore\n        /* \"contracts/Ownerlist.sol\":1628:1648  OwnerRemoved(_owner) */\n      0x58619076adf5bb0943d100ef88d52d7c3fd691b19d3a9071b555b651fbf418da\n        /* \"contracts/Ownerlist.sol\":1641:1647  _owner */\n      dup2\n        /* \"contracts/Ownerlist.sol\":1628:1648  OwnerRemoved(_owner) */\n      mload(0x40)\n      tag_124\n      swap2\n      swap1\n      tag_96\n      jump\t// in\n    tag_124:\n      mload(0x40)\n      dup1\n      swap2\n      sub\n      swap1\n      log1\n        /* \"contracts/Ownerlist.sol\":1419:1656  function removeOwners(address _owner) public onlyOwner... */\n      pop\n      jump\t// out\n        /* \"contracts/Bank_MultiSIG.sol\":5026:5109  function getApproved() public view returns(uint){... */\n    tag_61:\n        /* \"contracts/Bank_MultiSIG.sol\":5069:5073  uint */\n      0x00\n        /* \"contracts/Bank_MultiSIG.sol\":5092:5101  approvals */\n      sload(0x02)\n        /* \"contracts/Bank_MultiSIG.sol\":5085:5101  return approvals */\n      swap1\n      pop\n        /* \"contracts/Bank_MultiSIG.sol\":5026:5109  function getApproved() public view returns(uint){... */\n      swap1\n      jump\t// out\n        /* \"contracts/Bank_MultiSIG.sol\":2006:2319  function deposit() public payable returns (uint) { ... */\n    tag_64:\n        /* \"contracts/Bank_MultiSIG.sol\":2049:2053  uint */\n      0x00\n        /* \"contracts/Bank_MultiSIG.sol\":2090:2099  msg.value */\n      callvalue\n        /* \"contracts/Bank_MultiSIG.sol\":2067:2074  balance */\n      0x04\n        /* \"contracts/Bank_MultiSIG.sol\":2067:2086  balance[msg.sender] */\n      0x00\n        /* \"contracts/Bank_MultiSIG.sol\":2075:2085  msg.sender */\n      caller\n        /* \"contracts/Bank_MultiSIG.sol\":2067:2086  balance[msg.sender] */\n      0xffffffffffffffffffffffffffffffffffffffff\n      and\n      0xffffffffffffffffffffffffffffffffffffffff\n      and\n      dup2\n      mstore\n      0x20\n      add\n      swap1\n      dup2\n      mstore\n      0x20\n      add\n      0x00\n      keccak256\n      0x00\n        /* \"contracts/Bank_MultiSIG.sol\":2067:2099  balance[msg.sender] += msg.value */\n      dup3\n      dup3\n      sload\n      tag_127\n      swap2\n      swap1\n      tag_128\n      jump\t// in\n    tag_127:\n      swap3\n      pop\n      pop\n      dup2\n      swap1\n      sstore\n      pop\n        /* \"contracts/Bank_MultiSIG.sol\":2246:2256  msg.sender */\n      caller\n        /* \"contracts/Bank_MultiSIG.sol\":2224:2257  deposited (msg.value, msg.sender) */\n      0xffffffffffffffffffffffffffffffffffffffff\n      and\n        /* \"contracts/Bank_MultiSIG.sol\":2235:2244  msg.value */\n      callvalue\n        /* \"contracts/Bank_MultiSIG.sol\":2224:2257  deposited (msg.value, msg.sender) */\n      0xa23831066066ec8812cc52afc91a52134a8b50c9209b68c276be679f4073d95d\n      mload(0x40)\n      mload(0x40)\n      dup1\n      swap2\n      sub\n      swap1\n      log3\n        /* \"contracts/Bank_MultiSIG.sol\":2292:2299  balance */\n      0x04\n        /* \"contracts/Bank_MultiSIG.sol\":2292:2311  balance[msg.sender] */\n      0x00\n        /* \"contracts/Bank_MultiSIG.sol\":2300:2310  msg.sender */\n      caller\n        /* \"contracts/Bank_MultiSIG.sol\":2292:2311  balance[msg.sender] */\n      0xffffffffffffffffffffffffffffffffffffffff\n      and\n      0xffffffffffffffffffffffffffffffffffffffff\n      and\n      dup2\n      mstore\n      0x20\n      add\n      swap1\n      dup2\n      mstore\n      0x20\n      add\n      0x00\n      keccak256\n      sload\n        /* \"contracts/Bank_MultiSIG.sol\":2285:2311  return balance[msg.sender] */\n      swap1\n      pop\n        /* \"contracts/Bank_MultiSIG.sol\":2006:2319  function deposit() public payable returns (uint) { ... */\n      swap1\n      jump\t// out\n        /* \"contracts/Bank_MultiSIG.sol\":4211:4351  function _transfer(address from, address to, uint amount) private {... */\n    tag_112:\n        /* \"contracts/Bank_MultiSIG.sol\":4305:4311  amount */\n      dup1\n        /* \"contracts/Bank_MultiSIG.sol\":4288:4295  balance */\n      0x04\n        /* \"contracts/Bank_MultiSIG.sol\":4288:4301  balance[from] */\n      0x00\n        /* \"contracts/Bank_MultiSIG.sol\":4296:4300  from */\n      dup6\n        /* \"contracts/Bank_MultiSIG.sol\":4288:4301  balance[from] */\n      0xffffffffffffffffffffffffffffffffffffffff\n      and\n      0xffffffffffffffffffffffffffffffffffffffff\n      and\n      dup2\n      mstore\n      0x20\n      add\n      swap1\n      dup2\n      mstore\n      0x20\n      add\n      0x00\n      keccak256\n      0x00\n        /* \"contracts/Bank_MultiSIG.sol\":4288:4311  balance[from] -= amount */\n      dup3\n      dup3\n      sload\n      tag_130\n      swap2\n      swap1\n      tag_86\n      jump\t// in\n    tag_130:\n      swap3\n      pop\n      pop\n      dup2\n      swap1\n      sstore\n      pop\n        /* \"contracts/Bank_MultiSIG.sol\":4337:4343  amount */\n      dup1\n        /* \"contracts/Bank_MultiSIG.sol\":4322:4329  balance */\n      0x04\n        /* \"contracts/Bank_MultiSIG.sol\":4322:4333  balance[to] */\n      0x00\n        /* \"contracts/Bank_MultiSIG.sol\":4330:4332  to */\n      dup5\n        /* \"contracts/Bank_MultiSIG.sol\":4322:4333  balance[to] */\n      0xffffffffffffffffffffffffffffffffffffffff\n      and\n      0xffffffffffffffffffffffffffffffffffffffff\n      and\n      dup2\n      mstore\n      0x20\n      add\n      swap1\n      dup2\n      mstore\n      0x20\n      add\n      0x00\n      keccak256\n      0x00\n        /* \"contracts/Bank_MultiSIG.sol\":4322:4343  balance[to] += amount */\n      dup3\n      dup3\n      sload\n      tag_131\n      swap2\n      swap1\n      tag_128\n      jump\t// in\n    tag_131:\n      swap3\n      pop\n      pop\n      dup2\n      swap1\n      sstore\n      pop\n        /* \"contracts/Bank_MultiSIG.sol\":4211:4351  function _transfer(address from, address to, uint amount) private {... */\n      pop\n      pop\n      pop\n      jump\t// out\n        /* \"#utility.yul\":88:205   */\n    tag_133:\n        /* \"#utility.yul\":197:198   */\n      0x00\n        /* \"#utility.yul\":194:195   */\n      dup1\n        /* \"#utility.yul\":187:199   */\n      revert\n        /* \"#utility.yul\":334:424   */\n    tag_135:\n        /* \"#utility.yul\":368:375   */\n      0x00\n        /* \"#utility.yul\":411:416   */\n      dup2\n        /* \"#utility.yul\":404:417   */\n      iszero\n        /* \"#utility.yul\":397:418   */\n      iszero\n        /* \"#utility.yul\":386:418   */\n      swap1\n      pop\n        /* \"#utility.yul\":334:424   */\n      swap2\n      swap1\n      pop\n      jump\t// out\n        /* \"#utility.yul\":430:546   */\n    tag_136:\n        /* \"#utility.yul\":500:521   */\n      tag_170\n        /* \"#utility.yul\":515:520   */\n      dup2\n        /* \"#utility.yul\":500:521   */\n      tag_135\n      jump\t// in\n    tag_170:\n        /* \"#utility.yul\":493:498   */\n      dup2\n        /* \"#utility.yul\":490:522   */\n      eq\n        /* \"#utility.yul\":480:540   */\n      tag_171\n      jumpi\n        /* \"#utility.yul\":536:537   */\n      0x00\n        /* \"#utility.yul\":533:534   */\n      dup1\n        /* \"#utility.yul\":526:538   */\n      revert\n        /* \"#utility.yul\":480:540   */\n    tag_171:\n        /* \"#utility.yul\":430:546   */\n      pop\n      jump\t// out\n        /* \"#utility.yul\":552:685   */\n    tag_137:\n        /* \"#utility.yul\":595:600   */\n      0x00\n        /* \"#utility.yul\":633:639   */\n      dup2\n        /* \"#utility.yul\":620:640   */\n      calldataload\n        /* \"#utility.yul\":611:640   */\n      swap1\n      pop\n        /* \"#utility.yul\":649:679   */\n      tag_173\n        /* \"#utility.yul\":673:678   */\n      dup2\n        /* \"#utility.yul\":649:679   */\n      tag_136\n      jump\t// in\n    tag_173:\n        /* \"#utility.yul\":552:685   */\n      swap3\n      swap2\n      pop\n      pop\n      jump\t// out\n        /* \"#utility.yul\":691:1014   */\n    tag_17:\n        /* \"#utility.yul\":747:753   */\n      0x00\n        /* \"#utility.yul\":796:798   */\n      0x20\n        /* \"#utility.yul\":784:793   */\n      dup3\n        /* \"#utility.yul\":775:782   */\n      dup5\n        /* \"#utility.yul\":771:794   */\n      sub\n        /* \"#utility.yul\":767:799   */\n      slt\n        /* \"#utility.yul\":764:883   */\n      iszero\n      tag_175\n      jumpi\n        /* \"#utility.yul\":802:881   */\n      tag_176\n      tag_133\n      jump\t// in\n    tag_176:\n        /* \"#utility.yul\":764:883   */\n    tag_175:\n        /* \"#utility.yul\":922:923   */\n      0x00\n        /* \"#utility.yul\":947:997   */\n      tag_177\n        /* \"#utility.yul\":989:996   */\n      dup5\n        /* \"#utility.yul\":980:986   */\n      dup3\n        /* \"#utility.yul\":969:978   */\n      dup6\n        /* \"#utility.yul\":965:987   */\n      add\n        /* \"#utility.yul\":947:997   */\n      tag_137\n      jump\t// in\n    tag_177:\n        /* \"#utility.yul\":937:997   */\n      swap2\n      pop\n        /* \"#utility.yul\":893:1007   */\n      pop\n        /* \"#utility.yul\":691:1014   */\n      swap3\n      swap2\n      pop\n      pop\n      jump\t// out\n        /* \"#utility.yul\":1020:1097   */\n    tag_138:\n        /* \"#utility.yul\":1057:1064   */\n      0x00\n        /* \"#utility.yul\":1086:1091   */\n      dup2\n        /* \"#utility.yul\":1075:1091   */\n      swap1\n      pop\n        /* \"#utility.yul\":1020:1097   */\n      swap2\n      swap1\n      pop\n      jump\t// out\n        /* \"#utility.yul\":1103:1221   */\n    tag_139:\n        /* \"#utility.yul\":1190:1214   */\n      tag_180\n        /* \"#utility.yul\":1208:1213   */\n      dup2\n        /* \"#utility.yul\":1190:1214   */\n      tag_138\n      jump\t// in\n    tag_180:\n        /* \"#utility.yul\":1185:1188   */\n      dup3\n        /* \"#utility.yul\":1178:1215   */\n      mstore\n        /* \"#utility.yul\":1103:1221   */\n      pop\n      pop\n      jump\t// out\n        /* \"#utility.yul\":1227:1449   */\n    tag_20:\n        /* \"#utility.yul\":1320:1324   */\n      0x00\n        /* \"#utility.yul\":1358:1360   */\n      0x20\n        /* \"#utility.yul\":1347:1356   */\n      dup3\n        /* \"#utility.yul\":1343:1361   */\n      add\n        /* \"#utility.yul\":1335:1361   */\n      swap1\n      pop\n        /* \"#utility.yul\":1371:1442   */\n      tag_182\n        /* \"#utility.yul\":1439:1440   */\n      0x00\n        /* \"#utility.yul\":1428:1437   */\n      dup4\n        /* \"#utility.yul\":1424:1441   */\n      add\n        /* \"#utility.yul\":1415:1421   */\n      dup5\n        /* \"#utility.yul\":1371:1442   */\n      tag_139\n      jump\t// in\n    tag_182:\n        /* \"#utility.yul\":1227:1449   */\n      swap3\n      swap2\n      pop\n      pop\n      jump\t// out\n        /* \"#utility.yul\":1455:1577   */\n    tag_140:\n        /* \"#utility.yul\":1528:1552   */\n      tag_184\n        /* \"#utility.yul\":1546:1551   */\n      dup2\n        /* \"#utility.yul\":1528:1552   */\n      tag_138\n      jump\t// in\n    tag_184:\n        /* \"#utility.yul\":1521:1526   */\n      dup2\n        /* \"#utility.yul\":1518:1553   */\n      eq\n        /* \"#utility.yul\":1508:1571   */\n      tag_185\n      jumpi\n        /* \"#utility.yul\":1567:1568   */\n      0x00\n        /* \"#utility.yul\":1564:1565   */\n      dup1\n        /* \"#utility.yul\":1557:1569   */\n      revert\n        /* \"#utility.yul\":1508:1571   */\n    tag_185:\n        /* \"#utility.yul\":1455:1577   */\n      pop\n      jump\t// out\n        /* \"#utility.yul\":1583:1722   */\n    tag_141:\n        /* \"#utility.yul\":1629:1634   */\n      0x00\n        /* \"#utility.yul\":1667:1673   */\n      dup2\n        /* \"#utility.yul\":1654:1674   */\n      calldataload\n        /* \"#utility.yul\":1645:1674   */\n      swap1\n      pop\n        /* \"#utility.yul\":1683:1716   */\n      tag_187\n        /* \"#utility.yul\":1710:1715   */\n      dup2\n        /* \"#utility.yul\":1683:1716   */\n      tag_140\n      jump\t// in\n    tag_187:\n        /* \"#utility.yul\":1583:1722   */\n      swap3\n      swap2\n      pop\n      pop\n      jump\t// out\n        /* \"#utility.yul\":1728:2057   */\n    tag_28:\n        /* \"#utility.yul\":1787:1793   */\n      0x00\n        /* \"#utility.yul\":1836:1838   */\n      0x20\n        /* \"#utility.yul\":1824:1833   */\n      dup3\n        /* \"#utility.yul\":1815:1822   */\n      dup5\n        /* \"#utility.yul\":1811:1834   */\n      sub\n        /* \"#utility.yul\":1807:1839   */\n      slt\n        /* \"#utility.yul\":1804:1923   */\n      iszero\n      tag_189\n      jumpi\n        /* \"#utility.yul\":1842:1921   */\n      tag_190\n      tag_133\n      jump\t// in\n    tag_190:\n        /* \"#utility.yul\":1804:1923   */\n    tag_189:\n        /* \"#utility.yul\":1962:1963   */\n      0x00\n        /* \"#utility.yul\":1987:2040   */\n      tag_191\n        /* \"#utility.yul\":2032:2039   */\n      dup5\n        /* \"#utility.yul\":2023:2029   */\n      dup3\n        /* \"#utility.yul\":2012:2021   */\n      dup6\n        /* \"#utility.yul\":2008:2030   */\n      add\n        /* \"#utility.yul\":1987:2040   */\n      tag_141\n      jump\t// in\n    tag_191:\n        /* \"#utility.yul\":1977:2040   */\n      swap2\n      pop\n        /* \"#utility.yul\":1933:2050   */\n      pop\n        /* \"#utility.yul\":1728:2057   */\n      swap3\n      swap2\n      pop\n      pop\n      jump\t// out\n        /* \"#utility.yul\":2063:2189   */\n    tag_142:\n        /* \"#utility.yul\":2100:2107   */\n      0x00\n        /* \"#utility.yul\":2140:2182   */\n      0xffffffffffffffffffffffffffffffffffffffff\n        /* \"#utility.yul\":2133:2138   */\n      dup3\n        /* \"#utility.yul\":2129:2183   */\n      and\n        /* \"#utility.yul\":2118:2183   */\n      swap1\n      pop\n        /* \"#utility.yul\":2063:2189   */\n      swap2\n      swap1\n      pop\n      jump\t// out\n        /* \"#utility.yul\":2195:2291   */\n    tag_143:\n        /* \"#utility.yul\":2232:2239   */\n      0x00\n        /* \"#utility.yul\":2261:2285   */\n      tag_194\n        /* \"#utility.yul\":2279:2284   */\n      dup3\n        /* \"#utility.yul\":2261:2285   */\n      tag_142\n      jump\t// in\n    tag_194:\n        /* \"#utility.yul\":2250:2285   */\n      swap1\n      pop\n        /* \"#utility.yul\":2195:2291   */\n      swap2\n      swap1\n      pop\n      jump\t// out\n        /* \"#utility.yul\":2297:2419   */\n    tag_144:\n        /* \"#utility.yul\":2370:2394   */\n      tag_196\n        /* \"#utility.yul\":2388:2393   */\n      dup2\n        /* \"#utility.yul\":2370:2394   */\n      tag_143\n      jump\t// in\n    tag_196:\n        /* \"#utility.yul\":2363:2368   */\n      dup2\n        /* \"#utility.yul\":2360:2395   */\n      eq\n        /* \"#utility.yul\":2350:2413   */\n      tag_197\n      jumpi\n        /* \"#utility.yul\":2409:2410   */\n      0x00\n        /* \"#utility.yul\":2406:2407   */\n      dup1\n        /* \"#utility.yul\":2399:2411   */\n      revert\n        /* \"#utility.yul\":2350:2413   */\n    tag_197:\n        /* \"#utility.yul\":2297:2419   */\n      pop\n      jump\t// out\n        /* \"#utility.yul\":2425:2564   */\n    tag_145:\n        /* \"#utility.yul\":2471:2476   */\n      0x00\n        /* \"#utility.yul\":2509:2515   */\n      dup2\n        /* \"#utility.yul\":2496:2516   */\n      calldataload\n        /* \"#utility.yul\":2487:2516   */\n      swap1\n      pop\n        /* \"#utility.yul\":2525:2558   */\n      tag_199\n        /* \"#utility.yul\":2552:2557   */\n      dup2\n        /* \"#utility.yul\":2525:2558   */\n      tag_144\n      jump\t// in\n    tag_199:\n        /* \"#utility.yul\":2425:2564   */\n      swap3\n      swap2\n      pop\n      pop\n      jump\t// out\n        /* \"#utility.yul\":2570:2899   */\n    tag_38:\n        /* \"#utility.yul\":2629:2635   */\n      0x00\n        /* \"#utility.yul\":2678:2680   */\n      0x20\n        /* \"#utility.yul\":2666:2675   */\n      dup3\n        /* \"#utility.yul\":2657:2664   */\n      dup5\n        /* \"#utility.yul\":2653:2676   */\n      sub\n        /* \"#utility.yul\":2649:2681   */\n      slt\n        /* \"#utility.yul\":2646:2765   */\n      iszero\n      tag_201\n      jumpi\n        /* \"#utility.yul\":2684:2763   */\n      tag_202\n      tag_133\n      jump\t// in\n    tag_202:\n        /* \"#utility.yul\":2646:2765   */\n    tag_201:\n        /* \"#utility.yul\":2804:2805   */\n      0x00\n        /* \"#utility.yul\":2829:2882   */\n      tag_203\n        /* \"#utility.yul\":2874:2881   */\n      dup5\n        /* \"#utility.yul\":2865:2871   */\n      dup3\n        /* \"#utility.yul\":2854:2863   */\n      dup6\n        /* \"#utility.yul\":2850:2872   */\n      add\n        /* \"#utility.yul\":2829:2882   */\n      tag_145\n      jump\t// in\n    tag_203:\n        /* \"#utility.yul\":2819:2882   */\n      swap2\n      pop\n        /* \"#utility.yul\":2775:2892   */\n      pop\n        /* \"#utility.yul\":2570:2899   */\n      swap3\n      swap2\n      pop\n      pop\n      jump\t// out\n        /* \"#utility.yul\":2905:3014   */\n    tag_146:\n        /* \"#utility.yul\":2986:3007   */\n      tag_205\n        /* \"#utility.yul\":3001:3006   */\n      dup2\n        /* \"#utility.yul\":2986:3007   */\n      tag_135\n      jump\t// in\n    tag_205:\n        /* \"#utility.yul\":2981:2984   */\n      dup3\n        /* \"#utility.yul\":2974:3008   */\n      mstore\n        /* \"#utility.yul\":2905:3014   */\n      pop\n      pop\n      jump\t// out\n        /* \"#utility.yul\":3020:3230   */\n    tag_41:\n        /* \"#utility.yul\":3107:3111   */\n      0x00\n        /* \"#utility.yul\":3145:3147   */\n      0x20\n        /* \"#utility.yul\":3134:3143   */\n      dup3\n        /* \"#utility.yul\":3130:3148   */\n      add\n        /* \"#utility.yul\":3122:3148   */\n      swap1\n      pop\n        /* \"#utility.yul\":3158:3223   */\n      tag_207\n        /* \"#utility.yul\":3220:3221   */\n      0x00\n        /* \"#utility.yul\":3209:3218   */\n      dup4\n        /* \"#utility.yul\":3205:3222   */\n      add\n        /* \"#utility.yul\":3196:3202   */\n      dup5\n        /* \"#utility.yul\":3158:3223   */\n      tag_146\n      jump\t// in\n    tag_207:\n        /* \"#utility.yul\":3020:3230   */\n      swap3\n      swap2\n      pop\n      pop\n      jump\t// out\n        /* \"#utility.yul\":3236:3710   */\n    tag_53:\n        /* \"#utility.yul\":3304:3310   */\n      0x00\n        /* \"#utility.yul\":3312:3318   */\n      dup1\n        /* \"#utility.yul\":3361:3363   */\n      0x40\n        /* \"#utility.yul\":3349:3358   */\n      dup4\n        /* \"#utility.yul\":3340:3347   */\n      dup6\n        /* \"#utility.yul\":3336:3359   */\n      sub\n        /* \"#utility.yul\":3332:3364   */\n      slt\n        /* \"#utility.yul\":3329:3448   */\n      iszero\n      tag_209\n      jumpi\n        /* \"#utility.yul\":3367:3446   */\n      tag_210\n      tag_133\n      jump\t// in\n    tag_210:\n        /* \"#utility.yul\":3329:3448   */\n    tag_209:\n        /* \"#utility.yul\":3487:3488   */\n      0x00\n        /* \"#utility.yul\":3512:3565   */\n      tag_211\n        /* \"#utility.yul\":3557:3564   */\n      dup6\n        /* \"#utility.yul\":3548:3554   */\n      dup3\n        /* \"#utility.yul\":3537:3546   */\n      dup7\n        /* \"#utility.yul\":3533:3555   */\n      add\n        /* \"#utility.yul\":3512:3565   */\n      tag_145\n      jump\t// in\n    tag_211:\n        /* \"#utility.yul\":3502:3565   */\n      swap3\n      pop\n        /* \"#utility.yul\":3458:3575   */\n      pop\n        /* \"#utility.yul\":3614:3616   */\n      0x20\n        /* \"#utility.yul\":3640:3693   */\n      tag_212\n        /* \"#utility.yul\":3685:3692   */\n      dup6\n        /* \"#utility.yul\":3676:3682   */\n      dup3\n        /* \"#utility.yul\":3665:3674   */\n      dup7\n        /* \"#utility.yul\":3661:3683   */\n      add\n        /* \"#utility.yul\":3640:3693   */\n      tag_141\n      jump\t// in\n    tag_212:\n        /* \"#utility.yul\":3630:3693   */\n      swap2\n      pop\n        /* \"#utility.yul\":3585:3703   */\n      pop\n        /* \"#utility.yul\":3236:3710   */\n      swap3\n      pop\n      swap3\n      swap1\n      pop\n      jump\t// out\n        /* \"#utility.yul\":3716:3885   */\n    tag_147:\n        /* \"#utility.yul\":3800:3811   */\n      0x00\n        /* \"#utility.yul\":3834:3840   */\n      dup3\n        /* \"#utility.yul\":3829:3832   */\n      dup3\n        /* \"#utility.yul\":3822:3841   */\n      mstore\n        /* \"#utility.yul\":3874:3878   */\n      0x20\n        /* \"#utility.yul\":3869:3872   */\n      dup3\n        /* \"#utility.yul\":3865:3879   */\n      add\n        /* \"#utility.yul\":3850:3879   */\n      swap1\n      pop\n        /* \"#utility.yul\":3716:3885   */\n      swap3\n      swap2\n      pop\n      pop\n      jump\t// out\n        /* \"#utility.yul\":3891:4181   */\n    tag_148:\n        /* \"#utility.yul\":4031:4065   */\n      0x4552524f5220335f596f7520617265206e6f7420616e206f776e657220616e64\n        /* \"#utility.yul\":4027:4028   */\n      0x00\n        /* \"#utility.yul\":4019:4025   */\n      dup3\n        /* \"#utility.yul\":4015:4029   */\n      add\n        /* \"#utility.yul\":4008:4066   */\n      mstore\n        /* \"#utility.yul\":4100:4134   */\n      0x206e6f7420616c6c6f77656420746f20617070726f766564207472616e736665\n        /* \"#utility.yul\":4095:4097   */\n      0x20\n        /* \"#utility.yul\":4087:4093   */\n      dup3\n        /* \"#utility.yul\":4083:4098   */\n      add\n        /* \"#utility.yul\":4076:4135   */\n      mstore\n        /* \"#utility.yul\":4169:4173   */\n      0x722e000000000000000000000000000000000000000000000000000000000000\n        /* \"#utility.yul\":4164:4166   */\n      0x40\n        /* \"#utility.yul\":4156:4162   */\n      dup3\n        /* \"#utility.yul\":4152:4167   */\n      add\n        /* \"#utility.yul\":4145:4174   */\n      mstore\n        /* \"#utility.yul\":3891:4181   */\n      pop\n      jump\t// out\n        /* \"#utility.yul\":4187:4553   */\n    tag_149:\n        /* \"#utility.yul\":4329:4332   */\n      0x00\n        /* \"#utility.yul\":4350:4417   */\n      tag_216\n        /* \"#utility.yul\":4414:4416   */\n      0x42\n        /* \"#utility.yul\":4409:4412   */\n      dup4\n        /* \"#utility.yul\":4350:4417   */\n      tag_147\n      jump\t// in\n    tag_216:\n        /* \"#utility.yul\":4343:4417   */\n      swap2\n      pop\n        /* \"#utility.yul\":4426:4519   */\n      tag_217\n        /* \"#utility.yul\":4515:4518   */\n      dup3\n        /* \"#utility.yul\":4426:4519   */\n      tag_148\n      jump\t// in\n    tag_217:\n        /* \"#utility.yul\":4544:4546   */\n      0x60\n        /* \"#utility.yul\":4539:4542   */\n      dup3\n        /* \"#utility.yul\":4535:4547   */\n      add\n        /* \"#utility.yul\":4528:4547   */\n      swap1\n      pop\n        /* \"#utility.yul\":4187:4553   */\n      swap2\n      swap1\n      pop\n      jump\t// out\n        /* \"#utility.yul\":4559:4978   */\n    tag_70:\n        /* \"#utility.yul\":4725:4729   */\n      0x00\n        /* \"#utility.yul\":4763:4765   */\n      0x20\n        /* \"#utility.yul\":4752:4761   */\n      dup3\n        /* \"#utility.yul\":4748:4766   */\n      add\n        /* \"#utility.yul\":4740:4766   */\n      swap1\n      pop\n        /* \"#utility.yul\":4812:4821   */\n      dup2\n        /* \"#utility.yul\":4806:4810   */\n      dup2\n        /* \"#utility.yul\":4802:4822   */\n      sub\n        /* \"#utility.yul\":4798:4799   */\n      0x00\n        /* \"#utility.yul\":4787:4796   */\n      dup4\n        /* \"#utility.yul\":4783:4800   */\n      add\n        /* \"#utility.yul\":4776:4823   */\n      mstore\n        /* \"#utility.yul\":4840:4971   */\n      tag_219\n        /* \"#utility.yul\":4966:4970   */\n      dup2\n        /* \"#utility.yul\":4840:4971   */\n      tag_149\n      jump\t// in\n    tag_219:\n        /* \"#utility.yul\":4832:4971   */\n      swap1\n      pop\n        /* \"#utility.yul\":4559:4978   */\n      swap2\n      swap1\n      pop\n      jump\t// out\n        /* \"#utility.yul\":4984:5164   */\n    tag_150:\n        /* \"#utility.yul\":5032:5109   */\n      0x4e487b7100000000000000000000000000000000000000000000000000000000\n        /* \"#utility.yul\":5029:5030   */\n      0x00\n        /* \"#utility.yul\":5022:5110   */\n      mstore\n        /* \"#utility.yul\":5129:5133   */\n      0x11\n        /* \"#utility.yul\":5126:5127   */\n      0x04\n        /* \"#utility.yul\":5119:5134   */\n      mstore\n        /* \"#utility.yul\":5153:5157   */\n      0x24\n        /* \"#utility.yul\":5150:5151   */\n      0x00\n        /* \"#utility.yul\":5143:5158   */\n      revert\n        /* \"#utility.yul\":5170:5403   */\n    tag_73:\n        /* \"#utility.yul\":5209:5212   */\n      0x00\n        /* \"#utility.yul\":5232:5256   */\n      tag_222\n        /* \"#utility.yul\":5250:5255   */\n      dup3\n        /* \"#utility.yul\":5232:5256   */\n      tag_138\n      jump\t// in\n    tag_222:\n        /* \"#utility.yul\":5223:5256   */\n      swap2\n      pop\n        /* \"#utility.yul\":5278:5344   */\n      0xffffffffffffffffffffffffffffffffffffffffffffffffffffffffffffffff\n        /* \"#utility.yul\":5271:5276   */\n      dup3\n        /* \"#utility.yul\":5268:5345   */\n      sub\n        /* \"#utility.yul\":5265:5368   */\n      tag_223\n      jumpi\n        /* \"#utility.yul\":5348:5366   */\n      tag_224\n      tag_150\n      jump\t// in\n    tag_224:\n        /* \"#utility.yul\":5265:5368   */\n    tag_223:\n        /* \"#utility.yul\":5395:5396   */\n      0x01\n        /* \"#utility.yul\":5388:5393   */\n      dup3\n        /* \"#utility.yul\":5384:5397   */\n      add\n        /* \"#utility.yul\":5377:5397   */\n      swap1\n      pop\n        /* \"#utility.yul\":5170:5403   */\n      swap2\n      swap1\n      pop\n      jump\t// out\n        /* \"#utility.yul\":5409:5643   */\n    tag_151:\n        /* \"#utility.yul\":5549:5583   */\n      0x4552524f5220315f496e73756666696369656e742062616c616e636520746f20\n        /* \"#utility.yul\":5545:5546   */\n      0x00\n        /* \"#utility.yul\":5537:5543   */\n      dup3\n        /* \"#utility.yul\":5533:5547   */\n      add\n        /* \"#utility.yul\":5526:5584   */\n      mstore\n        /* \"#utility.yul\":5618:5635   */\n      0x77697468647261772066756e64732e0000000000000000000000000000000000\n        /* \"#utility.yul\":5613:5615   */\n      0x20\n        /* \"#utility.yul\":5605:5611   */\n      dup3\n        /* \"#utility.yul\":5601:5616   */\n      add\n        /* \"#utility.yul\":5594:5636   */\n      mstore\n        /* \"#utility.yul\":5409:5643   */\n      pop\n      jump\t// out\n        /* \"#utility.yul\":5649:6015   */\n    tag_152:\n        /* \"#utility.yul\":5791:5794   */\n      0x00\n        /* \"#utility.yul\":5812:5879   */\n      tag_227\n        /* \"#utility.yul\":5876:5878   */\n      0x2f\n        /* \"#utility.yul\":5871:5874   */\n      dup4\n        /* \"#utility.yul\":5812:5879   */\n      tag_147\n      jump\t// in\n    tag_227:\n        /* \"#utility.yul\":5805:5879   */\n      swap2\n      pop\n        /* \"#utility.yul\":5888:5981   */\n      tag_228\n        /* \"#utility.yul\":5977:5980   */\n      dup3\n        /* \"#utility.yul\":5888:5981   */\n      tag_151\n      jump\t// in\n    tag_228:\n        /* \"#utility.yul\":6006:6008   */\n      0x40\n        /* \"#utility.yul\":6001:6004   */\n      dup3\n        /* \"#utility.yul\":5997:6009   */\n      add\n        /* \"#utility.yul\":5990:6009   */\n      swap1\n      pop\n        /* \"#utility.yul\":5649:6015   */\n      swap2\n      swap1\n      pop\n      jump\t// out\n        /* \"#utility.yul\":6021:6440   */\n    tag_82:\n        /* \"#utility.yul\":6187:6191   */\n      0x00\n        /* \"#utility.yul\":6225:6227   */\n      0x20\n        /* \"#utility.yul\":6214:6223   */\n      dup3\n        /* \"#utility.yul\":6210:6228   */\n      add\n        /* \"#utility.yul\":6202:6228   */\n      swap1\n      pop\n        /* \"#utility.yul\":6274:6283   */\n      dup2\n        /* \"#utility.yul\":6268:6272   */\n      dup2\n        /* \"#utility.yul\":6264:6284   */\n      sub\n        /* \"#utility.yul\":6260:6261   */\n      0x00\n        /* \"#utility.yul\":6249:6258   */\n      dup4\n        /* \"#utility.yul\":6245:6262   */\n      add\n        /* \"#utility.yul\":6238:6285   */\n      mstore\n        /* \"#utility.yul\":6302:6433   */\n      tag_230\n        /* \"#utility.yul\":6428:6432   */\n      dup2\n        /* \"#utility.yul\":6302:6433   */\n      tag_152\n      jump\t// in\n    tag_230:\n        /* \"#utility.yul\":6294:6433   */\n      swap1\n      pop\n        /* \"#utility.yul\":6021:6440   */\n      swap2\n      swap1\n      pop\n      jump\t// out\n        /* \"#utility.yul\":6446:6637   */\n    tag_86:\n        /* \"#utility.yul\":6486:6490   */\n      0x00\n        /* \"#utility.yul\":6506:6526   */\n      tag_232\n        /* \"#utility.yul\":6524:6525   */\n      dup3\n        /* \"#utility.yul\":6506:6526   */\n      tag_138\n      jump\t// in\n    tag_232:\n        /* \"#utility.yul\":6501:6526   */\n      swap2\n      pop\n        /* \"#utility.yul\":6540:6560   */\n      tag_233\n        /* \"#utility.yul\":6558:6559   */\n      dup4\n        /* \"#utility.yul\":6540:6560   */\n      tag_138\n      jump\t// in\n    tag_233:\n        /* \"#utility.yul\":6535:6560   */\n      swap3\n      pop\n        /* \"#utility.yul\":6579:6580   */\n      dup3\n        /* \"#utility.yul\":6576:6577   */\n      dup3\n        /* \"#utility.yul\":6573:6581   */\n      lt\n        /* \"#utility.yul\":6570:6604   */\n      iszero\n      tag_234\n      jumpi\n        /* \"#utility.yul\":6584:6602   */\n      tag_235\n      tag_150\n      jump\t// in\n    tag_235:\n        /* \"#utility.yul\":6570:6604   */\n    tag_234:\n        /* \"#utility.yul\":6629:6630   */\n      dup3\n        /* \"#utility.yul\":6626:6627   */\n      dup3\n        /* \"#utility.yul\":6622:6631   */\n      sub\n        /* \"#utility.yul\":6614:6631   */\n      swap1\n      pop\n        /* \"#utility.yul\":6446:6637   */\n      swap3\n      swap2\n      pop\n      pop\n      jump\t// out\n        /* \"#utility.yul\":6643:6818   */\n    tag_153:\n        /* \"#utility.yul\":6783:6810   */\n      0x41646472657373206973206f776e657220616c72656164792e00000000000000\n        /* \"#utility.yul\":6779:6780   */\n      0x00\n        /* \"#utility.yul\":6771:6777   */\n      dup3\n        /* \"#utility.yul\":6767:6781   */\n      add\n        /* \"#utility.yul\":6760:6811   */\n      mstore\n        /* \"#utility.yul\":6643:6818   */\n      pop\n      jump\t// out\n        /* \"#utility.yul\":6824:7190   */\n    tag_154:\n        /* \"#utility.yul\":6966:6969   */\n      0x00\n        /* \"#utility.yul\":6987:7054   */\n      tag_238\n        /* \"#utility.yul\":7051:7053   */\n      0x19\n        /* \"#utility.yul\":7046:7049   */\n      dup4\n        /* \"#utility.yul\":6987:7054   */\n      tag_147\n      jump\t// in\n    tag_238:\n        /* \"#utility.yul\":6980:7054   */\n      swap2\n      pop\n        /* \"#utility.yul\":7063:7156   */\n      tag_239\n        /* \"#utility.yul\":7152:7155   */\n      dup3\n        /* \"#utility.yul\":7063:7156   */\n      tag_153\n      jump\t// in\n    tag_239:\n        /* \"#utility.yul\":7181:7183   */\n      0x20\n        /* \"#utility.yul\":7176:7179   */\n      dup3\n        /* \"#utility.yul\":7172:7184   */\n      add\n        /* \"#utility.yul\":7165:7184   */\n      swap1\n      pop\n        /* \"#utility.yul\":6824:7190   */\n      swap2\n      swap1\n      pop\n      jump\t// out\n        /* \"#utility.yul\":7196:7615   */\n    tag_94:\n        /* \"#utility.yul\":7362:7366   */\n      0x00\n        /* \"#utility.yul\":7400:7402   */\n      0x20\n        /* \"#utility.yul\":7389:7398   */\n      dup3\n        /* \"#utility.yul\":7385:7403   */\n      add\n        /* \"#utility.yul\":7377:7403   */\n      swap1\n      pop\n        /* \"#utility.yul\":7449:7458   */\n      dup2\n        /* \"#utility.yul\":7443:7447   */\n      dup2\n        /* \"#utility.yul\":7439:7459   */\n      sub\n        /* \"#utility.yul\":7435:7436   */\n      0x00\n        /* \"#utility.yul\":7424:7433   */\n      dup4\n        /* \"#utility.yul\":7420:7437   */\n      add\n        /* \"#utility.yul\":7413:7460   */\n      mstore\n        /* \"#utility.yul\":7477:7608   */\n      tag_241\n        /* \"#utility.yul\":7603:7607   */\n      dup2\n        /* \"#utility.yul\":7477:7608   */\n      tag_154\n      jump\t// in\n    tag_241:\n        /* \"#utility.yul\":7469:7608   */\n      swap1\n      pop\n        /* \"#utility.yul\":7196:7615   */\n      swap2\n      swap1\n      pop\n      jump\t// out\n        /* \"#utility.yul\":7621:7739   */\n    tag_155:\n        /* \"#utility.yul\":7708:7732   */\n      tag_243\n        /* \"#utility.yul\":7726:7731   */\n      dup2\n        /* \"#utility.yul\":7708:7732   */\n      tag_143\n      jump\t// in\n    tag_243:\n        /* \"#utility.yul\":7703:7706   */\n      dup3\n        /* \"#utility.yul\":7696:7733   */\n      mstore\n        /* \"#utility.yul\":7621:7739   */\n      pop\n      pop\n      jump\t// out\n        /* \"#utility.yul\":7745:7967   */\n    tag_96:\n        /* \"#utility.yul\":7838:7842   */\n      0x00\n        /* \"#utility.yul\":7876:7878   */\n      0x20\n        /* \"#utility.yul\":7865:7874   */\n      dup3\n        /* \"#utility.yul\":7861:7879   */\n      add\n        /* \"#utility.yul\":7853:7879   */\n      swap1\n      pop\n        /* \"#utility.yul\":7889:7960   */\n      tag_245\n        /* \"#utility.yul\":7957:7958   */\n      0x00\n        /* \"#utility.yul\":7946:7955   */\n      dup4\n        /* \"#utility.yul\":7942:7959   */\n      add\n        /* \"#utility.yul\":7933:7939   */\n      dup5\n        /* \"#utility.yul\":7889:7960   */\n      tag_155\n      jump\t// in\n    tag_245:\n        /* \"#utility.yul\":7745:7967   */\n      swap3\n      swap2\n      pop\n      pop\n      jump\t// out\n        /* \"#utility.yul\":7973:8207   */\n    tag_156:\n        /* \"#utility.yul\":8113:8147   */\n      0x4552524f5220315f496e73756666696369656e742062616c616e636520746f20\n        /* \"#utility.yul\":8109:8110   */\n      0x00\n        /* \"#utility.yul\":8101:8107   */\n      dup3\n        /* \"#utility.yul\":8097:8111   */\n      add\n        /* \"#utility.yul\":8090:8148   */\n      mstore\n        /* \"#utility.yul\":8182:8199   */\n      0x7472616e736665722066756e64732e0000000000000000000000000000000000\n        /* \"#utility.yul\":8177:8179   */\n      0x20\n        /* \"#utility.yul\":8169:8175   */\n      dup3\n        /* \"#utility.yul\":8165:8180   */\n      add\n        /* \"#utility.yul\":8158:8200   */\n      mstore\n        /* \"#utility.yul\":7973:8207   */\n      pop\n      jump\t// out\n        /* \"#utility.yul\":8213:8579   */\n    tag_157:\n        /* \"#utility.yul\":8355:8358   */\n      0x00\n        /* \"#utility.yul\":8376:8443   */\n      tag_248\n        /* \"#utility.yul\":8440:8442   */\n      0x2f\n        /* \"#utility.yul\":8435:8438   */\n      dup4\n        /* \"#utility.yul\":8376:8443   */\n      tag_147\n      jump\t// in\n    tag_248:\n        /* \"#utility.yul\":8369:8443   */\n      swap2\n      pop\n        /* \"#utility.yul\":8452:8545   */\n      tag_249\n        /* \"#utility.yul\":8541:8544   */\n      dup3\n        /* \"#utility.yul\":8452:8545   */\n      tag_156\n      jump\t// in\n    tag_249:\n        /* \"#utility.yul\":8570:8572   */\n      0x40\n        /* \"#utility.yul\":8565:8568   */\n      dup3\n        /* \"#utility.yul\":8561:8573   */\n      add\n        /* \"#utility.yul\":8554:8573   */\n      swap1\n      pop\n        /* \"#utility.yul\":8213:8579   */\n      swap2\n      swap1\n      pop\n      jump\t// out\n        /* \"#utility.yul\":8585:9004   */\n    tag_103:\n        /* \"#utility.yul\":8751:8755   */\n      0x00\n        /* \"#utility.yul\":8789:8791   */\n      0x20\n        /* \"#utility.yul\":8778:8787   */\n      dup3\n        /* \"#utility.yul\":8774:8792   */\n      add\n        /* \"#utility.yul\":8766:8792   */\n      swap1\n      pop\n        /* \"#utility.yul\":8838:8847   */\n      dup2\n        /* \"#utility.yul\":8832:8836   */\n      dup2\n        /* \"#utility.yul\":8828:8848   */\n      sub\n        /* \"#utility.yul\":8824:8825   */\n      0x00\n        /* \"#utility.yul\":8813:8822   */\n      dup4\n        /* \"#utility.yul\":8809:8826   */\n      add\n        /* \"#utility.yul\":8802:8849   */\n      mstore\n        /* \"#utility.yul\":8866:8997   */\n      tag_251\n        /* \"#utility.yul\":8992:8996   */\n      dup2\n        /* \"#utility.yul\":8866:8997   */\n      tag_157\n      jump\t// in\n    tag_251:\n        /* \"#utility.yul\":8858:8997   */\n      swap1\n      pop\n        /* \"#utility.yul\":8585:9004   */\n      swap2\n      swap1\n      pop\n      jump\t// out\n        /* \"#utility.yul\":9010:9240   */\n    tag_158:\n        /* \"#utility.yul\":9150:9184   */\n      0x4552524f5220325f5468652073656e6465722063616e6e6f7420626520746865\n        /* \"#utility.yul\":9146:9147   */\n      0x00\n        /* \"#utility.yul\":9138:9144   */\n      dup3\n        /* \"#utility.yul\":9134:9148   */\n      add\n        /* \"#utility.yul\":9127:9185   */\n      mstore\n        /* \"#utility.yul\":9219:9232   */\n      0x20726563697069656e742e000000000000000000000000000000000000000000\n        /* \"#utility.yul\":9214:9216   */\n      0x20\n        /* \"#utility.yul\":9206:9212   */\n      dup3\n        /* \"#utility.yul\":9202:9217   */\n      add\n        /* \"#utility.yul\":9195:9233   */\n      mstore\n        /* \"#utility.yul\":9010:9240   */\n      pop\n      jump\t// out\n        /* \"#utility.yul\":9246:9612   */\n    tag_159:\n        /* \"#utility.yul\":9388:9391   */\n      0x00\n        /* \"#utility.yul\":9409:9476   */\n      tag_254\n        /* \"#utility.yul\":9473:9475   */\n      0x2b\n        /* \"#utility.yul\":9468:9471   */\n      dup4\n        /* \"#utility.yul\":9409:9476   */\n      tag_147\n      jump\t// in\n    tag_254:\n        /* \"#utility.yul\":9402:9476   */\n      swap2\n      pop\n        /* \"#utility.yul\":9485:9578   */\n      tag_255\n        /* \"#utility.yul\":9574:9577   */\n      dup3\n        /* \"#utility.yul\":9485:9578   */\n      tag_158\n      jump\t// in\n    tag_255:\n        /* \"#utility.yul\":9603:9605   */\n      0x40\n        /* \"#utility.yul\":9598:9601   */\n      dup3\n        /* \"#utility.yul\":9594:9606   */\n      add\n        /* \"#utility.yul\":9587:9606   */\n      swap1\n      pop\n        /* \"#utility.yul\":9246:9612   */\n      swap2\n      swap1\n      pop\n      jump\t// out\n        /* \"#utility.yul\":9618:10037   */\n    tag_106:\n        /* \"#utility.yul\":9784:9788   */\n      0x00\n        /* \"#utility.yul\":9822:9824   */\n      0x20\n        /* \"#utility.yul\":9811:9820   */\n      dup3\n        /* \"#utility.yul\":9807:9825   */\n      add\n        /* \"#utility.yul\":9799:9825   */\n      swap1\n      pop\n        /* \"#utility.yul\":9871:9880   */\n      dup2\n        /* \"#utility.yul\":9865:9869   */\n      dup2\n        /* \"#utility.yul\":9861:9881   */\n      sub\n        /* \"#utility.yul\":9857:9858   */\n      0x00\n        /* \"#utility.yul\":9846:9855   */\n      dup4\n        /* \"#utility.yul\":9842:9859   */\n      add\n        /* \"#utility.yul\":9835:9882   */\n      mstore\n        /* \"#utility.yul\":9899:10030   */\n      tag_257\n        /* \"#utility.yul\":10025:10029   */\n      dup2\n        /* \"#utility.yul\":9899:10030   */\n      tag_159\n      jump\t// in\n    tag_257:\n        /* \"#utility.yul\":9891:10030   */\n      swap1\n      pop\n        /* \"#utility.yul\":9618:10037   */\n      swap2\n      swap1\n      pop\n      jump\t// out\n        /* \"#utility.yul\":10043:10292   */\n    tag_160:\n        /* \"#utility.yul\":10183:10217   */\n      0x4552524f5220335f596f7520617265206e6f7420616e206f776e657220616e64\n        /* \"#utility.yul\":10179:10180   */\n      0x00\n        /* \"#utility.yul\":10171:10177   */\n      dup3\n        /* \"#utility.yul\":10167:10181   */\n      add\n        /* \"#utility.yul\":10160:10218   */\n      mstore\n        /* \"#utility.yul\":10252:10284   */\n      0x206e6f7420616c6c6f77656420746f206d616b65207472616e736665722e0000\n        /* \"#utility.yul\":10247:10249   */\n      0x20\n        /* \"#utility.yul\":10239:10245   */\n      dup3\n        /* \"#utility.yul\":10235:10250   */\n      add\n        /* \"#utility.yul\":10228:10285   */\n      mstore\n        /* \"#utility.yul\":10043:10292   */\n      pop\n      jump\t// out\n        /* \"#utility.yul\":10298:10664   */\n    tag_161:\n        /* \"#utility.yul\":10440:10443   */\n      0x00\n        /* \"#utility.yul\":10461:10528   */\n      tag_260\n        /* \"#utility.yul\":10525:10527   */\n      0x3e\n        /* \"#utility.yul\":10520:10523   */\n      dup4\n        /* \"#utility.yul\":10461:10528   */\n      tag_147\n      jump\t// in\n    tag_260:\n        /* \"#utility.yul\":10454:10528   */\n      swap2\n      pop\n        /* \"#utility.yul\":10537:10630   */\n      tag_261\n        /* \"#utility.yul\":10626:10629   */\n      dup3\n        /* \"#utility.yul\":10537:10630   */\n      tag_160\n      jump\t// in\n    tag_261:\n        /* \"#utility.yul\":10655:10657   */\n      0x40\n        /* \"#utility.yul\":10650:10653   */\n      dup3\n        /* \"#utility.yul\":10646:10658   */\n      add\n        /* \"#utility.yul\":10639:10658   */\n      swap1\n      pop\n        /* \"#utility.yul\":10298:10664   */\n      swap2\n      swap1\n      pop\n      jump\t// out\n        /* \"#utility.yul\":10670:11089   */\n    tag_110:\n        /* \"#utility.yul\":10836:10840   */\n      0x00\n        /* \"#utility.yul\":10874:10876   */\n      0x20\n        /* \"#utility.yul\":10863:10872   */\n      dup3\n        /* \"#utility.yul\":10859:10877   */\n      add\n        /* \"#utility.yul\":10851:10877   */\n      swap1\n      pop\n        /* \"#utility.yul\":10923:10932   */\n      dup2\n        /* \"#utility.yul\":10917:10921   */\n      dup2\n        /* \"#utility.yul\":10913:10933   */\n      sub\n        /* \"#utility.yul\":10909:10910   */\n      0x00\n        /* \"#utility.yul\":10898:10907   */\n      dup4\n        /* \"#utility.yul\":10894:10911   */\n      add\n        /* \"#utility.yul\":10887:10934   */\n      mstore\n        /* \"#utility.yul\":10951:11082   */\n      tag_263\n        /* \"#utility.yul\":11077:11081   */\n      dup2\n        /* \"#utility.yul\":10951:11082   */\n      tag_161\n      jump\t// in\n    tag_263:\n        /* \"#utility.yul\":10943:11082   */\n      swap1\n      pop\n        /* \"#utility.yul\":10670:11089   */\n      swap2\n      swap1\n      pop\n      jump\t// out\n        /* \"#utility.yul\":11095:11275   */\n    tag_116:\n        /* \"#utility.yul\":11143:11220   */\n      0x4e487b7100000000000000000000000000000000000000000000000000000000\n        /* \"#utility.yul\":11140:11141   */\n      0x00\n        /* \"#utility.yul\":11133:11221   */\n      mstore\n        /* \"#utility.yul\":11240:11244   */\n      0x01\n        /* \"#utility.yul\":11237:11238   */\n      0x04\n        /* \"#utility.yul\":11230:11245   */\n      mstore\n        /* \"#utility.yul\":11264:11268   */\n      0x24\n        /* \"#utility.yul\":11261:11262   */\n      0x00\n        /* \"#utility.yul\":11254:11269   */\n      revert\n        /* \"#utility.yul\":11281:11454   */\n    tag_162:\n        /* \"#utility.yul\":11421:11446   */\n      0x4e6f74206f776e6572206f66206f776e65726c6973742e000000000000000000\n        /* \"#utility.yul\":11417:11418   */\n      0x00\n        /* \"#utility.yul\":11409:11415   */\n      dup3\n        /* \"#utility.yul\":11405:11419   */\n      add\n        /* \"#utility.yul\":11398:11447   */\n      mstore\n        /* \"#utility.yul\":11281:11454   */\n      pop\n      jump\t// out\n        /* \"#utility.yul\":11460:11826   */\n    tag_163:\n        /* \"#utility.yul\":11602:11605   */\n      0x00\n        /* \"#utility.yul\":11623:11690   */\n      tag_267\n        /* \"#utility.yul\":11687:11689   */\n      0x17\n        /* \"#utility.yul\":11682:11685   */\n      dup4\n        /* \"#utility.yul\":11623:11690   */\n      tag_147\n      jump\t// in\n    tag_267:\n        /* \"#utility.yul\":11616:11690   */\n      swap2\n      pop\n        /* \"#utility.yul\":11699:11792   */\n      tag_268\n        /* \"#utility.yul\":11788:11791   */\n      dup3\n        /* \"#utility.yul\":11699:11792   */\n      tag_162\n      jump\t// in\n    tag_268:\n        /* \"#utility.yul\":11817:11819   */\n      0x20\n        /* \"#utility.yul\":11812:11815   */\n      dup3\n        /* \"#utility.yul\":11808:11820   */\n      add\n        /* \"#utility.yul\":11801:11820   */\n      swap1\n      pop\n        /* \"#utility.yul\":11460:11826   */\n      swap2\n      swap1\n      pop\n      jump\t// out\n        /* \"#utility.yul\":11832:12251   */\n    tag_123:\n        /* \"#utility.yul\":11998:12002   */\n      0x00\n        /* \"#utility.yul\":12036:12038   */\n      0x20\n        /* \"#utility.yul\":12025:12034   */\n      dup3\n        /* \"#utility.yul\":12021:12039   */\n      add\n        /* \"#utility.yul\":12013:12039   */\n      swap1\n      pop\n        /* \"#utility.yul\":12085:12094   */\n      dup2\n        /* \"#utility.yul\":12079:12083   */\n      dup2\n        /* \"#utility.yul\":12075:12095   */\n      sub\n        /* \"#utility.yul\":12071:12072   */\n      0x00\n        /* \"#utility.yul\":12060:12069   */\n      dup4\n        /* \"#utility.yul\":12056:12073   */\n      add\n        /* \"#utility.yul\":12049:12096   */\n      mstore\n        /* \"#utility.yul\":12113:12244   */\n      tag_270\n        /* \"#utility.yul\":12239:12243   */\n      dup2\n        /* \"#utility.yul\":12113:12244   */\n      tag_163\n      jump\t// in\n    tag_270:\n        /* \"#utility.yul\":12105:12244   */\n      swap1\n      pop\n        /* \"#utility.yul\":11832:12251   */\n      swap2\n      swap1\n      pop\n      jump\t// out\n        /* \"#utility.yul\":12257:12562   */\n    tag_128:\n        /* \"#utility.yul\":12297:12300   */\n      0x00\n        /* \"#utility.yul\":12316:12336   */\n      tag_272\n        /* \"#utility.yul\":12334:12335   */\n      dup3\n        /* \"#utility.yul\":12316:12336   */\n      tag_138\n      jump\t// in\n    tag_272:\n        /* \"#utility.yul\":12311:12336   */\n      swap2\n      pop\n        /* \"#utility.yul\":12350:12370   */\n      tag_273\n        /* \"#utility.yul\":12368:12369   */\n      dup4\n        /* \"#utility.yul\":12350:12370   */\n      tag_138\n      jump\t// in\n    tag_273:\n        /* \"#utility.yul\":12345:12370   */\n      swap3\n      pop\n        /* \"#utility.yul\":12504:12505   */\n      dup3\n        /* \"#utility.yul\":12436:12502   */\n      0xffffffffffffffffffffffffffffffffffffffffffffffffffffffffffffffff\n        /* \"#utility.yul\":12432:12506   */\n      sub\n        /* \"#utility.yul\":12429:12430   */\n      dup3\n        /* \"#utility.yul\":12426:12507   */\n      gt\n        /* \"#utility.yul\":12423:12530   */\n      iszero\n      tag_274\n      jumpi\n        /* \"#utility.yul\":12510:12528   */\n      tag_275\n      tag_150\n      jump\t// in\n    tag_275:\n        /* \"#utility.yul\":12423:12530   */\n    tag_274:\n        /* \"#utility.yul\":12554:12555   */\n      dup3\n        /* \"#utility.yul\":12551:12552   */\n      dup3\n        /* \"#utility.yul\":12547:12556   */\n      add\n        /* \"#utility.yul\":12540:12556   */\n      swap1\n      pop\n        /* \"#utility.yul\":12257:12562   */\n      swap3\n      swap2\n      pop\n      pop\n      jump\t// out\n\n    auxdata: 0xa26469706673582212207a6e3bd383123eeed48cd9d4f0d389b1025109f97e5fadd85f6a9cafdfa5494d64736f6c634300080d0033\n}\n",
				"bytecode": {
					"linkReferences": {},
					"object": "608060405234801561001057600080fd5b50336000806101000a81548173ffffffffffffffffffffffffffffffffffffffff021916908373ffffffffffffffffffffffffffffffffffffffff160217905550611383806100606000396000f3fe60806040526004361061009b5760003560e01c80635f3b1f3b116100645780635f3b1f3b146101ab5780638b1e24ab146101d4578063a9059cbb146101ff578063b64c14fe14610228578063d07b77b514610251578063d0e30db01461027c5761009b565b8062f76eb4146100a057806312065fe0146100dd578063222a242e146101085780632e1a7d4d146101315780632f54bf6e1461016e575b600080fd5b3480156100ac57600080fd5b506100c760048036038101906100c29190610c5b565b61029a565b6040516100d49190610ca1565b60405180910390f35b3480156100e957600080fd5b506100f261031d565b6040516100ff9190610ca1565b60405180910390f35b34801561011457600080fd5b5061012f600480360381019061012a9190610ce8565b610364565b005b34801561013d57600080fd5b5061015860048036038101906101539190610ce8565b6103c6565b6040516101659190610ca1565b60405180910390f35b34801561017a57600080fd5b5061019560048036038101906101909190610d73565b61052e565b6040516101a29190610daf565b60405180910390f35b3480156101b757600080fd5b506101d260048036038101906101cd9190610d73565b610584565b005b3480156101e057600080fd5b506101e96106b6565b6040516101f69190610ca1565b60405180910390f35b34801561020b57600080fd5b5061022660048036038101906102219190610dca565b6106c0565b005b34801561023457600080fd5b5061024f600480360381019061024a9190610d73565b610959565b005b34801561025d57600080fd5b50610266610a82565b6040516102739190610ca1565b60405180910390f35b610284610a8c565b6040516102919190610ca1565b60405180910390f35b60006102a53361052e565b6102e4576040517f08c379a00000000000000000000000000000000000000000000000000000000081526004016102db90610eb3565b60405180910390fd5b6001151582151503610312576002600081548092919061030390610f02565b91905055506002549050610318565b60025490505b919050565b6000600460003373ffffffffffffffffffffffffffffffffffffffff1673ffffffffffffffffffffffffffffffffffffffff16815260200190815260200160002054905090565b60008054906101000a900473ffffffffffffffffffffffffffffffffffffffff1673ffffffffffffffffffffffffffffffffffffffff163373ffffffffffffffffffffffffffffffffffffffff16146103bc57600080fd5b8060038190555050565b600081600460003373ffffffffffffffffffffffffffffffffffffffff1673ffffffffffffffffffffffffffffffffffffffff16815260200190815260200160002054101561044a576040517f08c379a000000000000000000000000000000000000000000000000000000000815260040161044190610fbc565b60405180910390fd5b3373ffffffffffffffffffffffffffffffffffffffff166108fc839081150290604051600060405180830381858888f19350505050158015610490573d6000803e3d6000fd5b5081600460003373ffffffffffffffffffffffffffffffffffffffff1673ffffffffffffffffffffffffffffffffffffffff16815260200190815260200160002060008282546104e09190610fdc565b92505081905550600460003373ffffffffffffffffffffffffffffffffffffffff1673ffffffffffffffffffffffffffffffffffffffff168152602001908152602001600020549050919050565b6000600160008373ffffffffffffffffffffffffffffffffffffffff1673ffffffffffffffffffffffffffffffffffffffff16815260200190815260200160002060009054906101000a900460ff169050919050565b60008054906101000a900473ffffffffffffffffffffffffffffffffffffffff1673ffffffffffffffffffffffffffffffffffffffff163373ffffffffffffffffffffffffffffffffffffffff16146105dc57600080fd5b6105e58161052e565b15610625576040517f08c379a000000000000000000000000000000000000000000000000000000000815260040161061c9061105c565b60405180910390fd5b60018060008373ffffffffffffffffffffffffffffffffffffffff1673ffffffffffffffffffffffffffffffffffffffff16815260200190815260200160002060006101000a81548160ff0219169083151502179055507f994a936646fe87ffe4f1e469d3d6aa417d6b855598397f323de5b449f765f0c3816040516106ab919061108b565b60405180910390a150565b6000600354905090565b60008054906101000a900473ffffffffffffffffffffffffffffffffffffffff1673ffffffffffffffffffffffffffffffffffffffff163373ffffffffffffffffffffffffffffffffffffffff161461071857600080fd5b80600460003373ffffffffffffffffffffffffffffffffffffffff1673ffffffffffffffffffffffffffffffffffffffff16815260200190815260200160002054101561079a576040517f08c379a000000000000000000000000000000000000000000000000000000000815260040161079190611118565b60405180910390fd5b8173ffffffffffffffffffffffffffffffffffffffff163373ffffffffffffffffffffffffffffffffffffffff1603610808576040517f08c379a00000000000000000000000000000000000000000000000000000000081526004016107ff906111aa565b60405180910390fd5b6108113361052e565b610850576040517f08c379a00000000000000000000000000000000000000000000000000000000081526004016108479061123c565b60405180910390fd5b6000600460003373ffffffffffffffffffffffffffffffffffffffff1673ffffffffffffffffffffffffffffffffffffffff16815260200190815260200160002054905061089f338484610b6d565b818373ffffffffffffffffffffffffffffffffffffffff163373ffffffffffffffffffffffffffffffffffffffff167f3573881c639e018e0c3ba3a7d19063f6a7a8205d54eb828319a7f98db00426a060405160405180910390a481816109069190610fdc565b600460003373ffffffffffffffffffffffffffffffffffffffff1673ffffffffffffffffffffffffffffffffffffffff16815260200190815260200160002054146109545761095361125c565b5b505050565b60008054906101000a900473ffffffffffffffffffffffffffffffffffffffff1673ffffffffffffffffffffffffffffffffffffffff163373ffffffffffffffffffffffffffffffffffffffff16146109b157600080fd5b6109ba8161052e565b6109f9576040517f08c379a00000000000000000000000000000000000000000000000000000000081526004016109f0906112d7565b60405180910390fd5b600160008273ffffffffffffffffffffffffffffffffffffffff1673ffffffffffffffffffffffffffffffffffffffff16815260200190815260200160002060006101000a81549060ff02191690557f58619076adf5bb0943d100ef88d52d7c3fd691b19d3a9071b555b651fbf418da81604051610a77919061108b565b60405180910390a150565b6000600254905090565b600034600460003373ffffffffffffffffffffffffffffffffffffffff1673ffffffffffffffffffffffffffffffffffffffff1681526020019081526020016000206000828254610add91906112f7565b925050819055503373ffffffffffffffffffffffffffffffffffffffff16347fa23831066066ec8812cc52afc91a52134a8b50c9209b68c276be679f4073d95d60405160405180910390a3600460003373ffffffffffffffffffffffffffffffffffffffff1673ffffffffffffffffffffffffffffffffffffffff16815260200190815260200160002054905090565b80600460008573ffffffffffffffffffffffffffffffffffffffff1673ffffffffffffffffffffffffffffffffffffffff1681526020019081526020016000206000828254610bbc9190610fdc565b9250508190555080600460008473ffffffffffffffffffffffffffffffffffffffff1673ffffffffffffffffffffffffffffffffffffffff1681526020019081526020016000206000828254610c1291906112f7565b92505081905550505050565b600080fd5b60008115159050919050565b610c3881610c23565b8114610c4357600080fd5b50565b600081359050610c5581610c2f565b92915050565b600060208284031215610c7157610c70610c1e565b5b6000610c7f84828501610c46565b91505092915050565b6000819050919050565b610c9b81610c88565b82525050565b6000602082019050610cb66000830184610c92565b92915050565b610cc581610c88565b8114610cd057600080fd5b50565b600081359050610ce281610cbc565b92915050565b600060208284031215610cfe57610cfd610c1e565b5b6000610d0c84828501610cd3565b91505092915050565b600073ffffffffffffffffffffffffffffffffffffffff82169050919050565b6000610d4082610d15565b9050919050565b610d5081610d35565b8114610d5b57600080fd5b50565b600081359050610d6d81610d47565b92915050565b600060208284031215610d8957610d88610c1e565b5b6000610d9784828501610d5e565b91505092915050565b610da981610c23565b82525050565b6000602082019050610dc46000830184610da0565b92915050565b60008060408385031215610de157610de0610c1e565b5b6000610def85828601610d5e565b9250506020610e0085828601610cd3565b9150509250929050565b600082825260208201905092915050565b7f4552524f5220335f596f7520617265206e6f7420616e206f776e657220616e6460008201527f206e6f7420616c6c6f77656420746f20617070726f766564207472616e73666560208201527f722e000000000000000000000000000000000000000000000000000000000000604082015250565b6000610e9d604283610e0a565b9150610ea882610e1b565b606082019050919050565b60006020820190508181036000830152610ecc81610e90565b9050919050565b7f4e487b7100000000000000000000000000000000000000000000000000000000600052601160045260246000fd5b6000610f0d82610c88565b91507fffffffffffffffffffffffffffffffffffffffffffffffffffffffffffffffff8203610f3f57610f3e610ed3565b5b600182019050919050565b7f4552524f5220315f496e73756666696369656e742062616c616e636520746f2060008201527f77697468647261772066756e64732e0000000000000000000000000000000000602082015250565b6000610fa6602f83610e0a565b9150610fb182610f4a565b604082019050919050565b60006020820190508181036000830152610fd581610f99565b9050919050565b6000610fe782610c88565b9150610ff283610c88565b92508282101561100557611004610ed3565b5b828203905092915050565b7f41646472657373206973206f776e657220616c72656164792e00000000000000600082015250565b6000611046601983610e0a565b915061105182611010565b602082019050919050565b6000602082019050818103600083015261107581611039565b9050919050565b61108581610d35565b82525050565b60006020820190506110a0600083018461107c565b92915050565b7f4552524f5220315f496e73756666696369656e742062616c616e636520746f2060008201527f7472616e736665722066756e64732e0000000000000000000000000000000000602082015250565b6000611102602f83610e0a565b915061110d826110a6565b604082019050919050565b60006020820190508181036000830152611131816110f5565b9050919050565b7f4552524f5220325f5468652073656e6465722063616e6e6f742062652074686560008201527f20726563697069656e742e000000000000000000000000000000000000000000602082015250565b6000611194602b83610e0a565b915061119f82611138565b604082019050919050565b600060208201905081810360008301526111c381611187565b9050919050565b7f4552524f5220335f596f7520617265206e6f7420616e206f776e657220616e6460008201527f206e6f7420616c6c6f77656420746f206d616b65207472616e736665722e0000602082015250565b6000611226603e83610e0a565b9150611231826111ca565b604082019050919050565b6000602082019050818103600083015261125581611219565b9050919050565b7f4e487b7100000000000000000000000000000000000000000000000000000000600052600160045260246000fd5b7f4e6f74206f776e6572206f66206f776e65726c6973742e000000000000000000600082015250565b60006112c1601783610e0a565b91506112cc8261128b565b602082019050919050565b600060208201905081810360008301526112f0816112b4565b9050919050565b600061130282610c88565b915061130d83610c88565b9250827fffffffffffffffffffffffffffffffffffffffffffffffffffffffffffffffff0382111561134257611341610ed3565b5b82820190509291505056fea26469706673582212207a6e3bd383123eeed48cd9d4f0d389b1025109f97e5fadd85f6a9cafdfa5494d64736f6c634300080d0033",
					"opcodes": "PUSH1 0x80 PUSH1 0x40 MSTORE CALLVALUE DUP1 ISZERO PUSH2 0x10 JUMPI PUSH1 0x0 DUP1 REVERT JUMPDEST POP CALLER PUSH1 0x0 DUP1 PUSH2 0x100 EXP DUP2 SLOAD DUP2 PUSH20 0xFFFFFFFFFFFFFFFFFFFFFFFFFFFFFFFFFFFFFFFF MUL NOT AND SWAP1 DUP4 PUSH20 0xFFFFFFFFFFFFFFFFFFFFFFFFFFFFFFFFFFFFFFFF AND MUL OR SWAP1 SSTORE POP PUSH2 0x1383 DUP1 PUSH2 0x60 PUSH1 0x0 CODECOPY PUSH1 0x0 RETURN INVALID PUSH1 0x80 PUSH1 0x40 MSTORE PUSH1 0x4 CALLDATASIZE LT PUSH2 0x9B JUMPI PUSH1 0x0 CALLDATALOAD PUSH1 0xE0 SHR DUP1 PUSH4 0x5F3B1F3B GT PUSH2 0x64 JUMPI DUP1 PUSH4 0x5F3B1F3B EQ PUSH2 0x1AB JUMPI DUP1 PUSH4 0x8B1E24AB EQ PUSH2 0x1D4 JUMPI DUP1 PUSH4 0xA9059CBB EQ PUSH2 0x1FF JUMPI DUP1 PUSH4 0xB64C14FE EQ PUSH2 0x228 JUMPI DUP1 PUSH4 0xD07B77B5 EQ PUSH2 0x251 JUMPI DUP1 PUSH4 0xD0E30DB0 EQ PUSH2 0x27C JUMPI PUSH2 0x9B JUMP JUMPDEST DUP1 PUSH3 0xF76EB4 EQ PUSH2 0xA0 JUMPI DUP1 PUSH4 0x12065FE0 EQ PUSH2 0xDD JUMPI DUP1 PUSH4 0x222A242E EQ PUSH2 0x108 JUMPI DUP1 PUSH4 0x2E1A7D4D EQ PUSH2 0x131 JUMPI DUP1 PUSH4 0x2F54BF6E EQ PUSH2 0x16E JUMPI JUMPDEST PUSH1 0x0 DUP1 REVERT JUMPDEST CALLVALUE DUP1 ISZERO PUSH2 0xAC JUMPI PUSH1 0x0 DUP1 REVERT JUMPDEST POP PUSH2 0xC7 PUSH1 0x4 DUP1 CALLDATASIZE SUB DUP2 ADD SWAP1 PUSH2 0xC2 SWAP2 SWAP1 PUSH2 0xC5B JUMP JUMPDEST PUSH2 0x29A JUMP JUMPDEST PUSH1 0x40 MLOAD PUSH2 0xD4 SWAP2 SWAP1 PUSH2 0xCA1 JUMP JUMPDEST PUSH1 0x40 MLOAD DUP1 SWAP2 SUB SWAP1 RETURN JUMPDEST CALLVALUE DUP1 ISZERO PUSH2 0xE9 JUMPI PUSH1 0x0 DUP1 REVERT JUMPDEST POP PUSH2 0xF2 PUSH2 0x31D JUMP JUMPDEST PUSH1 0x40 MLOAD PUSH2 0xFF SWAP2 SWAP1 PUSH2 0xCA1 JUMP JUMPDEST PUSH1 0x40 MLOAD DUP1 SWAP2 SUB SWAP1 RETURN JUMPDEST CALLVALUE DUP1 ISZERO PUSH2 0x114 JUMPI PUSH1 0x0 DUP1 REVERT JUMPDEST POP PUSH2 0x12F PUSH1 0x4 DUP1 CALLDATASIZE SUB DUP2 ADD SWAP1 PUSH2 0x12A SWAP2 SWAP1 PUSH2 0xCE8 JUMP JUMPDEST PUSH2 0x364 JUMP JUMPDEST STOP JUMPDEST CALLVALUE DUP1 ISZERO PUSH2 0x13D JUMPI PUSH1 0x0 DUP1 REVERT JUMPDEST POP PUSH2 0x158 PUSH1 0x4 DUP1 CALLDATASIZE SUB DUP2 ADD SWAP1 PUSH2 0x153 SWAP2 SWAP1 PUSH2 0xCE8 JUMP JUMPDEST PUSH2 0x3C6 JUMP JUMPDEST PUSH1 0x40 MLOAD PUSH2 0x165 SWAP2 SWAP1 PUSH2 0xCA1 JUMP JUMPDEST PUSH1 0x40 MLOAD DUP1 SWAP2 SUB SWAP1 RETURN JUMPDEST CALLVALUE DUP1 ISZERO PUSH2 0x17A JUMPI PUSH1 0x0 DUP1 REVERT JUMPDEST POP PUSH2 0x195 PUSH1 0x4 DUP1 CALLDATASIZE SUB DUP2 ADD SWAP1 PUSH2 0x190 SWAP2 SWAP1 PUSH2 0xD73 JUMP JUMPDEST PUSH2 0x52E JUMP JUMPDEST PUSH1 0x40 MLOAD PUSH2 0x1A2 SWAP2 SWAP1 PUSH2 0xDAF JUMP JUMPDEST PUSH1 0x40 MLOAD DUP1 SWAP2 SUB SWAP1 RETURN JUMPDEST CALLVALUE DUP1 ISZERO PUSH2 0x1B7 JUMPI PUSH1 0x0 DUP1 REVERT JUMPDEST POP PUSH2 0x1D2 PUSH1 0x4 DUP1 CALLDATASIZE SUB DUP2 ADD SWAP1 PUSH2 0x1CD SWAP2 SWAP1 PUSH2 0xD73 JUMP JUMPDEST PUSH2 0x584 JUMP JUMPDEST STOP JUMPDEST CALLVALUE DUP1 ISZERO PUSH2 0x1E0 JUMPI PUSH1 0x0 DUP1 REVERT JUMPDEST POP PUSH2 0x1E9 PUSH2 0x6B6 JUMP JUMPDEST PUSH1 0x40 MLOAD PUSH2 0x1F6 SWAP2 SWAP1 PUSH2 0xCA1 JUMP JUMPDEST PUSH1 0x40 MLOAD DUP1 SWAP2 SUB SWAP1 RETURN JUMPDEST CALLVALUE DUP1 ISZERO PUSH2 0x20B JUMPI PUSH1 0x0 DUP1 REVERT JUMPDEST POP PUSH2 0x226 PUSH1 0x4 DUP1 CALLDATASIZE SUB DUP2 ADD SWAP1 PUSH2 0x221 SWAP2 SWAP1 PUSH2 0xDCA JUMP JUMPDEST PUSH2 0x6C0 JUMP JUMPDEST STOP JUMPDEST CALLVALUE DUP1 ISZERO PUSH2 0x234 JUMPI PUSH1 0x0 DUP1 REVERT JUMPDEST POP PUSH2 0x24F PUSH1 0x4 DUP1 CALLDATASIZE SUB DUP2 ADD SWAP1 PUSH2 0x24A SWAP2 SWAP1 PUSH2 0xD73 JUMP JUMPDEST PUSH2 0x959 JUMP JUMPDEST STOP JUMPDEST CALLVALUE DUP1 ISZERO PUSH2 0x25D JUMPI PUSH1 0x0 DUP1 REVERT JUMPDEST POP PUSH2 0x266 PUSH2 0xA82 JUMP JUMPDEST PUSH1 0x40 MLOAD PUSH2 0x273 SWAP2 SWAP1 PUSH2 0xCA1 JUMP JUMPDEST PUSH1 0x40 MLOAD DUP1 SWAP2 SUB SWAP1 RETURN JUMPDEST PUSH2 0x284 PUSH2 0xA8C JUMP JUMPDEST PUSH1 0x40 MLOAD PUSH2 0x291 SWAP2 SWAP1 PUSH2 0xCA1 JUMP JUMPDEST PUSH1 0x40 MLOAD DUP1 SWAP2 SUB SWAP1 RETURN JUMPDEST PUSH1 0x0 PUSH2 0x2A5 CALLER PUSH2 0x52E JUMP JUMPDEST PUSH2 0x2E4 JUMPI PUSH1 0x40 MLOAD PUSH32 0x8C379A000000000000000000000000000000000000000000000000000000000 DUP2 MSTORE PUSH1 0x4 ADD PUSH2 0x2DB SWAP1 PUSH2 0xEB3 JUMP JUMPDEST PUSH1 0x40 MLOAD DUP1 SWAP2 SUB SWAP1 REVERT JUMPDEST PUSH1 0x1 ISZERO ISZERO DUP3 ISZERO ISZERO SUB PUSH2 0x312 JUMPI PUSH1 0x2 PUSH1 0x0 DUP2 SLOAD DUP1 SWAP3 SWAP2 SWAP1 PUSH2 0x303 SWAP1 PUSH2 0xF02 JUMP JUMPDEST SWAP2 SWAP1 POP SSTORE POP PUSH1 0x2 SLOAD SWAP1 POP PUSH2 0x318 JUMP JUMPDEST PUSH1 0x2 SLOAD SWAP1 POP JUMPDEST SWAP2 SWAP1 POP JUMP JUMPDEST PUSH1 0x0 PUSH1 0x4 PUSH1 0x0 CALLER PUSH20 0xFFFFFFFFFFFFFFFFFFFFFFFFFFFFFFFFFFFFFFFF AND PUSH20 0xFFFFFFFFFFFFFFFFFFFFFFFFFFFFFFFFFFFFFFFF AND DUP2 MSTORE PUSH1 0x20 ADD SWAP1 DUP2 MSTORE PUSH1 0x20 ADD PUSH1 0x0 KECCAK256 SLOAD SWAP1 POP SWAP1 JUMP JUMPDEST PUSH1 0x0 DUP1 SLOAD SWAP1 PUSH2 0x100 EXP SWAP1 DIV PUSH20 0xFFFFFFFFFFFFFFFFFFFFFFFFFFFFFFFFFFFFFFFF AND PUSH20 0xFFFFFFFFFFFFFFFFFFFFFFFFFFFFFFFFFFFFFFFF AND CALLER PUSH20 0xFFFFFFFFFFFFFFFFFFFFFFFFFFFFFFFFFFFFFFFF AND EQ PUSH2 0x3BC JUMPI PUSH1 0x0 DUP1 REVERT JUMPDEST DUP1 PUSH1 0x3 DUP2 SWAP1 SSTORE POP POP JUMP JUMPDEST PUSH1 0x0 DUP2 PUSH1 0x4 PUSH1 0x0 CALLER PUSH20 0xFFFFFFFFFFFFFFFFFFFFFFFFFFFFFFFFFFFFFFFF AND PUSH20 0xFFFFFFFFFFFFFFFFFFFFFFFFFFFFFFFFFFFFFFFF AND DUP2 MSTORE PUSH1 0x20 ADD SWAP1 DUP2 MSTORE PUSH1 0x20 ADD PUSH1 0x0 KECCAK256 SLOAD LT ISZERO PUSH2 0x44A JUMPI PUSH1 0x40 MLOAD PUSH32 0x8C379A000000000000000000000000000000000000000000000000000000000 DUP2 MSTORE PUSH1 0x4 ADD PUSH2 0x441 SWAP1 PUSH2 0xFBC JUMP JUMPDEST PUSH1 0x40 MLOAD DUP1 SWAP2 SUB SWAP1 REVERT JUMPDEST CALLER PUSH20 0xFFFFFFFFFFFFFFFFFFFFFFFFFFFFFFFFFFFFFFFF AND PUSH2 0x8FC DUP4 SWAP1 DUP2 ISZERO MUL SWAP1 PUSH1 0x40 MLOAD PUSH1 0x0 PUSH1 0x40 MLOAD DUP1 DUP4 SUB DUP2 DUP6 DUP9 DUP9 CALL SWAP4 POP POP POP POP ISZERO DUP1 ISZERO PUSH2 0x490 JUMPI RETURNDATASIZE PUSH1 0x0 DUP1 RETURNDATACOPY RETURNDATASIZE PUSH1 0x0 REVERT JUMPDEST POP DUP2 PUSH1 0x4 PUSH1 0x0 CALLER PUSH20 0xFFFFFFFFFFFFFFFFFFFFFFFFFFFFFFFFFFFFFFFF AND PUSH20 0xFFFFFFFFFFFFFFFFFFFFFFFFFFFFFFFFFFFFFFFF AND DUP2 MSTORE PUSH1 0x20 ADD SWAP1 DUP2 MSTORE PUSH1 0x20 ADD PUSH1 0x0 KECCAK256 PUSH1 0x0 DUP3 DUP3 SLOAD PUSH2 0x4E0 SWAP2 SWAP1 PUSH2 0xFDC JUMP JUMPDEST SWAP3 POP POP DUP2 SWAP1 SSTORE POP PUSH1 0x4 PUSH1 0x0 CALLER PUSH20 0xFFFFFFFFFFFFFFFFFFFFFFFFFFFFFFFFFFFFFFFF AND PUSH20 0xFFFFFFFFFFFFFFFFFFFFFFFFFFFFFFFFFFFFFFFF AND DUP2 MSTORE PUSH1 0x20 ADD SWAP1 DUP2 MSTORE PUSH1 0x20 ADD PUSH1 0x0 KECCAK256 SLOAD SWAP1 POP SWAP2 SWAP1 POP JUMP JUMPDEST PUSH1 0x0 PUSH1 0x1 PUSH1 0x0 DUP4 PUSH20 0xFFFFFFFFFFFFFFFFFFFFFFFFFFFFFFFFFFFFFFFF AND PUSH20 0xFFFFFFFFFFFFFFFFFFFFFFFFFFFFFFFFFFFFFFFF AND DUP2 MSTORE PUSH1 0x20 ADD SWAP1 DUP2 MSTORE PUSH1 0x20 ADD PUSH1 0x0 KECCAK256 PUSH1 0x0 SWAP1 SLOAD SWAP1 PUSH2 0x100 EXP SWAP1 DIV PUSH1 0xFF AND SWAP1 POP SWAP2 SWAP1 POP JUMP JUMPDEST PUSH1 0x0 DUP1 SLOAD SWAP1 PUSH2 0x100 EXP SWAP1 DIV PUSH20 0xFFFFFFFFFFFFFFFFFFFFFFFFFFFFFFFFFFFFFFFF AND PUSH20 0xFFFFFFFFFFFFFFFFFFFFFFFFFFFFFFFFFFFFFFFF AND CALLER PUSH20 0xFFFFFFFFFFFFFFFFFFFFFFFFFFFFFFFFFFFFFFFF AND EQ PUSH2 0x5DC JUMPI PUSH1 0x0 DUP1 REVERT JUMPDEST PUSH2 0x5E5 DUP2 PUSH2 0x52E JUMP JUMPDEST ISZERO PUSH2 0x625 JUMPI PUSH1 0x40 MLOAD PUSH32 0x8C379A000000000000000000000000000000000000000000000000000000000 DUP2 MSTORE PUSH1 0x4 ADD PUSH2 0x61C SWAP1 PUSH2 0x105C JUMP JUMPDEST PUSH1 0x40 MLOAD DUP1 SWAP2 SUB SWAP1 REVERT JUMPDEST PUSH1 0x1 DUP1 PUSH1 0x0 DUP4 PUSH20 0xFFFFFFFFFFFFFFFFFFFFFFFFFFFFFFFFFFFFFFFF AND PUSH20 0xFFFFFFFFFFFFFFFFFFFFFFFFFFFFFFFFFFFFFFFF AND DUP2 MSTORE PUSH1 0x20 ADD SWAP1 DUP2 MSTORE PUSH1 0x20 ADD PUSH1 0x0 KECCAK256 PUSH1 0x0 PUSH2 0x100 EXP DUP2 SLOAD DUP2 PUSH1 0xFF MUL NOT AND SWAP1 DUP4 ISZERO ISZERO MUL OR SWAP1 SSTORE POP PUSH32 0x994A936646FE87FFE4F1E469D3D6AA417D6B855598397F323DE5B449F765F0C3 DUP2 PUSH1 0x40 MLOAD PUSH2 0x6AB SWAP2 SWAP1 PUSH2 0x108B JUMP JUMPDEST PUSH1 0x40 MLOAD DUP1 SWAP2 SUB SWAP1 LOG1 POP JUMP JUMPDEST PUSH1 0x0 PUSH1 0x3 SLOAD SWAP1 POP SWAP1 JUMP JUMPDEST PUSH1 0x0 DUP1 SLOAD SWAP1 PUSH2 0x100 EXP SWAP1 DIV PUSH20 0xFFFFFFFFFFFFFFFFFFFFFFFFFFFFFFFFFFFFFFFF AND PUSH20 0xFFFFFFFFFFFFFFFFFFFFFFFFFFFFFFFFFFFFFFFF AND CALLER PUSH20 0xFFFFFFFFFFFFFFFFFFFFFFFFFFFFFFFFFFFFFFFF AND EQ PUSH2 0x718 JUMPI PUSH1 0x0 DUP1 REVERT JUMPDEST DUP1 PUSH1 0x4 PUSH1 0x0 CALLER PUSH20 0xFFFFFFFFFFFFFFFFFFFFFFFFFFFFFFFFFFFFFFFF AND PUSH20 0xFFFFFFFFFFFFFFFFFFFFFFFFFFFFFFFFFFFFFFFF AND DUP2 MSTORE PUSH1 0x20 ADD SWAP1 DUP2 MSTORE PUSH1 0x20 ADD PUSH1 0x0 KECCAK256 SLOAD LT ISZERO PUSH2 0x79A JUMPI PUSH1 0x40 MLOAD PUSH32 0x8C379A000000000000000000000000000000000000000000000000000000000 DUP2 MSTORE PUSH1 0x4 ADD PUSH2 0x791 SWAP1 PUSH2 0x1118 JUMP JUMPDEST PUSH1 0x40 MLOAD DUP1 SWAP2 SUB SWAP1 REVERT JUMPDEST DUP2 PUSH20 0xFFFFFFFFFFFFFFFFFFFFFFFFFFFFFFFFFFFFFFFF AND CALLER PUSH20 0xFFFFFFFFFFFFFFFFFFFFFFFFFFFFFFFFFFFFFFFF AND SUB PUSH2 0x808 JUMPI PUSH1 0x40 MLOAD PUSH32 0x8C379A000000000000000000000000000000000000000000000000000000000 DUP2 MSTORE PUSH1 0x4 ADD PUSH2 0x7FF SWAP1 PUSH2 0x11AA JUMP JUMPDEST PUSH1 0x40 MLOAD DUP1 SWAP2 SUB SWAP1 REVERT JUMPDEST PUSH2 0x811 CALLER PUSH2 0x52E JUMP JUMPDEST PUSH2 0x850 JUMPI PUSH1 0x40 MLOAD PUSH32 0x8C379A000000000000000000000000000000000000000000000000000000000 DUP2 MSTORE PUSH1 0x4 ADD PUSH2 0x847 SWAP1 PUSH2 0x123C JUMP JUMPDEST PUSH1 0x40 MLOAD DUP1 SWAP2 SUB SWAP1 REVERT JUMPDEST PUSH1 0x0 PUSH1 0x4 PUSH1 0x0 CALLER PUSH20 0xFFFFFFFFFFFFFFFFFFFFFFFFFFFFFFFFFFFFFFFF AND PUSH20 0xFFFFFFFFFFFFFFFFFFFFFFFFFFFFFFFFFFFFFFFF AND DUP2 MSTORE PUSH1 0x20 ADD SWAP1 DUP2 MSTORE PUSH1 0x20 ADD PUSH1 0x0 KECCAK256 SLOAD SWAP1 POP PUSH2 0x89F CALLER DUP5 DUP5 PUSH2 0xB6D JUMP JUMPDEST DUP2 DUP4 PUSH20 0xFFFFFFFFFFFFFFFFFFFFFFFFFFFFFFFFFFFFFFFF AND CALLER PUSH20 0xFFFFFFFFFFFFFFFFFFFFFFFFFFFFFFFFFFFFFFFF AND PUSH32 0x3573881C639E018E0C3BA3A7D19063F6A7A8205D54EB828319A7F98DB00426A0 PUSH1 0x40 MLOAD PUSH1 0x40 MLOAD DUP1 SWAP2 SUB SWAP1 LOG4 DUP2 DUP2 PUSH2 0x906 SWAP2 SWAP1 PUSH2 0xFDC JUMP JUMPDEST PUSH1 0x4 PUSH1 0x0 CALLER PUSH20 0xFFFFFFFFFFFFFFFFFFFFFFFFFFFFFFFFFFFFFFFF AND PUSH20 0xFFFFFFFFFFFFFFFFFFFFFFFFFFFFFFFFFFFFFFFF AND DUP2 MSTORE PUSH1 0x20 ADD SWAP1 DUP2 MSTORE PUSH1 0x20 ADD PUSH1 0x0 KECCAK256 SLOAD EQ PUSH2 0x954 JUMPI PUSH2 0x953 PUSH2 0x125C JUMP JUMPDEST JUMPDEST POP POP POP JUMP JUMPDEST PUSH1 0x0 DUP1 SLOAD SWAP1 PUSH2 0x100 EXP SWAP1 DIV PUSH20 0xFFFFFFFFFFFFFFFFFFFFFFFFFFFFFFFFFFFFFFFF AND PUSH20 0xFFFFFFFFFFFFFFFFFFFFFFFFFFFFFFFFFFFFFFFF AND CALLER PUSH20 0xFFFFFFFFFFFFFFFFFFFFFFFFFFFFFFFFFFFFFFFF AND EQ PUSH2 0x9B1 JUMPI PUSH1 0x0 DUP1 REVERT JUMPDEST PUSH2 0x9BA DUP2 PUSH2 0x52E JUMP JUMPDEST PUSH2 0x9F9 JUMPI PUSH1 0x40 MLOAD PUSH32 0x8C379A000000000000000000000000000000000000000000000000000000000 DUP2 MSTORE PUSH1 0x4 ADD PUSH2 0x9F0 SWAP1 PUSH2 0x12D7 JUMP JUMPDEST PUSH1 0x40 MLOAD DUP1 SWAP2 SUB SWAP1 REVERT JUMPDEST PUSH1 0x1 PUSH1 0x0 DUP3 PUSH20 0xFFFFFFFFFFFFFFFFFFFFFFFFFFFFFFFFFFFFFFFF AND PUSH20 0xFFFFFFFFFFFFFFFFFFFFFFFFFFFFFFFFFFFFFFFF AND DUP2 MSTORE PUSH1 0x20 ADD SWAP1 DUP2 MSTORE PUSH1 0x20 ADD PUSH1 0x0 KECCAK256 PUSH1 0x0 PUSH2 0x100 EXP DUP2 SLOAD SWAP1 PUSH1 0xFF MUL NOT AND SWAP1 SSTORE PUSH32 0x58619076ADF5BB0943D100EF88D52D7C3FD691B19D3A9071B555B651FBF418DA DUP2 PUSH1 0x40 MLOAD PUSH2 0xA77 SWAP2 SWAP1 PUSH2 0x108B JUMP JUMPDEST PUSH1 0x40 MLOAD DUP1 SWAP2 SUB SWAP1 LOG1 POP JUMP JUMPDEST PUSH1 0x0 PUSH1 0x2 SLOAD SWAP1 POP SWAP1 JUMP JUMPDEST PUSH1 0x0 CALLVALUE PUSH1 0x4 PUSH1 0x0 CALLER PUSH20 0xFFFFFFFFFFFFFFFFFFFFFFFFFFFFFFFFFFFFFFFF AND PUSH20 0xFFFFFFFFFFFFFFFFFFFFFFFFFFFFFFFFFFFFFFFF AND DUP2 MSTORE PUSH1 0x20 ADD SWAP1 DUP2 MSTORE PUSH1 0x20 ADD PUSH1 0x0 KECCAK256 PUSH1 0x0 DUP3 DUP3 SLOAD PUSH2 0xADD SWAP2 SWAP1 PUSH2 0x12F7 JUMP JUMPDEST SWAP3 POP POP DUP2 SWAP1 SSTORE POP CALLER PUSH20 0xFFFFFFFFFFFFFFFFFFFFFFFFFFFFFFFFFFFFFFFF AND CALLVALUE PUSH32 0xA23831066066EC8812CC52AFC91A52134A8B50C9209B68C276BE679F4073D95D PUSH1 0x40 MLOAD PUSH1 0x40 MLOAD DUP1 SWAP2 SUB SWAP1 LOG3 PUSH1 0x4 PUSH1 0x0 CALLER PUSH20 0xFFFFFFFFFFFFFFFFFFFFFFFFFFFFFFFFFFFFFFFF AND PUSH20 0xFFFFFFFFFFFFFFFFFFFFFFFFFFFFFFFFFFFFFFFF AND DUP2 MSTORE PUSH1 0x20 ADD SWAP1 DUP2 MSTORE PUSH1 0x20 ADD PUSH1 0x0 KECCAK256 SLOAD SWAP1 POP SWAP1 JUMP JUMPDEST DUP1 PUSH1 0x4 PUSH1 0x0 DUP6 PUSH20 0xFFFFFFFFFFFFFFFFFFFFFFFFFFFFFFFFFFFFFFFF AND PUSH20 0xFFFFFFFFFFFFFFFFFFFFFFFFFFFFFFFFFFFFFFFF AND DUP2 MSTORE PUSH1 0x20 ADD SWAP1 DUP2 MSTORE PUSH1 0x20 ADD PUSH1 0x0 KECCAK256 PUSH1 0x0 DUP3 DUP3 SLOAD PUSH2 0xBBC SWAP2 SWAP1 PUSH2 0xFDC JUMP JUMPDEST SWAP3 POP POP DUP2 SWAP1 SSTORE POP DUP1 PUSH1 0x4 PUSH1 0x0 DUP5 PUSH20 0xFFFFFFFFFFFFFFFFFFFFFFFFFFFFFFFFFFFFFFFF AND PUSH20 0xFFFFFFFFFFFFFFFFFFFFFFFFFFFFFFFFFFFFFFFF AND DUP2 MSTORE PUSH1 0x20 ADD SWAP1 DUP2 MSTORE PUSH1 0x20 ADD PUSH1 0x0 KECCAK256 PUSH1 0x0 DUP3 DUP3 SLOAD PUSH2 0xC12 SWAP2 SWAP1 PUSH2 0x12F7 JUMP JUMPDEST SWAP3 POP POP DUP2 SWAP1 SSTORE POP POP POP POP JUMP JUMPDEST PUSH1 0x0 DUP1 REVERT JUMPDEST PUSH1 0x0 DUP2 ISZERO ISZERO SWAP1 POP SWAP2 SWAP1 POP JUMP JUMPDEST PUSH2 0xC38 DUP2 PUSH2 0xC23 JUMP JUMPDEST DUP2 EQ PUSH2 0xC43 JUMPI PUSH1 0x0 DUP1 REVERT JUMPDEST POP JUMP JUMPDEST PUSH1 0x0 DUP2 CALLDATALOAD SWAP1 POP PUSH2 0xC55 DUP2 PUSH2 0xC2F JUMP JUMPDEST SWAP3 SWAP2 POP POP JUMP JUMPDEST PUSH1 0x0 PUSH1 0x20 DUP3 DUP5 SUB SLT ISZERO PUSH2 0xC71 JUMPI PUSH2 0xC70 PUSH2 0xC1E JUMP JUMPDEST JUMPDEST PUSH1 0x0 PUSH2 0xC7F DUP5 DUP3 DUP6 ADD PUSH2 0xC46 JUMP JUMPDEST SWAP2 POP POP SWAP3 SWAP2 POP POP JUMP JUMPDEST PUSH1 0x0 DUP2 SWAP1 POP SWAP2 SWAP1 POP JUMP JUMPDEST PUSH2 0xC9B DUP2 PUSH2 0xC88 JUMP JUMPDEST DUP3 MSTORE POP POP JUMP JUMPDEST PUSH1 0x0 PUSH1 0x20 DUP3 ADD SWAP1 POP PUSH2 0xCB6 PUSH1 0x0 DUP4 ADD DUP5 PUSH2 0xC92 JUMP JUMPDEST SWAP3 SWAP2 POP POP JUMP JUMPDEST PUSH2 0xCC5 DUP2 PUSH2 0xC88 JUMP JUMPDEST DUP2 EQ PUSH2 0xCD0 JUMPI PUSH1 0x0 DUP1 REVERT JUMPDEST POP JUMP JUMPDEST PUSH1 0x0 DUP2 CALLDATALOAD SWAP1 POP PUSH2 0xCE2 DUP2 PUSH2 0xCBC JUMP JUMPDEST SWAP3 SWAP2 POP POP JUMP JUMPDEST PUSH1 0x0 PUSH1 0x20 DUP3 DUP5 SUB SLT ISZERO PUSH2 0xCFE JUMPI PUSH2 0xCFD PUSH2 0xC1E JUMP JUMPDEST JUMPDEST PUSH1 0x0 PUSH2 0xD0C DUP5 DUP3 DUP6 ADD PUSH2 0xCD3 JUMP JUMPDEST SWAP2 POP POP SWAP3 SWAP2 POP POP JUMP JUMPDEST PUSH1 0x0 PUSH20 0xFFFFFFFFFFFFFFFFFFFFFFFFFFFFFFFFFFFFFFFF DUP3 AND SWAP1 POP SWAP2 SWAP1 POP JUMP JUMPDEST PUSH1 0x0 PUSH2 0xD40 DUP3 PUSH2 0xD15 JUMP JUMPDEST SWAP1 POP SWAP2 SWAP1 POP JUMP JUMPDEST PUSH2 0xD50 DUP2 PUSH2 0xD35 JUMP JUMPDEST DUP2 EQ PUSH2 0xD5B JUMPI PUSH1 0x0 DUP1 REVERT JUMPDEST POP JUMP JUMPDEST PUSH1 0x0 DUP2 CALLDATALOAD SWAP1 POP PUSH2 0xD6D DUP2 PUSH2 0xD47 JUMP JUMPDEST SWAP3 SWAP2 POP POP JUMP JUMPDEST PUSH1 0x0 PUSH1 0x20 DUP3 DUP5 SUB SLT ISZERO PUSH2 0xD89 JUMPI PUSH2 0xD88 PUSH2 0xC1E JUMP JUMPDEST JUMPDEST PUSH1 0x0 PUSH2 0xD97 DUP5 DUP3 DUP6 ADD PUSH2 0xD5E JUMP JUMPDEST SWAP2 POP POP SWAP3 SWAP2 POP POP JUMP JUMPDEST PUSH2 0xDA9 DUP2 PUSH2 0xC23 JUMP JUMPDEST DUP3 MSTORE POP POP JUMP JUMPDEST PUSH1 0x0 PUSH1 0x20 DUP3 ADD SWAP1 POP PUSH2 0xDC4 PUSH1 0x0 DUP4 ADD DUP5 PUSH2 0xDA0 JUMP JUMPDEST SWAP3 SWAP2 POP POP JUMP JUMPDEST PUSH1 0x0 DUP1 PUSH1 0x40 DUP4 DUP6 SUB SLT ISZERO PUSH2 0xDE1 JUMPI PUSH2 0xDE0 PUSH2 0xC1E JUMP JUMPDEST JUMPDEST PUSH1 0x0 PUSH2 0xDEF DUP6 DUP3 DUP7 ADD PUSH2 0xD5E JUMP JUMPDEST SWAP3 POP POP PUSH1 0x20 PUSH2 0xE00 DUP6 DUP3 DUP7 ADD PUSH2 0xCD3 JUMP JUMPDEST SWAP2 POP POP SWAP3 POP SWAP3 SWAP1 POP JUMP JUMPDEST PUSH1 0x0 DUP3 DUP3 MSTORE PUSH1 0x20 DUP3 ADD SWAP1 POP SWAP3 SWAP2 POP POP JUMP JUMPDEST PUSH32 0x4552524F5220335F596F7520617265206E6F7420616E206F776E657220616E64 PUSH1 0x0 DUP3 ADD MSTORE PUSH32 0x206E6F7420616C6C6F77656420746F20617070726F766564207472616E736665 PUSH1 0x20 DUP3 ADD MSTORE PUSH32 0x722E000000000000000000000000000000000000000000000000000000000000 PUSH1 0x40 DUP3 ADD MSTORE POP JUMP JUMPDEST PUSH1 0x0 PUSH2 0xE9D PUSH1 0x42 DUP4 PUSH2 0xE0A JUMP JUMPDEST SWAP2 POP PUSH2 0xEA8 DUP3 PUSH2 0xE1B JUMP JUMPDEST PUSH1 0x60 DUP3 ADD SWAP1 POP SWAP2 SWAP1 POP JUMP JUMPDEST PUSH1 0x0 PUSH1 0x20 DUP3 ADD SWAP1 POP DUP2 DUP2 SUB PUSH1 0x0 DUP4 ADD MSTORE PUSH2 0xECC DUP2 PUSH2 0xE90 JUMP JUMPDEST SWAP1 POP SWAP2 SWAP1 POP JUMP JUMPDEST PUSH32 0x4E487B7100000000000000000000000000000000000000000000000000000000 PUSH1 0x0 MSTORE PUSH1 0x11 PUSH1 0x4 MSTORE PUSH1 0x24 PUSH1 0x0 REVERT JUMPDEST PUSH1 0x0 PUSH2 0xF0D DUP3 PUSH2 0xC88 JUMP JUMPDEST SWAP2 POP PUSH32 0xFFFFFFFFFFFFFFFFFFFFFFFFFFFFFFFFFFFFFFFFFFFFFFFFFFFFFFFFFFFFFFFF DUP3 SUB PUSH2 0xF3F JUMPI PUSH2 0xF3E PUSH2 0xED3 JUMP JUMPDEST JUMPDEST PUSH1 0x1 DUP3 ADD SWAP1 POP SWAP2 SWAP1 POP JUMP JUMPDEST PUSH32 0x4552524F5220315F496E73756666696369656E742062616C616E636520746F20 PUSH1 0x0 DUP3 ADD MSTORE PUSH32 0x77697468647261772066756E64732E0000000000000000000000000000000000 PUSH1 0x20 DUP3 ADD MSTORE POP JUMP JUMPDEST PUSH1 0x0 PUSH2 0xFA6 PUSH1 0x2F DUP4 PUSH2 0xE0A JUMP JUMPDEST SWAP2 POP PUSH2 0xFB1 DUP3 PUSH2 0xF4A JUMP JUMPDEST PUSH1 0x40 DUP3 ADD SWAP1 POP SWAP2 SWAP1 POP JUMP JUMPDEST PUSH1 0x0 PUSH1 0x20 DUP3 ADD SWAP1 POP DUP2 DUP2 SUB PUSH1 0x0 DUP4 ADD MSTORE PUSH2 0xFD5 DUP2 PUSH2 0xF99 JUMP JUMPDEST SWAP1 POP SWAP2 SWAP1 POP JUMP JUMPDEST PUSH1 0x0 PUSH2 0xFE7 DUP3 PUSH2 0xC88 JUMP JUMPDEST SWAP2 POP PUSH2 0xFF2 DUP4 PUSH2 0xC88 JUMP JUMPDEST SWAP3 POP DUP3 DUP3 LT ISZERO PUSH2 0x1005 JUMPI PUSH2 0x1004 PUSH2 0xED3 JUMP JUMPDEST JUMPDEST DUP3 DUP3 SUB SWAP1 POP SWAP3 SWAP2 POP POP JUMP JUMPDEST PUSH32 0x41646472657373206973206F776E657220616C72656164792E00000000000000 PUSH1 0x0 DUP3 ADD MSTORE POP JUMP JUMPDEST PUSH1 0x0 PUSH2 0x1046 PUSH1 0x19 DUP4 PUSH2 0xE0A JUMP JUMPDEST SWAP2 POP PUSH2 0x1051 DUP3 PUSH2 0x1010 JUMP JUMPDEST PUSH1 0x20 DUP3 ADD SWAP1 POP SWAP2 SWAP1 POP JUMP JUMPDEST PUSH1 0x0 PUSH1 0x20 DUP3 ADD SWAP1 POP DUP2 DUP2 SUB PUSH1 0x0 DUP4 ADD MSTORE PUSH2 0x1075 DUP2 PUSH2 0x1039 JUMP JUMPDEST SWAP1 POP SWAP2 SWAP1 POP JUMP JUMPDEST PUSH2 0x1085 DUP2 PUSH2 0xD35 JUMP JUMPDEST DUP3 MSTORE POP POP JUMP JUMPDEST PUSH1 0x0 PUSH1 0x20 DUP3 ADD SWAP1 POP PUSH2 0x10A0 PUSH1 0x0 DUP4 ADD DUP5 PUSH2 0x107C JUMP JUMPDEST SWAP3 SWAP2 POP POP JUMP JUMPDEST PUSH32 0x4552524F5220315F496E73756666696369656E742062616C616E636520746F20 PUSH1 0x0 DUP3 ADD MSTORE PUSH32 0x7472616E736665722066756E64732E0000000000000000000000000000000000 PUSH1 0x20 DUP3 ADD MSTORE POP JUMP JUMPDEST PUSH1 0x0 PUSH2 0x1102 PUSH1 0x2F DUP4 PUSH2 0xE0A JUMP JUMPDEST SWAP2 POP PUSH2 0x110D DUP3 PUSH2 0x10A6 JUMP JUMPDEST PUSH1 0x40 DUP3 ADD SWAP1 POP SWAP2 SWAP1 POP JUMP JUMPDEST PUSH1 0x0 PUSH1 0x20 DUP3 ADD SWAP1 POP DUP2 DUP2 SUB PUSH1 0x0 DUP4 ADD MSTORE PUSH2 0x1131 DUP2 PUSH2 0x10F5 JUMP JUMPDEST SWAP1 POP SWAP2 SWAP1 POP JUMP JUMPDEST PUSH32 0x4552524F5220325F5468652073656E6465722063616E6E6F7420626520746865 PUSH1 0x0 DUP3 ADD MSTORE PUSH32 0x20726563697069656E742E000000000000000000000000000000000000000000 PUSH1 0x20 DUP3 ADD MSTORE POP JUMP JUMPDEST PUSH1 0x0 PUSH2 0x1194 PUSH1 0x2B DUP4 PUSH2 0xE0A JUMP JUMPDEST SWAP2 POP PUSH2 0x119F DUP3 PUSH2 0x1138 JUMP JUMPDEST PUSH1 0x40 DUP3 ADD SWAP1 POP SWAP2 SWAP1 POP JUMP JUMPDEST PUSH1 0x0 PUSH1 0x20 DUP3 ADD SWAP1 POP DUP2 DUP2 SUB PUSH1 0x0 DUP4 ADD MSTORE PUSH2 0x11C3 DUP2 PUSH2 0x1187 JUMP JUMPDEST SWAP1 POP SWAP2 SWAP1 POP JUMP JUMPDEST PUSH32 0x4552524F5220335F596F7520617265206E6F7420616E206F776E657220616E64 PUSH1 0x0 DUP3 ADD MSTORE PUSH32 0x206E6F7420616C6C6F77656420746F206D616B65207472616E736665722E0000 PUSH1 0x20 DUP3 ADD MSTORE POP JUMP JUMPDEST PUSH1 0x0 PUSH2 0x1226 PUSH1 0x3E DUP4 PUSH2 0xE0A JUMP JUMPDEST SWAP2 POP PUSH2 0x1231 DUP3 PUSH2 0x11CA JUMP JUMPDEST PUSH1 0x40 DUP3 ADD SWAP1 POP SWAP2 SWAP1 POP JUMP JUMPDEST PUSH1 0x0 PUSH1 0x20 DUP3 ADD SWAP1 POP DUP2 DUP2 SUB PUSH1 0x0 DUP4 ADD MSTORE PUSH2 0x1255 DUP2 PUSH2 0x1219 JUMP JUMPDEST SWAP1 POP SWAP2 SWAP1 POP JUMP JUMPDEST PUSH32 0x4E487B7100000000000000000000000000000000000000000000000000000000 PUSH1 0x0 MSTORE PUSH1 0x1 PUSH1 0x4 MSTORE PUSH1 0x24 PUSH1 0x0 REVERT JUMPDEST PUSH32 0x4E6F74206F776E6572206F66206F776E65726C6973742E000000000000000000 PUSH1 0x0 DUP3 ADD MSTORE POP JUMP JUMPDEST PUSH1 0x0 PUSH2 0x12C1 PUSH1 0x17 DUP4 PUSH2 0xE0A JUMP JUMPDEST SWAP2 POP PUSH2 0x12CC DUP3 PUSH2 0x128B JUMP JUMPDEST PUSH1 0x20 DUP3 ADD SWAP1 POP SWAP2 SWAP1 POP JUMP JUMPDEST PUSH1 0x0 PUSH1 0x20 DUP3 ADD SWAP1 POP DUP2 DUP2 SUB PUSH1 0x0 DUP4 ADD MSTORE PUSH2 0x12F0 DUP2 PUSH2 0x12B4 JUMP JUMPDEST SWAP1 POP SWAP2 SWAP1 POP JUMP JUMPDEST PUSH1 0x0 PUSH2 0x1302 DUP3 PUSH2 0xC88 JUMP JUMPDEST SWAP2 POP PUSH2 0x130D DUP4 PUSH2 0xC88 JUMP JUMPDEST SWAP3 POP DUP3 PUSH32 0xFFFFFFFFFFFFFFFFFFFFFFFFFFFFFFFFFFFFFFFFFFFFFFFFFFFFFFFFFFFFFFFF SUB DUP3 GT ISZERO PUSH2 0x1342 JUMPI PUSH2 0x1341 PUSH2 0xED3 JUMP JUMPDEST JUMPDEST DUP3 DUP3 ADD SWAP1 POP SWAP3 SWAP2 POP POP JUMP INVALID LOG2 PUSH5 0x6970667358 0x22 SLT KECCAK256 PUSH27 0x6E3BD383123EEED48CD9D4F0D389B1025109F97E5FADD85F6A9CAF 0xDF 0xA5 0x49 0x4D PUSH5 0x736F6C6343 STOP ADDMOD 0xD STOP CALLER "
				},
				"gasEstimates": {
					"creation": {
						"codeDepositCost": "999000",
						"executionCost": "25307",
						"totalCost": "1024307"
					},
					"external": {
						"addOwners(address)": "infinite",
						"approveIt(bool)": "infinite",
						"deposit()": "infinite",
						"getApproved()": "2525",
						"getBalance()": "2549",
						"getRequiredApprovals()": "2459",
						"isOwner(address)": "2972",
						"removeOwners(address)": "infinite",
						"setRequiredApprovals(uint256)": "24732",
						"transfer(address,uint256)": "infinite",
						"withdraw(uint256)": "infinite"
					},
					"internal": {
						"_transfer(address,address,uint256)": "infinite"
					}
				},
				"methodIdentifiers": {
					"addOwners(address)": "5f3b1f3b",
					"approveIt(bool)": "00f76eb4",
					"deposit()": "d0e30db0",
					"getApproved()": "d07b77b5",
					"getBalance()": "12065fe0",
					"getRequiredApprovals()": "8b1e24ab",
					"isOwner(address)": "2f54bf6e",
					"removeOwners(address)": "b64c14fe",
					"setRequiredApprovals(uint256)": "222a242e",
					"transfer(address,uint256)": "a9059cbb",
					"withdraw(uint256)": "2e1a7d4d"
				}
			},
			"storageLayout": {
				"storage": [
					{
						"astId": 270,
						"contract": "contracts/Bank_MultiSIG.sol:Multisig_Wallet",
						"label": "owner",
						"offset": 0,
						"slot": "0",
						"type": "t_address"
					},
					{
						"astId": 308,
						"contract": "contracts/Bank_MultiSIG.sol:Multisig_Wallet",
						"label": "owners",
						"offset": 0,
						"slot": "1",
						"type": "t_mapping(t_address,t_bool)"
					},
					{
						"astId": 10,
						"contract": "contracts/Bank_MultiSIG.sol:Multisig_Wallet",
						"label": "approvals",
						"offset": 0,
						"slot": "2",
						"type": "t_uint256"
					},
					{
						"astId": 12,
						"contract": "contracts/Bank_MultiSIG.sol:Multisig_Wallet",
						"label": "RequiredApprovals",
						"offset": 0,
						"slot": "3",
						"type": "t_uint256"
					},
					{
						"astId": 17,
						"contract": "contracts/Bank_MultiSIG.sol:Multisig_Wallet",
						"label": "balance",
						"offset": 0,
						"slot": "4",
						"type": "t_mapping(t_address,t_uint256)"
					}
				],
				"types": {
					"t_address": {
						"encoding": "inplace",
						"label": "address",
						"numberOfBytes": "20"
					},
					"t_bool": {
						"encoding": "inplace",
						"label": "bool",
						"numberOfBytes": "1"
					},
					"t_mapping(t_address,t_bool)": {
						"encoding": "mapping",
						"key": "t_address",
						"label": "mapping(address => bool)",
						"numberOfBytes": "32",
						"value": "t_bool"
					},
					"t_mapping(t_address,t_uint256)": {
						"encoding": "mapping",
						"key": "t_address",
						"label": "mapping(address => uint256)",
						"numberOfBytes": "32",
						"value": "t_uint256"
					},
					"t_uint256": {
						"encoding": "inplace",
						"label": "uint256",
						"numberOfBytes": "32"
					}
				}
			},
			"userdoc": {
				"kind": "user",
				"methods": {},
				"version": 1
			}
		}
	}
}