{
	"contracts/MultiSIG_Wallet.sol": {
		"Multisig_Wallet": {
			"abi": [
				{
					"inputs": [
						{
							"internalType": "address[]",
							"name": "_owners",
							"type": "address[]"
						},
						{
							"internalType": "uint256",
							"name": "_limit",
							"type": "uint256"
						}
					],
					"stateMutability": "nonpayable",
					"type": "constructor"
				},
				{
					"anonymous": false,
					"inputs": [
						{
							"indexed": false,
							"internalType": "uint256",
							"name": "_id",
							"type": "uint256"
						},
						{
							"indexed": false,
							"internalType": "uint256",
							"name": "_approvals",
							"type": "uint256"
						},
						{
							"indexed": false,
							"internalType": "address",
							"name": "_approver",
							"type": "address"
						}
					],
					"name": "ApprovalReceived",
					"type": "event"
				},
				{
					"anonymous": false,
					"inputs": [
						{
							"indexed": false,
							"internalType": "uint256",
							"name": "_id",
							"type": "uint256"
						}
					],
					"name": "TransferApproved",
					"type": "event"
				},
				{
					"anonymous": false,
					"inputs": [
						{
							"indexed": false,
							"internalType": "uint256",
							"name": "_id",
							"type": "uint256"
						},
						{
							"indexed": false,
							"internalType": "uint256",
							"name": "_amount",
							"type": "uint256"
						},
						{
							"indexed": false,
							"internalType": "address",
							"name": "_initiator",
							"type": "address"
						},
						{
							"indexed": false,
							"internalType": "address",
							"name": "_receiver",
							"type": "address"
						}
					],
					"name": "TransferRequestCreated",
					"type": "event"
				},
				{
					"anonymous": false,
					"inputs": [
						{
							"indexed": true,
							"internalType": "uint256",
							"name": "amount",
							"type": "uint256"
						},
						{
							"indexed": true,
							"internalType": "address",
							"name": "depositedTo",
							"type": "address"
						}
					],
					"name": "deposited",
					"type": "event"
				},
				{
					"anonymous": false,
					"inputs": [
						{
							"indexed": true,
							"internalType": "address",
							"name": "from",
							"type": "address"
						},
						{
							"indexed": true,
							"internalType": "address",
							"name": "to",
							"type": "address"
						},
						{
							"indexed": true,
							"internalType": "uint256",
							"name": "amount",
							"type": "uint256"
						}
					],
					"name": "transferedAmount",
					"type": "event"
				},
				{
					"inputs": [
						{
							"internalType": "uint256",
							"name": "_id",
							"type": "uint256"
						}
					],
					"name": "approve",
					"outputs": [],
					"stateMutability": "nonpayable",
					"type": "function"
				},
				{
					"inputs": [
						{
							"internalType": "uint256",
							"name": "_amount",
							"type": "uint256"
						},
						{
							"internalType": "address payable",
							"name": "_receiver",
							"type": "address"
						}
					],
					"name": "createTransfer",
					"outputs": [],
					"stateMutability": "nonpayable",
					"type": "function"
				},
				{
					"inputs": [],
					"name": "deposit",
					"outputs": [
						{
							"internalType": "uint256",
							"name": "",
							"type": "uint256"
						}
					],
					"stateMutability": "payable",
					"type": "function"
				},
				{
					"inputs": [],
					"name": "getBalance",
					"outputs": [
						{
							"internalType": "uint256",
							"name": "",
							"type": "uint256"
						}
					],
					"stateMutability": "view",
					"type": "function"
				},
				{
					"inputs": [],
					"name": "getTransferRequests",
					"outputs": [
						{
							"components": [
								{
									"internalType": "uint256",
									"name": "amount",
									"type": "uint256"
								},
								{
									"internalType": "address payable",
									"name": "receiver",
									"type": "address"
								},
								{
									"internalType": "uint256",
									"name": "approvals",
									"type": "uint256"
								},
								{
									"internalType": "bool",
									"name": "hasBeenSent",
									"type": "bool"
								},
								{
									"internalType": "uint256",
									"name": "id",
									"type": "uint256"
								}
							],
							"internalType": "struct Multisig_Wallet.Transfer[]",
							"name": "",
							"type": "tuple[]"
						}
					],
					"stateMutability": "view",
					"type": "function"
				},
				{
					"inputs": [
						{
							"internalType": "uint256",
							"name": "",
							"type": "uint256"
						}
					],
					"name": "owners",
					"outputs": [
						{
							"internalType": "address",
							"name": "",
							"type": "address"
						}
					],
					"stateMutability": "view",
					"type": "function"
				}
			],
			"devdoc": {
				"author": "ronmedina@superiorblocks.io",
				"details": "Multisig Wallet Smart Contract where multiple signatures/approvals  are needed for an outgoing transfer to take place. Anyone can deposit funds.  As soon as we want to spend funds, it requires the specified number of approvals.",
				"kind": "dev",
				"methods": {
					"approve(uint256)": {
						"details": "A method to approve a transfer by an owner.  It does the following:  - Sets your approval for one of the transfer requests.  - Updates the Transfer object.  - Updates the mapping to record the approval for the msg.sender.  - When the amount of approvals for a transfer has reached the limit, this function sends the transfer to the recipient.  - An owner is not allowed to vote twice.  - An owner is not allowed to vote on a tranfer request that has already been sent."
					},
					"createTransfer(uint256,address)": {
						"details": "A method that creates an instance of the Transfer struct and push it into the  transferRequests array "
					},
					"deposit()": {
						"details": "A method to make a deposit.",
						"returns": {
							"_0": "balance of the sender."
						}
					},
					"getBalance()": {
						"details": "A method to get the sender's balance.",
						"returns": {
							"_0": "balance of the sender."
						}
					},
					"getTransferRequests()": {
						"details": "A method to get transfer requests array information.",
						"returns": {
							"_0": "transferRequest array."
						}
					}
				},
				"title": "Multisig Wallet",
				"version": 1
			},
			"evm": {
				"assembly": "    /* \"contracts/MultiSIG_Wallet.sol\":403:4777  contract Multisig_Wallet {... */\n  mstore(0x40, 0x80)\n    /* \"contracts/MultiSIG_Wallet.sol\":942:1053  constructor(address[] memory _owners, uint _limit) {... */\n  callvalue\n  dup1\n  iszero\n  tag_1\n  jumpi\n  0x00\n  dup1\n  revert\ntag_1:\n  pop\n  mload(0x40)\n  sub(codesize, bytecodeSize)\n  dup1\n  bytecodeSize\n  dup4\n  codecopy\n  dup2\n  dup2\n  add\n  0x40\n  mstore\n  dup2\n  add\n  swap1\n  tag_2\n  swap2\n  swap1\n  tag_3\n  jump\t// in\ntag_2:\n    /* \"contracts/MultiSIG_Wallet.sol\":1013:1020  _owners */\n  dup2\n    /* \"contracts/MultiSIG_Wallet.sol\":1004:1010  owners */\n  0x01\n    /* \"contracts/MultiSIG_Wallet.sol\":1004:1020  owners = _owners */\n  swap1\n  dup1\n  mload\n  swap1\n  0x20\n  add\n  swap1\n  tag_6\n  swap3\n  swap2\n  swap1\n  tag_7\n  jump\t// in\ntag_6:\n  pop\n    /* \"contracts/MultiSIG_Wallet.sol\":1039:1045  _limit */\n  dup1\n    /* \"contracts/MultiSIG_Wallet.sol\":1031:1036  limit */\n  0x00\n    /* \"contracts/MultiSIG_Wallet.sol\":1031:1045  limit = _limit */\n  dup2\n  swap1\n  sstore\n  pop\n    /* \"contracts/MultiSIG_Wallet.sol\":942:1053  constructor(address[] memory _owners, uint _limit) {... */\n  pop\n  pop\n    /* \"contracts/MultiSIG_Wallet.sol\":403:4777  contract Multisig_Wallet {... */\n  jump(tag_8)\ntag_7:\n  dup3\n  dup1\n  sload\n  dup3\n  dup3\n  sstore\n  swap1\n  0x00\n  mstore\n  keccak256(0x00, 0x20)\n  swap1\n  dup2\n  add\n  swap3\n  dup3\n  iszero\n  tag_9\n  jumpi\n  swap2\n  0x20\n  mul\n  dup3\n  add\ntag_10:\n  dup3\n  dup2\n  gt\n  iszero\n  tag_11\n  jumpi\n  dup3\n  mload\n  dup3\n  exp(0x0100, 0x00)\n  dup2\n  sload\n  dup2\n  0xffffffffffffffffffffffffffffffffffffffff\n  mul\n  not\n  and\n  swap1\n  dup4\n  0xffffffffffffffffffffffffffffffffffffffff\n  and\n  mul\n  or\n  swap1\n  sstore\n  pop\n  swap2\n  0x20\n  add\n  swap2\n  swap1\n  0x01\n  add\n  swap1\n  jump(tag_10)\ntag_11:\ntag_9:\n  pop\n  swap1\n  pop\n  tag_12\n  swap2\n  swap1\n  tag_13\n  jump\t// in\ntag_12:\n  pop\n  swap1\n  jump\t// out\ntag_13:\ntag_14:\n  dup1\n  dup3\n  gt\n  iszero\n  tag_15\n  jumpi\n  0x00\n  dup2\n  0x00\n  swap1\n  sstore\n  pop\n  0x01\n  add\n  jump(tag_14)\ntag_15:\n  pop\n  swap1\n  jump\t// out\n    /* \"#utility.yul\":7:82   */\ntag_16:\n    /* \"#utility.yul\":40:46   */\n  0x00\n    /* \"#utility.yul\":73:75   */\n  0x40\n    /* \"#utility.yul\":67:76   */\n  mload\n    /* \"#utility.yul\":57:76   */\n  swap1\n  pop\n    /* \"#utility.yul\":7:82   */\n  swap1\n  jump\t// out\n    /* \"#utility.yul\":88:205   */\ntag_17:\n    /* \"#utility.yul\":197:198   */\n  0x00\n    /* \"#utility.yul\":194:195   */\n  dup1\n    /* \"#utility.yul\":187:199   */\n  revert\n    /* \"#utility.yul\":211:328   */\ntag_18:\n    /* \"#utility.yul\":320:321   */\n  0x00\n    /* \"#utility.yul\":317:318   */\n  dup1\n    /* \"#utility.yul\":310:322   */\n  revert\n    /* \"#utility.yul\":334:451   */\ntag_19:\n    /* \"#utility.yul\":443:444   */\n  0x00\n    /* \"#utility.yul\":440:441   */\n  dup1\n    /* \"#utility.yul\":433:445   */\n  revert\n    /* \"#utility.yul\":457:559   */\ntag_20:\n    /* \"#utility.yul\":498:504   */\n  0x00\n    /* \"#utility.yul\":549:551   */\n  0x1f\n    /* \"#utility.yul\":545:552   */\n  not\n    /* \"#utility.yul\":540:542   */\n  0x1f\n    /* \"#utility.yul\":533:538   */\n  dup4\n    /* \"#utility.yul\":529:543   */\n  add\n    /* \"#utility.yul\":525:553   */\n  and\n    /* \"#utility.yul\":515:553   */\n  swap1\n  pop\n    /* \"#utility.yul\":457:559   */\n  swap2\n  swap1\n  pop\n  jump\t// out\n    /* \"#utility.yul\":565:745   */\ntag_21:\n    /* \"#utility.yul\":613:690   */\n  0x4e487b7100000000000000000000000000000000000000000000000000000000\n    /* \"#utility.yul\":610:611   */\n  0x00\n    /* \"#utility.yul\":603:691   */\n  mstore\n    /* \"#utility.yul\":710:714   */\n  0x41\n    /* \"#utility.yul\":707:708   */\n  0x04\n    /* \"#utility.yul\":700:715   */\n  mstore\n    /* \"#utility.yul\":734:738   */\n  0x24\n    /* \"#utility.yul\":731:732   */\n  0x00\n    /* \"#utility.yul\":724:739   */\n  revert\n    /* \"#utility.yul\":751:1032   */\ntag_22:\n    /* \"#utility.yul\":834:861   */\n  tag_43\n    /* \"#utility.yul\":856:860   */\n  dup3\n    /* \"#utility.yul\":834:861   */\n  tag_20\n  jump\t// in\ntag_43:\n    /* \"#utility.yul\":826:832   */\n  dup2\n    /* \"#utility.yul\":822:862   */\n  add\n    /* \"#utility.yul\":964:970   */\n  dup2\n    /* \"#utility.yul\":952:962   */\n  dup2\n    /* \"#utility.yul\":949:971   */\n  lt\n    /* \"#utility.yul\":928:946   */\n  0xffffffffffffffff\n    /* \"#utility.yul\":916:926   */\n  dup3\n    /* \"#utility.yul\":913:947   */\n  gt\n    /* \"#utility.yul\":910:972   */\n  or\n    /* \"#utility.yul\":907:995   */\n  iszero\n  tag_44\n  jumpi\n    /* \"#utility.yul\":975:993   */\n  tag_45\n  tag_21\n  jump\t// in\ntag_45:\n    /* \"#utility.yul\":907:995   */\ntag_44:\n    /* \"#utility.yul\":1015:1025   */\n  dup1\n    /* \"#utility.yul\":1011:1013   */\n  0x40\n    /* \"#utility.yul\":1004:1026   */\n  mstore\n    /* \"#utility.yul\":794:1032   */\n  pop\n    /* \"#utility.yul\":751:1032   */\n  pop\n  pop\n  jump\t// out\n    /* \"#utility.yul\":1038:1167   */\ntag_23:\n    /* \"#utility.yul\":1072:1078   */\n  0x00\n    /* \"#utility.yul\":1099:1119   */\n  tag_47\n  tag_16\n  jump\t// in\ntag_47:\n    /* \"#utility.yul\":1089:1119   */\n  swap1\n  pop\n    /* \"#utility.yul\":1128:1161   */\n  tag_48\n    /* \"#utility.yul\":1156:1160   */\n  dup3\n    /* \"#utility.yul\":1148:1154   */\n  dup3\n    /* \"#utility.yul\":1128:1161   */\n  tag_22\n  jump\t// in\ntag_48:\n    /* \"#utility.yul\":1038:1167   */\n  swap2\n  swap1\n  pop\n  jump\t// out\n    /* \"#utility.yul\":1173:1484   */\ntag_24:\n    /* \"#utility.yul\":1250:1254   */\n  0x00\n    /* \"#utility.yul\":1340:1358   */\n  0xffffffffffffffff\n    /* \"#utility.yul\":1332:1338   */\n  dup3\n    /* \"#utility.yul\":1329:1359   */\n  gt\n    /* \"#utility.yul\":1326:1382   */\n  iszero\n  tag_50\n  jumpi\n    /* \"#utility.yul\":1362:1380   */\n  tag_51\n  tag_21\n  jump\t// in\ntag_51:\n    /* \"#utility.yul\":1326:1382   */\ntag_50:\n    /* \"#utility.yul\":1412:1416   */\n  0x20\n    /* \"#utility.yul\":1404:1410   */\n  dup3\n    /* \"#utility.yul\":1400:1417   */\n  mul\n    /* \"#utility.yul\":1392:1417   */\n  swap1\n  pop\n    /* \"#utility.yul\":1472:1476   */\n  0x20\n    /* \"#utility.yul\":1466:1470   */\n  dup2\n    /* \"#utility.yul\":1462:1477   */\n  add\n    /* \"#utility.yul\":1454:1477   */\n  swap1\n  pop\n    /* \"#utility.yul\":1173:1484   */\n  swap2\n  swap1\n  pop\n  jump\t// out\n    /* \"#utility.yul\":1490:1607   */\ntag_25:\n    /* \"#utility.yul\":1599:1600   */\n  0x00\n    /* \"#utility.yul\":1596:1597   */\n  dup1\n    /* \"#utility.yul\":1589:1601   */\n  revert\n    /* \"#utility.yul\":1613:1739   */\ntag_26:\n    /* \"#utility.yul\":1650:1657   */\n  0x00\n    /* \"#utility.yul\":1690:1732   */\n  0xffffffffffffffffffffffffffffffffffffffff\n    /* \"#utility.yul\":1683:1688   */\n  dup3\n    /* \"#utility.yul\":1679:1733   */\n  and\n    /* \"#utility.yul\":1668:1733   */\n  swap1\n  pop\n    /* \"#utility.yul\":1613:1739   */\n  swap2\n  swap1\n  pop\n  jump\t// out\n    /* \"#utility.yul\":1745:1841   */\ntag_27:\n    /* \"#utility.yul\":1782:1789   */\n  0x00\n    /* \"#utility.yul\":1811:1835   */\n  tag_55\n    /* \"#utility.yul\":1829:1834   */\n  dup3\n    /* \"#utility.yul\":1811:1835   */\n  tag_26\n  jump\t// in\ntag_55:\n    /* \"#utility.yul\":1800:1835   */\n  swap1\n  pop\n    /* \"#utility.yul\":1745:1841   */\n  swap2\n  swap1\n  pop\n  jump\t// out\n    /* \"#utility.yul\":1847:1969   */\ntag_28:\n    /* \"#utility.yul\":1920:1944   */\n  tag_57\n    /* \"#utility.yul\":1938:1943   */\n  dup2\n    /* \"#utility.yul\":1920:1944   */\n  tag_27\n  jump\t// in\ntag_57:\n    /* \"#utility.yul\":1913:1918   */\n  dup2\n    /* \"#utility.yul\":1910:1945   */\n  eq\n    /* \"#utility.yul\":1900:1963   */\n  tag_58\n  jumpi\n    /* \"#utility.yul\":1959:1960   */\n  0x00\n    /* \"#utility.yul\":1956:1957   */\n  dup1\n    /* \"#utility.yul\":1949:1961   */\n  revert\n    /* \"#utility.yul\":1900:1963   */\ntag_58:\n    /* \"#utility.yul\":1847:1969   */\n  pop\n  jump\t// out\n    /* \"#utility.yul\":1975:2118   */\ntag_29:\n    /* \"#utility.yul\":2032:2037   */\n  0x00\n    /* \"#utility.yul\":2063:2069   */\n  dup2\n    /* \"#utility.yul\":2057:2070   */\n  mload\n    /* \"#utility.yul\":2048:2070   */\n  swap1\n  pop\n    /* \"#utility.yul\":2079:2112   */\n  tag_60\n    /* \"#utility.yul\":2106:2111   */\n  dup2\n    /* \"#utility.yul\":2079:2112   */\n  tag_28\n  jump\t// in\ntag_60:\n    /* \"#utility.yul\":1975:2118   */\n  swap3\n  swap2\n  pop\n  pop\n  jump\t// out\n    /* \"#utility.yul\":2141:2873   */\ntag_30:\n    /* \"#utility.yul\":2248:2253   */\n  0x00\n    /* \"#utility.yul\":2273:2354   */\n  tag_62\n    /* \"#utility.yul\":2289:2353   */\n  tag_63\n    /* \"#utility.yul\":2346:2352   */\n  dup5\n    /* \"#utility.yul\":2289:2353   */\n  tag_24\n  jump\t// in\ntag_63:\n    /* \"#utility.yul\":2273:2354   */\n  tag_23\n  jump\t// in\ntag_62:\n    /* \"#utility.yul\":2264:2354   */\n  swap1\n  pop\n    /* \"#utility.yul\":2374:2379   */\n  dup1\n    /* \"#utility.yul\":2403:2409   */\n  dup4\n    /* \"#utility.yul\":2396:2401   */\n  dup3\n    /* \"#utility.yul\":2389:2410   */\n  mstore\n    /* \"#utility.yul\":2437:2441   */\n  0x20\n    /* \"#utility.yul\":2430:2435   */\n  dup3\n    /* \"#utility.yul\":2426:2442   */\n  add\n    /* \"#utility.yul\":2419:2442   */\n  swap1\n  pop\n    /* \"#utility.yul\":2490:2494   */\n  0x20\n    /* \"#utility.yul\":2482:2488   */\n  dup5\n    /* \"#utility.yul\":2478:2495   */\n  mul\n    /* \"#utility.yul\":2470:2476   */\n  dup4\n    /* \"#utility.yul\":2466:2496   */\n  add\n    /* \"#utility.yul\":2519:2522   */\n  dup6\n    /* \"#utility.yul\":2511:2517   */\n  dup2\n    /* \"#utility.yul\":2508:2523   */\n  gt\n    /* \"#utility.yul\":2505:2627   */\n  iszero\n  tag_64\n  jumpi\n    /* \"#utility.yul\":2538:2617   */\n  tag_65\n  tag_25\n  jump\t// in\ntag_65:\n    /* \"#utility.yul\":2505:2627   */\ntag_64:\n    /* \"#utility.yul\":2653:2659   */\n  dup4\n    /* \"#utility.yul\":2636:2867   */\ntag_66:\n    /* \"#utility.yul\":2670:2676   */\n  dup2\n    /* \"#utility.yul\":2665:2668   */\n  dup2\n    /* \"#utility.yul\":2662:2677   */\n  lt\n    /* \"#utility.yul\":2636:2867   */\n  iszero\n  tag_68\n  jumpi\n    /* \"#utility.yul\":2745:2748   */\n  dup1\n    /* \"#utility.yul\":2774:2822   */\n  tag_69\n    /* \"#utility.yul\":2818:2821   */\n  dup9\n    /* \"#utility.yul\":2806:2816   */\n  dup3\n    /* \"#utility.yul\":2774:2822   */\n  tag_29\n  jump\t// in\ntag_69:\n    /* \"#utility.yul\":2769:2772   */\n  dup5\n    /* \"#utility.yul\":2762:2823   */\n  mstore\n    /* \"#utility.yul\":2852:2856   */\n  0x20\n    /* \"#utility.yul\":2847:2850   */\n  dup5\n    /* \"#utility.yul\":2843:2857   */\n  add\n    /* \"#utility.yul\":2836:2857   */\n  swap4\n  pop\n    /* \"#utility.yul\":2712:2867   */\n  pop\n    /* \"#utility.yul\":2696:2700   */\n  0x20\n    /* \"#utility.yul\":2691:2694   */\n  dup2\n    /* \"#utility.yul\":2687:2701   */\n  add\n    /* \"#utility.yul\":2680:2701   */\n  swap1\n  pop\n    /* \"#utility.yul\":2636:2867   */\n  jump(tag_66)\ntag_68:\n    /* \"#utility.yul\":2640:2661   */\n  pop\n    /* \"#utility.yul\":2254:2873   */\n  pop\n  pop\n    /* \"#utility.yul\":2141:2873   */\n  swap4\n  swap3\n  pop\n  pop\n  pop\n  jump\t// out\n    /* \"#utility.yul\":2896:3281   */\ntag_31:\n    /* \"#utility.yul\":2978:2983   */\n  0x00\n    /* \"#utility.yul\":3027:3030   */\n  dup3\n    /* \"#utility.yul\":3020:3024   */\n  0x1f\n    /* \"#utility.yul\":3012:3018   */\n  dup4\n    /* \"#utility.yul\":3008:3025   */\n  add\n    /* \"#utility.yul\":3004:3031   */\n  slt\n    /* \"#utility.yul\":2994:3116   */\n  tag_71\n  jumpi\n    /* \"#utility.yul\":3035:3114   */\n  tag_72\n  tag_19\n  jump\t// in\ntag_72:\n    /* \"#utility.yul\":2994:3116   */\ntag_71:\n    /* \"#utility.yul\":3145:3151   */\n  dup2\n    /* \"#utility.yul\":3139:3152   */\n  mload\n    /* \"#utility.yul\":3170:3275   */\n  tag_73\n    /* \"#utility.yul\":3271:3274   */\n  dup5\n    /* \"#utility.yul\":3263:3269   */\n  dup3\n    /* \"#utility.yul\":3256:3260   */\n  0x20\n    /* \"#utility.yul\":3248:3254   */\n  dup7\n    /* \"#utility.yul\":3244:3261   */\n  add\n    /* \"#utility.yul\":3170:3275   */\n  tag_30\n  jump\t// in\ntag_73:\n    /* \"#utility.yul\":3161:3275   */\n  swap2\n  pop\n    /* \"#utility.yul\":2984:3281   */\n  pop\n    /* \"#utility.yul\":2896:3281   */\n  swap3\n  swap2\n  pop\n  pop\n  jump\t// out\n    /* \"#utility.yul\":3287:3364   */\ntag_32:\n    /* \"#utility.yul\":3324:3331   */\n  0x00\n    /* \"#utility.yul\":3353:3358   */\n  dup2\n    /* \"#utility.yul\":3342:3358   */\n  swap1\n  pop\n    /* \"#utility.yul\":3287:3364   */\n  swap2\n  swap1\n  pop\n  jump\t// out\n    /* \"#utility.yul\":3370:3492   */\ntag_33:\n    /* \"#utility.yul\":3443:3467   */\n  tag_76\n    /* \"#utility.yul\":3461:3466   */\n  dup2\n    /* \"#utility.yul\":3443:3467   */\n  tag_32\n  jump\t// in\ntag_76:\n    /* \"#utility.yul\":3436:3441   */\n  dup2\n    /* \"#utility.yul\":3433:3468   */\n  eq\n    /* \"#utility.yul\":3423:3486   */\n  tag_77\n  jumpi\n    /* \"#utility.yul\":3482:3483   */\n  0x00\n    /* \"#utility.yul\":3479:3480   */\n  dup1\n    /* \"#utility.yul\":3472:3484   */\n  revert\n    /* \"#utility.yul\":3423:3486   */\ntag_77:\n    /* \"#utility.yul\":3370:3492   */\n  pop\n  jump\t// out\n    /* \"#utility.yul\":3498:3641   */\ntag_34:\n    /* \"#utility.yul\":3555:3560   */\n  0x00\n    /* \"#utility.yul\":3586:3592   */\n  dup2\n    /* \"#utility.yul\":3580:3593   */\n  mload\n    /* \"#utility.yul\":3571:3593   */\n  swap1\n  pop\n    /* \"#utility.yul\":3602:3635   */\n  tag_79\n    /* \"#utility.yul\":3629:3634   */\n  dup2\n    /* \"#utility.yul\":3602:3635   */\n  tag_33\n  jump\t// in\ntag_79:\n    /* \"#utility.yul\":3498:3641   */\n  swap3\n  swap2\n  pop\n  pop\n  jump\t// out\n    /* \"#utility.yul\":3647:4357   */\ntag_3:\n    /* \"#utility.yul\":3751:3757   */\n  0x00\n    /* \"#utility.yul\":3759:3765   */\n  dup1\n    /* \"#utility.yul\":3808:3810   */\n  0x40\n    /* \"#utility.yul\":3796:3805   */\n  dup4\n    /* \"#utility.yul\":3787:3794   */\n  dup6\n    /* \"#utility.yul\":3783:3806   */\n  sub\n    /* \"#utility.yul\":3779:3811   */\n  slt\n    /* \"#utility.yul\":3776:3895   */\n  iszero\n  tag_81\n  jumpi\n    /* \"#utility.yul\":3814:3893   */\n  tag_82\n  tag_17\n  jump\t// in\ntag_82:\n    /* \"#utility.yul\":3776:3895   */\ntag_81:\n    /* \"#utility.yul\":3955:3956   */\n  0x00\n    /* \"#utility.yul\":3944:3953   */\n  dup4\n    /* \"#utility.yul\":3940:3957   */\n  add\n    /* \"#utility.yul\":3934:3958   */\n  mload\n    /* \"#utility.yul\":3985:4003   */\n  0xffffffffffffffff\n    /* \"#utility.yul\":3977:3983   */\n  dup2\n    /* \"#utility.yul\":3974:4004   */\n  gt\n    /* \"#utility.yul\":3971:4088   */\n  iszero\n  tag_83\n  jumpi\n    /* \"#utility.yul\":4007:4086   */\n  tag_84\n  tag_18\n  jump\t// in\ntag_84:\n    /* \"#utility.yul\":3971:4088   */\ntag_83:\n    /* \"#utility.yul\":4112:4201   */\n  tag_85\n    /* \"#utility.yul\":4193:4200   */\n  dup6\n    /* \"#utility.yul\":4184:4190   */\n  dup3\n    /* \"#utility.yul\":4173:4182   */\n  dup7\n    /* \"#utility.yul\":4169:4191   */\n  add\n    /* \"#utility.yul\":4112:4201   */\n  tag_31\n  jump\t// in\ntag_85:\n    /* \"#utility.yul\":4102:4201   */\n  swap3\n  pop\n    /* \"#utility.yul\":3905:4211   */\n  pop\n    /* \"#utility.yul\":4250:4252   */\n  0x20\n    /* \"#utility.yul\":4276:4340   */\n  tag_86\n    /* \"#utility.yul\":4332:4339   */\n  dup6\n    /* \"#utility.yul\":4323:4329   */\n  dup3\n    /* \"#utility.yul\":4312:4321   */\n  dup7\n    /* \"#utility.yul\":4308:4330   */\n  add\n    /* \"#utility.yul\":4276:4340   */\n  tag_34\n  jump\t// in\ntag_86:\n    /* \"#utility.yul\":4266:4340   */\n  swap2\n  pop\n    /* \"#utility.yul\":4221:4350   */\n  pop\n    /* \"#utility.yul\":3647:4357   */\n  swap3\n  pop\n  swap3\n  swap1\n  pop\n  jump\t// out\n    /* \"contracts/MultiSIG_Wallet.sol\":403:4777  contract Multisig_Wallet {... */\ntag_8:\n  dataSize(sub_0)\n  dup1\n  dataOffset(sub_0)\n  0x00\n  codecopy\n  0x00\n  return\nstop\n\nsub_0: assembly {\n        /* \"contracts/MultiSIG_Wallet.sol\":403:4777  contract Multisig_Wallet {... */\n      mstore(0x40, 0x80)\n      jumpi(tag_1, lt(calldatasize, 0x04))\n      shr(0xe0, calldataload(0x00))\n      dup1\n      0x025e7c27\n      eq\n      tag_2\n      jumpi\n      dup1\n      0x12065fe0\n      eq\n      tag_3\n      jumpi\n      dup1\n      0x4c12fa47\n      eq\n      tag_4\n      jumpi\n      dup1\n      0xa04ef145\n      eq\n      tag_5\n      jumpi\n      dup1\n      0xb759f954\n      eq\n      tag_6\n      jumpi\n      dup1\n      0xd0e30db0\n      eq\n      tag_7\n      jumpi\n    tag_1:\n      0x00\n      dup1\n      revert\n        /* \"contracts/MultiSIG_Wallet.sol\":487:510  address[] public owners */\n    tag_2:\n      callvalue\n      dup1\n      iszero\n      tag_8\n      jumpi\n      0x00\n      dup1\n      revert\n    tag_8:\n      pop\n      tag_9\n      0x04\n      dup1\n      calldatasize\n      sub\n      dup2\n      add\n      swap1\n      tag_10\n      swap2\n      swap1\n      tag_11\n      jump\t// in\n    tag_10:\n      tag_12\n      jump\t// in\n    tag_9:\n      mload(0x40)\n      tag_13\n      swap2\n      swap1\n      tag_14\n      jump\t// in\n    tag_13:\n      mload(0x40)\n      dup1\n      swap2\n      sub\n      swap1\n      return\n        /* \"contracts/MultiSIG_Wallet.sol\":3143:3236  function getBalance() public view returns (uint){... */\n    tag_3:\n      callvalue\n      dup1\n      iszero\n      tag_15\n      jumpi\n      0x00\n      dup1\n      revert\n    tag_15:\n      pop\n      tag_16\n      tag_17\n      jump\t// in\n    tag_16:\n      mload(0x40)\n      tag_18\n      swap2\n      swap1\n      tag_19\n      jump\t// in\n    tag_18:\n      mload(0x40)\n      dup1\n      swap2\n      sub\n      swap1\n      return\n        /* \"contracts/MultiSIG_Wallet.sol\":2495:3024  function createTransfer(uint _amount, address payable _receiver) public onlyOwners{... */\n    tag_4:\n      callvalue\n      dup1\n      iszero\n      tag_20\n      jumpi\n      0x00\n      dup1\n      revert\n    tag_20:\n      pop\n      tag_21\n      0x04\n      dup1\n      calldatasize\n      sub\n      dup2\n      add\n      swap1\n      tag_22\n      swap2\n      swap1\n      tag_23\n      jump\t// in\n    tag_22:\n      tag_24\n      jump\t// in\n    tag_21:\n      stop\n        /* \"contracts/MultiSIG_Wallet.sol\":4662:4774  function getTransferRequests() public view returns (Transfer[] memory){... */\n    tag_5:\n      callvalue\n      dup1\n      iszero\n      tag_25\n      jumpi\n      0x00\n      dup1\n      revert\n    tag_25:\n      pop\n      tag_26\n      tag_27\n      jump\t// in\n    tag_26:\n      mload(0x40)\n      tag_28\n      swap2\n      swap1\n      tag_29\n      jump\t// in\n    tag_28:\n      mload(0x40)\n      dup1\n      swap2\n      sub\n      swap1\n      return\n        /* \"contracts/MultiSIG_Wallet.sol\":3793:4530  function approve(uint _id) public onlyOwners {  ... */\n    tag_6:\n      callvalue\n      dup1\n      iszero\n      tag_30\n      jumpi\n      0x00\n      dup1\n      revert\n    tag_30:\n      pop\n      tag_31\n      0x04\n      dup1\n      calldatasize\n      sub\n      dup2\n      add\n      swap1\n      tag_32\n      swap2\n      swap1\n      tag_11\n      jump\t// in\n    tag_32:\n      tag_33\n      jump\t// in\n    tag_31:\n      stop\n        /* \"contracts/MultiSIG_Wallet.sol\":2135:2340  function deposit() public payable returns (uint) { ... */\n    tag_7:\n      tag_34\n      tag_35\n      jump\t// in\n    tag_34:\n      mload(0x40)\n      tag_36\n      swap2\n      swap1\n      tag_19\n      jump\t// in\n    tag_36:\n      mload(0x40)\n      dup1\n      swap2\n      sub\n      swap1\n      return\n        /* \"contracts/MultiSIG_Wallet.sol\":487:510  address[] public owners */\n    tag_12:\n      0x01\n      dup2\n      dup2\n      sload\n      dup2\n      lt\n      tag_37\n      jumpi\n      0x00\n      dup1\n      revert\n    tag_37:\n      swap1\n      0x00\n      mstore\n      keccak256(0x00, 0x20)\n      add\n      0x00\n      swap2\n      pop\n      sload\n      swap1\n      0x0100\n      exp\n      swap1\n      div\n      0xffffffffffffffffffffffffffffffffffffffff\n      and\n      dup2\n      jump\t// out\n        /* \"contracts/MultiSIG_Wallet.sol\":3143:3236  function getBalance() public view returns (uint){... */\n    tag_17:\n        /* \"contracts/MultiSIG_Wallet.sol\":3186:3190  uint */\n      0x00\n        /* \"contracts/MultiSIG_Wallet.sol\":3209:3216  balance */\n      0x03\n        /* \"contracts/MultiSIG_Wallet.sol\":3209:3228  balance[msg.sender] */\n      0x00\n        /* \"contracts/MultiSIG_Wallet.sol\":3217:3227  msg.sender */\n      caller\n        /* \"contracts/MultiSIG_Wallet.sol\":3209:3228  balance[msg.sender] */\n      0xffffffffffffffffffffffffffffffffffffffff\n      and\n      0xffffffffffffffffffffffffffffffffffffffff\n      and\n      dup2\n      mstore\n      0x20\n      add\n      swap1\n      dup2\n      mstore\n      0x20\n      add\n      0x00\n      keccak256\n      sload\n        /* \"contracts/MultiSIG_Wallet.sol\":3202:3228  return balance[msg.sender] */\n      swap1\n      pop\n        /* \"contracts/MultiSIG_Wallet.sol\":3143:3236  function getBalance() public view returns (uint){... */\n      swap1\n      jump\t// out\n        /* \"contracts/MultiSIG_Wallet.sol\":2495:3024  function createTransfer(uint _amount, address payable _receiver) public onlyOwners{... */\n    tag_24:\n        /* \"contracts/MultiSIG_Wallet.sol\":699:709  bool owner */\n      0x00\n        /* \"contracts/MultiSIG_Wallet.sol\":732:738  uint i */\n      dup1\n        /* \"contracts/MultiSIG_Wallet.sol\":728:863  for(uint i=0; i<owners.length;i++){... */\n    tag_41:\n        /* \"contracts/MultiSIG_Wallet.sol\":744:750  owners */\n      0x01\n        /* \"contracts/MultiSIG_Wallet.sol\":744:757  owners.length */\n      dup1\n      sload\n      swap1\n      pop\n        /* \"contracts/MultiSIG_Wallet.sol\":742:743  i */\n      dup2\n        /* \"contracts/MultiSIG_Wallet.sol\":742:757  i<owners.length */\n      lt\n        /* \"contracts/MultiSIG_Wallet.sol\":728:863  for(uint i=0; i<owners.length;i++){... */\n      iszero\n      tag_42\n      jumpi\n        /* \"contracts/MultiSIG_Wallet.sol\":794:804  msg.sender */\n      caller\n        /* \"contracts/MultiSIG_Wallet.sol\":781:804  owners[i] == msg.sender */\n      0xffffffffffffffffffffffffffffffffffffffff\n      and\n        /* \"contracts/MultiSIG_Wallet.sol\":781:787  owners */\n      0x01\n        /* \"contracts/MultiSIG_Wallet.sol\":788:789  i */\n      dup3\n        /* \"contracts/MultiSIG_Wallet.sol\":781:790  owners[i] */\n      dup2\n      sload\n      dup2\n      lt\n      tag_44\n      jumpi\n      tag_45\n      tag_46\n      jump\t// in\n    tag_45:\n    tag_44:\n      swap1\n      0x00\n      mstore\n      keccak256(0x00, 0x20)\n      add\n      0x00\n      swap1\n      sload\n      swap1\n      0x0100\n      exp\n      swap1\n      div\n      0xffffffffffffffffffffffffffffffffffffffff\n      and\n        /* \"contracts/MultiSIG_Wallet.sol\":781:804  owners[i] == msg.sender */\n      0xffffffffffffffffffffffffffffffffffffffff\n      and\n      sub\n        /* \"contracts/MultiSIG_Wallet.sol\":777:852  if (owners[i] == msg.sender){... */\n      tag_48\n      jumpi\n        /* \"contracts/MultiSIG_Wallet.sol\":832:836  true */\n      0x01\n        /* \"contracts/MultiSIG_Wallet.sol\":824:836  owner = true */\n      swap2\n      pop\n        /* \"contracts/MultiSIG_Wallet.sol\":777:852  if (owners[i] == msg.sender){... */\n    tag_48:\n        /* \"contracts/MultiSIG_Wallet.sol\":758:761  i++ */\n      dup1\n      dup1\n      tag_49\n      swap1\n      tag_50\n      jump\t// in\n    tag_49:\n      swap2\n      pop\n      pop\n        /* \"contracts/MultiSIG_Wallet.sol\":728:863  for(uint i=0; i<owners.length;i++){... */\n      jump(tag_41)\n    tag_42:\n      pop\n        /* \"contracts/MultiSIG_Wallet.sol\":890:894  true */\n      0x01\n        /* \"contracts/MultiSIG_Wallet.sol\":881:894  owner == true */\n      iszero\n      iszero\n        /* \"contracts/MultiSIG_Wallet.sol\":881:886  owner */\n      dup2\n        /* \"contracts/MultiSIG_Wallet.sol\":881:894  owner == true */\n      iszero\n      iszero\n      eq\n        /* \"contracts/MultiSIG_Wallet.sol\":873:895  require(owner == true) */\n      tag_51\n      jumpi\n      0x00\n      dup1\n      revert\n    tag_51:\n        /* \"contracts/MultiSIG_Wallet.sol\":2618:2625  _amount */\n      dup3\n        /* \"contracts/MultiSIG_Wallet.sol\":2596:2603  balance */\n      0x03\n        /* \"contracts/MultiSIG_Wallet.sol\":2596:2615  balance[msg.sender] */\n      0x00\n        /* \"contracts/MultiSIG_Wallet.sol\":2604:2614  msg.sender */\n      caller\n        /* \"contracts/MultiSIG_Wallet.sol\":2596:2615  balance[msg.sender] */\n      0xffffffffffffffffffffffffffffffffffffffff\n      and\n      0xffffffffffffffffffffffffffffffffffffffff\n      and\n      dup2\n      mstore\n      0x20\n      add\n      swap1\n      dup2\n      mstore\n      0x20\n      add\n      0x00\n      keccak256\n      sload\n        /* \"contracts/MultiSIG_Wallet.sol\":2596:2625  balance[msg.sender]>= _amount */\n      lt\n      iszero\n        /* \"contracts/MultiSIG_Wallet.sol\":2588:2680  require(balance[msg.sender]>= _amount,\"ERROR Creat_Insufficient balance to transfer funds.\") */\n      tag_53\n      jumpi\n      mload(0x40)\n      0x08c379a000000000000000000000000000000000000000000000000000000000\n      dup2\n      mstore\n      0x04\n      add\n      tag_54\n      swap1\n      tag_55\n      jump\t// in\n    tag_54:\n      mload(0x40)\n      dup1\n      swap2\n      sub\n      swap1\n      revert\n    tag_53:\n        /* \"contracts/MultiSIG_Wallet.sol\":2744:2753  _receiver */\n      dup2\n        /* \"contracts/MultiSIG_Wallet.sol\":2730:2753  msg.sender != _receiver */\n      0xffffffffffffffffffffffffffffffffffffffff\n      and\n        /* \"contracts/MultiSIG_Wallet.sol\":2730:2740  msg.sender */\n      caller\n        /* \"contracts/MultiSIG_Wallet.sol\":2730:2753  msg.sender != _receiver */\n      0xffffffffffffffffffffffffffffffffffffffff\n      and\n      sub\n        /* \"contracts/MultiSIG_Wallet.sol\":2722:2800  require(msg.sender != _receiver,\"ERROR 3_The sender cannot be the recipient.\") */\n      tag_56\n      jumpi\n      mload(0x40)\n      0x08c379a000000000000000000000000000000000000000000000000000000000\n      dup2\n      mstore\n      0x04\n      add\n      tag_57\n      swap1\n      tag_58\n      jump\t// in\n    tag_57:\n      mload(0x40)\n      dup1\n      swap2\n      sub\n      swap1\n      revert\n    tag_56:\n        /* \"contracts/MultiSIG_Wallet.sol\":2816:2895  TransferRequestCreated(transferRequests.length, _amount, msg.sender, _receiver) */\n      0x099c4ec4ecfc26f7c8b27aeee5443f92120fa2c4e91ba6020369ae71a4d44278\n        /* \"contracts/MultiSIG_Wallet.sol\":2839:2855  transferRequests */\n      0x02\n        /* \"contracts/MultiSIG_Wallet.sol\":2839:2862  transferRequests.length */\n      dup1\n      sload\n      swap1\n      pop\n        /* \"contracts/MultiSIG_Wallet.sol\":2864:2871  _amount */\n      dup5\n        /* \"contracts/MultiSIG_Wallet.sol\":2873:2883  msg.sender */\n      caller\n        /* \"contracts/MultiSIG_Wallet.sol\":2885:2894  _receiver */\n      dup6\n        /* \"contracts/MultiSIG_Wallet.sol\":2816:2895  TransferRequestCreated(transferRequests.length, _amount, msg.sender, _receiver) */\n      mload(0x40)\n      tag_59\n      swap5\n      swap4\n      swap3\n      swap2\n      swap1\n      tag_60\n      jump\t// in\n    tag_59:\n      mload(0x40)\n      dup1\n      swap2\n      sub\n      swap1\n      log1\n        /* \"contracts/MultiSIG_Wallet.sol\":2906:2922  transferRequests */\n      0x02\n        /* \"contracts/MultiSIG_Wallet.sol\":2942:3005  Transfer(_amount, _receiver, 0, false, transferRequests.length) */\n      mload(0x40)\n      dup1\n      0xa0\n      add\n      0x40\n      mstore\n      dup1\n        /* \"contracts/MultiSIG_Wallet.sol\":2951:2958  _amount */\n      dup6\n        /* \"contracts/MultiSIG_Wallet.sol\":2942:3005  Transfer(_amount, _receiver, 0, false, transferRequests.length) */\n      dup2\n      mstore\n      0x20\n      add\n        /* \"contracts/MultiSIG_Wallet.sol\":2960:2969  _receiver */\n      dup5\n        /* \"contracts/MultiSIG_Wallet.sol\":2942:3005  Transfer(_amount, _receiver, 0, false, transferRequests.length) */\n      0xffffffffffffffffffffffffffffffffffffffff\n      and\n      dup2\n      mstore\n      0x20\n      add\n        /* \"contracts/MultiSIG_Wallet.sol\":2971:2972  0 */\n      0x00\n        /* \"contracts/MultiSIG_Wallet.sol\":2942:3005  Transfer(_amount, _receiver, 0, false, transferRequests.length) */\n      dup2\n      mstore\n      0x20\n      add\n        /* \"contracts/MultiSIG_Wallet.sol\":2974:2979  false */\n      0x00\n        /* \"contracts/MultiSIG_Wallet.sol\":2942:3005  Transfer(_amount, _receiver, 0, false, transferRequests.length) */\n      iszero\n      iszero\n      dup2\n      mstore\n      0x20\n      add\n        /* \"contracts/MultiSIG_Wallet.sol\":2981:2997  transferRequests */\n      0x02\n        /* \"contracts/MultiSIG_Wallet.sol\":2981:3004  transferRequests.length */\n      dup1\n      sload\n      swap1\n      pop\n        /* \"contracts/MultiSIG_Wallet.sol\":2942:3005  Transfer(_amount, _receiver, 0, false, transferRequests.length) */\n      dup2\n      mstore\n      pop\n        /* \"contracts/MultiSIG_Wallet.sol\":2906:3016  transferRequests.push(... */\n      swap1\n      dup1\n      0x01\n      dup2\n      sload\n      add\n      dup1\n      dup3\n      sstore\n      dup1\n      swap2\n      pop\n      pop\n      0x01\n      swap1\n      sub\n      swap1\n      0x00\n      mstore\n      keccak256(0x00, 0x20)\n      swap1\n      0x05\n      mul\n      add\n      0x00\n      swap1\n      swap2\n      swap1\n      swap2\n      swap1\n      swap2\n      pop\n      0x00\n      dup3\n      add\n      mload\n      dup2\n      0x00\n      add\n      sstore\n      0x20\n      dup3\n      add\n      mload\n      dup2\n      0x01\n      add\n      exp(0x0100, 0x00)\n      dup2\n      sload\n      dup2\n      0xffffffffffffffffffffffffffffffffffffffff\n      mul\n      not\n      and\n      swap1\n      dup4\n      0xffffffffffffffffffffffffffffffffffffffff\n      and\n      mul\n      or\n      swap1\n      sstore\n      pop\n      0x40\n      dup3\n      add\n      mload\n      dup2\n      0x02\n      add\n      sstore\n      0x60\n      dup3\n      add\n      mload\n      dup2\n      0x03\n      add\n      exp(0x0100, 0x00)\n      dup2\n      sload\n      dup2\n      0xff\n      mul\n      not\n      and\n      swap1\n      dup4\n      iszero\n      iszero\n      mul\n      or\n      swap1\n      sstore\n      pop\n      0x80\n      dup3\n      add\n      mload\n      dup2\n      0x04\n      add\n      sstore\n      pop\n      pop\n        /* \"contracts/MultiSIG_Wallet.sol\":688:915  {... */\n      pop\n        /* \"contracts/MultiSIG_Wallet.sol\":2495:3024  function createTransfer(uint _amount, address payable _receiver) public onlyOwners{... */\n      pop\n      pop\n      jump\t// out\n        /* \"contracts/MultiSIG_Wallet.sol\":4662:4774  function getTransferRequests() public view returns (Transfer[] memory){... */\n    tag_27:\n        /* \"contracts/MultiSIG_Wallet.sol\":4714:4731  Transfer[] memory */\n      0x60\n        /* \"contracts/MultiSIG_Wallet.sol\":4750:4766  transferRequests */\n      0x02\n        /* \"contracts/MultiSIG_Wallet.sol\":4743:4766  return transferRequests */\n      dup1\n      sload\n      dup1\n      0x20\n      mul\n      0x20\n      add\n      mload(0x40)\n      swap1\n      dup2\n      add\n      0x40\n      mstore\n      dup1\n      swap3\n      swap2\n      swap1\n      dup2\n      dup2\n      mstore\n      0x20\n      add\n      0x00\n      swap1\n    tag_63:\n      dup3\n      dup3\n      lt\n      iszero\n      tag_64\n      jumpi\n      dup4\n      dup3\n      swap1\n      0x00\n      mstore\n      keccak256(0x00, 0x20)\n      swap1\n      0x05\n      mul\n      add\n      mload(0x40)\n      dup1\n      0xa0\n      add\n      0x40\n      mstore\n      swap1\n      dup2\n      0x00\n      dup3\n      add\n      sload\n      dup2\n      mstore\n      0x20\n      add\n      0x01\n      dup3\n      add\n      0x00\n      swap1\n      sload\n      swap1\n      0x0100\n      exp\n      swap1\n      div\n      0xffffffffffffffffffffffffffffffffffffffff\n      and\n      0xffffffffffffffffffffffffffffffffffffffff\n      and\n      0xffffffffffffffffffffffffffffffffffffffff\n      and\n      dup2\n      mstore\n      0x20\n      add\n      0x02\n      dup3\n      add\n      sload\n      dup2\n      mstore\n      0x20\n      add\n      0x03\n      dup3\n      add\n      0x00\n      swap1\n      sload\n      swap1\n      0x0100\n      exp\n      swap1\n      div\n      0xff\n      and\n      iszero\n      iszero\n      iszero\n      iszero\n      dup2\n      mstore\n      0x20\n      add\n      0x04\n      dup3\n      add\n      sload\n      dup2\n      mstore\n      pop\n      pop\n      dup2\n      mstore\n      0x20\n      add\n      swap1\n      0x01\n      add\n      swap1\n      jump(tag_63)\n    tag_64:\n      pop\n      pop\n      pop\n      pop\n      swap1\n      pop\n        /* \"contracts/MultiSIG_Wallet.sol\":4662:4774  function getTransferRequests() public view returns (Transfer[] memory){... */\n      swap1\n      jump\t// out\n        /* \"contracts/MultiSIG_Wallet.sol\":3793:4530  function approve(uint _id) public onlyOwners {  ... */\n    tag_33:\n        /* \"contracts/MultiSIG_Wallet.sol\":699:709  bool owner */\n      0x00\n        /* \"contracts/MultiSIG_Wallet.sol\":732:738  uint i */\n      dup1\n        /* \"contracts/MultiSIG_Wallet.sol\":728:863  for(uint i=0; i<owners.length;i++){... */\n    tag_67:\n        /* \"contracts/MultiSIG_Wallet.sol\":744:750  owners */\n      0x01\n        /* \"contracts/MultiSIG_Wallet.sol\":744:757  owners.length */\n      dup1\n      sload\n      swap1\n      pop\n        /* \"contracts/MultiSIG_Wallet.sol\":742:743  i */\n      dup2\n        /* \"contracts/MultiSIG_Wallet.sol\":742:757  i<owners.length */\n      lt\n        /* \"contracts/MultiSIG_Wallet.sol\":728:863  for(uint i=0; i<owners.length;i++){... */\n      iszero\n      tag_68\n      jumpi\n        /* \"contracts/MultiSIG_Wallet.sol\":794:804  msg.sender */\n      caller\n        /* \"contracts/MultiSIG_Wallet.sol\":781:804  owners[i] == msg.sender */\n      0xffffffffffffffffffffffffffffffffffffffff\n      and\n        /* \"contracts/MultiSIG_Wallet.sol\":781:787  owners */\n      0x01\n        /* \"contracts/MultiSIG_Wallet.sol\":788:789  i */\n      dup3\n        /* \"contracts/MultiSIG_Wallet.sol\":781:790  owners[i] */\n      dup2\n      sload\n      dup2\n      lt\n      tag_70\n      jumpi\n      tag_71\n      tag_46\n      jump\t// in\n    tag_71:\n    tag_70:\n      swap1\n      0x00\n      mstore\n      keccak256(0x00, 0x20)\n      add\n      0x00\n      swap1\n      sload\n      swap1\n      0x0100\n      exp\n      swap1\n      div\n      0xffffffffffffffffffffffffffffffffffffffff\n      and\n        /* \"contracts/MultiSIG_Wallet.sol\":781:804  owners[i] == msg.sender */\n      0xffffffffffffffffffffffffffffffffffffffff\n      and\n      sub\n        /* \"contracts/MultiSIG_Wallet.sol\":777:852  if (owners[i] == msg.sender){... */\n      tag_73\n      jumpi\n        /* \"contracts/MultiSIG_Wallet.sol\":832:836  true */\n      0x01\n        /* \"contracts/MultiSIG_Wallet.sol\":824:836  owner = true */\n      swap2\n      pop\n        /* \"contracts/MultiSIG_Wallet.sol\":777:852  if (owners[i] == msg.sender){... */\n    tag_73:\n        /* \"contracts/MultiSIG_Wallet.sol\":758:761  i++ */\n      dup1\n      dup1\n      tag_74\n      swap1\n      tag_50\n      jump\t// in\n    tag_74:\n      swap2\n      pop\n      pop\n        /* \"contracts/MultiSIG_Wallet.sol\":728:863  for(uint i=0; i<owners.length;i++){... */\n      jump(tag_67)\n    tag_68:\n      pop\n        /* \"contracts/MultiSIG_Wallet.sol\":890:894  true */\n      0x01\n        /* \"contracts/MultiSIG_Wallet.sol\":881:894  owner == true */\n      iszero\n      iszero\n        /* \"contracts/MultiSIG_Wallet.sol\":881:886  owner */\n      dup2\n        /* \"contracts/MultiSIG_Wallet.sol\":881:894  owner == true */\n      iszero\n      iszero\n      eq\n        /* \"contracts/MultiSIG_Wallet.sol\":873:895  require(owner == true) */\n      tag_75\n      jumpi\n      0x00\n      dup1\n      revert\n    tag_75:\n        /* \"contracts/MultiSIG_Wallet.sol\":3889:3894  false */\n      0x00\n        /* \"contracts/MultiSIG_Wallet.sol\":3859:3894  approvals[msg.sender][_id] == false */\n      iszero\n      iszero\n        /* \"contracts/MultiSIG_Wallet.sol\":3859:3868  approvals */\n      0x04\n        /* \"contracts/MultiSIG_Wallet.sol\":3859:3880  approvals[msg.sender] */\n      0x00\n        /* \"contracts/MultiSIG_Wallet.sol\":3869:3879  msg.sender */\n      caller\n        /* \"contracts/MultiSIG_Wallet.sol\":3859:3880  approvals[msg.sender] */\n      0xffffffffffffffffffffffffffffffffffffffff\n      and\n      0xffffffffffffffffffffffffffffffffffffffff\n      and\n      dup2\n      mstore\n      0x20\n      add\n      swap1\n      dup2\n      mstore\n      0x20\n      add\n      0x00\n      keccak256\n        /* \"contracts/MultiSIG_Wallet.sol\":3859:3885  approvals[msg.sender][_id] */\n      0x00\n        /* \"contracts/MultiSIG_Wallet.sol\":3881:3884  _id */\n      dup5\n        /* \"contracts/MultiSIG_Wallet.sol\":3859:3885  approvals[msg.sender][_id] */\n      dup2\n      mstore\n      0x20\n      add\n      swap1\n      dup2\n      mstore\n      0x20\n      add\n      0x00\n      keccak256\n      0x00\n      swap1\n      sload\n      swap1\n      0x0100\n      exp\n      swap1\n      div\n      0xff\n      and\n        /* \"contracts/MultiSIG_Wallet.sol\":3859:3894  approvals[msg.sender][_id] == false */\n      iszero\n      iszero\n      eq\n        /* \"contracts/MultiSIG_Wallet.sol\":3851:3944  require(approvals[msg.sender][_id] == false, \"ERROR 7_Owners are not allowed to vote twice.\") */\n      tag_77\n      jumpi\n      mload(0x40)\n      0x08c379a000000000000000000000000000000000000000000000000000000000\n      dup2\n      mstore\n      0x04\n      add\n      tag_78\n      swap1\n      tag_79\n      jump\t// in\n    tag_78:\n      mload(0x40)\n      dup1\n      swap2\n      sub\n      swap1\n      revert\n    tag_77:\n        /* \"contracts/MultiSIG_Wallet.sol\":4000:4005  false */\n      0x00\n        /* \"contracts/MultiSIG_Wallet.sol\":3963:4005  transferRequests[_id].hasBeenSent == false */\n      iszero\n      iszero\n        /* \"contracts/MultiSIG_Wallet.sol\":3963:3979  transferRequests */\n      0x02\n        /* \"contracts/MultiSIG_Wallet.sol\":3980:3983  _id */\n      dup4\n        /* \"contracts/MultiSIG_Wallet.sol\":3963:3984  transferRequests[_id] */\n      dup2\n      sload\n      dup2\n      lt\n      tag_80\n      jumpi\n      tag_81\n      tag_46\n      jump\t// in\n    tag_81:\n    tag_80:\n      swap1\n      0x00\n      mstore\n      keccak256(0x00, 0x20)\n      swap1\n      0x05\n      mul\n      add\n        /* \"contracts/MultiSIG_Wallet.sol\":3963:3996  transferRequests[_id].hasBeenSent */\n      0x03\n      add\n      0x00\n      swap1\n      sload\n      swap1\n      0x0100\n      exp\n      swap1\n      div\n      0xff\n      and\n        /* \"contracts/MultiSIG_Wallet.sol\":3963:4005  transferRequests[_id].hasBeenSent == false */\n      iszero\n      iszero\n      eq\n        /* \"contracts/MultiSIG_Wallet.sol\":3955:4098  require(transferRequests[_id].hasBeenSent == false, \"ERROR 8_Owners are not allowed to vote on a transfer request that has already been sent.\") */\n      tag_83\n      jumpi\n      mload(0x40)\n      0x08c379a000000000000000000000000000000000000000000000000000000000\n      dup2\n      mstore\n      0x04\n      add\n      tag_84\n      swap1\n      tag_85\n      jump\t// in\n    tag_84:\n      mload(0x40)\n      dup1\n      swap2\n      sub\n      swap1\n      revert\n    tag_83:\n        /* \"contracts/MultiSIG_Wallet.sol\":4140:4144  true */\n      0x01\n        /* \"contracts/MultiSIG_Wallet.sol\":4111:4120  approvals */\n      0x04\n        /* \"contracts/MultiSIG_Wallet.sol\":4111:4132  approvals[msg.sender] */\n      0x00\n        /* \"contracts/MultiSIG_Wallet.sol\":4121:4131  msg.sender */\n      caller\n        /* \"contracts/MultiSIG_Wallet.sol\":4111:4132  approvals[msg.sender] */\n      0xffffffffffffffffffffffffffffffffffffffff\n      and\n      0xffffffffffffffffffffffffffffffffffffffff\n      and\n      dup2\n      mstore\n      0x20\n      add\n      swap1\n      dup2\n      mstore\n      0x20\n      add\n      0x00\n      keccak256\n        /* \"contracts/MultiSIG_Wallet.sol\":4111:4137  approvals[msg.sender][_id] */\n      0x00\n        /* \"contracts/MultiSIG_Wallet.sol\":4133:4136  _id */\n      dup5\n        /* \"contracts/MultiSIG_Wallet.sol\":4111:4137  approvals[msg.sender][_id] */\n      dup2\n      mstore\n      0x20\n      add\n      swap1\n      dup2\n      mstore\n      0x20\n      add\n      0x00\n      keccak256\n      0x00\n        /* \"contracts/MultiSIG_Wallet.sol\":4111:4144  approvals[msg.sender][_id] = true */\n      0x0100\n      exp\n      dup2\n      sload\n      dup2\n      0xff\n      mul\n      not\n      and\n      swap1\n      dup4\n      iszero\n      iszero\n      mul\n      or\n      swap1\n      sstore\n      pop\n        /* \"contracts/MultiSIG_Wallet.sol\":4155:4171  transferRequests */\n      0x02\n        /* \"contracts/MultiSIG_Wallet.sol\":4172:4175  _id */\n      dup3\n        /* \"contracts/MultiSIG_Wallet.sol\":4155:4176  transferRequests[_id] */\n      dup2\n      sload\n      dup2\n      lt\n      tag_86\n      jumpi\n      tag_87\n      tag_46\n      jump\t// in\n    tag_87:\n    tag_86:\n      swap1\n      0x00\n      mstore\n      keccak256(0x00, 0x20)\n      swap1\n      0x05\n      mul\n      add\n        /* \"contracts/MultiSIG_Wallet.sol\":4155:4186  transferRequests[_id].approvals */\n      0x02\n      add\n      0x00\n        /* \"contracts/MultiSIG_Wallet.sol\":4155:4188  transferRequests[_id].approvals++ */\n      dup2\n      sload\n      dup1\n      swap3\n      swap2\n      swap1\n      tag_89\n      swap1\n      tag_50\n      jump\t// in\n    tag_89:\n      swap2\n      swap1\n      pop\n      sstore\n      pop\n        /* \"contracts/MultiSIG_Wallet.sol\":4206:4272  ApprovalReceived(_id, transferRequests[_id].approvals, msg.sender) */\n      0xfec9d12d15ee8c8b836a58347cb0d4980db38411bcd0b83662cee48fb20b6dee\n        /* \"contracts/MultiSIG_Wallet.sol\":4223:4226  _id */\n      dup3\n        /* \"contracts/MultiSIG_Wallet.sol\":4228:4244  transferRequests */\n      0x02\n        /* \"contracts/MultiSIG_Wallet.sol\":4245:4248  _id */\n      dup5\n        /* \"contracts/MultiSIG_Wallet.sol\":4228:4249  transferRequests[_id] */\n      dup2\n      sload\n      dup2\n      lt\n      tag_90\n      jumpi\n      tag_91\n      tag_46\n      jump\t// in\n    tag_91:\n    tag_90:\n      swap1\n      0x00\n      mstore\n      keccak256(0x00, 0x20)\n      swap1\n      0x05\n      mul\n      add\n        /* \"contracts/MultiSIG_Wallet.sol\":4228:4259  transferRequests[_id].approvals */\n      0x02\n      add\n      sload\n        /* \"contracts/MultiSIG_Wallet.sol\":4261:4271  msg.sender */\n      caller\n        /* \"contracts/MultiSIG_Wallet.sol\":4206:4272  ApprovalReceived(_id, transferRequests[_id].approvals, msg.sender) */\n      mload(0x40)\n      tag_93\n      swap4\n      swap3\n      swap2\n      swap1\n      tag_94\n      jump\t// in\n    tag_93:\n      mload(0x40)\n      dup1\n      swap2\n      sub\n      swap1\n      log1\n        /* \"contracts/MultiSIG_Wallet.sol\":4323:4328  limit */\n      sload(0x00)\n        /* \"contracts/MultiSIG_Wallet.sol\":4288:4304  transferRequests */\n      0x02\n        /* \"contracts/MultiSIG_Wallet.sol\":4305:4308  _id */\n      dup4\n        /* \"contracts/MultiSIG_Wallet.sol\":4288:4309  transferRequests[_id] */\n      dup2\n      sload\n      dup2\n      lt\n      tag_95\n      jumpi\n      tag_96\n      tag_46\n      jump\t// in\n    tag_96:\n    tag_95:\n      swap1\n      0x00\n      mstore\n      keccak256(0x00, 0x20)\n      swap1\n      0x05\n      mul\n      add\n        /* \"contracts/MultiSIG_Wallet.sol\":4288:4319  transferRequests[_id].approvals */\n      0x02\n      add\n      sload\n        /* \"contracts/MultiSIG_Wallet.sol\":4288:4328  transferRequests[_id].approvals >= limit */\n      lt\n        /* \"contracts/MultiSIG_Wallet.sol\":4285:4523  if(transferRequests[_id].approvals >= limit){... */\n      tag_98\n      jumpi\n        /* \"contracts/MultiSIG_Wallet.sol\":4380:4384  true */\n      0x01\n        /* \"contracts/MultiSIG_Wallet.sol\":4344:4360  transferRequests */\n      0x02\n        /* \"contracts/MultiSIG_Wallet.sol\":4361:4364  _id */\n      dup4\n        /* \"contracts/MultiSIG_Wallet.sol\":4344:4365  transferRequests[_id] */\n      dup2\n      sload\n      dup2\n      lt\n      tag_99\n      jumpi\n      tag_100\n      tag_46\n      jump\t// in\n    tag_100:\n    tag_99:\n      swap1\n      0x00\n      mstore\n      keccak256(0x00, 0x20)\n      swap1\n      0x05\n      mul\n      add\n        /* \"contracts/MultiSIG_Wallet.sol\":4344:4377  transferRequests[_id].hasBeenSent */\n      0x03\n      add\n      0x00\n        /* \"contracts/MultiSIG_Wallet.sol\":4344:4384  transferRequests[_id].hasBeenSent = true */\n      0x0100\n      exp\n      dup2\n      sload\n      dup2\n      0xff\n      mul\n      not\n      and\n      swap1\n      dup4\n      iszero\n      iszero\n      mul\n      or\n      swap1\n      sstore\n      pop\n        /* \"contracts/MultiSIG_Wallet.sol\":4399:4415  transferRequests */\n      0x02\n        /* \"contracts/MultiSIG_Wallet.sol\":4416:4419  _id */\n      dup3\n        /* \"contracts/MultiSIG_Wallet.sol\":4399:4420  transferRequests[_id] */\n      dup2\n      sload\n      dup2\n      lt\n      tag_102\n      jumpi\n      tag_103\n      tag_46\n      jump\t// in\n    tag_103:\n    tag_102:\n      swap1\n      0x00\n      mstore\n      keccak256(0x00, 0x20)\n      swap1\n      0x05\n      mul\n      add\n        /* \"contracts/MultiSIG_Wallet.sol\":4399:4429  transferRequests[_id].receiver */\n      0x01\n      add\n      0x00\n      swap1\n      sload\n      swap1\n      0x0100\n      exp\n      swap1\n      div\n      0xffffffffffffffffffffffffffffffffffffffff\n      and\n        /* \"contracts/MultiSIG_Wallet.sol\":4399:4438  transferRequests[_id].receiver.transfer */\n      0xffffffffffffffffffffffffffffffffffffffff\n      and\n        /* \"contracts/MultiSIG_Wallet.sol\":4399:4468  transferRequests[_id].receiver.transfer(transferRequests[_id].amount) */\n      0x08fc\n        /* \"contracts/MultiSIG_Wallet.sol\":4439:4455  transferRequests */\n      0x02\n        /* \"contracts/MultiSIG_Wallet.sol\":4456:4459  _id */\n      dup5\n        /* \"contracts/MultiSIG_Wallet.sol\":4439:4460  transferRequests[_id] */\n      dup2\n      sload\n      dup2\n      lt\n      tag_105\n      jumpi\n      tag_106\n      tag_46\n      jump\t// in\n    tag_106:\n    tag_105:\n      swap1\n      0x00\n      mstore\n      keccak256(0x00, 0x20)\n      swap1\n      0x05\n      mul\n      add\n        /* \"contracts/MultiSIG_Wallet.sol\":4439:4467  transferRequests[_id].amount */\n      0x00\n      add\n      sload\n        /* \"contracts/MultiSIG_Wallet.sol\":4399:4468  transferRequests[_id].receiver.transfer(transferRequests[_id].amount) */\n      swap1\n      dup2\n      iszero\n      mul\n      swap1\n      mload(0x40)\n      0x00\n      mload(0x40)\n      dup1\n      dup4\n      sub\n      dup2\n      dup6\n      dup9\n      dup9\n      call\n      swap4\n      pop\n      pop\n      pop\n      pop\n      iszero\n      dup1\n      iszero\n      tag_109\n      jumpi\n      returndatasize\n      0x00\n      dup1\n      returndatacopy\n      revert(0x00, returndatasize)\n    tag_109:\n      pop\n        /* \"contracts/MultiSIG_Wallet.sol\":4490:4511  TransferApproved(_id) */\n      0xd9bbf1d8bef570b7e92ef1ba025425fc15915ae01f3d3be144cdc8be05442eb5\n        /* \"contracts/MultiSIG_Wallet.sol\":4507:4510  _id */\n      dup3\n        /* \"contracts/MultiSIG_Wallet.sol\":4490:4511  TransferApproved(_id) */\n      mload(0x40)\n      tag_110\n      swap2\n      swap1\n      tag_19\n      jump\t// in\n    tag_110:\n      mload(0x40)\n      dup1\n      swap2\n      sub\n      swap1\n      log1\n        /* \"contracts/MultiSIG_Wallet.sol\":4285:4523  if(transferRequests[_id].approvals >= limit){... */\n    tag_98:\n        /* \"contracts/MultiSIG_Wallet.sol\":688:915  {... */\n      pop\n        /* \"contracts/MultiSIG_Wallet.sol\":3793:4530  function approve(uint _id) public onlyOwners {  ... */\n      pop\n      jump\t// out\n        /* \"contracts/MultiSIG_Wallet.sol\":2135:2340  function deposit() public payable returns (uint) { ... */\n    tag_35:\n        /* \"contracts/MultiSIG_Wallet.sol\":2178:2182  uint */\n      0x00\n        /* \"contracts/MultiSIG_Wallet.sol\":2219:2228  msg.value */\n      callvalue\n        /* \"contracts/MultiSIG_Wallet.sol\":2196:2203  balance */\n      0x03\n        /* \"contracts/MultiSIG_Wallet.sol\":2196:2215  balance[msg.sender] */\n      0x00\n        /* \"contracts/MultiSIG_Wallet.sol\":2204:2214  msg.sender */\n      caller\n        /* \"contracts/MultiSIG_Wallet.sol\":2196:2215  balance[msg.sender] */\n      0xffffffffffffffffffffffffffffffffffffffff\n      and\n      0xffffffffffffffffffffffffffffffffffffffff\n      and\n      dup2\n      mstore\n      0x20\n      add\n      swap1\n      dup2\n      mstore\n      0x20\n      add\n      0x00\n      keccak256\n      0x00\n        /* \"contracts/MultiSIG_Wallet.sol\":2196:2228  balance[msg.sender] += msg.value */\n      dup3\n      dup3\n      sload\n      tag_112\n      swap2\n      swap1\n      tag_113\n      jump\t// in\n    tag_112:\n      swap3\n      pop\n      pop\n      dup2\n      swap1\n      sstore\n      pop\n        /* \"contracts/MultiSIG_Wallet.sol\":2267:2277  msg.sender */\n      caller\n        /* \"contracts/MultiSIG_Wallet.sol\":2245:2278  deposited (msg.value, msg.sender) */\n      0xffffffffffffffffffffffffffffffffffffffff\n      and\n        /* \"contracts/MultiSIG_Wallet.sol\":2256:2265  msg.value */\n      callvalue\n        /* \"contracts/MultiSIG_Wallet.sol\":2245:2278  deposited (msg.value, msg.sender) */\n      0xa23831066066ec8812cc52afc91a52134a8b50c9209b68c276be679f4073d95d\n      mload(0x40)\n      mload(0x40)\n      dup1\n      swap2\n      sub\n      swap1\n      log3\n        /* \"contracts/MultiSIG_Wallet.sol\":2313:2320  balance */\n      0x03\n        /* \"contracts/MultiSIG_Wallet.sol\":2313:2332  balance[msg.sender] */\n      0x00\n        /* \"contracts/MultiSIG_Wallet.sol\":2321:2331  msg.sender */\n      caller\n        /* \"contracts/MultiSIG_Wallet.sol\":2313:2332  balance[msg.sender] */\n      0xffffffffffffffffffffffffffffffffffffffff\n      and\n      0xffffffffffffffffffffffffffffffffffffffff\n      and\n      dup2\n      mstore\n      0x20\n      add\n      swap1\n      dup2\n      mstore\n      0x20\n      add\n      0x00\n      keccak256\n      sload\n        /* \"contracts/MultiSIG_Wallet.sol\":2306:2332  return balance[msg.sender] */\n      swap1\n      pop\n        /* \"contracts/MultiSIG_Wallet.sol\":2135:2340  function deposit() public payable returns (uint) { ... */\n      swap1\n      jump\t// out\n        /* \"#utility.yul\":88:205   */\n    tag_115:\n        /* \"#utility.yul\":197:198   */\n      0x00\n        /* \"#utility.yul\":194:195   */\n      dup1\n        /* \"#utility.yul\":187:199   */\n      revert\n        /* \"#utility.yul\":334:411   */\n    tag_117:\n        /* \"#utility.yul\":371:378   */\n      0x00\n        /* \"#utility.yul\":400:405   */\n      dup2\n        /* \"#utility.yul\":389:405   */\n      swap1\n      pop\n        /* \"#utility.yul\":334:411   */\n      swap2\n      swap1\n      pop\n      jump\t// out\n        /* \"#utility.yul\":417:539   */\n    tag_118:\n        /* \"#utility.yul\":490:514   */\n      tag_159\n        /* \"#utility.yul\":508:513   */\n      dup2\n        /* \"#utility.yul\":490:514   */\n      tag_117\n      jump\t// in\n    tag_159:\n        /* \"#utility.yul\":483:488   */\n      dup2\n        /* \"#utility.yul\":480:515   */\n      eq\n        /* \"#utility.yul\":470:533   */\n      tag_160\n      jumpi\n        /* \"#utility.yul\":529:530   */\n      0x00\n        /* \"#utility.yul\":526:527   */\n      dup1\n        /* \"#utility.yul\":519:531   */\n      revert\n        /* \"#utility.yul\":470:533   */\n    tag_160:\n        /* \"#utility.yul\":417:539   */\n      pop\n      jump\t// out\n        /* \"#utility.yul\":545:684   */\n    tag_119:\n        /* \"#utility.yul\":591:596   */\n      0x00\n        /* \"#utility.yul\":629:635   */\n      dup2\n        /* \"#utility.yul\":616:636   */\n      calldataload\n        /* \"#utility.yul\":607:636   */\n      swap1\n      pop\n        /* \"#utility.yul\":645:678   */\n      tag_162\n        /* \"#utility.yul\":672:677   */\n      dup2\n        /* \"#utility.yul\":645:678   */\n      tag_118\n      jump\t// in\n    tag_162:\n        /* \"#utility.yul\":545:684   */\n      swap3\n      swap2\n      pop\n      pop\n      jump\t// out\n        /* \"#utility.yul\":690:1019   */\n    tag_11:\n        /* \"#utility.yul\":749:755   */\n      0x00\n        /* \"#utility.yul\":798:800   */\n      0x20\n        /* \"#utility.yul\":786:795   */\n      dup3\n        /* \"#utility.yul\":777:784   */\n      dup5\n        /* \"#utility.yul\":773:796   */\n      sub\n        /* \"#utility.yul\":769:801   */\n      slt\n        /* \"#utility.yul\":766:885   */\n      iszero\n      tag_164\n      jumpi\n        /* \"#utility.yul\":804:883   */\n      tag_165\n      tag_115\n      jump\t// in\n    tag_165:\n        /* \"#utility.yul\":766:885   */\n    tag_164:\n        /* \"#utility.yul\":924:925   */\n      0x00\n        /* \"#utility.yul\":949:1002   */\n      tag_166\n        /* \"#utility.yul\":994:1001   */\n      dup5\n        /* \"#utility.yul\":985:991   */\n      dup3\n        /* \"#utility.yul\":974:983   */\n      dup6\n        /* \"#utility.yul\":970:992   */\n      add\n        /* \"#utility.yul\":949:1002   */\n      tag_119\n      jump\t// in\n    tag_166:\n        /* \"#utility.yul\":939:1002   */\n      swap2\n      pop\n        /* \"#utility.yul\":895:1012   */\n      pop\n        /* \"#utility.yul\":690:1019   */\n      swap3\n      swap2\n      pop\n      pop\n      jump\t// out\n        /* \"#utility.yul\":1025:1151   */\n    tag_120:\n        /* \"#utility.yul\":1062:1069   */\n      0x00\n        /* \"#utility.yul\":1102:1144   */\n      0xffffffffffffffffffffffffffffffffffffffff\n        /* \"#utility.yul\":1095:1100   */\n      dup3\n        /* \"#utility.yul\":1091:1145   */\n      and\n        /* \"#utility.yul\":1080:1145   */\n      swap1\n      pop\n        /* \"#utility.yul\":1025:1151   */\n      swap2\n      swap1\n      pop\n      jump\t// out\n        /* \"#utility.yul\":1157:1253   */\n    tag_121:\n        /* \"#utility.yul\":1194:1201   */\n      0x00\n        /* \"#utility.yul\":1223:1247   */\n      tag_169\n        /* \"#utility.yul\":1241:1246   */\n      dup3\n        /* \"#utility.yul\":1223:1247   */\n      tag_120\n      jump\t// in\n    tag_169:\n        /* \"#utility.yul\":1212:1247   */\n      swap1\n      pop\n        /* \"#utility.yul\":1157:1253   */\n      swap2\n      swap1\n      pop\n      jump\t// out\n        /* \"#utility.yul\":1259:1377   */\n    tag_122:\n        /* \"#utility.yul\":1346:1370   */\n      tag_171\n        /* \"#utility.yul\":1364:1369   */\n      dup2\n        /* \"#utility.yul\":1346:1370   */\n      tag_121\n      jump\t// in\n    tag_171:\n        /* \"#utility.yul\":1341:1344   */\n      dup3\n        /* \"#utility.yul\":1334:1371   */\n      mstore\n        /* \"#utility.yul\":1259:1377   */\n      pop\n      pop\n      jump\t// out\n        /* \"#utility.yul\":1383:1605   */\n    tag_14:\n        /* \"#utility.yul\":1476:1480   */\n      0x00\n        /* \"#utility.yul\":1514:1516   */\n      0x20\n        /* \"#utility.yul\":1503:1512   */\n      dup3\n        /* \"#utility.yul\":1499:1517   */\n      add\n        /* \"#utility.yul\":1491:1517   */\n      swap1\n      pop\n        /* \"#utility.yul\":1527:1598   */\n      tag_173\n        /* \"#utility.yul\":1595:1596   */\n      0x00\n        /* \"#utility.yul\":1584:1593   */\n      dup4\n        /* \"#utility.yul\":1580:1597   */\n      add\n        /* \"#utility.yul\":1571:1577   */\n      dup5\n        /* \"#utility.yul\":1527:1598   */\n      tag_122\n      jump\t// in\n    tag_173:\n        /* \"#utility.yul\":1383:1605   */\n      swap3\n      swap2\n      pop\n      pop\n      jump\t// out\n        /* \"#utility.yul\":1611:1729   */\n    tag_123:\n        /* \"#utility.yul\":1698:1722   */\n      tag_175\n        /* \"#utility.yul\":1716:1721   */\n      dup2\n        /* \"#utility.yul\":1698:1722   */\n      tag_117\n      jump\t// in\n    tag_175:\n        /* \"#utility.yul\":1693:1696   */\n      dup3\n        /* \"#utility.yul\":1686:1723   */\n      mstore\n        /* \"#utility.yul\":1611:1729   */\n      pop\n      pop\n      jump\t// out\n        /* \"#utility.yul\":1735:1957   */\n    tag_19:\n        /* \"#utility.yul\":1828:1832   */\n      0x00\n        /* \"#utility.yul\":1866:1868   */\n      0x20\n        /* \"#utility.yul\":1855:1864   */\n      dup3\n        /* \"#utility.yul\":1851:1869   */\n      add\n        /* \"#utility.yul\":1843:1869   */\n      swap1\n      pop\n        /* \"#utility.yul\":1879:1950   */\n      tag_177\n        /* \"#utility.yul\":1947:1948   */\n      0x00\n        /* \"#utility.yul\":1936:1945   */\n      dup4\n        /* \"#utility.yul\":1932:1949   */\n      add\n        /* \"#utility.yul\":1923:1929   */\n      dup5\n        /* \"#utility.yul\":1879:1950   */\n      tag_123\n      jump\t// in\n    tag_177:\n        /* \"#utility.yul\":1735:1957   */\n      swap3\n      swap2\n      pop\n      pop\n      jump\t// out\n        /* \"#utility.yul\":1963:2067   */\n    tag_124:\n        /* \"#utility.yul\":2008:2015   */\n      0x00\n        /* \"#utility.yul\":2037:2061   */\n      tag_179\n        /* \"#utility.yul\":2055:2060   */\n      dup3\n        /* \"#utility.yul\":2037:2061   */\n      tag_120\n      jump\t// in\n    tag_179:\n        /* \"#utility.yul\":2026:2061   */\n      swap1\n      pop\n        /* \"#utility.yul\":1963:2067   */\n      swap2\n      swap1\n      pop\n      jump\t// out\n        /* \"#utility.yul\":2073:2211   */\n    tag_125:\n        /* \"#utility.yul\":2154:2186   */\n      tag_181\n        /* \"#utility.yul\":2180:2185   */\n      dup2\n        /* \"#utility.yul\":2154:2186   */\n      tag_124\n      jump\t// in\n    tag_181:\n        /* \"#utility.yul\":2147:2152   */\n      dup2\n        /* \"#utility.yul\":2144:2187   */\n      eq\n        /* \"#utility.yul\":2134:2205   */\n      tag_182\n      jumpi\n        /* \"#utility.yul\":2201:2202   */\n      0x00\n        /* \"#utility.yul\":2198:2199   */\n      dup1\n        /* \"#utility.yul\":2191:2203   */\n      revert\n        /* \"#utility.yul\":2134:2205   */\n    tag_182:\n        /* \"#utility.yul\":2073:2211   */\n      pop\n      jump\t// out\n        /* \"#utility.yul\":2217:2372   */\n    tag_126:\n        /* \"#utility.yul\":2271:2276   */\n      0x00\n        /* \"#utility.yul\":2309:2315   */\n      dup2\n        /* \"#utility.yul\":2296:2316   */\n      calldataload\n        /* \"#utility.yul\":2287:2316   */\n      swap1\n      pop\n        /* \"#utility.yul\":2325:2366   */\n      tag_184\n        /* \"#utility.yul\":2360:2365   */\n      dup2\n        /* \"#utility.yul\":2325:2366   */\n      tag_125\n      jump\t// in\n    tag_184:\n        /* \"#utility.yul\":2217:2372   */\n      swap3\n      swap2\n      pop\n      pop\n      jump\t// out\n        /* \"#utility.yul\":2378:2868   */\n    tag_23:\n        /* \"#utility.yul\":2454:2460   */\n      0x00\n        /* \"#utility.yul\":2462:2468   */\n      dup1\n        /* \"#utility.yul\":2511:2513   */\n      0x40\n        /* \"#utility.yul\":2499:2508   */\n      dup4\n        /* \"#utility.yul\":2490:2497   */\n      dup6\n        /* \"#utility.yul\":2486:2509   */\n      sub\n        /* \"#utility.yul\":2482:2514   */\n      slt\n        /* \"#utility.yul\":2479:2598   */\n      iszero\n      tag_186\n      jumpi\n        /* \"#utility.yul\":2517:2596   */\n      tag_187\n      tag_115\n      jump\t// in\n    tag_187:\n        /* \"#utility.yul\":2479:2598   */\n    tag_186:\n        /* \"#utility.yul\":2637:2638   */\n      0x00\n        /* \"#utility.yul\":2662:2715   */\n      tag_188\n        /* \"#utility.yul\":2707:2714   */\n      dup6\n        /* \"#utility.yul\":2698:2704   */\n      dup3\n        /* \"#utility.yul\":2687:2696   */\n      dup7\n        /* \"#utility.yul\":2683:2705   */\n      add\n        /* \"#utility.yul\":2662:2715   */\n      tag_119\n      jump\t// in\n    tag_188:\n        /* \"#utility.yul\":2652:2715   */\n      swap3\n      pop\n        /* \"#utility.yul\":2608:2725   */\n      pop\n        /* \"#utility.yul\":2764:2766   */\n      0x20\n        /* \"#utility.yul\":2790:2851   */\n      tag_189\n        /* \"#utility.yul\":2843:2850   */\n      dup6\n        /* \"#utility.yul\":2834:2840   */\n      dup3\n        /* \"#utility.yul\":2823:2832   */\n      dup7\n        /* \"#utility.yul\":2819:2841   */\n      add\n        /* \"#utility.yul\":2790:2851   */\n      tag_126\n      jump\t// in\n    tag_189:\n        /* \"#utility.yul\":2780:2851   */\n      swap2\n      pop\n        /* \"#utility.yul\":2735:2861   */\n      pop\n        /* \"#utility.yul\":2378:2868   */\n      swap3\n      pop\n      swap3\n      swap1\n      pop\n      jump\t// out\n        /* \"#utility.yul\":2874:3012   */\n    tag_127:\n        /* \"#utility.yul\":2965:2971   */\n      0x00\n        /* \"#utility.yul\":2999:3004   */\n      dup2\n        /* \"#utility.yul\":2993:3005   */\n      mload\n        /* \"#utility.yul\":2983:3005   */\n      swap1\n      pop\n        /* \"#utility.yul\":2874:3012   */\n      swap2\n      swap1\n      pop\n      jump\t// out\n        /* \"#utility.yul\":3018:3226   */\n    tag_128:\n        /* \"#utility.yul\":3141:3152   */\n      0x00\n        /* \"#utility.yul\":3175:3181   */\n      dup3\n        /* \"#utility.yul\":3170:3173   */\n      dup3\n        /* \"#utility.yul\":3163:3182   */\n      mstore\n        /* \"#utility.yul\":3215:3219   */\n      0x20\n        /* \"#utility.yul\":3210:3213   */\n      dup3\n        /* \"#utility.yul\":3206:3220   */\n      add\n        /* \"#utility.yul\":3191:3220   */\n      swap1\n      pop\n        /* \"#utility.yul\":3018:3226   */\n      swap3\n      swap2\n      pop\n      pop\n      jump\t// out\n        /* \"#utility.yul\":3232:3388   */\n    tag_129:\n        /* \"#utility.yul\":3323:3327   */\n      0x00\n        /* \"#utility.yul\":3346:3349   */\n      dup2\n        /* \"#utility.yul\":3338:3349   */\n      swap1\n      pop\n        /* \"#utility.yul\":3376:3380   */\n      0x20\n        /* \"#utility.yul\":3371:3374   */\n      dup3\n        /* \"#utility.yul\":3367:3381   */\n      add\n        /* \"#utility.yul\":3359:3381   */\n      swap1\n      pop\n        /* \"#utility.yul\":3232:3388   */\n      swap2\n      swap1\n      pop\n      jump\t// out\n        /* \"#utility.yul\":3394:3502   */\n    tag_130:\n        /* \"#utility.yul\":3471:3495   */\n      tag_194\n        /* \"#utility.yul\":3489:3494   */\n      dup2\n        /* \"#utility.yul\":3471:3495   */\n      tag_117\n      jump\t// in\n    tag_194:\n        /* \"#utility.yul\":3466:3469   */\n      dup3\n        /* \"#utility.yul\":3459:3496   */\n      mstore\n        /* \"#utility.yul\":3394:3502   */\n      pop\n      pop\n      jump\t// out\n        /* \"#utility.yul\":3508:3640   */\n    tag_131:\n        /* \"#utility.yul\":3601:3633   */\n      tag_196\n        /* \"#utility.yul\":3627:3632   */\n      dup2\n        /* \"#utility.yul\":3601:3633   */\n      tag_124\n      jump\t// in\n    tag_196:\n        /* \"#utility.yul\":3596:3599   */\n      dup3\n        /* \"#utility.yul\":3589:3634   */\n      mstore\n        /* \"#utility.yul\":3508:3640   */\n      pop\n      pop\n      jump\t// out\n        /* \"#utility.yul\":3646:3736   */\n    tag_132:\n        /* \"#utility.yul\":3680:3687   */\n      0x00\n        /* \"#utility.yul\":3723:3728   */\n      dup2\n        /* \"#utility.yul\":3716:3729   */\n      iszero\n        /* \"#utility.yul\":3709:3730   */\n      iszero\n        /* \"#utility.yul\":3698:3730   */\n      swap1\n      pop\n        /* \"#utility.yul\":3646:3736   */\n      swap2\n      swap1\n      pop\n      jump\t// out\n        /* \"#utility.yul\":3742:3841   */\n    tag_133:\n        /* \"#utility.yul\":3813:3834   */\n      tag_199\n        /* \"#utility.yul\":3828:3833   */\n      dup2\n        /* \"#utility.yul\":3813:3834   */\n      tag_132\n      jump\t// in\n    tag_199:\n        /* \"#utility.yul\":3808:3811   */\n      dup3\n        /* \"#utility.yul\":3801:3835   */\n      mstore\n        /* \"#utility.yul\":3742:3841   */\n      pop\n      pop\n      jump\t// out\n        /* \"#utility.yul\":3921:4964   */\n    tag_134:\n        /* \"#utility.yul\":4056:4060   */\n      0xa0\n        /* \"#utility.yul\":4051:4054   */\n      dup3\n        /* \"#utility.yul\":4047:4061   */\n      add\n        /* \"#utility.yul\":4145:4149   */\n      0x00\n        /* \"#utility.yul\":4138:4143   */\n      dup3\n        /* \"#utility.yul\":4134:4150   */\n      add\n        /* \"#utility.yul\":4128:4151   */\n      mload\n        /* \"#utility.yul\":4164:4227   */\n      tag_201\n        /* \"#utility.yul\":4221:4225   */\n      0x00\n        /* \"#utility.yul\":4216:4219   */\n      dup6\n        /* \"#utility.yul\":4212:4226   */\n      add\n        /* \"#utility.yul\":4198:4210   */\n      dup3\n        /* \"#utility.yul\":4164:4227   */\n      tag_130\n      jump\t// in\n    tag_201:\n        /* \"#utility.yul\":4071:4237   */\n      pop\n        /* \"#utility.yul\":4323:4327   */\n      0x20\n        /* \"#utility.yul\":4316:4321   */\n      dup3\n        /* \"#utility.yul\":4312:4328   */\n      add\n        /* \"#utility.yul\":4306:4329   */\n      mload\n        /* \"#utility.yul\":4342:4421   */\n      tag_202\n        /* \"#utility.yul\":4415:4419   */\n      0x20\n        /* \"#utility.yul\":4410:4413   */\n      dup6\n        /* \"#utility.yul\":4406:4420   */\n      add\n        /* \"#utility.yul\":4392:4404   */\n      dup3\n        /* \"#utility.yul\":4342:4421   */\n      tag_131\n      jump\t// in\n    tag_202:\n        /* \"#utility.yul\":4247:4431   */\n      pop\n        /* \"#utility.yul\":4518:4522   */\n      0x40\n        /* \"#utility.yul\":4511:4516   */\n      dup3\n        /* \"#utility.yul\":4507:4523   */\n      add\n        /* \"#utility.yul\":4501:4524   */\n      mload\n        /* \"#utility.yul\":4537:4600   */\n      tag_203\n        /* \"#utility.yul\":4594:4598   */\n      0x40\n        /* \"#utility.yul\":4589:4592   */\n      dup6\n        /* \"#utility.yul\":4585:4599   */\n      add\n        /* \"#utility.yul\":4571:4583   */\n      dup3\n        /* \"#utility.yul\":4537:4600   */\n      tag_130\n      jump\t// in\n    tag_203:\n        /* \"#utility.yul\":4441:4610   */\n      pop\n        /* \"#utility.yul\":4699:4703   */\n      0x60\n        /* \"#utility.yul\":4692:4697   */\n      dup3\n        /* \"#utility.yul\":4688:4704   */\n      add\n        /* \"#utility.yul\":4682:4705   */\n      mload\n        /* \"#utility.yul\":4718:4775   */\n      tag_204\n        /* \"#utility.yul\":4769:4773   */\n      0x60\n        /* \"#utility.yul\":4764:4767   */\n      dup6\n        /* \"#utility.yul\":4760:4774   */\n      add\n        /* \"#utility.yul\":4746:4758   */\n      dup3\n        /* \"#utility.yul\":4718:4775   */\n      tag_133\n      jump\t// in\n    tag_204:\n        /* \"#utility.yul\":4620:4785   */\n      pop\n        /* \"#utility.yul\":4865:4869   */\n      0x80\n        /* \"#utility.yul\":4858:4863   */\n      dup3\n        /* \"#utility.yul\":4854:4870   */\n      add\n        /* \"#utility.yul\":4848:4871   */\n      mload\n        /* \"#utility.yul\":4884:4947   */\n      tag_205\n        /* \"#utility.yul\":4941:4945   */\n      0x80\n        /* \"#utility.yul\":4936:4939   */\n      dup6\n        /* \"#utility.yul\":4932:4946   */\n      add\n        /* \"#utility.yul\":4918:4930   */\n      dup3\n        /* \"#utility.yul\":4884:4947   */\n      tag_130\n      jump\t// in\n    tag_205:\n        /* \"#utility.yul\":4795:4957   */\n      pop\n        /* \"#utility.yul\":4025:4964   */\n      pop\n        /* \"#utility.yul\":3921:4964   */\n      pop\n      pop\n      jump\t// out\n        /* \"#utility.yul\":4970:5245   */\n    tag_135:\n        /* \"#utility.yul\":5087:5097   */\n      0x00\n        /* \"#utility.yul\":5108:5202   */\n      tag_207\n        /* \"#utility.yul\":5198:5201   */\n      dup4\n        /* \"#utility.yul\":5190:5196   */\n      dup4\n        /* \"#utility.yul\":5108:5202   */\n      tag_134\n      jump\t// in\n    tag_207:\n        /* \"#utility.yul\":5234:5238   */\n      0xa0\n        /* \"#utility.yul\":5229:5232   */\n      dup4\n        /* \"#utility.yul\":5225:5239   */\n      add\n        /* \"#utility.yul\":5211:5239   */\n      swap1\n      pop\n        /* \"#utility.yul\":4970:5245   */\n      swap3\n      swap2\n      pop\n      pop\n      jump\t// out\n        /* \"#utility.yul\":5251:5388   */\n    tag_136:\n        /* \"#utility.yul\":5345:5349   */\n      0x00\n        /* \"#utility.yul\":5377:5381   */\n      0x20\n        /* \"#utility.yul\":5372:5375   */\n      dup3\n        /* \"#utility.yul\":5368:5382   */\n      add\n        /* \"#utility.yul\":5360:5382   */\n      swap1\n      pop\n        /* \"#utility.yul\":5251:5388   */\n      swap2\n      swap1\n      pop\n      jump\t// out\n        /* \"#utility.yul\":5472:6396   */\n    tag_137:\n        /* \"#utility.yul\":5639:5642   */\n      0x00\n        /* \"#utility.yul\":5668:5746   */\n      tag_210\n        /* \"#utility.yul\":5740:5745   */\n      dup3\n        /* \"#utility.yul\":5668:5746   */\n      tag_127\n      jump\t// in\n    tag_210:\n        /* \"#utility.yul\":5762:5872   */\n      tag_211\n        /* \"#utility.yul\":5865:5871   */\n      dup2\n        /* \"#utility.yul\":5860:5863   */\n      dup6\n        /* \"#utility.yul\":5762:5872   */\n      tag_128\n      jump\t// in\n    tag_211:\n        /* \"#utility.yul\":5755:5872   */\n      swap4\n      pop\n        /* \"#utility.yul\":5896:5976   */\n      tag_212\n        /* \"#utility.yul\":5970:5975   */\n      dup4\n        /* \"#utility.yul\":5896:5976   */\n      tag_129\n      jump\t// in\n    tag_212:\n        /* \"#utility.yul\":5999:6006   */\n      dup1\n        /* \"#utility.yul\":6030:6031   */\n      0x00\n        /* \"#utility.yul\":6015:6371   */\n    tag_213:\n        /* \"#utility.yul\":6040:6046   */\n      dup4\n        /* \"#utility.yul\":6037:6038   */\n      dup2\n        /* \"#utility.yul\":6034:6047   */\n      lt\n        /* \"#utility.yul\":6015:6371   */\n      iszero\n      tag_215\n      jumpi\n        /* \"#utility.yul\":6116:6122   */\n      dup2\n        /* \"#utility.yul\":6110:6123   */\n      mload\n        /* \"#utility.yul\":6143:6254   */\n      tag_216\n        /* \"#utility.yul\":6250:6253   */\n      dup9\n        /* \"#utility.yul\":6235:6248   */\n      dup3\n        /* \"#utility.yul\":6143:6254   */\n      tag_135\n      jump\t// in\n    tag_216:\n        /* \"#utility.yul\":6136:6254   */\n      swap8\n      pop\n        /* \"#utility.yul\":6277:6361   */\n      tag_217\n        /* \"#utility.yul\":6354:6360   */\n      dup4\n        /* \"#utility.yul\":6277:6361   */\n      tag_136\n      jump\t// in\n    tag_217:\n        /* \"#utility.yul\":6267:6361   */\n      swap3\n      pop\n        /* \"#utility.yul\":6075:6371   */\n      pop\n        /* \"#utility.yul\":6062:6063   */\n      0x01\n        /* \"#utility.yul\":6059:6060   */\n      dup2\n        /* \"#utility.yul\":6055:6064   */\n      add\n        /* \"#utility.yul\":6050:6064   */\n      swap1\n      pop\n        /* \"#utility.yul\":6015:6371   */\n      jump(tag_213)\n    tag_215:\n        /* \"#utility.yul\":6019:6033   */\n      pop\n        /* \"#utility.yul\":6387:6390   */\n      dup6\n        /* \"#utility.yul\":6380:6390   */\n      swap4\n      pop\n        /* \"#utility.yul\":5644:6396   */\n      pop\n      pop\n      pop\n        /* \"#utility.yul\":5472:6396   */\n      swap3\n      swap2\n      pop\n      pop\n      jump\t// out\n        /* \"#utility.yul\":6402:6871   */\n    tag_29:\n        /* \"#utility.yul\":6593:6597   */\n      0x00\n        /* \"#utility.yul\":6631:6633   */\n      0x20\n        /* \"#utility.yul\":6620:6629   */\n      dup3\n        /* \"#utility.yul\":6616:6634   */\n      add\n        /* \"#utility.yul\":6608:6634   */\n      swap1\n      pop\n        /* \"#utility.yul\":6680:6689   */\n      dup2\n        /* \"#utility.yul\":6674:6678   */\n      dup2\n        /* \"#utility.yul\":6670:6690   */\n      sub\n        /* \"#utility.yul\":6666:6667   */\n      0x00\n        /* \"#utility.yul\":6655:6664   */\n      dup4\n        /* \"#utility.yul\":6651:6668   */\n      add\n        /* \"#utility.yul\":6644:6691   */\n      mstore\n        /* \"#utility.yul\":6708:6864   */\n      tag_219\n        /* \"#utility.yul\":6859:6863   */\n      dup2\n        /* \"#utility.yul\":6850:6856   */\n      dup5\n        /* \"#utility.yul\":6708:6864   */\n      tag_137\n      jump\t// in\n    tag_219:\n        /* \"#utility.yul\":6700:6864   */\n      swap1\n      pop\n        /* \"#utility.yul\":6402:6871   */\n      swap3\n      swap2\n      pop\n      pop\n      jump\t// out\n        /* \"#utility.yul\":6877:7057   */\n    tag_46:\n        /* \"#utility.yul\":6925:7002   */\n      0x4e487b7100000000000000000000000000000000000000000000000000000000\n        /* \"#utility.yul\":6922:6923   */\n      0x00\n        /* \"#utility.yul\":6915:7003   */\n      mstore\n        /* \"#utility.yul\":7022:7026   */\n      0x32\n        /* \"#utility.yul\":7019:7020   */\n      0x04\n        /* \"#utility.yul\":7012:7027   */\n      mstore\n        /* \"#utility.yul\":7046:7050   */\n      0x24\n        /* \"#utility.yul\":7043:7044   */\n      0x00\n        /* \"#utility.yul\":7036:7051   */\n      revert\n        /* \"#utility.yul\":7063:7243   */\n    tag_138:\n        /* \"#utility.yul\":7111:7188   */\n      0x4e487b7100000000000000000000000000000000000000000000000000000000\n        /* \"#utility.yul\":7108:7109   */\n      0x00\n        /* \"#utility.yul\":7101:7189   */\n      mstore\n        /* \"#utility.yul\":7208:7212   */\n      0x11\n        /* \"#utility.yul\":7205:7206   */\n      0x04\n        /* \"#utility.yul\":7198:7213   */\n      mstore\n        /* \"#utility.yul\":7232:7236   */\n      0x24\n        /* \"#utility.yul\":7229:7230   */\n      0x00\n        /* \"#utility.yul\":7222:7237   */\n      revert\n        /* \"#utility.yul\":7249:7482   */\n    tag_50:\n        /* \"#utility.yul\":7288:7291   */\n      0x00\n        /* \"#utility.yul\":7311:7335   */\n      tag_223\n        /* \"#utility.yul\":7329:7334   */\n      dup3\n        /* \"#utility.yul\":7311:7335   */\n      tag_117\n      jump\t// in\n    tag_223:\n        /* \"#utility.yul\":7302:7335   */\n      swap2\n      pop\n        /* \"#utility.yul\":7357:7423   */\n      0xffffffffffffffffffffffffffffffffffffffffffffffffffffffffffffffff\n        /* \"#utility.yul\":7350:7355   */\n      dup3\n        /* \"#utility.yul\":7347:7424   */\n      sub\n        /* \"#utility.yul\":7344:7447   */\n      tag_224\n      jumpi\n        /* \"#utility.yul\":7427:7445   */\n      tag_225\n      tag_138\n      jump\t// in\n    tag_225:\n        /* \"#utility.yul\":7344:7447   */\n    tag_224:\n        /* \"#utility.yul\":7474:7475   */\n      0x01\n        /* \"#utility.yul\":7467:7472   */\n      dup3\n        /* \"#utility.yul\":7463:7476   */\n      add\n        /* \"#utility.yul\":7456:7476   */\n      swap1\n      pop\n        /* \"#utility.yul\":7249:7482   */\n      swap2\n      swap1\n      pop\n      jump\t// out\n        /* \"#utility.yul\":7488:7657   */\n    tag_139:\n        /* \"#utility.yul\":7572:7583   */\n      0x00\n        /* \"#utility.yul\":7606:7612   */\n      dup3\n        /* \"#utility.yul\":7601:7604   */\n      dup3\n        /* \"#utility.yul\":7594:7613   */\n      mstore\n        /* \"#utility.yul\":7646:7650   */\n      0x20\n        /* \"#utility.yul\":7641:7644   */\n      dup3\n        /* \"#utility.yul\":7637:7651   */\n      add\n        /* \"#utility.yul\":7622:7651   */\n      swap1\n      pop\n        /* \"#utility.yul\":7488:7657   */\n      swap3\n      swap2\n      pop\n      pop\n      jump\t// out\n        /* \"#utility.yul\":7663:7901   */\n    tag_140:\n        /* \"#utility.yul\":7803:7837   */\n      0x4552524f522043726561745f496e73756666696369656e742062616c616e6365\n        /* \"#utility.yul\":7799:7800   */\n      0x00\n        /* \"#utility.yul\":7791:7797   */\n      dup3\n        /* \"#utility.yul\":7787:7801   */\n      add\n        /* \"#utility.yul\":7780:7838   */\n      mstore\n        /* \"#utility.yul\":7872:7893   */\n      0x20746f207472616e736665722066756e64732e00000000000000000000000000\n        /* \"#utility.yul\":7867:7869   */\n      0x20\n        /* \"#utility.yul\":7859:7865   */\n      dup3\n        /* \"#utility.yul\":7855:7870   */\n      add\n        /* \"#utility.yul\":7848:7894   */\n      mstore\n        /* \"#utility.yul\":7663:7901   */\n      pop\n      jump\t// out\n        /* \"#utility.yul\":7907:8273   */\n    tag_141:\n        /* \"#utility.yul\":8049:8052   */\n      0x00\n        /* \"#utility.yul\":8070:8137   */\n      tag_229\n        /* \"#utility.yul\":8134:8136   */\n      0x33\n        /* \"#utility.yul\":8129:8132   */\n      dup4\n        /* \"#utility.yul\":8070:8137   */\n      tag_139\n      jump\t// in\n    tag_229:\n        /* \"#utility.yul\":8063:8137   */\n      swap2\n      pop\n        /* \"#utility.yul\":8146:8239   */\n      tag_230\n        /* \"#utility.yul\":8235:8238   */\n      dup3\n        /* \"#utility.yul\":8146:8239   */\n      tag_140\n      jump\t// in\n    tag_230:\n        /* \"#utility.yul\":8264:8266   */\n      0x40\n        /* \"#utility.yul\":8259:8262   */\n      dup3\n        /* \"#utility.yul\":8255:8267   */\n      add\n        /* \"#utility.yul\":8248:8267   */\n      swap1\n      pop\n        /* \"#utility.yul\":7907:8273   */\n      swap2\n      swap1\n      pop\n      jump\t// out\n        /* \"#utility.yul\":8279:8698   */\n    tag_55:\n        /* \"#utility.yul\":8445:8449   */\n      0x00\n        /* \"#utility.yul\":8483:8485   */\n      0x20\n        /* \"#utility.yul\":8472:8481   */\n      dup3\n        /* \"#utility.yul\":8468:8486   */\n      add\n        /* \"#utility.yul\":8460:8486   */\n      swap1\n      pop\n        /* \"#utility.yul\":8532:8541   */\n      dup2\n        /* \"#utility.yul\":8526:8530   */\n      dup2\n        /* \"#utility.yul\":8522:8542   */\n      sub\n        /* \"#utility.yul\":8518:8519   */\n      0x00\n        /* \"#utility.yul\":8507:8516   */\n      dup4\n        /* \"#utility.yul\":8503:8520   */\n      add\n        /* \"#utility.yul\":8496:8543   */\n      mstore\n        /* \"#utility.yul\":8560:8691   */\n      tag_232\n        /* \"#utility.yul\":8686:8690   */\n      dup2\n        /* \"#utility.yul\":8560:8691   */\n      tag_141\n      jump\t// in\n    tag_232:\n        /* \"#utility.yul\":8552:8691   */\n      swap1\n      pop\n        /* \"#utility.yul\":8279:8698   */\n      swap2\n      swap1\n      pop\n      jump\t// out\n        /* \"#utility.yul\":8704:8934   */\n    tag_142:\n        /* \"#utility.yul\":8844:8878   */\n      0x4552524f5220335f5468652073656e6465722063616e6e6f7420626520746865\n        /* \"#utility.yul\":8840:8841   */\n      0x00\n        /* \"#utility.yul\":8832:8838   */\n      dup3\n        /* \"#utility.yul\":8828:8842   */\n      add\n        /* \"#utility.yul\":8821:8879   */\n      mstore\n        /* \"#utility.yul\":8913:8926   */\n      0x20726563697069656e742e000000000000000000000000000000000000000000\n        /* \"#utility.yul\":8908:8910   */\n      0x20\n        /* \"#utility.yul\":8900:8906   */\n      dup3\n        /* \"#utility.yul\":8896:8911   */\n      add\n        /* \"#utility.yul\":8889:8927   */\n      mstore\n        /* \"#utility.yul\":8704:8934   */\n      pop\n      jump\t// out\n        /* \"#utility.yul\":8940:9306   */\n    tag_143:\n        /* \"#utility.yul\":9082:9085   */\n      0x00\n        /* \"#utility.yul\":9103:9170   */\n      tag_235\n        /* \"#utility.yul\":9167:9169   */\n      0x2b\n        /* \"#utility.yul\":9162:9165   */\n      dup4\n        /* \"#utility.yul\":9103:9170   */\n      tag_139\n      jump\t// in\n    tag_235:\n        /* \"#utility.yul\":9096:9170   */\n      swap2\n      pop\n        /* \"#utility.yul\":9179:9272   */\n      tag_236\n        /* \"#utility.yul\":9268:9271   */\n      dup3\n        /* \"#utility.yul\":9179:9272   */\n      tag_142\n      jump\t// in\n    tag_236:\n        /* \"#utility.yul\":9297:9299   */\n      0x40\n        /* \"#utility.yul\":9292:9295   */\n      dup3\n        /* \"#utility.yul\":9288:9300   */\n      add\n        /* \"#utility.yul\":9281:9300   */\n      swap1\n      pop\n        /* \"#utility.yul\":8940:9306   */\n      swap2\n      swap1\n      pop\n      jump\t// out\n        /* \"#utility.yul\":9312:9731   */\n    tag_58:\n        /* \"#utility.yul\":9478:9482   */\n      0x00\n        /* \"#utility.yul\":9516:9518   */\n      0x20\n        /* \"#utility.yul\":9505:9514   */\n      dup3\n        /* \"#utility.yul\":9501:9519   */\n      add\n        /* \"#utility.yul\":9493:9519   */\n      swap1\n      pop\n        /* \"#utility.yul\":9565:9574   */\n      dup2\n        /* \"#utility.yul\":9559:9563   */\n      dup2\n        /* \"#utility.yul\":9555:9575   */\n      sub\n        /* \"#utility.yul\":9551:9552   */\n      0x00\n        /* \"#utility.yul\":9540:9549   */\n      dup4\n        /* \"#utility.yul\":9536:9553   */\n      add\n        /* \"#utility.yul\":9529:9576   */\n      mstore\n        /* \"#utility.yul\":9593:9724   */\n      tag_238\n        /* \"#utility.yul\":9719:9723   */\n      dup2\n        /* \"#utility.yul\":9593:9724   */\n      tag_143\n      jump\t// in\n    tag_238:\n        /* \"#utility.yul\":9585:9724   */\n      swap1\n      pop\n        /* \"#utility.yul\":9312:9731   */\n      swap2\n      swap1\n      pop\n      jump\t// out\n        /* \"#utility.yul\":9737:9797   */\n    tag_144:\n        /* \"#utility.yul\":9765:9768   */\n      0x00\n        /* \"#utility.yul\":9786:9791   */\n      dup2\n        /* \"#utility.yul\":9779:9791   */\n      swap1\n      pop\n        /* \"#utility.yul\":9737:9797   */\n      swap2\n      swap1\n      pop\n      jump\t// out\n        /* \"#utility.yul\":9803:9945   */\n    tag_145:\n        /* \"#utility.yul\":9853:9862   */\n      0x00\n        /* \"#utility.yul\":9886:9939   */\n      tag_241\n        /* \"#utility.yul\":9904:9938   */\n      tag_242\n        /* \"#utility.yul\":9913:9937   */\n      tag_243\n        /* \"#utility.yul\":9931:9936   */\n      dup5\n        /* \"#utility.yul\":9913:9937   */\n      tag_120\n      jump\t// in\n    tag_243:\n        /* \"#utility.yul\":9904:9938   */\n      tag_144\n      jump\t// in\n    tag_242:\n        /* \"#utility.yul\":9886:9939   */\n      tag_120\n      jump\t// in\n    tag_241:\n        /* \"#utility.yul\":9873:9939   */\n      swap1\n      pop\n        /* \"#utility.yul\":9803:9945   */\n      swap2\n      swap1\n      pop\n      jump\t// out\n        /* \"#utility.yul\":9951:10077   */\n    tag_146:\n        /* \"#utility.yul\":10001:10010   */\n      0x00\n        /* \"#utility.yul\":10034:10071   */\n      tag_245\n        /* \"#utility.yul\":10065:10070   */\n      dup3\n        /* \"#utility.yul\":10034:10071   */\n      tag_145\n      jump\t// in\n    tag_245:\n        /* \"#utility.yul\":10021:10071   */\n      swap1\n      pop\n        /* \"#utility.yul\":9951:10077   */\n      swap2\n      swap1\n      pop\n      jump\t// out\n        /* \"#utility.yul\":10083:10217   */\n    tag_147:\n        /* \"#utility.yul\":10141:10150   */\n      0x00\n        /* \"#utility.yul\":10174:10211   */\n      tag_247\n        /* \"#utility.yul\":10205:10210   */\n      dup3\n        /* \"#utility.yul\":10174:10211   */\n      tag_146\n      jump\t// in\n    tag_247:\n        /* \"#utility.yul\":10161:10211   */\n      swap1\n      pop\n        /* \"#utility.yul\":10083:10217   */\n      swap2\n      swap1\n      pop\n      jump\t// out\n        /* \"#utility.yul\":10223:10370   */\n    tag_148:\n        /* \"#utility.yul\":10318:10363   */\n      tag_249\n        /* \"#utility.yul\":10357:10362   */\n      dup2\n        /* \"#utility.yul\":10318:10363   */\n      tag_147\n      jump\t// in\n    tag_249:\n        /* \"#utility.yul\":10313:10316   */\n      dup3\n        /* \"#utility.yul\":10306:10364   */\n      mstore\n        /* \"#utility.yul\":10223:10370   */\n      pop\n      pop\n      jump\t// out\n        /* \"#utility.yul\":10376:10945   */\n    tag_60:\n        /* \"#utility.yul\":10561:10565   */\n      0x00\n        /* \"#utility.yul\":10599:10602   */\n      0x80\n        /* \"#utility.yul\":10588:10597   */\n      dup3\n        /* \"#utility.yul\":10584:10603   */\n      add\n        /* \"#utility.yul\":10576:10603   */\n      swap1\n      pop\n        /* \"#utility.yul\":10613:10684   */\n      tag_251\n        /* \"#utility.yul\":10681:10682   */\n      0x00\n        /* \"#utility.yul\":10670:10679   */\n      dup4\n        /* \"#utility.yul\":10666:10683   */\n      add\n        /* \"#utility.yul\":10657:10663   */\n      dup8\n        /* \"#utility.yul\":10613:10684   */\n      tag_123\n      jump\t// in\n    tag_251:\n        /* \"#utility.yul\":10694:10766   */\n      tag_252\n        /* \"#utility.yul\":10762:10764   */\n      0x20\n        /* \"#utility.yul\":10751:10760   */\n      dup4\n        /* \"#utility.yul\":10747:10765   */\n      add\n        /* \"#utility.yul\":10738:10744   */\n      dup7\n        /* \"#utility.yul\":10694:10766   */\n      tag_123\n      jump\t// in\n    tag_252:\n        /* \"#utility.yul\":10776:10848   */\n      tag_253\n        /* \"#utility.yul\":10844:10846   */\n      0x40\n        /* \"#utility.yul\":10833:10842   */\n      dup4\n        /* \"#utility.yul\":10829:10847   */\n      add\n        /* \"#utility.yul\":10820:10826   */\n      dup6\n        /* \"#utility.yul\":10776:10848   */\n      tag_122\n      jump\t// in\n    tag_253:\n        /* \"#utility.yul\":10858:10938   */\n      tag_254\n        /* \"#utility.yul\":10934:10936   */\n      0x60\n        /* \"#utility.yul\":10923:10932   */\n      dup4\n        /* \"#utility.yul\":10919:10937   */\n      add\n        /* \"#utility.yul\":10910:10916   */\n      dup5\n        /* \"#utility.yul\":10858:10938   */\n      tag_148\n      jump\t// in\n    tag_254:\n        /* \"#utility.yul\":10376:10945   */\n      swap6\n      swap5\n      pop\n      pop\n      pop\n      pop\n      pop\n      jump\t// out\n        /* \"#utility.yul\":10951:11183   */\n    tag_149:\n        /* \"#utility.yul\":11091:11125   */\n      0x4552524f5220375f4f776e65727320617265206e6f7420616c6c6f7765642074\n        /* \"#utility.yul\":11087:11088   */\n      0x00\n        /* \"#utility.yul\":11079:11085   */\n      dup3\n        /* \"#utility.yul\":11075:11089   */\n      add\n        /* \"#utility.yul\":11068:11126   */\n      mstore\n        /* \"#utility.yul\":11160:11175   */\n      0x6f20766f74652074776963652e00000000000000000000000000000000000000\n        /* \"#utility.yul\":11155:11157   */\n      0x20\n        /* \"#utility.yul\":11147:11153   */\n      dup3\n        /* \"#utility.yul\":11143:11158   */\n      add\n        /* \"#utility.yul\":11136:11176   */\n      mstore\n        /* \"#utility.yul\":10951:11183   */\n      pop\n      jump\t// out\n        /* \"#utility.yul\":11189:11555   */\n    tag_150:\n        /* \"#utility.yul\":11331:11334   */\n      0x00\n        /* \"#utility.yul\":11352:11419   */\n      tag_257\n        /* \"#utility.yul\":11416:11418   */\n      0x2d\n        /* \"#utility.yul\":11411:11414   */\n      dup4\n        /* \"#utility.yul\":11352:11419   */\n      tag_139\n      jump\t// in\n    tag_257:\n        /* \"#utility.yul\":11345:11419   */\n      swap2\n      pop\n        /* \"#utility.yul\":11428:11521   */\n      tag_258\n        /* \"#utility.yul\":11517:11520   */\n      dup3\n        /* \"#utility.yul\":11428:11521   */\n      tag_149\n      jump\t// in\n    tag_258:\n        /* \"#utility.yul\":11546:11548   */\n      0x40\n        /* \"#utility.yul\":11541:11544   */\n      dup3\n        /* \"#utility.yul\":11537:11549   */\n      add\n        /* \"#utility.yul\":11530:11549   */\n      swap1\n      pop\n        /* \"#utility.yul\":11189:11555   */\n      swap2\n      swap1\n      pop\n      jump\t// out\n        /* \"#utility.yul\":11561:11980   */\n    tag_79:\n        /* \"#utility.yul\":11727:11731   */\n      0x00\n        /* \"#utility.yul\":11765:11767   */\n      0x20\n        /* \"#utility.yul\":11754:11763   */\n      dup3\n        /* \"#utility.yul\":11750:11768   */\n      add\n        /* \"#utility.yul\":11742:11768   */\n      swap1\n      pop\n        /* \"#utility.yul\":11814:11823   */\n      dup2\n        /* \"#utility.yul\":11808:11812   */\n      dup2\n        /* \"#utility.yul\":11804:11824   */\n      sub\n        /* \"#utility.yul\":11800:11801   */\n      0x00\n        /* \"#utility.yul\":11789:11798   */\n      dup4\n        /* \"#utility.yul\":11785:11802   */\n      add\n        /* \"#utility.yul\":11778:11825   */\n      mstore\n        /* \"#utility.yul\":11842:11973   */\n      tag_260\n        /* \"#utility.yul\":11968:11972   */\n      dup2\n        /* \"#utility.yul\":11842:11973   */\n      tag_150\n      jump\t// in\n    tag_260:\n        /* \"#utility.yul\":11834:11973   */\n      swap1\n      pop\n        /* \"#utility.yul\":11561:11980   */\n      swap2\n      swap1\n      pop\n      jump\t// out\n        /* \"#utility.yul\":11986:12298   */\n    tag_151:\n        /* \"#utility.yul\":12126:12160   */\n      0x4552524f5220385f4f776e65727320617265206e6f7420616c6c6f7765642074\n        /* \"#utility.yul\":12122:12123   */\n      0x00\n        /* \"#utility.yul\":12114:12120   */\n      dup3\n        /* \"#utility.yul\":12110:12124   */\n      add\n        /* \"#utility.yul\":12103:12161   */\n      mstore\n        /* \"#utility.yul\":12195:12229   */\n      0x6f20766f7465206f6e2061207472616e73666572207265717565737420746861\n        /* \"#utility.yul\":12190:12192   */\n      0x20\n        /* \"#utility.yul\":12182:12188   */\n      dup3\n        /* \"#utility.yul\":12178:12193   */\n      add\n        /* \"#utility.yul\":12171:12230   */\n      mstore\n        /* \"#utility.yul\":12264:12290   */\n      0x742068617320616c7265616479206265656e2073656e742e0000000000000000\n        /* \"#utility.yul\":12259:12261   */\n      0x40\n        /* \"#utility.yul\":12251:12257   */\n      dup3\n        /* \"#utility.yul\":12247:12262   */\n      add\n        /* \"#utility.yul\":12240:12291   */\n      mstore\n        /* \"#utility.yul\":11986:12298   */\n      pop\n      jump\t// out\n        /* \"#utility.yul\":12304:12670   */\n    tag_152:\n        /* \"#utility.yul\":12446:12449   */\n      0x00\n        /* \"#utility.yul\":12467:12534   */\n      tag_263\n        /* \"#utility.yul\":12531:12533   */\n      0x58\n        /* \"#utility.yul\":12526:12529   */\n      dup4\n        /* \"#utility.yul\":12467:12534   */\n      tag_139\n      jump\t// in\n    tag_263:\n        /* \"#utility.yul\":12460:12534   */\n      swap2\n      pop\n        /* \"#utility.yul\":12543:12636   */\n      tag_264\n        /* \"#utility.yul\":12632:12635   */\n      dup3\n        /* \"#utility.yul\":12543:12636   */\n      tag_151\n      jump\t// in\n    tag_264:\n        /* \"#utility.yul\":12661:12663   */\n      0x60\n        /* \"#utility.yul\":12656:12659   */\n      dup3\n        /* \"#utility.yul\":12652:12664   */\n      add\n        /* \"#utility.yul\":12645:12664   */\n      swap1\n      pop\n        /* \"#utility.yul\":12304:12670   */\n      swap2\n      swap1\n      pop\n      jump\t// out\n        /* \"#utility.yul\":12676:13095   */\n    tag_85:\n        /* \"#utility.yul\":12842:12846   */\n      0x00\n        /* \"#utility.yul\":12880:12882   */\n      0x20\n        /* \"#utility.yul\":12869:12878   */\n      dup3\n        /* \"#utility.yul\":12865:12883   */\n      add\n        /* \"#utility.yul\":12857:12883   */\n      swap1\n      pop\n        /* \"#utility.yul\":12929:12938   */\n      dup2\n        /* \"#utility.yul\":12923:12927   */\n      dup2\n        /* \"#utility.yul\":12919:12939   */\n      sub\n        /* \"#utility.yul\":12915:12916   */\n      0x00\n        /* \"#utility.yul\":12904:12913   */\n      dup4\n        /* \"#utility.yul\":12900:12917   */\n      add\n        /* \"#utility.yul\":12893:12940   */\n      mstore\n        /* \"#utility.yul\":12957:13088   */\n      tag_266\n        /* \"#utility.yul\":13083:13087   */\n      dup2\n        /* \"#utility.yul\":12957:13088   */\n      tag_152\n      jump\t// in\n    tag_266:\n        /* \"#utility.yul\":12949:13088   */\n      swap1\n      pop\n        /* \"#utility.yul\":12676:13095   */\n      swap2\n      swap1\n      pop\n      jump\t// out\n        /* \"#utility.yul\":13101:13543   */\n    tag_94:\n        /* \"#utility.yul\":13250:13254   */\n      0x00\n        /* \"#utility.yul\":13288:13290   */\n      0x60\n        /* \"#utility.yul\":13277:13286   */\n      dup3\n        /* \"#utility.yul\":13273:13291   */\n      add\n        /* \"#utility.yul\":13265:13291   */\n      swap1\n      pop\n        /* \"#utility.yul\":13301:13372   */\n      tag_268\n        /* \"#utility.yul\":13369:13370   */\n      0x00\n        /* \"#utility.yul\":13358:13367   */\n      dup4\n        /* \"#utility.yul\":13354:13371   */\n      add\n        /* \"#utility.yul\":13345:13351   */\n      dup7\n        /* \"#utility.yul\":13301:13372   */\n      tag_123\n      jump\t// in\n    tag_268:\n        /* \"#utility.yul\":13382:13454   */\n      tag_269\n        /* \"#utility.yul\":13450:13452   */\n      0x20\n        /* \"#utility.yul\":13439:13448   */\n      dup4\n        /* \"#utility.yul\":13435:13453   */\n      add\n        /* \"#utility.yul\":13426:13432   */\n      dup6\n        /* \"#utility.yul\":13382:13454   */\n      tag_123\n      jump\t// in\n    tag_269:\n        /* \"#utility.yul\":13464:13536   */\n      tag_270\n        /* \"#utility.yul\":13532:13534   */\n      0x40\n        /* \"#utility.yul\":13521:13530   */\n      dup4\n        /* \"#utility.yul\":13517:13535   */\n      add\n        /* \"#utility.yul\":13508:13514   */\n      dup5\n        /* \"#utility.yul\":13464:13536   */\n      tag_122\n      jump\t// in\n    tag_270:\n        /* \"#utility.yul\":13101:13543   */\n      swap5\n      swap4\n      pop\n      pop\n      pop\n      pop\n      jump\t// out\n        /* \"#utility.yul\":13549:13854   */\n    tag_113:\n        /* \"#utility.yul\":13589:13592   */\n      0x00\n        /* \"#utility.yul\":13608:13628   */\n      tag_272\n        /* \"#utility.yul\":13626:13627   */\n      dup3\n        /* \"#utility.yul\":13608:13628   */\n      tag_117\n      jump\t// in\n    tag_272:\n        /* \"#utility.yul\":13603:13628   */\n      swap2\n      pop\n        /* \"#utility.yul\":13642:13662   */\n      tag_273\n        /* \"#utility.yul\":13660:13661   */\n      dup4\n        /* \"#utility.yul\":13642:13662   */\n      tag_117\n      jump\t// in\n    tag_273:\n        /* \"#utility.yul\":13637:13662   */\n      swap3\n      pop\n        /* \"#utility.yul\":13796:13797   */\n      dup3\n        /* \"#utility.yul\":13728:13794   */\n      0xffffffffffffffffffffffffffffffffffffffffffffffffffffffffffffffff\n        /* \"#utility.yul\":13724:13798   */\n      sub\n        /* \"#utility.yul\":13721:13722   */\n      dup3\n        /* \"#utility.yul\":13718:13799   */\n      gt\n        /* \"#utility.yul\":13715:13822   */\n      iszero\n      tag_274\n      jumpi\n        /* \"#utility.yul\":13802:13820   */\n      tag_275\n      tag_138\n      jump\t// in\n    tag_275:\n        /* \"#utility.yul\":13715:13822   */\n    tag_274:\n        /* \"#utility.yul\":13846:13847   */\n      dup3\n        /* \"#utility.yul\":13843:13844   */\n      dup3\n        /* \"#utility.yul\":13839:13848   */\n      add\n        /* \"#utility.yul\":13832:13848   */\n      swap1\n      pop\n        /* \"#utility.yul\":13549:13854   */\n      swap3\n      swap2\n      pop\n      pop\n      jump\t// out\n\n    auxdata: 0xa2646970667358221220f9b58e93651aa0340d0b6bb3e89a2b65c0e24c8bd8698e35a6a49344abc661e964736f6c634300080d0033\n}\n",
				"bytecode": {
					"linkReferences": {},
					"object": "60806040523480156200001157600080fd5b50604051620015c9380380620015c9833981810160405281019062000037919062000336565b81600190805190602001906200004f9291906200005f565b508060008190555050506200039c565b828054828255906000526020600020908101928215620000db579160200282015b82811115620000da5782518260006101000a81548173ffffffffffffffffffffffffffffffffffffffff021916908373ffffffffffffffffffffffffffffffffffffffff1602179055509160200191906001019062000080565b5b509050620000ea9190620000ee565b5090565b5b8082111562000109576000816000905550600101620000ef565b5090565b6000604051905090565b600080fd5b600080fd5b600080fd5b6000601f19601f8301169050919050565b7f4e487b7100000000000000000000000000000000000000000000000000000000600052604160045260246000fd5b620001718262000126565b810181811067ffffffffffffffff8211171562000193576200019262000137565b5b80604052505050565b6000620001a86200010d565b9050620001b6828262000166565b919050565b600067ffffffffffffffff821115620001d957620001d862000137565b5b602082029050602081019050919050565b600080fd5b600073ffffffffffffffffffffffffffffffffffffffff82169050919050565b60006200021c82620001ef565b9050919050565b6200022e816200020f565b81146200023a57600080fd5b50565b6000815190506200024e8162000223565b92915050565b60006200026b6200026584620001bb565b6200019c565b90508083825260208201905060208402830185811115620002915762000290620001ea565b5b835b81811015620002be5780620002a988826200023d565b84526020840193505060208101905062000293565b5050509392505050565b600082601f830112620002e057620002df62000121565b5b8151620002f284826020860162000254565b91505092915050565b6000819050919050565b6200031081620002fb565b81146200031c57600080fd5b50565b600081519050620003308162000305565b92915050565b6000806040838503121562000350576200034f62000117565b5b600083015167ffffffffffffffff8111156200037157620003706200011c565b5b6200037f85828601620002c8565b925050602062000392858286016200031f565b9150509250929050565b61121d80620003ac6000396000f3fe6080604052600436106100555760003560e01c8063025e7c271461005a57806312065fe0146100975780634c12fa47146100c2578063a04ef145146100eb578063b759f95414610116578063d0e30db01461013f575b600080fd5b34801561006657600080fd5b50610081600480360381019061007c9190610aee565b61015d565b60405161008e9190610b5c565b60405180910390f35b3480156100a357600080fd5b506100ac61019c565b6040516100b99190610b86565b60405180910390f35b3480156100ce57600080fd5b506100e960048036038101906100e49190610bdf565b6101e3565b005b3480156100f757600080fd5b506101006104be565b60405161010d9190610d6f565b60405180910390f35b34801561012257600080fd5b5061013d60048036038101906101389190610aee565b6105ac565b005b6101476109d2565b6040516101549190610b86565b60405180910390f35b6001818154811061016d57600080fd5b906000526020600020016000915054906101000a900473ffffffffffffffffffffffffffffffffffffffff1681565b6000600360003373ffffffffffffffffffffffffffffffffffffffff1673ffffffffffffffffffffffffffffffffffffffff16815260200190815260200160002054905090565b6000805b60018054905081101561027d573373ffffffffffffffffffffffffffffffffffffffff166001828154811061021f5761021e610d91565b5b9060005260206000200160009054906101000a900473ffffffffffffffffffffffffffffffffffffffff1673ffffffffffffffffffffffffffffffffffffffff160361026a57600191505b808061027590610def565b9150506101e7565b50600115158115151461028f57600080fd5b82600360003373ffffffffffffffffffffffffffffffffffffffff1673ffffffffffffffffffffffffffffffffffffffff168152602001908152602001600020541015610311576040517f08c379a000000000000000000000000000000000000000000000000000000000815260040161030890610eba565b60405180910390fd5b8173ffffffffffffffffffffffffffffffffffffffff163373ffffffffffffffffffffffffffffffffffffffff160361037f576040517f08c379a000000000000000000000000000000000000000000000000000000000815260040161037690610f4c565b60405180910390fd5b7f099c4ec4ecfc26f7c8b27aeee5443f92120fa2c4e91ba6020369ae71a4d442786002805490508433856040516103b99493929190610fcb565b60405180910390a160026040518060a001604052808581526020018473ffffffffffffffffffffffffffffffffffffffff1681526020016000815260200160001515815260200160028054905081525090806001815401808255809150506001900390600052602060002090600502016000909190919091506000820151816000015560208201518160010160006101000a81548173ffffffffffffffffffffffffffffffffffffffff021916908373ffffffffffffffffffffffffffffffffffffffff1602179055506040820151816002015560608201518160030160006101000a81548160ff021916908315150217905550608082015181600401555050505050565b60606002805480602002602001604051908101604052809291908181526020016000905b828210156105a357838290600052602060002090600502016040518060a0016040529081600082015481526020016001820160009054906101000a900473ffffffffffffffffffffffffffffffffffffffff1673ffffffffffffffffffffffffffffffffffffffff1673ffffffffffffffffffffffffffffffffffffffff168152602001600282015481526020016003820160009054906101000a900460ff16151515158152602001600482015481525050815260200190600101906104e2565b50505050905090565b6000805b600180549050811015610646573373ffffffffffffffffffffffffffffffffffffffff16600182815481106105e8576105e7610d91565b5b9060005260206000200160009054906101000a900473ffffffffffffffffffffffffffffffffffffffff1673ffffffffffffffffffffffffffffffffffffffff160361063357600191505b808061063e90610def565b9150506105b0565b50600115158115151461065857600080fd5b60001515600460003373ffffffffffffffffffffffffffffffffffffffff1673ffffffffffffffffffffffffffffffffffffffff168152602001908152602001600020600084815260200190815260200160002060009054906101000a900460ff161515146106fc576040517f08c379a00000000000000000000000000000000000000000000000000000000081526004016106f390611082565b60405180910390fd5b600015156002838154811061071457610713610d91565b5b906000526020600020906005020160030160009054906101000a900460ff16151514610775576040517f08c379a000000000000000000000000000000000000000000000000000000000815260040161076c9061113a565b60405180910390fd5b6001600460003373ffffffffffffffffffffffffffffffffffffffff1673ffffffffffffffffffffffffffffffffffffffff168152602001908152602001600020600084815260200190815260200160002060006101000a81548160ff021916908315150217905550600282815481106107f2576107f1610d91565b5b9060005260206000209060050201600201600081548092919061081490610def565b91905055507ffec9d12d15ee8c8b836a58347cb0d4980db38411bcd0b83662cee48fb20b6dee826002848154811061084f5761084e610d91565b5b906000526020600020906005020160020154336040516108719392919061115a565b60405180910390a1600054600283815481106108905761088f610d91565b5b906000526020600020906005020160020154106109ce576001600283815481106108bd576108bc610d91565b5b906000526020600020906005020160030160006101000a81548160ff021916908315150217905550600282815481106108f9576108f8610d91565b5b906000526020600020906005020160010160009054906101000a900473ffffffffffffffffffffffffffffffffffffffff1673ffffffffffffffffffffffffffffffffffffffff166108fc6002848154811061095857610957610d91565b5b9060005260206000209060050201600001549081150290604051600060405180830381858888f19350505050158015610995573d6000803e3d6000fd5b507fd9bbf1d8bef570b7e92ef1ba025425fc15915ae01f3d3be144cdc8be05442eb5826040516109c59190610b86565b60405180910390a15b5050565b600034600360003373ffffffffffffffffffffffffffffffffffffffff1673ffffffffffffffffffffffffffffffffffffffff1681526020019081526020016000206000828254610a239190611191565b925050819055503373ffffffffffffffffffffffffffffffffffffffff16347fa23831066066ec8812cc52afc91a52134a8b50c9209b68c276be679f4073d95d60405160405180910390a3600360003373ffffffffffffffffffffffffffffffffffffffff1673ffffffffffffffffffffffffffffffffffffffff16815260200190815260200160002054905090565b600080fd5b6000819050919050565b610acb81610ab8565b8114610ad657600080fd5b50565b600081359050610ae881610ac2565b92915050565b600060208284031215610b0457610b03610ab3565b5b6000610b1284828501610ad9565b91505092915050565b600073ffffffffffffffffffffffffffffffffffffffff82169050919050565b6000610b4682610b1b565b9050919050565b610b5681610b3b565b82525050565b6000602082019050610b716000830184610b4d565b92915050565b610b8081610ab8565b82525050565b6000602082019050610b9b6000830184610b77565b92915050565b6000610bac82610b1b565b9050919050565b610bbc81610ba1565b8114610bc757600080fd5b50565b600081359050610bd981610bb3565b92915050565b60008060408385031215610bf657610bf5610ab3565b5b6000610c0485828601610ad9565b9250506020610c1585828601610bca565b9150509250929050565b600081519050919050565b600082825260208201905092915050565b6000819050602082019050919050565b610c5481610ab8565b82525050565b610c6381610ba1565b82525050565b60008115159050919050565b610c7e81610c69565b82525050565b60a082016000820151610c9a6000850182610c4b565b506020820151610cad6020850182610c5a565b506040820151610cc06040850182610c4b565b506060820151610cd36060850182610c75565b506080820151610ce66080850182610c4b565b50505050565b6000610cf88383610c84565b60a08301905092915050565b6000602082019050919050565b6000610d1c82610c1f565b610d268185610c2a565b9350610d3183610c3b565b8060005b83811015610d62578151610d498882610cec565b9750610d5483610d04565b925050600181019050610d35565b5085935050505092915050565b60006020820190508181036000830152610d898184610d11565b905092915050565b7f4e487b7100000000000000000000000000000000000000000000000000000000600052603260045260246000fd5b7f4e487b7100000000000000000000000000000000000000000000000000000000600052601160045260246000fd5b6000610dfa82610ab8565b91507fffffffffffffffffffffffffffffffffffffffffffffffffffffffffffffffff8203610e2c57610e2b610dc0565b5b600182019050919050565b600082825260208201905092915050565b7f4552524f522043726561745f496e73756666696369656e742062616c616e636560008201527f20746f207472616e736665722066756e64732e00000000000000000000000000602082015250565b6000610ea4603383610e37565b9150610eaf82610e48565b604082019050919050565b60006020820190508181036000830152610ed381610e97565b9050919050565b7f4552524f5220335f5468652073656e6465722063616e6e6f742062652074686560008201527f20726563697069656e742e000000000000000000000000000000000000000000602082015250565b6000610f36602b83610e37565b9150610f4182610eda565b604082019050919050565b60006020820190508181036000830152610f6581610f29565b9050919050565b6000819050919050565b6000610f91610f8c610f8784610b1b565b610f6c565b610b1b565b9050919050565b6000610fa382610f76565b9050919050565b6000610fb582610f98565b9050919050565b610fc581610faa565b82525050565b6000608082019050610fe06000830187610b77565b610fed6020830186610b77565b610ffa6040830185610b4d565b6110076060830184610fbc565b95945050505050565b7f4552524f5220375f4f776e65727320617265206e6f7420616c6c6f776564207460008201527f6f20766f74652074776963652e00000000000000000000000000000000000000602082015250565b600061106c602d83610e37565b915061107782611010565b604082019050919050565b6000602082019050818103600083015261109b8161105f565b9050919050565b7f4552524f5220385f4f776e65727320617265206e6f7420616c6c6f776564207460008201527f6f20766f7465206f6e2061207472616e7366657220726571756573742074686160208201527f742068617320616c7265616479206265656e2073656e742e0000000000000000604082015250565b6000611124605883610e37565b915061112f826110a2565b606082019050919050565b6000602082019050818103600083015261115381611117565b9050919050565b600060608201905061116f6000830186610b77565b61117c6020830185610b77565b6111896040830184610b4d565b949350505050565b600061119c82610ab8565b91506111a783610ab8565b9250827fffffffffffffffffffffffffffffffffffffffffffffffffffffffffffffffff038211156111dc576111db610dc0565b5b82820190509291505056fea2646970667358221220f9b58e93651aa0340d0b6bb3e89a2b65c0e24c8bd8698e35a6a49344abc661e964736f6c634300080d0033",
					"opcodes": "PUSH1 0x80 PUSH1 0x40 MSTORE CALLVALUE DUP1 ISZERO PUSH3 0x11 JUMPI PUSH1 0x0 DUP1 REVERT JUMPDEST POP PUSH1 0x40 MLOAD PUSH3 0x15C9 CODESIZE SUB DUP1 PUSH3 0x15C9 DUP4 CODECOPY DUP2 DUP2 ADD PUSH1 0x40 MSTORE DUP2 ADD SWAP1 PUSH3 0x37 SWAP2 SWAP1 PUSH3 0x336 JUMP JUMPDEST DUP2 PUSH1 0x1 SWAP1 DUP1 MLOAD SWAP1 PUSH1 0x20 ADD SWAP1 PUSH3 0x4F SWAP3 SWAP2 SWAP1 PUSH3 0x5F JUMP JUMPDEST POP DUP1 PUSH1 0x0 DUP2 SWAP1 SSTORE POP POP POP PUSH3 0x39C JUMP JUMPDEST DUP3 DUP1 SLOAD DUP3 DUP3 SSTORE SWAP1 PUSH1 0x0 MSTORE PUSH1 0x20 PUSH1 0x0 KECCAK256 SWAP1 DUP2 ADD SWAP3 DUP3 ISZERO PUSH3 0xDB JUMPI SWAP2 PUSH1 0x20 MUL DUP3 ADD JUMPDEST DUP3 DUP2 GT ISZERO PUSH3 0xDA JUMPI DUP3 MLOAD DUP3 PUSH1 0x0 PUSH2 0x100 EXP DUP2 SLOAD DUP2 PUSH20 0xFFFFFFFFFFFFFFFFFFFFFFFFFFFFFFFFFFFFFFFF MUL NOT AND SWAP1 DUP4 PUSH20 0xFFFFFFFFFFFFFFFFFFFFFFFFFFFFFFFFFFFFFFFF AND MUL OR SWAP1 SSTORE POP SWAP2 PUSH1 0x20 ADD SWAP2 SWAP1 PUSH1 0x1 ADD SWAP1 PUSH3 0x80 JUMP JUMPDEST JUMPDEST POP SWAP1 POP PUSH3 0xEA SWAP2 SWAP1 PUSH3 0xEE JUMP JUMPDEST POP SWAP1 JUMP JUMPDEST JUMPDEST DUP1 DUP3 GT ISZERO PUSH3 0x109 JUMPI PUSH1 0x0 DUP2 PUSH1 0x0 SWAP1 SSTORE POP PUSH1 0x1 ADD PUSH3 0xEF JUMP JUMPDEST POP SWAP1 JUMP JUMPDEST PUSH1 0x0 PUSH1 0x40 MLOAD SWAP1 POP SWAP1 JUMP JUMPDEST PUSH1 0x0 DUP1 REVERT JUMPDEST PUSH1 0x0 DUP1 REVERT JUMPDEST PUSH1 0x0 DUP1 REVERT JUMPDEST PUSH1 0x0 PUSH1 0x1F NOT PUSH1 0x1F DUP4 ADD AND SWAP1 POP SWAP2 SWAP1 POP JUMP JUMPDEST PUSH32 0x4E487B7100000000000000000000000000000000000000000000000000000000 PUSH1 0x0 MSTORE PUSH1 0x41 PUSH1 0x4 MSTORE PUSH1 0x24 PUSH1 0x0 REVERT JUMPDEST PUSH3 0x171 DUP3 PUSH3 0x126 JUMP JUMPDEST DUP2 ADD DUP2 DUP2 LT PUSH8 0xFFFFFFFFFFFFFFFF DUP3 GT OR ISZERO PUSH3 0x193 JUMPI PUSH3 0x192 PUSH3 0x137 JUMP JUMPDEST JUMPDEST DUP1 PUSH1 0x40 MSTORE POP POP POP JUMP JUMPDEST PUSH1 0x0 PUSH3 0x1A8 PUSH3 0x10D JUMP JUMPDEST SWAP1 POP PUSH3 0x1B6 DUP3 DUP3 PUSH3 0x166 JUMP JUMPDEST SWAP2 SWAP1 POP JUMP JUMPDEST PUSH1 0x0 PUSH8 0xFFFFFFFFFFFFFFFF DUP3 GT ISZERO PUSH3 0x1D9 JUMPI PUSH3 0x1D8 PUSH3 0x137 JUMP JUMPDEST JUMPDEST PUSH1 0x20 DUP3 MUL SWAP1 POP PUSH1 0x20 DUP2 ADD SWAP1 POP SWAP2 SWAP1 POP JUMP JUMPDEST PUSH1 0x0 DUP1 REVERT JUMPDEST PUSH1 0x0 PUSH20 0xFFFFFFFFFFFFFFFFFFFFFFFFFFFFFFFFFFFFFFFF DUP3 AND SWAP1 POP SWAP2 SWAP1 POP JUMP JUMPDEST PUSH1 0x0 PUSH3 0x21C DUP3 PUSH3 0x1EF JUMP JUMPDEST SWAP1 POP SWAP2 SWAP1 POP JUMP JUMPDEST PUSH3 0x22E DUP2 PUSH3 0x20F JUMP JUMPDEST DUP2 EQ PUSH3 0x23A JUMPI PUSH1 0x0 DUP1 REVERT JUMPDEST POP JUMP JUMPDEST PUSH1 0x0 DUP2 MLOAD SWAP1 POP PUSH3 0x24E DUP2 PUSH3 0x223 JUMP JUMPDEST SWAP3 SWAP2 POP POP JUMP JUMPDEST PUSH1 0x0 PUSH3 0x26B PUSH3 0x265 DUP5 PUSH3 0x1BB JUMP JUMPDEST PUSH3 0x19C JUMP JUMPDEST SWAP1 POP DUP1 DUP4 DUP3 MSTORE PUSH1 0x20 DUP3 ADD SWAP1 POP PUSH1 0x20 DUP5 MUL DUP4 ADD DUP6 DUP2 GT ISZERO PUSH3 0x291 JUMPI PUSH3 0x290 PUSH3 0x1EA JUMP JUMPDEST JUMPDEST DUP4 JUMPDEST DUP2 DUP2 LT ISZERO PUSH3 0x2BE JUMPI DUP1 PUSH3 0x2A9 DUP9 DUP3 PUSH3 0x23D JUMP JUMPDEST DUP5 MSTORE PUSH1 0x20 DUP5 ADD SWAP4 POP POP PUSH1 0x20 DUP2 ADD SWAP1 POP PUSH3 0x293 JUMP JUMPDEST POP POP POP SWAP4 SWAP3 POP POP POP JUMP JUMPDEST PUSH1 0x0 DUP3 PUSH1 0x1F DUP4 ADD SLT PUSH3 0x2E0 JUMPI PUSH3 0x2DF PUSH3 0x121 JUMP JUMPDEST JUMPDEST DUP2 MLOAD PUSH3 0x2F2 DUP5 DUP3 PUSH1 0x20 DUP7 ADD PUSH3 0x254 JUMP JUMPDEST SWAP2 POP POP SWAP3 SWAP2 POP POP JUMP JUMPDEST PUSH1 0x0 DUP2 SWAP1 POP SWAP2 SWAP1 POP JUMP JUMPDEST PUSH3 0x310 DUP2 PUSH3 0x2FB JUMP JUMPDEST DUP2 EQ PUSH3 0x31C JUMPI PUSH1 0x0 DUP1 REVERT JUMPDEST POP JUMP JUMPDEST PUSH1 0x0 DUP2 MLOAD SWAP1 POP PUSH3 0x330 DUP2 PUSH3 0x305 JUMP JUMPDEST SWAP3 SWAP2 POP POP JUMP JUMPDEST PUSH1 0x0 DUP1 PUSH1 0x40 DUP4 DUP6 SUB SLT ISZERO PUSH3 0x350 JUMPI PUSH3 0x34F PUSH3 0x117 JUMP JUMPDEST JUMPDEST PUSH1 0x0 DUP4 ADD MLOAD PUSH8 0xFFFFFFFFFFFFFFFF DUP2 GT ISZERO PUSH3 0x371 JUMPI PUSH3 0x370 PUSH3 0x11C JUMP JUMPDEST JUMPDEST PUSH3 0x37F DUP6 DUP3 DUP7 ADD PUSH3 0x2C8 JUMP JUMPDEST SWAP3 POP POP PUSH1 0x20 PUSH3 0x392 DUP6 DUP3 DUP7 ADD PUSH3 0x31F JUMP JUMPDEST SWAP2 POP POP SWAP3 POP SWAP3 SWAP1 POP JUMP JUMPDEST PUSH2 0x121D DUP1 PUSH3 0x3AC PUSH1 0x0 CODECOPY PUSH1 0x0 RETURN INVALID PUSH1 0x80 PUSH1 0x40 MSTORE PUSH1 0x4 CALLDATASIZE LT PUSH2 0x55 JUMPI PUSH1 0x0 CALLDATALOAD PUSH1 0xE0 SHR DUP1 PUSH4 0x25E7C27 EQ PUSH2 0x5A JUMPI DUP1 PUSH4 0x12065FE0 EQ PUSH2 0x97 JUMPI DUP1 PUSH4 0x4C12FA47 EQ PUSH2 0xC2 JUMPI DUP1 PUSH4 0xA04EF145 EQ PUSH2 0xEB JUMPI DUP1 PUSH4 0xB759F954 EQ PUSH2 0x116 JUMPI DUP1 PUSH4 0xD0E30DB0 EQ PUSH2 0x13F JUMPI JUMPDEST PUSH1 0x0 DUP1 REVERT JUMPDEST CALLVALUE DUP1 ISZERO PUSH2 0x66 JUMPI PUSH1 0x0 DUP1 REVERT JUMPDEST POP PUSH2 0x81 PUSH1 0x4 DUP1 CALLDATASIZE SUB DUP2 ADD SWAP1 PUSH2 0x7C SWAP2 SWAP1 PUSH2 0xAEE JUMP JUMPDEST PUSH2 0x15D JUMP JUMPDEST PUSH1 0x40 MLOAD PUSH2 0x8E SWAP2 SWAP1 PUSH2 0xB5C JUMP JUMPDEST PUSH1 0x40 MLOAD DUP1 SWAP2 SUB SWAP1 RETURN JUMPDEST CALLVALUE DUP1 ISZERO PUSH2 0xA3 JUMPI PUSH1 0x0 DUP1 REVERT JUMPDEST POP PUSH2 0xAC PUSH2 0x19C JUMP JUMPDEST PUSH1 0x40 MLOAD PUSH2 0xB9 SWAP2 SWAP1 PUSH2 0xB86 JUMP JUMPDEST PUSH1 0x40 MLOAD DUP1 SWAP2 SUB SWAP1 RETURN JUMPDEST CALLVALUE DUP1 ISZERO PUSH2 0xCE JUMPI PUSH1 0x0 DUP1 REVERT JUMPDEST POP PUSH2 0xE9 PUSH1 0x4 DUP1 CALLDATASIZE SUB DUP2 ADD SWAP1 PUSH2 0xE4 SWAP2 SWAP1 PUSH2 0xBDF JUMP JUMPDEST PUSH2 0x1E3 JUMP JUMPDEST STOP JUMPDEST CALLVALUE DUP1 ISZERO PUSH2 0xF7 JUMPI PUSH1 0x0 DUP1 REVERT JUMPDEST POP PUSH2 0x100 PUSH2 0x4BE JUMP JUMPDEST PUSH1 0x40 MLOAD PUSH2 0x10D SWAP2 SWAP1 PUSH2 0xD6F JUMP JUMPDEST PUSH1 0x40 MLOAD DUP1 SWAP2 SUB SWAP1 RETURN JUMPDEST CALLVALUE DUP1 ISZERO PUSH2 0x122 JUMPI PUSH1 0x0 DUP1 REVERT JUMPDEST POP PUSH2 0x13D PUSH1 0x4 DUP1 CALLDATASIZE SUB DUP2 ADD SWAP1 PUSH2 0x138 SWAP2 SWAP1 PUSH2 0xAEE JUMP JUMPDEST PUSH2 0x5AC JUMP JUMPDEST STOP JUMPDEST PUSH2 0x147 PUSH2 0x9D2 JUMP JUMPDEST PUSH1 0x40 MLOAD PUSH2 0x154 SWAP2 SWAP1 PUSH2 0xB86 JUMP JUMPDEST PUSH1 0x40 MLOAD DUP1 SWAP2 SUB SWAP1 RETURN JUMPDEST PUSH1 0x1 DUP2 DUP2 SLOAD DUP2 LT PUSH2 0x16D JUMPI PUSH1 0x0 DUP1 REVERT JUMPDEST SWAP1 PUSH1 0x0 MSTORE PUSH1 0x20 PUSH1 0x0 KECCAK256 ADD PUSH1 0x0 SWAP2 POP SLOAD SWAP1 PUSH2 0x100 EXP SWAP1 DIV PUSH20 0xFFFFFFFFFFFFFFFFFFFFFFFFFFFFFFFFFFFFFFFF AND DUP2 JUMP JUMPDEST PUSH1 0x0 PUSH1 0x3 PUSH1 0x0 CALLER PUSH20 0xFFFFFFFFFFFFFFFFFFFFFFFFFFFFFFFFFFFFFFFF AND PUSH20 0xFFFFFFFFFFFFFFFFFFFFFFFFFFFFFFFFFFFFFFFF AND DUP2 MSTORE PUSH1 0x20 ADD SWAP1 DUP2 MSTORE PUSH1 0x20 ADD PUSH1 0x0 KECCAK256 SLOAD SWAP1 POP SWAP1 JUMP JUMPDEST PUSH1 0x0 DUP1 JUMPDEST PUSH1 0x1 DUP1 SLOAD SWAP1 POP DUP2 LT ISZERO PUSH2 0x27D JUMPI CALLER PUSH20 0xFFFFFFFFFFFFFFFFFFFFFFFFFFFFFFFFFFFFFFFF AND PUSH1 0x1 DUP3 DUP2 SLOAD DUP2 LT PUSH2 0x21F JUMPI PUSH2 0x21E PUSH2 0xD91 JUMP JUMPDEST JUMPDEST SWAP1 PUSH1 0x0 MSTORE PUSH1 0x20 PUSH1 0x0 KECCAK256 ADD PUSH1 0x0 SWAP1 SLOAD SWAP1 PUSH2 0x100 EXP SWAP1 DIV PUSH20 0xFFFFFFFFFFFFFFFFFFFFFFFFFFFFFFFFFFFFFFFF AND PUSH20 0xFFFFFFFFFFFFFFFFFFFFFFFFFFFFFFFFFFFFFFFF AND SUB PUSH2 0x26A JUMPI PUSH1 0x1 SWAP2 POP JUMPDEST DUP1 DUP1 PUSH2 0x275 SWAP1 PUSH2 0xDEF JUMP JUMPDEST SWAP2 POP POP PUSH2 0x1E7 JUMP JUMPDEST POP PUSH1 0x1 ISZERO ISZERO DUP2 ISZERO ISZERO EQ PUSH2 0x28F JUMPI PUSH1 0x0 DUP1 REVERT JUMPDEST DUP3 PUSH1 0x3 PUSH1 0x0 CALLER PUSH20 0xFFFFFFFFFFFFFFFFFFFFFFFFFFFFFFFFFFFFFFFF AND PUSH20 0xFFFFFFFFFFFFFFFFFFFFFFFFFFFFFFFFFFFFFFFF AND DUP2 MSTORE PUSH1 0x20 ADD SWAP1 DUP2 MSTORE PUSH1 0x20 ADD PUSH1 0x0 KECCAK256 SLOAD LT ISZERO PUSH2 0x311 JUMPI PUSH1 0x40 MLOAD PUSH32 0x8C379A000000000000000000000000000000000000000000000000000000000 DUP2 MSTORE PUSH1 0x4 ADD PUSH2 0x308 SWAP1 PUSH2 0xEBA JUMP JUMPDEST PUSH1 0x40 MLOAD DUP1 SWAP2 SUB SWAP1 REVERT JUMPDEST DUP2 PUSH20 0xFFFFFFFFFFFFFFFFFFFFFFFFFFFFFFFFFFFFFFFF AND CALLER PUSH20 0xFFFFFFFFFFFFFFFFFFFFFFFFFFFFFFFFFFFFFFFF AND SUB PUSH2 0x37F JUMPI PUSH1 0x40 MLOAD PUSH32 0x8C379A000000000000000000000000000000000000000000000000000000000 DUP2 MSTORE PUSH1 0x4 ADD PUSH2 0x376 SWAP1 PUSH2 0xF4C JUMP JUMPDEST PUSH1 0x40 MLOAD DUP1 SWAP2 SUB SWAP1 REVERT JUMPDEST PUSH32 0x99C4EC4ECFC26F7C8B27AEEE5443F92120FA2C4E91BA6020369AE71A4D44278 PUSH1 0x2 DUP1 SLOAD SWAP1 POP DUP5 CALLER DUP6 PUSH1 0x40 MLOAD PUSH2 0x3B9 SWAP5 SWAP4 SWAP3 SWAP2 SWAP1 PUSH2 0xFCB JUMP JUMPDEST PUSH1 0x40 MLOAD DUP1 SWAP2 SUB SWAP1 LOG1 PUSH1 0x2 PUSH1 0x40 MLOAD DUP1 PUSH1 0xA0 ADD PUSH1 0x40 MSTORE DUP1 DUP6 DUP2 MSTORE PUSH1 0x20 ADD DUP5 PUSH20 0xFFFFFFFFFFFFFFFFFFFFFFFFFFFFFFFFFFFFFFFF AND DUP2 MSTORE PUSH1 0x20 ADD PUSH1 0x0 DUP2 MSTORE PUSH1 0x20 ADD PUSH1 0x0 ISZERO ISZERO DUP2 MSTORE PUSH1 0x20 ADD PUSH1 0x2 DUP1 SLOAD SWAP1 POP DUP2 MSTORE POP SWAP1 DUP1 PUSH1 0x1 DUP2 SLOAD ADD DUP1 DUP3 SSTORE DUP1 SWAP2 POP POP PUSH1 0x1 SWAP1 SUB SWAP1 PUSH1 0x0 MSTORE PUSH1 0x20 PUSH1 0x0 KECCAK256 SWAP1 PUSH1 0x5 MUL ADD PUSH1 0x0 SWAP1 SWAP2 SWAP1 SWAP2 SWAP1 SWAP2 POP PUSH1 0x0 DUP3 ADD MLOAD DUP2 PUSH1 0x0 ADD SSTORE PUSH1 0x20 DUP3 ADD MLOAD DUP2 PUSH1 0x1 ADD PUSH1 0x0 PUSH2 0x100 EXP DUP2 SLOAD DUP2 PUSH20 0xFFFFFFFFFFFFFFFFFFFFFFFFFFFFFFFFFFFFFFFF MUL NOT AND SWAP1 DUP4 PUSH20 0xFFFFFFFFFFFFFFFFFFFFFFFFFFFFFFFFFFFFFFFF AND MUL OR SWAP1 SSTORE POP PUSH1 0x40 DUP3 ADD MLOAD DUP2 PUSH1 0x2 ADD SSTORE PUSH1 0x60 DUP3 ADD MLOAD DUP2 PUSH1 0x3 ADD PUSH1 0x0 PUSH2 0x100 EXP DUP2 SLOAD DUP2 PUSH1 0xFF MUL NOT AND SWAP1 DUP4 ISZERO ISZERO MUL OR SWAP1 SSTORE POP PUSH1 0x80 DUP3 ADD MLOAD DUP2 PUSH1 0x4 ADD SSTORE POP POP POP POP POP JUMP JUMPDEST PUSH1 0x60 PUSH1 0x2 DUP1 SLOAD DUP1 PUSH1 0x20 MUL PUSH1 0x20 ADD PUSH1 0x40 MLOAD SWAP1 DUP2 ADD PUSH1 0x40 MSTORE DUP1 SWAP3 SWAP2 SWAP1 DUP2 DUP2 MSTORE PUSH1 0x20 ADD PUSH1 0x0 SWAP1 JUMPDEST DUP3 DUP3 LT ISZERO PUSH2 0x5A3 JUMPI DUP4 DUP3 SWAP1 PUSH1 0x0 MSTORE PUSH1 0x20 PUSH1 0x0 KECCAK256 SWAP1 PUSH1 0x5 MUL ADD PUSH1 0x40 MLOAD DUP1 PUSH1 0xA0 ADD PUSH1 0x40 MSTORE SWAP1 DUP2 PUSH1 0x0 DUP3 ADD SLOAD DUP2 MSTORE PUSH1 0x20 ADD PUSH1 0x1 DUP3 ADD PUSH1 0x0 SWAP1 SLOAD SWAP1 PUSH2 0x100 EXP SWAP1 DIV PUSH20 0xFFFFFFFFFFFFFFFFFFFFFFFFFFFFFFFFFFFFFFFF AND PUSH20 0xFFFFFFFFFFFFFFFFFFFFFFFFFFFFFFFFFFFFFFFF AND PUSH20 0xFFFFFFFFFFFFFFFFFFFFFFFFFFFFFFFFFFFFFFFF AND DUP2 MSTORE PUSH1 0x20 ADD PUSH1 0x2 DUP3 ADD SLOAD DUP2 MSTORE PUSH1 0x20 ADD PUSH1 0x3 DUP3 ADD PUSH1 0x0 SWAP1 SLOAD SWAP1 PUSH2 0x100 EXP SWAP1 DIV PUSH1 0xFF AND ISZERO ISZERO ISZERO ISZERO DUP2 MSTORE PUSH1 0x20 ADD PUSH1 0x4 DUP3 ADD SLOAD DUP2 MSTORE POP POP DUP2 MSTORE PUSH1 0x20 ADD SWAP1 PUSH1 0x1 ADD SWAP1 PUSH2 0x4E2 JUMP JUMPDEST POP POP POP POP SWAP1 POP SWAP1 JUMP JUMPDEST PUSH1 0x0 DUP1 JUMPDEST PUSH1 0x1 DUP1 SLOAD SWAP1 POP DUP2 LT ISZERO PUSH2 0x646 JUMPI CALLER PUSH20 0xFFFFFFFFFFFFFFFFFFFFFFFFFFFFFFFFFFFFFFFF AND PUSH1 0x1 DUP3 DUP2 SLOAD DUP2 LT PUSH2 0x5E8 JUMPI PUSH2 0x5E7 PUSH2 0xD91 JUMP JUMPDEST JUMPDEST SWAP1 PUSH1 0x0 MSTORE PUSH1 0x20 PUSH1 0x0 KECCAK256 ADD PUSH1 0x0 SWAP1 SLOAD SWAP1 PUSH2 0x100 EXP SWAP1 DIV PUSH20 0xFFFFFFFFFFFFFFFFFFFFFFFFFFFFFFFFFFFFFFFF AND PUSH20 0xFFFFFFFFFFFFFFFFFFFFFFFFFFFFFFFFFFFFFFFF AND SUB PUSH2 0x633 JUMPI PUSH1 0x1 SWAP2 POP JUMPDEST DUP1 DUP1 PUSH2 0x63E SWAP1 PUSH2 0xDEF JUMP JUMPDEST SWAP2 POP POP PUSH2 0x5B0 JUMP JUMPDEST POP PUSH1 0x1 ISZERO ISZERO DUP2 ISZERO ISZERO EQ PUSH2 0x658 JUMPI PUSH1 0x0 DUP1 REVERT JUMPDEST PUSH1 0x0 ISZERO ISZERO PUSH1 0x4 PUSH1 0x0 CALLER PUSH20 0xFFFFFFFFFFFFFFFFFFFFFFFFFFFFFFFFFFFFFFFF AND PUSH20 0xFFFFFFFFFFFFFFFFFFFFFFFFFFFFFFFFFFFFFFFF AND DUP2 MSTORE PUSH1 0x20 ADD SWAP1 DUP2 MSTORE PUSH1 0x20 ADD PUSH1 0x0 KECCAK256 PUSH1 0x0 DUP5 DUP2 MSTORE PUSH1 0x20 ADD SWAP1 DUP2 MSTORE PUSH1 0x20 ADD PUSH1 0x0 KECCAK256 PUSH1 0x0 SWAP1 SLOAD SWAP1 PUSH2 0x100 EXP SWAP1 DIV PUSH1 0xFF AND ISZERO ISZERO EQ PUSH2 0x6FC JUMPI PUSH1 0x40 MLOAD PUSH32 0x8C379A000000000000000000000000000000000000000000000000000000000 DUP2 MSTORE PUSH1 0x4 ADD PUSH2 0x6F3 SWAP1 PUSH2 0x1082 JUMP JUMPDEST PUSH1 0x40 MLOAD DUP1 SWAP2 SUB SWAP1 REVERT JUMPDEST PUSH1 0x0 ISZERO ISZERO PUSH1 0x2 DUP4 DUP2 SLOAD DUP2 LT PUSH2 0x714 JUMPI PUSH2 0x713 PUSH2 0xD91 JUMP JUMPDEST JUMPDEST SWAP1 PUSH1 0x0 MSTORE PUSH1 0x20 PUSH1 0x0 KECCAK256 SWAP1 PUSH1 0x5 MUL ADD PUSH1 0x3 ADD PUSH1 0x0 SWAP1 SLOAD SWAP1 PUSH2 0x100 EXP SWAP1 DIV PUSH1 0xFF AND ISZERO ISZERO EQ PUSH2 0x775 JUMPI PUSH1 0x40 MLOAD PUSH32 0x8C379A000000000000000000000000000000000000000000000000000000000 DUP2 MSTORE PUSH1 0x4 ADD PUSH2 0x76C SWAP1 PUSH2 0x113A JUMP JUMPDEST PUSH1 0x40 MLOAD DUP1 SWAP2 SUB SWAP1 REVERT JUMPDEST PUSH1 0x1 PUSH1 0x4 PUSH1 0x0 CALLER PUSH20 0xFFFFFFFFFFFFFFFFFFFFFFFFFFFFFFFFFFFFFFFF AND PUSH20 0xFFFFFFFFFFFFFFFFFFFFFFFFFFFFFFFFFFFFFFFF AND DUP2 MSTORE PUSH1 0x20 ADD SWAP1 DUP2 MSTORE PUSH1 0x20 ADD PUSH1 0x0 KECCAK256 PUSH1 0x0 DUP5 DUP2 MSTORE PUSH1 0x20 ADD SWAP1 DUP2 MSTORE PUSH1 0x20 ADD PUSH1 0x0 KECCAK256 PUSH1 0x0 PUSH2 0x100 EXP DUP2 SLOAD DUP2 PUSH1 0xFF MUL NOT AND SWAP1 DUP4 ISZERO ISZERO MUL OR SWAP1 SSTORE POP PUSH1 0x2 DUP3 DUP2 SLOAD DUP2 LT PUSH2 0x7F2 JUMPI PUSH2 0x7F1 PUSH2 0xD91 JUMP JUMPDEST JUMPDEST SWAP1 PUSH1 0x0 MSTORE PUSH1 0x20 PUSH1 0x0 KECCAK256 SWAP1 PUSH1 0x5 MUL ADD PUSH1 0x2 ADD PUSH1 0x0 DUP2 SLOAD DUP1 SWAP3 SWAP2 SWAP1 PUSH2 0x814 SWAP1 PUSH2 0xDEF JUMP JUMPDEST SWAP2 SWAP1 POP SSTORE POP PUSH32 0xFEC9D12D15EE8C8B836A58347CB0D4980DB38411BCD0B83662CEE48FB20B6DEE DUP3 PUSH1 0x2 DUP5 DUP2 SLOAD DUP2 LT PUSH2 0x84F JUMPI PUSH2 0x84E PUSH2 0xD91 JUMP JUMPDEST JUMPDEST SWAP1 PUSH1 0x0 MSTORE PUSH1 0x20 PUSH1 0x0 KECCAK256 SWAP1 PUSH1 0x5 MUL ADD PUSH1 0x2 ADD SLOAD CALLER PUSH1 0x40 MLOAD PUSH2 0x871 SWAP4 SWAP3 SWAP2 SWAP1 PUSH2 0x115A JUMP JUMPDEST PUSH1 0x40 MLOAD DUP1 SWAP2 SUB SWAP1 LOG1 PUSH1 0x0 SLOAD PUSH1 0x2 DUP4 DUP2 SLOAD DUP2 LT PUSH2 0x890 JUMPI PUSH2 0x88F PUSH2 0xD91 JUMP JUMPDEST JUMPDEST SWAP1 PUSH1 0x0 MSTORE PUSH1 0x20 PUSH1 0x0 KECCAK256 SWAP1 PUSH1 0x5 MUL ADD PUSH1 0x2 ADD SLOAD LT PUSH2 0x9CE JUMPI PUSH1 0x1 PUSH1 0x2 DUP4 DUP2 SLOAD DUP2 LT PUSH2 0x8BD JUMPI PUSH2 0x8BC PUSH2 0xD91 JUMP JUMPDEST JUMPDEST SWAP1 PUSH1 0x0 MSTORE PUSH1 0x20 PUSH1 0x0 KECCAK256 SWAP1 PUSH1 0x5 MUL ADD PUSH1 0x3 ADD PUSH1 0x0 PUSH2 0x100 EXP DUP2 SLOAD DUP2 PUSH1 0xFF MUL NOT AND SWAP1 DUP4 ISZERO ISZERO MUL OR SWAP1 SSTORE POP PUSH1 0x2 DUP3 DUP2 SLOAD DUP2 LT PUSH2 0x8F9 JUMPI PUSH2 0x8F8 PUSH2 0xD91 JUMP JUMPDEST JUMPDEST SWAP1 PUSH1 0x0 MSTORE PUSH1 0x20 PUSH1 0x0 KECCAK256 SWAP1 PUSH1 0x5 MUL ADD PUSH1 0x1 ADD PUSH1 0x0 SWAP1 SLOAD SWAP1 PUSH2 0x100 EXP SWAP1 DIV PUSH20 0xFFFFFFFFFFFFFFFFFFFFFFFFFFFFFFFFFFFFFFFF AND PUSH20 0xFFFFFFFFFFFFFFFFFFFFFFFFFFFFFFFFFFFFFFFF AND PUSH2 0x8FC PUSH1 0x2 DUP5 DUP2 SLOAD DUP2 LT PUSH2 0x958 JUMPI PUSH2 0x957 PUSH2 0xD91 JUMP JUMPDEST JUMPDEST SWAP1 PUSH1 0x0 MSTORE PUSH1 0x20 PUSH1 0x0 KECCAK256 SWAP1 PUSH1 0x5 MUL ADD PUSH1 0x0 ADD SLOAD SWAP1 DUP2 ISZERO MUL SWAP1 PUSH1 0x40 MLOAD PUSH1 0x0 PUSH1 0x40 MLOAD DUP1 DUP4 SUB DUP2 DUP6 DUP9 DUP9 CALL SWAP4 POP POP POP POP ISZERO DUP1 ISZERO PUSH2 0x995 JUMPI RETURNDATASIZE PUSH1 0x0 DUP1 RETURNDATACOPY RETURNDATASIZE PUSH1 0x0 REVERT JUMPDEST POP PUSH32 0xD9BBF1D8BEF570B7E92EF1BA025425FC15915AE01F3D3BE144CDC8BE05442EB5 DUP3 PUSH1 0x40 MLOAD PUSH2 0x9C5 SWAP2 SWAP1 PUSH2 0xB86 JUMP JUMPDEST PUSH1 0x40 MLOAD DUP1 SWAP2 SUB SWAP1 LOG1 JUMPDEST POP POP JUMP JUMPDEST PUSH1 0x0 CALLVALUE PUSH1 0x3 PUSH1 0x0 CALLER PUSH20 0xFFFFFFFFFFFFFFFFFFFFFFFFFFFFFFFFFFFFFFFF AND PUSH20 0xFFFFFFFFFFFFFFFFFFFFFFFFFFFFFFFFFFFFFFFF AND DUP2 MSTORE PUSH1 0x20 ADD SWAP1 DUP2 MSTORE PUSH1 0x20 ADD PUSH1 0x0 KECCAK256 PUSH1 0x0 DUP3 DUP3 SLOAD PUSH2 0xA23 SWAP2 SWAP1 PUSH2 0x1191 JUMP JUMPDEST SWAP3 POP POP DUP2 SWAP1 SSTORE POP CALLER PUSH20 0xFFFFFFFFFFFFFFFFFFFFFFFFFFFFFFFFFFFFFFFF AND CALLVALUE PUSH32 0xA23831066066EC8812CC52AFC91A52134A8B50C9209B68C276BE679F4073D95D PUSH1 0x40 MLOAD PUSH1 0x40 MLOAD DUP1 SWAP2 SUB SWAP1 LOG3 PUSH1 0x3 PUSH1 0x0 CALLER PUSH20 0xFFFFFFFFFFFFFFFFFFFFFFFFFFFFFFFFFFFFFFFF AND PUSH20 0xFFFFFFFFFFFFFFFFFFFFFFFFFFFFFFFFFFFFFFFF AND DUP2 MSTORE PUSH1 0x20 ADD SWAP1 DUP2 MSTORE PUSH1 0x20 ADD PUSH1 0x0 KECCAK256 SLOAD SWAP1 POP SWAP1 JUMP JUMPDEST PUSH1 0x0 DUP1 REVERT JUMPDEST PUSH1 0x0 DUP2 SWAP1 POP SWAP2 SWAP1 POP JUMP JUMPDEST PUSH2 0xACB DUP2 PUSH2 0xAB8 JUMP JUMPDEST DUP2 EQ PUSH2 0xAD6 JUMPI PUSH1 0x0 DUP1 REVERT JUMPDEST POP JUMP JUMPDEST PUSH1 0x0 DUP2 CALLDATALOAD SWAP1 POP PUSH2 0xAE8 DUP2 PUSH2 0xAC2 JUMP JUMPDEST SWAP3 SWAP2 POP POP JUMP JUMPDEST PUSH1 0x0 PUSH1 0x20 DUP3 DUP5 SUB SLT ISZERO PUSH2 0xB04 JUMPI PUSH2 0xB03 PUSH2 0xAB3 JUMP JUMPDEST JUMPDEST PUSH1 0x0 PUSH2 0xB12 DUP5 DUP3 DUP6 ADD PUSH2 0xAD9 JUMP JUMPDEST SWAP2 POP POP SWAP3 SWAP2 POP POP JUMP JUMPDEST PUSH1 0x0 PUSH20 0xFFFFFFFFFFFFFFFFFFFFFFFFFFFFFFFFFFFFFFFF DUP3 AND SWAP1 POP SWAP2 SWAP1 POP JUMP JUMPDEST PUSH1 0x0 PUSH2 0xB46 DUP3 PUSH2 0xB1B JUMP JUMPDEST SWAP1 POP SWAP2 SWAP1 POP JUMP JUMPDEST PUSH2 0xB56 DUP2 PUSH2 0xB3B JUMP JUMPDEST DUP3 MSTORE POP POP JUMP JUMPDEST PUSH1 0x0 PUSH1 0x20 DUP3 ADD SWAP1 POP PUSH2 0xB71 PUSH1 0x0 DUP4 ADD DUP5 PUSH2 0xB4D JUMP JUMPDEST SWAP3 SWAP2 POP POP JUMP JUMPDEST PUSH2 0xB80 DUP2 PUSH2 0xAB8 JUMP JUMPDEST DUP3 MSTORE POP POP JUMP JUMPDEST PUSH1 0x0 PUSH1 0x20 DUP3 ADD SWAP1 POP PUSH2 0xB9B PUSH1 0x0 DUP4 ADD DUP5 PUSH2 0xB77 JUMP JUMPDEST SWAP3 SWAP2 POP POP JUMP JUMPDEST PUSH1 0x0 PUSH2 0xBAC DUP3 PUSH2 0xB1B JUMP JUMPDEST SWAP1 POP SWAP2 SWAP1 POP JUMP JUMPDEST PUSH2 0xBBC DUP2 PUSH2 0xBA1 JUMP JUMPDEST DUP2 EQ PUSH2 0xBC7 JUMPI PUSH1 0x0 DUP1 REVERT JUMPDEST POP JUMP JUMPDEST PUSH1 0x0 DUP2 CALLDATALOAD SWAP1 POP PUSH2 0xBD9 DUP2 PUSH2 0xBB3 JUMP JUMPDEST SWAP3 SWAP2 POP POP JUMP JUMPDEST PUSH1 0x0 DUP1 PUSH1 0x40 DUP4 DUP6 SUB SLT ISZERO PUSH2 0xBF6 JUMPI PUSH2 0xBF5 PUSH2 0xAB3 JUMP JUMPDEST JUMPDEST PUSH1 0x0 PUSH2 0xC04 DUP6 DUP3 DUP7 ADD PUSH2 0xAD9 JUMP JUMPDEST SWAP3 POP POP PUSH1 0x20 PUSH2 0xC15 DUP6 DUP3 DUP7 ADD PUSH2 0xBCA JUMP JUMPDEST SWAP2 POP POP SWAP3 POP SWAP3 SWAP1 POP JUMP JUMPDEST PUSH1 0x0 DUP2 MLOAD SWAP1 POP SWAP2 SWAP1 POP JUMP JUMPDEST PUSH1 0x0 DUP3 DUP3 MSTORE PUSH1 0x20 DUP3 ADD SWAP1 POP SWAP3 SWAP2 POP POP JUMP JUMPDEST PUSH1 0x0 DUP2 SWAP1 POP PUSH1 0x20 DUP3 ADD SWAP1 POP SWAP2 SWAP1 POP JUMP JUMPDEST PUSH2 0xC54 DUP2 PUSH2 0xAB8 JUMP JUMPDEST DUP3 MSTORE POP POP JUMP JUMPDEST PUSH2 0xC63 DUP2 PUSH2 0xBA1 JUMP JUMPDEST DUP3 MSTORE POP POP JUMP JUMPDEST PUSH1 0x0 DUP2 ISZERO ISZERO SWAP1 POP SWAP2 SWAP1 POP JUMP JUMPDEST PUSH2 0xC7E DUP2 PUSH2 0xC69 JUMP JUMPDEST DUP3 MSTORE POP POP JUMP JUMPDEST PUSH1 0xA0 DUP3 ADD PUSH1 0x0 DUP3 ADD MLOAD PUSH2 0xC9A PUSH1 0x0 DUP6 ADD DUP3 PUSH2 0xC4B JUMP JUMPDEST POP PUSH1 0x20 DUP3 ADD MLOAD PUSH2 0xCAD PUSH1 0x20 DUP6 ADD DUP3 PUSH2 0xC5A JUMP JUMPDEST POP PUSH1 0x40 DUP3 ADD MLOAD PUSH2 0xCC0 PUSH1 0x40 DUP6 ADD DUP3 PUSH2 0xC4B JUMP JUMPDEST POP PUSH1 0x60 DUP3 ADD MLOAD PUSH2 0xCD3 PUSH1 0x60 DUP6 ADD DUP3 PUSH2 0xC75 JUMP JUMPDEST POP PUSH1 0x80 DUP3 ADD MLOAD PUSH2 0xCE6 PUSH1 0x80 DUP6 ADD DUP3 PUSH2 0xC4B JUMP JUMPDEST POP POP POP POP JUMP JUMPDEST PUSH1 0x0 PUSH2 0xCF8 DUP4 DUP4 PUSH2 0xC84 JUMP JUMPDEST PUSH1 0xA0 DUP4 ADD SWAP1 POP SWAP3 SWAP2 POP POP JUMP JUMPDEST PUSH1 0x0 PUSH1 0x20 DUP3 ADD SWAP1 POP SWAP2 SWAP1 POP JUMP JUMPDEST PUSH1 0x0 PUSH2 0xD1C DUP3 PUSH2 0xC1F JUMP JUMPDEST PUSH2 0xD26 DUP2 DUP6 PUSH2 0xC2A JUMP JUMPDEST SWAP4 POP PUSH2 0xD31 DUP4 PUSH2 0xC3B JUMP JUMPDEST DUP1 PUSH1 0x0 JUMPDEST DUP4 DUP2 LT ISZERO PUSH2 0xD62 JUMPI DUP2 MLOAD PUSH2 0xD49 DUP9 DUP3 PUSH2 0xCEC JUMP JUMPDEST SWAP8 POP PUSH2 0xD54 DUP4 PUSH2 0xD04 JUMP JUMPDEST SWAP3 POP POP PUSH1 0x1 DUP2 ADD SWAP1 POP PUSH2 0xD35 JUMP JUMPDEST POP DUP6 SWAP4 POP POP POP POP SWAP3 SWAP2 POP POP JUMP JUMPDEST PUSH1 0x0 PUSH1 0x20 DUP3 ADD SWAP1 POP DUP2 DUP2 SUB PUSH1 0x0 DUP4 ADD MSTORE PUSH2 0xD89 DUP2 DUP5 PUSH2 0xD11 JUMP JUMPDEST SWAP1 POP SWAP3 SWAP2 POP POP JUMP JUMPDEST PUSH32 0x4E487B7100000000000000000000000000000000000000000000000000000000 PUSH1 0x0 MSTORE PUSH1 0x32 PUSH1 0x4 MSTORE PUSH1 0x24 PUSH1 0x0 REVERT JUMPDEST PUSH32 0x4E487B7100000000000000000000000000000000000000000000000000000000 PUSH1 0x0 MSTORE PUSH1 0x11 PUSH1 0x4 MSTORE PUSH1 0x24 PUSH1 0x0 REVERT JUMPDEST PUSH1 0x0 PUSH2 0xDFA DUP3 PUSH2 0xAB8 JUMP JUMPDEST SWAP2 POP PUSH32 0xFFFFFFFFFFFFFFFFFFFFFFFFFFFFFFFFFFFFFFFFFFFFFFFFFFFFFFFFFFFFFFFF DUP3 SUB PUSH2 0xE2C JUMPI PUSH2 0xE2B PUSH2 0xDC0 JUMP JUMPDEST JUMPDEST PUSH1 0x1 DUP3 ADD SWAP1 POP SWAP2 SWAP1 POP JUMP JUMPDEST PUSH1 0x0 DUP3 DUP3 MSTORE PUSH1 0x20 DUP3 ADD SWAP1 POP SWAP3 SWAP2 POP POP JUMP JUMPDEST PUSH32 0x4552524F522043726561745F496E73756666696369656E742062616C616E6365 PUSH1 0x0 DUP3 ADD MSTORE PUSH32 0x20746F207472616E736665722066756E64732E00000000000000000000000000 PUSH1 0x20 DUP3 ADD MSTORE POP JUMP JUMPDEST PUSH1 0x0 PUSH2 0xEA4 PUSH1 0x33 DUP4 PUSH2 0xE37 JUMP JUMPDEST SWAP2 POP PUSH2 0xEAF DUP3 PUSH2 0xE48 JUMP JUMPDEST PUSH1 0x40 DUP3 ADD SWAP1 POP SWAP2 SWAP1 POP JUMP JUMPDEST PUSH1 0x0 PUSH1 0x20 DUP3 ADD SWAP1 POP DUP2 DUP2 SUB PUSH1 0x0 DUP4 ADD MSTORE PUSH2 0xED3 DUP2 PUSH2 0xE97 JUMP JUMPDEST SWAP1 POP SWAP2 SWAP1 POP JUMP JUMPDEST PUSH32 0x4552524F5220335F5468652073656E6465722063616E6E6F7420626520746865 PUSH1 0x0 DUP3 ADD MSTORE PUSH32 0x20726563697069656E742E000000000000000000000000000000000000000000 PUSH1 0x20 DUP3 ADD MSTORE POP JUMP JUMPDEST PUSH1 0x0 PUSH2 0xF36 PUSH1 0x2B DUP4 PUSH2 0xE37 JUMP JUMPDEST SWAP2 POP PUSH2 0xF41 DUP3 PUSH2 0xEDA JUMP JUMPDEST PUSH1 0x40 DUP3 ADD SWAP1 POP SWAP2 SWAP1 POP JUMP JUMPDEST PUSH1 0x0 PUSH1 0x20 DUP3 ADD SWAP1 POP DUP2 DUP2 SUB PUSH1 0x0 DUP4 ADD MSTORE PUSH2 0xF65 DUP2 PUSH2 0xF29 JUMP JUMPDEST SWAP1 POP SWAP2 SWAP1 POP JUMP JUMPDEST PUSH1 0x0 DUP2 SWAP1 POP SWAP2 SWAP1 POP JUMP JUMPDEST PUSH1 0x0 PUSH2 0xF91 PUSH2 0xF8C PUSH2 0xF87 DUP5 PUSH2 0xB1B JUMP JUMPDEST PUSH2 0xF6C JUMP JUMPDEST PUSH2 0xB1B JUMP JUMPDEST SWAP1 POP SWAP2 SWAP1 POP JUMP JUMPDEST PUSH1 0x0 PUSH2 0xFA3 DUP3 PUSH2 0xF76 JUMP JUMPDEST SWAP1 POP SWAP2 SWAP1 POP JUMP JUMPDEST PUSH1 0x0 PUSH2 0xFB5 DUP3 PUSH2 0xF98 JUMP JUMPDEST SWAP1 POP SWAP2 SWAP1 POP JUMP JUMPDEST PUSH2 0xFC5 DUP2 PUSH2 0xFAA JUMP JUMPDEST DUP3 MSTORE POP POP JUMP JUMPDEST PUSH1 0x0 PUSH1 0x80 DUP3 ADD SWAP1 POP PUSH2 0xFE0 PUSH1 0x0 DUP4 ADD DUP8 PUSH2 0xB77 JUMP JUMPDEST PUSH2 0xFED PUSH1 0x20 DUP4 ADD DUP7 PUSH2 0xB77 JUMP JUMPDEST PUSH2 0xFFA PUSH1 0x40 DUP4 ADD DUP6 PUSH2 0xB4D JUMP JUMPDEST PUSH2 0x1007 PUSH1 0x60 DUP4 ADD DUP5 PUSH2 0xFBC JUMP JUMPDEST SWAP6 SWAP5 POP POP POP POP POP JUMP JUMPDEST PUSH32 0x4552524F5220375F4F776E65727320617265206E6F7420616C6C6F7765642074 PUSH1 0x0 DUP3 ADD MSTORE PUSH32 0x6F20766F74652074776963652E00000000000000000000000000000000000000 PUSH1 0x20 DUP3 ADD MSTORE POP JUMP JUMPDEST PUSH1 0x0 PUSH2 0x106C PUSH1 0x2D DUP4 PUSH2 0xE37 JUMP JUMPDEST SWAP2 POP PUSH2 0x1077 DUP3 PUSH2 0x1010 JUMP JUMPDEST PUSH1 0x40 DUP3 ADD SWAP1 POP SWAP2 SWAP1 POP JUMP JUMPDEST PUSH1 0x0 PUSH1 0x20 DUP3 ADD SWAP1 POP DUP2 DUP2 SUB PUSH1 0x0 DUP4 ADD MSTORE PUSH2 0x109B DUP2 PUSH2 0x105F JUMP JUMPDEST SWAP1 POP SWAP2 SWAP1 POP JUMP JUMPDEST PUSH32 0x4552524F5220385F4F776E65727320617265206E6F7420616C6C6F7765642074 PUSH1 0x0 DUP3 ADD MSTORE PUSH32 0x6F20766F7465206F6E2061207472616E73666572207265717565737420746861 PUSH1 0x20 DUP3 ADD MSTORE PUSH32 0x742068617320616C7265616479206265656E2073656E742E0000000000000000 PUSH1 0x40 DUP3 ADD MSTORE POP JUMP JUMPDEST PUSH1 0x0 PUSH2 0x1124 PUSH1 0x58 DUP4 PUSH2 0xE37 JUMP JUMPDEST SWAP2 POP PUSH2 0x112F DUP3 PUSH2 0x10A2 JUMP JUMPDEST PUSH1 0x60 DUP3 ADD SWAP1 POP SWAP2 SWAP1 POP JUMP JUMPDEST PUSH1 0x0 PUSH1 0x20 DUP3 ADD SWAP1 POP DUP2 DUP2 SUB PUSH1 0x0 DUP4 ADD MSTORE PUSH2 0x1153 DUP2 PUSH2 0x1117 JUMP JUMPDEST SWAP1 POP SWAP2 SWAP1 POP JUMP JUMPDEST PUSH1 0x0 PUSH1 0x60 DUP3 ADD SWAP1 POP PUSH2 0x116F PUSH1 0x0 DUP4 ADD DUP7 PUSH2 0xB77 JUMP JUMPDEST PUSH2 0x117C PUSH1 0x20 DUP4 ADD DUP6 PUSH2 0xB77 JUMP JUMPDEST PUSH2 0x1189 PUSH1 0x40 DUP4 ADD DUP5 PUSH2 0xB4D JUMP JUMPDEST SWAP5 SWAP4 POP POP POP POP JUMP JUMPDEST PUSH1 0x0 PUSH2 0x119C DUP3 PUSH2 0xAB8 JUMP JUMPDEST SWAP2 POP PUSH2 0x11A7 DUP4 PUSH2 0xAB8 JUMP JUMPDEST SWAP3 POP DUP3 PUSH32 0xFFFFFFFFFFFFFFFFFFFFFFFFFFFFFFFFFFFFFFFFFFFFFFFFFFFFFFFFFFFFFFFF SUB DUP3 GT ISZERO PUSH2 0x11DC JUMPI PUSH2 0x11DB PUSH2 0xDC0 JUMP JUMPDEST JUMPDEST DUP3 DUP3 ADD SWAP1 POP SWAP3 SWAP2 POP POP JUMP INVALID LOG2 PUSH5 0x6970667358 0x22 SLT KECCAK256 0xF9 0xB5 DUP15 SWAP4 PUSH6 0x1AA0340D0B6B 0xB3 0xE8 SWAP11 0x2B PUSH6 0xC0E24C8BD869 DUP15 CALLDATALOAD 0xA6 LOG4 SWAP4 DIFFICULTY 0xAB 0xC6 PUSH2 0xE964 PUSH20 0x6F6C634300080D00330000000000000000000000 "
				},
				"gasEstimates": {
					"creation": {
						"codeDepositCost": "927400",
						"executionCost": "infinite",
						"totalCost": "infinite"
					},
					"external": {
						"approve(uint256)": "infinite",
						"createTransfer(uint256,address)": "infinite",
						"deposit()": "infinite",
						"getBalance()": "2526",
						"getTransferRequests()": "infinite",
						"owners(uint256)": "4934"
					}
				},
				"methodIdentifiers": {
					"approve(uint256)": "b759f954",
					"createTransfer(uint256,address)": "4c12fa47",
					"deposit()": "d0e30db0",
					"getBalance()": "12065fe0",
					"getTransferRequests()": "a04ef145",
					"owners(uint256)": "025e7c27"
				}
			},
			"storageLayout": {
				"storage": [
					{
						"astId": 5,
						"contract": "contracts/MultiSIG_Wallet.sol:Multisig_Wallet",
						"label": "limit",
						"offset": 0,
						"slot": "0",
						"type": "t_uint256"
					},
					{
						"astId": 8,
						"contract": "contracts/MultiSIG_Wallet.sol:Multisig_Wallet",
						"label": "owners",
						"offset": 0,
						"slot": "1",
						"type": "t_array(t_address)dyn_storage"
					},
					{
						"astId": 12,
						"contract": "contracts/MultiSIG_Wallet.sol:Multisig_Wallet",
						"label": "transferRequests",
						"offset": 0,
						"slot": "2",
						"type": "t_array(t_struct(Transfer)89_storage)dyn_storage"
					},
					{
						"astId": 72,
						"contract": "contracts/MultiSIG_Wallet.sol:Multisig_Wallet",
						"label": "balance",
						"offset": 0,
						"slot": "3",
						"type": "t_mapping(t_address,t_uint256)"
					},
					{
						"astId": 78,
						"contract": "contracts/MultiSIG_Wallet.sol:Multisig_Wallet",
						"label": "approvals",
						"offset": 0,
						"slot": "4",
						"type": "t_mapping(t_address,t_mapping(t_uint256,t_bool))"
					}
				],
				"types": {
					"t_address": {
						"encoding": "inplace",
						"label": "address",
						"numberOfBytes": "20"
					},
					"t_address_payable": {
						"encoding": "inplace",
						"label": "address payable",
						"numberOfBytes": "20"
					},
					"t_array(t_address)dyn_storage": {
						"base": "t_address",
						"encoding": "dynamic_array",
						"label": "address[]",
						"numberOfBytes": "32"
					},
					"t_array(t_struct(Transfer)89_storage)dyn_storage": {
						"base": "t_struct(Transfer)89_storage",
						"encoding": "dynamic_array",
						"label": "struct Multisig_Wallet.Transfer[]",
						"numberOfBytes": "32"
					},
					"t_bool": {
						"encoding": "inplace",
						"label": "bool",
						"numberOfBytes": "1"
					},
					"t_mapping(t_address,t_mapping(t_uint256,t_bool))": {
						"encoding": "mapping",
						"key": "t_address",
						"label": "mapping(address => mapping(uint256 => bool))",
						"numberOfBytes": "32",
						"value": "t_mapping(t_uint256,t_bool)"
					},
					"t_mapping(t_address,t_uint256)": {
						"encoding": "mapping",
						"key": "t_address",
						"label": "mapping(address => uint256)",
						"numberOfBytes": "32",
						"value": "t_uint256"
					},
					"t_mapping(t_uint256,t_bool)": {
						"encoding": "mapping",
						"key": "t_uint256",
						"label": "mapping(uint256 => bool)",
						"numberOfBytes": "32",
						"value": "t_bool"
					},
					"t_struct(Transfer)89_storage": {
						"encoding": "inplace",
						"label": "struct Multisig_Wallet.Transfer",
						"members": [
							{
								"astId": 80,
								"contract": "contracts/MultiSIG_Wallet.sol:Multisig_Wallet",
								"label": "amount",
								"offset": 0,
								"slot": "0",
								"type": "t_uint256"
							},
							{
								"astId": 82,
								"contract": "contracts/MultiSIG_Wallet.sol:Multisig_Wallet",
								"label": "receiver",
								"offset": 0,
								"slot": "1",
								"type": "t_address_payable"
							},
							{
								"astId": 84,
								"contract": "contracts/MultiSIG_Wallet.sol:Multisig_Wallet",
								"label": "approvals",
								"offset": 0,
								"slot": "2",
								"type": "t_uint256"
							},
							{
								"astId": 86,
								"contract": "contracts/MultiSIG_Wallet.sol:Multisig_Wallet",
								"label": "hasBeenSent",
								"offset": 0,
								"slot": "3",
								"type": "t_bool"
							},
							{
								"astId": 88,
								"contract": "contracts/MultiSIG_Wallet.sol:Multisig_Wallet",
								"label": "id",
								"offset": 0,
								"slot": "4",
								"type": "t_uint256"
							}
						],
						"numberOfBytes": "160"
					},
					"t_uint256": {
						"encoding": "inplace",
						"label": "uint256",
						"numberOfBytes": "32"
					}
				}
			},
			"userdoc": {
				"kind": "user",
				"methods": {},
				"version": 1
			}
		}
	}
}