{
	"contracts/Memory-And-Storage.sol": {
		"MemoryAndStorage": {
			"abi": [
				{
					"inputs": [
						{
							"internalType": "uint256",
							"name": "id",
							"type": "uint256"
						},
						{
							"internalType": "uint256",
							"name": "balance",
							"type": "uint256"
						}
					],
					"name": "addUser",
					"outputs": [],
					"stateMutability": "nonpayable",
					"type": "function"
				},
				{
					"inputs": [
						{
							"internalType": "uint256",
							"name": "id",
							"type": "uint256"
						}
					],
					"name": "getBalance",
					"outputs": [
						{
							"internalType": "uint256",
							"name": "",
							"type": "uint256"
						}
					],
					"stateMutability": "view",
					"type": "function"
				},
				{
					"inputs": [
						{
							"internalType": "uint256",
							"name": "id",
							"type": "uint256"
						},
						{
							"internalType": "uint256",
							"name": "balance",
							"type": "uint256"
						}
					],
					"name": "updateBalance",
					"outputs": [],
					"stateMutability": "nonpayable",
					"type": "function"
				}
			],
			"devdoc": {
				"kind": "dev",
				"methods": {},
				"version": 1
			},
			"evm": {
				"assembly": "    /* \"contracts/Memory-And-Storage.sol\":24:513  contract MemoryAndStorage {\r... */\n  mstore(0x40, 0x80)\n  callvalue\n  dup1\n  iszero\n  tag_1\n  jumpi\n  0x00\n  dup1\n  revert\ntag_1:\n  pop\n  dataSize(sub_0)\n  dup1\n  dataOffset(sub_0)\n  0x00\n  codecopy\n  0x00\n  return\nstop\n\nsub_0: assembly {\n        /* \"contracts/Memory-And-Storage.sol\":24:513  contract MemoryAndStorage {\r... */\n      mstore(0x40, 0x80)\n      callvalue\n      dup1\n      iszero\n      tag_1\n      jumpi\n      0x00\n      dup1\n      revert\n    tag_1:\n      pop\n      jumpi(tag_2, lt(calldatasize, 0x04))\n      shr(0xe0, calldataload(0x00))\n      dup1\n      0x1e010439\n      eq\n      tag_3\n      jumpi\n      dup1\n      0x58453fef\n      eq\n      tag_4\n      jumpi\n      dup1\n      0xe00c04ac\n      eq\n      tag_5\n      jumpi\n    tag_2:\n      0x00\n      dup1\n      revert\n        /* \"contracts/Memory-And-Storage.sol\":409:508  function getBalance(uint id) view public returns (uint) {\r... */\n    tag_3:\n      tag_6\n      0x04\n      dup1\n      calldatasize\n      sub\n      0x20\n      dup2\n      lt\n      iszero\n      tag_7\n      jumpi\n      0x00\n      dup1\n      revert\n    tag_7:\n      dup2\n      add\n      swap1\n      dup1\n      dup1\n      calldataload\n      swap1\n      0x20\n      add\n      swap1\n      swap3\n      swap2\n      swap1\n      pop\n      pop\n      pop\n      tag_8\n      jump\t// in\n    tag_6:\n      mload(0x40)\n      dup1\n      dup3\n      dup2\n      mstore\n      0x20\n      add\n      swap2\n      pop\n      pop\n      mload(0x40)\n      dup1\n      swap2\n      sub\n      swap1\n      return\n        /* \"contracts/Memory-And-Storage.sol\":266:401  function updateBalance(uint id, uint balance) public {\r... */\n    tag_4:\n      tag_9\n      0x04\n      dup1\n      calldatasize\n      sub\n      0x40\n      dup2\n      lt\n      iszero\n      tag_10\n      jumpi\n      0x00\n      dup1\n      revert\n    tag_10:\n      dup2\n      add\n      swap1\n      dup1\n      dup1\n      calldataload\n      swap1\n      0x20\n      add\n      swap1\n      swap3\n      swap2\n      swap1\n      dup1\n      calldataload\n      swap1\n      0x20\n      add\n      swap1\n      swap3\n      swap2\n      swap1\n      pop\n      pop\n      pop\n      tag_11\n      jump\t// in\n    tag_9:\n      stop\n        /* \"contracts/Memory-And-Storage.sol\":163:258  function addUser(uint id, uint balance) public {\r... */\n    tag_5:\n      tag_12\n      0x04\n      dup1\n      calldatasize\n      sub\n      0x40\n      dup2\n      lt\n      iszero\n      tag_13\n      jumpi\n      0x00\n      dup1\n      revert\n    tag_13:\n      dup2\n      add\n      swap1\n      dup1\n      dup1\n      calldataload\n      swap1\n      0x20\n      add\n      swap1\n      swap3\n      swap2\n      swap1\n      dup1\n      calldataload\n      swap1\n      0x20\n      add\n      swap1\n      swap3\n      swap2\n      swap1\n      pop\n      pop\n      pop\n      tag_14\n      jump\t// in\n    tag_12:\n      stop\n        /* \"contracts/Memory-And-Storage.sol\":409:508  function getBalance(uint id) view public returns (uint) {\r... */\n    tag_8:\n        /* \"contracts/Memory-And-Storage.sol\":459:463  uint */\n      0x00\n        /* \"contracts/Memory-And-Storage.sol\":483:488  users */\n      dup1\n        /* \"contracts/Memory-And-Storage.sol\":483:492  users[id] */\n      0x00\n        /* \"contracts/Memory-And-Storage.sol\":489:491  id */\n      dup4\n        /* \"contracts/Memory-And-Storage.sol\":483:492  users[id] */\n      dup2\n      mstore\n      0x20\n      add\n      swap1\n      dup2\n      mstore\n      0x20\n      add\n      0x00\n      keccak256\n        /* \"contracts/Memory-And-Storage.sol\":483:500  users[id].balance */\n      0x01\n      add\n      sload\n        /* \"contracts/Memory-And-Storage.sol\":476:500  return users[id].balance */\n      swap1\n      pop\n        /* \"contracts/Memory-And-Storage.sol\":409:508  function getBalance(uint id) view public returns (uint) {\r... */\n      swap2\n      swap1\n      pop\n      jump\t// out\n        /* \"contracts/Memory-And-Storage.sol\":266:401  function updateBalance(uint id, uint balance) public {\r... */\n    tag_11:\n        /* \"contracts/Memory-And-Storage.sol\":331:347  User memory user */\n      tag_17\n      tag_18\n      jump\t// in\n    tag_17:\n        /* \"contracts/Memory-And-Storage.sol\":350:355  users */\n      0x00\n        /* \"contracts/Memory-And-Storage.sol\":350:359  users[id] */\n      dup1\n        /* \"contracts/Memory-And-Storage.sol\":356:358  id */\n      dup5\n        /* \"contracts/Memory-And-Storage.sol\":350:359  users[id] */\n      dup2\n      mstore\n      0x20\n      add\n      swap1\n      dup2\n      mstore\n      0x20\n      add\n      0x00\n      keccak256\n        /* \"contracts/Memory-And-Storage.sol\":331:359  User memory user = users[id] */\n      mload(0x40)\n      dup1\n      0x40\n      add\n      0x40\n      mstore\n      swap1\n      dup2\n      0x00\n      dup3\n      add\n      sload\n      dup2\n      mstore\n      0x20\n      add\n      0x01\n      dup3\n      add\n      sload\n      dup2\n      mstore\n      pop\n      pop\n      swap1\n      pop\n        /* \"contracts/Memory-And-Storage.sol\":386:393  balance */\n      dup2\n        /* \"contracts/Memory-And-Storage.sol\":371:375  user */\n      dup2\n        /* \"contracts/Memory-And-Storage.sol\":371:383  user.balance */\n      0x20\n      add\n        /* \"contracts/Memory-And-Storage.sol\":371:393  user.balance = balance */\n      dup2\n      dup2\n      mstore\n      pop\n      pop\n        /* \"contracts/Memory-And-Storage.sol\":266:401  function updateBalance(uint id, uint balance) public {\r... */\n      pop\n      pop\n      pop\n      jump\t// out\n        /* \"contracts/Memory-And-Storage.sol\":163:258  function addUser(uint id, uint balance) public {\r... */\n    tag_14:\n        /* \"contracts/Memory-And-Storage.sol\":233:250  User(id, balance) */\n      mload(0x40)\n      dup1\n      0x40\n      add\n      0x40\n      mstore\n      dup1\n        /* \"contracts/Memory-And-Storage.sol\":238:240  id */\n      dup4\n        /* \"contracts/Memory-And-Storage.sol\":233:250  User(id, balance) */\n      dup2\n      mstore\n      0x20\n      add\n        /* \"contracts/Memory-And-Storage.sol\":242:249  balance */\n      dup3\n        /* \"contracts/Memory-And-Storage.sol\":233:250  User(id, balance) */\n      dup2\n      mstore\n      pop\n        /* \"contracts/Memory-And-Storage.sol\":221:226  users */\n      0x00\n        /* \"contracts/Memory-And-Storage.sol\":221:230  users[id] */\n      dup1\n        /* \"contracts/Memory-And-Storage.sol\":227:229  id */\n      dup5\n        /* \"contracts/Memory-And-Storage.sol\":221:230  users[id] */\n      dup2\n      mstore\n      0x20\n      add\n      swap1\n      dup2\n      mstore\n      0x20\n      add\n      0x00\n      keccak256\n        /* \"contracts/Memory-And-Storage.sol\":221:250  users[id] = User(id, balance) */\n      0x00\n      dup3\n      add\n      mload\n      dup2\n      0x00\n      add\n      sstore\n      0x20\n      dup3\n      add\n      mload\n      dup2\n      0x01\n      add\n      sstore\n      swap1\n      pop\n      pop\n        /* \"contracts/Memory-And-Storage.sol\":163:258  function addUser(uint id, uint balance) public {\r... */\n      pop\n      pop\n      jump\t// out\n    tag_18:\n      mload(0x40)\n      dup1\n      0x40\n      add\n      0x40\n      mstore\n      dup1\n      0x00\n      dup2\n      mstore\n      0x20\n      add\n      0x00\n      dup2\n      mstore\n      pop\n      swap1\n      jump\t// out\n\n    auxdata: 0xa264697066735822122031ca9c1c65485c3ad126bba916cd7c179950bdd360b46dc43cebc2589fc9f30064736f6c63430007050033\n}\n",
				"bytecode": {
					"linkReferences": {},
					"object": "608060405234801561001057600080fd5b506101f3806100206000396000f3fe608060405234801561001057600080fd5b50600436106100415760003560e01c80631e0104391461004657806358453fef14610088578063e00c04ac146100c0575b600080fd5b6100726004803603602081101561005c57600080fd5b81019080803590602001909291905050506100f8565b6040518082815260200191505060405180910390f35b6100be6004803603604081101561009e57600080fd5b810190808035906020019092919080359060200190929190505050610117565b005b6100f6600480360360408110156100d657600080fd5b810190808035906020019092919080359060200190929190505050610161565b005b6000806000838152602001908152602001600020600101549050919050565b61011f6101a3565b60008084815260200190815260200160002060405180604001604052908160008201548152602001600182015481525050905081816020018181525050505050565b60405180604001604052808381526020018281525060008084815260200190815260200160002060008201518160000155602082015181600101559050505050565b60405180604001604052806000815260200160008152509056fea264697066735822122031ca9c1c65485c3ad126bba916cd7c179950bdd360b46dc43cebc2589fc9f30064736f6c63430007050033",
					"opcodes": "PUSH1 0x80 PUSH1 0x40 MSTORE CALLVALUE DUP1 ISZERO PUSH2 0x10 JUMPI PUSH1 0x0 DUP1 REVERT JUMPDEST POP PUSH2 0x1F3 DUP1 PUSH2 0x20 PUSH1 0x0 CODECOPY PUSH1 0x0 RETURN INVALID PUSH1 0x80 PUSH1 0x40 MSTORE CALLVALUE DUP1 ISZERO PUSH2 0x10 JUMPI PUSH1 0x0 DUP1 REVERT JUMPDEST POP PUSH1 0x4 CALLDATASIZE LT PUSH2 0x41 JUMPI PUSH1 0x0 CALLDATALOAD PUSH1 0xE0 SHR DUP1 PUSH4 0x1E010439 EQ PUSH2 0x46 JUMPI DUP1 PUSH4 0x58453FEF EQ PUSH2 0x88 JUMPI DUP1 PUSH4 0xE00C04AC EQ PUSH2 0xC0 JUMPI JUMPDEST PUSH1 0x0 DUP1 REVERT JUMPDEST PUSH2 0x72 PUSH1 0x4 DUP1 CALLDATASIZE SUB PUSH1 0x20 DUP2 LT ISZERO PUSH2 0x5C JUMPI PUSH1 0x0 DUP1 REVERT JUMPDEST DUP2 ADD SWAP1 DUP1 DUP1 CALLDATALOAD SWAP1 PUSH1 0x20 ADD SWAP1 SWAP3 SWAP2 SWAP1 POP POP POP PUSH2 0xF8 JUMP JUMPDEST PUSH1 0x40 MLOAD DUP1 DUP3 DUP2 MSTORE PUSH1 0x20 ADD SWAP2 POP POP PUSH1 0x40 MLOAD DUP1 SWAP2 SUB SWAP1 RETURN JUMPDEST PUSH2 0xBE PUSH1 0x4 DUP1 CALLDATASIZE SUB PUSH1 0x40 DUP2 LT ISZERO PUSH2 0x9E JUMPI PUSH1 0x0 DUP1 REVERT JUMPDEST DUP2 ADD SWAP1 DUP1 DUP1 CALLDATALOAD SWAP1 PUSH1 0x20 ADD SWAP1 SWAP3 SWAP2 SWAP1 DUP1 CALLDATALOAD SWAP1 PUSH1 0x20 ADD SWAP1 SWAP3 SWAP2 SWAP1 POP POP POP PUSH2 0x117 JUMP JUMPDEST STOP JUMPDEST PUSH2 0xF6 PUSH1 0x4 DUP1 CALLDATASIZE SUB PUSH1 0x40 DUP2 LT ISZERO PUSH2 0xD6 JUMPI PUSH1 0x0 DUP1 REVERT JUMPDEST DUP2 ADD SWAP1 DUP1 DUP1 CALLDATALOAD SWAP1 PUSH1 0x20 ADD SWAP1 SWAP3 SWAP2 SWAP1 DUP1 CALLDATALOAD SWAP1 PUSH1 0x20 ADD SWAP1 SWAP3 SWAP2 SWAP1 POP POP POP PUSH2 0x161 JUMP JUMPDEST STOP JUMPDEST PUSH1 0x0 DUP1 PUSH1 0x0 DUP4 DUP2 MSTORE PUSH1 0x20 ADD SWAP1 DUP2 MSTORE PUSH1 0x20 ADD PUSH1 0x0 KECCAK256 PUSH1 0x1 ADD SLOAD SWAP1 POP SWAP2 SWAP1 POP JUMP JUMPDEST PUSH2 0x11F PUSH2 0x1A3 JUMP JUMPDEST PUSH1 0x0 DUP1 DUP5 DUP2 MSTORE PUSH1 0x20 ADD SWAP1 DUP2 MSTORE PUSH1 0x20 ADD PUSH1 0x0 KECCAK256 PUSH1 0x40 MLOAD DUP1 PUSH1 0x40 ADD PUSH1 0x40 MSTORE SWAP1 DUP2 PUSH1 0x0 DUP3 ADD SLOAD DUP2 MSTORE PUSH1 0x20 ADD PUSH1 0x1 DUP3 ADD SLOAD DUP2 MSTORE POP POP SWAP1 POP DUP2 DUP2 PUSH1 0x20 ADD DUP2 DUP2 MSTORE POP POP POP POP POP JUMP JUMPDEST PUSH1 0x40 MLOAD DUP1 PUSH1 0x40 ADD PUSH1 0x40 MSTORE DUP1 DUP4 DUP2 MSTORE PUSH1 0x20 ADD DUP3 DUP2 MSTORE POP PUSH1 0x0 DUP1 DUP5 DUP2 MSTORE PUSH1 0x20 ADD SWAP1 DUP2 MSTORE PUSH1 0x20 ADD PUSH1 0x0 KECCAK256 PUSH1 0x0 DUP3 ADD MLOAD DUP2 PUSH1 0x0 ADD SSTORE PUSH1 0x20 DUP3 ADD MLOAD DUP2 PUSH1 0x1 ADD SSTORE SWAP1 POP POP POP POP JUMP JUMPDEST PUSH1 0x40 MLOAD DUP1 PUSH1 0x40 ADD PUSH1 0x40 MSTORE DUP1 PUSH1 0x0 DUP2 MSTORE PUSH1 0x20 ADD PUSH1 0x0 DUP2 MSTORE POP SWAP1 JUMP INVALID LOG2 PUSH5 0x6970667358 0x22 SLT KECCAK256 BALANCE 0xCA SWAP13 SHR PUSH6 0x485C3AD126BB 0xA9 AND 0xCD PUSH29 0x179950BDD360B46DC43CEBC2589FC9F30064736F6C6343000705003300 "
				},
				"gasEstimates": {
					"creation": {
						"codeDepositCost": "99800",
						"executionCost": "147",
						"totalCost": "99947"
					},
					"external": {
						"addUser(uint256,uint256)": "40468",
						"getBalance(uint256)": "1162",
						"updateBalance(uint256,uint256)": "2129"
					}
				},
				"methodIdentifiers": {
					"addUser(uint256,uint256)": "e00c04ac",
					"getBalance(uint256)": "1e010439",
					"updateBalance(uint256,uint256)": "58453fef"
				}
			},
			"storageLayout": {
				"storage": [
					{
						"astId": 5,
						"contract": "contracts/Memory-And-Storage.sol:MemoryAndStorage",
						"label": "users",
						"offset": 0,
						"slot": "0",
						"type": "t_mapping(t_uint256,t_struct(User)10_storage)"
					}
				],
				"types": {
					"t_mapping(t_uint256,t_struct(User)10_storage)": {
						"encoding": "mapping",
						"key": "t_uint256",
						"label": "mapping(uint256 => struct MemoryAndStorage.User)",
						"numberOfBytes": "32",
						"value": "t_struct(User)10_storage"
					},
					"t_struct(User)10_storage": {
						"encoding": "inplace",
						"label": "struct MemoryAndStorage.User",
						"members": [
							{
								"astId": 7,
								"contract": "contracts/Memory-And-Storage.sol:MemoryAndStorage",
								"label": "id",
								"offset": 0,
								"slot": "0",
								"type": "t_uint256"
							},
							{
								"astId": 9,
								"contract": "contracts/Memory-And-Storage.sol:MemoryAndStorage",
								"label": "balance",
								"offset": 0,
								"slot": "1",
								"type": "t_uint256"
							}
						],
						"numberOfBytes": "64"
					},
					"t_uint256": {
						"encoding": "inplace",
						"label": "uint256",
						"numberOfBytes": "32"
					}
				}
			},
			"userdoc": {
				"kind": "user",
				"methods": {},
				"version": 1
			}
		}
	}
}