{
	"contracts/Bank_MultiSIG.sol": {
		"Multisig_Wallet": {
			"abi": [
				{
					"anonymous": false,
					"inputs": [
						{
							"indexed": false,
							"internalType": "address",
							"name": "owner",
							"type": "address"
						}
					],
					"name": "OwnerAdded",
					"type": "event"
				},
				{
					"anonymous": false,
					"inputs": [
						{
							"indexed": false,
							"internalType": "address",
							"name": "owner",
							"type": "address"
						}
					],
					"name": "OwnerRemoved",
					"type": "event"
				},
				{
					"anonymous": false,
					"inputs": [
						{
							"indexed": true,
							"internalType": "uint256",
							"name": "amount",
							"type": "uint256"
						},
						{
							"indexed": true,
							"internalType": "address",
							"name": "depositedTo",
							"type": "address"
						}
					],
					"name": "deposited",
					"type": "event"
				},
				{
					"anonymous": false,
					"inputs": [
						{
							"indexed": true,
							"internalType": "address",
							"name": "from",
							"type": "address"
						},
						{
							"indexed": true,
							"internalType": "address",
							"name": "to",
							"type": "address"
						},
						{
							"indexed": true,
							"internalType": "uint256",
							"name": "amount",
							"type": "uint256"
						}
					],
					"name": "transferedAmount",
					"type": "event"
				},
				{
					"inputs": [
						{
							"internalType": "address",
							"name": "_owner",
							"type": "address"
						}
					],
					"name": "addOwners",
					"outputs": [],
					"stateMutability": "nonpayable",
					"type": "function"
				},
				{
					"inputs": [
						{
							"internalType": "int256",
							"name": "_approve",
							"type": "int256"
						}
					],
					"name": "approveIt",
					"outputs": [
						{
							"internalType": "uint256",
							"name": "",
							"type": "uint256"
						}
					],
					"stateMutability": "nonpayable",
					"type": "function"
				},
				{
					"inputs": [],
					"name": "deposit",
					"outputs": [
						{
							"internalType": "uint256",
							"name": "",
							"type": "uint256"
						}
					],
					"stateMutability": "payable",
					"type": "function"
				},
				{
					"inputs": [],
					"name": "getBalance",
					"outputs": [
						{
							"internalType": "uint256",
							"name": "",
							"type": "uint256"
						}
					],
					"stateMutability": "view",
					"type": "function"
				},
				{
					"inputs": [],
					"name": "getNumApprovals",
					"outputs": [
						{
							"internalType": "uint256",
							"name": "",
							"type": "uint256"
						}
					],
					"stateMutability": "view",
					"type": "function"
				},
				{
					"inputs": [
						{
							"internalType": "address",
							"name": "_owner",
							"type": "address"
						}
					],
					"name": "isOwner",
					"outputs": [
						{
							"internalType": "bool",
							"name": "",
							"type": "bool"
						}
					],
					"stateMutability": "view",
					"type": "function"
				},
				{
					"inputs": [
						{
							"internalType": "address",
							"name": "_owner",
							"type": "address"
						}
					],
					"name": "removeOwners",
					"outputs": [],
					"stateMutability": "nonpayable",
					"type": "function"
				},
				{
					"inputs": [
						{
							"internalType": "uint256",
							"name": "_number",
							"type": "uint256"
						}
					],
					"name": "setNumApprovals",
					"outputs": [],
					"stateMutability": "nonpayable",
					"type": "function"
				},
				{
					"inputs": [
						{
							"internalType": "address",
							"name": "recipient",
							"type": "address"
						},
						{
							"internalType": "uint256",
							"name": "amount",
							"type": "uint256"
						}
					],
					"name": "transfer",
					"outputs": [],
					"stateMutability": "nonpayable",
					"type": "function"
				},
				{
					"inputs": [
						{
							"internalType": "uint256",
							"name": "amount",
							"type": "uint256"
						}
					],
					"name": "withdraw",
					"outputs": [
						{
							"internalType": "uint256",
							"name": "",
							"type": "uint256"
						}
					],
					"stateMutability": "nonpayable",
					"type": "function"
				}
			],
			"devdoc": {
				"author": "Superior Blocks",
				"details": "Multisig Wallet Smart Contract where multiple “signatures” or approvals  are needed for an outgoing transfer to take place. The wallet requires at  least 2 to sign any transfer before it is valid. Anyone can deposit funds into  this wallet. But as soon as we want to spend funds, it requires 2/3 approvals",
				"kind": "dev",
				"methods": {
					"addOwners(address)": {
						"details": "A method to add an address to the Ownerlist",
						"params": {
							"_owner": "The address to add as a owner."
						}
					},
					"deposit()": {
						"details": "A method to make a deposit.",
						"returns": {
							"_0": "balance of the sender/owner."
						}
					},
					"getBalance()": {
						"details": "A method to get the sender's/owner's balance.",
						"returns": {
							"_0": "balance of the sender/owner."
						}
					},
					"getNumApprovals()": {
						"details": "A method that gets the required number of approvals.",
						"returns": {
							"_0": "numApprovals Number of approvals required."
						}
					},
					"isOwner(address)": {
						"details": "A method to verify whether an address is a owner on the Ownerlist",
						"params": {
							"_owner": "The address to verify."
						},
						"returns": {
							"_0": "Whether the address is in the Ownerlist."
						}
					},
					"removeOwners(address)": {
						"details": "A method to remove a owner from the Ownerlist",
						"params": {
							"_owner": "The address to remove as a owner."
						}
					},
					"setNumApprovals(uint256)": {
						"details": "A method that sets the required number of approvals setter function.",
						"params": {
							"_number": "The number of approvals required."
						}
					},
					"transfer(address,uint256)": {
						"details": "A method to make a transfer.  The sender must be the owner, have sufficient balance, and cannot be the recipient.  The method calls _transfer",
						"params": {
							"recipient": "The address of the recipient.  amount The amount to be  transferred from owner and sent to recipient."
						}
					},
					"withdraw(uint256)": {
						"details": "A method to make a withdrawal only if there is sufficient balance.",
						"params": {
							"amount": "The amount to withdraw."
						},
						"returns": {
							"_0": "balance of the sender/owner."
						}
					}
				},
				"title": "Multisig Wallet",
				"version": 1
			},
			"evm": {
				"assembly": "    /* \"contracts/Bank_MultiSIG.sol\":579:4437  contract Multisig_Wallet is Ownable, Ownerlist {... */\n  mstore(0x40, 0x80)\n  callvalue\n  dup1\n  iszero\n  tag_1\n  jumpi\n  0x00\n  dup1\n  revert\ntag_1:\n  pop\n    /* \"contracts/Ownable.sol\":448:458  msg.sender */\n  caller\n    /* \"contracts/Ownable.sol\":440:445  owner */\n  0x00\n  dup1\n    /* \"contracts/Ownable.sol\":440:458  owner = msg.sender */\n  0x0100\n  exp\n  dup2\n  sload\n  dup2\n  0xffffffffffffffffffffffffffffffffffffffff\n  mul\n  not\n  and\n  swap1\n  dup4\n  0xffffffffffffffffffffffffffffffffffffffff\n  and\n  mul\n  or\n  swap1\n  sstore\n  pop\n    /* \"contracts/Bank_MultiSIG.sol\":579:4437  contract Multisig_Wallet is Ownable, Ownerlist {... */\n  dataSize(sub_0)\n  dup1\n  dataOffset(sub_0)\n  0x00\n  codecopy\n  0x00\n  return\nstop\n\nsub_0: assembly {\n        /* \"contracts/Bank_MultiSIG.sol\":579:4437  contract Multisig_Wallet is Ownable, Ownerlist {... */\n      mstore(0x40, 0x80)\n      jumpi(tag_1, lt(calldatasize, 0x04))\n      shr(0xe0, calldataload(0x00))\n      dup1\n      0x4ecd7b0a\n      gt\n      tag_12\n      jumpi\n      dup1\n      0x4ecd7b0a\n      eq\n      tag_7\n      jumpi\n      dup1\n      0x5f3b1f3b\n      eq\n      tag_8\n      jumpi\n      dup1\n      0xa9059cbb\n      eq\n      tag_9\n      jumpi\n      dup1\n      0xb64c14fe\n      eq\n      tag_10\n      jumpi\n      dup1\n      0xd0e30db0\n      eq\n      tag_11\n      jumpi\n      jump(tag_1)\n    tag_12:\n      dup1\n      0x12065fe0\n      eq\n      tag_2\n      jumpi\n      dup1\n      0x1cd9aa0e\n      eq\n      tag_3\n      jumpi\n      dup1\n      0x2d442e04\n      eq\n      tag_4\n      jumpi\n      dup1\n      0x2e1a7d4d\n      eq\n      tag_5\n      jumpi\n      dup1\n      0x2f54bf6e\n      eq\n      tag_6\n      jumpi\n    tag_1:\n      0x00\n      dup1\n      revert\n        /* \"contracts/Bank_MultiSIG.sol\":2406:2499  function getBalance() public view returns (uint){... */\n    tag_2:\n      callvalue\n      dup1\n      iszero\n      tag_13\n      jumpi\n      0x00\n      dup1\n      revert\n    tag_13:\n      pop\n      tag_14\n      tag_15\n      jump\t// in\n    tag_14:\n      mload(0x40)\n      tag_16\n      swap2\n      swap1\n      tag_17\n      jump\t// in\n    tag_16:\n      mload(0x40)\n      dup1\n      swap2\n      sub\n      swap1\n      return\n        /* \"contracts/Bank_MultiSIG.sol\":1761:1851  function getNumApprovals() public view returns(uint){... */\n    tag_3:\n      callvalue\n      dup1\n      iszero\n      tag_18\n      jumpi\n      0x00\n      dup1\n      revert\n    tag_18:\n      pop\n      tag_19\n      tag_20\n      jump\t// in\n    tag_19:\n      mload(0x40)\n      tag_21\n      swap2\n      swap1\n      tag_17\n      jump\t// in\n    tag_21:\n      mload(0x40)\n      dup1\n      swap2\n      sub\n      swap1\n      return\n        /* \"contracts/Bank_MultiSIG.sol\":1206:1610  function setNumApprovals(uint _number) public onlyOwner {  //not view or pure because we are changing the state of \"numApprovals\"... */\n    tag_4:\n      callvalue\n      dup1\n      iszero\n      tag_22\n      jumpi\n      0x00\n      dup1\n      revert\n    tag_22:\n      pop\n      tag_23\n      0x04\n      dup1\n      calldatasize\n      sub\n      dup2\n      add\n      swap1\n      tag_24\n      swap2\n      swap1\n      tag_25\n      jump\t// in\n    tag_24:\n      tag_26\n      jump\t// in\n    tag_23:\n      stop\n        /* \"contracts/Bank_MultiSIG.sol\":2696:2978  function withdraw(uint amount) public returns (uint){... */\n    tag_5:\n      callvalue\n      dup1\n      iszero\n      tag_27\n      jumpi\n      0x00\n      dup1\n      revert\n    tag_27:\n      pop\n      tag_28\n      0x04\n      dup1\n      calldatasize\n      sub\n      dup2\n      add\n      swap1\n      tag_29\n      swap2\n      swap1\n      tag_25\n      jump\t// in\n    tag_29:\n      tag_30\n      jump\t// in\n    tag_28:\n      mload(0x40)\n      tag_31\n      swap2\n      swap1\n      tag_17\n      jump\t// in\n    tag_31:\n      mload(0x40)\n      dup1\n      swap2\n      sub\n      swap1\n      return\n        /* \"contracts/Ownerlist.sol\":802:906  function isOwner(address _owner) public view returns(bool)... */\n    tag_6:\n      callvalue\n      dup1\n      iszero\n      tag_32\n      jumpi\n      0x00\n      dup1\n      revert\n    tag_32:\n      pop\n      tag_33\n      0x04\n      dup1\n      calldatasize\n      sub\n      dup2\n      add\n      swap1\n      tag_34\n      swap2\n      swap1\n      tag_35\n      jump\t// in\n    tag_34:\n      tag_36\n      jump\t// in\n    tag_33:\n      mload(0x40)\n      tag_37\n      swap2\n      swap1\n      tag_38\n      jump\t// in\n    tag_37:\n      mload(0x40)\n      dup1\n      swap2\n      sub\n      swap1\n      return\n        /* \"contracts/Bank_MultiSIG.sol\":4320:4434  function approveIt (int _approve) public returns (uint){... */\n    tag_7:\n      callvalue\n      dup1\n      iszero\n      tag_39\n      jumpi\n      0x00\n      dup1\n      revert\n    tag_39:\n      pop\n      tag_40\n      0x04\n      dup1\n      calldatasize\n      sub\n      dup2\n      add\n      swap1\n      tag_41\n      swap2\n      swap1\n      tag_42\n      jump\t// in\n    tag_41:\n      tag_43\n      jump\t// in\n    tag_40:\n      mload(0x40)\n      tag_44\n      swap2\n      swap1\n      tag_17\n      jump\t// in\n    tag_44:\n      mload(0x40)\n      dup1\n      swap2\n      sub\n      swap1\n      return\n        /* \"contracts/Ownerlist.sol\":1042:1278  function addOwners(address _owner) public onlyOwner ... */\n    tag_8:\n      callvalue\n      dup1\n      iszero\n      tag_45\n      jumpi\n      0x00\n      dup1\n      revert\n    tag_45:\n      pop\n      tag_46\n      0x04\n      dup1\n      calldatasize\n      sub\n      dup2\n      add\n      swap1\n      tag_47\n      swap2\n      swap1\n      tag_35\n      jump\t// in\n    tag_47:\n      tag_48\n      jump\t// in\n    tag_46:\n      stop\n        /* \"contracts/Bank_MultiSIG.sol\":3302:3981  function transfer(address recipient, uint amount) onlyOwner public {... */\n    tag_9:\n      callvalue\n      dup1\n      iszero\n      tag_49\n      jumpi\n      0x00\n      dup1\n      revert\n    tag_49:\n      pop\n      tag_50\n      0x04\n      dup1\n      calldatasize\n      sub\n      dup2\n      add\n      swap1\n      tag_51\n      swap2\n      swap1\n      tag_52\n      jump\t// in\n    tag_51:\n      tag_53\n      jump\t// in\n    tag_50:\n      stop\n        /* \"contracts/Ownerlist.sol\":1419:1656  function removeOwners(address _owner) public onlyOwner... */\n    tag_10:\n      callvalue\n      dup1\n      iszero\n      tag_54\n      jumpi\n      0x00\n      dup1\n      revert\n    tag_54:\n      pop\n      tag_55\n      0x04\n      dup1\n      calldatasize\n      sub\n      dup2\n      add\n      swap1\n      tag_56\n      swap2\n      swap1\n      tag_35\n      jump\t// in\n    tag_56:\n      tag_57\n      jump\t// in\n    tag_55:\n      stop\n        /* \"contracts/Bank_MultiSIG.sol\":1963:2276  function deposit() public payable returns (uint) { ... */\n    tag_11:\n      tag_58\n      tag_59\n      jump\t// in\n    tag_58:\n      mload(0x40)\n      tag_60\n      swap2\n      swap1\n      tag_17\n      jump\t// in\n    tag_60:\n      mload(0x40)\n      dup1\n      swap2\n      sub\n      swap1\n      return\n        /* \"contracts/Bank_MultiSIG.sol\":2406:2499  function getBalance() public view returns (uint){... */\n    tag_15:\n        /* \"contracts/Bank_MultiSIG.sol\":2449:2453  uint */\n      0x00\n        /* \"contracts/Bank_MultiSIG.sol\":2472:2479  balance */\n      0x04\n        /* \"contracts/Bank_MultiSIG.sol\":2472:2491  balance[msg.sender] */\n      0x00\n        /* \"contracts/Bank_MultiSIG.sol\":2480:2490  msg.sender */\n      caller\n        /* \"contracts/Bank_MultiSIG.sol\":2472:2491  balance[msg.sender] */\n      0xffffffffffffffffffffffffffffffffffffffff\n      and\n      0xffffffffffffffffffffffffffffffffffffffff\n      and\n      dup2\n      mstore\n      0x20\n      add\n      swap1\n      dup2\n      mstore\n      0x20\n      add\n      0x00\n      keccak256\n      sload\n        /* \"contracts/Bank_MultiSIG.sol\":2465:2491  return balance[msg.sender] */\n      swap1\n      pop\n        /* \"contracts/Bank_MultiSIG.sol\":2406:2499  function getBalance() public view returns (uint){... */\n      swap1\n      jump\t// out\n        /* \"contracts/Bank_MultiSIG.sol\":1761:1851  function getNumApprovals() public view returns(uint){... */\n    tag_20:\n        /* \"contracts/Bank_MultiSIG.sol\":1808:1812  uint */\n      0x00\n        /* \"contracts/Bank_MultiSIG.sol\":1831:1843  numApprovals */\n      sload(0x03)\n        /* \"contracts/Bank_MultiSIG.sol\":1824:1843  return numApprovals */\n      swap1\n      pop\n        /* \"contracts/Bank_MultiSIG.sol\":1761:1851  function getNumApprovals() public view returns(uint){... */\n      swap1\n      jump\t// out\n        /* \"contracts/Bank_MultiSIG.sol\":1206:1610  function setNumApprovals(uint _number) public onlyOwner {  //not view or pure because we are changing the state of \"numApprovals\"... */\n    tag_26:\n        /* \"contracts/Ownable.sol\":342:347  owner */\n      0x00\n      dup1\n      sload\n      swap1\n      0x0100\n      exp\n      swap1\n      div\n      0xffffffffffffffffffffffffffffffffffffffff\n      and\n        /* \"contracts/Ownable.sol\":328:347  msg.sender == owner */\n      0xffffffffffffffffffffffffffffffffffffffff\n      and\n        /* \"contracts/Ownable.sol\":328:338  msg.sender */\n      caller\n        /* \"contracts/Ownable.sol\":328:347  msg.sender == owner */\n      0xffffffffffffffffffffffffffffffffffffffff\n      and\n      eq\n        /* \"contracts/Ownable.sol\":320:348  require(msg.sender == owner) */\n      tag_64\n      jumpi\n      0x00\n      dup1\n      revert\n    tag_64:\n        /* \"contracts/Bank_MultiSIG.sol\":1595:1602  _number */\n      dup1\n        /* \"contracts/Bank_MultiSIG.sol\":1580:1592  numApprovals */\n      0x03\n        /* \"contracts/Bank_MultiSIG.sol\":1580:1602  numApprovals = _number */\n      dup2\n      swap1\n      sstore\n      pop\n        /* \"contracts/Bank_MultiSIG.sol\":1206:1610  function setNumApprovals(uint _number) public onlyOwner {  //not view or pure because we are changing the state of \"numApprovals\"... */\n      pop\n      jump\t// out\n        /* \"contracts/Bank_MultiSIG.sol\":2696:2978  function withdraw(uint amount) public returns (uint){... */\n    tag_30:\n        /* \"contracts/Bank_MultiSIG.sol\":2743:2747  uint */\n      0x00\n        /* \"contracts/Bank_MultiSIG.sol\":2789:2795  amount */\n      dup2\n        /* \"contracts/Bank_MultiSIG.sol\":2767:2774  balance */\n      0x04\n        /* \"contracts/Bank_MultiSIG.sol\":2767:2786  balance[msg.sender] */\n      0x00\n        /* \"contracts/Bank_MultiSIG.sol\":2775:2785  msg.sender */\n      caller\n        /* \"contracts/Bank_MultiSIG.sol\":2767:2786  balance[msg.sender] */\n      0xffffffffffffffffffffffffffffffffffffffff\n      and\n      0xffffffffffffffffffffffffffffffffffffffff\n      and\n      dup2\n      mstore\n      0x20\n      add\n      swap1\n      dup2\n      mstore\n      0x20\n      add\n      0x00\n      keccak256\n      sload\n        /* \"contracts/Bank_MultiSIG.sol\":2767:2795  balance[msg.sender]>= amount */\n      lt\n      iszero\n        /* \"contracts/Bank_MultiSIG.sol\":2759:2846  require(balance[msg.sender]>= amount,\"ERROR 1_Insufficient balance to withdraw funds.\") */\n      tag_67\n      jumpi\n      mload(0x40)\n      0x08c379a000000000000000000000000000000000000000000000000000000000\n      dup2\n      mstore\n      0x04\n      add\n      tag_68\n      swap1\n      tag_69\n      jump\t// in\n    tag_68:\n      mload(0x40)\n      dup1\n      swap2\n      sub\n      swap1\n      revert\n    tag_67:\n        /* \"contracts/Bank_MultiSIG.sol\":2865:2875  msg.sender */\n      caller\n        /* \"contracts/Bank_MultiSIG.sol\":2857:2885  payable(msg.sender).transfer */\n      0xffffffffffffffffffffffffffffffffffffffff\n      and\n        /* \"contracts/Bank_MultiSIG.sol\":2857:2893  payable(msg.sender).transfer(amount) */\n      0x08fc\n        /* \"contracts/Bank_MultiSIG.sol\":2886:2892  amount */\n      dup4\n        /* \"contracts/Bank_MultiSIG.sol\":2857:2893  payable(msg.sender).transfer(amount) */\n      swap1\n      dup2\n      iszero\n      mul\n      swap1\n      mload(0x40)\n      0x00\n      mload(0x40)\n      dup1\n      dup4\n      sub\n      dup2\n      dup6\n      dup9\n      dup9\n      call\n      swap4\n      pop\n      pop\n      pop\n      pop\n      iszero\n      dup1\n      iszero\n      tag_71\n      jumpi\n      returndatasize\n      0x00\n      dup1\n      returndatacopy\n      revert(0x00, returndatasize)\n    tag_71:\n      pop\n        /* \"contracts/Bank_MultiSIG.sol\":2927:2933  amount */\n      dup2\n        /* \"contracts/Bank_MultiSIG.sol\":2904:2911  balance */\n      0x04\n        /* \"contracts/Bank_MultiSIG.sol\":2904:2923  balance[msg.sender] */\n      0x00\n        /* \"contracts/Bank_MultiSIG.sol\":2912:2922  msg.sender */\n      caller\n        /* \"contracts/Bank_MultiSIG.sol\":2904:2923  balance[msg.sender] */\n      0xffffffffffffffffffffffffffffffffffffffff\n      and\n      0xffffffffffffffffffffffffffffffffffffffff\n      and\n      dup2\n      mstore\n      0x20\n      add\n      swap1\n      dup2\n      mstore\n      0x20\n      add\n      0x00\n      keccak256\n      0x00\n        /* \"contracts/Bank_MultiSIG.sol\":2904:2933  balance[msg.sender] -= amount */\n      dup3\n      dup3\n      sload\n      tag_72\n      swap2\n      swap1\n      tag_73\n      jump\t// in\n    tag_72:\n      swap3\n      pop\n      pop\n      dup2\n      swap1\n      sstore\n      pop\n        /* \"contracts/Bank_MultiSIG.sol\":2951:2958  balance */\n      0x04\n        /* \"contracts/Bank_MultiSIG.sol\":2951:2970  balance[msg.sender] */\n      0x00\n        /* \"contracts/Bank_MultiSIG.sol\":2959:2969  msg.sender */\n      caller\n        /* \"contracts/Bank_MultiSIG.sol\":2951:2970  balance[msg.sender] */\n      0xffffffffffffffffffffffffffffffffffffffff\n      and\n      0xffffffffffffffffffffffffffffffffffffffff\n      and\n      dup2\n      mstore\n      0x20\n      add\n      swap1\n      dup2\n      mstore\n      0x20\n      add\n      0x00\n      keccak256\n      sload\n        /* \"contracts/Bank_MultiSIG.sol\":2944:2970  return balance[msg.sender] */\n      swap1\n      pop\n        /* \"contracts/Bank_MultiSIG.sol\":2696:2978  function withdraw(uint amount) public returns (uint){... */\n      swap2\n      swap1\n      pop\n      jump\t// out\n        /* \"contracts/Ownerlist.sol\":802:906  function isOwner(address _owner) public view returns(bool)... */\n    tag_36:\n        /* \"contracts/Ownerlist.sol\":855:859  bool */\n      0x00\n        /* \"contracts/Ownerlist.sol\":884:890  owners */\n      0x01\n        /* \"contracts/Ownerlist.sol\":884:898  owners[_owner] */\n      0x00\n        /* \"contracts/Ownerlist.sol\":891:897  _owner */\n      dup4\n        /* \"contracts/Ownerlist.sol\":884:898  owners[_owner] */\n      0xffffffffffffffffffffffffffffffffffffffff\n      and\n      0xffffffffffffffffffffffffffffffffffffffff\n      and\n      dup2\n      mstore\n      0x20\n      add\n      swap1\n      dup2\n      mstore\n      0x20\n      add\n      0x00\n      keccak256\n      0x00\n      swap1\n      sload\n      swap1\n      0x0100\n      exp\n      swap1\n      div\n      0xff\n      and\n        /* \"contracts/Ownerlist.sol\":877:898  return owners[_owner] */\n      swap1\n      pop\n        /* \"contracts/Ownerlist.sol\":802:906  function isOwner(address _owner) public view returns(bool)... */\n      swap2\n      swap1\n      pop\n      jump\t// out\n        /* \"contracts/Bank_MultiSIG.sol\":4320:4434  function approveIt (int _approve) public returns (uint){... */\n    tag_43:\n        /* \"contracts/Bank_MultiSIG.sol\":4370:4374  uint */\n      0x00\n        /* \"contracts/Bank_MultiSIG.sol\":4386:4395  approvals */\n      0x02\n      0x00\n        /* \"contracts/Bank_MultiSIG.sol\":4386:4397  approvals++ */\n      dup2\n      sload\n      dup1\n      swap3\n      swap2\n      swap1\n      tag_76\n      swap1\n      tag_77\n      jump\t// in\n    tag_76:\n      swap2\n      swap1\n      pop\n      sstore\n      pop\n        /* \"contracts/Bank_MultiSIG.sol\":4416:4425  approvals */\n      sload(0x02)\n        /* \"contracts/Bank_MultiSIG.sol\":4408:4426  return (approvals) */\n      swap1\n      pop\n        /* \"contracts/Bank_MultiSIG.sol\":4320:4434  function approveIt (int _approve) public returns (uint){... */\n      swap2\n      swap1\n      pop\n      jump\t// out\n        /* \"contracts/Ownerlist.sol\":1042:1278  function addOwners(address _owner) public onlyOwner ... */\n    tag_48:\n        /* \"contracts/Ownable.sol\":342:347  owner */\n      0x00\n      dup1\n      sload\n      swap1\n      0x0100\n      exp\n      swap1\n      div\n      0xffffffffffffffffffffffffffffffffffffffff\n      and\n        /* \"contracts/Ownable.sol\":328:347  msg.sender == owner */\n      0xffffffffffffffffffffffffffffffffffffffff\n      and\n        /* \"contracts/Ownable.sol\":328:338  msg.sender */\n      caller\n        /* \"contracts/Ownable.sol\":328:347  msg.sender == owner */\n      0xffffffffffffffffffffffffffffffffffffffff\n      and\n      eq\n        /* \"contracts/Ownable.sol\":320:348  require(msg.sender == owner) */\n      tag_79\n      jumpi\n      0x00\n      dup1\n      revert\n    tag_79:\n        /* \"contracts/Ownerlist.sol\":1134:1149  isOwner(_owner) */\n      tag_81\n        /* \"contracts/Ownerlist.sol\":1142:1148  _owner */\n      dup2\n        /* \"contracts/Ownerlist.sol\":1134:1141  isOwner */\n      tag_36\n        /* \"contracts/Ownerlist.sol\":1134:1149  isOwner(_owner) */\n      jump\t// in\n    tag_81:\n        /* \"contracts/Ownerlist.sol\":1133:1149  !isOwner(_owner) */\n      iszero\n        /* \"contracts/Ownerlist.sol\":1111:1202  require(... */\n      tag_82\n      jumpi\n      mload(0x40)\n      0x08c379a000000000000000000000000000000000000000000000000000000000\n      dup2\n      mstore\n      0x04\n      add\n      tag_83\n      swap1\n      tag_84\n      jump\t// in\n    tag_83:\n      mload(0x40)\n      dup1\n      swap2\n      sub\n      swap1\n      revert\n    tag_82:\n        /* \"contracts/Ownerlist.sol\":1232:1236  true */\n      0x01\n        /* \"contracts/Ownerlist.sol\":1215:1221  owners */\n      dup1\n        /* \"contracts/Ownerlist.sol\":1215:1229  owners[_owner] */\n      0x00\n        /* \"contracts/Ownerlist.sol\":1222:1228  _owner */\n      dup4\n        /* \"contracts/Ownerlist.sol\":1215:1229  owners[_owner] */\n      0xffffffffffffffffffffffffffffffffffffffff\n      and\n      0xffffffffffffffffffffffffffffffffffffffff\n      and\n      dup2\n      mstore\n      0x20\n      add\n      swap1\n      dup2\n      mstore\n      0x20\n      add\n      0x00\n      keccak256\n      0x00\n        /* \"contracts/Ownerlist.sol\":1215:1236  owners[_owner] = true */\n      0x0100\n      exp\n      dup2\n      sload\n      dup2\n      0xff\n      mul\n      not\n      and\n      swap1\n      dup4\n      iszero\n      iszero\n      mul\n      or\n      swap1\n      sstore\n      pop\n        /* \"contracts/Ownerlist.sol\":1252:1270  OwnerAdded(_owner) */\n      0x994a936646fe87ffe4f1e469d3d6aa417d6b855598397f323de5b449f765f0c3\n        /* \"contracts/Ownerlist.sol\":1263:1269  _owner */\n      dup2\n        /* \"contracts/Ownerlist.sol\":1252:1270  OwnerAdded(_owner) */\n      mload(0x40)\n      tag_85\n      swap2\n      swap1\n      tag_86\n      jump\t// in\n    tag_85:\n      mload(0x40)\n      dup1\n      swap2\n      sub\n      swap1\n      log1\n        /* \"contracts/Ownerlist.sol\":1042:1278  function addOwners(address _owner) public onlyOwner ... */\n      pop\n      jump\t// out\n        /* \"contracts/Bank_MultiSIG.sol\":3302:3981  function transfer(address recipient, uint amount) onlyOwner public {... */\n    tag_53:\n        /* \"contracts/Ownable.sol\":342:347  owner */\n      0x00\n      dup1\n      sload\n      swap1\n      0x0100\n      exp\n      swap1\n      div\n      0xffffffffffffffffffffffffffffffffffffffff\n      and\n        /* \"contracts/Ownable.sol\":328:347  msg.sender == owner */\n      0xffffffffffffffffffffffffffffffffffffffff\n      and\n        /* \"contracts/Ownable.sol\":328:338  msg.sender */\n      caller\n        /* \"contracts/Ownable.sol\":328:347  msg.sender == owner */\n      0xffffffffffffffffffffffffffffffffffffffff\n      and\n      eq\n        /* \"contracts/Ownable.sol\":320:348  require(msg.sender == owner) */\n      tag_88\n      jumpi\n      0x00\n      dup1\n      revert\n    tag_88:\n        /* \"contracts/Bank_MultiSIG.sol\":3410:3416  amount */\n      dup1\n        /* \"contracts/Bank_MultiSIG.sol\":3388:3395  balance */\n      0x04\n        /* \"contracts/Bank_MultiSIG.sol\":3388:3407  balance[msg.sender] */\n      0x00\n        /* \"contracts/Bank_MultiSIG.sol\":3396:3406  msg.sender */\n      caller\n        /* \"contracts/Bank_MultiSIG.sol\":3388:3407  balance[msg.sender] */\n      0xffffffffffffffffffffffffffffffffffffffff\n      and\n      0xffffffffffffffffffffffffffffffffffffffff\n      and\n      dup2\n      mstore\n      0x20\n      add\n      swap1\n      dup2\n      mstore\n      0x20\n      add\n      0x00\n      keccak256\n      sload\n        /* \"contracts/Bank_MultiSIG.sol\":3388:3416  balance[msg.sender]>= amount */\n      lt\n      iszero\n        /* \"contracts/Bank_MultiSIG.sol\":3380:3467  require(balance[msg.sender]>= amount,\"ERROR 1_Insufficient balance to transfer funds.\") */\n      tag_90\n      jumpi\n      mload(0x40)\n      0x08c379a000000000000000000000000000000000000000000000000000000000\n      dup2\n      mstore\n      0x04\n      add\n      tag_91\n      swap1\n      tag_92\n      jump\t// in\n    tag_91:\n      mload(0x40)\n      dup1\n      swap2\n      sub\n      swap1\n      revert\n    tag_90:\n        /* \"contracts/Bank_MultiSIG.sol\":3531:3540  recipient */\n      dup2\n        /* \"contracts/Bank_MultiSIG.sol\":3517:3540  msg.sender != recipient */\n      0xffffffffffffffffffffffffffffffffffffffff\n      and\n        /* \"contracts/Bank_MultiSIG.sol\":3517:3527  msg.sender */\n      caller\n        /* \"contracts/Bank_MultiSIG.sol\":3517:3540  msg.sender != recipient */\n      0xffffffffffffffffffffffffffffffffffffffff\n      and\n      sub\n        /* \"contracts/Bank_MultiSIG.sol\":3509:3587  require(msg.sender != recipient,\"ERROR 2_The sender cannot be the recipient.\") */\n      tag_93\n      jumpi\n      mload(0x40)\n      0x08c379a000000000000000000000000000000000000000000000000000000000\n      dup2\n      mstore\n      0x04\n      add\n      tag_94\n      swap1\n      tag_95\n      jump\t// in\n    tag_94:\n      mload(0x40)\n      dup1\n      swap2\n      sub\n      swap1\n      revert\n    tag_93:\n        /* \"contracts/Bank_MultiSIG.sol\":3606:3625  isOwner(msg.sender) */\n      tag_96\n        /* \"contracts/Bank_MultiSIG.sol\":3614:3624  msg.sender */\n      caller\n        /* \"contracts/Bank_MultiSIG.sol\":3606:3613  isOwner */\n      tag_36\n        /* \"contracts/Bank_MultiSIG.sol\":3606:3625  isOwner(msg.sender) */\n      jump\t// in\n    tag_96:\n        /* \"contracts/Bank_MultiSIG.sol\":3598:3692  require(isOwner(msg.sender), \"ERROR 3_You are not an owner and not allowed to make transfer.\") */\n      tag_97\n      jumpi\n      mload(0x40)\n      0x08c379a000000000000000000000000000000000000000000000000000000000\n      dup2\n      mstore\n      0x04\n      add\n      tag_98\n      swap1\n      tag_99\n      jump\t// in\n    tag_98:\n      mload(0x40)\n      dup1\n      swap2\n      sub\n      swap1\n      revert\n    tag_97:\n        /* \"contracts/Bank_MultiSIG.sol\":3720:3746  uint previousSenderBalance */\n      0x00\n        /* \"contracts/Bank_MultiSIG.sol\":3749:3756  balance */\n      0x04\n        /* \"contracts/Bank_MultiSIG.sol\":3749:3768  balance[msg.sender] */\n      0x00\n        /* \"contracts/Bank_MultiSIG.sol\":3757:3767  msg.sender */\n      caller\n        /* \"contracts/Bank_MultiSIG.sol\":3749:3768  balance[msg.sender] */\n      0xffffffffffffffffffffffffffffffffffffffff\n      and\n      0xffffffffffffffffffffffffffffffffffffffff\n      and\n      dup2\n      mstore\n      0x20\n      add\n      swap1\n      dup2\n      mstore\n      0x20\n      add\n      0x00\n      keccak256\n      sload\n        /* \"contracts/Bank_MultiSIG.sol\":3720:3768  uint previousSenderBalance = balance[msg.sender] */\n      swap1\n      pop\n        /* \"contracts/Bank_MultiSIG.sol\":3779:3820  _transfer (msg.sender, recipient, amount) */\n      tag_100\n        /* \"contracts/Bank_MultiSIG.sol\":3790:3800  msg.sender */\n      caller\n        /* \"contracts/Bank_MultiSIG.sol\":3802:3811  recipient */\n      dup5\n        /* \"contracts/Bank_MultiSIG.sol\":3813:3819  amount */\n      dup5\n        /* \"contracts/Bank_MultiSIG.sol\":3779:3788  _transfer */\n      tag_101\n        /* \"contracts/Bank_MultiSIG.sol\":3779:3820  _transfer (msg.sender, recipient, amount) */\n      jump\t// in\n    tag_100:\n        /* \"contracts/Bank_MultiSIG.sol\":3878:3884  amount */\n      dup2\n        /* \"contracts/Bank_MultiSIG.sol\":3867:3876  recipient */\n      dup4\n        /* \"contracts/Bank_MultiSIG.sol\":3838:3885  transferedAmount(msg.sender, recipient, amount) */\n      0xffffffffffffffffffffffffffffffffffffffff\n      and\n        /* \"contracts/Bank_MultiSIG.sol\":3855:3865  msg.sender */\n      caller\n        /* \"contracts/Bank_MultiSIG.sol\":3838:3885  transferedAmount(msg.sender, recipient, amount) */\n      0xffffffffffffffffffffffffffffffffffffffff\n      and\n      0x3573881c639e018e0c3ba3a7d19063f6a7a8205d54eb828319a7f98db00426a0\n      mload(0x40)\n      mload(0x40)\n      dup1\n      swap2\n      sub\n      swap1\n      log4\n        /* \"contracts/Bank_MultiSIG.sol\":3965:3971  amount */\n      dup2\n        /* \"contracts/Bank_MultiSIG.sol\":3941:3962  previousSenderBalance */\n      dup2\n        /* \"contracts/Bank_MultiSIG.sol\":3941:3971  previousSenderBalance - amount */\n      tag_102\n      swap2\n      swap1\n      tag_73\n      jump\t// in\n    tag_102:\n        /* \"contracts/Bank_MultiSIG.sol\":3918:3925  balance */\n      0x04\n        /* \"contracts/Bank_MultiSIG.sol\":3918:3937  balance[msg.sender] */\n      0x00\n        /* \"contracts/Bank_MultiSIG.sol\":3926:3936  msg.sender */\n      caller\n        /* \"contracts/Bank_MultiSIG.sol\":3918:3937  balance[msg.sender] */\n      0xffffffffffffffffffffffffffffffffffffffff\n      and\n      0xffffffffffffffffffffffffffffffffffffffff\n      and\n      dup2\n      mstore\n      0x20\n      add\n      swap1\n      dup2\n      mstore\n      0x20\n      add\n      0x00\n      keccak256\n      sload\n        /* \"contracts/Bank_MultiSIG.sol\":3918:3971  balance[msg.sender] == previousSenderBalance - amount */\n      eq\n        /* \"contracts/Bank_MultiSIG.sol\":3911:3972  assert(balance[msg.sender] == previousSenderBalance - amount) */\n      tag_103\n      jumpi\n      tag_104\n      tag_105\n      jump\t// in\n    tag_104:\n    tag_103:\n        /* \"contracts/Bank_MultiSIG.sol\":3369:3981  {... */\n      pop\n        /* \"contracts/Bank_MultiSIG.sol\":3302:3981  function transfer(address recipient, uint amount) onlyOwner public {... */\n      pop\n      pop\n      jump\t// out\n        /* \"contracts/Ownerlist.sol\":1419:1656  function removeOwners(address _owner) public onlyOwner... */\n    tag_57:\n        /* \"contracts/Ownable.sol\":342:347  owner */\n      0x00\n      dup1\n      sload\n      swap1\n      0x0100\n      exp\n      swap1\n      div\n      0xffffffffffffffffffffffffffffffffffffffff\n      and\n        /* \"contracts/Ownable.sol\":328:347  msg.sender == owner */\n      0xffffffffffffffffffffffffffffffffffffffff\n      and\n        /* \"contracts/Ownable.sol\":328:338  msg.sender */\n      caller\n        /* \"contracts/Ownable.sol\":328:347  msg.sender == owner */\n      0xffffffffffffffffffffffffffffffffffffffff\n      and\n      eq\n        /* \"contracts/Ownable.sol\":320:348  require(msg.sender == owner) */\n      tag_107\n      jumpi\n      0x00\n      dup1\n      revert\n    tag_107:\n        /* \"contracts/Ownerlist.sol\":1512:1527  isOwner(_owner) */\n      tag_109\n        /* \"contracts/Ownerlist.sol\":1520:1526  _owner */\n      dup2\n        /* \"contracts/Ownerlist.sol\":1512:1519  isOwner */\n      tag_36\n        /* \"contracts/Ownerlist.sol\":1512:1527  isOwner(_owner) */\n      jump\t// in\n    tag_109:\n        /* \"contracts/Ownerlist.sol\":1490:1578  require(... */\n      tag_110\n      jumpi\n      mload(0x40)\n      0x08c379a000000000000000000000000000000000000000000000000000000000\n      dup2\n      mstore\n      0x04\n      add\n      tag_111\n      swap1\n      tag_112\n      jump\t// in\n    tag_111:\n      mload(0x40)\n      dup1\n      swap2\n      sub\n      swap1\n      revert\n    tag_110:\n        /* \"contracts/Ownerlist.sol\":1598:1604  owners */\n      0x01\n        /* \"contracts/Ownerlist.sol\":1598:1612  owners[_owner] */\n      0x00\n        /* \"contracts/Ownerlist.sol\":1605:1611  _owner */\n      dup3\n        /* \"contracts/Ownerlist.sol\":1598:1612  owners[_owner] */\n      0xffffffffffffffffffffffffffffffffffffffff\n      and\n      0xffffffffffffffffffffffffffffffffffffffff\n      and\n      dup2\n      mstore\n      0x20\n      add\n      swap1\n      dup2\n      mstore\n      0x20\n      add\n      0x00\n      keccak256\n      0x00\n        /* \"contracts/Ownerlist.sol\":1591:1612  delete owners[_owner] */\n      0x0100\n      exp\n      dup2\n      sload\n      swap1\n      0xff\n      mul\n      not\n      and\n      swap1\n      sstore\n        /* \"contracts/Ownerlist.sol\":1628:1648  OwnerRemoved(_owner) */\n      0x58619076adf5bb0943d100ef88d52d7c3fd691b19d3a9071b555b651fbf418da\n        /* \"contracts/Ownerlist.sol\":1641:1647  _owner */\n      dup2\n        /* \"contracts/Ownerlist.sol\":1628:1648  OwnerRemoved(_owner) */\n      mload(0x40)\n      tag_113\n      swap2\n      swap1\n      tag_86\n      jump\t// in\n    tag_113:\n      mload(0x40)\n      dup1\n      swap2\n      sub\n      swap1\n      log1\n        /* \"contracts/Ownerlist.sol\":1419:1656  function removeOwners(address _owner) public onlyOwner... */\n      pop\n      jump\t// out\n        /* \"contracts/Bank_MultiSIG.sol\":1963:2276  function deposit() public payable returns (uint) { ... */\n    tag_59:\n        /* \"contracts/Bank_MultiSIG.sol\":2006:2010  uint */\n      0x00\n        /* \"contracts/Bank_MultiSIG.sol\":2047:2056  msg.value */\n      callvalue\n        /* \"contracts/Bank_MultiSIG.sol\":2024:2031  balance */\n      0x04\n        /* \"contracts/Bank_MultiSIG.sol\":2024:2043  balance[msg.sender] */\n      0x00\n        /* \"contracts/Bank_MultiSIG.sol\":2032:2042  msg.sender */\n      caller\n        /* \"contracts/Bank_MultiSIG.sol\":2024:2043  balance[msg.sender] */\n      0xffffffffffffffffffffffffffffffffffffffff\n      and\n      0xffffffffffffffffffffffffffffffffffffffff\n      and\n      dup2\n      mstore\n      0x20\n      add\n      swap1\n      dup2\n      mstore\n      0x20\n      add\n      0x00\n      keccak256\n      0x00\n        /* \"contracts/Bank_MultiSIG.sol\":2024:2056  balance[msg.sender] += msg.value */\n      dup3\n      dup3\n      sload\n      tag_115\n      swap2\n      swap1\n      tag_116\n      jump\t// in\n    tag_115:\n      swap3\n      pop\n      pop\n      dup2\n      swap1\n      sstore\n      pop\n        /* \"contracts/Bank_MultiSIG.sol\":2203:2213  msg.sender */\n      caller\n        /* \"contracts/Bank_MultiSIG.sol\":2181:2214  deposited (msg.value, msg.sender) */\n      0xffffffffffffffffffffffffffffffffffffffff\n      and\n        /* \"contracts/Bank_MultiSIG.sol\":2192:2201  msg.value */\n      callvalue\n        /* \"contracts/Bank_MultiSIG.sol\":2181:2214  deposited (msg.value, msg.sender) */\n      0xa23831066066ec8812cc52afc91a52134a8b50c9209b68c276be679f4073d95d\n      mload(0x40)\n      mload(0x40)\n      dup1\n      swap2\n      sub\n      swap1\n      log3\n        /* \"contracts/Bank_MultiSIG.sol\":2249:2256  balance */\n      0x04\n        /* \"contracts/Bank_MultiSIG.sol\":2249:2268  balance[msg.sender] */\n      0x00\n        /* \"contracts/Bank_MultiSIG.sol\":2257:2267  msg.sender */\n      caller\n        /* \"contracts/Bank_MultiSIG.sol\":2249:2268  balance[msg.sender] */\n      0xffffffffffffffffffffffffffffffffffffffff\n      and\n      0xffffffffffffffffffffffffffffffffffffffff\n      and\n      dup2\n      mstore\n      0x20\n      add\n      swap1\n      dup2\n      mstore\n      0x20\n      add\n      0x00\n      keccak256\n      sload\n        /* \"contracts/Bank_MultiSIG.sol\":2242:2268  return balance[msg.sender] */\n      swap1\n      pop\n        /* \"contracts/Bank_MultiSIG.sol\":1963:2276  function deposit() public payable returns (uint) { ... */\n      swap1\n      jump\t// out\n        /* \"contracts/Bank_MultiSIG.sol\":4168:4308  function _transfer(address from, address to, uint amount) private {... */\n    tag_101:\n        /* \"contracts/Bank_MultiSIG.sol\":4262:4268  amount */\n      dup1\n        /* \"contracts/Bank_MultiSIG.sol\":4245:4252  balance */\n      0x04\n        /* \"contracts/Bank_MultiSIG.sol\":4245:4258  balance[from] */\n      0x00\n        /* \"contracts/Bank_MultiSIG.sol\":4253:4257  from */\n      dup6\n        /* \"contracts/Bank_MultiSIG.sol\":4245:4258  balance[from] */\n      0xffffffffffffffffffffffffffffffffffffffff\n      and\n      0xffffffffffffffffffffffffffffffffffffffff\n      and\n      dup2\n      mstore\n      0x20\n      add\n      swap1\n      dup2\n      mstore\n      0x20\n      add\n      0x00\n      keccak256\n      0x00\n        /* \"contracts/Bank_MultiSIG.sol\":4245:4268  balance[from] -= amount */\n      dup3\n      dup3\n      sload\n      tag_118\n      swap2\n      swap1\n      tag_73\n      jump\t// in\n    tag_118:\n      swap3\n      pop\n      pop\n      dup2\n      swap1\n      sstore\n      pop\n        /* \"contracts/Bank_MultiSIG.sol\":4294:4300  amount */\n      dup1\n        /* \"contracts/Bank_MultiSIG.sol\":4279:4286  balance */\n      0x04\n        /* \"contracts/Bank_MultiSIG.sol\":4279:4290  balance[to] */\n      0x00\n        /* \"contracts/Bank_MultiSIG.sol\":4287:4289  to */\n      dup5\n        /* \"contracts/Bank_MultiSIG.sol\":4279:4290  balance[to] */\n      0xffffffffffffffffffffffffffffffffffffffff\n      and\n      0xffffffffffffffffffffffffffffffffffffffff\n      and\n      dup2\n      mstore\n      0x20\n      add\n      swap1\n      dup2\n      mstore\n      0x20\n      add\n      0x00\n      keccak256\n      0x00\n        /* \"contracts/Bank_MultiSIG.sol\":4279:4300  balance[to] += amount */\n      dup3\n      dup3\n      sload\n      tag_119\n      swap2\n      swap1\n      tag_116\n      jump\t// in\n    tag_119:\n      swap3\n      pop\n      pop\n      dup2\n      swap1\n      sstore\n      pop\n        /* \"contracts/Bank_MultiSIG.sol\":4168:4308  function _transfer(address from, address to, uint amount) private {... */\n      pop\n      pop\n      pop\n      jump\t// out\n        /* \"#utility.yul\":7:84   */\n    tag_120:\n        /* \"#utility.yul\":44:51   */\n      0x00\n        /* \"#utility.yul\":73:78   */\n      dup2\n        /* \"#utility.yul\":62:78   */\n      swap1\n      pop\n        /* \"#utility.yul\":7:84   */\n      swap2\n      swap1\n      pop\n      jump\t// out\n        /* \"#utility.yul\":90:208   */\n    tag_121:\n        /* \"#utility.yul\":177:201   */\n      tag_154\n        /* \"#utility.yul\":195:200   */\n      dup2\n        /* \"#utility.yul\":177:201   */\n      tag_120\n      jump\t// in\n    tag_154:\n        /* \"#utility.yul\":172:175   */\n      dup3\n        /* \"#utility.yul\":165:202   */\n      mstore\n        /* \"#utility.yul\":90:208   */\n      pop\n      pop\n      jump\t// out\n        /* \"#utility.yul\":214:436   */\n    tag_17:\n        /* \"#utility.yul\":307:311   */\n      0x00\n        /* \"#utility.yul\":345:347   */\n      0x20\n        /* \"#utility.yul\":334:343   */\n      dup3\n        /* \"#utility.yul\":330:348   */\n      add\n        /* \"#utility.yul\":322:348   */\n      swap1\n      pop\n        /* \"#utility.yul\":358:429   */\n      tag_156\n        /* \"#utility.yul\":426:427   */\n      0x00\n        /* \"#utility.yul\":415:424   */\n      dup4\n        /* \"#utility.yul\":411:428   */\n      add\n        /* \"#utility.yul\":402:408   */\n      dup5\n        /* \"#utility.yul\":358:429   */\n      tag_121\n      jump\t// in\n    tag_156:\n        /* \"#utility.yul\":214:436   */\n      swap3\n      swap2\n      pop\n      pop\n      jump\t// out\n        /* \"#utility.yul\":523:640   */\n    tag_123:\n        /* \"#utility.yul\":632:633   */\n      0x00\n        /* \"#utility.yul\":629:630   */\n      dup1\n        /* \"#utility.yul\":622:634   */\n      revert\n        /* \"#utility.yul\":769:891   */\n    tag_125:\n        /* \"#utility.yul\":842:866   */\n      tag_161\n        /* \"#utility.yul\":860:865   */\n      dup2\n        /* \"#utility.yul\":842:866   */\n      tag_120\n      jump\t// in\n    tag_161:\n        /* \"#utility.yul\":835:840   */\n      dup2\n        /* \"#utility.yul\":832:867   */\n      eq\n        /* \"#utility.yul\":822:885   */\n      tag_162\n      jumpi\n        /* \"#utility.yul\":881:882   */\n      0x00\n        /* \"#utility.yul\":878:879   */\n      dup1\n        /* \"#utility.yul\":871:883   */\n      revert\n        /* \"#utility.yul\":822:885   */\n    tag_162:\n        /* \"#utility.yul\":769:891   */\n      pop\n      jump\t// out\n        /* \"#utility.yul\":897:1036   */\n    tag_126:\n        /* \"#utility.yul\":943:948   */\n      0x00\n        /* \"#utility.yul\":981:987   */\n      dup2\n        /* \"#utility.yul\":968:988   */\n      calldataload\n        /* \"#utility.yul\":959:988   */\n      swap1\n      pop\n        /* \"#utility.yul\":997:1030   */\n      tag_164\n        /* \"#utility.yul\":1024:1029   */\n      dup2\n        /* \"#utility.yul\":997:1030   */\n      tag_125\n      jump\t// in\n    tag_164:\n        /* \"#utility.yul\":897:1036   */\n      swap3\n      swap2\n      pop\n      pop\n      jump\t// out\n        /* \"#utility.yul\":1042:1371   */\n    tag_25:\n        /* \"#utility.yul\":1101:1107   */\n      0x00\n        /* \"#utility.yul\":1150:1152   */\n      0x20\n        /* \"#utility.yul\":1138:1147   */\n      dup3\n        /* \"#utility.yul\":1129:1136   */\n      dup5\n        /* \"#utility.yul\":1125:1148   */\n      sub\n        /* \"#utility.yul\":1121:1153   */\n      slt\n        /* \"#utility.yul\":1118:1237   */\n      iszero\n      tag_166\n      jumpi\n        /* \"#utility.yul\":1156:1235   */\n      tag_167\n      tag_123\n      jump\t// in\n    tag_167:\n        /* \"#utility.yul\":1118:1237   */\n    tag_166:\n        /* \"#utility.yul\":1276:1277   */\n      0x00\n        /* \"#utility.yul\":1301:1354   */\n      tag_168\n        /* \"#utility.yul\":1346:1353   */\n      dup5\n        /* \"#utility.yul\":1337:1343   */\n      dup3\n        /* \"#utility.yul\":1326:1335   */\n      dup6\n        /* \"#utility.yul\":1322:1344   */\n      add\n        /* \"#utility.yul\":1301:1354   */\n      tag_126\n      jump\t// in\n    tag_168:\n        /* \"#utility.yul\":1291:1354   */\n      swap2\n      pop\n        /* \"#utility.yul\":1247:1364   */\n      pop\n        /* \"#utility.yul\":1042:1371   */\n      swap3\n      swap2\n      pop\n      pop\n      jump\t// out\n        /* \"#utility.yul\":1377:1503   */\n    tag_127:\n        /* \"#utility.yul\":1414:1421   */\n      0x00\n        /* \"#utility.yul\":1454:1496   */\n      0xffffffffffffffffffffffffffffffffffffffff\n        /* \"#utility.yul\":1447:1452   */\n      dup3\n        /* \"#utility.yul\":1443:1497   */\n      and\n        /* \"#utility.yul\":1432:1497   */\n      swap1\n      pop\n        /* \"#utility.yul\":1377:1503   */\n      swap2\n      swap1\n      pop\n      jump\t// out\n        /* \"#utility.yul\":1509:1605   */\n    tag_128:\n        /* \"#utility.yul\":1546:1553   */\n      0x00\n        /* \"#utility.yul\":1575:1599   */\n      tag_171\n        /* \"#utility.yul\":1593:1598   */\n      dup3\n        /* \"#utility.yul\":1575:1599   */\n      tag_127\n      jump\t// in\n    tag_171:\n        /* \"#utility.yul\":1564:1599   */\n      swap1\n      pop\n        /* \"#utility.yul\":1509:1605   */\n      swap2\n      swap1\n      pop\n      jump\t// out\n        /* \"#utility.yul\":1611:1733   */\n    tag_129:\n        /* \"#utility.yul\":1684:1708   */\n      tag_173\n        /* \"#utility.yul\":1702:1707   */\n      dup2\n        /* \"#utility.yul\":1684:1708   */\n      tag_128\n      jump\t// in\n    tag_173:\n        /* \"#utility.yul\":1677:1682   */\n      dup2\n        /* \"#utility.yul\":1674:1709   */\n      eq\n        /* \"#utility.yul\":1664:1727   */\n      tag_174\n      jumpi\n        /* \"#utility.yul\":1723:1724   */\n      0x00\n        /* \"#utility.yul\":1720:1721   */\n      dup1\n        /* \"#utility.yul\":1713:1725   */\n      revert\n        /* \"#utility.yul\":1664:1727   */\n    tag_174:\n        /* \"#utility.yul\":1611:1733   */\n      pop\n      jump\t// out\n        /* \"#utility.yul\":1739:1878   */\n    tag_130:\n        /* \"#utility.yul\":1785:1790   */\n      0x00\n        /* \"#utility.yul\":1823:1829   */\n      dup2\n        /* \"#utility.yul\":1810:1830   */\n      calldataload\n        /* \"#utility.yul\":1801:1830   */\n      swap1\n      pop\n        /* \"#utility.yul\":1839:1872   */\n      tag_176\n        /* \"#utility.yul\":1866:1871   */\n      dup2\n        /* \"#utility.yul\":1839:1872   */\n      tag_129\n      jump\t// in\n    tag_176:\n        /* \"#utility.yul\":1739:1878   */\n      swap3\n      swap2\n      pop\n      pop\n      jump\t// out\n        /* \"#utility.yul\":1884:2213   */\n    tag_35:\n        /* \"#utility.yul\":1943:1949   */\n      0x00\n        /* \"#utility.yul\":1992:1994   */\n      0x20\n        /* \"#utility.yul\":1980:1989   */\n      dup3\n        /* \"#utility.yul\":1971:1978   */\n      dup5\n        /* \"#utility.yul\":1967:1990   */\n      sub\n        /* \"#utility.yul\":1963:1995   */\n      slt\n        /* \"#utility.yul\":1960:2079   */\n      iszero\n      tag_178\n      jumpi\n        /* \"#utility.yul\":1998:2077   */\n      tag_179\n      tag_123\n      jump\t// in\n    tag_179:\n        /* \"#utility.yul\":1960:2079   */\n    tag_178:\n        /* \"#utility.yul\":2118:2119   */\n      0x00\n        /* \"#utility.yul\":2143:2196   */\n      tag_180\n        /* \"#utility.yul\":2188:2195   */\n      dup5\n        /* \"#utility.yul\":2179:2185   */\n      dup3\n        /* \"#utility.yul\":2168:2177   */\n      dup6\n        /* \"#utility.yul\":2164:2186   */\n      add\n        /* \"#utility.yul\":2143:2196   */\n      tag_130\n      jump\t// in\n    tag_180:\n        /* \"#utility.yul\":2133:2196   */\n      swap2\n      pop\n        /* \"#utility.yul\":2089:2206   */\n      pop\n        /* \"#utility.yul\":1884:2213   */\n      swap3\n      swap2\n      pop\n      pop\n      jump\t// out\n        /* \"#utility.yul\":2219:2309   */\n    tag_131:\n        /* \"#utility.yul\":2253:2260   */\n      0x00\n        /* \"#utility.yul\":2296:2301   */\n      dup2\n        /* \"#utility.yul\":2289:2302   */\n      iszero\n        /* \"#utility.yul\":2282:2303   */\n      iszero\n        /* \"#utility.yul\":2271:2303   */\n      swap1\n      pop\n        /* \"#utility.yul\":2219:2309   */\n      swap2\n      swap1\n      pop\n      jump\t// out\n        /* \"#utility.yul\":2315:2424   */\n    tag_132:\n        /* \"#utility.yul\":2396:2417   */\n      tag_183\n        /* \"#utility.yul\":2411:2416   */\n      dup2\n        /* \"#utility.yul\":2396:2417   */\n      tag_131\n      jump\t// in\n    tag_183:\n        /* \"#utility.yul\":2391:2394   */\n      dup3\n        /* \"#utility.yul\":2384:2418   */\n      mstore\n        /* \"#utility.yul\":2315:2424   */\n      pop\n      pop\n      jump\t// out\n        /* \"#utility.yul\":2430:2640   */\n    tag_38:\n        /* \"#utility.yul\":2517:2521   */\n      0x00\n        /* \"#utility.yul\":2555:2557   */\n      0x20\n        /* \"#utility.yul\":2544:2553   */\n      dup3\n        /* \"#utility.yul\":2540:2558   */\n      add\n        /* \"#utility.yul\":2532:2558   */\n      swap1\n      pop\n        /* \"#utility.yul\":2568:2633   */\n      tag_185\n        /* \"#utility.yul\":2630:2631   */\n      0x00\n        /* \"#utility.yul\":2619:2628   */\n      dup4\n        /* \"#utility.yul\":2615:2632   */\n      add\n        /* \"#utility.yul\":2606:2612   */\n      dup5\n        /* \"#utility.yul\":2568:2633   */\n      tag_132\n      jump\t// in\n    tag_185:\n        /* \"#utility.yul\":2430:2640   */\n      swap3\n      swap2\n      pop\n      pop\n      jump\t// out\n        /* \"#utility.yul\":2646:2722   */\n    tag_133:\n        /* \"#utility.yul\":2682:2689   */\n      0x00\n        /* \"#utility.yul\":2711:2716   */\n      dup2\n        /* \"#utility.yul\":2700:2716   */\n      swap1\n      pop\n        /* \"#utility.yul\":2646:2722   */\n      swap2\n      swap1\n      pop\n      jump\t// out\n        /* \"#utility.yul\":2728:2848   */\n    tag_134:\n        /* \"#utility.yul\":2800:2823   */\n      tag_188\n        /* \"#utility.yul\":2817:2822   */\n      dup2\n        /* \"#utility.yul\":2800:2823   */\n      tag_133\n      jump\t// in\n    tag_188:\n        /* \"#utility.yul\":2793:2798   */\n      dup2\n        /* \"#utility.yul\":2790:2824   */\n      eq\n        /* \"#utility.yul\":2780:2842   */\n      tag_189\n      jumpi\n        /* \"#utility.yul\":2838:2839   */\n      0x00\n        /* \"#utility.yul\":2835:2836   */\n      dup1\n        /* \"#utility.yul\":2828:2840   */\n      revert\n        /* \"#utility.yul\":2780:2842   */\n    tag_189:\n        /* \"#utility.yul\":2728:2848   */\n      pop\n      jump\t// out\n        /* \"#utility.yul\":2854:2991   */\n    tag_135:\n        /* \"#utility.yul\":2899:2904   */\n      0x00\n        /* \"#utility.yul\":2937:2943   */\n      dup2\n        /* \"#utility.yul\":2924:2944   */\n      calldataload\n        /* \"#utility.yul\":2915:2944   */\n      swap1\n      pop\n        /* \"#utility.yul\":2953:2985   */\n      tag_191\n        /* \"#utility.yul\":2979:2984   */\n      dup2\n        /* \"#utility.yul\":2953:2985   */\n      tag_134\n      jump\t// in\n    tag_191:\n        /* \"#utility.yul\":2854:2991   */\n      swap3\n      swap2\n      pop\n      pop\n      jump\t// out\n        /* \"#utility.yul\":2997:3324   */\n    tag_42:\n        /* \"#utility.yul\":3055:3061   */\n      0x00\n        /* \"#utility.yul\":3104:3106   */\n      0x20\n        /* \"#utility.yul\":3092:3101   */\n      dup3\n        /* \"#utility.yul\":3083:3090   */\n      dup5\n        /* \"#utility.yul\":3079:3102   */\n      sub\n        /* \"#utility.yul\":3075:3107   */\n      slt\n        /* \"#utility.yul\":3072:3191   */\n      iszero\n      tag_193\n      jumpi\n        /* \"#utility.yul\":3110:3189   */\n      tag_194\n      tag_123\n      jump\t// in\n    tag_194:\n        /* \"#utility.yul\":3072:3191   */\n    tag_193:\n        /* \"#utility.yul\":3230:3231   */\n      0x00\n        /* \"#utility.yul\":3255:3307   */\n      tag_195\n        /* \"#utility.yul\":3299:3306   */\n      dup5\n        /* \"#utility.yul\":3290:3296   */\n      dup3\n        /* \"#utility.yul\":3279:3288   */\n      dup6\n        /* \"#utility.yul\":3275:3297   */\n      add\n        /* \"#utility.yul\":3255:3307   */\n      tag_135\n      jump\t// in\n    tag_195:\n        /* \"#utility.yul\":3245:3307   */\n      swap2\n      pop\n        /* \"#utility.yul\":3201:3317   */\n      pop\n        /* \"#utility.yul\":2997:3324   */\n      swap3\n      swap2\n      pop\n      pop\n      jump\t// out\n        /* \"#utility.yul\":3330:3804   */\n    tag_52:\n        /* \"#utility.yul\":3398:3404   */\n      0x00\n        /* \"#utility.yul\":3406:3412   */\n      dup1\n        /* \"#utility.yul\":3455:3457   */\n      0x40\n        /* \"#utility.yul\":3443:3452   */\n      dup4\n        /* \"#utility.yul\":3434:3441   */\n      dup6\n        /* \"#utility.yul\":3430:3453   */\n      sub\n        /* \"#utility.yul\":3426:3458   */\n      slt\n        /* \"#utility.yul\":3423:3542   */\n      iszero\n      tag_197\n      jumpi\n        /* \"#utility.yul\":3461:3540   */\n      tag_198\n      tag_123\n      jump\t// in\n    tag_198:\n        /* \"#utility.yul\":3423:3542   */\n    tag_197:\n        /* \"#utility.yul\":3581:3582   */\n      0x00\n        /* \"#utility.yul\":3606:3659   */\n      tag_199\n        /* \"#utility.yul\":3651:3658   */\n      dup6\n        /* \"#utility.yul\":3642:3648   */\n      dup3\n        /* \"#utility.yul\":3631:3640   */\n      dup7\n        /* \"#utility.yul\":3627:3649   */\n      add\n        /* \"#utility.yul\":3606:3659   */\n      tag_130\n      jump\t// in\n    tag_199:\n        /* \"#utility.yul\":3596:3659   */\n      swap3\n      pop\n        /* \"#utility.yul\":3552:3669   */\n      pop\n        /* \"#utility.yul\":3708:3710   */\n      0x20\n        /* \"#utility.yul\":3734:3787   */\n      tag_200\n        /* \"#utility.yul\":3779:3786   */\n      dup6\n        /* \"#utility.yul\":3770:3776   */\n      dup3\n        /* \"#utility.yul\":3759:3768   */\n      dup7\n        /* \"#utility.yul\":3755:3777   */\n      add\n        /* \"#utility.yul\":3734:3787   */\n      tag_126\n      jump\t// in\n    tag_200:\n        /* \"#utility.yul\":3724:3787   */\n      swap2\n      pop\n        /* \"#utility.yul\":3679:3797   */\n      pop\n        /* \"#utility.yul\":3330:3804   */\n      swap3\n      pop\n      swap3\n      swap1\n      pop\n      jump\t// out\n        /* \"#utility.yul\":3810:3979   */\n    tag_136:\n        /* \"#utility.yul\":3894:3905   */\n      0x00\n        /* \"#utility.yul\":3928:3934   */\n      dup3\n        /* \"#utility.yul\":3923:3926   */\n      dup3\n        /* \"#utility.yul\":3916:3935   */\n      mstore\n        /* \"#utility.yul\":3968:3972   */\n      0x20\n        /* \"#utility.yul\":3963:3966   */\n      dup3\n        /* \"#utility.yul\":3959:3973   */\n      add\n        /* \"#utility.yul\":3944:3973   */\n      swap1\n      pop\n        /* \"#utility.yul\":3810:3979   */\n      swap3\n      swap2\n      pop\n      pop\n      jump\t// out\n        /* \"#utility.yul\":3985:4219   */\n    tag_137:\n        /* \"#utility.yul\":4125:4159   */\n      0x4552524f5220315f496e73756666696369656e742062616c616e636520746f20\n        /* \"#utility.yul\":4121:4122   */\n      0x00\n        /* \"#utility.yul\":4113:4119   */\n      dup3\n        /* \"#utility.yul\":4109:4123   */\n      add\n        /* \"#utility.yul\":4102:4160   */\n      mstore\n        /* \"#utility.yul\":4194:4211   */\n      0x77697468647261772066756e64732e0000000000000000000000000000000000\n        /* \"#utility.yul\":4189:4191   */\n      0x20\n        /* \"#utility.yul\":4181:4187   */\n      dup3\n        /* \"#utility.yul\":4177:4192   */\n      add\n        /* \"#utility.yul\":4170:4212   */\n      mstore\n        /* \"#utility.yul\":3985:4219   */\n      pop\n      jump\t// out\n        /* \"#utility.yul\":4225:4591   */\n    tag_138:\n        /* \"#utility.yul\":4367:4370   */\n      0x00\n        /* \"#utility.yul\":4388:4455   */\n      tag_204\n        /* \"#utility.yul\":4452:4454   */\n      0x2f\n        /* \"#utility.yul\":4447:4450   */\n      dup4\n        /* \"#utility.yul\":4388:4455   */\n      tag_136\n      jump\t// in\n    tag_204:\n        /* \"#utility.yul\":4381:4455   */\n      swap2\n      pop\n        /* \"#utility.yul\":4464:4557   */\n      tag_205\n        /* \"#utility.yul\":4553:4556   */\n      dup3\n        /* \"#utility.yul\":4464:4557   */\n      tag_137\n      jump\t// in\n    tag_205:\n        /* \"#utility.yul\":4582:4584   */\n      0x40\n        /* \"#utility.yul\":4577:4580   */\n      dup3\n        /* \"#utility.yul\":4573:4585   */\n      add\n        /* \"#utility.yul\":4566:4585   */\n      swap1\n      pop\n        /* \"#utility.yul\":4225:4591   */\n      swap2\n      swap1\n      pop\n      jump\t// out\n        /* \"#utility.yul\":4597:5016   */\n    tag_69:\n        /* \"#utility.yul\":4763:4767   */\n      0x00\n        /* \"#utility.yul\":4801:4803   */\n      0x20\n        /* \"#utility.yul\":4790:4799   */\n      dup3\n        /* \"#utility.yul\":4786:4804   */\n      add\n        /* \"#utility.yul\":4778:4804   */\n      swap1\n      pop\n        /* \"#utility.yul\":4850:4859   */\n      dup2\n        /* \"#utility.yul\":4844:4848   */\n      dup2\n        /* \"#utility.yul\":4840:4860   */\n      sub\n        /* \"#utility.yul\":4836:4837   */\n      0x00\n        /* \"#utility.yul\":4825:4834   */\n      dup4\n        /* \"#utility.yul\":4821:4838   */\n      add\n        /* \"#utility.yul\":4814:4861   */\n      mstore\n        /* \"#utility.yul\":4878:5009   */\n      tag_207\n        /* \"#utility.yul\":5004:5008   */\n      dup2\n        /* \"#utility.yul\":4878:5009   */\n      tag_138\n      jump\t// in\n    tag_207:\n        /* \"#utility.yul\":4870:5009   */\n      swap1\n      pop\n        /* \"#utility.yul\":4597:5016   */\n      swap2\n      swap1\n      pop\n      jump\t// out\n        /* \"#utility.yul\":5022:5202   */\n    tag_139:\n        /* \"#utility.yul\":5070:5147   */\n      0x4e487b7100000000000000000000000000000000000000000000000000000000\n        /* \"#utility.yul\":5067:5068   */\n      0x00\n        /* \"#utility.yul\":5060:5148   */\n      mstore\n        /* \"#utility.yul\":5167:5171   */\n      0x11\n        /* \"#utility.yul\":5164:5165   */\n      0x04\n        /* \"#utility.yul\":5157:5172   */\n      mstore\n        /* \"#utility.yul\":5191:5195   */\n      0x24\n        /* \"#utility.yul\":5188:5189   */\n      0x00\n        /* \"#utility.yul\":5181:5196   */\n      revert\n        /* \"#utility.yul\":5208:5399   */\n    tag_73:\n        /* \"#utility.yul\":5248:5252   */\n      0x00\n        /* \"#utility.yul\":5268:5288   */\n      tag_210\n        /* \"#utility.yul\":5286:5287   */\n      dup3\n        /* \"#utility.yul\":5268:5288   */\n      tag_120\n      jump\t// in\n    tag_210:\n        /* \"#utility.yul\":5263:5288   */\n      swap2\n      pop\n        /* \"#utility.yul\":5302:5322   */\n      tag_211\n        /* \"#utility.yul\":5320:5321   */\n      dup4\n        /* \"#utility.yul\":5302:5322   */\n      tag_120\n      jump\t// in\n    tag_211:\n        /* \"#utility.yul\":5297:5322   */\n      swap3\n      pop\n        /* \"#utility.yul\":5341:5342   */\n      dup3\n        /* \"#utility.yul\":5338:5339   */\n      dup3\n        /* \"#utility.yul\":5335:5343   */\n      lt\n        /* \"#utility.yul\":5332:5366   */\n      iszero\n      tag_212\n      jumpi\n        /* \"#utility.yul\":5346:5364   */\n      tag_213\n      tag_139\n      jump\t// in\n    tag_213:\n        /* \"#utility.yul\":5332:5366   */\n    tag_212:\n        /* \"#utility.yul\":5391:5392   */\n      dup3\n        /* \"#utility.yul\":5388:5389   */\n      dup3\n        /* \"#utility.yul\":5384:5393   */\n      sub\n        /* \"#utility.yul\":5376:5393   */\n      swap1\n      pop\n        /* \"#utility.yul\":5208:5399   */\n      swap3\n      swap2\n      pop\n      pop\n      jump\t// out\n        /* \"#utility.yul\":5405:5638   */\n    tag_77:\n        /* \"#utility.yul\":5444:5447   */\n      0x00\n        /* \"#utility.yul\":5467:5491   */\n      tag_215\n        /* \"#utility.yul\":5485:5490   */\n      dup3\n        /* \"#utility.yul\":5467:5491   */\n      tag_120\n      jump\t// in\n    tag_215:\n        /* \"#utility.yul\":5458:5491   */\n      swap2\n      pop\n        /* \"#utility.yul\":5513:5579   */\n      0xffffffffffffffffffffffffffffffffffffffffffffffffffffffffffffffff\n        /* \"#utility.yul\":5506:5511   */\n      dup3\n        /* \"#utility.yul\":5503:5580   */\n      sub\n        /* \"#utility.yul\":5500:5603   */\n      tag_216\n      jumpi\n        /* \"#utility.yul\":5583:5601   */\n      tag_217\n      tag_139\n      jump\t// in\n    tag_217:\n        /* \"#utility.yul\":5500:5603   */\n    tag_216:\n        /* \"#utility.yul\":5630:5631   */\n      0x01\n        /* \"#utility.yul\":5623:5628   */\n      dup3\n        /* \"#utility.yul\":5619:5632   */\n      add\n        /* \"#utility.yul\":5612:5632   */\n      swap1\n      pop\n        /* \"#utility.yul\":5405:5638   */\n      swap2\n      swap1\n      pop\n      jump\t// out\n        /* \"#utility.yul\":5644:5819   */\n    tag_140:\n        /* \"#utility.yul\":5784:5811   */\n      0x41646472657373206973206f776e657220616c72656164792e00000000000000\n        /* \"#utility.yul\":5780:5781   */\n      0x00\n        /* \"#utility.yul\":5772:5778   */\n      dup3\n        /* \"#utility.yul\":5768:5782   */\n      add\n        /* \"#utility.yul\":5761:5812   */\n      mstore\n        /* \"#utility.yul\":5644:5819   */\n      pop\n      jump\t// out\n        /* \"#utility.yul\":5825:6191   */\n    tag_141:\n        /* \"#utility.yul\":5967:5970   */\n      0x00\n        /* \"#utility.yul\":5988:6055   */\n      tag_220\n        /* \"#utility.yul\":6052:6054   */\n      0x19\n        /* \"#utility.yul\":6047:6050   */\n      dup4\n        /* \"#utility.yul\":5988:6055   */\n      tag_136\n      jump\t// in\n    tag_220:\n        /* \"#utility.yul\":5981:6055   */\n      swap2\n      pop\n        /* \"#utility.yul\":6064:6157   */\n      tag_221\n        /* \"#utility.yul\":6153:6156   */\n      dup3\n        /* \"#utility.yul\":6064:6157   */\n      tag_140\n      jump\t// in\n    tag_221:\n        /* \"#utility.yul\":6182:6184   */\n      0x20\n        /* \"#utility.yul\":6177:6180   */\n      dup3\n        /* \"#utility.yul\":6173:6185   */\n      add\n        /* \"#utility.yul\":6166:6185   */\n      swap1\n      pop\n        /* \"#utility.yul\":5825:6191   */\n      swap2\n      swap1\n      pop\n      jump\t// out\n        /* \"#utility.yul\":6197:6616   */\n    tag_84:\n        /* \"#utility.yul\":6363:6367   */\n      0x00\n        /* \"#utility.yul\":6401:6403   */\n      0x20\n        /* \"#utility.yul\":6390:6399   */\n      dup3\n        /* \"#utility.yul\":6386:6404   */\n      add\n        /* \"#utility.yul\":6378:6404   */\n      swap1\n      pop\n        /* \"#utility.yul\":6450:6459   */\n      dup2\n        /* \"#utility.yul\":6444:6448   */\n      dup2\n        /* \"#utility.yul\":6440:6460   */\n      sub\n        /* \"#utility.yul\":6436:6437   */\n      0x00\n        /* \"#utility.yul\":6425:6434   */\n      dup4\n        /* \"#utility.yul\":6421:6438   */\n      add\n        /* \"#utility.yul\":6414:6461   */\n      mstore\n        /* \"#utility.yul\":6478:6609   */\n      tag_223\n        /* \"#utility.yul\":6604:6608   */\n      dup2\n        /* \"#utility.yul\":6478:6609   */\n      tag_141\n      jump\t// in\n    tag_223:\n        /* \"#utility.yul\":6470:6609   */\n      swap1\n      pop\n        /* \"#utility.yul\":6197:6616   */\n      swap2\n      swap1\n      pop\n      jump\t// out\n        /* \"#utility.yul\":6622:6740   */\n    tag_142:\n        /* \"#utility.yul\":6709:6733   */\n      tag_225\n        /* \"#utility.yul\":6727:6732   */\n      dup2\n        /* \"#utility.yul\":6709:6733   */\n      tag_128\n      jump\t// in\n    tag_225:\n        /* \"#utility.yul\":6704:6707   */\n      dup3\n        /* \"#utility.yul\":6697:6734   */\n      mstore\n        /* \"#utility.yul\":6622:6740   */\n      pop\n      pop\n      jump\t// out\n        /* \"#utility.yul\":6746:6968   */\n    tag_86:\n        /* \"#utility.yul\":6839:6843   */\n      0x00\n        /* \"#utility.yul\":6877:6879   */\n      0x20\n        /* \"#utility.yul\":6866:6875   */\n      dup3\n        /* \"#utility.yul\":6862:6880   */\n      add\n        /* \"#utility.yul\":6854:6880   */\n      swap1\n      pop\n        /* \"#utility.yul\":6890:6961   */\n      tag_227\n        /* \"#utility.yul\":6958:6959   */\n      0x00\n        /* \"#utility.yul\":6947:6956   */\n      dup4\n        /* \"#utility.yul\":6943:6960   */\n      add\n        /* \"#utility.yul\":6934:6940   */\n      dup5\n        /* \"#utility.yul\":6890:6961   */\n      tag_142\n      jump\t// in\n    tag_227:\n        /* \"#utility.yul\":6746:6968   */\n      swap3\n      swap2\n      pop\n      pop\n      jump\t// out\n        /* \"#utility.yul\":6974:7208   */\n    tag_143:\n        /* \"#utility.yul\":7114:7148   */\n      0x4552524f5220315f496e73756666696369656e742062616c616e636520746f20\n        /* \"#utility.yul\":7110:7111   */\n      0x00\n        /* \"#utility.yul\":7102:7108   */\n      dup3\n        /* \"#utility.yul\":7098:7112   */\n      add\n        /* \"#utility.yul\":7091:7149   */\n      mstore\n        /* \"#utility.yul\":7183:7200   */\n      0x7472616e736665722066756e64732e0000000000000000000000000000000000\n        /* \"#utility.yul\":7178:7180   */\n      0x20\n        /* \"#utility.yul\":7170:7176   */\n      dup3\n        /* \"#utility.yul\":7166:7181   */\n      add\n        /* \"#utility.yul\":7159:7201   */\n      mstore\n        /* \"#utility.yul\":6974:7208   */\n      pop\n      jump\t// out\n        /* \"#utility.yul\":7214:7580   */\n    tag_144:\n        /* \"#utility.yul\":7356:7359   */\n      0x00\n        /* \"#utility.yul\":7377:7444   */\n      tag_230\n        /* \"#utility.yul\":7441:7443   */\n      0x2f\n        /* \"#utility.yul\":7436:7439   */\n      dup4\n        /* \"#utility.yul\":7377:7444   */\n      tag_136\n      jump\t// in\n    tag_230:\n        /* \"#utility.yul\":7370:7444   */\n      swap2\n      pop\n        /* \"#utility.yul\":7453:7546   */\n      tag_231\n        /* \"#utility.yul\":7542:7545   */\n      dup3\n        /* \"#utility.yul\":7453:7546   */\n      tag_143\n      jump\t// in\n    tag_231:\n        /* \"#utility.yul\":7571:7573   */\n      0x40\n        /* \"#utility.yul\":7566:7569   */\n      dup3\n        /* \"#utility.yul\":7562:7574   */\n      add\n        /* \"#utility.yul\":7555:7574   */\n      swap1\n      pop\n        /* \"#utility.yul\":7214:7580   */\n      swap2\n      swap1\n      pop\n      jump\t// out\n        /* \"#utility.yul\":7586:8005   */\n    tag_92:\n        /* \"#utility.yul\":7752:7756   */\n      0x00\n        /* \"#utility.yul\":7790:7792   */\n      0x20\n        /* \"#utility.yul\":7779:7788   */\n      dup3\n        /* \"#utility.yul\":7775:7793   */\n      add\n        /* \"#utility.yul\":7767:7793   */\n      swap1\n      pop\n        /* \"#utility.yul\":7839:7848   */\n      dup2\n        /* \"#utility.yul\":7833:7837   */\n      dup2\n        /* \"#utility.yul\":7829:7849   */\n      sub\n        /* \"#utility.yul\":7825:7826   */\n      0x00\n        /* \"#utility.yul\":7814:7823   */\n      dup4\n        /* \"#utility.yul\":7810:7827   */\n      add\n        /* \"#utility.yul\":7803:7850   */\n      mstore\n        /* \"#utility.yul\":7867:7998   */\n      tag_233\n        /* \"#utility.yul\":7993:7997   */\n      dup2\n        /* \"#utility.yul\":7867:7998   */\n      tag_144\n      jump\t// in\n    tag_233:\n        /* \"#utility.yul\":7859:7998   */\n      swap1\n      pop\n        /* \"#utility.yul\":7586:8005   */\n      swap2\n      swap1\n      pop\n      jump\t// out\n        /* \"#utility.yul\":8011:8241   */\n    tag_145:\n        /* \"#utility.yul\":8151:8185   */\n      0x4552524f5220325f5468652073656e6465722063616e6e6f7420626520746865\n        /* \"#utility.yul\":8147:8148   */\n      0x00\n        /* \"#utility.yul\":8139:8145   */\n      dup3\n        /* \"#utility.yul\":8135:8149   */\n      add\n        /* \"#utility.yul\":8128:8186   */\n      mstore\n        /* \"#utility.yul\":8220:8233   */\n      0x20726563697069656e742e000000000000000000000000000000000000000000\n        /* \"#utility.yul\":8215:8217   */\n      0x20\n        /* \"#utility.yul\":8207:8213   */\n      dup3\n        /* \"#utility.yul\":8203:8218   */\n      add\n        /* \"#utility.yul\":8196:8234   */\n      mstore\n        /* \"#utility.yul\":8011:8241   */\n      pop\n      jump\t// out\n        /* \"#utility.yul\":8247:8613   */\n    tag_146:\n        /* \"#utility.yul\":8389:8392   */\n      0x00\n        /* \"#utility.yul\":8410:8477   */\n      tag_236\n        /* \"#utility.yul\":8474:8476   */\n      0x2b\n        /* \"#utility.yul\":8469:8472   */\n      dup4\n        /* \"#utility.yul\":8410:8477   */\n      tag_136\n      jump\t// in\n    tag_236:\n        /* \"#utility.yul\":8403:8477   */\n      swap2\n      pop\n        /* \"#utility.yul\":8486:8579   */\n      tag_237\n        /* \"#utility.yul\":8575:8578   */\n      dup3\n        /* \"#utility.yul\":8486:8579   */\n      tag_145\n      jump\t// in\n    tag_237:\n        /* \"#utility.yul\":8604:8606   */\n      0x40\n        /* \"#utility.yul\":8599:8602   */\n      dup3\n        /* \"#utility.yul\":8595:8607   */\n      add\n        /* \"#utility.yul\":8588:8607   */\n      swap1\n      pop\n        /* \"#utility.yul\":8247:8613   */\n      swap2\n      swap1\n      pop\n      jump\t// out\n        /* \"#utility.yul\":8619:9038   */\n    tag_95:\n        /* \"#utility.yul\":8785:8789   */\n      0x00\n        /* \"#utility.yul\":8823:8825   */\n      0x20\n        /* \"#utility.yul\":8812:8821   */\n      dup3\n        /* \"#utility.yul\":8808:8826   */\n      add\n        /* \"#utility.yul\":8800:8826   */\n      swap1\n      pop\n        /* \"#utility.yul\":8872:8881   */\n      dup2\n        /* \"#utility.yul\":8866:8870   */\n      dup2\n        /* \"#utility.yul\":8862:8882   */\n      sub\n        /* \"#utility.yul\":8858:8859   */\n      0x00\n        /* \"#utility.yul\":8847:8856   */\n      dup4\n        /* \"#utility.yul\":8843:8860   */\n      add\n        /* \"#utility.yul\":8836:8883   */\n      mstore\n        /* \"#utility.yul\":8900:9031   */\n      tag_239\n        /* \"#utility.yul\":9026:9030   */\n      dup2\n        /* \"#utility.yul\":8900:9031   */\n      tag_146\n      jump\t// in\n    tag_239:\n        /* \"#utility.yul\":8892:9031   */\n      swap1\n      pop\n        /* \"#utility.yul\":8619:9038   */\n      swap2\n      swap1\n      pop\n      jump\t// out\n        /* \"#utility.yul\":9044:9293   */\n    tag_147:\n        /* \"#utility.yul\":9184:9218   */\n      0x4552524f5220335f596f7520617265206e6f7420616e206f776e657220616e64\n        /* \"#utility.yul\":9180:9181   */\n      0x00\n        /* \"#utility.yul\":9172:9178   */\n      dup3\n        /* \"#utility.yul\":9168:9182   */\n      add\n        /* \"#utility.yul\":9161:9219   */\n      mstore\n        /* \"#utility.yul\":9253:9285   */\n      0x206e6f7420616c6c6f77656420746f206d616b65207472616e736665722e0000\n        /* \"#utility.yul\":9248:9250   */\n      0x20\n        /* \"#utility.yul\":9240:9246   */\n      dup3\n        /* \"#utility.yul\":9236:9251   */\n      add\n        /* \"#utility.yul\":9229:9286   */\n      mstore\n        /* \"#utility.yul\":9044:9293   */\n      pop\n      jump\t// out\n        /* \"#utility.yul\":9299:9665   */\n    tag_148:\n        /* \"#utility.yul\":9441:9444   */\n      0x00\n        /* \"#utility.yul\":9462:9529   */\n      tag_242\n        /* \"#utility.yul\":9526:9528   */\n      0x3e\n        /* \"#utility.yul\":9521:9524   */\n      dup4\n        /* \"#utility.yul\":9462:9529   */\n      tag_136\n      jump\t// in\n    tag_242:\n        /* \"#utility.yul\":9455:9529   */\n      swap2\n      pop\n        /* \"#utility.yul\":9538:9631   */\n      tag_243\n        /* \"#utility.yul\":9627:9630   */\n      dup3\n        /* \"#utility.yul\":9538:9631   */\n      tag_147\n      jump\t// in\n    tag_243:\n        /* \"#utility.yul\":9656:9658   */\n      0x40\n        /* \"#utility.yul\":9651:9654   */\n      dup3\n        /* \"#utility.yul\":9647:9659   */\n      add\n        /* \"#utility.yul\":9640:9659   */\n      swap1\n      pop\n        /* \"#utility.yul\":9299:9665   */\n      swap2\n      swap1\n      pop\n      jump\t// out\n        /* \"#utility.yul\":9671:10090   */\n    tag_99:\n        /* \"#utility.yul\":9837:9841   */\n      0x00\n        /* \"#utility.yul\":9875:9877   */\n      0x20\n        /* \"#utility.yul\":9864:9873   */\n      dup3\n        /* \"#utility.yul\":9860:9878   */\n      add\n        /* \"#utility.yul\":9852:9878   */\n      swap1\n      pop\n        /* \"#utility.yul\":9924:9933   */\n      dup2\n        /* \"#utility.yul\":9918:9922   */\n      dup2\n        /* \"#utility.yul\":9914:9934   */\n      sub\n        /* \"#utility.yul\":9910:9911   */\n      0x00\n        /* \"#utility.yul\":9899:9908   */\n      dup4\n        /* \"#utility.yul\":9895:9912   */\n      add\n        /* \"#utility.yul\":9888:9935   */\n      mstore\n        /* \"#utility.yul\":9952:10083   */\n      tag_245\n        /* \"#utility.yul\":10078:10082   */\n      dup2\n        /* \"#utility.yul\":9952:10083   */\n      tag_148\n      jump\t// in\n    tag_245:\n        /* \"#utility.yul\":9944:10083   */\n      swap1\n      pop\n        /* \"#utility.yul\":9671:10090   */\n      swap2\n      swap1\n      pop\n      jump\t// out\n        /* \"#utility.yul\":10096:10276   */\n    tag_105:\n        /* \"#utility.yul\":10144:10221   */\n      0x4e487b7100000000000000000000000000000000000000000000000000000000\n        /* \"#utility.yul\":10141:10142   */\n      0x00\n        /* \"#utility.yul\":10134:10222   */\n      mstore\n        /* \"#utility.yul\":10241:10245   */\n      0x01\n        /* \"#utility.yul\":10238:10239   */\n      0x04\n        /* \"#utility.yul\":10231:10246   */\n      mstore\n        /* \"#utility.yul\":10265:10269   */\n      0x24\n        /* \"#utility.yul\":10262:10263   */\n      0x00\n        /* \"#utility.yul\":10255:10270   */\n      revert\n        /* \"#utility.yul\":10282:10455   */\n    tag_149:\n        /* \"#utility.yul\":10422:10447   */\n      0x4e6f74206f776e6572206f66206f776e65726c6973742e000000000000000000\n        /* \"#utility.yul\":10418:10419   */\n      0x00\n        /* \"#utility.yul\":10410:10416   */\n      dup3\n        /* \"#utility.yul\":10406:10420   */\n      add\n        /* \"#utility.yul\":10399:10448   */\n      mstore\n        /* \"#utility.yul\":10282:10455   */\n      pop\n      jump\t// out\n        /* \"#utility.yul\":10461:10827   */\n    tag_150:\n        /* \"#utility.yul\":10603:10606   */\n      0x00\n        /* \"#utility.yul\":10624:10691   */\n      tag_249\n        /* \"#utility.yul\":10688:10690   */\n      0x17\n        /* \"#utility.yul\":10683:10686   */\n      dup4\n        /* \"#utility.yul\":10624:10691   */\n      tag_136\n      jump\t// in\n    tag_249:\n        /* \"#utility.yul\":10617:10691   */\n      swap2\n      pop\n        /* \"#utility.yul\":10700:10793   */\n      tag_250\n        /* \"#utility.yul\":10789:10792   */\n      dup3\n        /* \"#utility.yul\":10700:10793   */\n      tag_149\n      jump\t// in\n    tag_250:\n        /* \"#utility.yul\":10818:10820   */\n      0x20\n        /* \"#utility.yul\":10813:10816   */\n      dup3\n        /* \"#utility.yul\":10809:10821   */\n      add\n        /* \"#utility.yul\":10802:10821   */\n      swap1\n      pop\n        /* \"#utility.yul\":10461:10827   */\n      swap2\n      swap1\n      pop\n      jump\t// out\n        /* \"#utility.yul\":10833:11252   */\n    tag_112:\n        /* \"#utility.yul\":10999:11003   */\n      0x00\n        /* \"#utility.yul\":11037:11039   */\n      0x20\n        /* \"#utility.yul\":11026:11035   */\n      dup3\n        /* \"#utility.yul\":11022:11040   */\n      add\n        /* \"#utility.yul\":11014:11040   */\n      swap1\n      pop\n        /* \"#utility.yul\":11086:11095   */\n      dup2\n        /* \"#utility.yul\":11080:11084   */\n      dup2\n        /* \"#utility.yul\":11076:11096   */\n      sub\n        /* \"#utility.yul\":11072:11073   */\n      0x00\n        /* \"#utility.yul\":11061:11070   */\n      dup4\n        /* \"#utility.yul\":11057:11074   */\n      add\n        /* \"#utility.yul\":11050:11097   */\n      mstore\n        /* \"#utility.yul\":11114:11245   */\n      tag_252\n        /* \"#utility.yul\":11240:11244   */\n      dup2\n        /* \"#utility.yul\":11114:11245   */\n      tag_150\n      jump\t// in\n    tag_252:\n        /* \"#utility.yul\":11106:11245   */\n      swap1\n      pop\n        /* \"#utility.yul\":10833:11252   */\n      swap2\n      swap1\n      pop\n      jump\t// out\n        /* \"#utility.yul\":11258:11563   */\n    tag_116:\n        /* \"#utility.yul\":11298:11301   */\n      0x00\n        /* \"#utility.yul\":11317:11337   */\n      tag_254\n        /* \"#utility.yul\":11335:11336   */\n      dup3\n        /* \"#utility.yul\":11317:11337   */\n      tag_120\n      jump\t// in\n    tag_254:\n        /* \"#utility.yul\":11312:11337   */\n      swap2\n      pop\n        /* \"#utility.yul\":11351:11371   */\n      tag_255\n        /* \"#utility.yul\":11369:11370   */\n      dup4\n        /* \"#utility.yul\":11351:11371   */\n      tag_120\n      jump\t// in\n    tag_255:\n        /* \"#utility.yul\":11346:11371   */\n      swap3\n      pop\n        /* \"#utility.yul\":11505:11506   */\n      dup3\n        /* \"#utility.yul\":11437:11503   */\n      0xffffffffffffffffffffffffffffffffffffffffffffffffffffffffffffffff\n        /* \"#utility.yul\":11433:11507   */\n      sub\n        /* \"#utility.yul\":11430:11431   */\n      dup3\n        /* \"#utility.yul\":11427:11508   */\n      gt\n        /* \"#utility.yul\":11424:11531   */\n      iszero\n      tag_256\n      jumpi\n        /* \"#utility.yul\":11511:11529   */\n      tag_257\n      tag_139\n      jump\t// in\n    tag_257:\n        /* \"#utility.yul\":11424:11531   */\n    tag_256:\n        /* \"#utility.yul\":11555:11556   */\n      dup3\n        /* \"#utility.yul\":11552:11553   */\n      dup3\n        /* \"#utility.yul\":11548:11557   */\n      add\n        /* \"#utility.yul\":11541:11557   */\n      swap1\n      pop\n        /* \"#utility.yul\":11258:11563   */\n      swap3\n      swap2\n      pop\n      pop\n      jump\t// out\n\n    auxdata: 0xa2646970667358221220ef0d7b4649bcac345975a3ee9a5493f786d1d95e51b1d3708a55567ed03200ad64736f6c634300080d0033\n}\n",
				"bytecode": {
					"linkReferences": {},
					"object": "608060405234801561001057600080fd5b50336000806101000a81548173ffffffffffffffffffffffffffffffffffffffff021916908373ffffffffffffffffffffffffffffffffffffffff160217905550611237806100606000396000f3fe6080604052600436106100915760003560e01c80634ecd7b0a116100595780634ecd7b0a1461018f5780635f3b1f3b146101cc578063a9059cbb146101f5578063b64c14fe1461021e578063d0e30db01461024757610091565b806312065fe0146100965780631cd9aa0e146100c15780632d442e04146100ec5780632e1a7d4d146101155780632f54bf6e14610152575b600080fd5b3480156100a257600080fd5b506100ab610265565b6040516100b89190610b99565b60405180910390f35b3480156100cd57600080fd5b506100d66102ac565b6040516100e39190610b99565b60405180910390f35b3480156100f857600080fd5b50610113600480360381019061010e9190610be5565b6102b6565b005b34801561012157600080fd5b5061013c60048036038101906101379190610be5565b610318565b6040516101499190610b99565b60405180910390f35b34801561015e57600080fd5b5061017960048036038101906101749190610c70565b610480565b6040516101869190610cb8565b60405180910390f35b34801561019b57600080fd5b506101b660048036038101906101b19190610d09565b6104d6565b6040516101c39190610b99565b60405180910390f35b3480156101d857600080fd5b506101f360048036038101906101ee9190610c70565b6104fa565b005b34801561020157600080fd5b5061021c60048036038101906102179190610d36565b61062c565b005b34801561022a57600080fd5b5061024560048036038101906102409190610c70565b6108c5565b005b61024f6109ee565b60405161025c9190610b99565b60405180910390f35b6000600460003373ffffffffffffffffffffffffffffffffffffffff1673ffffffffffffffffffffffffffffffffffffffff16815260200190815260200160002054905090565b6000600354905090565b60008054906101000a900473ffffffffffffffffffffffffffffffffffffffff1673ffffffffffffffffffffffffffffffffffffffff163373ffffffffffffffffffffffffffffffffffffffff161461030e57600080fd5b8060038190555050565b600081600460003373ffffffffffffffffffffffffffffffffffffffff1673ffffffffffffffffffffffffffffffffffffffff16815260200190815260200160002054101561039c576040517f08c379a000000000000000000000000000000000000000000000000000000000815260040161039390610df9565b60405180910390fd5b3373ffffffffffffffffffffffffffffffffffffffff166108fc839081150290604051600060405180830381858888f193505050501580156103e2573d6000803e3d6000fd5b5081600460003373ffffffffffffffffffffffffffffffffffffffff1673ffffffffffffffffffffffffffffffffffffffff16815260200190815260200160002060008282546104329190610e48565b92505081905550600460003373ffffffffffffffffffffffffffffffffffffffff1673ffffffffffffffffffffffffffffffffffffffff168152602001908152602001600020549050919050565b6000600160008373ffffffffffffffffffffffffffffffffffffffff1673ffffffffffffffffffffffffffffffffffffffff16815260200190815260200160002060009054906101000a900460ff169050919050565b6000600260008154809291906104eb90610e7c565b91905055506002549050919050565b60008054906101000a900473ffffffffffffffffffffffffffffffffffffffff1673ffffffffffffffffffffffffffffffffffffffff163373ffffffffffffffffffffffffffffffffffffffff161461055257600080fd5b61055b81610480565b1561059b576040517f08c379a000000000000000000000000000000000000000000000000000000000815260040161059290610f10565b60405180910390fd5b60018060008373ffffffffffffffffffffffffffffffffffffffff1673ffffffffffffffffffffffffffffffffffffffff16815260200190815260200160002060006101000a81548160ff0219169083151502179055507f994a936646fe87ffe4f1e469d3d6aa417d6b855598397f323de5b449f765f0c3816040516106219190610f3f565b60405180910390a150565b60008054906101000a900473ffffffffffffffffffffffffffffffffffffffff1673ffffffffffffffffffffffffffffffffffffffff163373ffffffffffffffffffffffffffffffffffffffff161461068457600080fd5b80600460003373ffffffffffffffffffffffffffffffffffffffff1673ffffffffffffffffffffffffffffffffffffffff168152602001908152602001600020541015610706576040517f08c379a00000000000000000000000000000000000000000000000000000000081526004016106fd90610fcc565b60405180910390fd5b8173ffffffffffffffffffffffffffffffffffffffff163373ffffffffffffffffffffffffffffffffffffffff1603610774576040517f08c379a000000000000000000000000000000000000000000000000000000000815260040161076b9061105e565b60405180910390fd5b61077d33610480565b6107bc576040517f08c379a00000000000000000000000000000000000000000000000000000000081526004016107b3906110f0565b60405180910390fd5b6000600460003373ffffffffffffffffffffffffffffffffffffffff1673ffffffffffffffffffffffffffffffffffffffff16815260200190815260200160002054905061080b338484610acf565b818373ffffffffffffffffffffffffffffffffffffffff163373ffffffffffffffffffffffffffffffffffffffff167f3573881c639e018e0c3ba3a7d19063f6a7a8205d54eb828319a7f98db00426a060405160405180910390a481816108729190610e48565b600460003373ffffffffffffffffffffffffffffffffffffffff1673ffffffffffffffffffffffffffffffffffffffff16815260200190815260200160002054146108c0576108bf611110565b5b505050565b60008054906101000a900473ffffffffffffffffffffffffffffffffffffffff1673ffffffffffffffffffffffffffffffffffffffff163373ffffffffffffffffffffffffffffffffffffffff161461091d57600080fd5b61092681610480565b610965576040517f08c379a000000000000000000000000000000000000000000000000000000000815260040161095c9061118b565b60405180910390fd5b600160008273ffffffffffffffffffffffffffffffffffffffff1673ffffffffffffffffffffffffffffffffffffffff16815260200190815260200160002060006101000a81549060ff02191690557f58619076adf5bb0943d100ef88d52d7c3fd691b19d3a9071b555b651fbf418da816040516109e39190610f3f565b60405180910390a150565b600034600460003373ffffffffffffffffffffffffffffffffffffffff1673ffffffffffffffffffffffffffffffffffffffff1681526020019081526020016000206000828254610a3f91906111ab565b925050819055503373ffffffffffffffffffffffffffffffffffffffff16347fa23831066066ec8812cc52afc91a52134a8b50c9209b68c276be679f4073d95d60405160405180910390a3600460003373ffffffffffffffffffffffffffffffffffffffff1673ffffffffffffffffffffffffffffffffffffffff16815260200190815260200160002054905090565b80600460008573ffffffffffffffffffffffffffffffffffffffff1673ffffffffffffffffffffffffffffffffffffffff1681526020019081526020016000206000828254610b1e9190610e48565b9250508190555080600460008473ffffffffffffffffffffffffffffffffffffffff1673ffffffffffffffffffffffffffffffffffffffff1681526020019081526020016000206000828254610b7491906111ab565b92505081905550505050565b6000819050919050565b610b9381610b80565b82525050565b6000602082019050610bae6000830184610b8a565b92915050565b600080fd5b610bc281610b80565b8114610bcd57600080fd5b50565b600081359050610bdf81610bb9565b92915050565b600060208284031215610bfb57610bfa610bb4565b5b6000610c0984828501610bd0565b91505092915050565b600073ffffffffffffffffffffffffffffffffffffffff82169050919050565b6000610c3d82610c12565b9050919050565b610c4d81610c32565b8114610c5857600080fd5b50565b600081359050610c6a81610c44565b92915050565b600060208284031215610c8657610c85610bb4565b5b6000610c9484828501610c5b565b91505092915050565b60008115159050919050565b610cb281610c9d565b82525050565b6000602082019050610ccd6000830184610ca9565b92915050565b6000819050919050565b610ce681610cd3565b8114610cf157600080fd5b50565b600081359050610d0381610cdd565b92915050565b600060208284031215610d1f57610d1e610bb4565b5b6000610d2d84828501610cf4565b91505092915050565b60008060408385031215610d4d57610d4c610bb4565b5b6000610d5b85828601610c5b565b9250506020610d6c85828601610bd0565b9150509250929050565b600082825260208201905092915050565b7f4552524f5220315f496e73756666696369656e742062616c616e636520746f2060008201527f77697468647261772066756e64732e0000000000000000000000000000000000602082015250565b6000610de3602f83610d76565b9150610dee82610d87565b604082019050919050565b60006020820190508181036000830152610e1281610dd6565b9050919050565b7f4e487b7100000000000000000000000000000000000000000000000000000000600052601160045260246000fd5b6000610e5382610b80565b9150610e5e83610b80565b925082821015610e7157610e70610e19565b5b828203905092915050565b6000610e8782610b80565b91507fffffffffffffffffffffffffffffffffffffffffffffffffffffffffffffffff8203610eb957610eb8610e19565b5b600182019050919050565b7f41646472657373206973206f776e657220616c72656164792e00000000000000600082015250565b6000610efa601983610d76565b9150610f0582610ec4565b602082019050919050565b60006020820190508181036000830152610f2981610eed565b9050919050565b610f3981610c32565b82525050565b6000602082019050610f546000830184610f30565b92915050565b7f4552524f5220315f496e73756666696369656e742062616c616e636520746f2060008201527f7472616e736665722066756e64732e0000000000000000000000000000000000602082015250565b6000610fb6602f83610d76565b9150610fc182610f5a565b604082019050919050565b60006020820190508181036000830152610fe581610fa9565b9050919050565b7f4552524f5220325f5468652073656e6465722063616e6e6f742062652074686560008201527f20726563697069656e742e000000000000000000000000000000000000000000602082015250565b6000611048602b83610d76565b915061105382610fec565b604082019050919050565b600060208201905081810360008301526110778161103b565b9050919050565b7f4552524f5220335f596f7520617265206e6f7420616e206f776e657220616e6460008201527f206e6f7420616c6c6f77656420746f206d616b65207472616e736665722e0000602082015250565b60006110da603e83610d76565b91506110e58261107e565b604082019050919050565b60006020820190508181036000830152611109816110cd565b9050919050565b7f4e487b7100000000000000000000000000000000000000000000000000000000600052600160045260246000fd5b7f4e6f74206f776e6572206f66206f776e65726c6973742e000000000000000000600082015250565b6000611175601783610d76565b91506111808261113f565b602082019050919050565b600060208201905081810360008301526111a481611168565b9050919050565b60006111b682610b80565b91506111c183610b80565b9250827fffffffffffffffffffffffffffffffffffffffffffffffffffffffffffffffff038211156111f6576111f5610e19565b5b82820190509291505056fea2646970667358221220ef0d7b4649bcac345975a3ee9a5493f786d1d95e51b1d3708a55567ed03200ad64736f6c634300080d0033",
					"opcodes": "PUSH1 0x80 PUSH1 0x40 MSTORE CALLVALUE DUP1 ISZERO PUSH2 0x10 JUMPI PUSH1 0x0 DUP1 REVERT JUMPDEST POP CALLER PUSH1 0x0 DUP1 PUSH2 0x100 EXP DUP2 SLOAD DUP2 PUSH20 0xFFFFFFFFFFFFFFFFFFFFFFFFFFFFFFFFFFFFFFFF MUL NOT AND SWAP1 DUP4 PUSH20 0xFFFFFFFFFFFFFFFFFFFFFFFFFFFFFFFFFFFFFFFF AND MUL OR SWAP1 SSTORE POP PUSH2 0x1237 DUP1 PUSH2 0x60 PUSH1 0x0 CODECOPY PUSH1 0x0 RETURN INVALID PUSH1 0x80 PUSH1 0x40 MSTORE PUSH1 0x4 CALLDATASIZE LT PUSH2 0x91 JUMPI PUSH1 0x0 CALLDATALOAD PUSH1 0xE0 SHR DUP1 PUSH4 0x4ECD7B0A GT PUSH2 0x59 JUMPI DUP1 PUSH4 0x4ECD7B0A EQ PUSH2 0x18F JUMPI DUP1 PUSH4 0x5F3B1F3B EQ PUSH2 0x1CC JUMPI DUP1 PUSH4 0xA9059CBB EQ PUSH2 0x1F5 JUMPI DUP1 PUSH4 0xB64C14FE EQ PUSH2 0x21E JUMPI DUP1 PUSH4 0xD0E30DB0 EQ PUSH2 0x247 JUMPI PUSH2 0x91 JUMP JUMPDEST DUP1 PUSH4 0x12065FE0 EQ PUSH2 0x96 JUMPI DUP1 PUSH4 0x1CD9AA0E EQ PUSH2 0xC1 JUMPI DUP1 PUSH4 0x2D442E04 EQ PUSH2 0xEC JUMPI DUP1 PUSH4 0x2E1A7D4D EQ PUSH2 0x115 JUMPI DUP1 PUSH4 0x2F54BF6E EQ PUSH2 0x152 JUMPI JUMPDEST PUSH1 0x0 DUP1 REVERT JUMPDEST CALLVALUE DUP1 ISZERO PUSH2 0xA2 JUMPI PUSH1 0x0 DUP1 REVERT JUMPDEST POP PUSH2 0xAB PUSH2 0x265 JUMP JUMPDEST PUSH1 0x40 MLOAD PUSH2 0xB8 SWAP2 SWAP1 PUSH2 0xB99 JUMP JUMPDEST PUSH1 0x40 MLOAD DUP1 SWAP2 SUB SWAP1 RETURN JUMPDEST CALLVALUE DUP1 ISZERO PUSH2 0xCD JUMPI PUSH1 0x0 DUP1 REVERT JUMPDEST POP PUSH2 0xD6 PUSH2 0x2AC JUMP JUMPDEST PUSH1 0x40 MLOAD PUSH2 0xE3 SWAP2 SWAP1 PUSH2 0xB99 JUMP JUMPDEST PUSH1 0x40 MLOAD DUP1 SWAP2 SUB SWAP1 RETURN JUMPDEST CALLVALUE DUP1 ISZERO PUSH2 0xF8 JUMPI PUSH1 0x0 DUP1 REVERT JUMPDEST POP PUSH2 0x113 PUSH1 0x4 DUP1 CALLDATASIZE SUB DUP2 ADD SWAP1 PUSH2 0x10E SWAP2 SWAP1 PUSH2 0xBE5 JUMP JUMPDEST PUSH2 0x2B6 JUMP JUMPDEST STOP JUMPDEST CALLVALUE DUP1 ISZERO PUSH2 0x121 JUMPI PUSH1 0x0 DUP1 REVERT JUMPDEST POP PUSH2 0x13C PUSH1 0x4 DUP1 CALLDATASIZE SUB DUP2 ADD SWAP1 PUSH2 0x137 SWAP2 SWAP1 PUSH2 0xBE5 JUMP JUMPDEST PUSH2 0x318 JUMP JUMPDEST PUSH1 0x40 MLOAD PUSH2 0x149 SWAP2 SWAP1 PUSH2 0xB99 JUMP JUMPDEST PUSH1 0x40 MLOAD DUP1 SWAP2 SUB SWAP1 RETURN JUMPDEST CALLVALUE DUP1 ISZERO PUSH2 0x15E JUMPI PUSH1 0x0 DUP1 REVERT JUMPDEST POP PUSH2 0x179 PUSH1 0x4 DUP1 CALLDATASIZE SUB DUP2 ADD SWAP1 PUSH2 0x174 SWAP2 SWAP1 PUSH2 0xC70 JUMP JUMPDEST PUSH2 0x480 JUMP JUMPDEST PUSH1 0x40 MLOAD PUSH2 0x186 SWAP2 SWAP1 PUSH2 0xCB8 JUMP JUMPDEST PUSH1 0x40 MLOAD DUP1 SWAP2 SUB SWAP1 RETURN JUMPDEST CALLVALUE DUP1 ISZERO PUSH2 0x19B JUMPI PUSH1 0x0 DUP1 REVERT JUMPDEST POP PUSH2 0x1B6 PUSH1 0x4 DUP1 CALLDATASIZE SUB DUP2 ADD SWAP1 PUSH2 0x1B1 SWAP2 SWAP1 PUSH2 0xD09 JUMP JUMPDEST PUSH2 0x4D6 JUMP JUMPDEST PUSH1 0x40 MLOAD PUSH2 0x1C3 SWAP2 SWAP1 PUSH2 0xB99 JUMP JUMPDEST PUSH1 0x40 MLOAD DUP1 SWAP2 SUB SWAP1 RETURN JUMPDEST CALLVALUE DUP1 ISZERO PUSH2 0x1D8 JUMPI PUSH1 0x0 DUP1 REVERT JUMPDEST POP PUSH2 0x1F3 PUSH1 0x4 DUP1 CALLDATASIZE SUB DUP2 ADD SWAP1 PUSH2 0x1EE SWAP2 SWAP1 PUSH2 0xC70 JUMP JUMPDEST PUSH2 0x4FA JUMP JUMPDEST STOP JUMPDEST CALLVALUE DUP1 ISZERO PUSH2 0x201 JUMPI PUSH1 0x0 DUP1 REVERT JUMPDEST POP PUSH2 0x21C PUSH1 0x4 DUP1 CALLDATASIZE SUB DUP2 ADD SWAP1 PUSH2 0x217 SWAP2 SWAP1 PUSH2 0xD36 JUMP JUMPDEST PUSH2 0x62C JUMP JUMPDEST STOP JUMPDEST CALLVALUE DUP1 ISZERO PUSH2 0x22A JUMPI PUSH1 0x0 DUP1 REVERT JUMPDEST POP PUSH2 0x245 PUSH1 0x4 DUP1 CALLDATASIZE SUB DUP2 ADD SWAP1 PUSH2 0x240 SWAP2 SWAP1 PUSH2 0xC70 JUMP JUMPDEST PUSH2 0x8C5 JUMP JUMPDEST STOP JUMPDEST PUSH2 0x24F PUSH2 0x9EE JUMP JUMPDEST PUSH1 0x40 MLOAD PUSH2 0x25C SWAP2 SWAP1 PUSH2 0xB99 JUMP JUMPDEST PUSH1 0x40 MLOAD DUP1 SWAP2 SUB SWAP1 RETURN JUMPDEST PUSH1 0x0 PUSH1 0x4 PUSH1 0x0 CALLER PUSH20 0xFFFFFFFFFFFFFFFFFFFFFFFFFFFFFFFFFFFFFFFF AND PUSH20 0xFFFFFFFFFFFFFFFFFFFFFFFFFFFFFFFFFFFFFFFF AND DUP2 MSTORE PUSH1 0x20 ADD SWAP1 DUP2 MSTORE PUSH1 0x20 ADD PUSH1 0x0 KECCAK256 SLOAD SWAP1 POP SWAP1 JUMP JUMPDEST PUSH1 0x0 PUSH1 0x3 SLOAD SWAP1 POP SWAP1 JUMP JUMPDEST PUSH1 0x0 DUP1 SLOAD SWAP1 PUSH2 0x100 EXP SWAP1 DIV PUSH20 0xFFFFFFFFFFFFFFFFFFFFFFFFFFFFFFFFFFFFFFFF AND PUSH20 0xFFFFFFFFFFFFFFFFFFFFFFFFFFFFFFFFFFFFFFFF AND CALLER PUSH20 0xFFFFFFFFFFFFFFFFFFFFFFFFFFFFFFFFFFFFFFFF AND EQ PUSH2 0x30E JUMPI PUSH1 0x0 DUP1 REVERT JUMPDEST DUP1 PUSH1 0x3 DUP2 SWAP1 SSTORE POP POP JUMP JUMPDEST PUSH1 0x0 DUP2 PUSH1 0x4 PUSH1 0x0 CALLER PUSH20 0xFFFFFFFFFFFFFFFFFFFFFFFFFFFFFFFFFFFFFFFF AND PUSH20 0xFFFFFFFFFFFFFFFFFFFFFFFFFFFFFFFFFFFFFFFF AND DUP2 MSTORE PUSH1 0x20 ADD SWAP1 DUP2 MSTORE PUSH1 0x20 ADD PUSH1 0x0 KECCAK256 SLOAD LT ISZERO PUSH2 0x39C JUMPI PUSH1 0x40 MLOAD PUSH32 0x8C379A000000000000000000000000000000000000000000000000000000000 DUP2 MSTORE PUSH1 0x4 ADD PUSH2 0x393 SWAP1 PUSH2 0xDF9 JUMP JUMPDEST PUSH1 0x40 MLOAD DUP1 SWAP2 SUB SWAP1 REVERT JUMPDEST CALLER PUSH20 0xFFFFFFFFFFFFFFFFFFFFFFFFFFFFFFFFFFFFFFFF AND PUSH2 0x8FC DUP4 SWAP1 DUP2 ISZERO MUL SWAP1 PUSH1 0x40 MLOAD PUSH1 0x0 PUSH1 0x40 MLOAD DUP1 DUP4 SUB DUP2 DUP6 DUP9 DUP9 CALL SWAP4 POP POP POP POP ISZERO DUP1 ISZERO PUSH2 0x3E2 JUMPI RETURNDATASIZE PUSH1 0x0 DUP1 RETURNDATACOPY RETURNDATASIZE PUSH1 0x0 REVERT JUMPDEST POP DUP2 PUSH1 0x4 PUSH1 0x0 CALLER PUSH20 0xFFFFFFFFFFFFFFFFFFFFFFFFFFFFFFFFFFFFFFFF AND PUSH20 0xFFFFFFFFFFFFFFFFFFFFFFFFFFFFFFFFFFFFFFFF AND DUP2 MSTORE PUSH1 0x20 ADD SWAP1 DUP2 MSTORE PUSH1 0x20 ADD PUSH1 0x0 KECCAK256 PUSH1 0x0 DUP3 DUP3 SLOAD PUSH2 0x432 SWAP2 SWAP1 PUSH2 0xE48 JUMP JUMPDEST SWAP3 POP POP DUP2 SWAP1 SSTORE POP PUSH1 0x4 PUSH1 0x0 CALLER PUSH20 0xFFFFFFFFFFFFFFFFFFFFFFFFFFFFFFFFFFFFFFFF AND PUSH20 0xFFFFFFFFFFFFFFFFFFFFFFFFFFFFFFFFFFFFFFFF AND DUP2 MSTORE PUSH1 0x20 ADD SWAP1 DUP2 MSTORE PUSH1 0x20 ADD PUSH1 0x0 KECCAK256 SLOAD SWAP1 POP SWAP2 SWAP1 POP JUMP JUMPDEST PUSH1 0x0 PUSH1 0x1 PUSH1 0x0 DUP4 PUSH20 0xFFFFFFFFFFFFFFFFFFFFFFFFFFFFFFFFFFFFFFFF AND PUSH20 0xFFFFFFFFFFFFFFFFFFFFFFFFFFFFFFFFFFFFFFFF AND DUP2 MSTORE PUSH1 0x20 ADD SWAP1 DUP2 MSTORE PUSH1 0x20 ADD PUSH1 0x0 KECCAK256 PUSH1 0x0 SWAP1 SLOAD SWAP1 PUSH2 0x100 EXP SWAP1 DIV PUSH1 0xFF AND SWAP1 POP SWAP2 SWAP1 POP JUMP JUMPDEST PUSH1 0x0 PUSH1 0x2 PUSH1 0x0 DUP2 SLOAD DUP1 SWAP3 SWAP2 SWAP1 PUSH2 0x4EB SWAP1 PUSH2 0xE7C JUMP JUMPDEST SWAP2 SWAP1 POP SSTORE POP PUSH1 0x2 SLOAD SWAP1 POP SWAP2 SWAP1 POP JUMP JUMPDEST PUSH1 0x0 DUP1 SLOAD SWAP1 PUSH2 0x100 EXP SWAP1 DIV PUSH20 0xFFFFFFFFFFFFFFFFFFFFFFFFFFFFFFFFFFFFFFFF AND PUSH20 0xFFFFFFFFFFFFFFFFFFFFFFFFFFFFFFFFFFFFFFFF AND CALLER PUSH20 0xFFFFFFFFFFFFFFFFFFFFFFFFFFFFFFFFFFFFFFFF AND EQ PUSH2 0x552 JUMPI PUSH1 0x0 DUP1 REVERT JUMPDEST PUSH2 0x55B DUP2 PUSH2 0x480 JUMP JUMPDEST ISZERO PUSH2 0x59B JUMPI PUSH1 0x40 MLOAD PUSH32 0x8C379A000000000000000000000000000000000000000000000000000000000 DUP2 MSTORE PUSH1 0x4 ADD PUSH2 0x592 SWAP1 PUSH2 0xF10 JUMP JUMPDEST PUSH1 0x40 MLOAD DUP1 SWAP2 SUB SWAP1 REVERT JUMPDEST PUSH1 0x1 DUP1 PUSH1 0x0 DUP4 PUSH20 0xFFFFFFFFFFFFFFFFFFFFFFFFFFFFFFFFFFFFFFFF AND PUSH20 0xFFFFFFFFFFFFFFFFFFFFFFFFFFFFFFFFFFFFFFFF AND DUP2 MSTORE PUSH1 0x20 ADD SWAP1 DUP2 MSTORE PUSH1 0x20 ADD PUSH1 0x0 KECCAK256 PUSH1 0x0 PUSH2 0x100 EXP DUP2 SLOAD DUP2 PUSH1 0xFF MUL NOT AND SWAP1 DUP4 ISZERO ISZERO MUL OR SWAP1 SSTORE POP PUSH32 0x994A936646FE87FFE4F1E469D3D6AA417D6B855598397F323DE5B449F765F0C3 DUP2 PUSH1 0x40 MLOAD PUSH2 0x621 SWAP2 SWAP1 PUSH2 0xF3F JUMP JUMPDEST PUSH1 0x40 MLOAD DUP1 SWAP2 SUB SWAP1 LOG1 POP JUMP JUMPDEST PUSH1 0x0 DUP1 SLOAD SWAP1 PUSH2 0x100 EXP SWAP1 DIV PUSH20 0xFFFFFFFFFFFFFFFFFFFFFFFFFFFFFFFFFFFFFFFF AND PUSH20 0xFFFFFFFFFFFFFFFFFFFFFFFFFFFFFFFFFFFFFFFF AND CALLER PUSH20 0xFFFFFFFFFFFFFFFFFFFFFFFFFFFFFFFFFFFFFFFF AND EQ PUSH2 0x684 JUMPI PUSH1 0x0 DUP1 REVERT JUMPDEST DUP1 PUSH1 0x4 PUSH1 0x0 CALLER PUSH20 0xFFFFFFFFFFFFFFFFFFFFFFFFFFFFFFFFFFFFFFFF AND PUSH20 0xFFFFFFFFFFFFFFFFFFFFFFFFFFFFFFFFFFFFFFFF AND DUP2 MSTORE PUSH1 0x20 ADD SWAP1 DUP2 MSTORE PUSH1 0x20 ADD PUSH1 0x0 KECCAK256 SLOAD LT ISZERO PUSH2 0x706 JUMPI PUSH1 0x40 MLOAD PUSH32 0x8C379A000000000000000000000000000000000000000000000000000000000 DUP2 MSTORE PUSH1 0x4 ADD PUSH2 0x6FD SWAP1 PUSH2 0xFCC JUMP JUMPDEST PUSH1 0x40 MLOAD DUP1 SWAP2 SUB SWAP1 REVERT JUMPDEST DUP2 PUSH20 0xFFFFFFFFFFFFFFFFFFFFFFFFFFFFFFFFFFFFFFFF AND CALLER PUSH20 0xFFFFFFFFFFFFFFFFFFFFFFFFFFFFFFFFFFFFFFFF AND SUB PUSH2 0x774 JUMPI PUSH1 0x40 MLOAD PUSH32 0x8C379A000000000000000000000000000000000000000000000000000000000 DUP2 MSTORE PUSH1 0x4 ADD PUSH2 0x76B SWAP1 PUSH2 0x105E JUMP JUMPDEST PUSH1 0x40 MLOAD DUP1 SWAP2 SUB SWAP1 REVERT JUMPDEST PUSH2 0x77D CALLER PUSH2 0x480 JUMP JUMPDEST PUSH2 0x7BC JUMPI PUSH1 0x40 MLOAD PUSH32 0x8C379A000000000000000000000000000000000000000000000000000000000 DUP2 MSTORE PUSH1 0x4 ADD PUSH2 0x7B3 SWAP1 PUSH2 0x10F0 JUMP JUMPDEST PUSH1 0x40 MLOAD DUP1 SWAP2 SUB SWAP1 REVERT JUMPDEST PUSH1 0x0 PUSH1 0x4 PUSH1 0x0 CALLER PUSH20 0xFFFFFFFFFFFFFFFFFFFFFFFFFFFFFFFFFFFFFFFF AND PUSH20 0xFFFFFFFFFFFFFFFFFFFFFFFFFFFFFFFFFFFFFFFF AND DUP2 MSTORE PUSH1 0x20 ADD SWAP1 DUP2 MSTORE PUSH1 0x20 ADD PUSH1 0x0 KECCAK256 SLOAD SWAP1 POP PUSH2 0x80B CALLER DUP5 DUP5 PUSH2 0xACF JUMP JUMPDEST DUP2 DUP4 PUSH20 0xFFFFFFFFFFFFFFFFFFFFFFFFFFFFFFFFFFFFFFFF AND CALLER PUSH20 0xFFFFFFFFFFFFFFFFFFFFFFFFFFFFFFFFFFFFFFFF AND PUSH32 0x3573881C639E018E0C3BA3A7D19063F6A7A8205D54EB828319A7F98DB00426A0 PUSH1 0x40 MLOAD PUSH1 0x40 MLOAD DUP1 SWAP2 SUB SWAP1 LOG4 DUP2 DUP2 PUSH2 0x872 SWAP2 SWAP1 PUSH2 0xE48 JUMP JUMPDEST PUSH1 0x4 PUSH1 0x0 CALLER PUSH20 0xFFFFFFFFFFFFFFFFFFFFFFFFFFFFFFFFFFFFFFFF AND PUSH20 0xFFFFFFFFFFFFFFFFFFFFFFFFFFFFFFFFFFFFFFFF AND DUP2 MSTORE PUSH1 0x20 ADD SWAP1 DUP2 MSTORE PUSH1 0x20 ADD PUSH1 0x0 KECCAK256 SLOAD EQ PUSH2 0x8C0 JUMPI PUSH2 0x8BF PUSH2 0x1110 JUMP JUMPDEST JUMPDEST POP POP POP JUMP JUMPDEST PUSH1 0x0 DUP1 SLOAD SWAP1 PUSH2 0x100 EXP SWAP1 DIV PUSH20 0xFFFFFFFFFFFFFFFFFFFFFFFFFFFFFFFFFFFFFFFF AND PUSH20 0xFFFFFFFFFFFFFFFFFFFFFFFFFFFFFFFFFFFFFFFF AND CALLER PUSH20 0xFFFFFFFFFFFFFFFFFFFFFFFFFFFFFFFFFFFFFFFF AND EQ PUSH2 0x91D JUMPI PUSH1 0x0 DUP1 REVERT JUMPDEST PUSH2 0x926 DUP2 PUSH2 0x480 JUMP JUMPDEST PUSH2 0x965 JUMPI PUSH1 0x40 MLOAD PUSH32 0x8C379A000000000000000000000000000000000000000000000000000000000 DUP2 MSTORE PUSH1 0x4 ADD PUSH2 0x95C SWAP1 PUSH2 0x118B JUMP JUMPDEST PUSH1 0x40 MLOAD DUP1 SWAP2 SUB SWAP1 REVERT JUMPDEST PUSH1 0x1 PUSH1 0x0 DUP3 PUSH20 0xFFFFFFFFFFFFFFFFFFFFFFFFFFFFFFFFFFFFFFFF AND PUSH20 0xFFFFFFFFFFFFFFFFFFFFFFFFFFFFFFFFFFFFFFFF AND DUP2 MSTORE PUSH1 0x20 ADD SWAP1 DUP2 MSTORE PUSH1 0x20 ADD PUSH1 0x0 KECCAK256 PUSH1 0x0 PUSH2 0x100 EXP DUP2 SLOAD SWAP1 PUSH1 0xFF MUL NOT AND SWAP1 SSTORE PUSH32 0x58619076ADF5BB0943D100EF88D52D7C3FD691B19D3A9071B555B651FBF418DA DUP2 PUSH1 0x40 MLOAD PUSH2 0x9E3 SWAP2 SWAP1 PUSH2 0xF3F JUMP JUMPDEST PUSH1 0x40 MLOAD DUP1 SWAP2 SUB SWAP1 LOG1 POP JUMP JUMPDEST PUSH1 0x0 CALLVALUE PUSH1 0x4 PUSH1 0x0 CALLER PUSH20 0xFFFFFFFFFFFFFFFFFFFFFFFFFFFFFFFFFFFFFFFF AND PUSH20 0xFFFFFFFFFFFFFFFFFFFFFFFFFFFFFFFFFFFFFFFF AND DUP2 MSTORE PUSH1 0x20 ADD SWAP1 DUP2 MSTORE PUSH1 0x20 ADD PUSH1 0x0 KECCAK256 PUSH1 0x0 DUP3 DUP3 SLOAD PUSH2 0xA3F SWAP2 SWAP1 PUSH2 0x11AB JUMP JUMPDEST SWAP3 POP POP DUP2 SWAP1 SSTORE POP CALLER PUSH20 0xFFFFFFFFFFFFFFFFFFFFFFFFFFFFFFFFFFFFFFFF AND CALLVALUE PUSH32 0xA23831066066EC8812CC52AFC91A52134A8B50C9209B68C276BE679F4073D95D PUSH1 0x40 MLOAD PUSH1 0x40 MLOAD DUP1 SWAP2 SUB SWAP1 LOG3 PUSH1 0x4 PUSH1 0x0 CALLER PUSH20 0xFFFFFFFFFFFFFFFFFFFFFFFFFFFFFFFFFFFFFFFF AND PUSH20 0xFFFFFFFFFFFFFFFFFFFFFFFFFFFFFFFFFFFFFFFF AND DUP2 MSTORE PUSH1 0x20 ADD SWAP1 DUP2 MSTORE PUSH1 0x20 ADD PUSH1 0x0 KECCAK256 SLOAD SWAP1 POP SWAP1 JUMP JUMPDEST DUP1 PUSH1 0x4 PUSH1 0x0 DUP6 PUSH20 0xFFFFFFFFFFFFFFFFFFFFFFFFFFFFFFFFFFFFFFFF AND PUSH20 0xFFFFFFFFFFFFFFFFFFFFFFFFFFFFFFFFFFFFFFFF AND DUP2 MSTORE PUSH1 0x20 ADD SWAP1 DUP2 MSTORE PUSH1 0x20 ADD PUSH1 0x0 KECCAK256 PUSH1 0x0 DUP3 DUP3 SLOAD PUSH2 0xB1E SWAP2 SWAP1 PUSH2 0xE48 JUMP JUMPDEST SWAP3 POP POP DUP2 SWAP1 SSTORE POP DUP1 PUSH1 0x4 PUSH1 0x0 DUP5 PUSH20 0xFFFFFFFFFFFFFFFFFFFFFFFFFFFFFFFFFFFFFFFF AND PUSH20 0xFFFFFFFFFFFFFFFFFFFFFFFFFFFFFFFFFFFFFFFF AND DUP2 MSTORE PUSH1 0x20 ADD SWAP1 DUP2 MSTORE PUSH1 0x20 ADD PUSH1 0x0 KECCAK256 PUSH1 0x0 DUP3 DUP3 SLOAD PUSH2 0xB74 SWAP2 SWAP1 PUSH2 0x11AB JUMP JUMPDEST SWAP3 POP POP DUP2 SWAP1 SSTORE POP POP POP POP JUMP JUMPDEST PUSH1 0x0 DUP2 SWAP1 POP SWAP2 SWAP1 POP JUMP JUMPDEST PUSH2 0xB93 DUP2 PUSH2 0xB80 JUMP JUMPDEST DUP3 MSTORE POP POP JUMP JUMPDEST PUSH1 0x0 PUSH1 0x20 DUP3 ADD SWAP1 POP PUSH2 0xBAE PUSH1 0x0 DUP4 ADD DUP5 PUSH2 0xB8A JUMP JUMPDEST SWAP3 SWAP2 POP POP JUMP JUMPDEST PUSH1 0x0 DUP1 REVERT JUMPDEST PUSH2 0xBC2 DUP2 PUSH2 0xB80 JUMP JUMPDEST DUP2 EQ PUSH2 0xBCD JUMPI PUSH1 0x0 DUP1 REVERT JUMPDEST POP JUMP JUMPDEST PUSH1 0x0 DUP2 CALLDATALOAD SWAP1 POP PUSH2 0xBDF DUP2 PUSH2 0xBB9 JUMP JUMPDEST SWAP3 SWAP2 POP POP JUMP JUMPDEST PUSH1 0x0 PUSH1 0x20 DUP3 DUP5 SUB SLT ISZERO PUSH2 0xBFB JUMPI PUSH2 0xBFA PUSH2 0xBB4 JUMP JUMPDEST JUMPDEST PUSH1 0x0 PUSH2 0xC09 DUP5 DUP3 DUP6 ADD PUSH2 0xBD0 JUMP JUMPDEST SWAP2 POP POP SWAP3 SWAP2 POP POP JUMP JUMPDEST PUSH1 0x0 PUSH20 0xFFFFFFFFFFFFFFFFFFFFFFFFFFFFFFFFFFFFFFFF DUP3 AND SWAP1 POP SWAP2 SWAP1 POP JUMP JUMPDEST PUSH1 0x0 PUSH2 0xC3D DUP3 PUSH2 0xC12 JUMP JUMPDEST SWAP1 POP SWAP2 SWAP1 POP JUMP JUMPDEST PUSH2 0xC4D DUP2 PUSH2 0xC32 JUMP JUMPDEST DUP2 EQ PUSH2 0xC58 JUMPI PUSH1 0x0 DUP1 REVERT JUMPDEST POP JUMP JUMPDEST PUSH1 0x0 DUP2 CALLDATALOAD SWAP1 POP PUSH2 0xC6A DUP2 PUSH2 0xC44 JUMP JUMPDEST SWAP3 SWAP2 POP POP JUMP JUMPDEST PUSH1 0x0 PUSH1 0x20 DUP3 DUP5 SUB SLT ISZERO PUSH2 0xC86 JUMPI PUSH2 0xC85 PUSH2 0xBB4 JUMP JUMPDEST JUMPDEST PUSH1 0x0 PUSH2 0xC94 DUP5 DUP3 DUP6 ADD PUSH2 0xC5B JUMP JUMPDEST SWAP2 POP POP SWAP3 SWAP2 POP POP JUMP JUMPDEST PUSH1 0x0 DUP2 ISZERO ISZERO SWAP1 POP SWAP2 SWAP1 POP JUMP JUMPDEST PUSH2 0xCB2 DUP2 PUSH2 0xC9D JUMP JUMPDEST DUP3 MSTORE POP POP JUMP JUMPDEST PUSH1 0x0 PUSH1 0x20 DUP3 ADD SWAP1 POP PUSH2 0xCCD PUSH1 0x0 DUP4 ADD DUP5 PUSH2 0xCA9 JUMP JUMPDEST SWAP3 SWAP2 POP POP JUMP JUMPDEST PUSH1 0x0 DUP2 SWAP1 POP SWAP2 SWAP1 POP JUMP JUMPDEST PUSH2 0xCE6 DUP2 PUSH2 0xCD3 JUMP JUMPDEST DUP2 EQ PUSH2 0xCF1 JUMPI PUSH1 0x0 DUP1 REVERT JUMPDEST POP JUMP JUMPDEST PUSH1 0x0 DUP2 CALLDATALOAD SWAP1 POP PUSH2 0xD03 DUP2 PUSH2 0xCDD JUMP JUMPDEST SWAP3 SWAP2 POP POP JUMP JUMPDEST PUSH1 0x0 PUSH1 0x20 DUP3 DUP5 SUB SLT ISZERO PUSH2 0xD1F JUMPI PUSH2 0xD1E PUSH2 0xBB4 JUMP JUMPDEST JUMPDEST PUSH1 0x0 PUSH2 0xD2D DUP5 DUP3 DUP6 ADD PUSH2 0xCF4 JUMP JUMPDEST SWAP2 POP POP SWAP3 SWAP2 POP POP JUMP JUMPDEST PUSH1 0x0 DUP1 PUSH1 0x40 DUP4 DUP6 SUB SLT ISZERO PUSH2 0xD4D JUMPI PUSH2 0xD4C PUSH2 0xBB4 JUMP JUMPDEST JUMPDEST PUSH1 0x0 PUSH2 0xD5B DUP6 DUP3 DUP7 ADD PUSH2 0xC5B JUMP JUMPDEST SWAP3 POP POP PUSH1 0x20 PUSH2 0xD6C DUP6 DUP3 DUP7 ADD PUSH2 0xBD0 JUMP JUMPDEST SWAP2 POP POP SWAP3 POP SWAP3 SWAP1 POP JUMP JUMPDEST PUSH1 0x0 DUP3 DUP3 MSTORE PUSH1 0x20 DUP3 ADD SWAP1 POP SWAP3 SWAP2 POP POP JUMP JUMPDEST PUSH32 0x4552524F5220315F496E73756666696369656E742062616C616E636520746F20 PUSH1 0x0 DUP3 ADD MSTORE PUSH32 0x77697468647261772066756E64732E0000000000000000000000000000000000 PUSH1 0x20 DUP3 ADD MSTORE POP JUMP JUMPDEST PUSH1 0x0 PUSH2 0xDE3 PUSH1 0x2F DUP4 PUSH2 0xD76 JUMP JUMPDEST SWAP2 POP PUSH2 0xDEE DUP3 PUSH2 0xD87 JUMP JUMPDEST PUSH1 0x40 DUP3 ADD SWAP1 POP SWAP2 SWAP1 POP JUMP JUMPDEST PUSH1 0x0 PUSH1 0x20 DUP3 ADD SWAP1 POP DUP2 DUP2 SUB PUSH1 0x0 DUP4 ADD MSTORE PUSH2 0xE12 DUP2 PUSH2 0xDD6 JUMP JUMPDEST SWAP1 POP SWAP2 SWAP1 POP JUMP JUMPDEST PUSH32 0x4E487B7100000000000000000000000000000000000000000000000000000000 PUSH1 0x0 MSTORE PUSH1 0x11 PUSH1 0x4 MSTORE PUSH1 0x24 PUSH1 0x0 REVERT JUMPDEST PUSH1 0x0 PUSH2 0xE53 DUP3 PUSH2 0xB80 JUMP JUMPDEST SWAP2 POP PUSH2 0xE5E DUP4 PUSH2 0xB80 JUMP JUMPDEST SWAP3 POP DUP3 DUP3 LT ISZERO PUSH2 0xE71 JUMPI PUSH2 0xE70 PUSH2 0xE19 JUMP JUMPDEST JUMPDEST DUP3 DUP3 SUB SWAP1 POP SWAP3 SWAP2 POP POP JUMP JUMPDEST PUSH1 0x0 PUSH2 0xE87 DUP3 PUSH2 0xB80 JUMP JUMPDEST SWAP2 POP PUSH32 0xFFFFFFFFFFFFFFFFFFFFFFFFFFFFFFFFFFFFFFFFFFFFFFFFFFFFFFFFFFFFFFFF DUP3 SUB PUSH2 0xEB9 JUMPI PUSH2 0xEB8 PUSH2 0xE19 JUMP JUMPDEST JUMPDEST PUSH1 0x1 DUP3 ADD SWAP1 POP SWAP2 SWAP1 POP JUMP JUMPDEST PUSH32 0x41646472657373206973206F776E657220616C72656164792E00000000000000 PUSH1 0x0 DUP3 ADD MSTORE POP JUMP JUMPDEST PUSH1 0x0 PUSH2 0xEFA PUSH1 0x19 DUP4 PUSH2 0xD76 JUMP JUMPDEST SWAP2 POP PUSH2 0xF05 DUP3 PUSH2 0xEC4 JUMP JUMPDEST PUSH1 0x20 DUP3 ADD SWAP1 POP SWAP2 SWAP1 POP JUMP JUMPDEST PUSH1 0x0 PUSH1 0x20 DUP3 ADD SWAP1 POP DUP2 DUP2 SUB PUSH1 0x0 DUP4 ADD MSTORE PUSH2 0xF29 DUP2 PUSH2 0xEED JUMP JUMPDEST SWAP1 POP SWAP2 SWAP1 POP JUMP JUMPDEST PUSH2 0xF39 DUP2 PUSH2 0xC32 JUMP JUMPDEST DUP3 MSTORE POP POP JUMP JUMPDEST PUSH1 0x0 PUSH1 0x20 DUP3 ADD SWAP1 POP PUSH2 0xF54 PUSH1 0x0 DUP4 ADD DUP5 PUSH2 0xF30 JUMP JUMPDEST SWAP3 SWAP2 POP POP JUMP JUMPDEST PUSH32 0x4552524F5220315F496E73756666696369656E742062616C616E636520746F20 PUSH1 0x0 DUP3 ADD MSTORE PUSH32 0x7472616E736665722066756E64732E0000000000000000000000000000000000 PUSH1 0x20 DUP3 ADD MSTORE POP JUMP JUMPDEST PUSH1 0x0 PUSH2 0xFB6 PUSH1 0x2F DUP4 PUSH2 0xD76 JUMP JUMPDEST SWAP2 POP PUSH2 0xFC1 DUP3 PUSH2 0xF5A JUMP JUMPDEST PUSH1 0x40 DUP3 ADD SWAP1 POP SWAP2 SWAP1 POP JUMP JUMPDEST PUSH1 0x0 PUSH1 0x20 DUP3 ADD SWAP1 POP DUP2 DUP2 SUB PUSH1 0x0 DUP4 ADD MSTORE PUSH2 0xFE5 DUP2 PUSH2 0xFA9 JUMP JUMPDEST SWAP1 POP SWAP2 SWAP1 POP JUMP JUMPDEST PUSH32 0x4552524F5220325F5468652073656E6465722063616E6E6F7420626520746865 PUSH1 0x0 DUP3 ADD MSTORE PUSH32 0x20726563697069656E742E000000000000000000000000000000000000000000 PUSH1 0x20 DUP3 ADD MSTORE POP JUMP JUMPDEST PUSH1 0x0 PUSH2 0x1048 PUSH1 0x2B DUP4 PUSH2 0xD76 JUMP JUMPDEST SWAP2 POP PUSH2 0x1053 DUP3 PUSH2 0xFEC JUMP JUMPDEST PUSH1 0x40 DUP3 ADD SWAP1 POP SWAP2 SWAP1 POP JUMP JUMPDEST PUSH1 0x0 PUSH1 0x20 DUP3 ADD SWAP1 POP DUP2 DUP2 SUB PUSH1 0x0 DUP4 ADD MSTORE PUSH2 0x1077 DUP2 PUSH2 0x103B JUMP JUMPDEST SWAP1 POP SWAP2 SWAP1 POP JUMP JUMPDEST PUSH32 0x4552524F5220335F596F7520617265206E6F7420616E206F776E657220616E64 PUSH1 0x0 DUP3 ADD MSTORE PUSH32 0x206E6F7420616C6C6F77656420746F206D616B65207472616E736665722E0000 PUSH1 0x20 DUP3 ADD MSTORE POP JUMP JUMPDEST PUSH1 0x0 PUSH2 0x10DA PUSH1 0x3E DUP4 PUSH2 0xD76 JUMP JUMPDEST SWAP2 POP PUSH2 0x10E5 DUP3 PUSH2 0x107E JUMP JUMPDEST PUSH1 0x40 DUP3 ADD SWAP1 POP SWAP2 SWAP1 POP JUMP JUMPDEST PUSH1 0x0 PUSH1 0x20 DUP3 ADD SWAP1 POP DUP2 DUP2 SUB PUSH1 0x0 DUP4 ADD MSTORE PUSH2 0x1109 DUP2 PUSH2 0x10CD JUMP JUMPDEST SWAP1 POP SWAP2 SWAP1 POP JUMP JUMPDEST PUSH32 0x4E487B7100000000000000000000000000000000000000000000000000000000 PUSH1 0x0 MSTORE PUSH1 0x1 PUSH1 0x4 MSTORE PUSH1 0x24 PUSH1 0x0 REVERT JUMPDEST PUSH32 0x4E6F74206F776E6572206F66206F776E65726C6973742E000000000000000000 PUSH1 0x0 DUP3 ADD MSTORE POP JUMP JUMPDEST PUSH1 0x0 PUSH2 0x1175 PUSH1 0x17 DUP4 PUSH2 0xD76 JUMP JUMPDEST SWAP2 POP PUSH2 0x1180 DUP3 PUSH2 0x113F JUMP JUMPDEST PUSH1 0x20 DUP3 ADD SWAP1 POP SWAP2 SWAP1 POP JUMP JUMPDEST PUSH1 0x0 PUSH1 0x20 DUP3 ADD SWAP1 POP DUP2 DUP2 SUB PUSH1 0x0 DUP4 ADD MSTORE PUSH2 0x11A4 DUP2 PUSH2 0x1168 JUMP JUMPDEST SWAP1 POP SWAP2 SWAP1 POP JUMP JUMPDEST PUSH1 0x0 PUSH2 0x11B6 DUP3 PUSH2 0xB80 JUMP JUMPDEST SWAP2 POP PUSH2 0x11C1 DUP4 PUSH2 0xB80 JUMP JUMPDEST SWAP3 POP DUP3 PUSH32 0xFFFFFFFFFFFFFFFFFFFFFFFFFFFFFFFFFFFFFFFFFFFFFFFFFFFFFFFFFFFFFFFF SUB DUP3 GT ISZERO PUSH2 0x11F6 JUMPI PUSH2 0x11F5 PUSH2 0xE19 JUMP JUMPDEST JUMPDEST DUP3 DUP3 ADD SWAP1 POP SWAP3 SWAP2 POP POP JUMP INVALID LOG2 PUSH5 0x6970667358 0x22 SLT KECCAK256 0xEF 0xD PUSH28 0x4649BCAC345975A3EE9A5493F786D1D95E51B1D3708A55567ED03200 0xAD PUSH5 0x736F6C6343 STOP ADDMOD 0xD STOP CALLER "
				},
				"gasEstimates": {
					"creation": {
						"codeDepositCost": "932600",
						"executionCost": "25234",
						"totalCost": "957834"
					},
					"external": {
						"addOwners(address)": "infinite",
						"approveIt(int256)": "infinite",
						"deposit()": "infinite",
						"getBalance()": "2527",
						"getNumApprovals()": "2460",
						"isOwner(address)": "2972",
						"removeOwners(address)": "infinite",
						"setNumApprovals(uint256)": "24732",
						"transfer(address,uint256)": "infinite",
						"withdraw(uint256)": "infinite"
					},
					"internal": {
						"_transfer(address,address,uint256)": "infinite"
					}
				},
				"methodIdentifiers": {
					"addOwners(address)": "5f3b1f3b",
					"approveIt(int256)": "4ecd7b0a",
					"deposit()": "d0e30db0",
					"getBalance()": "12065fe0",
					"getNumApprovals()": "1cd9aa0e",
					"isOwner(address)": "2f54bf6e",
					"removeOwners(address)": "b64c14fe",
					"setNumApprovals(uint256)": "2d442e04",
					"transfer(address,uint256)": "a9059cbb",
					"withdraw(uint256)": "2e1a7d4d"
				}
			},
			"storageLayout": {
				"storage": [
					{
						"astId": 243,
						"contract": "contracts/Bank_MultiSIG.sol:Multisig_Wallet",
						"label": "owner",
						"offset": 0,
						"slot": "0",
						"type": "t_address"
					},
					{
						"astId": 281,
						"contract": "contracts/Bank_MultiSIG.sol:Multisig_Wallet",
						"label": "owners",
						"offset": 0,
						"slot": "1",
						"type": "t_mapping(t_address,t_bool)"
					},
					{
						"astId": 10,
						"contract": "contracts/Bank_MultiSIG.sol:Multisig_Wallet",
						"label": "approvals",
						"offset": 0,
						"slot": "2",
						"type": "t_uint256"
					},
					{
						"astId": 12,
						"contract": "contracts/Bank_MultiSIG.sol:Multisig_Wallet",
						"label": "numApprovals",
						"offset": 0,
						"slot": "3",
						"type": "t_uint256"
					},
					{
						"astId": 17,
						"contract": "contracts/Bank_MultiSIG.sol:Multisig_Wallet",
						"label": "balance",
						"offset": 0,
						"slot": "4",
						"type": "t_mapping(t_address,t_uint256)"
					}
				],
				"types": {
					"t_address": {
						"encoding": "inplace",
						"label": "address",
						"numberOfBytes": "20"
					},
					"t_bool": {
						"encoding": "inplace",
						"label": "bool",
						"numberOfBytes": "1"
					},
					"t_mapping(t_address,t_bool)": {
						"encoding": "mapping",
						"key": "t_address",
						"label": "mapping(address => bool)",
						"numberOfBytes": "32",
						"value": "t_bool"
					},
					"t_mapping(t_address,t_uint256)": {
						"encoding": "mapping",
						"key": "t_address",
						"label": "mapping(address => uint256)",
						"numberOfBytes": "32",
						"value": "t_uint256"
					},
					"t_uint256": {
						"encoding": "inplace",
						"label": "uint256",
						"numberOfBytes": "32"
					}
				}
			},
			"userdoc": {
				"kind": "user",
				"methods": {},
				"version": 1
			}
		}
	}
}