{
	"contracts/Bank_MultiSIG.sol": {
		"Bank_Multisig": {
			"abi": [
				{
					"anonymous": false,
					"inputs": [
						{
							"indexed": false,
							"internalType": "address",
							"name": "owner",
							"type": "address"
						}
					],
					"name": "OwnerAdded",
					"type": "event"
				},
				{
					"anonymous": false,
					"inputs": [
						{
							"indexed": false,
							"internalType": "address",
							"name": "owner",
							"type": "address"
						}
					],
					"name": "OwnerRemoved",
					"type": "event"
				},
				{
					"anonymous": false,
					"inputs": [
						{
							"indexed": true,
							"internalType": "uint256",
							"name": "amount",
							"type": "uint256"
						},
						{
							"indexed": true,
							"internalType": "address",
							"name": "depositedTo",
							"type": "address"
						}
					],
					"name": "deposited",
					"type": "event"
				},
				{
					"anonymous": false,
					"inputs": [
						{
							"indexed": true,
							"internalType": "address",
							"name": "from",
							"type": "address"
						},
						{
							"indexed": true,
							"internalType": "address",
							"name": "to",
							"type": "address"
						},
						{
							"indexed": true,
							"internalType": "uint256",
							"name": "amount",
							"type": "uint256"
						}
					],
					"name": "transferedAmount",
					"type": "event"
				},
				{
					"inputs": [
						{
							"internalType": "address",
							"name": "_owner",
							"type": "address"
						}
					],
					"name": "addOwners",
					"outputs": [],
					"stateMutability": "nonpayable",
					"type": "function"
				},
				{
					"inputs": [],
					"name": "deposit",
					"outputs": [
						{
							"internalType": "uint256",
							"name": "",
							"type": "uint256"
						}
					],
					"stateMutability": "payable",
					"type": "function"
				},
				{
					"inputs": [],
					"name": "getBalance",
					"outputs": [
						{
							"internalType": "uint256",
							"name": "",
							"type": "uint256"
						}
					],
					"stateMutability": "view",
					"type": "function"
				},
				{
					"inputs": [],
					"name": "getNumApprovals",
					"outputs": [
						{
							"internalType": "int256",
							"name": "",
							"type": "int256"
						}
					],
					"stateMutability": "view",
					"type": "function"
				},
				{
					"inputs": [
						{
							"internalType": "address",
							"name": "_owner",
							"type": "address"
						}
					],
					"name": "isOwner",
					"outputs": [
						{
							"internalType": "bool",
							"name": "",
							"type": "bool"
						}
					],
					"stateMutability": "view",
					"type": "function"
				},
				{
					"inputs": [
						{
							"internalType": "address",
							"name": "_owner",
							"type": "address"
						}
					],
					"name": "removeOwners",
					"outputs": [],
					"stateMutability": "nonpayable",
					"type": "function"
				},
				{
					"inputs": [
						{
							"internalType": "int256",
							"name": "_number",
							"type": "int256"
						}
					],
					"name": "setNumApprovals",
					"outputs": [],
					"stateMutability": "nonpayable",
					"type": "function"
				},
				{
					"inputs": [
						{
							"internalType": "address",
							"name": "recipient",
							"type": "address"
						},
						{
							"internalType": "uint256",
							"name": "amount",
							"type": "uint256"
						}
					],
					"name": "transfer",
					"outputs": [],
					"stateMutability": "nonpayable",
					"type": "function"
				},
				{
					"inputs": [
						{
							"internalType": "uint256",
							"name": "amount",
							"type": "uint256"
						}
					],
					"name": "withdraw",
					"outputs": [
						{
							"internalType": "uint256",
							"name": "",
							"type": "uint256"
						}
					],
					"stateMutability": "nonpayable",
					"type": "function"
				}
			],
			"devdoc": {
				"kind": "dev",
				"methods": {
					"addOwners(address)": {
						"details": "A method to add an address to the Ownerlist",
						"params": {
							"_owner": "The address to add as a owner."
						}
					},
					"isOwner(address)": {
						"details": "A method to verify whether an address is a owner on the Ownerlist",
						"params": {
							"_owner": "The address to verify."
						},
						"returns": {
							"_0": "Whether the address is in the Ownerlist."
						}
					},
					"removeOwners(address)": {
						"details": "A method to remove a owner from the Ownerlist",
						"params": {
							"_owner": "The address to remove as a owner."
						}
					}
				},
				"version": 1
			},
			"evm": {
				"assembly": "    /* \"contracts/Bank_MultiSIG.sol\":302:2734  contract Bank_Multisig is Ownable, Ownerlist {... */\n  mstore(0x40, 0x80)\n    /* \"contracts/Bank_MultiSIG.sol\":417:459  0xDA0bab807633f07f013f94DD0E6A4F96F8742B53 */\n  0xda0bab807633f07f013f94dd0e6a4f96f8742b53\n    /* \"contracts/Bank_MultiSIG.sol\":356:460  GovernmentInterface GovernmentInstance = GovernmentInterface(0xDA0bab807633f07f013f94DD0E6A4F96F8742B53) */\n  0x02\n  exp(0x0100, 0x00)\n  dup2\n  sload\n  dup2\n  0xffffffffffffffffffffffffffffffffffffffff\n  mul\n  not\n  and\n  swap1\n  dup4\n  0xffffffffffffffffffffffffffffffffffffffff\n  and\n  mul\n  or\n  swap1\n  sstore\n  pop\n    /* \"contracts/Bank_MultiSIG.sol\":302:2734  contract Bank_Multisig is Ownable, Ownerlist {... */\n  callvalue\n  dup1\n  iszero\n  tag_1\n  jumpi\n  0x00\n  dup1\n  revert\ntag_1:\n  pop\n    /* \"contracts/Ownable.sol\":448:458  msg.sender */\n  caller\n    /* \"contracts/Ownable.sol\":440:445  owner */\n  0x00\n  dup1\n    /* \"contracts/Ownable.sol\":440:458  owner = msg.sender */\n  0x0100\n  exp\n  dup2\n  sload\n  dup2\n  0xffffffffffffffffffffffffffffffffffffffff\n  mul\n  not\n  and\n  swap1\n  dup4\n  0xffffffffffffffffffffffffffffffffffffffff\n  and\n  mul\n  or\n  swap1\n  sstore\n  pop\n    /* \"contracts/Bank_MultiSIG.sol\":302:2734  contract Bank_Multisig is Ownable, Ownerlist {... */\n  dataSize(sub_0)\n  dup1\n  dataOffset(sub_0)\n  0x00\n  codecopy\n  0x00\n  return\nstop\n\nsub_0: assembly {\n        /* \"contracts/Bank_MultiSIG.sol\":302:2734  contract Bank_Multisig is Ownable, Ownerlist {... */\n      mstore(0x40, 0x80)\n      jumpi(tag_1, lt(calldatasize, 0x04))\n      shr(0xe0, calldataload(0x00))\n      dup1\n      0x5f3b1f3b\n      gt\n      tag_11\n      jumpi\n      dup1\n      0x5f3b1f3b\n      eq\n      tag_6\n      jumpi\n      dup1\n      0xa9059cbb\n      eq\n      tag_7\n      jumpi\n      dup1\n      0xb64c14fe\n      eq\n      tag_8\n      jumpi\n      dup1\n      0xd0e30db0\n      eq\n      tag_9\n      jumpi\n      dup1\n      0xec2e11ae\n      eq\n      tag_10\n      jumpi\n      jump(tag_1)\n    tag_11:\n      dup1\n      0x12065fe0\n      eq\n      tag_2\n      jumpi\n      dup1\n      0x1cd9aa0e\n      eq\n      tag_3\n      jumpi\n      dup1\n      0x2e1a7d4d\n      eq\n      tag_4\n      jumpi\n      dup1\n      0x2f54bf6e\n      eq\n      tag_5\n      jumpi\n    tag_1:\n      0x00\n      dup1\n      revert\n        /* \"contracts/Bank_MultiSIG.sol\":1450:1543  function getBalance() public view returns (uint){... */\n    tag_2:\n      callvalue\n      dup1\n      iszero\n      tag_12\n      jumpi\n      0x00\n      dup1\n      revert\n    tag_12:\n      pop\n      tag_13\n      tag_14\n      jump\t// in\n    tag_13:\n      mload(0x40)\n      tag_15\n      swap2\n      swap1\n      tag_16\n      jump\t// in\n    tag_15:\n      mload(0x40)\n      dup1\n      swap2\n      sub\n      swap1\n      return\n        /* \"contracts/Bank_MultiSIG.sol\":757:850  function getNumApprovals() public view returns(int){... */\n    tag_3:\n      callvalue\n      dup1\n      iszero\n      tag_17\n      jumpi\n      0x00\n      dup1\n      revert\n    tag_17:\n      pop\n      tag_18\n      tag_19\n      jump\t// in\n    tag_18:\n      mload(0x40)\n      tag_20\n      swap2\n      swap1\n      tag_21\n      jump\t// in\n    tag_20:\n      mload(0x40)\n      dup1\n      swap2\n      sub\n      swap1\n      return\n        /* \"contracts/Bank_MultiSIG.sol\":1551:1833  function withdraw(uint amount) public returns (uint){... */\n    tag_4:\n      callvalue\n      dup1\n      iszero\n      tag_22\n      jumpi\n      0x00\n      dup1\n      revert\n    tag_22:\n      pop\n      tag_23\n      0x04\n      dup1\n      calldatasize\n      sub\n      dup2\n      add\n      swap1\n      tag_24\n      swap2\n      swap1\n      tag_25\n      jump\t// in\n    tag_24:\n      tag_26\n      jump\t// in\n    tag_23:\n      mload(0x40)\n      tag_27\n      swap2\n      swap1\n      tag_16\n      jump\t// in\n    tag_27:\n      mload(0x40)\n      dup1\n      swap2\n      sub\n      swap1\n      return\n        /* \"contracts/Ownerlist.sol\":802:906  function isOwner(address _owner) public view returns(bool)... */\n    tag_5:\n      callvalue\n      dup1\n      iszero\n      tag_28\n      jumpi\n      0x00\n      dup1\n      revert\n    tag_28:\n      pop\n      tag_29\n      0x04\n      dup1\n      calldatasize\n      sub\n      dup2\n      add\n      swap1\n      tag_30\n      swap2\n      swap1\n      tag_31\n      jump\t// in\n    tag_30:\n      tag_32\n      jump\t// in\n    tag_29:\n      mload(0x40)\n      tag_33\n      swap2\n      swap1\n      tag_34\n      jump\t// in\n    tag_33:\n      mload(0x40)\n      dup1\n      swap2\n      sub\n      swap1\n      return\n        /* \"contracts/Ownerlist.sol\":1042:1277  function addOwners(address _owner) public onlyOwner... */\n    tag_6:\n      callvalue\n      dup1\n      iszero\n      tag_35\n      jumpi\n      0x00\n      dup1\n      revert\n    tag_35:\n      pop\n      tag_36\n      0x04\n      dup1\n      calldatasize\n      sub\n      dup2\n      add\n      swap1\n      tag_37\n      swap2\n      swap1\n      tag_31\n      jump\t// in\n    tag_37:\n      tag_38\n      jump\t// in\n    tag_36:\n      stop\n        /* \"contracts/Bank_MultiSIG.sol\":1843:2581  function transfer(address recipient, uint amount) public {... */\n    tag_7:\n      callvalue\n      dup1\n      iszero\n      tag_39\n      jumpi\n      0x00\n      dup1\n      revert\n    tag_39:\n      pop\n      tag_40\n      0x04\n      dup1\n      calldatasize\n      sub\n      dup2\n      add\n      swap1\n      tag_41\n      swap2\n      swap1\n      tag_42\n      jump\t// in\n    tag_41:\n      tag_43\n      jump\t// in\n    tag_40:\n      stop\n        /* \"contracts/Ownerlist.sol\":1418:1655  function removeOwners(address _owner) public onlyOwner... */\n    tag_8:\n      callvalue\n      dup1\n      iszero\n      tag_44\n      jumpi\n      0x00\n      dup1\n      revert\n    tag_44:\n      pop\n      tag_45\n      0x04\n      dup1\n      calldatasize\n      sub\n      dup2\n      add\n      swap1\n      tag_46\n      swap2\n      swap1\n      tag_31\n      jump\t// in\n    tag_46:\n      tag_47\n      jump\t// in\n    tag_45:\n      stop\n        /* \"contracts/Bank_MultiSIG.sol\":1127:1440  function deposit() public payable returns (uint) { ... */\n    tag_9:\n      tag_48\n      tag_49\n      jump\t// in\n    tag_48:\n      mload(0x40)\n      tag_50\n      swap2\n      swap1\n      tag_16\n      jump\t// in\n    tag_50:\n      mload(0x40)\n      dup1\n      swap2\n      sub\n      swap1\n      return\n        /* \"contracts/Bank_MultiSIG.sol\":856:1014  function setNumApprovals(int _number) public {  //not view or pure because we are changing the state of \"numApprovals\"... */\n    tag_10:\n      callvalue\n      dup1\n      iszero\n      tag_51\n      jumpi\n      0x00\n      dup1\n      revert\n    tag_51:\n      pop\n      tag_52\n      0x04\n      dup1\n      calldatasize\n      sub\n      dup2\n      add\n      swap1\n      tag_53\n      swap2\n      swap1\n      tag_54\n      jump\t// in\n    tag_53:\n      tag_55\n      jump\t// in\n    tag_52:\n      stop\n        /* \"contracts/Bank_MultiSIG.sol\":1450:1543  function getBalance() public view returns (uint){... */\n    tag_14:\n        /* \"contracts/Bank_MultiSIG.sol\":1493:1497  uint */\n      0x00\n        /* \"contracts/Bank_MultiSIG.sol\":1516:1523  balance */\n      0x03\n        /* \"contracts/Bank_MultiSIG.sol\":1516:1535  balance[msg.sender] */\n      0x00\n        /* \"contracts/Bank_MultiSIG.sol\":1524:1534  msg.sender */\n      caller\n        /* \"contracts/Bank_MultiSIG.sol\":1516:1535  balance[msg.sender] */\n      0xffffffffffffffffffffffffffffffffffffffff\n      and\n      0xffffffffffffffffffffffffffffffffffffffff\n      and\n      dup2\n      mstore\n      0x20\n      add\n      swap1\n      dup2\n      mstore\n      0x20\n      add\n      0x00\n      keccak256\n      sload\n        /* \"contracts/Bank_MultiSIG.sol\":1509:1535  return balance[msg.sender] */\n      swap1\n      pop\n        /* \"contracts/Bank_MultiSIG.sol\":1450:1543  function getBalance() public view returns (uint){... */\n      swap1\n      jump\t// out\n        /* \"contracts/Bank_MultiSIG.sol\":757:850  function getNumApprovals() public view returns(int){... */\n    tag_19:\n        /* \"contracts/Bank_MultiSIG.sol\":804:807  int */\n      0x00\n        /* \"contracts/Bank_MultiSIG.sol\":826:838  numApprovals */\n      sload(0x04)\n        /* \"contracts/Bank_MultiSIG.sol\":819:838  return numApprovals */\n      swap1\n      pop\n        /* \"contracts/Bank_MultiSIG.sol\":757:850  function getNumApprovals() public view returns(int){... */\n      swap1\n      jump\t// out\n        /* \"contracts/Bank_MultiSIG.sol\":1551:1833  function withdraw(uint amount) public returns (uint){... */\n    tag_26:\n        /* \"contracts/Bank_MultiSIG.sol\":1598:1602  uint */\n      0x00\n        /* \"contracts/Bank_MultiSIG.sol\":1644:1650  amount */\n      dup2\n        /* \"contracts/Bank_MultiSIG.sol\":1622:1629  balance */\n      0x03\n        /* \"contracts/Bank_MultiSIG.sol\":1622:1641  balance[msg.sender] */\n      0x00\n        /* \"contracts/Bank_MultiSIG.sol\":1630:1640  msg.sender */\n      caller\n        /* \"contracts/Bank_MultiSIG.sol\":1622:1641  balance[msg.sender] */\n      0xffffffffffffffffffffffffffffffffffffffff\n      and\n      0xffffffffffffffffffffffffffffffffffffffff\n      and\n      dup2\n      mstore\n      0x20\n      add\n      swap1\n      dup2\n      mstore\n      0x20\n      add\n      0x00\n      keccak256\n      sload\n        /* \"contracts/Bank_MultiSIG.sol\":1622:1650  balance[msg.sender]>= amount */\n      lt\n      iszero\n        /* \"contracts/Bank_MultiSIG.sol\":1614:1701  require(balance[msg.sender]>= amount,\"ERROR 1_Insufficient balance to withdraw funds.\") */\n      tag_59\n      jumpi\n      mload(0x40)\n      0x08c379a000000000000000000000000000000000000000000000000000000000\n      dup2\n      mstore\n      0x04\n      add\n      tag_60\n      swap1\n      tag_61\n      jump\t// in\n    tag_60:\n      mload(0x40)\n      dup1\n      swap2\n      sub\n      swap1\n      revert\n    tag_59:\n        /* \"contracts/Bank_MultiSIG.sol\":1720:1730  msg.sender */\n      caller\n        /* \"contracts/Bank_MultiSIG.sol\":1712:1740  payable(msg.sender).transfer */\n      0xffffffffffffffffffffffffffffffffffffffff\n      and\n        /* \"contracts/Bank_MultiSIG.sol\":1712:1748  payable(msg.sender).transfer(amount) */\n      0x08fc\n        /* \"contracts/Bank_MultiSIG.sol\":1741:1747  amount */\n      dup4\n        /* \"contracts/Bank_MultiSIG.sol\":1712:1748  payable(msg.sender).transfer(amount) */\n      swap1\n      dup2\n      iszero\n      mul\n      swap1\n      mload(0x40)\n      0x00\n      mload(0x40)\n      dup1\n      dup4\n      sub\n      dup2\n      dup6\n      dup9\n      dup9\n      call\n      swap4\n      pop\n      pop\n      pop\n      pop\n      iszero\n      dup1\n      iszero\n      tag_63\n      jumpi\n      returndatasize\n      0x00\n      dup1\n      returndatacopy\n      revert(0x00, returndatasize)\n    tag_63:\n      pop\n        /* \"contracts/Bank_MultiSIG.sol\":1782:1788  amount */\n      dup2\n        /* \"contracts/Bank_MultiSIG.sol\":1759:1766  balance */\n      0x03\n        /* \"contracts/Bank_MultiSIG.sol\":1759:1778  balance[msg.sender] */\n      0x00\n        /* \"contracts/Bank_MultiSIG.sol\":1767:1777  msg.sender */\n      caller\n        /* \"contracts/Bank_MultiSIG.sol\":1759:1778  balance[msg.sender] */\n      0xffffffffffffffffffffffffffffffffffffffff\n      and\n      0xffffffffffffffffffffffffffffffffffffffff\n      and\n      dup2\n      mstore\n      0x20\n      add\n      swap1\n      dup2\n      mstore\n      0x20\n      add\n      0x00\n      keccak256\n      0x00\n        /* \"contracts/Bank_MultiSIG.sol\":1759:1788  balance[msg.sender] -= amount */\n      dup3\n      dup3\n      sload\n      tag_64\n      swap2\n      swap1\n      tag_65\n      jump\t// in\n    tag_64:\n      swap3\n      pop\n      pop\n      dup2\n      swap1\n      sstore\n      pop\n        /* \"contracts/Bank_MultiSIG.sol\":1806:1813  balance */\n      0x03\n        /* \"contracts/Bank_MultiSIG.sol\":1806:1825  balance[msg.sender] */\n      0x00\n        /* \"contracts/Bank_MultiSIG.sol\":1814:1824  msg.sender */\n      caller\n        /* \"contracts/Bank_MultiSIG.sol\":1806:1825  balance[msg.sender] */\n      0xffffffffffffffffffffffffffffffffffffffff\n      and\n      0xffffffffffffffffffffffffffffffffffffffff\n      and\n      dup2\n      mstore\n      0x20\n      add\n      swap1\n      dup2\n      mstore\n      0x20\n      add\n      0x00\n      keccak256\n      sload\n        /* \"contracts/Bank_MultiSIG.sol\":1799:1825  return balance[msg.sender] */\n      swap1\n      pop\n        /* \"contracts/Bank_MultiSIG.sol\":1551:1833  function withdraw(uint amount) public returns (uint){... */\n      swap2\n      swap1\n      pop\n      jump\t// out\n        /* \"contracts/Ownerlist.sol\":802:906  function isOwner(address _owner) public view returns(bool)... */\n    tag_32:\n        /* \"contracts/Ownerlist.sol\":855:859  bool */\n      0x00\n        /* \"contracts/Ownerlist.sol\":884:890  owners */\n      0x01\n        /* \"contracts/Ownerlist.sol\":884:898  owners[_owner] */\n      0x00\n        /* \"contracts/Ownerlist.sol\":891:897  _owner */\n      dup4\n        /* \"contracts/Ownerlist.sol\":884:898  owners[_owner] */\n      0xffffffffffffffffffffffffffffffffffffffff\n      and\n      0xffffffffffffffffffffffffffffffffffffffff\n      and\n      dup2\n      mstore\n      0x20\n      add\n      swap1\n      dup2\n      mstore\n      0x20\n      add\n      0x00\n      keccak256\n      0x00\n      swap1\n      sload\n      swap1\n      0x0100\n      exp\n      swap1\n      div\n      0xff\n      and\n        /* \"contracts/Ownerlist.sol\":877:898  return owners[_owner] */\n      swap1\n      pop\n        /* \"contracts/Ownerlist.sol\":802:906  function isOwner(address _owner) public view returns(bool)... */\n      swap2\n      swap1\n      pop\n      jump\t// out\n        /* \"contracts/Ownerlist.sol\":1042:1277  function addOwners(address _owner) public onlyOwner... */\n    tag_38:\n        /* \"contracts/Ownable.sol\":342:347  owner */\n      0x00\n      dup1\n      sload\n      swap1\n      0x0100\n      exp\n      swap1\n      div\n      0xffffffffffffffffffffffffffffffffffffffff\n      and\n        /* \"contracts/Ownable.sol\":328:347  msg.sender == owner */\n      0xffffffffffffffffffffffffffffffffffffffff\n      and\n        /* \"contracts/Ownable.sol\":328:338  msg.sender */\n      caller\n        /* \"contracts/Ownable.sol\":328:347  msg.sender == owner */\n      0xffffffffffffffffffffffffffffffffffffffff\n      and\n      eq\n        /* \"contracts/Ownable.sol\":320:348  require(msg.sender == owner) */\n      tag_68\n      jumpi\n      0x00\n      dup1\n      revert\n    tag_68:\n        /* \"contracts/Ownerlist.sol\":1133:1148  isOwner(_owner) */\n      tag_70\n        /* \"contracts/Ownerlist.sol\":1141:1147  _owner */\n      dup2\n        /* \"contracts/Ownerlist.sol\":1133:1140  isOwner */\n      tag_32\n        /* \"contracts/Ownerlist.sol\":1133:1148  isOwner(_owner) */\n      jump\t// in\n    tag_70:\n        /* \"contracts/Ownerlist.sol\":1132:1148  !isOwner(_owner) */\n      iszero\n        /* \"contracts/Ownerlist.sol\":1110:1201  require(... */\n      tag_71\n      jumpi\n      mload(0x40)\n      0x08c379a000000000000000000000000000000000000000000000000000000000\n      dup2\n      mstore\n      0x04\n      add\n      tag_72\n      swap1\n      tag_73\n      jump\t// in\n    tag_72:\n      mload(0x40)\n      dup1\n      swap2\n      sub\n      swap1\n      revert\n    tag_71:\n        /* \"contracts/Ownerlist.sol\":1231:1235  true */\n      0x01\n        /* \"contracts/Ownerlist.sol\":1214:1220  owners */\n      dup1\n        /* \"contracts/Ownerlist.sol\":1214:1228  owners[_owner] */\n      0x00\n        /* \"contracts/Ownerlist.sol\":1221:1227  _owner */\n      dup4\n        /* \"contracts/Ownerlist.sol\":1214:1228  owners[_owner] */\n      0xffffffffffffffffffffffffffffffffffffffff\n      and\n      0xffffffffffffffffffffffffffffffffffffffff\n      and\n      dup2\n      mstore\n      0x20\n      add\n      swap1\n      dup2\n      mstore\n      0x20\n      add\n      0x00\n      keccak256\n      0x00\n        /* \"contracts/Ownerlist.sol\":1214:1235  owners[_owner] = true */\n      0x0100\n      exp\n      dup2\n      sload\n      dup2\n      0xff\n      mul\n      not\n      and\n      swap1\n      dup4\n      iszero\n      iszero\n      mul\n      or\n      swap1\n      sstore\n      pop\n        /* \"contracts/Ownerlist.sol\":1251:1269  OwnerAdded(_owner) */\n      0x994a936646fe87ffe4f1e469d3d6aa417d6b855598397f323de5b449f765f0c3\n        /* \"contracts/Ownerlist.sol\":1262:1268  _owner */\n      dup2\n        /* \"contracts/Ownerlist.sol\":1251:1269  OwnerAdded(_owner) */\n      mload(0x40)\n      tag_74\n      swap2\n      swap1\n      tag_75\n      jump\t// in\n    tag_74:\n      mload(0x40)\n      dup1\n      swap2\n      sub\n      swap1\n      log1\n        /* \"contracts/Ownerlist.sol\":1042:1277  function addOwners(address _owner) public onlyOwner... */\n      pop\n      jump\t// out\n        /* \"contracts/Bank_MultiSIG.sol\":1843:2581  function transfer(address recipient, uint amount) public {... */\n    tag_43:\n        /* \"contracts/Bank_MultiSIG.sol\":1943:1949  amount */\n      dup1\n        /* \"contracts/Bank_MultiSIG.sol\":1921:1928  balance */\n      0x03\n        /* \"contracts/Bank_MultiSIG.sol\":1921:1940  balance[msg.sender] */\n      0x00\n        /* \"contracts/Bank_MultiSIG.sol\":1929:1939  msg.sender */\n      caller\n        /* \"contracts/Bank_MultiSIG.sol\":1921:1940  balance[msg.sender] */\n      0xffffffffffffffffffffffffffffffffffffffff\n      and\n      0xffffffffffffffffffffffffffffffffffffffff\n      and\n      dup2\n      mstore\n      0x20\n      add\n      swap1\n      dup2\n      mstore\n      0x20\n      add\n      0x00\n      keccak256\n      sload\n        /* \"contracts/Bank_MultiSIG.sol\":1921:1949  balance[msg.sender]>= amount */\n      lt\n      iszero\n        /* \"contracts/Bank_MultiSIG.sol\":1913:2000  require(balance[msg.sender]>= amount,\"ERROR 1_Insufficient balance to transfer funds.\") */\n      tag_77\n      jumpi\n      mload(0x40)\n      0x08c379a000000000000000000000000000000000000000000000000000000000\n      dup2\n      mstore\n      0x04\n      add\n      tag_78\n      swap1\n      tag_79\n      jump\t// in\n    tag_78:\n      mload(0x40)\n      dup1\n      swap2\n      sub\n      swap1\n      revert\n    tag_77:\n        /* \"contracts/Bank_MultiSIG.sol\":2064:2073  recipient */\n      dup2\n        /* \"contracts/Bank_MultiSIG.sol\":2050:2073  msg.sender != recipient */\n      0xffffffffffffffffffffffffffffffffffffffff\n      and\n        /* \"contracts/Bank_MultiSIG.sol\":2050:2060  msg.sender */\n      caller\n        /* \"contracts/Bank_MultiSIG.sol\":2050:2073  msg.sender != recipient */\n      0xffffffffffffffffffffffffffffffffffffffff\n      and\n      sub\n        /* \"contracts/Bank_MultiSIG.sol\":2042:2120  require(msg.sender != recipient,\"ERROR 2_The sender cannot be the recipient.\") */\n      tag_80\n      jumpi\n      mload(0x40)\n      0x08c379a000000000000000000000000000000000000000000000000000000000\n      dup2\n      mstore\n      0x04\n      add\n      tag_81\n      swap1\n      tag_82\n      jump\t// in\n    tag_81:\n      mload(0x40)\n      dup1\n      swap2\n      sub\n      swap1\n      revert\n    tag_80:\n        /* \"contracts/Bank_MultiSIG.sol\":2139:2158  isOwner(msg.sender) */\n      tag_83\n        /* \"contracts/Bank_MultiSIG.sol\":2147:2157  msg.sender */\n      caller\n        /* \"contracts/Bank_MultiSIG.sol\":2139:2146  isOwner */\n      tag_32\n        /* \"contracts/Bank_MultiSIG.sol\":2139:2158  isOwner(msg.sender) */\n      jump\t// in\n    tag_83:\n        /* \"contracts/Bank_MultiSIG.sol\":2131:2217  require(isOwner(msg.sender), \"You are not an owner and not allowed to make transfer.\") */\n      tag_84\n      jumpi\n      mload(0x40)\n      0x08c379a000000000000000000000000000000000000000000000000000000000\n      dup2\n      mstore\n      0x04\n      add\n      tag_85\n      swap1\n      tag_86\n      jump\t// in\n    tag_85:\n      mload(0x40)\n      dup1\n      swap2\n      sub\n      swap1\n      revert\n    tag_84:\n        /* \"contracts/Bank_MultiSIG.sol\":2243:2269  uint previousSenderBalance */\n      0x00\n        /* \"contracts/Bank_MultiSIG.sol\":2272:2279  balance */\n      0x03\n        /* \"contracts/Bank_MultiSIG.sol\":2272:2291  balance[msg.sender] */\n      0x00\n        /* \"contracts/Bank_MultiSIG.sol\":2280:2290  msg.sender */\n      caller\n        /* \"contracts/Bank_MultiSIG.sol\":2272:2291  balance[msg.sender] */\n      0xffffffffffffffffffffffffffffffffffffffff\n      and\n      0xffffffffffffffffffffffffffffffffffffffff\n      and\n      dup2\n      mstore\n      0x20\n      add\n      swap1\n      dup2\n      mstore\n      0x20\n      add\n      0x00\n      keccak256\n      sload\n        /* \"contracts/Bank_MultiSIG.sol\":2243:2291  uint previousSenderBalance = balance[msg.sender] */\n      swap1\n      pop\n        /* \"contracts/Bank_MultiSIG.sol\":2302:2343  _transfer (msg.sender, recipient, amount) */\n      tag_87\n        /* \"contracts/Bank_MultiSIG.sol\":2313:2323  msg.sender */\n      caller\n        /* \"contracts/Bank_MultiSIG.sol\":2325:2334  recipient */\n      dup5\n        /* \"contracts/Bank_MultiSIG.sol\":2336:2342  amount */\n      dup5\n        /* \"contracts/Bank_MultiSIG.sol\":2302:2311  _transfer */\n      tag_88\n        /* \"contracts/Bank_MultiSIG.sol\":2302:2343  _transfer (msg.sender, recipient, amount) */\n      jump\t// in\n    tag_87:\n        /* \"contracts/Bank_MultiSIG.sol\":2401:2407  amount */\n      dup2\n        /* \"contracts/Bank_MultiSIG.sol\":2390:2399  recipient */\n      dup4\n        /* \"contracts/Bank_MultiSIG.sol\":2361:2408  transferedAmount(msg.sender, recipient, amount) */\n      0xffffffffffffffffffffffffffffffffffffffff\n      and\n        /* \"contracts/Bank_MultiSIG.sol\":2378:2388  msg.sender */\n      caller\n        /* \"contracts/Bank_MultiSIG.sol\":2361:2408  transferedAmount(msg.sender, recipient, amount) */\n      0xffffffffffffffffffffffffffffffffffffffff\n      and\n      0x3573881c639e018e0c3ba3a7d19063f6a7a8205d54eb828319a7f98db00426a0\n      mload(0x40)\n      mload(0x40)\n      dup1\n      swap2\n      sub\n      swap1\n      log4\n        /* \"contracts/Bank_MultiSIG.sol\":2434:2452  GovernmentInstance */\n      0x02\n      0x00\n      swap1\n      sload\n      swap1\n      0x0100\n      exp\n      swap1\n      div\n      0xffffffffffffffffffffffffffffffffffffffff\n      and\n        /* \"contracts/Bank_MultiSIG.sol\":2434:2467  GovernmentInstance.addTransaction */\n      0xffffffffffffffffffffffffffffffffffffffff\n      and\n      0xfe73b27f\n        /* \"contracts/Bank_MultiSIG.sol\":2468:2478  msg.sender */\n      caller\n        /* \"contracts/Bank_MultiSIG.sol\":2480:2489  recipient */\n      dup6\n        /* \"contracts/Bank_MultiSIG.sol\":2491:2497  amount */\n      dup6\n        /* \"contracts/Bank_MultiSIG.sol\":2434:2498  GovernmentInstance.addTransaction(msg.sender, recipient, amount) */\n      mload(0x40)\n      dup5\n      0xffffffff\n      and\n      0xe0\n      shl\n      dup2\n      mstore\n      0x04\n      add\n      tag_89\n      swap4\n      swap3\n      swap2\n      swap1\n      tag_90\n      jump\t// in\n    tag_89:\n      0x00\n      mload(0x40)\n      dup1\n      dup4\n      sub\n      dup2\n      0x00\n      dup8\n      dup1\n      extcodesize\n      iszero\n      dup1\n      iszero\n      tag_91\n      jumpi\n      0x00\n      dup1\n      revert\n    tag_91:\n      pop\n      gas\n      call\n      iszero\n      dup1\n      iszero\n      tag_93\n      jumpi\n      returndatasize\n      0x00\n      dup1\n      returndatacopy\n      revert(0x00, returndatasize)\n    tag_93:\n      pop\n      pop\n      pop\n      pop\n        /* \"contracts/Bank_MultiSIG.sol\":2565:2571  amount */\n      dup2\n        /* \"contracts/Bank_MultiSIG.sol\":2541:2562  previousSenderBalance */\n      dup2\n        /* \"contracts/Bank_MultiSIG.sol\":2541:2571  previousSenderBalance - amount */\n      tag_94\n      swap2\n      swap1\n      tag_65\n      jump\t// in\n    tag_94:\n        /* \"contracts/Bank_MultiSIG.sol\":2518:2525  balance */\n      0x03\n        /* \"contracts/Bank_MultiSIG.sol\":2518:2537  balance[msg.sender] */\n      0x00\n        /* \"contracts/Bank_MultiSIG.sol\":2526:2536  msg.sender */\n      caller\n        /* \"contracts/Bank_MultiSIG.sol\":2518:2537  balance[msg.sender] */\n      0xffffffffffffffffffffffffffffffffffffffff\n      and\n      0xffffffffffffffffffffffffffffffffffffffff\n      and\n      dup2\n      mstore\n      0x20\n      add\n      swap1\n      dup2\n      mstore\n      0x20\n      add\n      0x00\n      keccak256\n      sload\n        /* \"contracts/Bank_MultiSIG.sol\":2518:2571  balance[msg.sender] == previousSenderBalance - amount */\n      eq\n        /* \"contracts/Bank_MultiSIG.sol\":2511:2572  assert(balance[msg.sender] == previousSenderBalance - amount) */\n      tag_95\n      jumpi\n      tag_96\n      tag_97\n      jump\t// in\n    tag_96:\n    tag_95:\n        /* \"contracts/Bank_MultiSIG.sol\":1900:2581  {... */\n      pop\n        /* \"contracts/Bank_MultiSIG.sol\":1843:2581  function transfer(address recipient, uint amount) public {... */\n      pop\n      pop\n      jump\t// out\n        /* \"contracts/Ownerlist.sol\":1418:1655  function removeOwners(address _owner) public onlyOwner... */\n    tag_47:\n        /* \"contracts/Ownable.sol\":342:347  owner */\n      0x00\n      dup1\n      sload\n      swap1\n      0x0100\n      exp\n      swap1\n      div\n      0xffffffffffffffffffffffffffffffffffffffff\n      and\n        /* \"contracts/Ownable.sol\":328:347  msg.sender == owner */\n      0xffffffffffffffffffffffffffffffffffffffff\n      and\n        /* \"contracts/Ownable.sol\":328:338  msg.sender */\n      caller\n        /* \"contracts/Ownable.sol\":328:347  msg.sender == owner */\n      0xffffffffffffffffffffffffffffffffffffffff\n      and\n      eq\n        /* \"contracts/Ownable.sol\":320:348  require(msg.sender == owner) */\n      tag_99\n      jumpi\n      0x00\n      dup1\n      revert\n    tag_99:\n        /* \"contracts/Ownerlist.sol\":1511:1526  isOwner(_owner) */\n      tag_101\n        /* \"contracts/Ownerlist.sol\":1519:1525  _owner */\n      dup2\n        /* \"contracts/Ownerlist.sol\":1511:1518  isOwner */\n      tag_32\n        /* \"contracts/Ownerlist.sol\":1511:1526  isOwner(_owner) */\n      jump\t// in\n    tag_101:\n        /* \"contracts/Ownerlist.sol\":1489:1577  require(... */\n      tag_102\n      jumpi\n      mload(0x40)\n      0x08c379a000000000000000000000000000000000000000000000000000000000\n      dup2\n      mstore\n      0x04\n      add\n      tag_103\n      swap1\n      tag_104\n      jump\t// in\n    tag_103:\n      mload(0x40)\n      dup1\n      swap2\n      sub\n      swap1\n      revert\n    tag_102:\n        /* \"contracts/Ownerlist.sol\":1597:1603  owners */\n      0x01\n        /* \"contracts/Ownerlist.sol\":1597:1611  owners[_owner] */\n      0x00\n        /* \"contracts/Ownerlist.sol\":1604:1610  _owner */\n      dup3\n        /* \"contracts/Ownerlist.sol\":1597:1611  owners[_owner] */\n      0xffffffffffffffffffffffffffffffffffffffff\n      and\n      0xffffffffffffffffffffffffffffffffffffffff\n      and\n      dup2\n      mstore\n      0x20\n      add\n      swap1\n      dup2\n      mstore\n      0x20\n      add\n      0x00\n      keccak256\n      0x00\n        /* \"contracts/Ownerlist.sol\":1590:1611  delete owners[_owner] */\n      0x0100\n      exp\n      dup2\n      sload\n      swap1\n      0xff\n      mul\n      not\n      and\n      swap1\n      sstore\n        /* \"contracts/Ownerlist.sol\":1627:1647  OwnerRemoved(_owner) */\n      0x58619076adf5bb0943d100ef88d52d7c3fd691b19d3a9071b555b651fbf418da\n        /* \"contracts/Ownerlist.sol\":1640:1646  _owner */\n      dup2\n        /* \"contracts/Ownerlist.sol\":1627:1647  OwnerRemoved(_owner) */\n      mload(0x40)\n      tag_105\n      swap2\n      swap1\n      tag_75\n      jump\t// in\n    tag_105:\n      mload(0x40)\n      dup1\n      swap2\n      sub\n      swap1\n      log1\n        /* \"contracts/Ownerlist.sol\":1418:1655  function removeOwners(address _owner) public onlyOwner... */\n      pop\n      jump\t// out\n        /* \"contracts/Bank_MultiSIG.sol\":1127:1440  function deposit() public payable returns (uint) { ... */\n    tag_49:\n        /* \"contracts/Bank_MultiSIG.sol\":1170:1174  uint */\n      0x00\n        /* \"contracts/Bank_MultiSIG.sol\":1211:1220  msg.value */\n      callvalue\n        /* \"contracts/Bank_MultiSIG.sol\":1188:1195  balance */\n      0x03\n        /* \"contracts/Bank_MultiSIG.sol\":1188:1207  balance[msg.sender] */\n      0x00\n        /* \"contracts/Bank_MultiSIG.sol\":1196:1206  msg.sender */\n      caller\n        /* \"contracts/Bank_MultiSIG.sol\":1188:1207  balance[msg.sender] */\n      0xffffffffffffffffffffffffffffffffffffffff\n      and\n      0xffffffffffffffffffffffffffffffffffffffff\n      and\n      dup2\n      mstore\n      0x20\n      add\n      swap1\n      dup2\n      mstore\n      0x20\n      add\n      0x00\n      keccak256\n      0x00\n        /* \"contracts/Bank_MultiSIG.sol\":1188:1220  balance[msg.sender] += msg.value */\n      dup3\n      dup3\n      sload\n      tag_107\n      swap2\n      swap1\n      tag_108\n      jump\t// in\n    tag_107:\n      swap3\n      pop\n      pop\n      dup2\n      swap1\n      sstore\n      pop\n        /* \"contracts/Bank_MultiSIG.sol\":1367:1377  msg.sender */\n      caller\n        /* \"contracts/Bank_MultiSIG.sol\":1345:1378  deposited (msg.value, msg.sender) */\n      0xffffffffffffffffffffffffffffffffffffffff\n      and\n        /* \"contracts/Bank_MultiSIG.sol\":1356:1365  msg.value */\n      callvalue\n        /* \"contracts/Bank_MultiSIG.sol\":1345:1378  deposited (msg.value, msg.sender) */\n      0xa23831066066ec8812cc52afc91a52134a8b50c9209b68c276be679f4073d95d\n      mload(0x40)\n      mload(0x40)\n      dup1\n      swap2\n      sub\n      swap1\n      log3\n        /* \"contracts/Bank_MultiSIG.sol\":1413:1420  balance */\n      0x03\n        /* \"contracts/Bank_MultiSIG.sol\":1413:1432  balance[msg.sender] */\n      0x00\n        /* \"contracts/Bank_MultiSIG.sol\":1421:1431  msg.sender */\n      caller\n        /* \"contracts/Bank_MultiSIG.sol\":1413:1432  balance[msg.sender] */\n      0xffffffffffffffffffffffffffffffffffffffff\n      and\n      0xffffffffffffffffffffffffffffffffffffffff\n      and\n      dup2\n      mstore\n      0x20\n      add\n      swap1\n      dup2\n      mstore\n      0x20\n      add\n      0x00\n      keccak256\n      sload\n        /* \"contracts/Bank_MultiSIG.sol\":1406:1432  return balance[msg.sender] */\n      swap1\n      pop\n        /* \"contracts/Bank_MultiSIG.sol\":1127:1440  function deposit() public payable returns (uint) { ... */\n      swap1\n      jump\t// out\n        /* \"contracts/Bank_MultiSIG.sol\":856:1014  function setNumApprovals(int _number) public {  //not view or pure because we are changing the state of \"numApprovals\"... */\n    tag_55:\n        /* \"contracts/Bank_MultiSIG.sol\":999:1006  _number */\n      dup1\n        /* \"contracts/Bank_MultiSIG.sol\":984:996  numApprovals */\n      0x04\n        /* \"contracts/Bank_MultiSIG.sol\":984:1006  numApprovals = _number */\n      dup2\n      swap1\n      sstore\n      pop\n        /* \"contracts/Bank_MultiSIG.sol\":856:1014  function setNumApprovals(int _number) public {  //not view or pure because we are changing the state of \"numApprovals\"... */\n      pop\n      jump\t// out\n        /* \"contracts/Bank_MultiSIG.sol\":2589:2729  function _transfer(address from, address to, uint amount) private {... */\n    tag_88:\n        /* \"contracts/Bank_MultiSIG.sol\":2683:2689  amount */\n      dup1\n        /* \"contracts/Bank_MultiSIG.sol\":2666:2673  balance */\n      0x03\n        /* \"contracts/Bank_MultiSIG.sol\":2666:2679  balance[from] */\n      0x00\n        /* \"contracts/Bank_MultiSIG.sol\":2674:2678  from */\n      dup6\n        /* \"contracts/Bank_MultiSIG.sol\":2666:2679  balance[from] */\n      0xffffffffffffffffffffffffffffffffffffffff\n      and\n      0xffffffffffffffffffffffffffffffffffffffff\n      and\n      dup2\n      mstore\n      0x20\n      add\n      swap1\n      dup2\n      mstore\n      0x20\n      add\n      0x00\n      keccak256\n      0x00\n        /* \"contracts/Bank_MultiSIG.sol\":2666:2689  balance[from] -= amount */\n      dup3\n      dup3\n      sload\n      tag_111\n      swap2\n      swap1\n      tag_65\n      jump\t// in\n    tag_111:\n      swap3\n      pop\n      pop\n      dup2\n      swap1\n      sstore\n      pop\n        /* \"contracts/Bank_MultiSIG.sol\":2715:2721  amount */\n      dup1\n        /* \"contracts/Bank_MultiSIG.sol\":2700:2707  balance */\n      0x03\n        /* \"contracts/Bank_MultiSIG.sol\":2700:2711  balance[to] */\n      0x00\n        /* \"contracts/Bank_MultiSIG.sol\":2708:2710  to */\n      dup5\n        /* \"contracts/Bank_MultiSIG.sol\":2700:2711  balance[to] */\n      0xffffffffffffffffffffffffffffffffffffffff\n      and\n      0xffffffffffffffffffffffffffffffffffffffff\n      and\n      dup2\n      mstore\n      0x20\n      add\n      swap1\n      dup2\n      mstore\n      0x20\n      add\n      0x00\n      keccak256\n      0x00\n        /* \"contracts/Bank_MultiSIG.sol\":2700:2721  balance[to] += amount */\n      dup3\n      dup3\n      sload\n      tag_112\n      swap2\n      swap1\n      tag_108\n      jump\t// in\n    tag_112:\n      swap3\n      pop\n      pop\n      dup2\n      swap1\n      sstore\n      pop\n        /* \"contracts/Bank_MultiSIG.sol\":2589:2729  function _transfer(address from, address to, uint amount) private {... */\n      pop\n      pop\n      pop\n      jump\t// out\n        /* \"#utility.yul\":7:84   */\n    tag_113:\n        /* \"#utility.yul\":44:51   */\n      0x00\n        /* \"#utility.yul\":73:78   */\n      dup2\n        /* \"#utility.yul\":62:78   */\n      swap1\n      pop\n        /* \"#utility.yul\":7:84   */\n      swap2\n      swap1\n      pop\n      jump\t// out\n        /* \"#utility.yul\":90:208   */\n    tag_114:\n        /* \"#utility.yul\":177:201   */\n      tag_148\n        /* \"#utility.yul\":195:200   */\n      dup2\n        /* \"#utility.yul\":177:201   */\n      tag_113\n      jump\t// in\n    tag_148:\n        /* \"#utility.yul\":172:175   */\n      dup3\n        /* \"#utility.yul\":165:202   */\n      mstore\n        /* \"#utility.yul\":90:208   */\n      pop\n      pop\n      jump\t// out\n        /* \"#utility.yul\":214:436   */\n    tag_16:\n        /* \"#utility.yul\":307:311   */\n      0x00\n        /* \"#utility.yul\":345:347   */\n      0x20\n        /* \"#utility.yul\":334:343   */\n      dup3\n        /* \"#utility.yul\":330:348   */\n      add\n        /* \"#utility.yul\":322:348   */\n      swap1\n      pop\n        /* \"#utility.yul\":358:429   */\n      tag_150\n        /* \"#utility.yul\":426:427   */\n      0x00\n        /* \"#utility.yul\":415:424   */\n      dup4\n        /* \"#utility.yul\":411:428   */\n      add\n        /* \"#utility.yul\":402:408   */\n      dup5\n        /* \"#utility.yul\":358:429   */\n      tag_114\n      jump\t// in\n    tag_150:\n        /* \"#utility.yul\":214:436   */\n      swap3\n      swap2\n      pop\n      pop\n      jump\t// out\n        /* \"#utility.yul\":442:518   */\n    tag_115:\n        /* \"#utility.yul\":478:485   */\n      0x00\n        /* \"#utility.yul\":507:512   */\n      dup2\n        /* \"#utility.yul\":496:512   */\n      swap1\n      pop\n        /* \"#utility.yul\":442:518   */\n      swap2\n      swap1\n      pop\n      jump\t// out\n        /* \"#utility.yul\":524:639   */\n    tag_116:\n        /* \"#utility.yul\":609:632   */\n      tag_153\n        /* \"#utility.yul\":626:631   */\n      dup2\n        /* \"#utility.yul\":609:632   */\n      tag_115\n      jump\t// in\n    tag_153:\n        /* \"#utility.yul\":604:607   */\n      dup3\n        /* \"#utility.yul\":597:633   */\n      mstore\n        /* \"#utility.yul\":524:639   */\n      pop\n      pop\n      jump\t// out\n        /* \"#utility.yul\":645:863   */\n    tag_21:\n        /* \"#utility.yul\":736:740   */\n      0x00\n        /* \"#utility.yul\":774:776   */\n      0x20\n        /* \"#utility.yul\":763:772   */\n      dup3\n        /* \"#utility.yul\":759:777   */\n      add\n        /* \"#utility.yul\":751:777   */\n      swap1\n      pop\n        /* \"#utility.yul\":787:856   */\n      tag_155\n        /* \"#utility.yul\":853:854   */\n      0x00\n        /* \"#utility.yul\":842:851   */\n      dup4\n        /* \"#utility.yul\":838:855   */\n      add\n        /* \"#utility.yul\":829:835   */\n      dup5\n        /* \"#utility.yul\":787:856   */\n      tag_116\n      jump\t// in\n    tag_155:\n        /* \"#utility.yul\":645:863   */\n      swap3\n      swap2\n      pop\n      pop\n      jump\t// out\n        /* \"#utility.yul\":950:1067   */\n    tag_118:\n        /* \"#utility.yul\":1059:1060   */\n      0x00\n        /* \"#utility.yul\":1056:1057   */\n      dup1\n        /* \"#utility.yul\":1049:1061   */\n      revert\n        /* \"#utility.yul\":1196:1318   */\n    tag_120:\n        /* \"#utility.yul\":1269:1293   */\n      tag_160\n        /* \"#utility.yul\":1287:1292   */\n      dup2\n        /* \"#utility.yul\":1269:1293   */\n      tag_113\n      jump\t// in\n    tag_160:\n        /* \"#utility.yul\":1262:1267   */\n      dup2\n        /* \"#utility.yul\":1259:1294   */\n      eq\n        /* \"#utility.yul\":1249:1312   */\n      tag_161\n      jumpi\n        /* \"#utility.yul\":1308:1309   */\n      0x00\n        /* \"#utility.yul\":1305:1306   */\n      dup1\n        /* \"#utility.yul\":1298:1310   */\n      revert\n        /* \"#utility.yul\":1249:1312   */\n    tag_161:\n        /* \"#utility.yul\":1196:1318   */\n      pop\n      jump\t// out\n        /* \"#utility.yul\":1324:1463   */\n    tag_121:\n        /* \"#utility.yul\":1370:1375   */\n      0x00\n        /* \"#utility.yul\":1408:1414   */\n      dup2\n        /* \"#utility.yul\":1395:1415   */\n      calldataload\n        /* \"#utility.yul\":1386:1415   */\n      swap1\n      pop\n        /* \"#utility.yul\":1424:1457   */\n      tag_163\n        /* \"#utility.yul\":1451:1456   */\n      dup2\n        /* \"#utility.yul\":1424:1457   */\n      tag_120\n      jump\t// in\n    tag_163:\n        /* \"#utility.yul\":1324:1463   */\n      swap3\n      swap2\n      pop\n      pop\n      jump\t// out\n        /* \"#utility.yul\":1469:1798   */\n    tag_25:\n        /* \"#utility.yul\":1528:1534   */\n      0x00\n        /* \"#utility.yul\":1577:1579   */\n      0x20\n        /* \"#utility.yul\":1565:1574   */\n      dup3\n        /* \"#utility.yul\":1556:1563   */\n      dup5\n        /* \"#utility.yul\":1552:1575   */\n      sub\n        /* \"#utility.yul\":1548:1580   */\n      slt\n        /* \"#utility.yul\":1545:1664   */\n      iszero\n      tag_165\n      jumpi\n        /* \"#utility.yul\":1583:1662   */\n      tag_166\n      tag_118\n      jump\t// in\n    tag_166:\n        /* \"#utility.yul\":1545:1664   */\n    tag_165:\n        /* \"#utility.yul\":1703:1704   */\n      0x00\n        /* \"#utility.yul\":1728:1781   */\n      tag_167\n        /* \"#utility.yul\":1773:1780   */\n      dup5\n        /* \"#utility.yul\":1764:1770   */\n      dup3\n        /* \"#utility.yul\":1753:1762   */\n      dup6\n        /* \"#utility.yul\":1749:1771   */\n      add\n        /* \"#utility.yul\":1728:1781   */\n      tag_121\n      jump\t// in\n    tag_167:\n        /* \"#utility.yul\":1718:1781   */\n      swap2\n      pop\n        /* \"#utility.yul\":1674:1791   */\n      pop\n        /* \"#utility.yul\":1469:1798   */\n      swap3\n      swap2\n      pop\n      pop\n      jump\t// out\n        /* \"#utility.yul\":1804:1930   */\n    tag_122:\n        /* \"#utility.yul\":1841:1848   */\n      0x00\n        /* \"#utility.yul\":1881:1923   */\n      0xffffffffffffffffffffffffffffffffffffffff\n        /* \"#utility.yul\":1874:1879   */\n      dup3\n        /* \"#utility.yul\":1870:1924   */\n      and\n        /* \"#utility.yul\":1859:1924   */\n      swap1\n      pop\n        /* \"#utility.yul\":1804:1930   */\n      swap2\n      swap1\n      pop\n      jump\t// out\n        /* \"#utility.yul\":1936:2032   */\n    tag_123:\n        /* \"#utility.yul\":1973:1980   */\n      0x00\n        /* \"#utility.yul\":2002:2026   */\n      tag_170\n        /* \"#utility.yul\":2020:2025   */\n      dup3\n        /* \"#utility.yul\":2002:2026   */\n      tag_122\n      jump\t// in\n    tag_170:\n        /* \"#utility.yul\":1991:2026   */\n      swap1\n      pop\n        /* \"#utility.yul\":1936:2032   */\n      swap2\n      swap1\n      pop\n      jump\t// out\n        /* \"#utility.yul\":2038:2160   */\n    tag_124:\n        /* \"#utility.yul\":2111:2135   */\n      tag_172\n        /* \"#utility.yul\":2129:2134   */\n      dup2\n        /* \"#utility.yul\":2111:2135   */\n      tag_123\n      jump\t// in\n    tag_172:\n        /* \"#utility.yul\":2104:2109   */\n      dup2\n        /* \"#utility.yul\":2101:2136   */\n      eq\n        /* \"#utility.yul\":2091:2154   */\n      tag_173\n      jumpi\n        /* \"#utility.yul\":2150:2151   */\n      0x00\n        /* \"#utility.yul\":2147:2148   */\n      dup1\n        /* \"#utility.yul\":2140:2152   */\n      revert\n        /* \"#utility.yul\":2091:2154   */\n    tag_173:\n        /* \"#utility.yul\":2038:2160   */\n      pop\n      jump\t// out\n        /* \"#utility.yul\":2166:2305   */\n    tag_125:\n        /* \"#utility.yul\":2212:2217   */\n      0x00\n        /* \"#utility.yul\":2250:2256   */\n      dup2\n        /* \"#utility.yul\":2237:2257   */\n      calldataload\n        /* \"#utility.yul\":2228:2257   */\n      swap1\n      pop\n        /* \"#utility.yul\":2266:2299   */\n      tag_175\n        /* \"#utility.yul\":2293:2298   */\n      dup2\n        /* \"#utility.yul\":2266:2299   */\n      tag_124\n      jump\t// in\n    tag_175:\n        /* \"#utility.yul\":2166:2305   */\n      swap3\n      swap2\n      pop\n      pop\n      jump\t// out\n        /* \"#utility.yul\":2311:2640   */\n    tag_31:\n        /* \"#utility.yul\":2370:2376   */\n      0x00\n        /* \"#utility.yul\":2419:2421   */\n      0x20\n        /* \"#utility.yul\":2407:2416   */\n      dup3\n        /* \"#utility.yul\":2398:2405   */\n      dup5\n        /* \"#utility.yul\":2394:2417   */\n      sub\n        /* \"#utility.yul\":2390:2422   */\n      slt\n        /* \"#utility.yul\":2387:2506   */\n      iszero\n      tag_177\n      jumpi\n        /* \"#utility.yul\":2425:2504   */\n      tag_178\n      tag_118\n      jump\t// in\n    tag_178:\n        /* \"#utility.yul\":2387:2506   */\n    tag_177:\n        /* \"#utility.yul\":2545:2546   */\n      0x00\n        /* \"#utility.yul\":2570:2623   */\n      tag_179\n        /* \"#utility.yul\":2615:2622   */\n      dup5\n        /* \"#utility.yul\":2606:2612   */\n      dup3\n        /* \"#utility.yul\":2595:2604   */\n      dup6\n        /* \"#utility.yul\":2591:2613   */\n      add\n        /* \"#utility.yul\":2570:2623   */\n      tag_125\n      jump\t// in\n    tag_179:\n        /* \"#utility.yul\":2560:2623   */\n      swap2\n      pop\n        /* \"#utility.yul\":2516:2633   */\n      pop\n        /* \"#utility.yul\":2311:2640   */\n      swap3\n      swap2\n      pop\n      pop\n      jump\t// out\n        /* \"#utility.yul\":2646:2736   */\n    tag_126:\n        /* \"#utility.yul\":2680:2687   */\n      0x00\n        /* \"#utility.yul\":2723:2728   */\n      dup2\n        /* \"#utility.yul\":2716:2729   */\n      iszero\n        /* \"#utility.yul\":2709:2730   */\n      iszero\n        /* \"#utility.yul\":2698:2730   */\n      swap1\n      pop\n        /* \"#utility.yul\":2646:2736   */\n      swap2\n      swap1\n      pop\n      jump\t// out\n        /* \"#utility.yul\":2742:2851   */\n    tag_127:\n        /* \"#utility.yul\":2823:2844   */\n      tag_182\n        /* \"#utility.yul\":2838:2843   */\n      dup2\n        /* \"#utility.yul\":2823:2844   */\n      tag_126\n      jump\t// in\n    tag_182:\n        /* \"#utility.yul\":2818:2821   */\n      dup3\n        /* \"#utility.yul\":2811:2845   */\n      mstore\n        /* \"#utility.yul\":2742:2851   */\n      pop\n      pop\n      jump\t// out\n        /* \"#utility.yul\":2857:3067   */\n    tag_34:\n        /* \"#utility.yul\":2944:2948   */\n      0x00\n        /* \"#utility.yul\":2982:2984   */\n      0x20\n        /* \"#utility.yul\":2971:2980   */\n      dup3\n        /* \"#utility.yul\":2967:2985   */\n      add\n        /* \"#utility.yul\":2959:2985   */\n      swap1\n      pop\n        /* \"#utility.yul\":2995:3060   */\n      tag_184\n        /* \"#utility.yul\":3057:3058   */\n      0x00\n        /* \"#utility.yul\":3046:3055   */\n      dup4\n        /* \"#utility.yul\":3042:3059   */\n      add\n        /* \"#utility.yul\":3033:3039   */\n      dup5\n        /* \"#utility.yul\":2995:3060   */\n      tag_127\n      jump\t// in\n    tag_184:\n        /* \"#utility.yul\":2857:3067   */\n      swap3\n      swap2\n      pop\n      pop\n      jump\t// out\n        /* \"#utility.yul\":3073:3547   */\n    tag_42:\n        /* \"#utility.yul\":3141:3147   */\n      0x00\n        /* \"#utility.yul\":3149:3155   */\n      dup1\n        /* \"#utility.yul\":3198:3200   */\n      0x40\n        /* \"#utility.yul\":3186:3195   */\n      dup4\n        /* \"#utility.yul\":3177:3184   */\n      dup6\n        /* \"#utility.yul\":3173:3196   */\n      sub\n        /* \"#utility.yul\":3169:3201   */\n      slt\n        /* \"#utility.yul\":3166:3285   */\n      iszero\n      tag_186\n      jumpi\n        /* \"#utility.yul\":3204:3283   */\n      tag_187\n      tag_118\n      jump\t// in\n    tag_187:\n        /* \"#utility.yul\":3166:3285   */\n    tag_186:\n        /* \"#utility.yul\":3324:3325   */\n      0x00\n        /* \"#utility.yul\":3349:3402   */\n      tag_188\n        /* \"#utility.yul\":3394:3401   */\n      dup6\n        /* \"#utility.yul\":3385:3391   */\n      dup3\n        /* \"#utility.yul\":3374:3383   */\n      dup7\n        /* \"#utility.yul\":3370:3392   */\n      add\n        /* \"#utility.yul\":3349:3402   */\n      tag_125\n      jump\t// in\n    tag_188:\n        /* \"#utility.yul\":3339:3402   */\n      swap3\n      pop\n        /* \"#utility.yul\":3295:3412   */\n      pop\n        /* \"#utility.yul\":3451:3453   */\n      0x20\n        /* \"#utility.yul\":3477:3530   */\n      tag_189\n        /* \"#utility.yul\":3522:3529   */\n      dup6\n        /* \"#utility.yul\":3513:3519   */\n      dup3\n        /* \"#utility.yul\":3502:3511   */\n      dup7\n        /* \"#utility.yul\":3498:3520   */\n      add\n        /* \"#utility.yul\":3477:3530   */\n      tag_121\n      jump\t// in\n    tag_189:\n        /* \"#utility.yul\":3467:3530   */\n      swap2\n      pop\n        /* \"#utility.yul\":3422:3540   */\n      pop\n        /* \"#utility.yul\":3073:3547   */\n      swap3\n      pop\n      swap3\n      swap1\n      pop\n      jump\t// out\n        /* \"#utility.yul\":3553:3673   */\n    tag_128:\n        /* \"#utility.yul\":3625:3648   */\n      tag_191\n        /* \"#utility.yul\":3642:3647   */\n      dup2\n        /* \"#utility.yul\":3625:3648   */\n      tag_115\n      jump\t// in\n    tag_191:\n        /* \"#utility.yul\":3618:3623   */\n      dup2\n        /* \"#utility.yul\":3615:3649   */\n      eq\n        /* \"#utility.yul\":3605:3667   */\n      tag_192\n      jumpi\n        /* \"#utility.yul\":3663:3664   */\n      0x00\n        /* \"#utility.yul\":3660:3661   */\n      dup1\n        /* \"#utility.yul\":3653:3665   */\n      revert\n        /* \"#utility.yul\":3605:3667   */\n    tag_192:\n        /* \"#utility.yul\":3553:3673   */\n      pop\n      jump\t// out\n        /* \"#utility.yul\":3679:3816   */\n    tag_129:\n        /* \"#utility.yul\":3724:3729   */\n      0x00\n        /* \"#utility.yul\":3762:3768   */\n      dup2\n        /* \"#utility.yul\":3749:3769   */\n      calldataload\n        /* \"#utility.yul\":3740:3769   */\n      swap1\n      pop\n        /* \"#utility.yul\":3778:3810   */\n      tag_194\n        /* \"#utility.yul\":3804:3809   */\n      dup2\n        /* \"#utility.yul\":3778:3810   */\n      tag_128\n      jump\t// in\n    tag_194:\n        /* \"#utility.yul\":3679:3816   */\n      swap3\n      swap2\n      pop\n      pop\n      jump\t// out\n        /* \"#utility.yul\":3822:4149   */\n    tag_54:\n        /* \"#utility.yul\":3880:3886   */\n      0x00\n        /* \"#utility.yul\":3929:3931   */\n      0x20\n        /* \"#utility.yul\":3917:3926   */\n      dup3\n        /* \"#utility.yul\":3908:3915   */\n      dup5\n        /* \"#utility.yul\":3904:3927   */\n      sub\n        /* \"#utility.yul\":3900:3932   */\n      slt\n        /* \"#utility.yul\":3897:4016   */\n      iszero\n      tag_196\n      jumpi\n        /* \"#utility.yul\":3935:4014   */\n      tag_197\n      tag_118\n      jump\t// in\n    tag_197:\n        /* \"#utility.yul\":3897:4016   */\n    tag_196:\n        /* \"#utility.yul\":4055:4056   */\n      0x00\n        /* \"#utility.yul\":4080:4132   */\n      tag_198\n        /* \"#utility.yul\":4124:4131   */\n      dup5\n        /* \"#utility.yul\":4115:4121   */\n      dup3\n        /* \"#utility.yul\":4104:4113   */\n      dup6\n        /* \"#utility.yul\":4100:4122   */\n      add\n        /* \"#utility.yul\":4080:4132   */\n      tag_129\n      jump\t// in\n    tag_198:\n        /* \"#utility.yul\":4070:4132   */\n      swap2\n      pop\n        /* \"#utility.yul\":4026:4142   */\n      pop\n        /* \"#utility.yul\":3822:4149   */\n      swap3\n      swap2\n      pop\n      pop\n      jump\t// out\n        /* \"#utility.yul\":4155:4324   */\n    tag_130:\n        /* \"#utility.yul\":4239:4250   */\n      0x00\n        /* \"#utility.yul\":4273:4279   */\n      dup3\n        /* \"#utility.yul\":4268:4271   */\n      dup3\n        /* \"#utility.yul\":4261:4280   */\n      mstore\n        /* \"#utility.yul\":4313:4317   */\n      0x20\n        /* \"#utility.yul\":4308:4311   */\n      dup3\n        /* \"#utility.yul\":4304:4318   */\n      add\n        /* \"#utility.yul\":4289:4318   */\n      swap1\n      pop\n        /* \"#utility.yul\":4155:4324   */\n      swap3\n      swap2\n      pop\n      pop\n      jump\t// out\n        /* \"#utility.yul\":4330:4564   */\n    tag_131:\n        /* \"#utility.yul\":4470:4504   */\n      0x4552524f5220315f496e73756666696369656e742062616c616e636520746f20\n        /* \"#utility.yul\":4466:4467   */\n      0x00\n        /* \"#utility.yul\":4458:4464   */\n      dup3\n        /* \"#utility.yul\":4454:4468   */\n      add\n        /* \"#utility.yul\":4447:4505   */\n      mstore\n        /* \"#utility.yul\":4539:4556   */\n      0x77697468647261772066756e64732e0000000000000000000000000000000000\n        /* \"#utility.yul\":4534:4536   */\n      0x20\n        /* \"#utility.yul\":4526:4532   */\n      dup3\n        /* \"#utility.yul\":4522:4537   */\n      add\n        /* \"#utility.yul\":4515:4557   */\n      mstore\n        /* \"#utility.yul\":4330:4564   */\n      pop\n      jump\t// out\n        /* \"#utility.yul\":4570:4936   */\n    tag_132:\n        /* \"#utility.yul\":4712:4715   */\n      0x00\n        /* \"#utility.yul\":4733:4800   */\n      tag_202\n        /* \"#utility.yul\":4797:4799   */\n      0x2f\n        /* \"#utility.yul\":4792:4795   */\n      dup4\n        /* \"#utility.yul\":4733:4800   */\n      tag_130\n      jump\t// in\n    tag_202:\n        /* \"#utility.yul\":4726:4800   */\n      swap2\n      pop\n        /* \"#utility.yul\":4809:4902   */\n      tag_203\n        /* \"#utility.yul\":4898:4901   */\n      dup3\n        /* \"#utility.yul\":4809:4902   */\n      tag_131\n      jump\t// in\n    tag_203:\n        /* \"#utility.yul\":4927:4929   */\n      0x40\n        /* \"#utility.yul\":4922:4925   */\n      dup3\n        /* \"#utility.yul\":4918:4930   */\n      add\n        /* \"#utility.yul\":4911:4930   */\n      swap1\n      pop\n        /* \"#utility.yul\":4570:4936   */\n      swap2\n      swap1\n      pop\n      jump\t// out\n        /* \"#utility.yul\":4942:5361   */\n    tag_61:\n        /* \"#utility.yul\":5108:5112   */\n      0x00\n        /* \"#utility.yul\":5146:5148   */\n      0x20\n        /* \"#utility.yul\":5135:5144   */\n      dup3\n        /* \"#utility.yul\":5131:5149   */\n      add\n        /* \"#utility.yul\":5123:5149   */\n      swap1\n      pop\n        /* \"#utility.yul\":5195:5204   */\n      dup2\n        /* \"#utility.yul\":5189:5193   */\n      dup2\n        /* \"#utility.yul\":5185:5205   */\n      sub\n        /* \"#utility.yul\":5181:5182   */\n      0x00\n        /* \"#utility.yul\":5170:5179   */\n      dup4\n        /* \"#utility.yul\":5166:5183   */\n      add\n        /* \"#utility.yul\":5159:5206   */\n      mstore\n        /* \"#utility.yul\":5223:5354   */\n      tag_205\n        /* \"#utility.yul\":5349:5353   */\n      dup2\n        /* \"#utility.yul\":5223:5354   */\n      tag_132\n      jump\t// in\n    tag_205:\n        /* \"#utility.yul\":5215:5354   */\n      swap1\n      pop\n        /* \"#utility.yul\":4942:5361   */\n      swap2\n      swap1\n      pop\n      jump\t// out\n        /* \"#utility.yul\":5367:5547   */\n    tag_133:\n        /* \"#utility.yul\":5415:5492   */\n      0x4e487b7100000000000000000000000000000000000000000000000000000000\n        /* \"#utility.yul\":5412:5413   */\n      0x00\n        /* \"#utility.yul\":5405:5493   */\n      mstore\n        /* \"#utility.yul\":5512:5516   */\n      0x11\n        /* \"#utility.yul\":5509:5510   */\n      0x04\n        /* \"#utility.yul\":5502:5517   */\n      mstore\n        /* \"#utility.yul\":5536:5540   */\n      0x24\n        /* \"#utility.yul\":5533:5534   */\n      0x00\n        /* \"#utility.yul\":5526:5541   */\n      revert\n        /* \"#utility.yul\":5553:5744   */\n    tag_65:\n        /* \"#utility.yul\":5593:5597   */\n      0x00\n        /* \"#utility.yul\":5613:5633   */\n      tag_208\n        /* \"#utility.yul\":5631:5632   */\n      dup3\n        /* \"#utility.yul\":5613:5633   */\n      tag_113\n      jump\t// in\n    tag_208:\n        /* \"#utility.yul\":5608:5633   */\n      swap2\n      pop\n        /* \"#utility.yul\":5647:5667   */\n      tag_209\n        /* \"#utility.yul\":5665:5666   */\n      dup4\n        /* \"#utility.yul\":5647:5667   */\n      tag_113\n      jump\t// in\n    tag_209:\n        /* \"#utility.yul\":5642:5667   */\n      swap3\n      pop\n        /* \"#utility.yul\":5686:5687   */\n      dup3\n        /* \"#utility.yul\":5683:5684   */\n      dup3\n        /* \"#utility.yul\":5680:5688   */\n      lt\n        /* \"#utility.yul\":5677:5711   */\n      iszero\n      tag_210\n      jumpi\n        /* \"#utility.yul\":5691:5709   */\n      tag_211\n      tag_133\n      jump\t// in\n    tag_211:\n        /* \"#utility.yul\":5677:5711   */\n    tag_210:\n        /* \"#utility.yul\":5736:5737   */\n      dup3\n        /* \"#utility.yul\":5733:5734   */\n      dup3\n        /* \"#utility.yul\":5729:5738   */\n      sub\n        /* \"#utility.yul\":5721:5738   */\n      swap1\n      pop\n        /* \"#utility.yul\":5553:5744   */\n      swap3\n      swap2\n      pop\n      pop\n      jump\t// out\n        /* \"#utility.yul\":5750:5925   */\n    tag_134:\n        /* \"#utility.yul\":5890:5917   */\n      0x41646472657373206973206f776e657220616c72656164792e00000000000000\n        /* \"#utility.yul\":5886:5887   */\n      0x00\n        /* \"#utility.yul\":5878:5884   */\n      dup3\n        /* \"#utility.yul\":5874:5888   */\n      add\n        /* \"#utility.yul\":5867:5918   */\n      mstore\n        /* \"#utility.yul\":5750:5925   */\n      pop\n      jump\t// out\n        /* \"#utility.yul\":5931:6297   */\n    tag_135:\n        /* \"#utility.yul\":6073:6076   */\n      0x00\n        /* \"#utility.yul\":6094:6161   */\n      tag_214\n        /* \"#utility.yul\":6158:6160   */\n      0x19\n        /* \"#utility.yul\":6153:6156   */\n      dup4\n        /* \"#utility.yul\":6094:6161   */\n      tag_130\n      jump\t// in\n    tag_214:\n        /* \"#utility.yul\":6087:6161   */\n      swap2\n      pop\n        /* \"#utility.yul\":6170:6263   */\n      tag_215\n        /* \"#utility.yul\":6259:6262   */\n      dup3\n        /* \"#utility.yul\":6170:6263   */\n      tag_134\n      jump\t// in\n    tag_215:\n        /* \"#utility.yul\":6288:6290   */\n      0x20\n        /* \"#utility.yul\":6283:6286   */\n      dup3\n        /* \"#utility.yul\":6279:6291   */\n      add\n        /* \"#utility.yul\":6272:6291   */\n      swap1\n      pop\n        /* \"#utility.yul\":5931:6297   */\n      swap2\n      swap1\n      pop\n      jump\t// out\n        /* \"#utility.yul\":6303:6722   */\n    tag_73:\n        /* \"#utility.yul\":6469:6473   */\n      0x00\n        /* \"#utility.yul\":6507:6509   */\n      0x20\n        /* \"#utility.yul\":6496:6505   */\n      dup3\n        /* \"#utility.yul\":6492:6510   */\n      add\n        /* \"#utility.yul\":6484:6510   */\n      swap1\n      pop\n        /* \"#utility.yul\":6556:6565   */\n      dup2\n        /* \"#utility.yul\":6550:6554   */\n      dup2\n        /* \"#utility.yul\":6546:6566   */\n      sub\n        /* \"#utility.yul\":6542:6543   */\n      0x00\n        /* \"#utility.yul\":6531:6540   */\n      dup4\n        /* \"#utility.yul\":6527:6544   */\n      add\n        /* \"#utility.yul\":6520:6567   */\n      mstore\n        /* \"#utility.yul\":6584:6715   */\n      tag_217\n        /* \"#utility.yul\":6710:6714   */\n      dup2\n        /* \"#utility.yul\":6584:6715   */\n      tag_135\n      jump\t// in\n    tag_217:\n        /* \"#utility.yul\":6576:6715   */\n      swap1\n      pop\n        /* \"#utility.yul\":6303:6722   */\n      swap2\n      swap1\n      pop\n      jump\t// out\n        /* \"#utility.yul\":6728:6846   */\n    tag_136:\n        /* \"#utility.yul\":6815:6839   */\n      tag_219\n        /* \"#utility.yul\":6833:6838   */\n      dup2\n        /* \"#utility.yul\":6815:6839   */\n      tag_123\n      jump\t// in\n    tag_219:\n        /* \"#utility.yul\":6810:6813   */\n      dup3\n        /* \"#utility.yul\":6803:6840   */\n      mstore\n        /* \"#utility.yul\":6728:6846   */\n      pop\n      pop\n      jump\t// out\n        /* \"#utility.yul\":6852:7074   */\n    tag_75:\n        /* \"#utility.yul\":6945:6949   */\n      0x00\n        /* \"#utility.yul\":6983:6985   */\n      0x20\n        /* \"#utility.yul\":6972:6981   */\n      dup3\n        /* \"#utility.yul\":6968:6986   */\n      add\n        /* \"#utility.yul\":6960:6986   */\n      swap1\n      pop\n        /* \"#utility.yul\":6996:7067   */\n      tag_221\n        /* \"#utility.yul\":7064:7065   */\n      0x00\n        /* \"#utility.yul\":7053:7062   */\n      dup4\n        /* \"#utility.yul\":7049:7066   */\n      add\n        /* \"#utility.yul\":7040:7046   */\n      dup5\n        /* \"#utility.yul\":6996:7067   */\n      tag_136\n      jump\t// in\n    tag_221:\n        /* \"#utility.yul\":6852:7074   */\n      swap3\n      swap2\n      pop\n      pop\n      jump\t// out\n        /* \"#utility.yul\":7080:7314   */\n    tag_137:\n        /* \"#utility.yul\":7220:7254   */\n      0x4552524f5220315f496e73756666696369656e742062616c616e636520746f20\n        /* \"#utility.yul\":7216:7217   */\n      0x00\n        /* \"#utility.yul\":7208:7214   */\n      dup3\n        /* \"#utility.yul\":7204:7218   */\n      add\n        /* \"#utility.yul\":7197:7255   */\n      mstore\n        /* \"#utility.yul\":7289:7306   */\n      0x7472616e736665722066756e64732e0000000000000000000000000000000000\n        /* \"#utility.yul\":7284:7286   */\n      0x20\n        /* \"#utility.yul\":7276:7282   */\n      dup3\n        /* \"#utility.yul\":7272:7287   */\n      add\n        /* \"#utility.yul\":7265:7307   */\n      mstore\n        /* \"#utility.yul\":7080:7314   */\n      pop\n      jump\t// out\n        /* \"#utility.yul\":7320:7686   */\n    tag_138:\n        /* \"#utility.yul\":7462:7465   */\n      0x00\n        /* \"#utility.yul\":7483:7550   */\n      tag_224\n        /* \"#utility.yul\":7547:7549   */\n      0x2f\n        /* \"#utility.yul\":7542:7545   */\n      dup4\n        /* \"#utility.yul\":7483:7550   */\n      tag_130\n      jump\t// in\n    tag_224:\n        /* \"#utility.yul\":7476:7550   */\n      swap2\n      pop\n        /* \"#utility.yul\":7559:7652   */\n      tag_225\n        /* \"#utility.yul\":7648:7651   */\n      dup3\n        /* \"#utility.yul\":7559:7652   */\n      tag_137\n      jump\t// in\n    tag_225:\n        /* \"#utility.yul\":7677:7679   */\n      0x40\n        /* \"#utility.yul\":7672:7675   */\n      dup3\n        /* \"#utility.yul\":7668:7680   */\n      add\n        /* \"#utility.yul\":7661:7680   */\n      swap1\n      pop\n        /* \"#utility.yul\":7320:7686   */\n      swap2\n      swap1\n      pop\n      jump\t// out\n        /* \"#utility.yul\":7692:8111   */\n    tag_79:\n        /* \"#utility.yul\":7858:7862   */\n      0x00\n        /* \"#utility.yul\":7896:7898   */\n      0x20\n        /* \"#utility.yul\":7885:7894   */\n      dup3\n        /* \"#utility.yul\":7881:7899   */\n      add\n        /* \"#utility.yul\":7873:7899   */\n      swap1\n      pop\n        /* \"#utility.yul\":7945:7954   */\n      dup2\n        /* \"#utility.yul\":7939:7943   */\n      dup2\n        /* \"#utility.yul\":7935:7955   */\n      sub\n        /* \"#utility.yul\":7931:7932   */\n      0x00\n        /* \"#utility.yul\":7920:7929   */\n      dup4\n        /* \"#utility.yul\":7916:7933   */\n      add\n        /* \"#utility.yul\":7909:7956   */\n      mstore\n        /* \"#utility.yul\":7973:8104   */\n      tag_227\n        /* \"#utility.yul\":8099:8103   */\n      dup2\n        /* \"#utility.yul\":7973:8104   */\n      tag_138\n      jump\t// in\n    tag_227:\n        /* \"#utility.yul\":7965:8104   */\n      swap1\n      pop\n        /* \"#utility.yul\":7692:8111   */\n      swap2\n      swap1\n      pop\n      jump\t// out\n        /* \"#utility.yul\":8117:8347   */\n    tag_139:\n        /* \"#utility.yul\":8257:8291   */\n      0x4552524f5220325f5468652073656e6465722063616e6e6f7420626520746865\n        /* \"#utility.yul\":8253:8254   */\n      0x00\n        /* \"#utility.yul\":8245:8251   */\n      dup3\n        /* \"#utility.yul\":8241:8255   */\n      add\n        /* \"#utility.yul\":8234:8292   */\n      mstore\n        /* \"#utility.yul\":8326:8339   */\n      0x20726563697069656e742e000000000000000000000000000000000000000000\n        /* \"#utility.yul\":8321:8323   */\n      0x20\n        /* \"#utility.yul\":8313:8319   */\n      dup3\n        /* \"#utility.yul\":8309:8324   */\n      add\n        /* \"#utility.yul\":8302:8340   */\n      mstore\n        /* \"#utility.yul\":8117:8347   */\n      pop\n      jump\t// out\n        /* \"#utility.yul\":8353:8719   */\n    tag_140:\n        /* \"#utility.yul\":8495:8498   */\n      0x00\n        /* \"#utility.yul\":8516:8583   */\n      tag_230\n        /* \"#utility.yul\":8580:8582   */\n      0x2b\n        /* \"#utility.yul\":8575:8578   */\n      dup4\n        /* \"#utility.yul\":8516:8583   */\n      tag_130\n      jump\t// in\n    tag_230:\n        /* \"#utility.yul\":8509:8583   */\n      swap2\n      pop\n        /* \"#utility.yul\":8592:8685   */\n      tag_231\n        /* \"#utility.yul\":8681:8684   */\n      dup3\n        /* \"#utility.yul\":8592:8685   */\n      tag_139\n      jump\t// in\n    tag_231:\n        /* \"#utility.yul\":8710:8712   */\n      0x40\n        /* \"#utility.yul\":8705:8708   */\n      dup3\n        /* \"#utility.yul\":8701:8713   */\n      add\n        /* \"#utility.yul\":8694:8713   */\n      swap1\n      pop\n        /* \"#utility.yul\":8353:8719   */\n      swap2\n      swap1\n      pop\n      jump\t// out\n        /* \"#utility.yul\":8725:9144   */\n    tag_82:\n        /* \"#utility.yul\":8891:8895   */\n      0x00\n        /* \"#utility.yul\":8929:8931   */\n      0x20\n        /* \"#utility.yul\":8918:8927   */\n      dup3\n        /* \"#utility.yul\":8914:8932   */\n      add\n        /* \"#utility.yul\":8906:8932   */\n      swap1\n      pop\n        /* \"#utility.yul\":8978:8987   */\n      dup2\n        /* \"#utility.yul\":8972:8976   */\n      dup2\n        /* \"#utility.yul\":8968:8988   */\n      sub\n        /* \"#utility.yul\":8964:8965   */\n      0x00\n        /* \"#utility.yul\":8953:8962   */\n      dup4\n        /* \"#utility.yul\":8949:8966   */\n      add\n        /* \"#utility.yul\":8942:8989   */\n      mstore\n        /* \"#utility.yul\":9006:9137   */\n      tag_233\n        /* \"#utility.yul\":9132:9136   */\n      dup2\n        /* \"#utility.yul\":9006:9137   */\n      tag_140\n      jump\t// in\n    tag_233:\n        /* \"#utility.yul\":8998:9137   */\n      swap1\n      pop\n        /* \"#utility.yul\":8725:9144   */\n      swap2\n      swap1\n      pop\n      jump\t// out\n        /* \"#utility.yul\":9150:9391   */\n    tag_141:\n        /* \"#utility.yul\":9290:9324   */\n      0x596f7520617265206e6f7420616e206f776e657220616e64206e6f7420616c6c\n        /* \"#utility.yul\":9286:9287   */\n      0x00\n        /* \"#utility.yul\":9278:9284   */\n      dup3\n        /* \"#utility.yul\":9274:9288   */\n      add\n        /* \"#utility.yul\":9267:9325   */\n      mstore\n        /* \"#utility.yul\":9359:9383   */\n      0x6f77656420746f206d616b65207472616e736665722e00000000000000000000\n        /* \"#utility.yul\":9354:9356   */\n      0x20\n        /* \"#utility.yul\":9346:9352   */\n      dup3\n        /* \"#utility.yul\":9342:9357   */\n      add\n        /* \"#utility.yul\":9335:9384   */\n      mstore\n        /* \"#utility.yul\":9150:9391   */\n      pop\n      jump\t// out\n        /* \"#utility.yul\":9397:9763   */\n    tag_142:\n        /* \"#utility.yul\":9539:9542   */\n      0x00\n        /* \"#utility.yul\":9560:9627   */\n      tag_236\n        /* \"#utility.yul\":9624:9626   */\n      0x36\n        /* \"#utility.yul\":9619:9622   */\n      dup4\n        /* \"#utility.yul\":9560:9627   */\n      tag_130\n      jump\t// in\n    tag_236:\n        /* \"#utility.yul\":9553:9627   */\n      swap2\n      pop\n        /* \"#utility.yul\":9636:9729   */\n      tag_237\n        /* \"#utility.yul\":9725:9728   */\n      dup3\n        /* \"#utility.yul\":9636:9729   */\n      tag_141\n      jump\t// in\n    tag_237:\n        /* \"#utility.yul\":9754:9756   */\n      0x40\n        /* \"#utility.yul\":9749:9752   */\n      dup3\n        /* \"#utility.yul\":9745:9757   */\n      add\n        /* \"#utility.yul\":9738:9757   */\n      swap1\n      pop\n        /* \"#utility.yul\":9397:9763   */\n      swap2\n      swap1\n      pop\n      jump\t// out\n        /* \"#utility.yul\":9769:10188   */\n    tag_86:\n        /* \"#utility.yul\":9935:9939   */\n      0x00\n        /* \"#utility.yul\":9973:9975   */\n      0x20\n        /* \"#utility.yul\":9962:9971   */\n      dup3\n        /* \"#utility.yul\":9958:9976   */\n      add\n        /* \"#utility.yul\":9950:9976   */\n      swap1\n      pop\n        /* \"#utility.yul\":10022:10031   */\n      dup2\n        /* \"#utility.yul\":10016:10020   */\n      dup2\n        /* \"#utility.yul\":10012:10032   */\n      sub\n        /* \"#utility.yul\":10008:10009   */\n      0x00\n        /* \"#utility.yul\":9997:10006   */\n      dup4\n        /* \"#utility.yul\":9993:10010   */\n      add\n        /* \"#utility.yul\":9986:10033   */\n      mstore\n        /* \"#utility.yul\":10050:10181   */\n      tag_239\n        /* \"#utility.yul\":10176:10180   */\n      dup2\n        /* \"#utility.yul\":10050:10181   */\n      tag_142\n      jump\t// in\n    tag_239:\n        /* \"#utility.yul\":10042:10181   */\n      swap1\n      pop\n        /* \"#utility.yul\":9769:10188   */\n      swap2\n      swap1\n      pop\n      jump\t// out\n        /* \"#utility.yul\":10194:10636   */\n    tag_90:\n        /* \"#utility.yul\":10343:10347   */\n      0x00\n        /* \"#utility.yul\":10381:10383   */\n      0x60\n        /* \"#utility.yul\":10370:10379   */\n      dup3\n        /* \"#utility.yul\":10366:10384   */\n      add\n        /* \"#utility.yul\":10358:10384   */\n      swap1\n      pop\n        /* \"#utility.yul\":10394:10465   */\n      tag_241\n        /* \"#utility.yul\":10462:10463   */\n      0x00\n        /* \"#utility.yul\":10451:10460   */\n      dup4\n        /* \"#utility.yul\":10447:10464   */\n      add\n        /* \"#utility.yul\":10438:10444   */\n      dup7\n        /* \"#utility.yul\":10394:10465   */\n      tag_136\n      jump\t// in\n    tag_241:\n        /* \"#utility.yul\":10475:10547   */\n      tag_242\n        /* \"#utility.yul\":10543:10545   */\n      0x20\n        /* \"#utility.yul\":10532:10541   */\n      dup4\n        /* \"#utility.yul\":10528:10546   */\n      add\n        /* \"#utility.yul\":10519:10525   */\n      dup6\n        /* \"#utility.yul\":10475:10547   */\n      tag_136\n      jump\t// in\n    tag_242:\n        /* \"#utility.yul\":10557:10629   */\n      tag_243\n        /* \"#utility.yul\":10625:10627   */\n      0x40\n        /* \"#utility.yul\":10614:10623   */\n      dup4\n        /* \"#utility.yul\":10610:10628   */\n      add\n        /* \"#utility.yul\":10601:10607   */\n      dup5\n        /* \"#utility.yul\":10557:10629   */\n      tag_114\n      jump\t// in\n    tag_243:\n        /* \"#utility.yul\":10194:10636   */\n      swap5\n      swap4\n      pop\n      pop\n      pop\n      pop\n      jump\t// out\n        /* \"#utility.yul\":10642:10822   */\n    tag_97:\n        /* \"#utility.yul\":10690:10767   */\n      0x4e487b7100000000000000000000000000000000000000000000000000000000\n        /* \"#utility.yul\":10687:10688   */\n      0x00\n        /* \"#utility.yul\":10680:10768   */\n      mstore\n        /* \"#utility.yul\":10787:10791   */\n      0x01\n        /* \"#utility.yul\":10784:10785   */\n      0x04\n        /* \"#utility.yul\":10777:10792   */\n      mstore\n        /* \"#utility.yul\":10811:10815   */\n      0x24\n        /* \"#utility.yul\":10808:10809   */\n      0x00\n        /* \"#utility.yul\":10801:10816   */\n      revert\n        /* \"#utility.yul\":10828:11001   */\n    tag_143:\n        /* \"#utility.yul\":10968:10993   */\n      0x4e6f74206f776e6572206f66206f776e65726c6973742e000000000000000000\n        /* \"#utility.yul\":10964:10965   */\n      0x00\n        /* \"#utility.yul\":10956:10962   */\n      dup3\n        /* \"#utility.yul\":10952:10966   */\n      add\n        /* \"#utility.yul\":10945:10994   */\n      mstore\n        /* \"#utility.yul\":10828:11001   */\n      pop\n      jump\t// out\n        /* \"#utility.yul\":11007:11373   */\n    tag_144:\n        /* \"#utility.yul\":11149:11152   */\n      0x00\n        /* \"#utility.yul\":11170:11237   */\n      tag_247\n        /* \"#utility.yul\":11234:11236   */\n      0x17\n        /* \"#utility.yul\":11229:11232   */\n      dup4\n        /* \"#utility.yul\":11170:11237   */\n      tag_130\n      jump\t// in\n    tag_247:\n        /* \"#utility.yul\":11163:11237   */\n      swap2\n      pop\n        /* \"#utility.yul\":11246:11339   */\n      tag_248\n        /* \"#utility.yul\":11335:11338   */\n      dup3\n        /* \"#utility.yul\":11246:11339   */\n      tag_143\n      jump\t// in\n    tag_248:\n        /* \"#utility.yul\":11364:11366   */\n      0x20\n        /* \"#utility.yul\":11359:11362   */\n      dup3\n        /* \"#utility.yul\":11355:11367   */\n      add\n        /* \"#utility.yul\":11348:11367   */\n      swap1\n      pop\n        /* \"#utility.yul\":11007:11373   */\n      swap2\n      swap1\n      pop\n      jump\t// out\n        /* \"#utility.yul\":11379:11798   */\n    tag_104:\n        /* \"#utility.yul\":11545:11549   */\n      0x00\n        /* \"#utility.yul\":11583:11585   */\n      0x20\n        /* \"#utility.yul\":11572:11581   */\n      dup3\n        /* \"#utility.yul\":11568:11586   */\n      add\n        /* \"#utility.yul\":11560:11586   */\n      swap1\n      pop\n        /* \"#utility.yul\":11632:11641   */\n      dup2\n        /* \"#utility.yul\":11626:11630   */\n      dup2\n        /* \"#utility.yul\":11622:11642   */\n      sub\n        /* \"#utility.yul\":11618:11619   */\n      0x00\n        /* \"#utility.yul\":11607:11616   */\n      dup4\n        /* \"#utility.yul\":11603:11620   */\n      add\n        /* \"#utility.yul\":11596:11643   */\n      mstore\n        /* \"#utility.yul\":11660:11791   */\n      tag_250\n        /* \"#utility.yul\":11786:11790   */\n      dup2\n        /* \"#utility.yul\":11660:11791   */\n      tag_144\n      jump\t// in\n    tag_250:\n        /* \"#utility.yul\":11652:11791   */\n      swap1\n      pop\n        /* \"#utility.yul\":11379:11798   */\n      swap2\n      swap1\n      pop\n      jump\t// out\n        /* \"#utility.yul\":11804:12109   */\n    tag_108:\n        /* \"#utility.yul\":11844:11847   */\n      0x00\n        /* \"#utility.yul\":11863:11883   */\n      tag_252\n        /* \"#utility.yul\":11881:11882   */\n      dup3\n        /* \"#utility.yul\":11863:11883   */\n      tag_113\n      jump\t// in\n    tag_252:\n        /* \"#utility.yul\":11858:11883   */\n      swap2\n      pop\n        /* \"#utility.yul\":11897:11917   */\n      tag_253\n        /* \"#utility.yul\":11915:11916   */\n      dup4\n        /* \"#utility.yul\":11897:11917   */\n      tag_113\n      jump\t// in\n    tag_253:\n        /* \"#utility.yul\":11892:11917   */\n      swap3\n      pop\n        /* \"#utility.yul\":12051:12052   */\n      dup3\n        /* \"#utility.yul\":11983:12049   */\n      0xffffffffffffffffffffffffffffffffffffffffffffffffffffffffffffffff\n        /* \"#utility.yul\":11979:12053   */\n      sub\n        /* \"#utility.yul\":11976:11977   */\n      dup3\n        /* \"#utility.yul\":11973:12054   */\n      gt\n        /* \"#utility.yul\":11970:12077   */\n      iszero\n      tag_254\n      jumpi\n        /* \"#utility.yul\":12057:12075   */\n      tag_255\n      tag_133\n      jump\t// in\n    tag_255:\n        /* \"#utility.yul\":11970:12077   */\n    tag_254:\n        /* \"#utility.yul\":12101:12102   */\n      dup3\n        /* \"#utility.yul\":12098:12099   */\n      dup3\n        /* \"#utility.yul\":12094:12103   */\n      add\n        /* \"#utility.yul\":12087:12103   */\n      swap1\n      pop\n        /* \"#utility.yul\":11804:12109   */\n      swap3\n      swap2\n      pop\n      pop\n      jump\t// out\n\n    auxdata: 0xa264697066735822122021b88d81f0b1397e0ec7345580e1cabec2ef0f75f3eaa130e0254b3ddc7c018b64736f6c634300080d0033\n}\n",
				"bytecode": {
					"linkReferences": {},
					"object": "608060405273da0bab807633f07f013f94dd0e6a4f96f8742b53600260006101000a81548173ffffffffffffffffffffffffffffffffffffffff021916908373ffffffffffffffffffffffffffffffffffffffff16021790555034801561006557600080fd5b50336000806101000a81548173ffffffffffffffffffffffffffffffffffffffff021916908373ffffffffffffffffffffffffffffffffffffffff1602179055506111c5806100b56000396000f3fe6080604052600436106100865760003560e01c80635f3b1f3b116100595780635f3b1f3b1461015b578063a9059cbb14610184578063b64c14fe146101ad578063d0e30db0146101d6578063ec2e11ae146101f457610086565b806312065fe01461008b5780631cd9aa0e146100b65780632e1a7d4d146100e15780632f54bf6e1461011e575b600080fd5b34801561009757600080fd5b506100a061021d565b6040516100ad9190610b0e565b60405180910390f35b3480156100c257600080fd5b506100cb610264565b6040516100d89190610b42565b60405180910390f35b3480156100ed57600080fd5b5061010860048036038101906101039190610b8e565b61026e565b6040516101159190610b0e565b60405180910390f35b34801561012a57600080fd5b5061014560048036038101906101409190610c19565b6103d6565b6040516101529190610c61565b60405180910390f35b34801561016757600080fd5b50610182600480360381019061017d9190610c19565b61042c565b005b34801561019057600080fd5b506101ab60048036038101906101a69190610c7c565b61055e565b005b3480156101b957600080fd5b506101d460048036038101906101cf9190610c19565b610830565b005b6101de610959565b6040516101eb9190610b0e565b60405180910390f35b34801561020057600080fd5b5061021b60048036038101906102169190610ce8565b610a3a565b005b6000600360003373ffffffffffffffffffffffffffffffffffffffff1673ffffffffffffffffffffffffffffffffffffffff16815260200190815260200160002054905090565b6000600454905090565b600081600360003373ffffffffffffffffffffffffffffffffffffffff1673ffffffffffffffffffffffffffffffffffffffff1681526020019081526020016000205410156102f2576040517f08c379a00000000000000000000000000000000000000000000000000000000081526004016102e990610d98565b60405180910390fd5b3373ffffffffffffffffffffffffffffffffffffffff166108fc839081150290604051600060405180830381858888f19350505050158015610338573d6000803e3d6000fd5b5081600360003373ffffffffffffffffffffffffffffffffffffffff1673ffffffffffffffffffffffffffffffffffffffff16815260200190815260200160002060008282546103889190610de7565b92505081905550600360003373ffffffffffffffffffffffffffffffffffffffff1673ffffffffffffffffffffffffffffffffffffffff168152602001908152602001600020549050919050565b6000600160008373ffffffffffffffffffffffffffffffffffffffff1673ffffffffffffffffffffffffffffffffffffffff16815260200190815260200160002060009054906101000a900460ff169050919050565b60008054906101000a900473ffffffffffffffffffffffffffffffffffffffff1673ffffffffffffffffffffffffffffffffffffffff163373ffffffffffffffffffffffffffffffffffffffff161461048457600080fd5b61048d816103d6565b156104cd576040517f08c379a00000000000000000000000000000000000000000000000000000000081526004016104c490610e67565b60405180910390fd5b60018060008373ffffffffffffffffffffffffffffffffffffffff1673ffffffffffffffffffffffffffffffffffffffff16815260200190815260200160002060006101000a81548160ff0219169083151502179055507f994a936646fe87ffe4f1e469d3d6aa417d6b855598397f323de5b449f765f0c3816040516105539190610e96565b60405180910390a150565b80600360003373ffffffffffffffffffffffffffffffffffffffff1673ffffffffffffffffffffffffffffffffffffffff1681526020019081526020016000205410156105e0576040517f08c379a00000000000000000000000000000000000000000000000000000000081526004016105d790610f23565b60405180910390fd5b8173ffffffffffffffffffffffffffffffffffffffff163373ffffffffffffffffffffffffffffffffffffffff160361064e576040517f08c379a000000000000000000000000000000000000000000000000000000000815260040161064590610fb5565b60405180910390fd5b610657336103d6565b610696576040517f08c379a000000000000000000000000000000000000000000000000000000000815260040161068d90611047565b60405180910390fd5b6000600360003373ffffffffffffffffffffffffffffffffffffffff1673ffffffffffffffffffffffffffffffffffffffff1681526020019081526020016000205490506106e5338484610a44565b818373ffffffffffffffffffffffffffffffffffffffff163373ffffffffffffffffffffffffffffffffffffffff167f3573881c639e018e0c3ba3a7d19063f6a7a8205d54eb828319a7f98db00426a060405160405180910390a4600260009054906101000a900473ffffffffffffffffffffffffffffffffffffffff1673ffffffffffffffffffffffffffffffffffffffff1663fe73b27f3385856040518463ffffffff1660e01b815260040161079f93929190611067565b600060405180830381600087803b1580156107b957600080fd5b505af11580156107cd573d6000803e3d6000fd5b5050505081816107dd9190610de7565b600360003373ffffffffffffffffffffffffffffffffffffffff1673ffffffffffffffffffffffffffffffffffffffff168152602001908152602001600020541461082b5761082a61109e565b5b505050565b60008054906101000a900473ffffffffffffffffffffffffffffffffffffffff1673ffffffffffffffffffffffffffffffffffffffff163373ffffffffffffffffffffffffffffffffffffffff161461088857600080fd5b610891816103d6565b6108d0576040517f08c379a00000000000000000000000000000000000000000000000000000000081526004016108c790611119565b60405180910390fd5b600160008273ffffffffffffffffffffffffffffffffffffffff1673ffffffffffffffffffffffffffffffffffffffff16815260200190815260200160002060006101000a81549060ff02191690557f58619076adf5bb0943d100ef88d52d7c3fd691b19d3a9071b555b651fbf418da8160405161094e9190610e96565b60405180910390a150565b600034600360003373ffffffffffffffffffffffffffffffffffffffff1673ffffffffffffffffffffffffffffffffffffffff16815260200190815260200160002060008282546109aa9190611139565b925050819055503373ffffffffffffffffffffffffffffffffffffffff16347fa23831066066ec8812cc52afc91a52134a8b50c9209b68c276be679f4073d95d60405160405180910390a3600360003373ffffffffffffffffffffffffffffffffffffffff1673ffffffffffffffffffffffffffffffffffffffff16815260200190815260200160002054905090565b8060048190555050565b80600360008573ffffffffffffffffffffffffffffffffffffffff1673ffffffffffffffffffffffffffffffffffffffff1681526020019081526020016000206000828254610a939190610de7565b9250508190555080600360008473ffffffffffffffffffffffffffffffffffffffff1673ffffffffffffffffffffffffffffffffffffffff1681526020019081526020016000206000828254610ae99190611139565b92505081905550505050565b6000819050919050565b610b0881610af5565b82525050565b6000602082019050610b236000830184610aff565b92915050565b6000819050919050565b610b3c81610b29565b82525050565b6000602082019050610b576000830184610b33565b92915050565b600080fd5b610b6b81610af5565b8114610b7657600080fd5b50565b600081359050610b8881610b62565b92915050565b600060208284031215610ba457610ba3610b5d565b5b6000610bb284828501610b79565b91505092915050565b600073ffffffffffffffffffffffffffffffffffffffff82169050919050565b6000610be682610bbb565b9050919050565b610bf681610bdb565b8114610c0157600080fd5b50565b600081359050610c1381610bed565b92915050565b600060208284031215610c2f57610c2e610b5d565b5b6000610c3d84828501610c04565b91505092915050565b60008115159050919050565b610c5b81610c46565b82525050565b6000602082019050610c766000830184610c52565b92915050565b60008060408385031215610c9357610c92610b5d565b5b6000610ca185828601610c04565b9250506020610cb285828601610b79565b9150509250929050565b610cc581610b29565b8114610cd057600080fd5b50565b600081359050610ce281610cbc565b92915050565b600060208284031215610cfe57610cfd610b5d565b5b6000610d0c84828501610cd3565b91505092915050565b600082825260208201905092915050565b7f4552524f5220315f496e73756666696369656e742062616c616e636520746f2060008201527f77697468647261772066756e64732e0000000000000000000000000000000000602082015250565b6000610d82602f83610d15565b9150610d8d82610d26565b604082019050919050565b60006020820190508181036000830152610db181610d75565b9050919050565b7f4e487b7100000000000000000000000000000000000000000000000000000000600052601160045260246000fd5b6000610df282610af5565b9150610dfd83610af5565b925082821015610e1057610e0f610db8565b5b828203905092915050565b7f41646472657373206973206f776e657220616c72656164792e00000000000000600082015250565b6000610e51601983610d15565b9150610e5c82610e1b565b602082019050919050565b60006020820190508181036000830152610e8081610e44565b9050919050565b610e9081610bdb565b82525050565b6000602082019050610eab6000830184610e87565b92915050565b7f4552524f5220315f496e73756666696369656e742062616c616e636520746f2060008201527f7472616e736665722066756e64732e0000000000000000000000000000000000602082015250565b6000610f0d602f83610d15565b9150610f1882610eb1565b604082019050919050565b60006020820190508181036000830152610f3c81610f00565b9050919050565b7f4552524f5220325f5468652073656e6465722063616e6e6f742062652074686560008201527f20726563697069656e742e000000000000000000000000000000000000000000602082015250565b6000610f9f602b83610d15565b9150610faa82610f43565b604082019050919050565b60006020820190508181036000830152610fce81610f92565b9050919050565b7f596f7520617265206e6f7420616e206f776e657220616e64206e6f7420616c6c60008201527f6f77656420746f206d616b65207472616e736665722e00000000000000000000602082015250565b6000611031603683610d15565b915061103c82610fd5565b604082019050919050565b6000602082019050818103600083015261106081611024565b9050919050565b600060608201905061107c6000830186610e87565b6110896020830185610e87565b6110966040830184610aff565b949350505050565b7f4e487b7100000000000000000000000000000000000000000000000000000000600052600160045260246000fd5b7f4e6f74206f776e6572206f66206f776e65726c6973742e000000000000000000600082015250565b6000611103601783610d15565b915061110e826110cd565b602082019050919050565b60006020820190508181036000830152611132816110f6565b9050919050565b600061114482610af5565b915061114f83610af5565b9250827fffffffffffffffffffffffffffffffffffffffffffffffffffffffffffffffff0382111561118457611183610db8565b5b82820190509291505056fea264697066735822122021b88d81f0b1397e0ec7345580e1cabec2ef0f75f3eaa130e0254b3ddc7c018b64736f6c634300080d0033",
					"opcodes": "PUSH1 0x80 PUSH1 0x40 MSTORE PUSH20 0xDA0BAB807633F07F013F94DD0E6A4F96F8742B53 PUSH1 0x2 PUSH1 0x0 PUSH2 0x100 EXP DUP2 SLOAD DUP2 PUSH20 0xFFFFFFFFFFFFFFFFFFFFFFFFFFFFFFFFFFFFFFFF MUL NOT AND SWAP1 DUP4 PUSH20 0xFFFFFFFFFFFFFFFFFFFFFFFFFFFFFFFFFFFFFFFF AND MUL OR SWAP1 SSTORE POP CALLVALUE DUP1 ISZERO PUSH2 0x65 JUMPI PUSH1 0x0 DUP1 REVERT JUMPDEST POP CALLER PUSH1 0x0 DUP1 PUSH2 0x100 EXP DUP2 SLOAD DUP2 PUSH20 0xFFFFFFFFFFFFFFFFFFFFFFFFFFFFFFFFFFFFFFFF MUL NOT AND SWAP1 DUP4 PUSH20 0xFFFFFFFFFFFFFFFFFFFFFFFFFFFFFFFFFFFFFFFF AND MUL OR SWAP1 SSTORE POP PUSH2 0x11C5 DUP1 PUSH2 0xB5 PUSH1 0x0 CODECOPY PUSH1 0x0 RETURN INVALID PUSH1 0x80 PUSH1 0x40 MSTORE PUSH1 0x4 CALLDATASIZE LT PUSH2 0x86 JUMPI PUSH1 0x0 CALLDATALOAD PUSH1 0xE0 SHR DUP1 PUSH4 0x5F3B1F3B GT PUSH2 0x59 JUMPI DUP1 PUSH4 0x5F3B1F3B EQ PUSH2 0x15B JUMPI DUP1 PUSH4 0xA9059CBB EQ PUSH2 0x184 JUMPI DUP1 PUSH4 0xB64C14FE EQ PUSH2 0x1AD JUMPI DUP1 PUSH4 0xD0E30DB0 EQ PUSH2 0x1D6 JUMPI DUP1 PUSH4 0xEC2E11AE EQ PUSH2 0x1F4 JUMPI PUSH2 0x86 JUMP JUMPDEST DUP1 PUSH4 0x12065FE0 EQ PUSH2 0x8B JUMPI DUP1 PUSH4 0x1CD9AA0E EQ PUSH2 0xB6 JUMPI DUP1 PUSH4 0x2E1A7D4D EQ PUSH2 0xE1 JUMPI DUP1 PUSH4 0x2F54BF6E EQ PUSH2 0x11E JUMPI JUMPDEST PUSH1 0x0 DUP1 REVERT JUMPDEST CALLVALUE DUP1 ISZERO PUSH2 0x97 JUMPI PUSH1 0x0 DUP1 REVERT JUMPDEST POP PUSH2 0xA0 PUSH2 0x21D JUMP JUMPDEST PUSH1 0x40 MLOAD PUSH2 0xAD SWAP2 SWAP1 PUSH2 0xB0E JUMP JUMPDEST PUSH1 0x40 MLOAD DUP1 SWAP2 SUB SWAP1 RETURN JUMPDEST CALLVALUE DUP1 ISZERO PUSH2 0xC2 JUMPI PUSH1 0x0 DUP1 REVERT JUMPDEST POP PUSH2 0xCB PUSH2 0x264 JUMP JUMPDEST PUSH1 0x40 MLOAD PUSH2 0xD8 SWAP2 SWAP1 PUSH2 0xB42 JUMP JUMPDEST PUSH1 0x40 MLOAD DUP1 SWAP2 SUB SWAP1 RETURN JUMPDEST CALLVALUE DUP1 ISZERO PUSH2 0xED JUMPI PUSH1 0x0 DUP1 REVERT JUMPDEST POP PUSH2 0x108 PUSH1 0x4 DUP1 CALLDATASIZE SUB DUP2 ADD SWAP1 PUSH2 0x103 SWAP2 SWAP1 PUSH2 0xB8E JUMP JUMPDEST PUSH2 0x26E JUMP JUMPDEST PUSH1 0x40 MLOAD PUSH2 0x115 SWAP2 SWAP1 PUSH2 0xB0E JUMP JUMPDEST PUSH1 0x40 MLOAD DUP1 SWAP2 SUB SWAP1 RETURN JUMPDEST CALLVALUE DUP1 ISZERO PUSH2 0x12A JUMPI PUSH1 0x0 DUP1 REVERT JUMPDEST POP PUSH2 0x145 PUSH1 0x4 DUP1 CALLDATASIZE SUB DUP2 ADD SWAP1 PUSH2 0x140 SWAP2 SWAP1 PUSH2 0xC19 JUMP JUMPDEST PUSH2 0x3D6 JUMP JUMPDEST PUSH1 0x40 MLOAD PUSH2 0x152 SWAP2 SWAP1 PUSH2 0xC61 JUMP JUMPDEST PUSH1 0x40 MLOAD DUP1 SWAP2 SUB SWAP1 RETURN JUMPDEST CALLVALUE DUP1 ISZERO PUSH2 0x167 JUMPI PUSH1 0x0 DUP1 REVERT JUMPDEST POP PUSH2 0x182 PUSH1 0x4 DUP1 CALLDATASIZE SUB DUP2 ADD SWAP1 PUSH2 0x17D SWAP2 SWAP1 PUSH2 0xC19 JUMP JUMPDEST PUSH2 0x42C JUMP JUMPDEST STOP JUMPDEST CALLVALUE DUP1 ISZERO PUSH2 0x190 JUMPI PUSH1 0x0 DUP1 REVERT JUMPDEST POP PUSH2 0x1AB PUSH1 0x4 DUP1 CALLDATASIZE SUB DUP2 ADD SWAP1 PUSH2 0x1A6 SWAP2 SWAP1 PUSH2 0xC7C JUMP JUMPDEST PUSH2 0x55E JUMP JUMPDEST STOP JUMPDEST CALLVALUE DUP1 ISZERO PUSH2 0x1B9 JUMPI PUSH1 0x0 DUP1 REVERT JUMPDEST POP PUSH2 0x1D4 PUSH1 0x4 DUP1 CALLDATASIZE SUB DUP2 ADD SWAP1 PUSH2 0x1CF SWAP2 SWAP1 PUSH2 0xC19 JUMP JUMPDEST PUSH2 0x830 JUMP JUMPDEST STOP JUMPDEST PUSH2 0x1DE PUSH2 0x959 JUMP JUMPDEST PUSH1 0x40 MLOAD PUSH2 0x1EB SWAP2 SWAP1 PUSH2 0xB0E JUMP JUMPDEST PUSH1 0x40 MLOAD DUP1 SWAP2 SUB SWAP1 RETURN JUMPDEST CALLVALUE DUP1 ISZERO PUSH2 0x200 JUMPI PUSH1 0x0 DUP1 REVERT JUMPDEST POP PUSH2 0x21B PUSH1 0x4 DUP1 CALLDATASIZE SUB DUP2 ADD SWAP1 PUSH2 0x216 SWAP2 SWAP1 PUSH2 0xCE8 JUMP JUMPDEST PUSH2 0xA3A JUMP JUMPDEST STOP JUMPDEST PUSH1 0x0 PUSH1 0x3 PUSH1 0x0 CALLER PUSH20 0xFFFFFFFFFFFFFFFFFFFFFFFFFFFFFFFFFFFFFFFF AND PUSH20 0xFFFFFFFFFFFFFFFFFFFFFFFFFFFFFFFFFFFFFFFF AND DUP2 MSTORE PUSH1 0x20 ADD SWAP1 DUP2 MSTORE PUSH1 0x20 ADD PUSH1 0x0 KECCAK256 SLOAD SWAP1 POP SWAP1 JUMP JUMPDEST PUSH1 0x0 PUSH1 0x4 SLOAD SWAP1 POP SWAP1 JUMP JUMPDEST PUSH1 0x0 DUP2 PUSH1 0x3 PUSH1 0x0 CALLER PUSH20 0xFFFFFFFFFFFFFFFFFFFFFFFFFFFFFFFFFFFFFFFF AND PUSH20 0xFFFFFFFFFFFFFFFFFFFFFFFFFFFFFFFFFFFFFFFF AND DUP2 MSTORE PUSH1 0x20 ADD SWAP1 DUP2 MSTORE PUSH1 0x20 ADD PUSH1 0x0 KECCAK256 SLOAD LT ISZERO PUSH2 0x2F2 JUMPI PUSH1 0x40 MLOAD PUSH32 0x8C379A000000000000000000000000000000000000000000000000000000000 DUP2 MSTORE PUSH1 0x4 ADD PUSH2 0x2E9 SWAP1 PUSH2 0xD98 JUMP JUMPDEST PUSH1 0x40 MLOAD DUP1 SWAP2 SUB SWAP1 REVERT JUMPDEST CALLER PUSH20 0xFFFFFFFFFFFFFFFFFFFFFFFFFFFFFFFFFFFFFFFF AND PUSH2 0x8FC DUP4 SWAP1 DUP2 ISZERO MUL SWAP1 PUSH1 0x40 MLOAD PUSH1 0x0 PUSH1 0x40 MLOAD DUP1 DUP4 SUB DUP2 DUP6 DUP9 DUP9 CALL SWAP4 POP POP POP POP ISZERO DUP1 ISZERO PUSH2 0x338 JUMPI RETURNDATASIZE PUSH1 0x0 DUP1 RETURNDATACOPY RETURNDATASIZE PUSH1 0x0 REVERT JUMPDEST POP DUP2 PUSH1 0x3 PUSH1 0x0 CALLER PUSH20 0xFFFFFFFFFFFFFFFFFFFFFFFFFFFFFFFFFFFFFFFF AND PUSH20 0xFFFFFFFFFFFFFFFFFFFFFFFFFFFFFFFFFFFFFFFF AND DUP2 MSTORE PUSH1 0x20 ADD SWAP1 DUP2 MSTORE PUSH1 0x20 ADD PUSH1 0x0 KECCAK256 PUSH1 0x0 DUP3 DUP3 SLOAD PUSH2 0x388 SWAP2 SWAP1 PUSH2 0xDE7 JUMP JUMPDEST SWAP3 POP POP DUP2 SWAP1 SSTORE POP PUSH1 0x3 PUSH1 0x0 CALLER PUSH20 0xFFFFFFFFFFFFFFFFFFFFFFFFFFFFFFFFFFFFFFFF AND PUSH20 0xFFFFFFFFFFFFFFFFFFFFFFFFFFFFFFFFFFFFFFFF AND DUP2 MSTORE PUSH1 0x20 ADD SWAP1 DUP2 MSTORE PUSH1 0x20 ADD PUSH1 0x0 KECCAK256 SLOAD SWAP1 POP SWAP2 SWAP1 POP JUMP JUMPDEST PUSH1 0x0 PUSH1 0x1 PUSH1 0x0 DUP4 PUSH20 0xFFFFFFFFFFFFFFFFFFFFFFFFFFFFFFFFFFFFFFFF AND PUSH20 0xFFFFFFFFFFFFFFFFFFFFFFFFFFFFFFFFFFFFFFFF AND DUP2 MSTORE PUSH1 0x20 ADD SWAP1 DUP2 MSTORE PUSH1 0x20 ADD PUSH1 0x0 KECCAK256 PUSH1 0x0 SWAP1 SLOAD SWAP1 PUSH2 0x100 EXP SWAP1 DIV PUSH1 0xFF AND SWAP1 POP SWAP2 SWAP1 POP JUMP JUMPDEST PUSH1 0x0 DUP1 SLOAD SWAP1 PUSH2 0x100 EXP SWAP1 DIV PUSH20 0xFFFFFFFFFFFFFFFFFFFFFFFFFFFFFFFFFFFFFFFF AND PUSH20 0xFFFFFFFFFFFFFFFFFFFFFFFFFFFFFFFFFFFFFFFF AND CALLER PUSH20 0xFFFFFFFFFFFFFFFFFFFFFFFFFFFFFFFFFFFFFFFF AND EQ PUSH2 0x484 JUMPI PUSH1 0x0 DUP1 REVERT JUMPDEST PUSH2 0x48D DUP2 PUSH2 0x3D6 JUMP JUMPDEST ISZERO PUSH2 0x4CD JUMPI PUSH1 0x40 MLOAD PUSH32 0x8C379A000000000000000000000000000000000000000000000000000000000 DUP2 MSTORE PUSH1 0x4 ADD PUSH2 0x4C4 SWAP1 PUSH2 0xE67 JUMP JUMPDEST PUSH1 0x40 MLOAD DUP1 SWAP2 SUB SWAP1 REVERT JUMPDEST PUSH1 0x1 DUP1 PUSH1 0x0 DUP4 PUSH20 0xFFFFFFFFFFFFFFFFFFFFFFFFFFFFFFFFFFFFFFFF AND PUSH20 0xFFFFFFFFFFFFFFFFFFFFFFFFFFFFFFFFFFFFFFFF AND DUP2 MSTORE PUSH1 0x20 ADD SWAP1 DUP2 MSTORE PUSH1 0x20 ADD PUSH1 0x0 KECCAK256 PUSH1 0x0 PUSH2 0x100 EXP DUP2 SLOAD DUP2 PUSH1 0xFF MUL NOT AND SWAP1 DUP4 ISZERO ISZERO MUL OR SWAP1 SSTORE POP PUSH32 0x994A936646FE87FFE4F1E469D3D6AA417D6B855598397F323DE5B449F765F0C3 DUP2 PUSH1 0x40 MLOAD PUSH2 0x553 SWAP2 SWAP1 PUSH2 0xE96 JUMP JUMPDEST PUSH1 0x40 MLOAD DUP1 SWAP2 SUB SWAP1 LOG1 POP JUMP JUMPDEST DUP1 PUSH1 0x3 PUSH1 0x0 CALLER PUSH20 0xFFFFFFFFFFFFFFFFFFFFFFFFFFFFFFFFFFFFFFFF AND PUSH20 0xFFFFFFFFFFFFFFFFFFFFFFFFFFFFFFFFFFFFFFFF AND DUP2 MSTORE PUSH1 0x20 ADD SWAP1 DUP2 MSTORE PUSH1 0x20 ADD PUSH1 0x0 KECCAK256 SLOAD LT ISZERO PUSH2 0x5E0 JUMPI PUSH1 0x40 MLOAD PUSH32 0x8C379A000000000000000000000000000000000000000000000000000000000 DUP2 MSTORE PUSH1 0x4 ADD PUSH2 0x5D7 SWAP1 PUSH2 0xF23 JUMP JUMPDEST PUSH1 0x40 MLOAD DUP1 SWAP2 SUB SWAP1 REVERT JUMPDEST DUP2 PUSH20 0xFFFFFFFFFFFFFFFFFFFFFFFFFFFFFFFFFFFFFFFF AND CALLER PUSH20 0xFFFFFFFFFFFFFFFFFFFFFFFFFFFFFFFFFFFFFFFF AND SUB PUSH2 0x64E JUMPI PUSH1 0x40 MLOAD PUSH32 0x8C379A000000000000000000000000000000000000000000000000000000000 DUP2 MSTORE PUSH1 0x4 ADD PUSH2 0x645 SWAP1 PUSH2 0xFB5 JUMP JUMPDEST PUSH1 0x40 MLOAD DUP1 SWAP2 SUB SWAP1 REVERT JUMPDEST PUSH2 0x657 CALLER PUSH2 0x3D6 JUMP JUMPDEST PUSH2 0x696 JUMPI PUSH1 0x40 MLOAD PUSH32 0x8C379A000000000000000000000000000000000000000000000000000000000 DUP2 MSTORE PUSH1 0x4 ADD PUSH2 0x68D SWAP1 PUSH2 0x1047 JUMP JUMPDEST PUSH1 0x40 MLOAD DUP1 SWAP2 SUB SWAP1 REVERT JUMPDEST PUSH1 0x0 PUSH1 0x3 PUSH1 0x0 CALLER PUSH20 0xFFFFFFFFFFFFFFFFFFFFFFFFFFFFFFFFFFFFFFFF AND PUSH20 0xFFFFFFFFFFFFFFFFFFFFFFFFFFFFFFFFFFFFFFFF AND DUP2 MSTORE PUSH1 0x20 ADD SWAP1 DUP2 MSTORE PUSH1 0x20 ADD PUSH1 0x0 KECCAK256 SLOAD SWAP1 POP PUSH2 0x6E5 CALLER DUP5 DUP5 PUSH2 0xA44 JUMP JUMPDEST DUP2 DUP4 PUSH20 0xFFFFFFFFFFFFFFFFFFFFFFFFFFFFFFFFFFFFFFFF AND CALLER PUSH20 0xFFFFFFFFFFFFFFFFFFFFFFFFFFFFFFFFFFFFFFFF AND PUSH32 0x3573881C639E018E0C3BA3A7D19063F6A7A8205D54EB828319A7F98DB00426A0 PUSH1 0x40 MLOAD PUSH1 0x40 MLOAD DUP1 SWAP2 SUB SWAP1 LOG4 PUSH1 0x2 PUSH1 0x0 SWAP1 SLOAD SWAP1 PUSH2 0x100 EXP SWAP1 DIV PUSH20 0xFFFFFFFFFFFFFFFFFFFFFFFFFFFFFFFFFFFFFFFF AND PUSH20 0xFFFFFFFFFFFFFFFFFFFFFFFFFFFFFFFFFFFFFFFF AND PUSH4 0xFE73B27F CALLER DUP6 DUP6 PUSH1 0x40 MLOAD DUP5 PUSH4 0xFFFFFFFF AND PUSH1 0xE0 SHL DUP2 MSTORE PUSH1 0x4 ADD PUSH2 0x79F SWAP4 SWAP3 SWAP2 SWAP1 PUSH2 0x1067 JUMP JUMPDEST PUSH1 0x0 PUSH1 0x40 MLOAD DUP1 DUP4 SUB DUP2 PUSH1 0x0 DUP8 DUP1 EXTCODESIZE ISZERO DUP1 ISZERO PUSH2 0x7B9 JUMPI PUSH1 0x0 DUP1 REVERT JUMPDEST POP GAS CALL ISZERO DUP1 ISZERO PUSH2 0x7CD JUMPI RETURNDATASIZE PUSH1 0x0 DUP1 RETURNDATACOPY RETURNDATASIZE PUSH1 0x0 REVERT JUMPDEST POP POP POP POP DUP2 DUP2 PUSH2 0x7DD SWAP2 SWAP1 PUSH2 0xDE7 JUMP JUMPDEST PUSH1 0x3 PUSH1 0x0 CALLER PUSH20 0xFFFFFFFFFFFFFFFFFFFFFFFFFFFFFFFFFFFFFFFF AND PUSH20 0xFFFFFFFFFFFFFFFFFFFFFFFFFFFFFFFFFFFFFFFF AND DUP2 MSTORE PUSH1 0x20 ADD SWAP1 DUP2 MSTORE PUSH1 0x20 ADD PUSH1 0x0 KECCAK256 SLOAD EQ PUSH2 0x82B JUMPI PUSH2 0x82A PUSH2 0x109E JUMP JUMPDEST JUMPDEST POP POP POP JUMP JUMPDEST PUSH1 0x0 DUP1 SLOAD SWAP1 PUSH2 0x100 EXP SWAP1 DIV PUSH20 0xFFFFFFFFFFFFFFFFFFFFFFFFFFFFFFFFFFFFFFFF AND PUSH20 0xFFFFFFFFFFFFFFFFFFFFFFFFFFFFFFFFFFFFFFFF AND CALLER PUSH20 0xFFFFFFFFFFFFFFFFFFFFFFFFFFFFFFFFFFFFFFFF AND EQ PUSH2 0x888 JUMPI PUSH1 0x0 DUP1 REVERT JUMPDEST PUSH2 0x891 DUP2 PUSH2 0x3D6 JUMP JUMPDEST PUSH2 0x8D0 JUMPI PUSH1 0x40 MLOAD PUSH32 0x8C379A000000000000000000000000000000000000000000000000000000000 DUP2 MSTORE PUSH1 0x4 ADD PUSH2 0x8C7 SWAP1 PUSH2 0x1119 JUMP JUMPDEST PUSH1 0x40 MLOAD DUP1 SWAP2 SUB SWAP1 REVERT JUMPDEST PUSH1 0x1 PUSH1 0x0 DUP3 PUSH20 0xFFFFFFFFFFFFFFFFFFFFFFFFFFFFFFFFFFFFFFFF AND PUSH20 0xFFFFFFFFFFFFFFFFFFFFFFFFFFFFFFFFFFFFFFFF AND DUP2 MSTORE PUSH1 0x20 ADD SWAP1 DUP2 MSTORE PUSH1 0x20 ADD PUSH1 0x0 KECCAK256 PUSH1 0x0 PUSH2 0x100 EXP DUP2 SLOAD SWAP1 PUSH1 0xFF MUL NOT AND SWAP1 SSTORE PUSH32 0x58619076ADF5BB0943D100EF88D52D7C3FD691B19D3A9071B555B651FBF418DA DUP2 PUSH1 0x40 MLOAD PUSH2 0x94E SWAP2 SWAP1 PUSH2 0xE96 JUMP JUMPDEST PUSH1 0x40 MLOAD DUP1 SWAP2 SUB SWAP1 LOG1 POP JUMP JUMPDEST PUSH1 0x0 CALLVALUE PUSH1 0x3 PUSH1 0x0 CALLER PUSH20 0xFFFFFFFFFFFFFFFFFFFFFFFFFFFFFFFFFFFFFFFF AND PUSH20 0xFFFFFFFFFFFFFFFFFFFFFFFFFFFFFFFFFFFFFFFF AND DUP2 MSTORE PUSH1 0x20 ADD SWAP1 DUP2 MSTORE PUSH1 0x20 ADD PUSH1 0x0 KECCAK256 PUSH1 0x0 DUP3 DUP3 SLOAD PUSH2 0x9AA SWAP2 SWAP1 PUSH2 0x1139 JUMP JUMPDEST SWAP3 POP POP DUP2 SWAP1 SSTORE POP CALLER PUSH20 0xFFFFFFFFFFFFFFFFFFFFFFFFFFFFFFFFFFFFFFFF AND CALLVALUE PUSH32 0xA23831066066EC8812CC52AFC91A52134A8B50C9209B68C276BE679F4073D95D PUSH1 0x40 MLOAD PUSH1 0x40 MLOAD DUP1 SWAP2 SUB SWAP1 LOG3 PUSH1 0x3 PUSH1 0x0 CALLER PUSH20 0xFFFFFFFFFFFFFFFFFFFFFFFFFFFFFFFFFFFFFFFF AND PUSH20 0xFFFFFFFFFFFFFFFFFFFFFFFFFFFFFFFFFFFFFFFF AND DUP2 MSTORE PUSH1 0x20 ADD SWAP1 DUP2 MSTORE PUSH1 0x20 ADD PUSH1 0x0 KECCAK256 SLOAD SWAP1 POP SWAP1 JUMP JUMPDEST DUP1 PUSH1 0x4 DUP2 SWAP1 SSTORE POP POP JUMP JUMPDEST DUP1 PUSH1 0x3 PUSH1 0x0 DUP6 PUSH20 0xFFFFFFFFFFFFFFFFFFFFFFFFFFFFFFFFFFFFFFFF AND PUSH20 0xFFFFFFFFFFFFFFFFFFFFFFFFFFFFFFFFFFFFFFFF AND DUP2 MSTORE PUSH1 0x20 ADD SWAP1 DUP2 MSTORE PUSH1 0x20 ADD PUSH1 0x0 KECCAK256 PUSH1 0x0 DUP3 DUP3 SLOAD PUSH2 0xA93 SWAP2 SWAP1 PUSH2 0xDE7 JUMP JUMPDEST SWAP3 POP POP DUP2 SWAP1 SSTORE POP DUP1 PUSH1 0x3 PUSH1 0x0 DUP5 PUSH20 0xFFFFFFFFFFFFFFFFFFFFFFFFFFFFFFFFFFFFFFFF AND PUSH20 0xFFFFFFFFFFFFFFFFFFFFFFFFFFFFFFFFFFFFFFFF AND DUP2 MSTORE PUSH1 0x20 ADD SWAP1 DUP2 MSTORE PUSH1 0x20 ADD PUSH1 0x0 KECCAK256 PUSH1 0x0 DUP3 DUP3 SLOAD PUSH2 0xAE9 SWAP2 SWAP1 PUSH2 0x1139 JUMP JUMPDEST SWAP3 POP POP DUP2 SWAP1 SSTORE POP POP POP POP JUMP JUMPDEST PUSH1 0x0 DUP2 SWAP1 POP SWAP2 SWAP1 POP JUMP JUMPDEST PUSH2 0xB08 DUP2 PUSH2 0xAF5 JUMP JUMPDEST DUP3 MSTORE POP POP JUMP JUMPDEST PUSH1 0x0 PUSH1 0x20 DUP3 ADD SWAP1 POP PUSH2 0xB23 PUSH1 0x0 DUP4 ADD DUP5 PUSH2 0xAFF JUMP JUMPDEST SWAP3 SWAP2 POP POP JUMP JUMPDEST PUSH1 0x0 DUP2 SWAP1 POP SWAP2 SWAP1 POP JUMP JUMPDEST PUSH2 0xB3C DUP2 PUSH2 0xB29 JUMP JUMPDEST DUP3 MSTORE POP POP JUMP JUMPDEST PUSH1 0x0 PUSH1 0x20 DUP3 ADD SWAP1 POP PUSH2 0xB57 PUSH1 0x0 DUP4 ADD DUP5 PUSH2 0xB33 JUMP JUMPDEST SWAP3 SWAP2 POP POP JUMP JUMPDEST PUSH1 0x0 DUP1 REVERT JUMPDEST PUSH2 0xB6B DUP2 PUSH2 0xAF5 JUMP JUMPDEST DUP2 EQ PUSH2 0xB76 JUMPI PUSH1 0x0 DUP1 REVERT JUMPDEST POP JUMP JUMPDEST PUSH1 0x0 DUP2 CALLDATALOAD SWAP1 POP PUSH2 0xB88 DUP2 PUSH2 0xB62 JUMP JUMPDEST SWAP3 SWAP2 POP POP JUMP JUMPDEST PUSH1 0x0 PUSH1 0x20 DUP3 DUP5 SUB SLT ISZERO PUSH2 0xBA4 JUMPI PUSH2 0xBA3 PUSH2 0xB5D JUMP JUMPDEST JUMPDEST PUSH1 0x0 PUSH2 0xBB2 DUP5 DUP3 DUP6 ADD PUSH2 0xB79 JUMP JUMPDEST SWAP2 POP POP SWAP3 SWAP2 POP POP JUMP JUMPDEST PUSH1 0x0 PUSH20 0xFFFFFFFFFFFFFFFFFFFFFFFFFFFFFFFFFFFFFFFF DUP3 AND SWAP1 POP SWAP2 SWAP1 POP JUMP JUMPDEST PUSH1 0x0 PUSH2 0xBE6 DUP3 PUSH2 0xBBB JUMP JUMPDEST SWAP1 POP SWAP2 SWAP1 POP JUMP JUMPDEST PUSH2 0xBF6 DUP2 PUSH2 0xBDB JUMP JUMPDEST DUP2 EQ PUSH2 0xC01 JUMPI PUSH1 0x0 DUP1 REVERT JUMPDEST POP JUMP JUMPDEST PUSH1 0x0 DUP2 CALLDATALOAD SWAP1 POP PUSH2 0xC13 DUP2 PUSH2 0xBED JUMP JUMPDEST SWAP3 SWAP2 POP POP JUMP JUMPDEST PUSH1 0x0 PUSH1 0x20 DUP3 DUP5 SUB SLT ISZERO PUSH2 0xC2F JUMPI PUSH2 0xC2E PUSH2 0xB5D JUMP JUMPDEST JUMPDEST PUSH1 0x0 PUSH2 0xC3D DUP5 DUP3 DUP6 ADD PUSH2 0xC04 JUMP JUMPDEST SWAP2 POP POP SWAP3 SWAP2 POP POP JUMP JUMPDEST PUSH1 0x0 DUP2 ISZERO ISZERO SWAP1 POP SWAP2 SWAP1 POP JUMP JUMPDEST PUSH2 0xC5B DUP2 PUSH2 0xC46 JUMP JUMPDEST DUP3 MSTORE POP POP JUMP JUMPDEST PUSH1 0x0 PUSH1 0x20 DUP3 ADD SWAP1 POP PUSH2 0xC76 PUSH1 0x0 DUP4 ADD DUP5 PUSH2 0xC52 JUMP JUMPDEST SWAP3 SWAP2 POP POP JUMP JUMPDEST PUSH1 0x0 DUP1 PUSH1 0x40 DUP4 DUP6 SUB SLT ISZERO PUSH2 0xC93 JUMPI PUSH2 0xC92 PUSH2 0xB5D JUMP JUMPDEST JUMPDEST PUSH1 0x0 PUSH2 0xCA1 DUP6 DUP3 DUP7 ADD PUSH2 0xC04 JUMP JUMPDEST SWAP3 POP POP PUSH1 0x20 PUSH2 0xCB2 DUP6 DUP3 DUP7 ADD PUSH2 0xB79 JUMP JUMPDEST SWAP2 POP POP SWAP3 POP SWAP3 SWAP1 POP JUMP JUMPDEST PUSH2 0xCC5 DUP2 PUSH2 0xB29 JUMP JUMPDEST DUP2 EQ PUSH2 0xCD0 JUMPI PUSH1 0x0 DUP1 REVERT JUMPDEST POP JUMP JUMPDEST PUSH1 0x0 DUP2 CALLDATALOAD SWAP1 POP PUSH2 0xCE2 DUP2 PUSH2 0xCBC JUMP JUMPDEST SWAP3 SWAP2 POP POP JUMP JUMPDEST PUSH1 0x0 PUSH1 0x20 DUP3 DUP5 SUB SLT ISZERO PUSH2 0xCFE JUMPI PUSH2 0xCFD PUSH2 0xB5D JUMP JUMPDEST JUMPDEST PUSH1 0x0 PUSH2 0xD0C DUP5 DUP3 DUP6 ADD PUSH2 0xCD3 JUMP JUMPDEST SWAP2 POP POP SWAP3 SWAP2 POP POP JUMP JUMPDEST PUSH1 0x0 DUP3 DUP3 MSTORE PUSH1 0x20 DUP3 ADD SWAP1 POP SWAP3 SWAP2 POP POP JUMP JUMPDEST PUSH32 0x4552524F5220315F496E73756666696369656E742062616C616E636520746F20 PUSH1 0x0 DUP3 ADD MSTORE PUSH32 0x77697468647261772066756E64732E0000000000000000000000000000000000 PUSH1 0x20 DUP3 ADD MSTORE POP JUMP JUMPDEST PUSH1 0x0 PUSH2 0xD82 PUSH1 0x2F DUP4 PUSH2 0xD15 JUMP JUMPDEST SWAP2 POP PUSH2 0xD8D DUP3 PUSH2 0xD26 JUMP JUMPDEST PUSH1 0x40 DUP3 ADD SWAP1 POP SWAP2 SWAP1 POP JUMP JUMPDEST PUSH1 0x0 PUSH1 0x20 DUP3 ADD SWAP1 POP DUP2 DUP2 SUB PUSH1 0x0 DUP4 ADD MSTORE PUSH2 0xDB1 DUP2 PUSH2 0xD75 JUMP JUMPDEST SWAP1 POP SWAP2 SWAP1 POP JUMP JUMPDEST PUSH32 0x4E487B7100000000000000000000000000000000000000000000000000000000 PUSH1 0x0 MSTORE PUSH1 0x11 PUSH1 0x4 MSTORE PUSH1 0x24 PUSH1 0x0 REVERT JUMPDEST PUSH1 0x0 PUSH2 0xDF2 DUP3 PUSH2 0xAF5 JUMP JUMPDEST SWAP2 POP PUSH2 0xDFD DUP4 PUSH2 0xAF5 JUMP JUMPDEST SWAP3 POP DUP3 DUP3 LT ISZERO PUSH2 0xE10 JUMPI PUSH2 0xE0F PUSH2 0xDB8 JUMP JUMPDEST JUMPDEST DUP3 DUP3 SUB SWAP1 POP SWAP3 SWAP2 POP POP JUMP JUMPDEST PUSH32 0x41646472657373206973206F776E657220616C72656164792E00000000000000 PUSH1 0x0 DUP3 ADD MSTORE POP JUMP JUMPDEST PUSH1 0x0 PUSH2 0xE51 PUSH1 0x19 DUP4 PUSH2 0xD15 JUMP JUMPDEST SWAP2 POP PUSH2 0xE5C DUP3 PUSH2 0xE1B JUMP JUMPDEST PUSH1 0x20 DUP3 ADD SWAP1 POP SWAP2 SWAP1 POP JUMP JUMPDEST PUSH1 0x0 PUSH1 0x20 DUP3 ADD SWAP1 POP DUP2 DUP2 SUB PUSH1 0x0 DUP4 ADD MSTORE PUSH2 0xE80 DUP2 PUSH2 0xE44 JUMP JUMPDEST SWAP1 POP SWAP2 SWAP1 POP JUMP JUMPDEST PUSH2 0xE90 DUP2 PUSH2 0xBDB JUMP JUMPDEST DUP3 MSTORE POP POP JUMP JUMPDEST PUSH1 0x0 PUSH1 0x20 DUP3 ADD SWAP1 POP PUSH2 0xEAB PUSH1 0x0 DUP4 ADD DUP5 PUSH2 0xE87 JUMP JUMPDEST SWAP3 SWAP2 POP POP JUMP JUMPDEST PUSH32 0x4552524F5220315F496E73756666696369656E742062616C616E636520746F20 PUSH1 0x0 DUP3 ADD MSTORE PUSH32 0x7472616E736665722066756E64732E0000000000000000000000000000000000 PUSH1 0x20 DUP3 ADD MSTORE POP JUMP JUMPDEST PUSH1 0x0 PUSH2 0xF0D PUSH1 0x2F DUP4 PUSH2 0xD15 JUMP JUMPDEST SWAP2 POP PUSH2 0xF18 DUP3 PUSH2 0xEB1 JUMP JUMPDEST PUSH1 0x40 DUP3 ADD SWAP1 POP SWAP2 SWAP1 POP JUMP JUMPDEST PUSH1 0x0 PUSH1 0x20 DUP3 ADD SWAP1 POP DUP2 DUP2 SUB PUSH1 0x0 DUP4 ADD MSTORE PUSH2 0xF3C DUP2 PUSH2 0xF00 JUMP JUMPDEST SWAP1 POP SWAP2 SWAP1 POP JUMP JUMPDEST PUSH32 0x4552524F5220325F5468652073656E6465722063616E6E6F7420626520746865 PUSH1 0x0 DUP3 ADD MSTORE PUSH32 0x20726563697069656E742E000000000000000000000000000000000000000000 PUSH1 0x20 DUP3 ADD MSTORE POP JUMP JUMPDEST PUSH1 0x0 PUSH2 0xF9F PUSH1 0x2B DUP4 PUSH2 0xD15 JUMP JUMPDEST SWAP2 POP PUSH2 0xFAA DUP3 PUSH2 0xF43 JUMP JUMPDEST PUSH1 0x40 DUP3 ADD SWAP1 POP SWAP2 SWAP1 POP JUMP JUMPDEST PUSH1 0x0 PUSH1 0x20 DUP3 ADD SWAP1 POP DUP2 DUP2 SUB PUSH1 0x0 DUP4 ADD MSTORE PUSH2 0xFCE DUP2 PUSH2 0xF92 JUMP JUMPDEST SWAP1 POP SWAP2 SWAP1 POP JUMP JUMPDEST PUSH32 0x596F7520617265206E6F7420616E206F776E657220616E64206E6F7420616C6C PUSH1 0x0 DUP3 ADD MSTORE PUSH32 0x6F77656420746F206D616B65207472616E736665722E00000000000000000000 PUSH1 0x20 DUP3 ADD MSTORE POP JUMP JUMPDEST PUSH1 0x0 PUSH2 0x1031 PUSH1 0x36 DUP4 PUSH2 0xD15 JUMP JUMPDEST SWAP2 POP PUSH2 0x103C DUP3 PUSH2 0xFD5 JUMP JUMPDEST PUSH1 0x40 DUP3 ADD SWAP1 POP SWAP2 SWAP1 POP JUMP JUMPDEST PUSH1 0x0 PUSH1 0x20 DUP3 ADD SWAP1 POP DUP2 DUP2 SUB PUSH1 0x0 DUP4 ADD MSTORE PUSH2 0x1060 DUP2 PUSH2 0x1024 JUMP JUMPDEST SWAP1 POP SWAP2 SWAP1 POP JUMP JUMPDEST PUSH1 0x0 PUSH1 0x60 DUP3 ADD SWAP1 POP PUSH2 0x107C PUSH1 0x0 DUP4 ADD DUP7 PUSH2 0xE87 JUMP JUMPDEST PUSH2 0x1089 PUSH1 0x20 DUP4 ADD DUP6 PUSH2 0xE87 JUMP JUMPDEST PUSH2 0x1096 PUSH1 0x40 DUP4 ADD DUP5 PUSH2 0xAFF JUMP JUMPDEST SWAP5 SWAP4 POP POP POP POP JUMP JUMPDEST PUSH32 0x4E487B7100000000000000000000000000000000000000000000000000000000 PUSH1 0x0 MSTORE PUSH1 0x1 PUSH1 0x4 MSTORE PUSH1 0x24 PUSH1 0x0 REVERT JUMPDEST PUSH32 0x4E6F74206F776E6572206F66206F776E65726C6973742E000000000000000000 PUSH1 0x0 DUP3 ADD MSTORE POP JUMP JUMPDEST PUSH1 0x0 PUSH2 0x1103 PUSH1 0x17 DUP4 PUSH2 0xD15 JUMP JUMPDEST SWAP2 POP PUSH2 0x110E DUP3 PUSH2 0x10CD JUMP JUMPDEST PUSH1 0x20 DUP3 ADD SWAP1 POP SWAP2 SWAP1 POP JUMP JUMPDEST PUSH1 0x0 PUSH1 0x20 DUP3 ADD SWAP1 POP DUP2 DUP2 SUB PUSH1 0x0 DUP4 ADD MSTORE PUSH2 0x1132 DUP2 PUSH2 0x10F6 JUMP JUMPDEST SWAP1 POP SWAP2 SWAP1 POP JUMP JUMPDEST PUSH1 0x0 PUSH2 0x1144 DUP3 PUSH2 0xAF5 JUMP JUMPDEST SWAP2 POP PUSH2 0x114F DUP4 PUSH2 0xAF5 JUMP JUMPDEST SWAP3 POP DUP3 PUSH32 0xFFFFFFFFFFFFFFFFFFFFFFFFFFFFFFFFFFFFFFFFFFFFFFFFFFFFFFFFFFFFFFFF SUB DUP3 GT ISZERO PUSH2 0x1184 JUMPI PUSH2 0x1183 PUSH2 0xDB8 JUMP JUMPDEST JUMPDEST DUP3 DUP3 ADD SWAP1 POP SWAP3 SWAP2 POP POP JUMP INVALID LOG2 PUSH5 0x6970667358 0x22 SLT KECCAK256 0x21 0xB8 DUP14 DUP2 CREATE 0xB1 CODECOPY PUSH31 0xEC7345580E1CABEC2EF0F75F3EAA130E0254B3DDC7C018B64736F6C634300 ADDMOD 0xD STOP CALLER "
				},
				"gasEstimates": {
					"creation": {
						"codeDepositCost": "909800",
						"executionCost": "49481",
						"totalCost": "959281"
					},
					"external": {
						"addOwners(address)": "infinite",
						"deposit()": "infinite",
						"getBalance()": "2527",
						"getNumApprovals()": "2460",
						"isOwner(address)": "2950",
						"removeOwners(address)": "infinite",
						"setNumApprovals(int256)": "22608",
						"transfer(address,uint256)": "infinite",
						"withdraw(uint256)": "infinite"
					},
					"internal": {
						"_transfer(address,address,uint256)": "infinite"
					}
				},
				"methodIdentifiers": {
					"addOwners(address)": "5f3b1f3b",
					"deposit()": "d0e30db0",
					"getBalance()": "12065fe0",
					"getNumApprovals()": "1cd9aa0e",
					"isOwner(address)": "2f54bf6e",
					"removeOwners(address)": "b64c14fe",
					"setNumApprovals(int256)": "ec2e11ae",
					"transfer(address,uint256)": "a9059cbb",
					"withdraw(uint256)": "2e1a7d4d"
				}
			},
			"storageLayout": {
				"storage": [
					{
						"astId": 239,
						"contract": "contracts/Bank_MultiSIG.sol:Bank_Multisig",
						"label": "owner",
						"offset": 0,
						"slot": "0",
						"type": "t_address"
					},
					{
						"astId": 277,
						"contract": "contracts/Bank_MultiSIG.sol:Bank_Multisig",
						"label": "owners",
						"offset": 0,
						"slot": "1",
						"type": "t_mapping(t_address,t_bool)"
					},
					{
						"astId": 23,
						"contract": "contracts/Bank_MultiSIG.sol:Bank_Multisig",
						"label": "GovernmentInstance",
						"offset": 0,
						"slot": "2",
						"type": "t_contract(GovernmentInterface)13"
					},
					{
						"astId": 27,
						"contract": "contracts/Bank_MultiSIG.sol:Bank_Multisig",
						"label": "balance",
						"offset": 0,
						"slot": "3",
						"type": "t_mapping(t_address,t_uint256)"
					},
					{
						"astId": 43,
						"contract": "contracts/Bank_MultiSIG.sol:Bank_Multisig",
						"label": "numApprovals",
						"offset": 0,
						"slot": "4",
						"type": "t_int256"
					}
				],
				"types": {
					"t_address": {
						"encoding": "inplace",
						"label": "address",
						"numberOfBytes": "20"
					},
					"t_bool": {
						"encoding": "inplace",
						"label": "bool",
						"numberOfBytes": "1"
					},
					"t_contract(GovernmentInterface)13": {
						"encoding": "inplace",
						"label": "contract GovernmentInterface",
						"numberOfBytes": "20"
					},
					"t_int256": {
						"encoding": "inplace",
						"label": "int256",
						"numberOfBytes": "32"
					},
					"t_mapping(t_address,t_bool)": {
						"encoding": "mapping",
						"key": "t_address",
						"label": "mapping(address => bool)",
						"numberOfBytes": "32",
						"value": "t_bool"
					},
					"t_mapping(t_address,t_uint256)": {
						"encoding": "mapping",
						"key": "t_address",
						"label": "mapping(address => uint256)",
						"numberOfBytes": "32",
						"value": "t_uint256"
					},
					"t_uint256": {
						"encoding": "inplace",
						"label": "uint256",
						"numberOfBytes": "32"
					}
				}
			},
			"userdoc": {
				"kind": "user",
				"methods": {},
				"version": 1
			}
		}
	}
}