{
	"contracts/Ownerlist.sol": {
		"Ownerlist": {
			"abi": [
				{
					"inputs": [],
					"stateMutability": "payable",
					"type": "constructor"
				},
				{
					"anonymous": false,
					"inputs": [
						{
							"indexed": false,
							"internalType": "address",
							"name": "owner",
							"type": "address"
						}
					],
					"name": "OwnerAdded",
					"type": "event"
				},
				{
					"anonymous": false,
					"inputs": [
						{
							"indexed": false,
							"internalType": "address",
							"name": "owner",
							"type": "address"
						}
					],
					"name": "OwnerRemoved",
					"type": "event"
				},
				{
					"inputs": [
						{
							"internalType": "address",
							"name": "_owner",
							"type": "address"
						}
					],
					"name": "addOwners",
					"outputs": [],
					"stateMutability": "payable",
					"type": "function"
				},
				{
					"inputs": [
						{
							"internalType": "address",
							"name": "_owner",
							"type": "address"
						}
					],
					"name": "isOwner",
					"outputs": [
						{
							"internalType": "bool",
							"name": "",
							"type": "bool"
						}
					],
					"stateMutability": "view",
					"type": "function"
				},
				{
					"inputs": [
						{
							"internalType": "address",
							"name": "_owner",
							"type": "address"
						}
					],
					"name": "removeOwners",
					"outputs": [],
					"stateMutability": "nonpayable",
					"type": "function"
				}
			],
			"devdoc": {
				"kind": "dev",
				"methods": {
					"addOwners(address)": {
						"details": "A method to add an address to the Ownerlist",
						"params": {
							"_owner": "The address to add as a owner."
						}
					},
					"constructor": {
						"details": "Visibility (public / external) is not needed for constructors anymore:  To prevent a contract from being created, it can be marked abstract. "
					},
					"isOwner(address)": {
						"details": "A method to verify whether an address is a owner on the Ownerlist",
						"params": {
							"_owner": "The address to verify."
						},
						"returns": {
							"_0": "Whether the address is in the Ownerlist."
						}
					},
					"removeOwners(address)": {
						"details": "A method to remove a owner from the Ownerlist",
						"params": {
							"_owner": "The address to remove as a owner."
						}
					}
				},
				"version": 1
			},
			"evm": {
				"assembly": "    /* \"contracts/Ownerlist.sol\":226:1674  contract Ownerlist is Ownable {... */\n  mstore(0x40, 0x80)\n    /* \"contracts/Ownable.sol\":448:458  msg.sender */\n  caller\n    /* \"contracts/Ownable.sol\":440:445  owner */\n  0x00\n  dup1\n    /* \"contracts/Ownable.sol\":440:458  owner = msg.sender */\n  0x0100\n  exp\n  dup2\n  sload\n  dup2\n  0xffffffffffffffffffffffffffffffffffffffff\n  mul\n  not\n  and\n  swap1\n  dup4\n  0xffffffffffffffffffffffffffffffffffffffff\n  and\n  mul\n  or\n  swap1\n  sstore\n  pop\n    /* \"contracts/Ownerlist.sol\":226:1674  contract Ownerlist is Ownable {... */\n  dataSize(sub_0)\n  dup1\n  dataOffset(sub_0)\n  0x00\n  codecopy\n  0x00\n  return\nstop\n\nsub_0: assembly {\n        /* \"contracts/Ownerlist.sol\":226:1674  contract Ownerlist is Ownable {... */\n      mstore(0x40, 0x80)\n      jumpi(tag_1, lt(calldatasize, 0x04))\n      shr(0xe0, calldataload(0x00))\n      dup1\n      0x2f54bf6e\n      eq\n      tag_2\n      jumpi\n      dup1\n      0x5f3b1f3b\n      eq\n      tag_3\n      jumpi\n      dup1\n      0xb64c14fe\n      eq\n      tag_4\n      jumpi\n    tag_1:\n      0x00\n      dup1\n      revert\n        /* \"contracts/Ownerlist.sol\":810:914  function isOwner(address _owner) public view returns(bool)... */\n    tag_2:\n      callvalue\n      dup1\n      iszero\n      tag_5\n      jumpi\n      0x00\n      dup1\n      revert\n    tag_5:\n      pop\n      tag_6\n      0x04\n      dup1\n      calldatasize\n      sub\n      dup2\n      add\n      swap1\n      tag_7\n      swap2\n      swap1\n      tag_8\n      jump\t// in\n    tag_7:\n      tag_9\n      jump\t// in\n    tag_6:\n      mload(0x40)\n      tag_10\n      swap2\n      swap1\n      tag_11\n      jump\t// in\n    tag_10:\n      mload(0x40)\n      dup1\n      swap2\n      sub\n      swap1\n      return\n        /* \"contracts/Ownerlist.sol\":1050:1293  function addOwners(address _owner) public onlyOwner payable... */\n    tag_3:\n      tag_12\n      0x04\n      dup1\n      calldatasize\n      sub\n      dup2\n      add\n      swap1\n      tag_13\n      swap2\n      swap1\n      tag_8\n      jump\t// in\n    tag_13:\n      tag_14\n      jump\t// in\n    tag_12:\n      stop\n        /* \"contracts/Ownerlist.sol\":1434:1671  function removeOwners(address _owner) public onlyOwner... */\n    tag_4:\n      callvalue\n      dup1\n      iszero\n      tag_15\n      jumpi\n      0x00\n      dup1\n      revert\n    tag_15:\n      pop\n      tag_16\n      0x04\n      dup1\n      calldatasize\n      sub\n      dup2\n      add\n      swap1\n      tag_17\n      swap2\n      swap1\n      tag_8\n      jump\t// in\n    tag_17:\n      tag_18\n      jump\t// in\n    tag_16:\n      stop\n        /* \"contracts/Ownerlist.sol\":810:914  function isOwner(address _owner) public view returns(bool)... */\n    tag_9:\n        /* \"contracts/Ownerlist.sol\":863:867  bool */\n      0x00\n        /* \"contracts/Ownerlist.sol\":892:898  owners */\n      0x01\n        /* \"contracts/Ownerlist.sol\":892:906  owners[_owner] */\n      0x00\n        /* \"contracts/Ownerlist.sol\":899:905  _owner */\n      dup4\n        /* \"contracts/Ownerlist.sol\":892:906  owners[_owner] */\n      0xffffffffffffffffffffffffffffffffffffffff\n      and\n      0xffffffffffffffffffffffffffffffffffffffff\n      and\n      dup2\n      mstore\n      0x20\n      add\n      swap1\n      dup2\n      mstore\n      0x20\n      add\n      0x00\n      keccak256\n      0x00\n      swap1\n      sload\n      swap1\n      0x0100\n      exp\n      swap1\n      div\n      0xff\n      and\n        /* \"contracts/Ownerlist.sol\":885:906  return owners[_owner] */\n      swap1\n      pop\n        /* \"contracts/Ownerlist.sol\":810:914  function isOwner(address _owner) public view returns(bool)... */\n      swap2\n      swap1\n      pop\n      jump\t// out\n        /* \"contracts/Ownerlist.sol\":1050:1293  function addOwners(address _owner) public onlyOwner payable... */\n    tag_14:\n        /* \"contracts/Ownable.sol\":342:347  owner */\n      0x00\n      dup1\n      sload\n      swap1\n      0x0100\n      exp\n      swap1\n      div\n      0xffffffffffffffffffffffffffffffffffffffff\n      and\n        /* \"contracts/Ownable.sol\":328:347  msg.sender == owner */\n      0xffffffffffffffffffffffffffffffffffffffff\n      and\n        /* \"contracts/Ownable.sol\":328:338  msg.sender */\n      caller\n        /* \"contracts/Ownable.sol\":328:347  msg.sender == owner */\n      0xffffffffffffffffffffffffffffffffffffffff\n      and\n      eq\n        /* \"contracts/Ownable.sol\":320:348  require(msg.sender == owner) */\n      tag_21\n      jumpi\n      0x00\n      dup1\n      revert\n    tag_21:\n        /* \"contracts/Ownerlist.sol\":1149:1164  isOwner(_owner) */\n      tag_23\n        /* \"contracts/Ownerlist.sol\":1157:1163  _owner */\n      dup2\n        /* \"contracts/Ownerlist.sol\":1149:1156  isOwner */\n      tag_9\n        /* \"contracts/Ownerlist.sol\":1149:1164  isOwner(_owner) */\n      jump\t// in\n    tag_23:\n        /* \"contracts/Ownerlist.sol\":1148:1164  !isOwner(_owner) */\n      iszero\n        /* \"contracts/Ownerlist.sol\":1126:1217  require(... */\n      tag_24\n      jumpi\n      mload(0x40)\n      0x08c379a000000000000000000000000000000000000000000000000000000000\n      dup2\n      mstore\n      0x04\n      add\n      tag_25\n      swap1\n      tag_26\n      jump\t// in\n    tag_25:\n      mload(0x40)\n      dup1\n      swap2\n      sub\n      swap1\n      revert\n    tag_24:\n        /* \"contracts/Ownerlist.sol\":1247:1251  true */\n      0x01\n        /* \"contracts/Ownerlist.sol\":1230:1236  owners */\n      dup1\n        /* \"contracts/Ownerlist.sol\":1230:1244  owners[_owner] */\n      0x00\n        /* \"contracts/Ownerlist.sol\":1237:1243  _owner */\n      dup4\n        /* \"contracts/Ownerlist.sol\":1230:1244  owners[_owner] */\n      0xffffffffffffffffffffffffffffffffffffffff\n      and\n      0xffffffffffffffffffffffffffffffffffffffff\n      and\n      dup2\n      mstore\n      0x20\n      add\n      swap1\n      dup2\n      mstore\n      0x20\n      add\n      0x00\n      keccak256\n      0x00\n        /* \"contracts/Ownerlist.sol\":1230:1251  owners[_owner] = true */\n      0x0100\n      exp\n      dup2\n      sload\n      dup2\n      0xff\n      mul\n      not\n      and\n      swap1\n      dup4\n      iszero\n      iszero\n      mul\n      or\n      swap1\n      sstore\n      pop\n        /* \"contracts/Ownerlist.sol\":1267:1285  OwnerAdded(_owner) */\n      0x994a936646fe87ffe4f1e469d3d6aa417d6b855598397f323de5b449f765f0c3\n        /* \"contracts/Ownerlist.sol\":1278:1284  _owner */\n      dup2\n        /* \"contracts/Ownerlist.sol\":1267:1285  OwnerAdded(_owner) */\n      mload(0x40)\n      tag_27\n      swap2\n      swap1\n      tag_28\n      jump\t// in\n    tag_27:\n      mload(0x40)\n      dup1\n      swap2\n      sub\n      swap1\n      log1\n        /* \"contracts/Ownerlist.sol\":1050:1293  function addOwners(address _owner) public onlyOwner payable... */\n      pop\n      jump\t// out\n        /* \"contracts/Ownerlist.sol\":1434:1671  function removeOwners(address _owner) public onlyOwner... */\n    tag_18:\n        /* \"contracts/Ownable.sol\":342:347  owner */\n      0x00\n      dup1\n      sload\n      swap1\n      0x0100\n      exp\n      swap1\n      div\n      0xffffffffffffffffffffffffffffffffffffffff\n      and\n        /* \"contracts/Ownable.sol\":328:347  msg.sender == owner */\n      0xffffffffffffffffffffffffffffffffffffffff\n      and\n        /* \"contracts/Ownable.sol\":328:338  msg.sender */\n      caller\n        /* \"contracts/Ownable.sol\":328:347  msg.sender == owner */\n      0xffffffffffffffffffffffffffffffffffffffff\n      and\n      eq\n        /* \"contracts/Ownable.sol\":320:348  require(msg.sender == owner) */\n      tag_30\n      jumpi\n      0x00\n      dup1\n      revert\n    tag_30:\n        /* \"contracts/Ownerlist.sol\":1527:1542  isOwner(_owner) */\n      tag_32\n        /* \"contracts/Ownerlist.sol\":1535:1541  _owner */\n      dup2\n        /* \"contracts/Ownerlist.sol\":1527:1534  isOwner */\n      tag_9\n        /* \"contracts/Ownerlist.sol\":1527:1542  isOwner(_owner) */\n      jump\t// in\n    tag_32:\n        /* \"contracts/Ownerlist.sol\":1505:1593  require(... */\n      tag_33\n      jumpi\n      mload(0x40)\n      0x08c379a000000000000000000000000000000000000000000000000000000000\n      dup2\n      mstore\n      0x04\n      add\n      tag_34\n      swap1\n      tag_35\n      jump\t// in\n    tag_34:\n      mload(0x40)\n      dup1\n      swap2\n      sub\n      swap1\n      revert\n    tag_33:\n        /* \"contracts/Ownerlist.sol\":1613:1619  owners */\n      0x01\n        /* \"contracts/Ownerlist.sol\":1613:1627  owners[_owner] */\n      0x00\n        /* \"contracts/Ownerlist.sol\":1620:1626  _owner */\n      dup3\n        /* \"contracts/Ownerlist.sol\":1613:1627  owners[_owner] */\n      0xffffffffffffffffffffffffffffffffffffffff\n      and\n      0xffffffffffffffffffffffffffffffffffffffff\n      and\n      dup2\n      mstore\n      0x20\n      add\n      swap1\n      dup2\n      mstore\n      0x20\n      add\n      0x00\n      keccak256\n      0x00\n        /* \"contracts/Ownerlist.sol\":1606:1627  delete owners[_owner] */\n      0x0100\n      exp\n      dup2\n      sload\n      swap1\n      0xff\n      mul\n      not\n      and\n      swap1\n      sstore\n        /* \"contracts/Ownerlist.sol\":1643:1663  OwnerRemoved(_owner) */\n      0x58619076adf5bb0943d100ef88d52d7c3fd691b19d3a9071b555b651fbf418da\n        /* \"contracts/Ownerlist.sol\":1656:1662  _owner */\n      dup2\n        /* \"contracts/Ownerlist.sol\":1643:1663  OwnerRemoved(_owner) */\n      mload(0x40)\n      tag_36\n      swap2\n      swap1\n      tag_28\n      jump\t// in\n    tag_36:\n      mload(0x40)\n      dup1\n      swap2\n      sub\n      swap1\n      log1\n        /* \"contracts/Ownerlist.sol\":1434:1671  function removeOwners(address _owner) public onlyOwner... */\n      pop\n      jump\t// out\n        /* \"#utility.yul\":88:205   */\n    tag_38:\n        /* \"#utility.yul\":197:198   */\n      0x00\n        /* \"#utility.yul\":194:195   */\n      dup1\n        /* \"#utility.yul\":187:199   */\n      revert\n        /* \"#utility.yul\":334:460   */\n    tag_40:\n        /* \"#utility.yul\":371:378   */\n      0x00\n        /* \"#utility.yul\":411:453   */\n      0xffffffffffffffffffffffffffffffffffffffff\n        /* \"#utility.yul\":404:409   */\n      dup3\n        /* \"#utility.yul\":400:454   */\n      and\n        /* \"#utility.yul\":389:454   */\n      swap1\n      pop\n        /* \"#utility.yul\":334:460   */\n      swap2\n      swap1\n      pop\n      jump\t// out\n        /* \"#utility.yul\":466:562   */\n    tag_41:\n        /* \"#utility.yul\":503:510   */\n      0x00\n        /* \"#utility.yul\":532:556   */\n      tag_58\n        /* \"#utility.yul\":550:555   */\n      dup3\n        /* \"#utility.yul\":532:556   */\n      tag_40\n      jump\t// in\n    tag_58:\n        /* \"#utility.yul\":521:556   */\n      swap1\n      pop\n        /* \"#utility.yul\":466:562   */\n      swap2\n      swap1\n      pop\n      jump\t// out\n        /* \"#utility.yul\":568:690   */\n    tag_42:\n        /* \"#utility.yul\":641:665   */\n      tag_60\n        /* \"#utility.yul\":659:664   */\n      dup2\n        /* \"#utility.yul\":641:665   */\n      tag_41\n      jump\t// in\n    tag_60:\n        /* \"#utility.yul\":634:639   */\n      dup2\n        /* \"#utility.yul\":631:666   */\n      eq\n        /* \"#utility.yul\":621:684   */\n      tag_61\n      jumpi\n        /* \"#utility.yul\":680:681   */\n      0x00\n        /* \"#utility.yul\":677:678   */\n      dup1\n        /* \"#utility.yul\":670:682   */\n      revert\n        /* \"#utility.yul\":621:684   */\n    tag_61:\n        /* \"#utility.yul\":568:690   */\n      pop\n      jump\t// out\n        /* \"#utility.yul\":696:835   */\n    tag_43:\n        /* \"#utility.yul\":742:747   */\n      0x00\n        /* \"#utility.yul\":780:786   */\n      dup2\n        /* \"#utility.yul\":767:787   */\n      calldataload\n        /* \"#utility.yul\":758:787   */\n      swap1\n      pop\n        /* \"#utility.yul\":796:829   */\n      tag_63\n        /* \"#utility.yul\":823:828   */\n      dup2\n        /* \"#utility.yul\":796:829   */\n      tag_42\n      jump\t// in\n    tag_63:\n        /* \"#utility.yul\":696:835   */\n      swap3\n      swap2\n      pop\n      pop\n      jump\t// out\n        /* \"#utility.yul\":841:1170   */\n    tag_8:\n        /* \"#utility.yul\":900:906   */\n      0x00\n        /* \"#utility.yul\":949:951   */\n      0x20\n        /* \"#utility.yul\":937:946   */\n      dup3\n        /* \"#utility.yul\":928:935   */\n      dup5\n        /* \"#utility.yul\":924:947   */\n      sub\n        /* \"#utility.yul\":920:952   */\n      slt\n        /* \"#utility.yul\":917:1036   */\n      iszero\n      tag_65\n      jumpi\n        /* \"#utility.yul\":955:1034   */\n      tag_66\n      tag_38\n      jump\t// in\n    tag_66:\n        /* \"#utility.yul\":917:1036   */\n    tag_65:\n        /* \"#utility.yul\":1075:1076   */\n      0x00\n        /* \"#utility.yul\":1100:1153   */\n      tag_67\n        /* \"#utility.yul\":1145:1152   */\n      dup5\n        /* \"#utility.yul\":1136:1142   */\n      dup3\n        /* \"#utility.yul\":1125:1134   */\n      dup6\n        /* \"#utility.yul\":1121:1143   */\n      add\n        /* \"#utility.yul\":1100:1153   */\n      tag_43\n      jump\t// in\n    tag_67:\n        /* \"#utility.yul\":1090:1153   */\n      swap2\n      pop\n        /* \"#utility.yul\":1046:1163   */\n      pop\n        /* \"#utility.yul\":841:1170   */\n      swap3\n      swap2\n      pop\n      pop\n      jump\t// out\n        /* \"#utility.yul\":1176:1266   */\n    tag_44:\n        /* \"#utility.yul\":1210:1217   */\n      0x00\n        /* \"#utility.yul\":1253:1258   */\n      dup2\n        /* \"#utility.yul\":1246:1259   */\n      iszero\n        /* \"#utility.yul\":1239:1260   */\n      iszero\n        /* \"#utility.yul\":1228:1260   */\n      swap1\n      pop\n        /* \"#utility.yul\":1176:1266   */\n      swap2\n      swap1\n      pop\n      jump\t// out\n        /* \"#utility.yul\":1272:1381   */\n    tag_45:\n        /* \"#utility.yul\":1353:1374   */\n      tag_70\n        /* \"#utility.yul\":1368:1373   */\n      dup2\n        /* \"#utility.yul\":1353:1374   */\n      tag_44\n      jump\t// in\n    tag_70:\n        /* \"#utility.yul\":1348:1351   */\n      dup3\n        /* \"#utility.yul\":1341:1375   */\n      mstore\n        /* \"#utility.yul\":1272:1381   */\n      pop\n      pop\n      jump\t// out\n        /* \"#utility.yul\":1387:1597   */\n    tag_11:\n        /* \"#utility.yul\":1474:1478   */\n      0x00\n        /* \"#utility.yul\":1512:1514   */\n      0x20\n        /* \"#utility.yul\":1501:1510   */\n      dup3\n        /* \"#utility.yul\":1497:1515   */\n      add\n        /* \"#utility.yul\":1489:1515   */\n      swap1\n      pop\n        /* \"#utility.yul\":1525:1590   */\n      tag_72\n        /* \"#utility.yul\":1587:1588   */\n      0x00\n        /* \"#utility.yul\":1576:1585   */\n      dup4\n        /* \"#utility.yul\":1572:1589   */\n      add\n        /* \"#utility.yul\":1563:1569   */\n      dup5\n        /* \"#utility.yul\":1525:1590   */\n      tag_45\n      jump\t// in\n    tag_72:\n        /* \"#utility.yul\":1387:1597   */\n      swap3\n      swap2\n      pop\n      pop\n      jump\t// out\n        /* \"#utility.yul\":1603:1772   */\n    tag_46:\n        /* \"#utility.yul\":1687:1698   */\n      0x00\n        /* \"#utility.yul\":1721:1727   */\n      dup3\n        /* \"#utility.yul\":1716:1719   */\n      dup3\n        /* \"#utility.yul\":1709:1728   */\n      mstore\n        /* \"#utility.yul\":1761:1765   */\n      0x20\n        /* \"#utility.yul\":1756:1759   */\n      dup3\n        /* \"#utility.yul\":1752:1766   */\n      add\n        /* \"#utility.yul\":1737:1766   */\n      swap1\n      pop\n        /* \"#utility.yul\":1603:1772   */\n      swap3\n      swap2\n      pop\n      pop\n      jump\t// out\n        /* \"#utility.yul\":1778:1953   */\n    tag_47:\n        /* \"#utility.yul\":1918:1945   */\n      0x41646472657373206973206f776e657220616c72656164792e00000000000000\n        /* \"#utility.yul\":1914:1915   */\n      0x00\n        /* \"#utility.yul\":1906:1912   */\n      dup3\n        /* \"#utility.yul\":1902:1916   */\n      add\n        /* \"#utility.yul\":1895:1946   */\n      mstore\n        /* \"#utility.yul\":1778:1953   */\n      pop\n      jump\t// out\n        /* \"#utility.yul\":1959:2325   */\n    tag_48:\n        /* \"#utility.yul\":2101:2104   */\n      0x00\n        /* \"#utility.yul\":2122:2189   */\n      tag_76\n        /* \"#utility.yul\":2186:2188   */\n      0x19\n        /* \"#utility.yul\":2181:2184   */\n      dup4\n        /* \"#utility.yul\":2122:2189   */\n      tag_46\n      jump\t// in\n    tag_76:\n        /* \"#utility.yul\":2115:2189   */\n      swap2\n      pop\n        /* \"#utility.yul\":2198:2291   */\n      tag_77\n        /* \"#utility.yul\":2287:2290   */\n      dup3\n        /* \"#utility.yul\":2198:2291   */\n      tag_47\n      jump\t// in\n    tag_77:\n        /* \"#utility.yul\":2316:2318   */\n      0x20\n        /* \"#utility.yul\":2311:2314   */\n      dup3\n        /* \"#utility.yul\":2307:2319   */\n      add\n        /* \"#utility.yul\":2300:2319   */\n      swap1\n      pop\n        /* \"#utility.yul\":1959:2325   */\n      swap2\n      swap1\n      pop\n      jump\t// out\n        /* \"#utility.yul\":2331:2750   */\n    tag_26:\n        /* \"#utility.yul\":2497:2501   */\n      0x00\n        /* \"#utility.yul\":2535:2537   */\n      0x20\n        /* \"#utility.yul\":2524:2533   */\n      dup3\n        /* \"#utility.yul\":2520:2538   */\n      add\n        /* \"#utility.yul\":2512:2538   */\n      swap1\n      pop\n        /* \"#utility.yul\":2584:2593   */\n      dup2\n        /* \"#utility.yul\":2578:2582   */\n      dup2\n        /* \"#utility.yul\":2574:2594   */\n      sub\n        /* \"#utility.yul\":2570:2571   */\n      0x00\n        /* \"#utility.yul\":2559:2568   */\n      dup4\n        /* \"#utility.yul\":2555:2572   */\n      add\n        /* \"#utility.yul\":2548:2595   */\n      mstore\n        /* \"#utility.yul\":2612:2743   */\n      tag_79\n        /* \"#utility.yul\":2738:2742   */\n      dup2\n        /* \"#utility.yul\":2612:2743   */\n      tag_48\n      jump\t// in\n    tag_79:\n        /* \"#utility.yul\":2604:2743   */\n      swap1\n      pop\n        /* \"#utility.yul\":2331:2750   */\n      swap2\n      swap1\n      pop\n      jump\t// out\n        /* \"#utility.yul\":2756:2874   */\n    tag_49:\n        /* \"#utility.yul\":2843:2867   */\n      tag_81\n        /* \"#utility.yul\":2861:2866   */\n      dup2\n        /* \"#utility.yul\":2843:2867   */\n      tag_41\n      jump\t// in\n    tag_81:\n        /* \"#utility.yul\":2838:2841   */\n      dup3\n        /* \"#utility.yul\":2831:2868   */\n      mstore\n        /* \"#utility.yul\":2756:2874   */\n      pop\n      pop\n      jump\t// out\n        /* \"#utility.yul\":2880:3102   */\n    tag_28:\n        /* \"#utility.yul\":2973:2977   */\n      0x00\n        /* \"#utility.yul\":3011:3013   */\n      0x20\n        /* \"#utility.yul\":3000:3009   */\n      dup3\n        /* \"#utility.yul\":2996:3014   */\n      add\n        /* \"#utility.yul\":2988:3014   */\n      swap1\n      pop\n        /* \"#utility.yul\":3024:3095   */\n      tag_83\n        /* \"#utility.yul\":3092:3093   */\n      0x00\n        /* \"#utility.yul\":3081:3090   */\n      dup4\n        /* \"#utility.yul\":3077:3094   */\n      add\n        /* \"#utility.yul\":3068:3074   */\n      dup5\n        /* \"#utility.yul\":3024:3095   */\n      tag_49\n      jump\t// in\n    tag_83:\n        /* \"#utility.yul\":2880:3102   */\n      swap3\n      swap2\n      pop\n      pop\n      jump\t// out\n        /* \"#utility.yul\":3108:3281   */\n    tag_50:\n        /* \"#utility.yul\":3248:3273   */\n      0x4e6f74206f776e6572206f66206f776e65726c6973742e000000000000000000\n        /* \"#utility.yul\":3244:3245   */\n      0x00\n        /* \"#utility.yul\":3236:3242   */\n      dup3\n        /* \"#utility.yul\":3232:3246   */\n      add\n        /* \"#utility.yul\":3225:3274   */\n      mstore\n        /* \"#utility.yul\":3108:3281   */\n      pop\n      jump\t// out\n        /* \"#utility.yul\":3287:3653   */\n    tag_51:\n        /* \"#utility.yul\":3429:3432   */\n      0x00\n        /* \"#utility.yul\":3450:3517   */\n      tag_86\n        /* \"#utility.yul\":3514:3516   */\n      0x17\n        /* \"#utility.yul\":3509:3512   */\n      dup4\n        /* \"#utility.yul\":3450:3517   */\n      tag_46\n      jump\t// in\n    tag_86:\n        /* \"#utility.yul\":3443:3517   */\n      swap2\n      pop\n        /* \"#utility.yul\":3526:3619   */\n      tag_87\n        /* \"#utility.yul\":3615:3618   */\n      dup3\n        /* \"#utility.yul\":3526:3619   */\n      tag_50\n      jump\t// in\n    tag_87:\n        /* \"#utility.yul\":3644:3646   */\n      0x20\n        /* \"#utility.yul\":3639:3642   */\n      dup3\n        /* \"#utility.yul\":3635:3647   */\n      add\n        /* \"#utility.yul\":3628:3647   */\n      swap1\n      pop\n        /* \"#utility.yul\":3287:3653   */\n      swap2\n      swap1\n      pop\n      jump\t// out\n        /* \"#utility.yul\":3659:4078   */\n    tag_35:\n        /* \"#utility.yul\":3825:3829   */\n      0x00\n        /* \"#utility.yul\":3863:3865   */\n      0x20\n        /* \"#utility.yul\":3852:3861   */\n      dup3\n        /* \"#utility.yul\":3848:3866   */\n      add\n        /* \"#utility.yul\":3840:3866   */\n      swap1\n      pop\n        /* \"#utility.yul\":3912:3921   */\n      dup2\n        /* \"#utility.yul\":3906:3910   */\n      dup2\n        /* \"#utility.yul\":3902:3922   */\n      sub\n        /* \"#utility.yul\":3898:3899   */\n      0x00\n        /* \"#utility.yul\":3887:3896   */\n      dup4\n        /* \"#utility.yul\":3883:3900   */\n      add\n        /* \"#utility.yul\":3876:3923   */\n      mstore\n        /* \"#utility.yul\":3940:4071   */\n      tag_89\n        /* \"#utility.yul\":4066:4070   */\n      dup2\n        /* \"#utility.yul\":3940:4071   */\n      tag_51\n      jump\t// in\n    tag_89:\n        /* \"#utility.yul\":3932:4071   */\n      swap1\n      pop\n        /* \"#utility.yul\":3659:4078   */\n      swap2\n      swap1\n      pop\n      jump\t// out\n\n    auxdata: 0xa26469706673582212209525accfeaaed468b356895b012fa23c840c3039de8e89211970f3f71fb5660664736f6c634300080d0033\n}\n",
				"bytecode": {
					"linkReferences": {},
					"object": "6080604052336000806101000a81548173ffffffffffffffffffffffffffffffffffffffff021916908373ffffffffffffffffffffffffffffffffffffffff16021790555061057b806100536000396000f3fe6080604052600436106100345760003560e01c80632f54bf6e146100395780635f3b1f3b14610076578063b64c14fe14610092575b600080fd5b34801561004557600080fd5b50610060600480360381019061005b91906103cf565b6100bb565b60405161006d9190610417565b60405180910390f35b610090600480360381019061008b91906103cf565b610111565b005b34801561009e57600080fd5b506100b960048036038101906100b491906103cf565b610243565b005b6000600160008373ffffffffffffffffffffffffffffffffffffffff1673ffffffffffffffffffffffffffffffffffffffff16815260200190815260200160002060009054906101000a900460ff169050919050565b60008054906101000a900473ffffffffffffffffffffffffffffffffffffffff1673ffffffffffffffffffffffffffffffffffffffff163373ffffffffffffffffffffffffffffffffffffffff161461016957600080fd5b610172816100bb565b156101b2576040517f08c379a00000000000000000000000000000000000000000000000000000000081526004016101a99061048f565b60405180910390fd5b60018060008373ffffffffffffffffffffffffffffffffffffffff1673ffffffffffffffffffffffffffffffffffffffff16815260200190815260200160002060006101000a81548160ff0219169083151502179055507f994a936646fe87ffe4f1e469d3d6aa417d6b855598397f323de5b449f765f0c38160405161023891906104be565b60405180910390a150565b60008054906101000a900473ffffffffffffffffffffffffffffffffffffffff1673ffffffffffffffffffffffffffffffffffffffff163373ffffffffffffffffffffffffffffffffffffffff161461029b57600080fd5b6102a4816100bb565b6102e3576040517f08c379a00000000000000000000000000000000000000000000000000000000081526004016102da90610525565b60405180910390fd5b600160008273ffffffffffffffffffffffffffffffffffffffff1673ffffffffffffffffffffffffffffffffffffffff16815260200190815260200160002060006101000a81549060ff02191690557f58619076adf5bb0943d100ef88d52d7c3fd691b19d3a9071b555b651fbf418da8160405161036191906104be565b60405180910390a150565b600080fd5b600073ffffffffffffffffffffffffffffffffffffffff82169050919050565b600061039c82610371565b9050919050565b6103ac81610391565b81146103b757600080fd5b50565b6000813590506103c9816103a3565b92915050565b6000602082840312156103e5576103e461036c565b5b60006103f3848285016103ba565b91505092915050565b60008115159050919050565b610411816103fc565b82525050565b600060208201905061042c6000830184610408565b92915050565b600082825260208201905092915050565b7f41646472657373206973206f776e657220616c72656164792e00000000000000600082015250565b6000610479601983610432565b915061048482610443565b602082019050919050565b600060208201905081810360008301526104a88161046c565b9050919050565b6104b881610391565b82525050565b60006020820190506104d360008301846104af565b92915050565b7f4e6f74206f776e6572206f66206f776e65726c6973742e000000000000000000600082015250565b600061050f601783610432565b915061051a826104d9565b602082019050919050565b6000602082019050818103600083015261053e81610502565b905091905056fea26469706673582212209525accfeaaed468b356895b012fa23c840c3039de8e89211970f3f71fb5660664736f6c634300080d0033",
					"opcodes": "PUSH1 0x80 PUSH1 0x40 MSTORE CALLER PUSH1 0x0 DUP1 PUSH2 0x100 EXP DUP2 SLOAD DUP2 PUSH20 0xFFFFFFFFFFFFFFFFFFFFFFFFFFFFFFFFFFFFFFFF MUL NOT AND SWAP1 DUP4 PUSH20 0xFFFFFFFFFFFFFFFFFFFFFFFFFFFFFFFFFFFFFFFF AND MUL OR SWAP1 SSTORE POP PUSH2 0x57B DUP1 PUSH2 0x53 PUSH1 0x0 CODECOPY PUSH1 0x0 RETURN INVALID PUSH1 0x80 PUSH1 0x40 MSTORE PUSH1 0x4 CALLDATASIZE LT PUSH2 0x34 JUMPI PUSH1 0x0 CALLDATALOAD PUSH1 0xE0 SHR DUP1 PUSH4 0x2F54BF6E EQ PUSH2 0x39 JUMPI DUP1 PUSH4 0x5F3B1F3B EQ PUSH2 0x76 JUMPI DUP1 PUSH4 0xB64C14FE EQ PUSH2 0x92 JUMPI JUMPDEST PUSH1 0x0 DUP1 REVERT JUMPDEST CALLVALUE DUP1 ISZERO PUSH2 0x45 JUMPI PUSH1 0x0 DUP1 REVERT JUMPDEST POP PUSH2 0x60 PUSH1 0x4 DUP1 CALLDATASIZE SUB DUP2 ADD SWAP1 PUSH2 0x5B SWAP2 SWAP1 PUSH2 0x3CF JUMP JUMPDEST PUSH2 0xBB JUMP JUMPDEST PUSH1 0x40 MLOAD PUSH2 0x6D SWAP2 SWAP1 PUSH2 0x417 JUMP JUMPDEST PUSH1 0x40 MLOAD DUP1 SWAP2 SUB SWAP1 RETURN JUMPDEST PUSH2 0x90 PUSH1 0x4 DUP1 CALLDATASIZE SUB DUP2 ADD SWAP1 PUSH2 0x8B SWAP2 SWAP1 PUSH2 0x3CF JUMP JUMPDEST PUSH2 0x111 JUMP JUMPDEST STOP JUMPDEST CALLVALUE DUP1 ISZERO PUSH2 0x9E JUMPI PUSH1 0x0 DUP1 REVERT JUMPDEST POP PUSH2 0xB9 PUSH1 0x4 DUP1 CALLDATASIZE SUB DUP2 ADD SWAP1 PUSH2 0xB4 SWAP2 SWAP1 PUSH2 0x3CF JUMP JUMPDEST PUSH2 0x243 JUMP JUMPDEST STOP JUMPDEST PUSH1 0x0 PUSH1 0x1 PUSH1 0x0 DUP4 PUSH20 0xFFFFFFFFFFFFFFFFFFFFFFFFFFFFFFFFFFFFFFFF AND PUSH20 0xFFFFFFFFFFFFFFFFFFFFFFFFFFFFFFFFFFFFFFFF AND DUP2 MSTORE PUSH1 0x20 ADD SWAP1 DUP2 MSTORE PUSH1 0x20 ADD PUSH1 0x0 KECCAK256 PUSH1 0x0 SWAP1 SLOAD SWAP1 PUSH2 0x100 EXP SWAP1 DIV PUSH1 0xFF AND SWAP1 POP SWAP2 SWAP1 POP JUMP JUMPDEST PUSH1 0x0 DUP1 SLOAD SWAP1 PUSH2 0x100 EXP SWAP1 DIV PUSH20 0xFFFFFFFFFFFFFFFFFFFFFFFFFFFFFFFFFFFFFFFF AND PUSH20 0xFFFFFFFFFFFFFFFFFFFFFFFFFFFFFFFFFFFFFFFF AND CALLER PUSH20 0xFFFFFFFFFFFFFFFFFFFFFFFFFFFFFFFFFFFFFFFF AND EQ PUSH2 0x169 JUMPI PUSH1 0x0 DUP1 REVERT JUMPDEST PUSH2 0x172 DUP2 PUSH2 0xBB JUMP JUMPDEST ISZERO PUSH2 0x1B2 JUMPI PUSH1 0x40 MLOAD PUSH32 0x8C379A000000000000000000000000000000000000000000000000000000000 DUP2 MSTORE PUSH1 0x4 ADD PUSH2 0x1A9 SWAP1 PUSH2 0x48F JUMP JUMPDEST PUSH1 0x40 MLOAD DUP1 SWAP2 SUB SWAP1 REVERT JUMPDEST PUSH1 0x1 DUP1 PUSH1 0x0 DUP4 PUSH20 0xFFFFFFFFFFFFFFFFFFFFFFFFFFFFFFFFFFFFFFFF AND PUSH20 0xFFFFFFFFFFFFFFFFFFFFFFFFFFFFFFFFFFFFFFFF AND DUP2 MSTORE PUSH1 0x20 ADD SWAP1 DUP2 MSTORE PUSH1 0x20 ADD PUSH1 0x0 KECCAK256 PUSH1 0x0 PUSH2 0x100 EXP DUP2 SLOAD DUP2 PUSH1 0xFF MUL NOT AND SWAP1 DUP4 ISZERO ISZERO MUL OR SWAP1 SSTORE POP PUSH32 0x994A936646FE87FFE4F1E469D3D6AA417D6B855598397F323DE5B449F765F0C3 DUP2 PUSH1 0x40 MLOAD PUSH2 0x238 SWAP2 SWAP1 PUSH2 0x4BE JUMP JUMPDEST PUSH1 0x40 MLOAD DUP1 SWAP2 SUB SWAP1 LOG1 POP JUMP JUMPDEST PUSH1 0x0 DUP1 SLOAD SWAP1 PUSH2 0x100 EXP SWAP1 DIV PUSH20 0xFFFFFFFFFFFFFFFFFFFFFFFFFFFFFFFFFFFFFFFF AND PUSH20 0xFFFFFFFFFFFFFFFFFFFFFFFFFFFFFFFFFFFFFFFF AND CALLER PUSH20 0xFFFFFFFFFFFFFFFFFFFFFFFFFFFFFFFFFFFFFFFF AND EQ PUSH2 0x29B JUMPI PUSH1 0x0 DUP1 REVERT JUMPDEST PUSH2 0x2A4 DUP2 PUSH2 0xBB JUMP JUMPDEST PUSH2 0x2E3 JUMPI PUSH1 0x40 MLOAD PUSH32 0x8C379A000000000000000000000000000000000000000000000000000000000 DUP2 MSTORE PUSH1 0x4 ADD PUSH2 0x2DA SWAP1 PUSH2 0x525 JUMP JUMPDEST PUSH1 0x40 MLOAD DUP1 SWAP2 SUB SWAP1 REVERT JUMPDEST PUSH1 0x1 PUSH1 0x0 DUP3 PUSH20 0xFFFFFFFFFFFFFFFFFFFFFFFFFFFFFFFFFFFFFFFF AND PUSH20 0xFFFFFFFFFFFFFFFFFFFFFFFFFFFFFFFFFFFFFFFF AND DUP2 MSTORE PUSH1 0x20 ADD SWAP1 DUP2 MSTORE PUSH1 0x20 ADD PUSH1 0x0 KECCAK256 PUSH1 0x0 PUSH2 0x100 EXP DUP2 SLOAD SWAP1 PUSH1 0xFF MUL NOT AND SWAP1 SSTORE PUSH32 0x58619076ADF5BB0943D100EF88D52D7C3FD691B19D3A9071B555B651FBF418DA DUP2 PUSH1 0x40 MLOAD PUSH2 0x361 SWAP2 SWAP1 PUSH2 0x4BE JUMP JUMPDEST PUSH1 0x40 MLOAD DUP1 SWAP2 SUB SWAP1 LOG1 POP JUMP JUMPDEST PUSH1 0x0 DUP1 REVERT JUMPDEST PUSH1 0x0 PUSH20 0xFFFFFFFFFFFFFFFFFFFFFFFFFFFFFFFFFFFFFFFF DUP3 AND SWAP1 POP SWAP2 SWAP1 POP JUMP JUMPDEST PUSH1 0x0 PUSH2 0x39C DUP3 PUSH2 0x371 JUMP JUMPDEST SWAP1 POP SWAP2 SWAP1 POP JUMP JUMPDEST PUSH2 0x3AC DUP2 PUSH2 0x391 JUMP JUMPDEST DUP2 EQ PUSH2 0x3B7 JUMPI PUSH1 0x0 DUP1 REVERT JUMPDEST POP JUMP JUMPDEST PUSH1 0x0 DUP2 CALLDATALOAD SWAP1 POP PUSH2 0x3C9 DUP2 PUSH2 0x3A3 JUMP JUMPDEST SWAP3 SWAP2 POP POP JUMP JUMPDEST PUSH1 0x0 PUSH1 0x20 DUP3 DUP5 SUB SLT ISZERO PUSH2 0x3E5 JUMPI PUSH2 0x3E4 PUSH2 0x36C JUMP JUMPDEST JUMPDEST PUSH1 0x0 PUSH2 0x3F3 DUP5 DUP3 DUP6 ADD PUSH2 0x3BA JUMP JUMPDEST SWAP2 POP POP SWAP3 SWAP2 POP POP JUMP JUMPDEST PUSH1 0x0 DUP2 ISZERO ISZERO SWAP1 POP SWAP2 SWAP1 POP JUMP JUMPDEST PUSH2 0x411 DUP2 PUSH2 0x3FC JUMP JUMPDEST DUP3 MSTORE POP POP JUMP JUMPDEST PUSH1 0x0 PUSH1 0x20 DUP3 ADD SWAP1 POP PUSH2 0x42C PUSH1 0x0 DUP4 ADD DUP5 PUSH2 0x408 JUMP JUMPDEST SWAP3 SWAP2 POP POP JUMP JUMPDEST PUSH1 0x0 DUP3 DUP3 MSTORE PUSH1 0x20 DUP3 ADD SWAP1 POP SWAP3 SWAP2 POP POP JUMP JUMPDEST PUSH32 0x41646472657373206973206F776E657220616C72656164792E00000000000000 PUSH1 0x0 DUP3 ADD MSTORE POP JUMP JUMPDEST PUSH1 0x0 PUSH2 0x479 PUSH1 0x19 DUP4 PUSH2 0x432 JUMP JUMPDEST SWAP2 POP PUSH2 0x484 DUP3 PUSH2 0x443 JUMP JUMPDEST PUSH1 0x20 DUP3 ADD SWAP1 POP SWAP2 SWAP1 POP JUMP JUMPDEST PUSH1 0x0 PUSH1 0x20 DUP3 ADD SWAP1 POP DUP2 DUP2 SUB PUSH1 0x0 DUP4 ADD MSTORE PUSH2 0x4A8 DUP2 PUSH2 0x46C JUMP JUMPDEST SWAP1 POP SWAP2 SWAP1 POP JUMP JUMPDEST PUSH2 0x4B8 DUP2 PUSH2 0x391 JUMP JUMPDEST DUP3 MSTORE POP POP JUMP JUMPDEST PUSH1 0x0 PUSH1 0x20 DUP3 ADD SWAP1 POP PUSH2 0x4D3 PUSH1 0x0 DUP4 ADD DUP5 PUSH2 0x4AF JUMP JUMPDEST SWAP3 SWAP2 POP POP JUMP JUMPDEST PUSH32 0x4E6F74206F776E6572206F66206F776E65726C6973742E000000000000000000 PUSH1 0x0 DUP3 ADD MSTORE POP JUMP JUMPDEST PUSH1 0x0 PUSH2 0x50F PUSH1 0x17 DUP4 PUSH2 0x432 JUMP JUMPDEST SWAP2 POP PUSH2 0x51A DUP3 PUSH2 0x4D9 JUMP JUMPDEST PUSH1 0x20 DUP3 ADD SWAP1 POP SWAP2 SWAP1 POP JUMP JUMPDEST PUSH1 0x0 PUSH1 0x20 DUP3 ADD SWAP1 POP DUP2 DUP2 SUB PUSH1 0x0 DUP4 ADD MSTORE PUSH2 0x53E DUP2 PUSH2 0x502 JUMP JUMPDEST SWAP1 POP SWAP2 SWAP1 POP JUMP INVALID LOG2 PUSH5 0x6970667358 0x22 SLT KECCAK256 SWAP6 0x25 0xAC 0xCF 0xEA 0xAE 0xD4 PUSH9 0xB356895B012FA23C84 0xC ADDRESS CODECOPY 0xDE DUP15 DUP10 0x21 NOT PUSH17 0xF3F71FB5660664736F6C634300080D0033 "
				},
				"gasEstimates": {
					"creation": {
						"codeDepositCost": "280600",
						"executionCost": "24560",
						"totalCost": "305160"
					},
					"external": {
						"addOwners(address)": "infinite",
						"isOwner(address)": "2861",
						"removeOwners(address)": "infinite"
					}
				},
				"methodIdentifiers": {
					"addOwners(address)": "5f3b1f3b",
					"isOwner(address)": "2f54bf6e",
					"removeOwners(address)": "b64c14fe"
				}
			},
			"storageLayout": {
				"storage": [
					{
						"astId": 3,
						"contract": "contracts/Ownerlist.sol:Ownerlist",
						"label": "owner",
						"offset": 0,
						"slot": "0",
						"type": "t_address"
					},
					{
						"astId": 41,
						"contract": "contracts/Ownerlist.sol:Ownerlist",
						"label": "owners",
						"offset": 0,
						"slot": "1",
						"type": "t_mapping(t_address,t_bool)"
					}
				],
				"types": {
					"t_address": {
						"encoding": "inplace",
						"label": "address",
						"numberOfBytes": "20"
					},
					"t_bool": {
						"encoding": "inplace",
						"label": "bool",
						"numberOfBytes": "1"
					},
					"t_mapping(t_address,t_bool)": {
						"encoding": "mapping",
						"key": "t_address",
						"label": "mapping(address => bool)",
						"numberOfBytes": "32",
						"value": "t_bool"
					}
				}
			},
			"userdoc": {
				"kind": "user",
				"methods": {},
				"version": 1
			}
		}
	}
}