{
	"contracts/Whitelist.sol": {
		"Whitelist": {
			"abi": [
				{
					"inputs": [],
					"stateMutability": "nonpayable",
					"type": "constructor"
				},
				{
					"anonymous": false,
					"inputs": [
						{
							"indexed": false,
							"internalType": "address",
							"name": "member",
							"type": "address"
						}
					],
					"name": "MemberAdded",
					"type": "event"
				},
				{
					"anonymous": false,
					"inputs": [
						{
							"indexed": false,
							"internalType": "address",
							"name": "member",
							"type": "address"
						}
					],
					"name": "MemberRemoved",
					"type": "event"
				},
				{
					"inputs": [
						{
							"internalType": "address",
							"name": "_member",
							"type": "address"
						}
					],
					"name": "addMember",
					"outputs": [],
					"stateMutability": "payable",
					"type": "function"
				},
				{
					"inputs": [
						{
							"internalType": "address",
							"name": "_member",
							"type": "address"
						}
					],
					"name": "isMember",
					"outputs": [
						{
							"internalType": "bool",
							"name": "",
							"type": "bool"
						}
					],
					"stateMutability": "view",
					"type": "function"
				},
				{
					"inputs": [
						{
							"internalType": "address",
							"name": "_member",
							"type": "address"
						}
					],
					"name": "removeMember",
					"outputs": [],
					"stateMutability": "nonpayable",
					"type": "function"
				}
			],
			"devdoc": {
				"author": "Alberto Cuesta Canada",
				"details": "Implements a simple whitelist of addresses.",
				"kind": "dev",
				"methods": {
					"addMember(address)": {
						"details": "A method to add a member to the whitelist",
						"params": {
							"_member": "The member to add as a member."
						}
					},
					"constructor": {
						"details": "The contract constructor."
					},
					"isMember(address)": {
						"details": "A method to verify whether an address is a member of the whitelist",
						"params": {
							"_member": "The address to verify."
						},
						"returns": {
							"_0": "Whether the address is a member of the whitelist."
						}
					},
					"removeMember(address)": {
						"details": "A method to remove a member from the whitelist",
						"params": {
							"_member": "The member to remove as a member."
						}
					}
				},
				"title": "Whitelist",
				"version": 1
			},
			"evm": {
				"assembly": "    /* \"contracts/Whitelist.sol\":205:1632  contract Whitelist is Ownable {... */\n  mstore(0x40, 0x80)\n    /* \"contracts/Whitelist.sol\":425:457  constructor() Ownable() {... */\n  callvalue\n  dup1\n  iszero\n  tag_1\n  jumpi\n  0x00\n  dup1\n  revert\ntag_1:\n  pop\n    /* \"contracts/Ownable.sol\":448:458  msg.sender */\n  caller\n    /* \"contracts/Ownable.sol\":440:445  owner */\n  0x00\n  dup1\n    /* \"contracts/Ownable.sol\":440:458  owner = msg.sender */\n  0x0100\n  exp\n  dup2\n  sload\n  dup2\n  0xffffffffffffffffffffffffffffffffffffffff\n  mul\n  not\n  and\n  swap1\n  dup4\n  0xffffffffffffffffffffffffffffffffffffffff\n  and\n  mul\n  or\n  swap1\n  sstore\n  pop\n    /* \"contracts/Whitelist.sol\":205:1632  contract Whitelist is Ownable {... */\n  dataSize(sub_0)\n  dup1\n  dataOffset(sub_0)\n  0x00\n  codecopy\n  0x00\n  return\nstop\n\nsub_0: assembly {\n        /* \"contracts/Whitelist.sol\":205:1632  contract Whitelist is Ownable {... */\n      mstore(0x40, 0x80)\n      jumpi(tag_1, lt(calldatasize, 0x04))\n      shr(0xe0, calldataload(0x00))\n      dup1\n      0x0b1ca49a\n      eq\n      tag_2\n      jumpi\n      dup1\n      0xa230c524\n      eq\n      tag_3\n      jumpi\n      dup1\n      0xca6d56dc\n      eq\n      tag_4\n      jumpi\n    tag_1:\n      0x00\n      dup1\n      revert\n        /* \"contracts/Whitelist.sol\":1366:1629  function removeMember(address _member)... */\n    tag_2:\n      callvalue\n      dup1\n      iszero\n      tag_5\n      jumpi\n      0x00\n      dup1\n      revert\n    tag_5:\n      pop\n      tag_6\n      0x04\n      dup1\n      calldatasize\n      sub\n      dup2\n      add\n      swap1\n      tag_7\n      swap2\n      swap1\n      tag_8\n      jump\t// in\n    tag_7:\n      tag_9\n      jump\t// in\n    tag_6:\n      stop\n        /* \"contracts/Whitelist.sol\":675:810  function isMember(address _member)... */\n    tag_3:\n      callvalue\n      dup1\n      iszero\n      tag_10\n      jumpi\n      0x00\n      dup1\n      revert\n    tag_10:\n      pop\n      tag_11\n      0x04\n      dup1\n      calldatasize\n      sub\n      dup2\n      add\n      swap1\n      tag_12\n      swap2\n      swap1\n      tag_8\n      jump\t// in\n    tag_12:\n      tag_13\n      jump\t// in\n    tag_11:\n      mload(0x40)\n      tag_14\n      swap2\n      swap1\n      tag_15\n      jump\t// in\n    tag_14:\n      mload(0x40)\n      dup1\n      swap2\n      sub\n      swap1\n      return\n        /* \"contracts/Whitelist.sol\":945:1223  function addMember(address _member)... */\n    tag_4:\n      tag_16\n      0x04\n      dup1\n      calldatasize\n      sub\n      dup2\n      add\n      swap1\n      tag_17\n      swap2\n      swap1\n      tag_8\n      jump\t// in\n    tag_17:\n      tag_18\n      jump\t// in\n    tag_16:\n      stop\n        /* \"contracts/Whitelist.sol\":1366:1629  function removeMember(address _member)... */\n    tag_9:\n        /* \"contracts/Ownable.sol\":342:347  owner */\n      0x00\n      dup1\n      sload\n      swap1\n      0x0100\n      exp\n      swap1\n      div\n      0xffffffffffffffffffffffffffffffffffffffff\n      and\n        /* \"contracts/Ownable.sol\":328:347  msg.sender == owner */\n      0xffffffffffffffffffffffffffffffffffffffff\n      and\n        /* \"contracts/Ownable.sol\":328:338  msg.sender */\n      caller\n        /* \"contracts/Ownable.sol\":328:347  msg.sender == owner */\n      0xffffffffffffffffffffffffffffffffffffffff\n      and\n      eq\n        /* \"contracts/Ownable.sol\":320:348  require(msg.sender == owner) */\n      tag_20\n      jumpi\n      0x00\n      dup1\n      revert\n    tag_20:\n        /* \"contracts/Whitelist.sol\":1478:1495  isMember(_member) */\n      tag_22\n        /* \"contracts/Whitelist.sol\":1487:1494  _member */\n      dup2\n        /* \"contracts/Whitelist.sol\":1478:1486  isMember */\n      tag_13\n        /* \"contracts/Whitelist.sol\":1478:1495  isMember(_member) */\n      jump\t// in\n    tag_22:\n        /* \"contracts/Whitelist.sol\":1456:1547  require(... */\n      tag_23\n      jumpi\n      mload(0x40)\n      0x08c379a000000000000000000000000000000000000000000000000000000000\n      dup2\n      mstore\n      0x04\n      add\n      tag_24\n      swap1\n      tag_25\n      jump\t// in\n    tag_24:\n      mload(0x40)\n      dup1\n      swap2\n      sub\n      swap1\n      revert\n    tag_23:\n        /* \"contracts/Whitelist.sol\":1567:1574  members */\n      0x01\n        /* \"contracts/Whitelist.sol\":1567:1583  members[_member] */\n      0x00\n        /* \"contracts/Whitelist.sol\":1575:1582  _member */\n      dup3\n        /* \"contracts/Whitelist.sol\":1567:1583  members[_member] */\n      0xffffffffffffffffffffffffffffffffffffffff\n      and\n      0xffffffffffffffffffffffffffffffffffffffff\n      and\n      dup2\n      mstore\n      0x20\n      add\n      swap1\n      dup2\n      mstore\n      0x20\n      add\n      0x00\n      keccak256\n      0x00\n        /* \"contracts/Whitelist.sol\":1560:1583  delete members[_member] */\n      0x0100\n      exp\n      dup2\n      sload\n      swap1\n      0xff\n      mul\n      not\n      and\n      swap1\n      sstore\n        /* \"contracts/Whitelist.sol\":1599:1621  MemberRemoved(_member) */\n      0x6e76fb4c77256006d9c38ec7d82b45a8c8f3c27b1d6766fffc42dfb8de684492\n        /* \"contracts/Whitelist.sol\":1613:1620  _member */\n      dup2\n        /* \"contracts/Whitelist.sol\":1599:1621  MemberRemoved(_member) */\n      mload(0x40)\n      tag_26\n      swap2\n      swap1\n      tag_27\n      jump\t// in\n    tag_26:\n      mload(0x40)\n      dup1\n      swap2\n      sub\n      swap1\n      log1\n        /* \"contracts/Whitelist.sol\":1366:1629  function removeMember(address _member)... */\n      pop\n      jump\t// out\n        /* \"contracts/Whitelist.sol\":675:810  function isMember(address _member)... */\n    tag_13:\n        /* \"contracts/Whitelist.sol\":757:761  bool */\n      0x00\n        /* \"contracts/Whitelist.sol\":786:793  members */\n      0x01\n        /* \"contracts/Whitelist.sol\":786:802  members[_member] */\n      0x00\n        /* \"contracts/Whitelist.sol\":794:801  _member */\n      dup4\n        /* \"contracts/Whitelist.sol\":786:802  members[_member] */\n      0xffffffffffffffffffffffffffffffffffffffff\n      and\n      0xffffffffffffffffffffffffffffffffffffffff\n      and\n      dup2\n      mstore\n      0x20\n      add\n      swap1\n      dup2\n      mstore\n      0x20\n      add\n      0x00\n      keccak256\n      0x00\n      swap1\n      sload\n      swap1\n      0x0100\n      exp\n      swap1\n      div\n      0xff\n      and\n        /* \"contracts/Whitelist.sol\":779:802  return members[_member] */\n      swap1\n      pop\n        /* \"contracts/Whitelist.sol\":675:810  function isMember(address _member)... */\n      swap2\n      swap1\n      pop\n      jump\t// out\n        /* \"contracts/Whitelist.sol\":945:1223  function addMember(address _member)... */\n    tag_18:\n        /* \"contracts/Ownable.sol\":342:347  owner */\n      0x00\n      dup1\n      sload\n      swap1\n      0x0100\n      exp\n      swap1\n      div\n      0xffffffffffffffffffffffffffffffffffffffff\n      and\n        /* \"contracts/Ownable.sol\":328:347  msg.sender == owner */\n      0xffffffffffffffffffffffffffffffffffffffff\n      and\n        /* \"contracts/Ownable.sol\":328:338  msg.sender */\n      caller\n        /* \"contracts/Ownable.sol\":328:347  msg.sender == owner */\n      0xffffffffffffffffffffffffffffffffffffffff\n      and\n      eq\n        /* \"contracts/Ownable.sol\":320:348  require(msg.sender == owner) */\n      tag_30\n      jumpi\n      0x00\n      dup1\n      revert\n    tag_30:\n        /* \"contracts/Whitelist.sol\":1072:1089  isMember(_member) */\n      tag_32\n        /* \"contracts/Whitelist.sol\":1081:1088  _member */\n      dup2\n        /* \"contracts/Whitelist.sol\":1072:1080  isMember */\n      tag_13\n        /* \"contracts/Whitelist.sol\":1072:1089  isMember(_member) */\n      jump\t// in\n    tag_32:\n        /* \"contracts/Whitelist.sol\":1071:1089  !isMember(_member) */\n      iszero\n        /* \"contracts/Whitelist.sol\":1049:1143  require(... */\n      tag_33\n      jumpi\n      mload(0x40)\n      0x08c379a000000000000000000000000000000000000000000000000000000000\n      dup2\n      mstore\n      0x04\n      add\n      tag_34\n      swap1\n      tag_35\n      jump\t// in\n    tag_34:\n      mload(0x40)\n      dup1\n      swap2\n      sub\n      swap1\n      revert\n    tag_33:\n        /* \"contracts/Whitelist.sol\":1175:1179  true */\n      0x01\n        /* \"contracts/Whitelist.sol\":1156:1163  members */\n      dup1\n        /* \"contracts/Whitelist.sol\":1156:1172  members[_member] */\n      0x00\n        /* \"contracts/Whitelist.sol\":1164:1171  _member */\n      dup4\n        /* \"contracts/Whitelist.sol\":1156:1172  members[_member] */\n      0xffffffffffffffffffffffffffffffffffffffff\n      and\n      0xffffffffffffffffffffffffffffffffffffffff\n      and\n      dup2\n      mstore\n      0x20\n      add\n      swap1\n      dup2\n      mstore\n      0x20\n      add\n      0x00\n      keccak256\n      0x00\n        /* \"contracts/Whitelist.sol\":1156:1179  members[_member] = true */\n      0x0100\n      exp\n      dup2\n      sload\n      dup2\n      0xff\n      mul\n      not\n      and\n      swap1\n      dup4\n      iszero\n      iszero\n      mul\n      or\n      swap1\n      sstore\n      pop\n        /* \"contracts/Whitelist.sol\":1195:1215  MemberAdded(_member) */\n      0xb251eb052afc73ffd02ffe85ad79990a8b3fed60d76dbc2fa2fdd7123dffd914\n        /* \"contracts/Whitelist.sol\":1207:1214  _member */\n      dup2\n        /* \"contracts/Whitelist.sol\":1195:1215  MemberAdded(_member) */\n      mload(0x40)\n      tag_36\n      swap2\n      swap1\n      tag_27\n      jump\t// in\n    tag_36:\n      mload(0x40)\n      dup1\n      swap2\n      sub\n      swap1\n      log1\n        /* \"contracts/Whitelist.sol\":945:1223  function addMember(address _member)... */\n      pop\n      jump\t// out\n        /* \"#utility.yul\":88:205   */\n    tag_38:\n        /* \"#utility.yul\":197:198   */\n      0x00\n        /* \"#utility.yul\":194:195   */\n      dup1\n        /* \"#utility.yul\":187:199   */\n      revert\n        /* \"#utility.yul\":334:460   */\n    tag_40:\n        /* \"#utility.yul\":371:378   */\n      0x00\n        /* \"#utility.yul\":411:453   */\n      0xffffffffffffffffffffffffffffffffffffffff\n        /* \"#utility.yul\":404:409   */\n      dup3\n        /* \"#utility.yul\":400:454   */\n      and\n        /* \"#utility.yul\":389:454   */\n      swap1\n      pop\n        /* \"#utility.yul\":334:460   */\n      swap2\n      swap1\n      pop\n      jump\t// out\n        /* \"#utility.yul\":466:562   */\n    tag_41:\n        /* \"#utility.yul\":503:510   */\n      0x00\n        /* \"#utility.yul\":532:556   */\n      tag_58\n        /* \"#utility.yul\":550:555   */\n      dup3\n        /* \"#utility.yul\":532:556   */\n      tag_40\n      jump\t// in\n    tag_58:\n        /* \"#utility.yul\":521:556   */\n      swap1\n      pop\n        /* \"#utility.yul\":466:562   */\n      swap2\n      swap1\n      pop\n      jump\t// out\n        /* \"#utility.yul\":568:690   */\n    tag_42:\n        /* \"#utility.yul\":641:665   */\n      tag_60\n        /* \"#utility.yul\":659:664   */\n      dup2\n        /* \"#utility.yul\":641:665   */\n      tag_41\n      jump\t// in\n    tag_60:\n        /* \"#utility.yul\":634:639   */\n      dup2\n        /* \"#utility.yul\":631:666   */\n      eq\n        /* \"#utility.yul\":621:684   */\n      tag_61\n      jumpi\n        /* \"#utility.yul\":680:681   */\n      0x00\n        /* \"#utility.yul\":677:678   */\n      dup1\n        /* \"#utility.yul\":670:682   */\n      revert\n        /* \"#utility.yul\":621:684   */\n    tag_61:\n        /* \"#utility.yul\":568:690   */\n      pop\n      jump\t// out\n        /* \"#utility.yul\":696:835   */\n    tag_43:\n        /* \"#utility.yul\":742:747   */\n      0x00\n        /* \"#utility.yul\":780:786   */\n      dup2\n        /* \"#utility.yul\":767:787   */\n      calldataload\n        /* \"#utility.yul\":758:787   */\n      swap1\n      pop\n        /* \"#utility.yul\":796:829   */\n      tag_63\n        /* \"#utility.yul\":823:828   */\n      dup2\n        /* \"#utility.yul\":796:829   */\n      tag_42\n      jump\t// in\n    tag_63:\n        /* \"#utility.yul\":696:835   */\n      swap3\n      swap2\n      pop\n      pop\n      jump\t// out\n        /* \"#utility.yul\":841:1170   */\n    tag_8:\n        /* \"#utility.yul\":900:906   */\n      0x00\n        /* \"#utility.yul\":949:951   */\n      0x20\n        /* \"#utility.yul\":937:946   */\n      dup3\n        /* \"#utility.yul\":928:935   */\n      dup5\n        /* \"#utility.yul\":924:947   */\n      sub\n        /* \"#utility.yul\":920:952   */\n      slt\n        /* \"#utility.yul\":917:1036   */\n      iszero\n      tag_65\n      jumpi\n        /* \"#utility.yul\":955:1034   */\n      tag_66\n      tag_38\n      jump\t// in\n    tag_66:\n        /* \"#utility.yul\":917:1036   */\n    tag_65:\n        /* \"#utility.yul\":1075:1076   */\n      0x00\n        /* \"#utility.yul\":1100:1153   */\n      tag_67\n        /* \"#utility.yul\":1145:1152   */\n      dup5\n        /* \"#utility.yul\":1136:1142   */\n      dup3\n        /* \"#utility.yul\":1125:1134   */\n      dup6\n        /* \"#utility.yul\":1121:1143   */\n      add\n        /* \"#utility.yul\":1100:1153   */\n      tag_43\n      jump\t// in\n    tag_67:\n        /* \"#utility.yul\":1090:1153   */\n      swap2\n      pop\n        /* \"#utility.yul\":1046:1163   */\n      pop\n        /* \"#utility.yul\":841:1170   */\n      swap3\n      swap2\n      pop\n      pop\n      jump\t// out\n        /* \"#utility.yul\":1176:1266   */\n    tag_44:\n        /* \"#utility.yul\":1210:1217   */\n      0x00\n        /* \"#utility.yul\":1253:1258   */\n      dup2\n        /* \"#utility.yul\":1246:1259   */\n      iszero\n        /* \"#utility.yul\":1239:1260   */\n      iszero\n        /* \"#utility.yul\":1228:1260   */\n      swap1\n      pop\n        /* \"#utility.yul\":1176:1266   */\n      swap2\n      swap1\n      pop\n      jump\t// out\n        /* \"#utility.yul\":1272:1381   */\n    tag_45:\n        /* \"#utility.yul\":1353:1374   */\n      tag_70\n        /* \"#utility.yul\":1368:1373   */\n      dup2\n        /* \"#utility.yul\":1353:1374   */\n      tag_44\n      jump\t// in\n    tag_70:\n        /* \"#utility.yul\":1348:1351   */\n      dup3\n        /* \"#utility.yul\":1341:1375   */\n      mstore\n        /* \"#utility.yul\":1272:1381   */\n      pop\n      pop\n      jump\t// out\n        /* \"#utility.yul\":1387:1597   */\n    tag_15:\n        /* \"#utility.yul\":1474:1478   */\n      0x00\n        /* \"#utility.yul\":1512:1514   */\n      0x20\n        /* \"#utility.yul\":1501:1510   */\n      dup3\n        /* \"#utility.yul\":1497:1515   */\n      add\n        /* \"#utility.yul\":1489:1515   */\n      swap1\n      pop\n        /* \"#utility.yul\":1525:1590   */\n      tag_72\n        /* \"#utility.yul\":1587:1588   */\n      0x00\n        /* \"#utility.yul\":1576:1585   */\n      dup4\n        /* \"#utility.yul\":1572:1589   */\n      add\n        /* \"#utility.yul\":1563:1569   */\n      dup5\n        /* \"#utility.yul\":1525:1590   */\n      tag_45\n      jump\t// in\n    tag_72:\n        /* \"#utility.yul\":1387:1597   */\n      swap3\n      swap2\n      pop\n      pop\n      jump\t// out\n        /* \"#utility.yul\":1603:1772   */\n    tag_46:\n        /* \"#utility.yul\":1687:1698   */\n      0x00\n        /* \"#utility.yul\":1721:1727   */\n      dup3\n        /* \"#utility.yul\":1716:1719   */\n      dup3\n        /* \"#utility.yul\":1709:1728   */\n      mstore\n        /* \"#utility.yul\":1761:1765   */\n      0x20\n        /* \"#utility.yul\":1756:1759   */\n      dup3\n        /* \"#utility.yul\":1752:1766   */\n      add\n        /* \"#utility.yul\":1737:1766   */\n      swap1\n      pop\n        /* \"#utility.yul\":1603:1772   */\n      swap3\n      swap2\n      pop\n      pop\n      jump\t// out\n        /* \"#utility.yul\":1778:1952   */\n    tag_47:\n        /* \"#utility.yul\":1918:1944   */\n      0x4e6f74206d656d626572206f662077686974656c6973742e0000000000000000\n        /* \"#utility.yul\":1914:1915   */\n      0x00\n        /* \"#utility.yul\":1906:1912   */\n      dup3\n        /* \"#utility.yul\":1902:1916   */\n      add\n        /* \"#utility.yul\":1895:1945   */\n      mstore\n        /* \"#utility.yul\":1778:1952   */\n      pop\n      jump\t// out\n        /* \"#utility.yul\":1958:2324   */\n    tag_48:\n        /* \"#utility.yul\":2100:2103   */\n      0x00\n        /* \"#utility.yul\":2121:2188   */\n      tag_76\n        /* \"#utility.yul\":2185:2187   */\n      0x18\n        /* \"#utility.yul\":2180:2183   */\n      dup4\n        /* \"#utility.yul\":2121:2188   */\n      tag_46\n      jump\t// in\n    tag_76:\n        /* \"#utility.yul\":2114:2188   */\n      swap2\n      pop\n        /* \"#utility.yul\":2197:2290   */\n      tag_77\n        /* \"#utility.yul\":2286:2289   */\n      dup3\n        /* \"#utility.yul\":2197:2290   */\n      tag_47\n      jump\t// in\n    tag_77:\n        /* \"#utility.yul\":2315:2317   */\n      0x20\n        /* \"#utility.yul\":2310:2313   */\n      dup3\n        /* \"#utility.yul\":2306:2318   */\n      add\n        /* \"#utility.yul\":2299:2318   */\n      swap1\n      pop\n        /* \"#utility.yul\":1958:2324   */\n      swap2\n      swap1\n      pop\n      jump\t// out\n        /* \"#utility.yul\":2330:2749   */\n    tag_25:\n        /* \"#utility.yul\":2496:2500   */\n      0x00\n        /* \"#utility.yul\":2534:2536   */\n      0x20\n        /* \"#utility.yul\":2523:2532   */\n      dup3\n        /* \"#utility.yul\":2519:2537   */\n      add\n        /* \"#utility.yul\":2511:2537   */\n      swap1\n      pop\n        /* \"#utility.yul\":2583:2592   */\n      dup2\n        /* \"#utility.yul\":2577:2581   */\n      dup2\n        /* \"#utility.yul\":2573:2593   */\n      sub\n        /* \"#utility.yul\":2569:2570   */\n      0x00\n        /* \"#utility.yul\":2558:2567   */\n      dup4\n        /* \"#utility.yul\":2554:2571   */\n      add\n        /* \"#utility.yul\":2547:2594   */\n      mstore\n        /* \"#utility.yul\":2611:2742   */\n      tag_79\n        /* \"#utility.yul\":2737:2741   */\n      dup2\n        /* \"#utility.yul\":2611:2742   */\n      tag_48\n      jump\t// in\n    tag_79:\n        /* \"#utility.yul\":2603:2742   */\n      swap1\n      pop\n        /* \"#utility.yul\":2330:2749   */\n      swap2\n      swap1\n      pop\n      jump\t// out\n        /* \"#utility.yul\":2755:2873   */\n    tag_49:\n        /* \"#utility.yul\":2842:2866   */\n      tag_81\n        /* \"#utility.yul\":2860:2865   */\n      dup2\n        /* \"#utility.yul\":2842:2866   */\n      tag_41\n      jump\t// in\n    tag_81:\n        /* \"#utility.yul\":2837:2840   */\n      dup3\n        /* \"#utility.yul\":2830:2867   */\n      mstore\n        /* \"#utility.yul\":2755:2873   */\n      pop\n      pop\n      jump\t// out\n        /* \"#utility.yul\":2879:3101   */\n    tag_27:\n        /* \"#utility.yul\":2972:2976   */\n      0x00\n        /* \"#utility.yul\":3010:3012   */\n      0x20\n        /* \"#utility.yul\":2999:3008   */\n      dup3\n        /* \"#utility.yul\":2995:3013   */\n      add\n        /* \"#utility.yul\":2987:3013   */\n      swap1\n      pop\n        /* \"#utility.yul\":3023:3094   */\n      tag_83\n        /* \"#utility.yul\":3091:3092   */\n      0x00\n        /* \"#utility.yul\":3080:3089   */\n      dup4\n        /* \"#utility.yul\":3076:3093   */\n      add\n        /* \"#utility.yul\":3067:3073   */\n      dup5\n        /* \"#utility.yul\":3023:3094   */\n      tag_49\n      jump\t// in\n    tag_83:\n        /* \"#utility.yul\":2879:3101   */\n      swap3\n      swap2\n      pop\n      pop\n      jump\t// out\n        /* \"#utility.yul\":3107:3283   */\n    tag_50:\n        /* \"#utility.yul\":3247:3275   */\n      0x41646472657373206973206d656d62657220616c72656164792e000000000000\n        /* \"#utility.yul\":3243:3244   */\n      0x00\n        /* \"#utility.yul\":3235:3241   */\n      dup3\n        /* \"#utility.yul\":3231:3245   */\n      add\n        /* \"#utility.yul\":3224:3276   */\n      mstore\n        /* \"#utility.yul\":3107:3283   */\n      pop\n      jump\t// out\n        /* \"#utility.yul\":3289:3655   */\n    tag_51:\n        /* \"#utility.yul\":3431:3434   */\n      0x00\n        /* \"#utility.yul\":3452:3519   */\n      tag_86\n        /* \"#utility.yul\":3516:3518   */\n      0x1a\n        /* \"#utility.yul\":3511:3514   */\n      dup4\n        /* \"#utility.yul\":3452:3519   */\n      tag_46\n      jump\t// in\n    tag_86:\n        /* \"#utility.yul\":3445:3519   */\n      swap2\n      pop\n        /* \"#utility.yul\":3528:3621   */\n      tag_87\n        /* \"#utility.yul\":3617:3620   */\n      dup3\n        /* \"#utility.yul\":3528:3621   */\n      tag_50\n      jump\t// in\n    tag_87:\n        /* \"#utility.yul\":3646:3648   */\n      0x20\n        /* \"#utility.yul\":3641:3644   */\n      dup3\n        /* \"#utility.yul\":3637:3649   */\n      add\n        /* \"#utility.yul\":3630:3649   */\n      swap1\n      pop\n        /* \"#utility.yul\":3289:3655   */\n      swap2\n      swap1\n      pop\n      jump\t// out\n        /* \"#utility.yul\":3661:4080   */\n    tag_35:\n        /* \"#utility.yul\":3827:3831   */\n      0x00\n        /* \"#utility.yul\":3865:3867   */\n      0x20\n        /* \"#utility.yul\":3854:3863   */\n      dup3\n        /* \"#utility.yul\":3850:3868   */\n      add\n        /* \"#utility.yul\":3842:3868   */\n      swap1\n      pop\n        /* \"#utility.yul\":3914:3923   */\n      dup2\n        /* \"#utility.yul\":3908:3912   */\n      dup2\n        /* \"#utility.yul\":3904:3924   */\n      sub\n        /* \"#utility.yul\":3900:3901   */\n      0x00\n        /* \"#utility.yul\":3889:3898   */\n      dup4\n        /* \"#utility.yul\":3885:3902   */\n      add\n        /* \"#utility.yul\":3878:3925   */\n      mstore\n        /* \"#utility.yul\":3942:4073   */\n      tag_89\n        /* \"#utility.yul\":4068:4072   */\n      dup2\n        /* \"#utility.yul\":3942:4073   */\n      tag_51\n      jump\t// in\n    tag_89:\n        /* \"#utility.yul\":3934:4073   */\n      swap1\n      pop\n        /* \"#utility.yul\":3661:4080   */\n      swap2\n      swap1\n      pop\n      jump\t// out\n\n    auxdata: 0xa26469706673582212205fe3a80eeeee26001a9803bc59997d0a8b9a013bd279daef15ba4f106ce08d1764736f6c634300080d0033\n}\n",
				"bytecode": {
					"linkReferences": {},
					"object": "608060405234801561001057600080fd5b50336000806101000a81548173ffffffffffffffffffffffffffffffffffffffff021916908373ffffffffffffffffffffffffffffffffffffffff16021790555061057b806100606000396000f3fe6080604052600436106100345760003560e01c80630b1ca49a14610039578063a230c52414610062578063ca6d56dc1461009f575b600080fd5b34801561004557600080fd5b50610060600480360381019061005b91906103cf565b6100bb565b005b34801561006e57600080fd5b50610089600480360381019061008491906103cf565b6101e4565b6040516100969190610417565b60405180910390f35b6100b960048036038101906100b491906103cf565b61023a565b005b60008054906101000a900473ffffffffffffffffffffffffffffffffffffffff1673ffffffffffffffffffffffffffffffffffffffff163373ffffffffffffffffffffffffffffffffffffffff161461011357600080fd5b61011c816101e4565b61015b576040517f08c379a00000000000000000000000000000000000000000000000000000000081526004016101529061048f565b60405180910390fd5b600160008273ffffffffffffffffffffffffffffffffffffffff1673ffffffffffffffffffffffffffffffffffffffff16815260200190815260200160002060006101000a81549060ff02191690557f6e76fb4c77256006d9c38ec7d82b45a8c8f3c27b1d6766fffc42dfb8de684492816040516101d991906104be565b60405180910390a150565b6000600160008373ffffffffffffffffffffffffffffffffffffffff1673ffffffffffffffffffffffffffffffffffffffff16815260200190815260200160002060009054906101000a900460ff169050919050565b60008054906101000a900473ffffffffffffffffffffffffffffffffffffffff1673ffffffffffffffffffffffffffffffffffffffff163373ffffffffffffffffffffffffffffffffffffffff161461029257600080fd5b61029b816101e4565b156102db576040517f08c379a00000000000000000000000000000000000000000000000000000000081526004016102d290610525565b60405180910390fd5b60018060008373ffffffffffffffffffffffffffffffffffffffff1673ffffffffffffffffffffffffffffffffffffffff16815260200190815260200160002060006101000a81548160ff0219169083151502179055507fb251eb052afc73ffd02ffe85ad79990a8b3fed60d76dbc2fa2fdd7123dffd9148160405161036191906104be565b60405180910390a150565b600080fd5b600073ffffffffffffffffffffffffffffffffffffffff82169050919050565b600061039c82610371565b9050919050565b6103ac81610391565b81146103b757600080fd5b50565b6000813590506103c9816103a3565b92915050565b6000602082840312156103e5576103e461036c565b5b60006103f3848285016103ba565b91505092915050565b60008115159050919050565b610411816103fc565b82525050565b600060208201905061042c6000830184610408565b92915050565b600082825260208201905092915050565b7f4e6f74206d656d626572206f662077686974656c6973742e0000000000000000600082015250565b6000610479601883610432565b915061048482610443565b602082019050919050565b600060208201905081810360008301526104a88161046c565b9050919050565b6104b881610391565b82525050565b60006020820190506104d360008301846104af565b92915050565b7f41646472657373206973206d656d62657220616c72656164792e000000000000600082015250565b600061050f601a83610432565b915061051a826104d9565b602082019050919050565b6000602082019050818103600083015261053e81610502565b905091905056fea26469706673582212205fe3a80eeeee26001a9803bc59997d0a8b9a013bd279daef15ba4f106ce08d1764736f6c634300080d0033",
					"opcodes": "PUSH1 0x80 PUSH1 0x40 MSTORE CALLVALUE DUP1 ISZERO PUSH2 0x10 JUMPI PUSH1 0x0 DUP1 REVERT JUMPDEST POP CALLER PUSH1 0x0 DUP1 PUSH2 0x100 EXP DUP2 SLOAD DUP2 PUSH20 0xFFFFFFFFFFFFFFFFFFFFFFFFFFFFFFFFFFFFFFFF MUL NOT AND SWAP1 DUP4 PUSH20 0xFFFFFFFFFFFFFFFFFFFFFFFFFFFFFFFFFFFFFFFF AND MUL OR SWAP1 SSTORE POP PUSH2 0x57B DUP1 PUSH2 0x60 PUSH1 0x0 CODECOPY PUSH1 0x0 RETURN INVALID PUSH1 0x80 PUSH1 0x40 MSTORE PUSH1 0x4 CALLDATASIZE LT PUSH2 0x34 JUMPI PUSH1 0x0 CALLDATALOAD PUSH1 0xE0 SHR DUP1 PUSH4 0xB1CA49A EQ PUSH2 0x39 JUMPI DUP1 PUSH4 0xA230C524 EQ PUSH2 0x62 JUMPI DUP1 PUSH4 0xCA6D56DC EQ PUSH2 0x9F JUMPI JUMPDEST PUSH1 0x0 DUP1 REVERT JUMPDEST CALLVALUE DUP1 ISZERO PUSH2 0x45 JUMPI PUSH1 0x0 DUP1 REVERT JUMPDEST POP PUSH2 0x60 PUSH1 0x4 DUP1 CALLDATASIZE SUB DUP2 ADD SWAP1 PUSH2 0x5B SWAP2 SWAP1 PUSH2 0x3CF JUMP JUMPDEST PUSH2 0xBB JUMP JUMPDEST STOP JUMPDEST CALLVALUE DUP1 ISZERO PUSH2 0x6E JUMPI PUSH1 0x0 DUP1 REVERT JUMPDEST POP PUSH2 0x89 PUSH1 0x4 DUP1 CALLDATASIZE SUB DUP2 ADD SWAP1 PUSH2 0x84 SWAP2 SWAP1 PUSH2 0x3CF JUMP JUMPDEST PUSH2 0x1E4 JUMP JUMPDEST PUSH1 0x40 MLOAD PUSH2 0x96 SWAP2 SWAP1 PUSH2 0x417 JUMP JUMPDEST PUSH1 0x40 MLOAD DUP1 SWAP2 SUB SWAP1 RETURN JUMPDEST PUSH2 0xB9 PUSH1 0x4 DUP1 CALLDATASIZE SUB DUP2 ADD SWAP1 PUSH2 0xB4 SWAP2 SWAP1 PUSH2 0x3CF JUMP JUMPDEST PUSH2 0x23A JUMP JUMPDEST STOP JUMPDEST PUSH1 0x0 DUP1 SLOAD SWAP1 PUSH2 0x100 EXP SWAP1 DIV PUSH20 0xFFFFFFFFFFFFFFFFFFFFFFFFFFFFFFFFFFFFFFFF AND PUSH20 0xFFFFFFFFFFFFFFFFFFFFFFFFFFFFFFFFFFFFFFFF AND CALLER PUSH20 0xFFFFFFFFFFFFFFFFFFFFFFFFFFFFFFFFFFFFFFFF AND EQ PUSH2 0x113 JUMPI PUSH1 0x0 DUP1 REVERT JUMPDEST PUSH2 0x11C DUP2 PUSH2 0x1E4 JUMP JUMPDEST PUSH2 0x15B JUMPI PUSH1 0x40 MLOAD PUSH32 0x8C379A000000000000000000000000000000000000000000000000000000000 DUP2 MSTORE PUSH1 0x4 ADD PUSH2 0x152 SWAP1 PUSH2 0x48F JUMP JUMPDEST PUSH1 0x40 MLOAD DUP1 SWAP2 SUB SWAP1 REVERT JUMPDEST PUSH1 0x1 PUSH1 0x0 DUP3 PUSH20 0xFFFFFFFFFFFFFFFFFFFFFFFFFFFFFFFFFFFFFFFF AND PUSH20 0xFFFFFFFFFFFFFFFFFFFFFFFFFFFFFFFFFFFFFFFF AND DUP2 MSTORE PUSH1 0x20 ADD SWAP1 DUP2 MSTORE PUSH1 0x20 ADD PUSH1 0x0 KECCAK256 PUSH1 0x0 PUSH2 0x100 EXP DUP2 SLOAD SWAP1 PUSH1 0xFF MUL NOT AND SWAP1 SSTORE PUSH32 0x6E76FB4C77256006D9C38EC7D82B45A8C8F3C27B1D6766FFFC42DFB8DE684492 DUP2 PUSH1 0x40 MLOAD PUSH2 0x1D9 SWAP2 SWAP1 PUSH2 0x4BE JUMP JUMPDEST PUSH1 0x40 MLOAD DUP1 SWAP2 SUB SWAP1 LOG1 POP JUMP JUMPDEST PUSH1 0x0 PUSH1 0x1 PUSH1 0x0 DUP4 PUSH20 0xFFFFFFFFFFFFFFFFFFFFFFFFFFFFFFFFFFFFFFFF AND PUSH20 0xFFFFFFFFFFFFFFFFFFFFFFFFFFFFFFFFFFFFFFFF AND DUP2 MSTORE PUSH1 0x20 ADD SWAP1 DUP2 MSTORE PUSH1 0x20 ADD PUSH1 0x0 KECCAK256 PUSH1 0x0 SWAP1 SLOAD SWAP1 PUSH2 0x100 EXP SWAP1 DIV PUSH1 0xFF AND SWAP1 POP SWAP2 SWAP1 POP JUMP JUMPDEST PUSH1 0x0 DUP1 SLOAD SWAP1 PUSH2 0x100 EXP SWAP1 DIV PUSH20 0xFFFFFFFFFFFFFFFFFFFFFFFFFFFFFFFFFFFFFFFF AND PUSH20 0xFFFFFFFFFFFFFFFFFFFFFFFFFFFFFFFFFFFFFFFF AND CALLER PUSH20 0xFFFFFFFFFFFFFFFFFFFFFFFFFFFFFFFFFFFFFFFF AND EQ PUSH2 0x292 JUMPI PUSH1 0x0 DUP1 REVERT JUMPDEST PUSH2 0x29B DUP2 PUSH2 0x1E4 JUMP JUMPDEST ISZERO PUSH2 0x2DB JUMPI PUSH1 0x40 MLOAD PUSH32 0x8C379A000000000000000000000000000000000000000000000000000000000 DUP2 MSTORE PUSH1 0x4 ADD PUSH2 0x2D2 SWAP1 PUSH2 0x525 JUMP JUMPDEST PUSH1 0x40 MLOAD DUP1 SWAP2 SUB SWAP1 REVERT JUMPDEST PUSH1 0x1 DUP1 PUSH1 0x0 DUP4 PUSH20 0xFFFFFFFFFFFFFFFFFFFFFFFFFFFFFFFFFFFFFFFF AND PUSH20 0xFFFFFFFFFFFFFFFFFFFFFFFFFFFFFFFFFFFFFFFF AND DUP2 MSTORE PUSH1 0x20 ADD SWAP1 DUP2 MSTORE PUSH1 0x20 ADD PUSH1 0x0 KECCAK256 PUSH1 0x0 PUSH2 0x100 EXP DUP2 SLOAD DUP2 PUSH1 0xFF MUL NOT AND SWAP1 DUP4 ISZERO ISZERO MUL OR SWAP1 SSTORE POP PUSH32 0xB251EB052AFC73FFD02FFE85AD79990A8B3FED60D76DBC2FA2FDD7123DFFD914 DUP2 PUSH1 0x40 MLOAD PUSH2 0x361 SWAP2 SWAP1 PUSH2 0x4BE JUMP JUMPDEST PUSH1 0x40 MLOAD DUP1 SWAP2 SUB SWAP1 LOG1 POP JUMP JUMPDEST PUSH1 0x0 DUP1 REVERT JUMPDEST PUSH1 0x0 PUSH20 0xFFFFFFFFFFFFFFFFFFFFFFFFFFFFFFFFFFFFFFFF DUP3 AND SWAP1 POP SWAP2 SWAP1 POP JUMP JUMPDEST PUSH1 0x0 PUSH2 0x39C DUP3 PUSH2 0x371 JUMP JUMPDEST SWAP1 POP SWAP2 SWAP1 POP JUMP JUMPDEST PUSH2 0x3AC DUP2 PUSH2 0x391 JUMP JUMPDEST DUP2 EQ PUSH2 0x3B7 JUMPI PUSH1 0x0 DUP1 REVERT JUMPDEST POP JUMP JUMPDEST PUSH1 0x0 DUP2 CALLDATALOAD SWAP1 POP PUSH2 0x3C9 DUP2 PUSH2 0x3A3 JUMP JUMPDEST SWAP3 SWAP2 POP POP JUMP JUMPDEST PUSH1 0x0 PUSH1 0x20 DUP3 DUP5 SUB SLT ISZERO PUSH2 0x3E5 JUMPI PUSH2 0x3E4 PUSH2 0x36C JUMP JUMPDEST JUMPDEST PUSH1 0x0 PUSH2 0x3F3 DUP5 DUP3 DUP6 ADD PUSH2 0x3BA JUMP JUMPDEST SWAP2 POP POP SWAP3 SWAP2 POP POP JUMP JUMPDEST PUSH1 0x0 DUP2 ISZERO ISZERO SWAP1 POP SWAP2 SWAP1 POP JUMP JUMPDEST PUSH2 0x411 DUP2 PUSH2 0x3FC JUMP JUMPDEST DUP3 MSTORE POP POP JUMP JUMPDEST PUSH1 0x0 PUSH1 0x20 DUP3 ADD SWAP1 POP PUSH2 0x42C PUSH1 0x0 DUP4 ADD DUP5 PUSH2 0x408 JUMP JUMPDEST SWAP3 SWAP2 POP POP JUMP JUMPDEST PUSH1 0x0 DUP3 DUP3 MSTORE PUSH1 0x20 DUP3 ADD SWAP1 POP SWAP3 SWAP2 POP POP JUMP JUMPDEST PUSH32 0x4E6F74206D656D626572206F662077686974656C6973742E0000000000000000 PUSH1 0x0 DUP3 ADD MSTORE POP JUMP JUMPDEST PUSH1 0x0 PUSH2 0x479 PUSH1 0x18 DUP4 PUSH2 0x432 JUMP JUMPDEST SWAP2 POP PUSH2 0x484 DUP3 PUSH2 0x443 JUMP JUMPDEST PUSH1 0x20 DUP3 ADD SWAP1 POP SWAP2 SWAP1 POP JUMP JUMPDEST PUSH1 0x0 PUSH1 0x20 DUP3 ADD SWAP1 POP DUP2 DUP2 SUB PUSH1 0x0 DUP4 ADD MSTORE PUSH2 0x4A8 DUP2 PUSH2 0x46C JUMP JUMPDEST SWAP1 POP SWAP2 SWAP1 POP JUMP JUMPDEST PUSH2 0x4B8 DUP2 PUSH2 0x391 JUMP JUMPDEST DUP3 MSTORE POP POP JUMP JUMPDEST PUSH1 0x0 PUSH1 0x20 DUP3 ADD SWAP1 POP PUSH2 0x4D3 PUSH1 0x0 DUP4 ADD DUP5 PUSH2 0x4AF JUMP JUMPDEST SWAP3 SWAP2 POP POP JUMP JUMPDEST PUSH32 0x41646472657373206973206D656D62657220616C72656164792E000000000000 PUSH1 0x0 DUP3 ADD MSTORE POP JUMP JUMPDEST PUSH1 0x0 PUSH2 0x50F PUSH1 0x1A DUP4 PUSH2 0x432 JUMP JUMPDEST SWAP2 POP PUSH2 0x51A DUP3 PUSH2 0x4D9 JUMP JUMPDEST PUSH1 0x20 DUP3 ADD SWAP1 POP SWAP2 SWAP1 POP JUMP JUMPDEST PUSH1 0x0 PUSH1 0x20 DUP3 ADD SWAP1 POP DUP2 DUP2 SUB PUSH1 0x0 DUP4 ADD MSTORE PUSH2 0x53E DUP2 PUSH2 0x502 JUMP JUMPDEST SWAP1 POP SWAP2 SWAP1 POP JUMP INVALID LOG2 PUSH5 0x6970667358 0x22 SLT KECCAK256 0x5F 0xE3 0xA8 0xE 0xEE 0xEE 0x26 STOP BYTE SWAP9 SUB 0xBC MSIZE SWAP10 PUSH30 0xA8B9A013BD279DAEF15BA4F106CE08D1764736F6C634300080D00330000 "
				},
				"gasEstimates": {
					"creation": {
						"codeDepositCost": "280600",
						"executionCost": "24584",
						"totalCost": "305184"
					},
					"external": {
						"addMember(address)": "infinite",
						"isMember(address)": "2883",
						"removeMember(address)": "infinite"
					}
				},
				"methodIdentifiers": {
					"addMember(address)": "ca6d56dc",
					"isMember(address)": "a230c524",
					"removeMember(address)": "0b1ca49a"
				}
			},
			"storageLayout": {
				"storage": [
					{
						"astId": 3,
						"contract": "contracts/Whitelist.sol:Whitelist",
						"label": "owner",
						"offset": 0,
						"slot": "0",
						"type": "t_address"
					},
					{
						"astId": 42,
						"contract": "contracts/Whitelist.sol:Whitelist",
						"label": "members",
						"offset": 0,
						"slot": "1",
						"type": "t_mapping(t_address,t_bool)"
					}
				],
				"types": {
					"t_address": {
						"encoding": "inplace",
						"label": "address",
						"numberOfBytes": "20"
					},
					"t_bool": {
						"encoding": "inplace",
						"label": "bool",
						"numberOfBytes": "1"
					},
					"t_mapping(t_address,t_bool)": {
						"encoding": "mapping",
						"key": "t_address",
						"label": "mapping(address => bool)",
						"numberOfBytes": "32",
						"value": "t_bool"
					}
				}
			},
			"userdoc": {
				"kind": "user",
				"methods": {},
				"version": 1
			}
		}
	}
}