{
	"contracts/Ownerlist.sol": {
		"Ownerlist": {
			"abi": [
				{
					"inputs": [],
					"stateMutability": "nonpayable",
					"type": "constructor"
				},
				{
					"anonymous": false,
					"inputs": [
						{
							"indexed": false,
							"internalType": "address",
							"name": "owner",
							"type": "address"
						}
					],
					"name": "OwnerAdded",
					"type": "event"
				},
				{
					"anonymous": false,
					"inputs": [
						{
							"indexed": false,
							"internalType": "address",
							"name": "owner",
							"type": "address"
						}
					],
					"name": "OwnerRemoved",
					"type": "event"
				},
				{
					"inputs": [
						{
							"internalType": "address",
							"name": "_owner",
							"type": "address"
						}
					],
					"name": "addOwners",
					"outputs": [],
					"stateMutability": "nonpayable",
					"type": "function"
				},
				{
					"inputs": [
						{
							"internalType": "address",
							"name": "_owner",
							"type": "address"
						}
					],
					"name": "isOwner",
					"outputs": [
						{
							"internalType": "bool",
							"name": "",
							"type": "bool"
						}
					],
					"stateMutability": "view",
					"type": "function"
				},
				{
					"inputs": [
						{
							"internalType": "address",
							"name": "_owner",
							"type": "address"
						}
					],
					"name": "removeOwners",
					"outputs": [],
					"stateMutability": "nonpayable",
					"type": "function"
				}
			],
			"devdoc": {
				"kind": "dev",
				"methods": {
					"addOwners(address)": {
						"details": "A method to add an address to the Ownerlist",
						"params": {
							"_owner": "The address to add as a owner."
						}
					},
					"constructor": {
						"details": "Visibility (public / external) is not needed for constructors anymore:  To prevent a contract from being created, it can be marked abstract. "
					},
					"isOwner(address)": {
						"details": "A method to verify whether an address is a owner on the Ownerlist",
						"params": {
							"_owner": "The address to verify."
						},
						"returns": {
							"_0": "Whether the address is in the Ownerlist."
						}
					},
					"removeOwners(address)": {
						"details": "A method to remove a owner from the Ownerlist",
						"params": {
							"_owner": "The address to remove as a owner."
						}
					}
				},
				"version": 1
			},
			"evm": {
				"assembly": "    /* \"contracts/Ownerlist.sol\":280:1713  contract Ownerlist is Ownable {... */\n  mstore(0x40, 0x80)\n    /* \"contracts/Ownerlist.sol\":616:649  constructor() Ownable() { ... */\n  callvalue\n  dup1\n  iszero\n  tag_1\n  jumpi\n  0x00\n  dup1\n  revert\ntag_1:\n  pop\n    /* \"contracts/Ownable.sol\":439:449  msg.sender */\n  caller\n    /* \"contracts/Ownable.sol\":431:436  owner */\n  0x00\n  dup1\n    /* \"contracts/Ownable.sol\":431:449  owner = msg.sender */\n  0x0100\n  exp\n  dup2\n  sload\n  dup2\n  0xffffffffffffffffffffffffffffffffffffffff\n  mul\n  not\n  and\n  swap1\n  dup4\n  0xffffffffffffffffffffffffffffffffffffffff\n  and\n  mul\n  or\n  swap1\n  sstore\n  pop\n    /* \"contracts/Ownerlist.sol\":280:1713  contract Ownerlist is Ownable {... */\n  dataSize(sub_0)\n  dup1\n  dataOffset(sub_0)\n  0x00\n  codecopy\n  0x00\n  return\nstop\n\nsub_0: assembly {\n        /* \"contracts/Ownerlist.sol\":280:1713  contract Ownerlist is Ownable {... */\n      mstore(0x40, 0x80)\n      callvalue\n      dup1\n      iszero\n      tag_1\n      jumpi\n      0x00\n      dup1\n      revert\n    tag_1:\n      pop\n      jumpi(tag_2, lt(calldatasize, 0x04))\n      shr(0xe0, calldataload(0x00))\n      dup1\n      0x2f54bf6e\n      eq\n      tag_3\n      jumpi\n      dup1\n      0x5f3b1f3b\n      eq\n      tag_4\n      jumpi\n      dup1\n      0xb64c14fe\n      eq\n      tag_5\n      jumpi\n    tag_2:\n      0x00\n      dup1\n      revert\n        /* \"contracts/Ownerlist.sol\":856:960  function isOwner(address _owner) public view returns(bool)... */\n    tag_3:\n      tag_6\n      0x04\n      dup1\n      calldatasize\n      sub\n      dup2\n      add\n      swap1\n      tag_7\n      swap2\n      swap1\n      tag_8\n      jump\t// in\n    tag_7:\n      tag_9\n      jump\t// in\n    tag_6:\n      mload(0x40)\n      tag_10\n      swap2\n      swap1\n      tag_11\n      jump\t// in\n    tag_10:\n      mload(0x40)\n      dup1\n      swap2\n      sub\n      swap1\n      return\n        /* \"contracts/Ownerlist.sol\":1096:1332  function addOwners(address _owner) public onlyOwner ... */\n    tag_4:\n      tag_12\n      0x04\n      dup1\n      calldatasize\n      sub\n      dup2\n      add\n      swap1\n      tag_13\n      swap2\n      swap1\n      tag_8\n      jump\t// in\n    tag_13:\n      tag_14\n      jump\t// in\n    tag_12:\n      stop\n        /* \"contracts/Ownerlist.sol\":1473:1710  function removeOwners(address _owner) public onlyOwner... */\n    tag_5:\n      tag_15\n      0x04\n      dup1\n      calldatasize\n      sub\n      dup2\n      add\n      swap1\n      tag_16\n      swap2\n      swap1\n      tag_8\n      jump\t// in\n    tag_16:\n      tag_17\n      jump\t// in\n    tag_15:\n      stop\n        /* \"contracts/Ownerlist.sol\":856:960  function isOwner(address _owner) public view returns(bool)... */\n    tag_9:\n        /* \"contracts/Ownerlist.sol\":909:913  bool */\n      0x00\n        /* \"contracts/Ownerlist.sol\":938:944  owners */\n      0x01\n        /* \"contracts/Ownerlist.sol\":938:952  owners[_owner] */\n      0x00\n        /* \"contracts/Ownerlist.sol\":945:951  _owner */\n      dup4\n        /* \"contracts/Ownerlist.sol\":938:952  owners[_owner] */\n      0xffffffffffffffffffffffffffffffffffffffff\n      and\n      0xffffffffffffffffffffffffffffffffffffffff\n      and\n      dup2\n      mstore\n      0x20\n      add\n      swap1\n      dup2\n      mstore\n      0x20\n      add\n      0x00\n      keccak256\n      0x00\n      swap1\n      sload\n      swap1\n      0x0100\n      exp\n      swap1\n      div\n      0xff\n      and\n        /* \"contracts/Ownerlist.sol\":931:952  return owners[_owner] */\n      swap1\n      pop\n        /* \"contracts/Ownerlist.sol\":856:960  function isOwner(address _owner) public view returns(bool)... */\n      swap2\n      swap1\n      pop\n      jump\t// out\n        /* \"contracts/Ownerlist.sol\":1096:1332  function addOwners(address _owner) public onlyOwner ... */\n    tag_14:\n        /* \"contracts/Ownable.sol\":328:333  owner */\n      0x00\n      dup1\n      sload\n      swap1\n      0x0100\n      exp\n      swap1\n      div\n      0xffffffffffffffffffffffffffffffffffffffff\n      and\n        /* \"contracts/Ownable.sol\":314:333  msg.sender == owner */\n      0xffffffffffffffffffffffffffffffffffffffff\n      and\n        /* \"contracts/Ownable.sol\":314:324  msg.sender */\n      caller\n        /* \"contracts/Ownable.sol\":314:333  msg.sender == owner */\n      0xffffffffffffffffffffffffffffffffffffffff\n      and\n      eq\n        /* \"contracts/Ownable.sol\":306:334  require(msg.sender == owner) */\n      tag_20\n      jumpi\n      0x00\n      dup1\n      revert\n    tag_20:\n        /* \"contracts/Ownerlist.sol\":1188:1203  isOwner(_owner) */\n      tag_22\n        /* \"contracts/Ownerlist.sol\":1196:1202  _owner */\n      dup2\n        /* \"contracts/Ownerlist.sol\":1188:1195  isOwner */\n      tag_9\n        /* \"contracts/Ownerlist.sol\":1188:1203  isOwner(_owner) */\n      jump\t// in\n    tag_22:\n        /* \"contracts/Ownerlist.sol\":1187:1203  !isOwner(_owner) */\n      iszero\n        /* \"contracts/Ownerlist.sol\":1165:1256  require(... */\n      tag_23\n      jumpi\n      mload(0x40)\n      0x08c379a000000000000000000000000000000000000000000000000000000000\n      dup2\n      mstore\n      0x04\n      add\n      tag_24\n      swap1\n      tag_25\n      jump\t// in\n    tag_24:\n      mload(0x40)\n      dup1\n      swap2\n      sub\n      swap1\n      revert\n    tag_23:\n        /* \"contracts/Ownerlist.sol\":1286:1290  true */\n      0x01\n        /* \"contracts/Ownerlist.sol\":1269:1275  owners */\n      dup1\n        /* \"contracts/Ownerlist.sol\":1269:1283  owners[_owner] */\n      0x00\n        /* \"contracts/Ownerlist.sol\":1276:1282  _owner */\n      dup4\n        /* \"contracts/Ownerlist.sol\":1269:1283  owners[_owner] */\n      0xffffffffffffffffffffffffffffffffffffffff\n      and\n      0xffffffffffffffffffffffffffffffffffffffff\n      and\n      dup2\n      mstore\n      0x20\n      add\n      swap1\n      dup2\n      mstore\n      0x20\n      add\n      0x00\n      keccak256\n      0x00\n        /* \"contracts/Ownerlist.sol\":1269:1290  owners[_owner] = true */\n      0x0100\n      exp\n      dup2\n      sload\n      dup2\n      0xff\n      mul\n      not\n      and\n      swap1\n      dup4\n      iszero\n      iszero\n      mul\n      or\n      swap1\n      sstore\n      pop\n        /* \"contracts/Ownerlist.sol\":1306:1324  OwnerAdded(_owner) */\n      0x994a936646fe87ffe4f1e469d3d6aa417d6b855598397f323de5b449f765f0c3\n        /* \"contracts/Ownerlist.sol\":1317:1323  _owner */\n      dup2\n        /* \"contracts/Ownerlist.sol\":1306:1324  OwnerAdded(_owner) */\n      mload(0x40)\n      tag_26\n      swap2\n      swap1\n      tag_27\n      jump\t// in\n    tag_26:\n      mload(0x40)\n      dup1\n      swap2\n      sub\n      swap1\n      log1\n        /* \"contracts/Ownerlist.sol\":1096:1332  function addOwners(address _owner) public onlyOwner ... */\n      pop\n      jump\t// out\n        /* \"contracts/Ownerlist.sol\":1473:1710  function removeOwners(address _owner) public onlyOwner... */\n    tag_17:\n        /* \"contracts/Ownable.sol\":328:333  owner */\n      0x00\n      dup1\n      sload\n      swap1\n      0x0100\n      exp\n      swap1\n      div\n      0xffffffffffffffffffffffffffffffffffffffff\n      and\n        /* \"contracts/Ownable.sol\":314:333  msg.sender == owner */\n      0xffffffffffffffffffffffffffffffffffffffff\n      and\n        /* \"contracts/Ownable.sol\":314:324  msg.sender */\n      caller\n        /* \"contracts/Ownable.sol\":314:333  msg.sender == owner */\n      0xffffffffffffffffffffffffffffffffffffffff\n      and\n      eq\n        /* \"contracts/Ownable.sol\":306:334  require(msg.sender == owner) */\n      tag_29\n      jumpi\n      0x00\n      dup1\n      revert\n    tag_29:\n        /* \"contracts/Ownerlist.sol\":1566:1581  isOwner(_owner) */\n      tag_31\n        /* \"contracts/Ownerlist.sol\":1574:1580  _owner */\n      dup2\n        /* \"contracts/Ownerlist.sol\":1566:1573  isOwner */\n      tag_9\n        /* \"contracts/Ownerlist.sol\":1566:1581  isOwner(_owner) */\n      jump\t// in\n    tag_31:\n        /* \"contracts/Ownerlist.sol\":1544:1632  require(... */\n      tag_32\n      jumpi\n      mload(0x40)\n      0x08c379a000000000000000000000000000000000000000000000000000000000\n      dup2\n      mstore\n      0x04\n      add\n      tag_33\n      swap1\n      tag_34\n      jump\t// in\n    tag_33:\n      mload(0x40)\n      dup1\n      swap2\n      sub\n      swap1\n      revert\n    tag_32:\n        /* \"contracts/Ownerlist.sol\":1652:1658  owners */\n      0x01\n        /* \"contracts/Ownerlist.sol\":1652:1666  owners[_owner] */\n      0x00\n        /* \"contracts/Ownerlist.sol\":1659:1665  _owner */\n      dup3\n        /* \"contracts/Ownerlist.sol\":1652:1666  owners[_owner] */\n      0xffffffffffffffffffffffffffffffffffffffff\n      and\n      0xffffffffffffffffffffffffffffffffffffffff\n      and\n      dup2\n      mstore\n      0x20\n      add\n      swap1\n      dup2\n      mstore\n      0x20\n      add\n      0x00\n      keccak256\n      0x00\n        /* \"contracts/Ownerlist.sol\":1645:1666  delete owners[_owner] */\n      0x0100\n      exp\n      dup2\n      sload\n      swap1\n      0xff\n      mul\n      not\n      and\n      swap1\n      sstore\n        /* \"contracts/Ownerlist.sol\":1682:1702  OwnerRemoved(_owner) */\n      0x58619076adf5bb0943d100ef88d52d7c3fd691b19d3a9071b555b651fbf418da\n        /* \"contracts/Ownerlist.sol\":1695:1701  _owner */\n      dup2\n        /* \"contracts/Ownerlist.sol\":1682:1702  OwnerRemoved(_owner) */\n      mload(0x40)\n      tag_35\n      swap2\n      swap1\n      tag_27\n      jump\t// in\n    tag_35:\n      mload(0x40)\n      dup1\n      swap2\n      sub\n      swap1\n      log1\n        /* \"contracts/Ownerlist.sol\":1473:1710  function removeOwners(address _owner) public onlyOwner... */\n      pop\n      jump\t// out\n        /* \"#utility.yul\":88:205   */\n    tag_37:\n        /* \"#utility.yul\":197:198   */\n      0x00\n        /* \"#utility.yul\":194:195   */\n      dup1\n        /* \"#utility.yul\":187:199   */\n      revert\n        /* \"#utility.yul\":334:460   */\n    tag_39:\n        /* \"#utility.yul\":371:378   */\n      0x00\n        /* \"#utility.yul\":411:453   */\n      0xffffffffffffffffffffffffffffffffffffffff\n        /* \"#utility.yul\":404:409   */\n      dup3\n        /* \"#utility.yul\":400:454   */\n      and\n        /* \"#utility.yul\":389:454   */\n      swap1\n      pop\n        /* \"#utility.yul\":334:460   */\n      swap2\n      swap1\n      pop\n      jump\t// out\n        /* \"#utility.yul\":466:562   */\n    tag_40:\n        /* \"#utility.yul\":503:510   */\n      0x00\n        /* \"#utility.yul\":532:556   */\n      tag_57\n        /* \"#utility.yul\":550:555   */\n      dup3\n        /* \"#utility.yul\":532:556   */\n      tag_39\n      jump\t// in\n    tag_57:\n        /* \"#utility.yul\":521:556   */\n      swap1\n      pop\n        /* \"#utility.yul\":466:562   */\n      swap2\n      swap1\n      pop\n      jump\t// out\n        /* \"#utility.yul\":568:690   */\n    tag_41:\n        /* \"#utility.yul\":641:665   */\n      tag_59\n        /* \"#utility.yul\":659:664   */\n      dup2\n        /* \"#utility.yul\":641:665   */\n      tag_40\n      jump\t// in\n    tag_59:\n        /* \"#utility.yul\":634:639   */\n      dup2\n        /* \"#utility.yul\":631:666   */\n      eq\n        /* \"#utility.yul\":621:684   */\n      tag_60\n      jumpi\n        /* \"#utility.yul\":680:681   */\n      0x00\n        /* \"#utility.yul\":677:678   */\n      dup1\n        /* \"#utility.yul\":670:682   */\n      revert\n        /* \"#utility.yul\":621:684   */\n    tag_60:\n        /* \"#utility.yul\":568:690   */\n      pop\n      jump\t// out\n        /* \"#utility.yul\":696:835   */\n    tag_42:\n        /* \"#utility.yul\":742:747   */\n      0x00\n        /* \"#utility.yul\":780:786   */\n      dup2\n        /* \"#utility.yul\":767:787   */\n      calldataload\n        /* \"#utility.yul\":758:787   */\n      swap1\n      pop\n        /* \"#utility.yul\":796:829   */\n      tag_62\n        /* \"#utility.yul\":823:828   */\n      dup2\n        /* \"#utility.yul\":796:829   */\n      tag_41\n      jump\t// in\n    tag_62:\n        /* \"#utility.yul\":696:835   */\n      swap3\n      swap2\n      pop\n      pop\n      jump\t// out\n        /* \"#utility.yul\":841:1170   */\n    tag_8:\n        /* \"#utility.yul\":900:906   */\n      0x00\n        /* \"#utility.yul\":949:951   */\n      0x20\n        /* \"#utility.yul\":937:946   */\n      dup3\n        /* \"#utility.yul\":928:935   */\n      dup5\n        /* \"#utility.yul\":924:947   */\n      sub\n        /* \"#utility.yul\":920:952   */\n      slt\n        /* \"#utility.yul\":917:1036   */\n      iszero\n      tag_64\n      jumpi\n        /* \"#utility.yul\":955:1034   */\n      tag_65\n      tag_37\n      jump\t// in\n    tag_65:\n        /* \"#utility.yul\":917:1036   */\n    tag_64:\n        /* \"#utility.yul\":1075:1076   */\n      0x00\n        /* \"#utility.yul\":1100:1153   */\n      tag_66\n        /* \"#utility.yul\":1145:1152   */\n      dup5\n        /* \"#utility.yul\":1136:1142   */\n      dup3\n        /* \"#utility.yul\":1125:1134   */\n      dup6\n        /* \"#utility.yul\":1121:1143   */\n      add\n        /* \"#utility.yul\":1100:1153   */\n      tag_42\n      jump\t// in\n    tag_66:\n        /* \"#utility.yul\":1090:1153   */\n      swap2\n      pop\n        /* \"#utility.yul\":1046:1163   */\n      pop\n        /* \"#utility.yul\":841:1170   */\n      swap3\n      swap2\n      pop\n      pop\n      jump\t// out\n        /* \"#utility.yul\":1176:1266   */\n    tag_43:\n        /* \"#utility.yul\":1210:1217   */\n      0x00\n        /* \"#utility.yul\":1253:1258   */\n      dup2\n        /* \"#utility.yul\":1246:1259   */\n      iszero\n        /* \"#utility.yul\":1239:1260   */\n      iszero\n        /* \"#utility.yul\":1228:1260   */\n      swap1\n      pop\n        /* \"#utility.yul\":1176:1266   */\n      swap2\n      swap1\n      pop\n      jump\t// out\n        /* \"#utility.yul\":1272:1381   */\n    tag_44:\n        /* \"#utility.yul\":1353:1374   */\n      tag_69\n        /* \"#utility.yul\":1368:1373   */\n      dup2\n        /* \"#utility.yul\":1353:1374   */\n      tag_43\n      jump\t// in\n    tag_69:\n        /* \"#utility.yul\":1348:1351   */\n      dup3\n        /* \"#utility.yul\":1341:1375   */\n      mstore\n        /* \"#utility.yul\":1272:1381   */\n      pop\n      pop\n      jump\t// out\n        /* \"#utility.yul\":1387:1597   */\n    tag_11:\n        /* \"#utility.yul\":1474:1478   */\n      0x00\n        /* \"#utility.yul\":1512:1514   */\n      0x20\n        /* \"#utility.yul\":1501:1510   */\n      dup3\n        /* \"#utility.yul\":1497:1515   */\n      add\n        /* \"#utility.yul\":1489:1515   */\n      swap1\n      pop\n        /* \"#utility.yul\":1525:1590   */\n      tag_71\n        /* \"#utility.yul\":1587:1588   */\n      0x00\n        /* \"#utility.yul\":1576:1585   */\n      dup4\n        /* \"#utility.yul\":1572:1589   */\n      add\n        /* \"#utility.yul\":1563:1569   */\n      dup5\n        /* \"#utility.yul\":1525:1590   */\n      tag_44\n      jump\t// in\n    tag_71:\n        /* \"#utility.yul\":1387:1597   */\n      swap3\n      swap2\n      pop\n      pop\n      jump\t// out\n        /* \"#utility.yul\":1603:1772   */\n    tag_45:\n        /* \"#utility.yul\":1687:1698   */\n      0x00\n        /* \"#utility.yul\":1721:1727   */\n      dup3\n        /* \"#utility.yul\":1716:1719   */\n      dup3\n        /* \"#utility.yul\":1709:1728   */\n      mstore\n        /* \"#utility.yul\":1761:1765   */\n      0x20\n        /* \"#utility.yul\":1756:1759   */\n      dup3\n        /* \"#utility.yul\":1752:1766   */\n      add\n        /* \"#utility.yul\":1737:1766   */\n      swap1\n      pop\n        /* \"#utility.yul\":1603:1772   */\n      swap3\n      swap2\n      pop\n      pop\n      jump\t// out\n        /* \"#utility.yul\":1778:1953   */\n    tag_46:\n        /* \"#utility.yul\":1918:1945   */\n      0x41646472657373206973206f776e657220616c72656164792e00000000000000\n        /* \"#utility.yul\":1914:1915   */\n      0x00\n        /* \"#utility.yul\":1906:1912   */\n      dup3\n        /* \"#utility.yul\":1902:1916   */\n      add\n        /* \"#utility.yul\":1895:1946   */\n      mstore\n        /* \"#utility.yul\":1778:1953   */\n      pop\n      jump\t// out\n        /* \"#utility.yul\":1959:2325   */\n    tag_47:\n        /* \"#utility.yul\":2101:2104   */\n      0x00\n        /* \"#utility.yul\":2122:2189   */\n      tag_75\n        /* \"#utility.yul\":2186:2188   */\n      0x19\n        /* \"#utility.yul\":2181:2184   */\n      dup4\n        /* \"#utility.yul\":2122:2189   */\n      tag_45\n      jump\t// in\n    tag_75:\n        /* \"#utility.yul\":2115:2189   */\n      swap2\n      pop\n        /* \"#utility.yul\":2198:2291   */\n      tag_76\n        /* \"#utility.yul\":2287:2290   */\n      dup3\n        /* \"#utility.yul\":2198:2291   */\n      tag_46\n      jump\t// in\n    tag_76:\n        /* \"#utility.yul\":2316:2318   */\n      0x20\n        /* \"#utility.yul\":2311:2314   */\n      dup3\n        /* \"#utility.yul\":2307:2319   */\n      add\n        /* \"#utility.yul\":2300:2319   */\n      swap1\n      pop\n        /* \"#utility.yul\":1959:2325   */\n      swap2\n      swap1\n      pop\n      jump\t// out\n        /* \"#utility.yul\":2331:2750   */\n    tag_25:\n        /* \"#utility.yul\":2497:2501   */\n      0x00\n        /* \"#utility.yul\":2535:2537   */\n      0x20\n        /* \"#utility.yul\":2524:2533   */\n      dup3\n        /* \"#utility.yul\":2520:2538   */\n      add\n        /* \"#utility.yul\":2512:2538   */\n      swap1\n      pop\n        /* \"#utility.yul\":2584:2593   */\n      dup2\n        /* \"#utility.yul\":2578:2582   */\n      dup2\n        /* \"#utility.yul\":2574:2594   */\n      sub\n        /* \"#utility.yul\":2570:2571   */\n      0x00\n        /* \"#utility.yul\":2559:2568   */\n      dup4\n        /* \"#utility.yul\":2555:2572   */\n      add\n        /* \"#utility.yul\":2548:2595   */\n      mstore\n        /* \"#utility.yul\":2612:2743   */\n      tag_78\n        /* \"#utility.yul\":2738:2742   */\n      dup2\n        /* \"#utility.yul\":2612:2743   */\n      tag_47\n      jump\t// in\n    tag_78:\n        /* \"#utility.yul\":2604:2743   */\n      swap1\n      pop\n        /* \"#utility.yul\":2331:2750   */\n      swap2\n      swap1\n      pop\n      jump\t// out\n        /* \"#utility.yul\":2756:2874   */\n    tag_48:\n        /* \"#utility.yul\":2843:2867   */\n      tag_80\n        /* \"#utility.yul\":2861:2866   */\n      dup2\n        /* \"#utility.yul\":2843:2867   */\n      tag_40\n      jump\t// in\n    tag_80:\n        /* \"#utility.yul\":2838:2841   */\n      dup3\n        /* \"#utility.yul\":2831:2868   */\n      mstore\n        /* \"#utility.yul\":2756:2874   */\n      pop\n      pop\n      jump\t// out\n        /* \"#utility.yul\":2880:3102   */\n    tag_27:\n        /* \"#utility.yul\":2973:2977   */\n      0x00\n        /* \"#utility.yul\":3011:3013   */\n      0x20\n        /* \"#utility.yul\":3000:3009   */\n      dup3\n        /* \"#utility.yul\":2996:3014   */\n      add\n        /* \"#utility.yul\":2988:3014   */\n      swap1\n      pop\n        /* \"#utility.yul\":3024:3095   */\n      tag_82\n        /* \"#utility.yul\":3092:3093   */\n      0x00\n        /* \"#utility.yul\":3081:3090   */\n      dup4\n        /* \"#utility.yul\":3077:3094   */\n      add\n        /* \"#utility.yul\":3068:3074   */\n      dup5\n        /* \"#utility.yul\":3024:3095   */\n      tag_48\n      jump\t// in\n    tag_82:\n        /* \"#utility.yul\":2880:3102   */\n      swap3\n      swap2\n      pop\n      pop\n      jump\t// out\n        /* \"#utility.yul\":3108:3281   */\n    tag_49:\n        /* \"#utility.yul\":3248:3273   */\n      0x4e6f74206f776e6572206f66206f776e65726c6973742e000000000000000000\n        /* \"#utility.yul\":3244:3245   */\n      0x00\n        /* \"#utility.yul\":3236:3242   */\n      dup3\n        /* \"#utility.yul\":3232:3246   */\n      add\n        /* \"#utility.yul\":3225:3274   */\n      mstore\n        /* \"#utility.yul\":3108:3281   */\n      pop\n      jump\t// out\n        /* \"#utility.yul\":3287:3653   */\n    tag_50:\n        /* \"#utility.yul\":3429:3432   */\n      0x00\n        /* \"#utility.yul\":3450:3517   */\n      tag_85\n        /* \"#utility.yul\":3514:3516   */\n      0x17\n        /* \"#utility.yul\":3509:3512   */\n      dup4\n        /* \"#utility.yul\":3450:3517   */\n      tag_45\n      jump\t// in\n    tag_85:\n        /* \"#utility.yul\":3443:3517   */\n      swap2\n      pop\n        /* \"#utility.yul\":3526:3619   */\n      tag_86\n        /* \"#utility.yul\":3615:3618   */\n      dup3\n        /* \"#utility.yul\":3526:3619   */\n      tag_49\n      jump\t// in\n    tag_86:\n        /* \"#utility.yul\":3644:3646   */\n      0x20\n        /* \"#utility.yul\":3639:3642   */\n      dup3\n        /* \"#utility.yul\":3635:3647   */\n      add\n        /* \"#utility.yul\":3628:3647   */\n      swap1\n      pop\n        /* \"#utility.yul\":3287:3653   */\n      swap2\n      swap1\n      pop\n      jump\t// out\n        /* \"#utility.yul\":3659:4078   */\n    tag_34:\n        /* \"#utility.yul\":3825:3829   */\n      0x00\n        /* \"#utility.yul\":3863:3865   */\n      0x20\n        /* \"#utility.yul\":3852:3861   */\n      dup3\n        /* \"#utility.yul\":3848:3866   */\n      add\n        /* \"#utility.yul\":3840:3866   */\n      swap1\n      pop\n        /* \"#utility.yul\":3912:3921   */\n      dup2\n        /* \"#utility.yul\":3906:3910   */\n      dup2\n        /* \"#utility.yul\":3902:3922   */\n      sub\n        /* \"#utility.yul\":3898:3899   */\n      0x00\n        /* \"#utility.yul\":3887:3896   */\n      dup4\n        /* \"#utility.yul\":3883:3900   */\n      add\n        /* \"#utility.yul\":3876:3923   */\n      mstore\n        /* \"#utility.yul\":3940:4071   */\n      tag_88\n        /* \"#utility.yul\":4066:4070   */\n      dup2\n        /* \"#utility.yul\":3940:4071   */\n      tag_50\n      jump\t// in\n    tag_88:\n        /* \"#utility.yul\":3932:4071   */\n      swap1\n      pop\n        /* \"#utility.yul\":3659:4078   */\n      swap2\n      swap1\n      pop\n      jump\t// out\n\n    auxdata: 0xa26469706673582212203009431023dcd93568c369a74450ed218c4ef4a10d5d8f67f56b5f61f632d92464736f6c634300080d0033\n}\n",
				"bytecode": {
					"linkReferences": {},
					"object": "608060405234801561001057600080fd5b50336000806101000a81548173ffffffffffffffffffffffffffffffffffffffff021916908373ffffffffffffffffffffffffffffffffffffffff16021790555061056e806100606000396000f3fe608060405234801561001057600080fd5b50600436106100415760003560e01c80632f54bf6e146100465780635f3b1f3b14610076578063b64c14fe14610092575b600080fd5b610060600480360381019061005b91906103c2565b6100ae565b60405161006d919061040a565b60405180910390f35b610090600480360381019061008b91906103c2565b610104565b005b6100ac60048036038101906100a791906103c2565b610236565b005b6000600160008373ffffffffffffffffffffffffffffffffffffffff1673ffffffffffffffffffffffffffffffffffffffff16815260200190815260200160002060009054906101000a900460ff169050919050565b60008054906101000a900473ffffffffffffffffffffffffffffffffffffffff1673ffffffffffffffffffffffffffffffffffffffff163373ffffffffffffffffffffffffffffffffffffffff161461015c57600080fd5b610165816100ae565b156101a5576040517f08c379a000000000000000000000000000000000000000000000000000000000815260040161019c90610482565b60405180910390fd5b60018060008373ffffffffffffffffffffffffffffffffffffffff1673ffffffffffffffffffffffffffffffffffffffff16815260200190815260200160002060006101000a81548160ff0219169083151502179055507f994a936646fe87ffe4f1e469d3d6aa417d6b855598397f323de5b449f765f0c38160405161022b91906104b1565b60405180910390a150565b60008054906101000a900473ffffffffffffffffffffffffffffffffffffffff1673ffffffffffffffffffffffffffffffffffffffff163373ffffffffffffffffffffffffffffffffffffffff161461028e57600080fd5b610297816100ae565b6102d6576040517f08c379a00000000000000000000000000000000000000000000000000000000081526004016102cd90610518565b60405180910390fd5b600160008273ffffffffffffffffffffffffffffffffffffffff1673ffffffffffffffffffffffffffffffffffffffff16815260200190815260200160002060006101000a81549060ff02191690557f58619076adf5bb0943d100ef88d52d7c3fd691b19d3a9071b555b651fbf418da8160405161035491906104b1565b60405180910390a150565b600080fd5b600073ffffffffffffffffffffffffffffffffffffffff82169050919050565b600061038f82610364565b9050919050565b61039f81610384565b81146103aa57600080fd5b50565b6000813590506103bc81610396565b92915050565b6000602082840312156103d8576103d761035f565b5b60006103e6848285016103ad565b91505092915050565b60008115159050919050565b610404816103ef565b82525050565b600060208201905061041f60008301846103fb565b92915050565b600082825260208201905092915050565b7f41646472657373206973206f776e657220616c72656164792e00000000000000600082015250565b600061046c601983610425565b915061047782610436565b602082019050919050565b6000602082019050818103600083015261049b8161045f565b9050919050565b6104ab81610384565b82525050565b60006020820190506104c660008301846104a2565b92915050565b7f4e6f74206f776e6572206f66206f776e65726c6973742e000000000000000000600082015250565b6000610502601783610425565b915061050d826104cc565b602082019050919050565b60006020820190508181036000830152610531816104f5565b905091905056fea26469706673582212203009431023dcd93568c369a74450ed218c4ef4a10d5d8f67f56b5f61f632d92464736f6c634300080d0033",
					"opcodes": "PUSH1 0x80 PUSH1 0x40 MSTORE CALLVALUE DUP1 ISZERO PUSH2 0x10 JUMPI PUSH1 0x0 DUP1 REVERT JUMPDEST POP CALLER PUSH1 0x0 DUP1 PUSH2 0x100 EXP DUP2 SLOAD DUP2 PUSH20 0xFFFFFFFFFFFFFFFFFFFFFFFFFFFFFFFFFFFFFFFF MUL NOT AND SWAP1 DUP4 PUSH20 0xFFFFFFFFFFFFFFFFFFFFFFFFFFFFFFFFFFFFFFFF AND MUL OR SWAP1 SSTORE POP PUSH2 0x56E DUP1 PUSH2 0x60 PUSH1 0x0 CODECOPY PUSH1 0x0 RETURN INVALID PUSH1 0x80 PUSH1 0x40 MSTORE CALLVALUE DUP1 ISZERO PUSH2 0x10 JUMPI PUSH1 0x0 DUP1 REVERT JUMPDEST POP PUSH1 0x4 CALLDATASIZE LT PUSH2 0x41 JUMPI PUSH1 0x0 CALLDATALOAD PUSH1 0xE0 SHR DUP1 PUSH4 0x2F54BF6E EQ PUSH2 0x46 JUMPI DUP1 PUSH4 0x5F3B1F3B EQ PUSH2 0x76 JUMPI DUP1 PUSH4 0xB64C14FE EQ PUSH2 0x92 JUMPI JUMPDEST PUSH1 0x0 DUP1 REVERT JUMPDEST PUSH2 0x60 PUSH1 0x4 DUP1 CALLDATASIZE SUB DUP2 ADD SWAP1 PUSH2 0x5B SWAP2 SWAP1 PUSH2 0x3C2 JUMP JUMPDEST PUSH2 0xAE JUMP JUMPDEST PUSH1 0x40 MLOAD PUSH2 0x6D SWAP2 SWAP1 PUSH2 0x40A JUMP JUMPDEST PUSH1 0x40 MLOAD DUP1 SWAP2 SUB SWAP1 RETURN JUMPDEST PUSH2 0x90 PUSH1 0x4 DUP1 CALLDATASIZE SUB DUP2 ADD SWAP1 PUSH2 0x8B SWAP2 SWAP1 PUSH2 0x3C2 JUMP JUMPDEST PUSH2 0x104 JUMP JUMPDEST STOP JUMPDEST PUSH2 0xAC PUSH1 0x4 DUP1 CALLDATASIZE SUB DUP2 ADD SWAP1 PUSH2 0xA7 SWAP2 SWAP1 PUSH2 0x3C2 JUMP JUMPDEST PUSH2 0x236 JUMP JUMPDEST STOP JUMPDEST PUSH1 0x0 PUSH1 0x1 PUSH1 0x0 DUP4 PUSH20 0xFFFFFFFFFFFFFFFFFFFFFFFFFFFFFFFFFFFFFFFF AND PUSH20 0xFFFFFFFFFFFFFFFFFFFFFFFFFFFFFFFFFFFFFFFF AND DUP2 MSTORE PUSH1 0x20 ADD SWAP1 DUP2 MSTORE PUSH1 0x20 ADD PUSH1 0x0 KECCAK256 PUSH1 0x0 SWAP1 SLOAD SWAP1 PUSH2 0x100 EXP SWAP1 DIV PUSH1 0xFF AND SWAP1 POP SWAP2 SWAP1 POP JUMP JUMPDEST PUSH1 0x0 DUP1 SLOAD SWAP1 PUSH2 0x100 EXP SWAP1 DIV PUSH20 0xFFFFFFFFFFFFFFFFFFFFFFFFFFFFFFFFFFFFFFFF AND PUSH20 0xFFFFFFFFFFFFFFFFFFFFFFFFFFFFFFFFFFFFFFFF AND CALLER PUSH20 0xFFFFFFFFFFFFFFFFFFFFFFFFFFFFFFFFFFFFFFFF AND EQ PUSH2 0x15C JUMPI PUSH1 0x0 DUP1 REVERT JUMPDEST PUSH2 0x165 DUP2 PUSH2 0xAE JUMP JUMPDEST ISZERO PUSH2 0x1A5 JUMPI PUSH1 0x40 MLOAD PUSH32 0x8C379A000000000000000000000000000000000000000000000000000000000 DUP2 MSTORE PUSH1 0x4 ADD PUSH2 0x19C SWAP1 PUSH2 0x482 JUMP JUMPDEST PUSH1 0x40 MLOAD DUP1 SWAP2 SUB SWAP1 REVERT JUMPDEST PUSH1 0x1 DUP1 PUSH1 0x0 DUP4 PUSH20 0xFFFFFFFFFFFFFFFFFFFFFFFFFFFFFFFFFFFFFFFF AND PUSH20 0xFFFFFFFFFFFFFFFFFFFFFFFFFFFFFFFFFFFFFFFF AND DUP2 MSTORE PUSH1 0x20 ADD SWAP1 DUP2 MSTORE PUSH1 0x20 ADD PUSH1 0x0 KECCAK256 PUSH1 0x0 PUSH2 0x100 EXP DUP2 SLOAD DUP2 PUSH1 0xFF MUL NOT AND SWAP1 DUP4 ISZERO ISZERO MUL OR SWAP1 SSTORE POP PUSH32 0x994A936646FE87FFE4F1E469D3D6AA417D6B855598397F323DE5B449F765F0C3 DUP2 PUSH1 0x40 MLOAD PUSH2 0x22B SWAP2 SWAP1 PUSH2 0x4B1 JUMP JUMPDEST PUSH1 0x40 MLOAD DUP1 SWAP2 SUB SWAP1 LOG1 POP JUMP JUMPDEST PUSH1 0x0 DUP1 SLOAD SWAP1 PUSH2 0x100 EXP SWAP1 DIV PUSH20 0xFFFFFFFFFFFFFFFFFFFFFFFFFFFFFFFFFFFFFFFF AND PUSH20 0xFFFFFFFFFFFFFFFFFFFFFFFFFFFFFFFFFFFFFFFF AND CALLER PUSH20 0xFFFFFFFFFFFFFFFFFFFFFFFFFFFFFFFFFFFFFFFF AND EQ PUSH2 0x28E JUMPI PUSH1 0x0 DUP1 REVERT JUMPDEST PUSH2 0x297 DUP2 PUSH2 0xAE JUMP JUMPDEST PUSH2 0x2D6 JUMPI PUSH1 0x40 MLOAD PUSH32 0x8C379A000000000000000000000000000000000000000000000000000000000 DUP2 MSTORE PUSH1 0x4 ADD PUSH2 0x2CD SWAP1 PUSH2 0x518 JUMP JUMPDEST PUSH1 0x40 MLOAD DUP1 SWAP2 SUB SWAP1 REVERT JUMPDEST PUSH1 0x1 PUSH1 0x0 DUP3 PUSH20 0xFFFFFFFFFFFFFFFFFFFFFFFFFFFFFFFFFFFFFFFF AND PUSH20 0xFFFFFFFFFFFFFFFFFFFFFFFFFFFFFFFFFFFFFFFF AND DUP2 MSTORE PUSH1 0x20 ADD SWAP1 DUP2 MSTORE PUSH1 0x20 ADD PUSH1 0x0 KECCAK256 PUSH1 0x0 PUSH2 0x100 EXP DUP2 SLOAD SWAP1 PUSH1 0xFF MUL NOT AND SWAP1 SSTORE PUSH32 0x58619076ADF5BB0943D100EF88D52D7C3FD691B19D3A9071B555B651FBF418DA DUP2 PUSH1 0x40 MLOAD PUSH2 0x354 SWAP2 SWAP1 PUSH2 0x4B1 JUMP JUMPDEST PUSH1 0x40 MLOAD DUP1 SWAP2 SUB SWAP1 LOG1 POP JUMP JUMPDEST PUSH1 0x0 DUP1 REVERT JUMPDEST PUSH1 0x0 PUSH20 0xFFFFFFFFFFFFFFFFFFFFFFFFFFFFFFFFFFFFFFFF DUP3 AND SWAP1 POP SWAP2 SWAP1 POP JUMP JUMPDEST PUSH1 0x0 PUSH2 0x38F DUP3 PUSH2 0x364 JUMP JUMPDEST SWAP1 POP SWAP2 SWAP1 POP JUMP JUMPDEST PUSH2 0x39F DUP2 PUSH2 0x384 JUMP JUMPDEST DUP2 EQ PUSH2 0x3AA JUMPI PUSH1 0x0 DUP1 REVERT JUMPDEST POP JUMP JUMPDEST PUSH1 0x0 DUP2 CALLDATALOAD SWAP1 POP PUSH2 0x3BC DUP2 PUSH2 0x396 JUMP JUMPDEST SWAP3 SWAP2 POP POP JUMP JUMPDEST PUSH1 0x0 PUSH1 0x20 DUP3 DUP5 SUB SLT ISZERO PUSH2 0x3D8 JUMPI PUSH2 0x3D7 PUSH2 0x35F JUMP JUMPDEST JUMPDEST PUSH1 0x0 PUSH2 0x3E6 DUP5 DUP3 DUP6 ADD PUSH2 0x3AD JUMP JUMPDEST SWAP2 POP POP SWAP3 SWAP2 POP POP JUMP JUMPDEST PUSH1 0x0 DUP2 ISZERO ISZERO SWAP1 POP SWAP2 SWAP1 POP JUMP JUMPDEST PUSH2 0x404 DUP2 PUSH2 0x3EF JUMP JUMPDEST DUP3 MSTORE POP POP JUMP JUMPDEST PUSH1 0x0 PUSH1 0x20 DUP3 ADD SWAP1 POP PUSH2 0x41F PUSH1 0x0 DUP4 ADD DUP5 PUSH2 0x3FB JUMP JUMPDEST SWAP3 SWAP2 POP POP JUMP JUMPDEST PUSH1 0x0 DUP3 DUP3 MSTORE PUSH1 0x20 DUP3 ADD SWAP1 POP SWAP3 SWAP2 POP POP JUMP JUMPDEST PUSH32 0x41646472657373206973206F776E657220616C72656164792E00000000000000 PUSH1 0x0 DUP3 ADD MSTORE POP JUMP JUMPDEST PUSH1 0x0 PUSH2 0x46C PUSH1 0x19 DUP4 PUSH2 0x425 JUMP JUMPDEST SWAP2 POP PUSH2 0x477 DUP3 PUSH2 0x436 JUMP JUMPDEST PUSH1 0x20 DUP3 ADD SWAP1 POP SWAP2 SWAP1 POP JUMP JUMPDEST PUSH1 0x0 PUSH1 0x20 DUP3 ADD SWAP1 POP DUP2 DUP2 SUB PUSH1 0x0 DUP4 ADD MSTORE PUSH2 0x49B DUP2 PUSH2 0x45F JUMP JUMPDEST SWAP1 POP SWAP2 SWAP1 POP JUMP JUMPDEST PUSH2 0x4AB DUP2 PUSH2 0x384 JUMP JUMPDEST DUP3 MSTORE POP POP JUMP JUMPDEST PUSH1 0x0 PUSH1 0x20 DUP3 ADD SWAP1 POP PUSH2 0x4C6 PUSH1 0x0 DUP4 ADD DUP5 PUSH2 0x4A2 JUMP JUMPDEST SWAP3 SWAP2 POP POP JUMP JUMPDEST PUSH32 0x4E6F74206F776E6572206F66206F776E65726C6973742E000000000000000000 PUSH1 0x0 DUP3 ADD MSTORE POP JUMP JUMPDEST PUSH1 0x0 PUSH2 0x502 PUSH1 0x17 DUP4 PUSH2 0x425 JUMP JUMPDEST SWAP2 POP PUSH2 0x50D DUP3 PUSH2 0x4CC JUMP JUMPDEST PUSH1 0x20 DUP3 ADD SWAP1 POP SWAP2 SWAP1 POP JUMP JUMPDEST PUSH1 0x0 PUSH1 0x20 DUP3 ADD SWAP1 POP DUP2 DUP2 SUB PUSH1 0x0 DUP4 ADD MSTORE PUSH2 0x531 DUP2 PUSH2 0x4F5 JUMP JUMPDEST SWAP1 POP SWAP2 SWAP1 POP JUMP INVALID LOG2 PUSH5 0x6970667358 0x22 SLT KECCAK256 ADDRESS MULMOD NUMBER LT 0x23 0xDC 0xD9 CALLDATALOAD PUSH9 0xC369A74450ED218C4E DELEGATECALL LOG1 0xD 0x5D DUP16 PUSH8 0xF56B5F61F632D924 PUSH5 0x736F6C6343 STOP ADDMOD 0xD STOP CALLER "
				},
				"gasEstimates": {
					"creation": {
						"codeDepositCost": "278000",
						"executionCost": "24584",
						"totalCost": "302584"
					},
					"external": {
						"addOwners(address)": "infinite",
						"isOwner(address)": "2861",
						"removeOwners(address)": "infinite"
					}
				},
				"methodIdentifiers": {
					"addOwners(address)": "5f3b1f3b",
					"isOwner(address)": "2f54bf6e",
					"removeOwners(address)": "b64c14fe"
				}
			},
			"storageLayout": {
				"storage": [
					{
						"astId": 293,
						"contract": "contracts/Ownerlist.sol:Ownerlist",
						"label": "owner",
						"offset": 0,
						"slot": "0",
						"type": "t_address"
					},
					{
						"astId": 331,
						"contract": "contracts/Ownerlist.sol:Ownerlist",
						"label": "owners",
						"offset": 0,
						"slot": "1",
						"type": "t_mapping(t_address,t_bool)"
					}
				],
				"types": {
					"t_address": {
						"encoding": "inplace",
						"label": "address",
						"numberOfBytes": "20"
					},
					"t_bool": {
						"encoding": "inplace",
						"label": "bool",
						"numberOfBytes": "1"
					},
					"t_mapping(t_address,t_bool)": {
						"encoding": "mapping",
						"key": "t_address",
						"label": "mapping(address => bool)",
						"numberOfBytes": "32",
						"value": "t_bool"
					}
				}
			},
			"userdoc": {
				"kind": "user",
				"methods": {},
				"version": 1
			}
		}
	}
}