{
	"contracts/Bank_ValueCall.sol": {
		"Bank": {
			"abi": [
				{
					"anonymous": false,
					"inputs": [
						{
							"indexed": true,
							"internalType": "uint256",
							"name": "amount",
							"type": "uint256"
						},
						{
							"indexed": true,
							"internalType": "address",
							"name": "depositedTo",
							"type": "address"
						}
					],
					"name": "deposited",
					"type": "event"
				},
				{
					"anonymous": false,
					"inputs": [
						{
							"indexed": true,
							"internalType": "address",
							"name": "from",
							"type": "address"
						},
						{
							"indexed": true,
							"internalType": "address",
							"name": "to",
							"type": "address"
						},
						{
							"indexed": true,
							"internalType": "uint256",
							"name": "amount",
							"type": "uint256"
						}
					],
					"name": "transferedAmount",
					"type": "event"
				},
				{
					"inputs": [],
					"name": "deposit",
					"outputs": [
						{
							"internalType": "uint256",
							"name": "",
							"type": "uint256"
						}
					],
					"stateMutability": "payable",
					"type": "function"
				},
				{
					"inputs": [],
					"name": "getBalance",
					"outputs": [
						{
							"internalType": "uint256",
							"name": "",
							"type": "uint256"
						}
					],
					"stateMutability": "view",
					"type": "function"
				},
				{
					"inputs": [],
					"name": "getOwner",
					"outputs": [
						{
							"internalType": "address",
							"name": "",
							"type": "address"
						}
					],
					"stateMutability": "view",
					"type": "function"
				},
				{
					"inputs": [],
					"name": "selfDestruct",
					"outputs": [],
					"stateMutability": "nonpayable",
					"type": "function"
				},
				{
					"inputs": [
						{
							"internalType": "address",
							"name": "recipient",
							"type": "address"
						},
						{
							"internalType": "uint256",
							"name": "amount",
							"type": "uint256"
						}
					],
					"name": "transfer",
					"outputs": [],
					"stateMutability": "nonpayable",
					"type": "function"
				},
				{
					"inputs": [
						{
							"internalType": "uint256",
							"name": "amount",
							"type": "uint256"
						}
					],
					"name": "withdraw",
					"outputs": [
						{
							"internalType": "uint256",
							"name": "",
							"type": "uint256"
						}
					],
					"stateMutability": "nonpayable",
					"type": "function"
				}
			],
			"devdoc": {
				"kind": "dev",
				"methods": {},
				"version": 1
			},
			"evm": {
				"assembly": "    /* \"contracts/Bank_ValueCall.sol\":271:2232  contract Bank is Ownable, Destroyable {\r... */\n  mstore(0x40, 0x80)\n    /* \"contracts/Bank_ValueCall.sol\":379:421  0xDA0bab807633f07f013f94DD0E6A4F96F8742B53 */\n  0xda0bab807633f07f013f94dd0e6a4f96f8742b53\n    /* \"contracts/Bank_ValueCall.sol\":318:422  GovernmentInterface GovernmentInstance = GovernmentInterface(0xDA0bab807633f07f013f94DD0E6A4F96F8742B53) */\n  0x01\n  exp(0x0100, 0x00)\n  dup2\n  sload\n  dup2\n  0xffffffffffffffffffffffffffffffffffffffff\n  mul\n  not\n  and\n  swap1\n  dup4\n  0xffffffffffffffffffffffffffffffffffffffff\n  and\n  mul\n  or\n  swap1\n  sstore\n  pop\n    /* \"contracts/Bank_ValueCall.sol\":271:2232  contract Bank is Ownable, Destroyable {\r... */\n  callvalue\n  dup1\n  iszero\n  tag_1\n  jumpi\n  0x00\n  dup1\n  revert\ntag_1:\n  pop\n    /* \"contracts/Inheritance_Ownable.sol\":414:424  msg.sender */\n  caller\n    /* \"contracts/Inheritance_Ownable.sol\":406:411  owner */\n  0x00\n  dup1\n    /* \"contracts/Inheritance_Ownable.sol\":406:424  owner = msg.sender */\n  0x0100\n  exp\n  dup2\n  sload\n  dup2\n  0xffffffffffffffffffffffffffffffffffffffff\n  mul\n  not\n  and\n  swap1\n  dup4\n  0xffffffffffffffffffffffffffffffffffffffff\n  and\n  mul\n  or\n  swap1\n  sstore\n  pop\n    /* \"contracts/Bank_ValueCall.sol\":271:2232  contract Bank is Ownable, Destroyable {\r... */\n  dataSize(sub_0)\n  dup1\n  dataOffset(sub_0)\n  0x00\n  codecopy\n  0x00\n  return\nstop\n\nsub_0: assembly {\n        /* \"contracts/Bank_ValueCall.sol\":271:2232  contract Bank is Ownable, Destroyable {\r... */\n      mstore(0x40, 0x80)\n      jumpi(tag_1, lt(calldatasize, 0x04))\n      shr(0xe0, calldataload(0x00))\n      dup1\n      0x12065fe0\n      eq\n      tag_2\n      jumpi\n      dup1\n      0x2e1a7d4d\n      eq\n      tag_3\n      jumpi\n      dup1\n      0x893d20e8\n      eq\n      tag_4\n      jumpi\n      dup1\n      0x9cb8a26a\n      eq\n      tag_5\n      jumpi\n      dup1\n      0xa9059cbb\n      eq\n      tag_6\n      jumpi\n      dup1\n      0xd0e30db0\n      eq\n      tag_7\n      jumpi\n    tag_1:\n      0x00\n      dup1\n      revert\n        /* \"contracts/Bank_ValueCall.sol\":1071:1164  function getBalance() public view returns (uint){\r... */\n    tag_2:\n      callvalue\n      dup1\n      iszero\n      tag_8\n      jumpi\n      0x00\n      dup1\n      revert\n    tag_8:\n      pop\n      tag_9\n      tag_10\n      jump\t// in\n    tag_9:\n      mload(0x40)\n      dup1\n      dup3\n      dup2\n      mstore\n      0x20\n      add\n      swap2\n      pop\n      pop\n      mload(0x40)\n      dup1\n      swap2\n      sub\n      swap1\n      return\n        /* \"contracts/Bank_ValueCall.sol\":1172:1445  function withdraw(uint amount) public returns (uint){\r... */\n    tag_3:\n      callvalue\n      dup1\n      iszero\n      tag_11\n      jumpi\n      0x00\n      dup1\n      revert\n    tag_11:\n      pop\n      tag_12\n      0x04\n      dup1\n      calldatasize\n      sub\n      0x20\n      dup2\n      lt\n      iszero\n      tag_13\n      jumpi\n      0x00\n      dup1\n      revert\n    tag_13:\n      dup2\n      add\n      swap1\n      dup1\n      dup1\n      calldataload\n      swap1\n      0x20\n      add\n      swap1\n      swap3\n      swap2\n      swap1\n      pop\n      pop\n      pop\n      tag_14\n      jump\t// in\n    tag_12:\n      mload(0x40)\n      dup1\n      dup3\n      dup2\n      mstore\n      0x20\n      add\n      swap2\n      pop\n      pop\n      mload(0x40)\n      dup1\n      swap2\n      sub\n      swap1\n      return\n        /* \"contracts/Bank_ValueCall.sol\":983:1063  function getOwner() public view returns (address){\r... */\n    tag_4:\n      callvalue\n      dup1\n      iszero\n      tag_15\n      jumpi\n      0x00\n      dup1\n      revert\n    tag_15:\n      pop\n      tag_16\n      tag_17\n      jump\t// in\n    tag_16:\n      mload(0x40)\n      dup1\n      dup3\n      0xffffffffffffffffffffffffffffffffffffffff\n      and\n      dup2\n      mstore\n      0x20\n      add\n      swap2\n      pop\n      pop\n      mload(0x40)\n      dup1\n      swap2\n      sub\n      swap1\n      return\n        /* \"contracts/Inheritance_Destroyable.sol\":141:225  function selfDestruct() public onlyOwner {\r... */\n    tag_5:\n      callvalue\n      dup1\n      iszero\n      tag_18\n      jumpi\n      0x00\n      dup1\n      revert\n    tag_18:\n      pop\n      tag_19\n      tag_20\n      jump\t// in\n    tag_19:\n      stop\n        /* \"contracts/Bank_ValueCall.sol\":1453:2079  function transfer(address recipient, uint amount) public {\r... */\n    tag_6:\n      callvalue\n      dup1\n      iszero\n      tag_21\n      jumpi\n      0x00\n      dup1\n      revert\n    tag_21:\n      pop\n      tag_22\n      0x04\n      dup1\n      calldatasize\n      sub\n      0x40\n      dup2\n      lt\n      iszero\n      tag_23\n      jumpi\n      0x00\n      dup1\n      revert\n    tag_23:\n      dup2\n      add\n      swap1\n      dup1\n      dup1\n      calldataload\n      0xffffffffffffffffffffffffffffffffffffffff\n      and\n      swap1\n      0x20\n      add\n      swap1\n      swap3\n      swap2\n      swap1\n      dup1\n      calldataload\n      swap1\n      0x20\n      add\n      swap1\n      swap3\n      swap2\n      swap1\n      pop\n      pop\n      pop\n      tag_24\n      jump\t// in\n    tag_22:\n      stop\n        /* \"contracts/Bank_ValueCall.sol\":660:975  function deposit() public payable returns (uint) { //\r... */\n    tag_7:\n      tag_25\n      tag_26\n      jump\t// in\n    tag_25:\n      mload(0x40)\n      dup1\n      dup3\n      dup2\n      mstore\n      0x20\n      add\n      swap2\n      pop\n      pop\n      mload(0x40)\n      dup1\n      swap2\n      sub\n      swap1\n      return\n        /* \"contracts/Bank_ValueCall.sol\":1071:1164  function getBalance() public view returns (uint){\r... */\n    tag_10:\n        /* \"contracts/Bank_ValueCall.sol\":1114:1118  uint */\n      0x00\n        /* \"contracts/Bank_ValueCall.sol\":1137:1144  balance */\n      0x02\n        /* \"contracts/Bank_ValueCall.sol\":1137:1156  balance[msg.sender] */\n      0x00\n        /* \"contracts/Bank_ValueCall.sol\":1145:1155  msg.sender */\n      caller\n        /* \"contracts/Bank_ValueCall.sol\":1137:1156  balance[msg.sender] */\n      0xffffffffffffffffffffffffffffffffffffffff\n      and\n      0xffffffffffffffffffffffffffffffffffffffff\n      and\n      dup2\n      mstore\n      0x20\n      add\n      swap1\n      dup2\n      mstore\n      0x20\n      add\n      0x00\n      keccak256\n      sload\n        /* \"contracts/Bank_ValueCall.sol\":1130:1156  return balance[msg.sender] */\n      swap1\n      pop\n        /* \"contracts/Bank_ValueCall.sol\":1071:1164  function getBalance() public view returns (uint){\r... */\n      swap1\n      jump\t// out\n        /* \"contracts/Bank_ValueCall.sol\":1172:1445  function withdraw(uint amount) public returns (uint){\r... */\n    tag_14:\n        /* \"contracts/Bank_ValueCall.sol\":1219:1223  uint */\n      0x00\n        /* \"contracts/Bank_ValueCall.sol\":1265:1271  amount */\n      dup2\n        /* \"contracts/Bank_ValueCall.sol\":1243:1250  balance */\n      0x02\n        /* \"contracts/Bank_ValueCall.sol\":1243:1262  balance[msg.sender] */\n      0x00\n        /* \"contracts/Bank_ValueCall.sol\":1251:1261  msg.sender */\n      caller\n        /* \"contracts/Bank_ValueCall.sol\":1243:1262  balance[msg.sender] */\n      0xffffffffffffffffffffffffffffffffffffffff\n      and\n      0xffffffffffffffffffffffffffffffffffffffff\n      and\n      dup2\n      mstore\n      0x20\n      add\n      swap1\n      dup2\n      mstore\n      0x20\n      add\n      0x00\n      keccak256\n      sload\n        /* \"contracts/Bank_ValueCall.sol\":1243:1271  balance[msg.sender]>= amount */\n      lt\n      iszero\n        /* \"contracts/Bank_ValueCall.sol\":1235:1322  require(balance[msg.sender]>= amount,\"ERROR 1_Insufficient balance to withdraw funds.\") */\n      tag_29\n      jumpi\n      mload(0x40)\n      0x08c379a000000000000000000000000000000000000000000000000000000000\n      dup2\n      mstore\n      0x04\n      add\n      dup1\n      dup1\n      0x20\n      add\n      dup3\n      dup2\n      sub\n      dup3\n      mstore\n      0x2f\n      dup2\n      mstore\n      0x20\n      add\n      dup1\n      data_e7558a26104f46415543b237a510079f28126af9e966622ad41d19f93659c16f\n      0x2f\n      swap2\n      codecopy\n      0x40\n      add\n      swap2\n      pop\n      pop\n      mload(0x40)\n      dup1\n      swap2\n      sub\n      swap1\n      revert\n    tag_29:\n        /* \"contracts/Bank_ValueCall.sol\":1333:1343  msg.sender */\n      caller\n        /* \"contracts/Bank_ValueCall.sol\":1333:1352  msg.sender.transfer */\n      0xffffffffffffffffffffffffffffffffffffffff\n      and\n        /* \"contracts/Bank_ValueCall.sol\":1333:1360  msg.sender.transfer(amount) */\n      0x08fc\n        /* \"contracts/Bank_ValueCall.sol\":1353:1359  amount */\n      dup4\n        /* \"contracts/Bank_ValueCall.sol\":1333:1360  msg.sender.transfer(amount) */\n      swap1\n      dup2\n      iszero\n      mul\n      swap1\n      mload(0x40)\n      0x00\n      mload(0x40)\n      dup1\n      dup4\n      sub\n      dup2\n      dup6\n      dup9\n      dup9\n      call\n      swap4\n      pop\n      pop\n      pop\n      pop\n      iszero\n      dup1\n      iszero\n      tag_31\n      jumpi\n      returndatasize\n      0x00\n      dup1\n      returndatacopy\n      revert(0x00, returndatasize)\n    tag_31:\n      pop\n        /* \"contracts/Bank_ValueCall.sol\":1394:1400  amount */\n      dup2\n        /* \"contracts/Bank_ValueCall.sol\":1371:1378  balance */\n      0x02\n        /* \"contracts/Bank_ValueCall.sol\":1371:1390  balance[msg.sender] */\n      0x00\n        /* \"contracts/Bank_ValueCall.sol\":1379:1389  msg.sender */\n      caller\n        /* \"contracts/Bank_ValueCall.sol\":1371:1390  balance[msg.sender] */\n      0xffffffffffffffffffffffffffffffffffffffff\n      and\n      0xffffffffffffffffffffffffffffffffffffffff\n      and\n      dup2\n      mstore\n      0x20\n      add\n      swap1\n      dup2\n      mstore\n      0x20\n      add\n      0x00\n      keccak256\n      0x00\n        /* \"contracts/Bank_ValueCall.sol\":1371:1400  balance[msg.sender] -= amount */\n      dup3\n      dup3\n      sload\n      sub\n      swap3\n      pop\n      pop\n      dup2\n      swap1\n      sstore\n      pop\n        /* \"contracts/Bank_ValueCall.sol\":1418:1425  balance */\n      0x02\n        /* \"contracts/Bank_ValueCall.sol\":1418:1437  balance[msg.sender] */\n      0x00\n        /* \"contracts/Bank_ValueCall.sol\":1426:1436  msg.sender */\n      caller\n        /* \"contracts/Bank_ValueCall.sol\":1418:1437  balance[msg.sender] */\n      0xffffffffffffffffffffffffffffffffffffffff\n      and\n      0xffffffffffffffffffffffffffffffffffffffff\n      and\n      dup2\n      mstore\n      0x20\n      add\n      swap1\n      dup2\n      mstore\n      0x20\n      add\n      0x00\n      keccak256\n      sload\n        /* \"contracts/Bank_ValueCall.sol\":1411:1437  return balance[msg.sender] */\n      swap1\n      pop\n        /* \"contracts/Bank_ValueCall.sol\":1172:1445  function withdraw(uint amount) public returns (uint){\r... */\n      swap2\n      swap1\n      pop\n      jump\t// out\n        /* \"contracts/Bank_ValueCall.sol\":983:1063  function getOwner() public view returns (address){\r... */\n    tag_17:\n        /* \"contracts/Bank_ValueCall.sol\":1024:1031  address */\n      0x00\n        /* \"contracts/Bank_ValueCall.sol\":1050:1055  owner */\n      dup1\n      0x00\n      swap1\n      sload\n      swap1\n      0x0100\n      exp\n      swap1\n      div\n      0xffffffffffffffffffffffffffffffffffffffff\n      and\n        /* \"contracts/Bank_ValueCall.sol\":1043:1055  return owner */\n      swap1\n      pop\n        /* \"contracts/Bank_ValueCall.sol\":983:1063  function getOwner() public view returns (address){\r... */\n      swap1\n      jump\t// out\n        /* \"contracts/Inheritance_Destroyable.sol\":141:225  function selfDestruct() public onlyOwner {\r... */\n    tag_20:\n        /* \"contracts/Inheritance_Ownable.sol\":308:313  owner */\n      0x00\n      dup1\n      sload\n      swap1\n      0x0100\n      exp\n      swap1\n      div\n      0xffffffffffffffffffffffffffffffffffffffff\n      and\n        /* \"contracts/Inheritance_Ownable.sol\":294:313  msg.sender == owner */\n      0xffffffffffffffffffffffffffffffffffffffff\n      and\n        /* \"contracts/Inheritance_Ownable.sol\":294:304  msg.sender */\n      caller\n        /* \"contracts/Inheritance_Ownable.sol\":294:313  msg.sender == owner */\n      0xffffffffffffffffffffffffffffffffffffffff\n      and\n      eq\n        /* \"contracts/Inheritance_Ownable.sol\":286:314  require(msg.sender == owner) */\n      tag_34\n      jumpi\n      0x00\n      dup1\n      revert\n    tag_34:\n        /* \"contracts/Inheritance_Destroyable.sol\":206:216  msg.sender */\n      caller\n        /* \"contracts/Inheritance_Destroyable.sol\":193:217  selfdestruct(msg.sender) */\n      0xffffffffffffffffffffffffffffffffffffffff\n      and\n      selfdestruct\n        /* \"contracts/Bank_ValueCall.sol\":1453:2079  function transfer(address recipient, uint amount) public {\r... */\n    tag_24:\n        /* \"contracts/Bank_ValueCall.sol\":1551:1557  amount */\n      dup1\n        /* \"contracts/Bank_ValueCall.sol\":1529:1536  balance */\n      0x02\n        /* \"contracts/Bank_ValueCall.sol\":1529:1548  balance[msg.sender] */\n      0x00\n        /* \"contracts/Bank_ValueCall.sol\":1537:1547  msg.sender */\n      caller\n        /* \"contracts/Bank_ValueCall.sol\":1529:1548  balance[msg.sender] */\n      0xffffffffffffffffffffffffffffffffffffffff\n      and\n      0xffffffffffffffffffffffffffffffffffffffff\n      and\n      dup2\n      mstore\n      0x20\n      add\n      swap1\n      dup2\n      mstore\n      0x20\n      add\n      0x00\n      keccak256\n      sload\n        /* \"contracts/Bank_ValueCall.sol\":1529:1557  balance[msg.sender]>= amount */\n      lt\n      iszero\n        /* \"contracts/Bank_ValueCall.sol\":1521:1608  require(balance[msg.sender]>= amount,\"ERROR 1_Insufficient balance to transfer funds.\") */\n      tag_37\n      jumpi\n      mload(0x40)\n      0x08c379a000000000000000000000000000000000000000000000000000000000\n      dup2\n      mstore\n      0x04\n      add\n      dup1\n      dup1\n      0x20\n      add\n      dup3\n      dup2\n      sub\n      dup3\n      mstore\n      0x2f\n      dup2\n      mstore\n      0x20\n      add\n      dup1\n      data_6a70830ced58f74c86b863ffddd5d53455873485dd197faddf5ca28ae61cf024\n      0x2f\n      swap2\n      codecopy\n      0x40\n      add\n      swap2\n      pop\n      pop\n      mload(0x40)\n      dup1\n      swap2\n      sub\n      swap1\n      revert\n    tag_37:\n        /* \"contracts/Bank_ValueCall.sol\":1672:1681  recipient */\n      dup2\n        /* \"contracts/Bank_ValueCall.sol\":1658:1681  msg.sender != recipient */\n      0xffffffffffffffffffffffffffffffffffffffff\n      and\n        /* \"contracts/Bank_ValueCall.sol\":1658:1668  msg.sender */\n      caller\n        /* \"contracts/Bank_ValueCall.sol\":1658:1681  msg.sender != recipient */\n      0xffffffffffffffffffffffffffffffffffffffff\n      and\n      eq\n      iszero\n        /* \"contracts/Bank_ValueCall.sol\":1650:1728  require(msg.sender != recipient,\"ERROR 2_The sender cannot be the recipient.\") */\n      tag_38\n      jumpi\n      mload(0x40)\n      0x08c379a000000000000000000000000000000000000000000000000000000000\n      dup2\n      mstore\n      0x04\n      add\n      dup1\n      dup1\n      0x20\n      add\n      dup3\n      dup2\n      sub\n      dup3\n      mstore\n      0x2b\n      dup2\n      mstore\n      0x20\n      add\n      dup1\n      data_3244fa6158537cdf3b6921cdccfd3ee34a32c36f253701f7dc896f392f78cf71\n      0x2b\n      swap2\n      codecopy\n      0x40\n      add\n      swap2\n      pop\n      pop\n      mload(0x40)\n      dup1\n      swap2\n      sub\n      swap1\n      revert\n    tag_38:\n        /* \"contracts/Bank_ValueCall.sol\":1741:1767  uint previousSenderBalance */\n      0x00\n        /* \"contracts/Bank_ValueCall.sol\":1770:1777  balance */\n      0x02\n        /* \"contracts/Bank_ValueCall.sol\":1770:1789  balance[msg.sender] */\n      0x00\n        /* \"contracts/Bank_ValueCall.sol\":1778:1788  msg.sender */\n      caller\n        /* \"contracts/Bank_ValueCall.sol\":1770:1789  balance[msg.sender] */\n      0xffffffffffffffffffffffffffffffffffffffff\n      and\n      0xffffffffffffffffffffffffffffffffffffffff\n      and\n      dup2\n      mstore\n      0x20\n      add\n      swap1\n      dup2\n      mstore\n      0x20\n      add\n      0x00\n      keccak256\n      sload\n        /* \"contracts/Bank_ValueCall.sol\":1741:1789  uint previousSenderBalance = balance[msg.sender] */\n      swap1\n      pop\n        /* \"contracts/Bank_ValueCall.sol\":1800:1841  _transfer (msg.sender, recipient, amount) */\n      tag_39\n        /* \"contracts/Bank_ValueCall.sol\":1811:1821  msg.sender */\n      caller\n        /* \"contracts/Bank_ValueCall.sol\":1823:1832  recipient */\n      dup5\n        /* \"contracts/Bank_ValueCall.sol\":1834:1840  amount */\n      dup5\n        /* \"contracts/Bank_ValueCall.sol\":1800:1809  _transfer */\n      tag_40\n        /* \"contracts/Bank_ValueCall.sol\":1800:1841  _transfer (msg.sender, recipient, amount) */\n      jump\t// in\n    tag_39:\n        /* \"contracts/Bank_ValueCall.sol\":1899:1905  amount */\n      dup2\n        /* \"contracts/Bank_ValueCall.sol\":1888:1897  recipient */\n      dup4\n        /* \"contracts/Bank_ValueCall.sol\":1859:1906  transferedAmount(msg.sender, recipient, amount) */\n      0xffffffffffffffffffffffffffffffffffffffff\n      and\n        /* \"contracts/Bank_ValueCall.sol\":1876:1886  msg.sender */\n      caller\n        /* \"contracts/Bank_ValueCall.sol\":1859:1906  transferedAmount(msg.sender, recipient, amount) */\n      0xffffffffffffffffffffffffffffffffffffffff\n      and\n      0x3573881c639e018e0c3ba3a7d19063f6a7a8205d54eb828319a7f98db00426a0\n      mload(0x40)\n      mload(0x40)\n      dup1\n      swap2\n      sub\n      swap1\n      log4\n        /* \"contracts/Bank_ValueCall.sol\":1932:1950  GovernmentInstance */\n      0x01\n      0x00\n      swap1\n      sload\n      swap1\n      0x0100\n      exp\n      swap1\n      div\n      0xffffffffffffffffffffffffffffffffffffffff\n      and\n        /* \"contracts/Bank_ValueCall.sol\":1932:1965  GovernmentInstance.addTransaction */\n      0xffffffffffffffffffffffffffffffffffffffff\n      and\n      0xfe73b27f\n        /* \"contracts/Bank_ValueCall.sol\":1966:1976  msg.sender */\n      caller\n        /* \"contracts/Bank_ValueCall.sol\":1978:1987  recipient */\n      dup6\n        /* \"contracts/Bank_ValueCall.sol\":1989:1995  amount */\n      dup6\n        /* \"contracts/Bank_ValueCall.sol\":1932:1996  GovernmentInstance.addTransaction(msg.sender, recipient, amount) */\n      mload(0x40)\n      dup5\n      0xffffffff\n      and\n      0xe0\n      shl\n      dup2\n      mstore\n      0x04\n      add\n      dup1\n      dup5\n      0xffffffffffffffffffffffffffffffffffffffff\n      and\n      dup2\n      mstore\n      0x20\n      add\n      dup4\n      0xffffffffffffffffffffffffffffffffffffffff\n      and\n      dup2\n      mstore\n      0x20\n      add\n      dup3\n      dup2\n      mstore\n      0x20\n      add\n      swap4\n      pop\n      pop\n      pop\n      pop\n      0x00\n      mload(0x40)\n      dup1\n      dup4\n      sub\n      dup2\n      0x00\n      dup8\n      dup1\n      extcodesize\n      iszero\n      dup1\n      iszero\n      tag_41\n      jumpi\n      0x00\n      dup1\n      revert\n    tag_41:\n      pop\n      gas\n      call\n      iszero\n      dup1\n      iszero\n      tag_43\n      jumpi\n      returndatasize\n      0x00\n      dup1\n      returndatacopy\n      revert(0x00, returndatasize)\n    tag_43:\n      pop\n      pop\n      pop\n      pop\n        /* \"contracts/Bank_ValueCall.sol\":2063:2069  amount */\n      dup2\n        /* \"contracts/Bank_ValueCall.sol\":2039:2060  previousSenderBalance */\n      dup2\n        /* \"contracts/Bank_ValueCall.sol\":2039:2069  previousSenderBalance - amount */\n      sub\n        /* \"contracts/Bank_ValueCall.sol\":2016:2023  balance */\n      0x02\n        /* \"contracts/Bank_ValueCall.sol\":2016:2035  balance[msg.sender] */\n      0x00\n        /* \"contracts/Bank_ValueCall.sol\":2024:2034  msg.sender */\n      caller\n        /* \"contracts/Bank_ValueCall.sol\":2016:2035  balance[msg.sender] */\n      0xffffffffffffffffffffffffffffffffffffffff\n      and\n      0xffffffffffffffffffffffffffffffffffffffff\n      and\n      dup2\n      mstore\n      0x20\n      add\n      swap1\n      dup2\n      mstore\n      0x20\n      add\n      0x00\n      keccak256\n      sload\n        /* \"contracts/Bank_ValueCall.sol\":2016:2069  balance[msg.sender] == previousSenderBalance - amount */\n      eq\n        /* \"contracts/Bank_ValueCall.sol\":2009:2070  assert(balance[msg.sender] == previousSenderBalance - amount) */\n      tag_44\n      jumpi\n      invalid\n    tag_44:\n        /* \"contracts/Bank_ValueCall.sol\":1453:2079  function transfer(address recipient, uint amount) public {\r... */\n      pop\n      pop\n      pop\n      jump\t// out\n        /* \"contracts/Bank_ValueCall.sol\":660:975  function deposit() public payable returns (uint) { //\r... */\n    tag_26:\n        /* \"contracts/Bank_ValueCall.sol\":703:707  uint */\n      0x00\n        /* \"contracts/Bank_ValueCall.sol\":746:755  msg.value */\n      callvalue\n        /* \"contracts/Bank_ValueCall.sol\":723:730  balance */\n      0x02\n        /* \"contracts/Bank_ValueCall.sol\":723:742  balance[msg.sender] */\n      0x00\n        /* \"contracts/Bank_ValueCall.sol\":731:741  msg.sender */\n      caller\n        /* \"contracts/Bank_ValueCall.sol\":723:742  balance[msg.sender] */\n      0xffffffffffffffffffffffffffffffffffffffff\n      and\n      0xffffffffffffffffffffffffffffffffffffffff\n      and\n      dup2\n      mstore\n      0x20\n      add\n      swap1\n      dup2\n      mstore\n      0x20\n      add\n      0x00\n      keccak256\n      0x00\n        /* \"contracts/Bank_ValueCall.sol\":723:755  balance[msg.sender] += msg.value */\n      dup3\n      dup3\n      sload\n      add\n      swap3\n      pop\n      pop\n      dup2\n      swap1\n      sstore\n      pop\n        /* \"contracts/Bank_ValueCall.sol\":902:912  msg.sender */\n      caller\n        /* \"contracts/Bank_ValueCall.sol\":880:913  deposited (msg.value, msg.sender) */\n      0xffffffffffffffffffffffffffffffffffffffff\n      and\n        /* \"contracts/Bank_ValueCall.sol\":891:900  msg.value */\n      callvalue\n        /* \"contracts/Bank_ValueCall.sol\":880:913  deposited (msg.value, msg.sender) */\n      0xa23831066066ec8812cc52afc91a52134a8b50c9209b68c276be679f4073d95d\n      mload(0x40)\n      mload(0x40)\n      dup1\n      swap2\n      sub\n      swap1\n      log3\n        /* \"contracts/Bank_ValueCall.sol\":948:955  balance */\n      0x02\n        /* \"contracts/Bank_ValueCall.sol\":948:967  balance[msg.sender] */\n      0x00\n        /* \"contracts/Bank_ValueCall.sol\":956:966  msg.sender */\n      caller\n        /* \"contracts/Bank_ValueCall.sol\":948:967  balance[msg.sender] */\n      0xffffffffffffffffffffffffffffffffffffffff\n      and\n      0xffffffffffffffffffffffffffffffffffffffff\n      and\n      dup2\n      mstore\n      0x20\n      add\n      swap1\n      dup2\n      mstore\n      0x20\n      add\n      0x00\n      keccak256\n      sload\n        /* \"contracts/Bank_ValueCall.sol\":941:967  return balance[msg.sender] */\n      swap1\n      pop\n        /* \"contracts/Bank_ValueCall.sol\":660:975  function deposit() public payable returns (uint) { //\r... */\n      swap1\n      jump\t// out\n        /* \"contracts/Bank_ValueCall.sol\":2087:2227  function _transfer(address from, address to, uint amount) private {\r... */\n    tag_40:\n        /* \"contracts/Bank_ValueCall.sol\":2181:2187  amount */\n      dup1\n        /* \"contracts/Bank_ValueCall.sol\":2164:2171  balance */\n      0x02\n        /* \"contracts/Bank_ValueCall.sol\":2164:2177  balance[from] */\n      0x00\n        /* \"contracts/Bank_ValueCall.sol\":2172:2176  from */\n      dup6\n        /* \"contracts/Bank_ValueCall.sol\":2164:2177  balance[from] */\n      0xffffffffffffffffffffffffffffffffffffffff\n      and\n      0xffffffffffffffffffffffffffffffffffffffff\n      and\n      dup2\n      mstore\n      0x20\n      add\n      swap1\n      dup2\n      mstore\n      0x20\n      add\n      0x00\n      keccak256\n      0x00\n        /* \"contracts/Bank_ValueCall.sol\":2164:2187  balance[from] -= amount */\n      dup3\n      dup3\n      sload\n      sub\n      swap3\n      pop\n      pop\n      dup2\n      swap1\n      sstore\n      pop\n        /* \"contracts/Bank_ValueCall.sol\":2213:2219  amount */\n      dup1\n        /* \"contracts/Bank_ValueCall.sol\":2198:2205  balance */\n      0x02\n        /* \"contracts/Bank_ValueCall.sol\":2198:2209  balance[to] */\n      0x00\n        /* \"contracts/Bank_ValueCall.sol\":2206:2208  to */\n      dup5\n        /* \"contracts/Bank_ValueCall.sol\":2198:2209  balance[to] */\n      0xffffffffffffffffffffffffffffffffffffffff\n      and\n      0xffffffffffffffffffffffffffffffffffffffff\n      and\n      dup2\n      mstore\n      0x20\n      add\n      swap1\n      dup2\n      mstore\n      0x20\n      add\n      0x00\n      keccak256\n      0x00\n        /* \"contracts/Bank_ValueCall.sol\":2198:2219  balance[to] += amount */\n      dup3\n      dup3\n      sload\n      add\n      swap3\n      pop\n      pop\n      dup2\n      swap1\n      sstore\n      pop\n        /* \"contracts/Bank_ValueCall.sol\":2087:2227  function _transfer(address from, address to, uint amount) private {\r... */\n      pop\n      pop\n      pop\n      jump\t// out\n    stop\n    data_3244fa6158537cdf3b6921cdccfd3ee34a32c36f253701f7dc896f392f78cf71 4552524f5220325f5468652073656e6465722063616e6e6f742062652074686520726563697069656e742e\n    data_6a70830ced58f74c86b863ffddd5d53455873485dd197faddf5ca28ae61cf024 4552524f5220315f496e73756666696369656e742062616c616e636520746f207472616e736665722066756e64732e\n    data_e7558a26104f46415543b237a510079f28126af9e966622ad41d19f93659c16f 4552524f5220315f496e73756666696369656e742062616c616e636520746f2077697468647261772066756e64732e\n\n    auxdata: 0xa26469706673582212204438f18c457037006b7172437c9b536cad5f4e09c58c07cbf80b5df77f61502264736f6c63430007050033\n}\n",
				"bytecode": {
					"linkReferences": {},
					"object": "608060405273da0bab807633f07f013f94dd0e6a4f96f8742b53600160006101000a81548173ffffffffffffffffffffffffffffffffffffffff021916908373ffffffffffffffffffffffffffffffffffffffff16021790555034801561006557600080fd5b50336000806101000a81548173ffffffffffffffffffffffffffffffffffffffff021916908373ffffffffffffffffffffffffffffffffffffffff160217905550610910806100b56000396000f3fe6080604052600436106100555760003560e01c806312065fe01461005a5780632e1a7d4d14610085578063893d20e8146100d45780639cb8a26a14610115578063a9059cbb1461012c578063d0e30db014610187575b600080fd5b34801561006657600080fd5b5061006f6101a5565b6040518082815260200191505060405180910390f35b34801561009157600080fd5b506100be600480360360208110156100a857600080fd5b81019080803590602001909291905050506101ec565b6040518082815260200191505060405180910390f35b3480156100e057600080fd5b506100e9610361565b604051808273ffffffffffffffffffffffffffffffffffffffff16815260200191505060405180910390f35b34801561012157600080fd5b5061012a61038a565b005b34801561013857600080fd5b506101856004803603604081101561014f57600080fd5b81019080803573ffffffffffffffffffffffffffffffffffffffff169060200190929190803590602001909291905050506103fb565b005b61018f6106da565b6040518082815260200191505060405180910390f35b6000600260003373ffffffffffffffffffffffffffffffffffffffff1673ffffffffffffffffffffffffffffffffffffffff16815260200190815260200160002054905090565b600081600260003373ffffffffffffffffffffffffffffffffffffffff1673ffffffffffffffffffffffffffffffffffffffff168152602001908152602001600020541015610286576040517f08c379a000000000000000000000000000000000000000000000000000000000815260040180806020018281038252602f8152602001806108ac602f913960400191505060405180910390fd5b3373ffffffffffffffffffffffffffffffffffffffff166108fc839081150290604051600060405180830381858888f193505050501580156102cc573d6000803e3d6000fd5b5081600260003373ffffffffffffffffffffffffffffffffffffffff1673ffffffffffffffffffffffffffffffffffffffff16815260200190815260200160002060008282540392505081905550600260003373ffffffffffffffffffffffffffffffffffffffff1673ffffffffffffffffffffffffffffffffffffffff168152602001908152602001600020549050919050565b60008060009054906101000a900473ffffffffffffffffffffffffffffffffffffffff16905090565b60008054906101000a900473ffffffffffffffffffffffffffffffffffffffff1673ffffffffffffffffffffffffffffffffffffffff163373ffffffffffffffffffffffffffffffffffffffff16146103e257600080fd5b3373ffffffffffffffffffffffffffffffffffffffff16ff5b80600260003373ffffffffffffffffffffffffffffffffffffffff1673ffffffffffffffffffffffffffffffffffffffff168152602001908152602001600020541015610493576040517f08c379a000000000000000000000000000000000000000000000000000000000815260040180806020018281038252602f81526020018061087d602f913960400191505060405180910390fd5b8173ffffffffffffffffffffffffffffffffffffffff163373ffffffffffffffffffffffffffffffffffffffff161415610518576040517f08c379a000000000000000000000000000000000000000000000000000000000815260040180806020018281038252602b815260200180610852602b913960400191505060405180910390fd5b6000600260003373ffffffffffffffffffffffffffffffffffffffff1673ffffffffffffffffffffffffffffffffffffffff1681526020019081526020016000205490506105673384846107b2565b818373ffffffffffffffffffffffffffffffffffffffff163373ffffffffffffffffffffffffffffffffffffffff167f3573881c639e018e0c3ba3a7d19063f6a7a8205d54eb828319a7f98db00426a060405160405180910390a4600160009054906101000a900473ffffffffffffffffffffffffffffffffffffffff1673ffffffffffffffffffffffffffffffffffffffff1663fe73b27f3385856040518463ffffffff1660e01b8152600401808473ffffffffffffffffffffffffffffffffffffffff1681526020018373ffffffffffffffffffffffffffffffffffffffff1681526020018281526020019350505050600060405180830381600087803b15801561067357600080fd5b505af1158015610687573d6000803e3d6000fd5b50505050818103600260003373ffffffffffffffffffffffffffffffffffffffff1673ffffffffffffffffffffffffffffffffffffffff16815260200190815260200160002054146106d557fe5b505050565b600034600260003373ffffffffffffffffffffffffffffffffffffffff1673ffffffffffffffffffffffffffffffffffffffff168152602001908152602001600020600082825401925050819055503373ffffffffffffffffffffffffffffffffffffffff16347fa23831066066ec8812cc52afc91a52134a8b50c9209b68c276be679f4073d95d60405160405180910390a3600260003373ffffffffffffffffffffffffffffffffffffffff1673ffffffffffffffffffffffffffffffffffffffff16815260200190815260200160002054905090565b80600260008573ffffffffffffffffffffffffffffffffffffffff1673ffffffffffffffffffffffffffffffffffffffff1681526020019081526020016000206000828254039250508190555080600260008473ffffffffffffffffffffffffffffffffffffffff1673ffffffffffffffffffffffffffffffffffffffff1681526020019081526020016000206000828254019250508190555050505056fe4552524f5220325f5468652073656e6465722063616e6e6f742062652074686520726563697069656e742e4552524f5220315f496e73756666696369656e742062616c616e636520746f207472616e736665722066756e64732e4552524f5220315f496e73756666696369656e742062616c616e636520746f2077697468647261772066756e64732ea26469706673582212204438f18c457037006b7172437c9b536cad5f4e09c58c07cbf80b5df77f61502264736f6c63430007050033",
					"opcodes": "PUSH1 0x80 PUSH1 0x40 MSTORE PUSH20 0xDA0BAB807633F07F013F94DD0E6A4F96F8742B53 PUSH1 0x1 PUSH1 0x0 PUSH2 0x100 EXP DUP2 SLOAD DUP2 PUSH20 0xFFFFFFFFFFFFFFFFFFFFFFFFFFFFFFFFFFFFFFFF MUL NOT AND SWAP1 DUP4 PUSH20 0xFFFFFFFFFFFFFFFFFFFFFFFFFFFFFFFFFFFFFFFF AND MUL OR SWAP1 SSTORE POP CALLVALUE DUP1 ISZERO PUSH2 0x65 JUMPI PUSH1 0x0 DUP1 REVERT JUMPDEST POP CALLER PUSH1 0x0 DUP1 PUSH2 0x100 EXP DUP2 SLOAD DUP2 PUSH20 0xFFFFFFFFFFFFFFFFFFFFFFFFFFFFFFFFFFFFFFFF MUL NOT AND SWAP1 DUP4 PUSH20 0xFFFFFFFFFFFFFFFFFFFFFFFFFFFFFFFFFFFFFFFF AND MUL OR SWAP1 SSTORE POP PUSH2 0x910 DUP1 PUSH2 0xB5 PUSH1 0x0 CODECOPY PUSH1 0x0 RETURN INVALID PUSH1 0x80 PUSH1 0x40 MSTORE PUSH1 0x4 CALLDATASIZE LT PUSH2 0x55 JUMPI PUSH1 0x0 CALLDATALOAD PUSH1 0xE0 SHR DUP1 PUSH4 0x12065FE0 EQ PUSH2 0x5A JUMPI DUP1 PUSH4 0x2E1A7D4D EQ PUSH2 0x85 JUMPI DUP1 PUSH4 0x893D20E8 EQ PUSH2 0xD4 JUMPI DUP1 PUSH4 0x9CB8A26A EQ PUSH2 0x115 JUMPI DUP1 PUSH4 0xA9059CBB EQ PUSH2 0x12C JUMPI DUP1 PUSH4 0xD0E30DB0 EQ PUSH2 0x187 JUMPI JUMPDEST PUSH1 0x0 DUP1 REVERT JUMPDEST CALLVALUE DUP1 ISZERO PUSH2 0x66 JUMPI PUSH1 0x0 DUP1 REVERT JUMPDEST POP PUSH2 0x6F PUSH2 0x1A5 JUMP JUMPDEST PUSH1 0x40 MLOAD DUP1 DUP3 DUP2 MSTORE PUSH1 0x20 ADD SWAP2 POP POP PUSH1 0x40 MLOAD DUP1 SWAP2 SUB SWAP1 RETURN JUMPDEST CALLVALUE DUP1 ISZERO PUSH2 0x91 JUMPI PUSH1 0x0 DUP1 REVERT JUMPDEST POP PUSH2 0xBE PUSH1 0x4 DUP1 CALLDATASIZE SUB PUSH1 0x20 DUP2 LT ISZERO PUSH2 0xA8 JUMPI PUSH1 0x0 DUP1 REVERT JUMPDEST DUP2 ADD SWAP1 DUP1 DUP1 CALLDATALOAD SWAP1 PUSH1 0x20 ADD SWAP1 SWAP3 SWAP2 SWAP1 POP POP POP PUSH2 0x1EC JUMP JUMPDEST PUSH1 0x40 MLOAD DUP1 DUP3 DUP2 MSTORE PUSH1 0x20 ADD SWAP2 POP POP PUSH1 0x40 MLOAD DUP1 SWAP2 SUB SWAP1 RETURN JUMPDEST CALLVALUE DUP1 ISZERO PUSH2 0xE0 JUMPI PUSH1 0x0 DUP1 REVERT JUMPDEST POP PUSH2 0xE9 PUSH2 0x361 JUMP JUMPDEST PUSH1 0x40 MLOAD DUP1 DUP3 PUSH20 0xFFFFFFFFFFFFFFFFFFFFFFFFFFFFFFFFFFFFFFFF AND DUP2 MSTORE PUSH1 0x20 ADD SWAP2 POP POP PUSH1 0x40 MLOAD DUP1 SWAP2 SUB SWAP1 RETURN JUMPDEST CALLVALUE DUP1 ISZERO PUSH2 0x121 JUMPI PUSH1 0x0 DUP1 REVERT JUMPDEST POP PUSH2 0x12A PUSH2 0x38A JUMP JUMPDEST STOP JUMPDEST CALLVALUE DUP1 ISZERO PUSH2 0x138 JUMPI PUSH1 0x0 DUP1 REVERT JUMPDEST POP PUSH2 0x185 PUSH1 0x4 DUP1 CALLDATASIZE SUB PUSH1 0x40 DUP2 LT ISZERO PUSH2 0x14F JUMPI PUSH1 0x0 DUP1 REVERT JUMPDEST DUP2 ADD SWAP1 DUP1 DUP1 CALLDATALOAD PUSH20 0xFFFFFFFFFFFFFFFFFFFFFFFFFFFFFFFFFFFFFFFF AND SWAP1 PUSH1 0x20 ADD SWAP1 SWAP3 SWAP2 SWAP1 DUP1 CALLDATALOAD SWAP1 PUSH1 0x20 ADD SWAP1 SWAP3 SWAP2 SWAP1 POP POP POP PUSH2 0x3FB JUMP JUMPDEST STOP JUMPDEST PUSH2 0x18F PUSH2 0x6DA JUMP JUMPDEST PUSH1 0x40 MLOAD DUP1 DUP3 DUP2 MSTORE PUSH1 0x20 ADD SWAP2 POP POP PUSH1 0x40 MLOAD DUP1 SWAP2 SUB SWAP1 RETURN JUMPDEST PUSH1 0x0 PUSH1 0x2 PUSH1 0x0 CALLER PUSH20 0xFFFFFFFFFFFFFFFFFFFFFFFFFFFFFFFFFFFFFFFF AND PUSH20 0xFFFFFFFFFFFFFFFFFFFFFFFFFFFFFFFFFFFFFFFF AND DUP2 MSTORE PUSH1 0x20 ADD SWAP1 DUP2 MSTORE PUSH1 0x20 ADD PUSH1 0x0 KECCAK256 SLOAD SWAP1 POP SWAP1 JUMP JUMPDEST PUSH1 0x0 DUP2 PUSH1 0x2 PUSH1 0x0 CALLER PUSH20 0xFFFFFFFFFFFFFFFFFFFFFFFFFFFFFFFFFFFFFFFF AND PUSH20 0xFFFFFFFFFFFFFFFFFFFFFFFFFFFFFFFFFFFFFFFF AND DUP2 MSTORE PUSH1 0x20 ADD SWAP1 DUP2 MSTORE PUSH1 0x20 ADD PUSH1 0x0 KECCAK256 SLOAD LT ISZERO PUSH2 0x286 JUMPI PUSH1 0x40 MLOAD PUSH32 0x8C379A000000000000000000000000000000000000000000000000000000000 DUP2 MSTORE PUSH1 0x4 ADD DUP1 DUP1 PUSH1 0x20 ADD DUP3 DUP2 SUB DUP3 MSTORE PUSH1 0x2F DUP2 MSTORE PUSH1 0x20 ADD DUP1 PUSH2 0x8AC PUSH1 0x2F SWAP2 CODECOPY PUSH1 0x40 ADD SWAP2 POP POP PUSH1 0x40 MLOAD DUP1 SWAP2 SUB SWAP1 REVERT JUMPDEST CALLER PUSH20 0xFFFFFFFFFFFFFFFFFFFFFFFFFFFFFFFFFFFFFFFF AND PUSH2 0x8FC DUP4 SWAP1 DUP2 ISZERO MUL SWAP1 PUSH1 0x40 MLOAD PUSH1 0x0 PUSH1 0x40 MLOAD DUP1 DUP4 SUB DUP2 DUP6 DUP9 DUP9 CALL SWAP4 POP POP POP POP ISZERO DUP1 ISZERO PUSH2 0x2CC JUMPI RETURNDATASIZE PUSH1 0x0 DUP1 RETURNDATACOPY RETURNDATASIZE PUSH1 0x0 REVERT JUMPDEST POP DUP2 PUSH1 0x2 PUSH1 0x0 CALLER PUSH20 0xFFFFFFFFFFFFFFFFFFFFFFFFFFFFFFFFFFFFFFFF AND PUSH20 0xFFFFFFFFFFFFFFFFFFFFFFFFFFFFFFFFFFFFFFFF AND DUP2 MSTORE PUSH1 0x20 ADD SWAP1 DUP2 MSTORE PUSH1 0x20 ADD PUSH1 0x0 KECCAK256 PUSH1 0x0 DUP3 DUP3 SLOAD SUB SWAP3 POP POP DUP2 SWAP1 SSTORE POP PUSH1 0x2 PUSH1 0x0 CALLER PUSH20 0xFFFFFFFFFFFFFFFFFFFFFFFFFFFFFFFFFFFFFFFF AND PUSH20 0xFFFFFFFFFFFFFFFFFFFFFFFFFFFFFFFFFFFFFFFF AND DUP2 MSTORE PUSH1 0x20 ADD SWAP1 DUP2 MSTORE PUSH1 0x20 ADD PUSH1 0x0 KECCAK256 SLOAD SWAP1 POP SWAP2 SWAP1 POP JUMP JUMPDEST PUSH1 0x0 DUP1 PUSH1 0x0 SWAP1 SLOAD SWAP1 PUSH2 0x100 EXP SWAP1 DIV PUSH20 0xFFFFFFFFFFFFFFFFFFFFFFFFFFFFFFFFFFFFFFFF AND SWAP1 POP SWAP1 JUMP JUMPDEST PUSH1 0x0 DUP1 SLOAD SWAP1 PUSH2 0x100 EXP SWAP1 DIV PUSH20 0xFFFFFFFFFFFFFFFFFFFFFFFFFFFFFFFFFFFFFFFF AND PUSH20 0xFFFFFFFFFFFFFFFFFFFFFFFFFFFFFFFFFFFFFFFF AND CALLER PUSH20 0xFFFFFFFFFFFFFFFFFFFFFFFFFFFFFFFFFFFFFFFF AND EQ PUSH2 0x3E2 JUMPI PUSH1 0x0 DUP1 REVERT JUMPDEST CALLER PUSH20 0xFFFFFFFFFFFFFFFFFFFFFFFFFFFFFFFFFFFFFFFF AND SELFDESTRUCT JUMPDEST DUP1 PUSH1 0x2 PUSH1 0x0 CALLER PUSH20 0xFFFFFFFFFFFFFFFFFFFFFFFFFFFFFFFFFFFFFFFF AND PUSH20 0xFFFFFFFFFFFFFFFFFFFFFFFFFFFFFFFFFFFFFFFF AND DUP2 MSTORE PUSH1 0x20 ADD SWAP1 DUP2 MSTORE PUSH1 0x20 ADD PUSH1 0x0 KECCAK256 SLOAD LT ISZERO PUSH2 0x493 JUMPI PUSH1 0x40 MLOAD PUSH32 0x8C379A000000000000000000000000000000000000000000000000000000000 DUP2 MSTORE PUSH1 0x4 ADD DUP1 DUP1 PUSH1 0x20 ADD DUP3 DUP2 SUB DUP3 MSTORE PUSH1 0x2F DUP2 MSTORE PUSH1 0x20 ADD DUP1 PUSH2 0x87D PUSH1 0x2F SWAP2 CODECOPY PUSH1 0x40 ADD SWAP2 POP POP PUSH1 0x40 MLOAD DUP1 SWAP2 SUB SWAP1 REVERT JUMPDEST DUP2 PUSH20 0xFFFFFFFFFFFFFFFFFFFFFFFFFFFFFFFFFFFFFFFF AND CALLER PUSH20 0xFFFFFFFFFFFFFFFFFFFFFFFFFFFFFFFFFFFFFFFF AND EQ ISZERO PUSH2 0x518 JUMPI PUSH1 0x40 MLOAD PUSH32 0x8C379A000000000000000000000000000000000000000000000000000000000 DUP2 MSTORE PUSH1 0x4 ADD DUP1 DUP1 PUSH1 0x20 ADD DUP3 DUP2 SUB DUP3 MSTORE PUSH1 0x2B DUP2 MSTORE PUSH1 0x20 ADD DUP1 PUSH2 0x852 PUSH1 0x2B SWAP2 CODECOPY PUSH1 0x40 ADD SWAP2 POP POP PUSH1 0x40 MLOAD DUP1 SWAP2 SUB SWAP1 REVERT JUMPDEST PUSH1 0x0 PUSH1 0x2 PUSH1 0x0 CALLER PUSH20 0xFFFFFFFFFFFFFFFFFFFFFFFFFFFFFFFFFFFFFFFF AND PUSH20 0xFFFFFFFFFFFFFFFFFFFFFFFFFFFFFFFFFFFFFFFF AND DUP2 MSTORE PUSH1 0x20 ADD SWAP1 DUP2 MSTORE PUSH1 0x20 ADD PUSH1 0x0 KECCAK256 SLOAD SWAP1 POP PUSH2 0x567 CALLER DUP5 DUP5 PUSH2 0x7B2 JUMP JUMPDEST DUP2 DUP4 PUSH20 0xFFFFFFFFFFFFFFFFFFFFFFFFFFFFFFFFFFFFFFFF AND CALLER PUSH20 0xFFFFFFFFFFFFFFFFFFFFFFFFFFFFFFFFFFFFFFFF AND PUSH32 0x3573881C639E018E0C3BA3A7D19063F6A7A8205D54EB828319A7F98DB00426A0 PUSH1 0x40 MLOAD PUSH1 0x40 MLOAD DUP1 SWAP2 SUB SWAP1 LOG4 PUSH1 0x1 PUSH1 0x0 SWAP1 SLOAD SWAP1 PUSH2 0x100 EXP SWAP1 DIV PUSH20 0xFFFFFFFFFFFFFFFFFFFFFFFFFFFFFFFFFFFFFFFF AND PUSH20 0xFFFFFFFFFFFFFFFFFFFFFFFFFFFFFFFFFFFFFFFF AND PUSH4 0xFE73B27F CALLER DUP6 DUP6 PUSH1 0x40 MLOAD DUP5 PUSH4 0xFFFFFFFF AND PUSH1 0xE0 SHL DUP2 MSTORE PUSH1 0x4 ADD DUP1 DUP5 PUSH20 0xFFFFFFFFFFFFFFFFFFFFFFFFFFFFFFFFFFFFFFFF AND DUP2 MSTORE PUSH1 0x20 ADD DUP4 PUSH20 0xFFFFFFFFFFFFFFFFFFFFFFFFFFFFFFFFFFFFFFFF AND DUP2 MSTORE PUSH1 0x20 ADD DUP3 DUP2 MSTORE PUSH1 0x20 ADD SWAP4 POP POP POP POP PUSH1 0x0 PUSH1 0x40 MLOAD DUP1 DUP4 SUB DUP2 PUSH1 0x0 DUP8 DUP1 EXTCODESIZE ISZERO DUP1 ISZERO PUSH2 0x673 JUMPI PUSH1 0x0 DUP1 REVERT JUMPDEST POP GAS CALL ISZERO DUP1 ISZERO PUSH2 0x687 JUMPI RETURNDATASIZE PUSH1 0x0 DUP1 RETURNDATACOPY RETURNDATASIZE PUSH1 0x0 REVERT JUMPDEST POP POP POP POP DUP2 DUP2 SUB PUSH1 0x2 PUSH1 0x0 CALLER PUSH20 0xFFFFFFFFFFFFFFFFFFFFFFFFFFFFFFFFFFFFFFFF AND PUSH20 0xFFFFFFFFFFFFFFFFFFFFFFFFFFFFFFFFFFFFFFFF AND DUP2 MSTORE PUSH1 0x20 ADD SWAP1 DUP2 MSTORE PUSH1 0x20 ADD PUSH1 0x0 KECCAK256 SLOAD EQ PUSH2 0x6D5 JUMPI INVALID JUMPDEST POP POP POP JUMP JUMPDEST PUSH1 0x0 CALLVALUE PUSH1 0x2 PUSH1 0x0 CALLER PUSH20 0xFFFFFFFFFFFFFFFFFFFFFFFFFFFFFFFFFFFFFFFF AND PUSH20 0xFFFFFFFFFFFFFFFFFFFFFFFFFFFFFFFFFFFFFFFF AND DUP2 MSTORE PUSH1 0x20 ADD SWAP1 DUP2 MSTORE PUSH1 0x20 ADD PUSH1 0x0 KECCAK256 PUSH1 0x0 DUP3 DUP3 SLOAD ADD SWAP3 POP POP DUP2 SWAP1 SSTORE POP CALLER PUSH20 0xFFFFFFFFFFFFFFFFFFFFFFFFFFFFFFFFFFFFFFFF AND CALLVALUE PUSH32 0xA23831066066EC8812CC52AFC91A52134A8B50C9209B68C276BE679F4073D95D PUSH1 0x40 MLOAD PUSH1 0x40 MLOAD DUP1 SWAP2 SUB SWAP1 LOG3 PUSH1 0x2 PUSH1 0x0 CALLER PUSH20 0xFFFFFFFFFFFFFFFFFFFFFFFFFFFFFFFFFFFFFFFF AND PUSH20 0xFFFFFFFFFFFFFFFFFFFFFFFFFFFFFFFFFFFFFFFF AND DUP2 MSTORE PUSH1 0x20 ADD SWAP1 DUP2 MSTORE PUSH1 0x20 ADD PUSH1 0x0 KECCAK256 SLOAD SWAP1 POP SWAP1 JUMP JUMPDEST DUP1 PUSH1 0x2 PUSH1 0x0 DUP6 PUSH20 0xFFFFFFFFFFFFFFFFFFFFFFFFFFFFFFFFFFFFFFFF AND PUSH20 0xFFFFFFFFFFFFFFFFFFFFFFFFFFFFFFFFFFFFFFFF AND DUP2 MSTORE PUSH1 0x20 ADD SWAP1 DUP2 MSTORE PUSH1 0x20 ADD PUSH1 0x0 KECCAK256 PUSH1 0x0 DUP3 DUP3 SLOAD SUB SWAP3 POP POP DUP2 SWAP1 SSTORE POP DUP1 PUSH1 0x2 PUSH1 0x0 DUP5 PUSH20 0xFFFFFFFFFFFFFFFFFFFFFFFFFFFFFFFFFFFFFFFF AND PUSH20 0xFFFFFFFFFFFFFFFFFFFFFFFFFFFFFFFFFFFFFFFF AND DUP2 MSTORE PUSH1 0x20 ADD SWAP1 DUP2 MSTORE PUSH1 0x20 ADD PUSH1 0x0 KECCAK256 PUSH1 0x0 DUP3 DUP3 SLOAD ADD SWAP3 POP POP DUP2 SWAP1 SSTORE POP POP POP POP JUMP INVALID GASLIMIT MSTORE MSTORE 0x4F MSTORE KECCAK256 ORIGIN 0x5F SLOAD PUSH9 0x652073656E64657220 PUSH4 0x616E6E6F PUSH21 0x2062652074686520726563697069656E742E455252 0x4F MSTORE KECCAK256 BALANCE 0x5F 0x49 PUSH15 0x73756666696369656E742062616C61 PUSH15 0x636520746F207472616E7366657220 PUSH7 0x756E64732E4552 MSTORE 0x4F MSTORE KECCAK256 BALANCE 0x5F 0x49 PUSH15 0x73756666696369656E742062616C61 PUSH15 0x636520746F20776974686472617720 PUSH7 0x756E64732EA264 PUSH10 0x706673582212204438F1 DUP13 GASLIMIT PUSH17 0x37006B7172437C9B536CAD5F4E09C58C07 0xCB 0xF8 SIGNEXTEND 0x5D 0xF7 PUSH32 0x61502264736F6C63430007050033000000000000000000000000000000000000 "
				},
				"gasEstimates": {
					"creation": {
						"codeDepositCost": "464000",
						"executionCost": "42232",
						"totalCost": "506232"
					},
					"external": {
						"deposit()": "23624",
						"getBalance()": "1080",
						"getOwner()": "1077",
						"selfDestruct()": "31054",
						"transfer(address,uint256)": "infinite",
						"withdraw(uint256)": "infinite"
					},
					"internal": {
						"_transfer(address,address,uint256)": "41867"
					}
				},
				"methodIdentifiers": {
					"deposit()": "d0e30db0",
					"getBalance()": "12065fe0",
					"getOwner()": "893d20e8",
					"selfDestruct()": "9cb8a26a",
					"transfer(address,uint256)": "a9059cbb",
					"withdraw(uint256)": "2e1a7d4d"
				}
			},
			"storageLayout": {
				"storage": [
					{
						"astId": 234,
						"contract": "contracts/Bank_ValueCall.sol:Bank",
						"label": "owner",
						"offset": 0,
						"slot": "0",
						"type": "t_address"
					},
					{
						"astId": 22,
						"contract": "contracts/Bank_ValueCall.sol:Bank",
						"label": "GovernmentInstance",
						"offset": 0,
						"slot": "1",
						"type": "t_contract(GovernmentInterface)13"
					},
					{
						"astId": 26,
						"contract": "contracts/Bank_ValueCall.sol:Bank",
						"label": "balance",
						"offset": 0,
						"slot": "2",
						"type": "t_mapping(t_address,t_uint256)"
					}
				],
				"types": {
					"t_address": {
						"encoding": "inplace",
						"label": "address",
						"numberOfBytes": "20"
					},
					"t_contract(GovernmentInterface)13": {
						"encoding": "inplace",
						"label": "contract GovernmentInterface",
						"numberOfBytes": "20"
					},
					"t_mapping(t_address,t_uint256)": {
						"encoding": "mapping",
						"key": "t_address",
						"label": "mapping(address => uint256)",
						"numberOfBytes": "32",
						"value": "t_uint256"
					},
					"t_uint256": {
						"encoding": "inplace",
						"label": "uint256",
						"numberOfBytes": "32"
					}
				}
			},
			"userdoc": {
				"kind": "user",
				"methods": {},
				"version": 1
			}
		}
	}
}