{
	"contracts/Bank_Payable-Functions.sol": {
		"Bank_Payable": {
			"abi": [
				{
					"inputs": [],
					"stateMutability": "nonpayable",
					"type": "constructor"
				},
				{
					"anonymous": false,
					"inputs": [
						{
							"indexed": true,
							"internalType": "uint256",
							"name": "amount",
							"type": "uint256"
						},
						{
							"indexed": true,
							"internalType": "address",
							"name": "depositedTo",
							"type": "address"
						}
					],
					"name": "deposited",
					"type": "event"
				},
				{
					"anonymous": false,
					"inputs": [
						{
							"indexed": true,
							"internalType": "address",
							"name": "from",
							"type": "address"
						},
						{
							"indexed": true,
							"internalType": "address",
							"name": "to",
							"type": "address"
						},
						{
							"indexed": true,
							"internalType": "uint256",
							"name": "amount",
							"type": "uint256"
						}
					],
					"name": "transferedAmount",
					"type": "event"
				},
				{
					"inputs": [],
					"name": "deposit",
					"outputs": [
						{
							"internalType": "uint256",
							"name": "",
							"type": "uint256"
						}
					],
					"stateMutability": "payable",
					"type": "function"
				},
				{
					"inputs": [],
					"name": "getBalance",
					"outputs": [
						{
							"internalType": "uint256",
							"name": "",
							"type": "uint256"
						}
					],
					"stateMutability": "view",
					"type": "function"
				},
				{
					"inputs": [
						{
							"internalType": "address",
							"name": "recipient",
							"type": "address"
						},
						{
							"internalType": "uint256",
							"name": "amount",
							"type": "uint256"
						}
					],
					"name": "transfer",
					"outputs": [],
					"stateMutability": "nonpayable",
					"type": "function"
				}
			],
			"devdoc": {
				"kind": "dev",
				"methods": {},
				"version": 1
			},
			"evm": {
				"assembly": "    /* \"contracts/Bank_Payable-Functions.sol\":25:1748  contract Bank_Payable{... */\n  mstore(0x40, 0x80)\n    /* \"contracts/Bank_Payable-Functions.sol\":544:595  constructor(){... */\n  callvalue\n  dup1\n  iszero\n  tag_1\n  jumpi\n  0x00\n  dup1\n  revert\ntag_1:\n  pop\n    /* \"contracts/Bank_Payable-Functions.sol\":576:586  msg.sender */\n  caller\n    /* \"contracts/Bank_Payable-Functions.sol\":568:573  owner */\n  0x01\n  0x00\n    /* \"contracts/Bank_Payable-Functions.sol\":568:586  owner = msg.sender */\n  0x0100\n  exp\n  dup2\n  sload\n  dup2\n  0xffffffffffffffffffffffffffffffffffffffff\n  mul\n  not\n  and\n  swap1\n  dup4\n  0xffffffffffffffffffffffffffffffffffffffff\n  and\n  mul\n  or\n  swap1\n  sstore\n  pop\n    /* \"contracts/Bank_Payable-Functions.sol\":25:1748  contract Bank_Payable{... */\n  dataSize(sub_0)\n  dup1\n  dataOffset(sub_0)\n  0x00\n  codecopy\n  0x00\n  return\nstop\n\nsub_0: assembly {\n        /* \"contracts/Bank_Payable-Functions.sol\":25:1748  contract Bank_Payable{... */\n      mstore(0x40, 0x80)\n      jumpi(tag_1, lt(calldatasize, 0x04))\n      shr(0xe0, calldataload(0x00))\n      dup1\n      0x12065fe0\n      eq\n      tag_2\n      jumpi\n      dup1\n      0xa9059cbb\n      eq\n      tag_3\n      jumpi\n      dup1\n      0xd0e30db0\n      eq\n      tag_4\n      jumpi\n    tag_1:\n      0x00\n      dup1\n      revert\n        /* \"contracts/Bank_Payable-Functions.sol\":924:1018  function getBalance () public view returns (uint){... */\n    tag_2:\n      callvalue\n      dup1\n      iszero\n      tag_5\n      jumpi\n      0x00\n      dup1\n      revert\n    tag_5:\n      pop\n      tag_6\n      tag_7\n      jump\t// in\n    tag_6:\n      mload(0x40)\n      tag_8\n      swap2\n      swap1\n      tag_9\n      jump\t// in\n    tag_8:\n      mload(0x40)\n      dup1\n      swap2\n      sub\n      swap1\n      return\n        /* \"contracts/Bank_Payable-Functions.sol\":1026:1595  function transfer(address recipient, uint amount) public {... */\n    tag_3:\n      callvalue\n      dup1\n      iszero\n      tag_10\n      jumpi\n      0x00\n      dup1\n      revert\n    tag_10:\n      pop\n      tag_11\n      0x04\n      dup1\n      calldatasize\n      sub\n      dup2\n      add\n      swap1\n      tag_12\n      swap2\n      swap1\n      tag_13\n      jump\t// in\n    tag_12:\n      tag_14\n      jump\t// in\n    tag_11:\n      stop\n        /* \"contracts/Bank_Payable-Functions.sol\":603:916  function deposit () public payable returns (uint){ ... */\n    tag_4:\n      tag_15\n      tag_16\n      jump\t// in\n    tag_15:\n      mload(0x40)\n      tag_17\n      swap2\n      swap1\n      tag_9\n      jump\t// in\n    tag_17:\n      mload(0x40)\n      dup1\n      swap2\n      sub\n      swap1\n      return\n        /* \"contracts/Bank_Payable-Functions.sol\":924:1018  function getBalance () public view returns (uint){... */\n    tag_7:\n        /* \"contracts/Bank_Payable-Functions.sol\":968:972  uint */\n      0x00\n        /* \"contracts/Bank_Payable-Functions.sol\":991:998  balance */\n      dup1\n        /* \"contracts/Bank_Payable-Functions.sol\":991:1010  balance[msg.sender] */\n      0x00\n        /* \"contracts/Bank_Payable-Functions.sol\":999:1009  msg.sender */\n      caller\n        /* \"contracts/Bank_Payable-Functions.sol\":991:1010  balance[msg.sender] */\n      0xffffffffffffffffffffffffffffffffffffffff\n      and\n      0xffffffffffffffffffffffffffffffffffffffff\n      and\n      dup2\n      mstore\n      0x20\n      add\n      swap1\n      dup2\n      mstore\n      0x20\n      add\n      0x00\n      keccak256\n      sload\n        /* \"contracts/Bank_Payable-Functions.sol\":984:1010  return balance[msg.sender] */\n      swap1\n      pop\n        /* \"contracts/Bank_Payable-Functions.sol\":924:1018  function getBalance () public view returns (uint){... */\n      swap1\n      jump\t// out\n        /* \"contracts/Bank_Payable-Functions.sol\":1026:1595  function transfer(address recipient, uint amount) public {... */\n    tag_14:\n        /* \"contracts/Bank_Payable-Functions.sol\":1124:1130  amount */\n      dup1\n        /* \"contracts/Bank_Payable-Functions.sol\":1102:1109  balance */\n      0x00\n        /* \"contracts/Bank_Payable-Functions.sol\":1102:1121  balance[msg.sender] */\n      dup1\n        /* \"contracts/Bank_Payable-Functions.sol\":1110:1120  msg.sender */\n      caller\n        /* \"contracts/Bank_Payable-Functions.sol\":1102:1121  balance[msg.sender] */\n      0xffffffffffffffffffffffffffffffffffffffff\n      and\n      0xffffffffffffffffffffffffffffffffffffffff\n      and\n      dup2\n      mstore\n      0x20\n      add\n      swap1\n      dup2\n      mstore\n      0x20\n      add\n      0x00\n      keccak256\n      sload\n        /* \"contracts/Bank_Payable-Functions.sol\":1102:1130  balance[msg.sender]>= amount */\n      lt\n      iszero\n        /* \"contracts/Bank_Payable-Functions.sol\":1094:1181  require(balance[msg.sender]>= amount,\"ERROR 1_Insufficient balance to transfer funds.\") */\n      tag_20\n      jumpi\n      mload(0x40)\n      0x08c379a000000000000000000000000000000000000000000000000000000000\n      dup2\n      mstore\n      0x04\n      add\n      tag_21\n      swap1\n      tag_22\n      jump\t// in\n    tag_21:\n      mload(0x40)\n      dup1\n      swap2\n      sub\n      swap1\n      revert\n    tag_20:\n        /* \"contracts/Bank_Payable-Functions.sol\":1245:1254  recipient */\n      dup2\n        /* \"contracts/Bank_Payable-Functions.sol\":1231:1254  msg.sender != recipient */\n      0xffffffffffffffffffffffffffffffffffffffff\n      and\n        /* \"contracts/Bank_Payable-Functions.sol\":1231:1241  msg.sender */\n      caller\n        /* \"contracts/Bank_Payable-Functions.sol\":1231:1254  msg.sender != recipient */\n      0xffffffffffffffffffffffffffffffffffffffff\n      and\n      sub\n        /* \"contracts/Bank_Payable-Functions.sol\":1223:1301  require(msg.sender != recipient,\"ERROR 2_The sender cannot be the recipient.\") */\n      tag_23\n      jumpi\n      mload(0x40)\n      0x08c379a000000000000000000000000000000000000000000000000000000000\n      dup2\n      mstore\n      0x04\n      add\n      tag_24\n      swap1\n      tag_25\n      jump\t// in\n    tag_24:\n      mload(0x40)\n      dup1\n      swap2\n      sub\n      swap1\n      revert\n    tag_23:\n        /* \"contracts/Bank_Payable-Functions.sol\":1314:1340  uint previousSenderBalance */\n      0x00\n        /* \"contracts/Bank_Payable-Functions.sol\":1343:1350  balance */\n      dup1\n        /* \"contracts/Bank_Payable-Functions.sol\":1343:1362  balance[msg.sender] */\n      0x00\n        /* \"contracts/Bank_Payable-Functions.sol\":1351:1361  msg.sender */\n      caller\n        /* \"contracts/Bank_Payable-Functions.sol\":1343:1362  balance[msg.sender] */\n      0xffffffffffffffffffffffffffffffffffffffff\n      and\n      0xffffffffffffffffffffffffffffffffffffffff\n      and\n      dup2\n      mstore\n      0x20\n      add\n      swap1\n      dup2\n      mstore\n      0x20\n      add\n      0x00\n      keccak256\n      sload\n        /* \"contracts/Bank_Payable-Functions.sol\":1314:1362  uint previousSenderBalance = balance[msg.sender] */\n      swap1\n      pop\n        /* \"contracts/Bank_Payable-Functions.sol\":1373:1414  _transfer (msg.sender, recipient, amount) */\n      tag_26\n        /* \"contracts/Bank_Payable-Functions.sol\":1384:1394  msg.sender */\n      caller\n        /* \"contracts/Bank_Payable-Functions.sol\":1396:1405  recipient */\n      dup5\n        /* \"contracts/Bank_Payable-Functions.sol\":1407:1413  amount */\n      dup5\n        /* \"contracts/Bank_Payable-Functions.sol\":1373:1382  _transfer */\n      tag_27\n        /* \"contracts/Bank_Payable-Functions.sol\":1373:1414  _transfer (msg.sender, recipient, amount) */\n      jump\t// in\n    tag_26:\n        /* \"contracts/Bank_Payable-Functions.sol\":1472:1478  amount */\n      dup2\n        /* \"contracts/Bank_Payable-Functions.sol\":1461:1470  recipient */\n      dup4\n        /* \"contracts/Bank_Payable-Functions.sol\":1432:1479  transferedAmount(msg.sender, recipient, amount) */\n      0xffffffffffffffffffffffffffffffffffffffff\n      and\n        /* \"contracts/Bank_Payable-Functions.sol\":1449:1459  msg.sender */\n      caller\n        /* \"contracts/Bank_Payable-Functions.sol\":1432:1479  transferedAmount(msg.sender, recipient, amount) */\n      0xffffffffffffffffffffffffffffffffffffffff\n      and\n      0x3573881c639e018e0c3ba3a7d19063f6a7a8205d54eb828319a7f98db00426a0\n      mload(0x40)\n      mload(0x40)\n      dup1\n      swap2\n      sub\n      swap1\n      log4\n        /* \"contracts/Bank_Payable-Functions.sol\":1557:1563  amount */\n      dup2\n        /* \"contracts/Bank_Payable-Functions.sol\":1533:1554  previousSenderBalance */\n      dup2\n        /* \"contracts/Bank_Payable-Functions.sol\":1533:1563  previousSenderBalance - amount */\n      tag_28\n      swap2\n      swap1\n      tag_29\n      jump\t// in\n    tag_28:\n        /* \"contracts/Bank_Payable-Functions.sol\":1510:1517  balance */\n      0x00\n        /* \"contracts/Bank_Payable-Functions.sol\":1510:1529  balance[msg.sender] */\n      dup1\n        /* \"contracts/Bank_Payable-Functions.sol\":1518:1528  msg.sender */\n      caller\n        /* \"contracts/Bank_Payable-Functions.sol\":1510:1529  balance[msg.sender] */\n      0xffffffffffffffffffffffffffffffffffffffff\n      and\n      0xffffffffffffffffffffffffffffffffffffffff\n      and\n      dup2\n      mstore\n      0x20\n      add\n      swap1\n      dup2\n      mstore\n      0x20\n      add\n      0x00\n      keccak256\n      sload\n        /* \"contracts/Bank_Payable-Functions.sol\":1510:1563  balance[msg.sender] == previousSenderBalance - amount */\n      eq\n        /* \"contracts/Bank_Payable-Functions.sol\":1503:1564  assert(balance[msg.sender] == previousSenderBalance - amount) */\n      tag_30\n      jumpi\n      tag_31\n      tag_32\n      jump\t// in\n    tag_31:\n    tag_30:\n        /* \"contracts/Bank_Payable-Functions.sol\":1083:1595  {... */\n      pop\n        /* \"contracts/Bank_Payable-Functions.sol\":1026:1595  function transfer(address recipient, uint amount) public {... */\n      pop\n      pop\n      jump\t// out\n        /* \"contracts/Bank_Payable-Functions.sol\":603:916  function deposit () public payable returns (uint){ ... */\n    tag_16:\n        /* \"contracts/Bank_Payable-Functions.sol\":647:651  uint */\n      0x00\n        /* \"contracts/Bank_Payable-Functions.sol\":687:696  msg.value */\n      callvalue\n        /* \"contracts/Bank_Payable-Functions.sol\":664:671  balance */\n      0x00\n        /* \"contracts/Bank_Payable-Functions.sol\":664:683  balance[msg.sender] */\n      dup1\n        /* \"contracts/Bank_Payable-Functions.sol\":672:682  msg.sender */\n      caller\n        /* \"contracts/Bank_Payable-Functions.sol\":664:683  balance[msg.sender] */\n      0xffffffffffffffffffffffffffffffffffffffff\n      and\n      0xffffffffffffffffffffffffffffffffffffffff\n      and\n      dup2\n      mstore\n      0x20\n      add\n      swap1\n      dup2\n      mstore\n      0x20\n      add\n      0x00\n      keccak256\n      0x00\n        /* \"contracts/Bank_Payable-Functions.sol\":664:696  balance[msg.sender] += msg.value */\n      dup3\n      dup3\n      sload\n      tag_34\n      swap2\n      swap1\n      tag_35\n      jump\t// in\n    tag_34:\n      swap3\n      pop\n      pop\n      dup2\n      swap1\n      sstore\n      pop\n        /* \"contracts/Bank_Payable-Functions.sol\":843:853  msg.sender */\n      caller\n        /* \"contracts/Bank_Payable-Functions.sol\":821:854  deposited (msg.value, msg.sender) */\n      0xffffffffffffffffffffffffffffffffffffffff\n      and\n        /* \"contracts/Bank_Payable-Functions.sol\":832:841  msg.value */\n      callvalue\n        /* \"contracts/Bank_Payable-Functions.sol\":821:854  deposited (msg.value, msg.sender) */\n      0xa23831066066ec8812cc52afc91a52134a8b50c9209b68c276be679f4073d95d\n      mload(0x40)\n      mload(0x40)\n      dup1\n      swap2\n      sub\n      swap1\n      log3\n        /* \"contracts/Bank_Payable-Functions.sol\":889:896  balance */\n      0x00\n        /* \"contracts/Bank_Payable-Functions.sol\":889:908  balance[msg.sender] */\n      dup1\n        /* \"contracts/Bank_Payable-Functions.sol\":897:907  msg.sender */\n      caller\n        /* \"contracts/Bank_Payable-Functions.sol\":889:908  balance[msg.sender] */\n      0xffffffffffffffffffffffffffffffffffffffff\n      and\n      0xffffffffffffffffffffffffffffffffffffffff\n      and\n      dup2\n      mstore\n      0x20\n      add\n      swap1\n      dup2\n      mstore\n      0x20\n      add\n      0x00\n      keccak256\n      sload\n        /* \"contracts/Bank_Payable-Functions.sol\":882:908  return balance[msg.sender] */\n      swap1\n      pop\n        /* \"contracts/Bank_Payable-Functions.sol\":603:916  function deposit () public payable returns (uint){ ... */\n      swap1\n      jump\t// out\n        /* \"contracts/Bank_Payable-Functions.sol\":1603:1743  function _transfer(address from, address to, uint amount) private {... */\n    tag_27:\n        /* \"contracts/Bank_Payable-Functions.sol\":1697:1703  amount */\n      dup1\n        /* \"contracts/Bank_Payable-Functions.sol\":1680:1687  balance */\n      0x00\n        /* \"contracts/Bank_Payable-Functions.sol\":1680:1693  balance[from] */\n      dup1\n        /* \"contracts/Bank_Payable-Functions.sol\":1688:1692  from */\n      dup6\n        /* \"contracts/Bank_Payable-Functions.sol\":1680:1693  balance[from] */\n      0xffffffffffffffffffffffffffffffffffffffff\n      and\n      0xffffffffffffffffffffffffffffffffffffffff\n      and\n      dup2\n      mstore\n      0x20\n      add\n      swap1\n      dup2\n      mstore\n      0x20\n      add\n      0x00\n      keccak256\n      0x00\n        /* \"contracts/Bank_Payable-Functions.sol\":1680:1703  balance[from] -= amount */\n      dup3\n      dup3\n      sload\n      tag_37\n      swap2\n      swap1\n      tag_29\n      jump\t// in\n    tag_37:\n      swap3\n      pop\n      pop\n      dup2\n      swap1\n      sstore\n      pop\n        /* \"contracts/Bank_Payable-Functions.sol\":1729:1735  amount */\n      dup1\n        /* \"contracts/Bank_Payable-Functions.sol\":1714:1721  balance */\n      0x00\n        /* \"contracts/Bank_Payable-Functions.sol\":1714:1725  balance[to] */\n      dup1\n        /* \"contracts/Bank_Payable-Functions.sol\":1722:1724  to */\n      dup5\n        /* \"contracts/Bank_Payable-Functions.sol\":1714:1725  balance[to] */\n      0xffffffffffffffffffffffffffffffffffffffff\n      and\n      0xffffffffffffffffffffffffffffffffffffffff\n      and\n      dup2\n      mstore\n      0x20\n      add\n      swap1\n      dup2\n      mstore\n      0x20\n      add\n      0x00\n      keccak256\n      0x00\n        /* \"contracts/Bank_Payable-Functions.sol\":1714:1735  balance[to] += amount */\n      dup3\n      dup3\n      sload\n      tag_38\n      swap2\n      swap1\n      tag_35\n      jump\t// in\n    tag_38:\n      swap3\n      pop\n      pop\n      dup2\n      swap1\n      sstore\n      pop\n        /* \"contracts/Bank_Payable-Functions.sol\":1603:1743  function _transfer(address from, address to, uint amount) private {... */\n      pop\n      pop\n      pop\n      jump\t// out\n        /* \"#utility.yul\":7:84   */\n    tag_39:\n        /* \"#utility.yul\":44:51   */\n      0x00\n        /* \"#utility.yul\":73:78   */\n      dup2\n        /* \"#utility.yul\":62:78   */\n      swap1\n      pop\n        /* \"#utility.yul\":7:84   */\n      swap2\n      swap1\n      pop\n      jump\t// out\n        /* \"#utility.yul\":90:208   */\n    tag_40:\n        /* \"#utility.yul\":177:201   */\n      tag_59\n        /* \"#utility.yul\":195:200   */\n      dup2\n        /* \"#utility.yul\":177:201   */\n      tag_39\n      jump\t// in\n    tag_59:\n        /* \"#utility.yul\":172:175   */\n      dup3\n        /* \"#utility.yul\":165:202   */\n      mstore\n        /* \"#utility.yul\":90:208   */\n      pop\n      pop\n      jump\t// out\n        /* \"#utility.yul\":214:436   */\n    tag_9:\n        /* \"#utility.yul\":307:311   */\n      0x00\n        /* \"#utility.yul\":345:347   */\n      0x20\n        /* \"#utility.yul\":334:343   */\n      dup3\n        /* \"#utility.yul\":330:348   */\n      add\n        /* \"#utility.yul\":322:348   */\n      swap1\n      pop\n        /* \"#utility.yul\":358:429   */\n      tag_61\n        /* \"#utility.yul\":426:427   */\n      0x00\n        /* \"#utility.yul\":415:424   */\n      dup4\n        /* \"#utility.yul\":411:428   */\n      add\n        /* \"#utility.yul\":402:408   */\n      dup5\n        /* \"#utility.yul\":358:429   */\n      tag_40\n      jump\t// in\n    tag_61:\n        /* \"#utility.yul\":214:436   */\n      swap3\n      swap2\n      pop\n      pop\n      jump\t// out\n        /* \"#utility.yul\":523:640   */\n    tag_42:\n        /* \"#utility.yul\":632:633   */\n      0x00\n        /* \"#utility.yul\":629:630   */\n      dup1\n        /* \"#utility.yul\":622:634   */\n      revert\n        /* \"#utility.yul\":769:895   */\n    tag_44:\n        /* \"#utility.yul\":806:813   */\n      0x00\n        /* \"#utility.yul\":846:888   */\n      0xffffffffffffffffffffffffffffffffffffffff\n        /* \"#utility.yul\":839:844   */\n      dup3\n        /* \"#utility.yul\":835:889   */\n      and\n        /* \"#utility.yul\":824:889   */\n      swap1\n      pop\n        /* \"#utility.yul\":769:895   */\n      swap2\n      swap1\n      pop\n      jump\t// out\n        /* \"#utility.yul\":901:997   */\n    tag_45:\n        /* \"#utility.yul\":938:945   */\n      0x00\n        /* \"#utility.yul\":967:991   */\n      tag_67\n        /* \"#utility.yul\":985:990   */\n      dup3\n        /* \"#utility.yul\":967:991   */\n      tag_44\n      jump\t// in\n    tag_67:\n        /* \"#utility.yul\":956:991   */\n      swap1\n      pop\n        /* \"#utility.yul\":901:997   */\n      swap2\n      swap1\n      pop\n      jump\t// out\n        /* \"#utility.yul\":1003:1125   */\n    tag_46:\n        /* \"#utility.yul\":1076:1100   */\n      tag_69\n        /* \"#utility.yul\":1094:1099   */\n      dup2\n        /* \"#utility.yul\":1076:1100   */\n      tag_45\n      jump\t// in\n    tag_69:\n        /* \"#utility.yul\":1069:1074   */\n      dup2\n        /* \"#utility.yul\":1066:1101   */\n      eq\n        /* \"#utility.yul\":1056:1119   */\n      tag_70\n      jumpi\n        /* \"#utility.yul\":1115:1116   */\n      0x00\n        /* \"#utility.yul\":1112:1113   */\n      dup1\n        /* \"#utility.yul\":1105:1117   */\n      revert\n        /* \"#utility.yul\":1056:1119   */\n    tag_70:\n        /* \"#utility.yul\":1003:1125   */\n      pop\n      jump\t// out\n        /* \"#utility.yul\":1131:1270   */\n    tag_47:\n        /* \"#utility.yul\":1177:1182   */\n      0x00\n        /* \"#utility.yul\":1215:1221   */\n      dup2\n        /* \"#utility.yul\":1202:1222   */\n      calldataload\n        /* \"#utility.yul\":1193:1222   */\n      swap1\n      pop\n        /* \"#utility.yul\":1231:1264   */\n      tag_72\n        /* \"#utility.yul\":1258:1263   */\n      dup2\n        /* \"#utility.yul\":1231:1264   */\n      tag_46\n      jump\t// in\n    tag_72:\n        /* \"#utility.yul\":1131:1270   */\n      swap3\n      swap2\n      pop\n      pop\n      jump\t// out\n        /* \"#utility.yul\":1276:1398   */\n    tag_48:\n        /* \"#utility.yul\":1349:1373   */\n      tag_74\n        /* \"#utility.yul\":1367:1372   */\n      dup2\n        /* \"#utility.yul\":1349:1373   */\n      tag_39\n      jump\t// in\n    tag_74:\n        /* \"#utility.yul\":1342:1347   */\n      dup2\n        /* \"#utility.yul\":1339:1374   */\n      eq\n        /* \"#utility.yul\":1329:1392   */\n      tag_75\n      jumpi\n        /* \"#utility.yul\":1388:1389   */\n      0x00\n        /* \"#utility.yul\":1385:1386   */\n      dup1\n        /* \"#utility.yul\":1378:1390   */\n      revert\n        /* \"#utility.yul\":1329:1392   */\n    tag_75:\n        /* \"#utility.yul\":1276:1398   */\n      pop\n      jump\t// out\n        /* \"#utility.yul\":1404:1543   */\n    tag_49:\n        /* \"#utility.yul\":1450:1455   */\n      0x00\n        /* \"#utility.yul\":1488:1494   */\n      dup2\n        /* \"#utility.yul\":1475:1495   */\n      calldataload\n        /* \"#utility.yul\":1466:1495   */\n      swap1\n      pop\n        /* \"#utility.yul\":1504:1537   */\n      tag_77\n        /* \"#utility.yul\":1531:1536   */\n      dup2\n        /* \"#utility.yul\":1504:1537   */\n      tag_48\n      jump\t// in\n    tag_77:\n        /* \"#utility.yul\":1404:1543   */\n      swap3\n      swap2\n      pop\n      pop\n      jump\t// out\n        /* \"#utility.yul\":1549:2023   */\n    tag_13:\n        /* \"#utility.yul\":1617:1623   */\n      0x00\n        /* \"#utility.yul\":1625:1631   */\n      dup1\n        /* \"#utility.yul\":1674:1676   */\n      0x40\n        /* \"#utility.yul\":1662:1671   */\n      dup4\n        /* \"#utility.yul\":1653:1660   */\n      dup6\n        /* \"#utility.yul\":1649:1672   */\n      sub\n        /* \"#utility.yul\":1645:1677   */\n      slt\n        /* \"#utility.yul\":1642:1761   */\n      iszero\n      tag_79\n      jumpi\n        /* \"#utility.yul\":1680:1759   */\n      tag_80\n      tag_42\n      jump\t// in\n    tag_80:\n        /* \"#utility.yul\":1642:1761   */\n    tag_79:\n        /* \"#utility.yul\":1800:1801   */\n      0x00\n        /* \"#utility.yul\":1825:1878   */\n      tag_81\n        /* \"#utility.yul\":1870:1877   */\n      dup6\n        /* \"#utility.yul\":1861:1867   */\n      dup3\n        /* \"#utility.yul\":1850:1859   */\n      dup7\n        /* \"#utility.yul\":1846:1868   */\n      add\n        /* \"#utility.yul\":1825:1878   */\n      tag_47\n      jump\t// in\n    tag_81:\n        /* \"#utility.yul\":1815:1878   */\n      swap3\n      pop\n        /* \"#utility.yul\":1771:1888   */\n      pop\n        /* \"#utility.yul\":1927:1929   */\n      0x20\n        /* \"#utility.yul\":1953:2006   */\n      tag_82\n        /* \"#utility.yul\":1998:2005   */\n      dup6\n        /* \"#utility.yul\":1989:1995   */\n      dup3\n        /* \"#utility.yul\":1978:1987   */\n      dup7\n        /* \"#utility.yul\":1974:1996   */\n      add\n        /* \"#utility.yul\":1953:2006   */\n      tag_49\n      jump\t// in\n    tag_82:\n        /* \"#utility.yul\":1943:2006   */\n      swap2\n      pop\n        /* \"#utility.yul\":1898:2016   */\n      pop\n        /* \"#utility.yul\":1549:2023   */\n      swap3\n      pop\n      swap3\n      swap1\n      pop\n      jump\t// out\n        /* \"#utility.yul\":2029:2198   */\n    tag_50:\n        /* \"#utility.yul\":2113:2124   */\n      0x00\n        /* \"#utility.yul\":2147:2153   */\n      dup3\n        /* \"#utility.yul\":2142:2145   */\n      dup3\n        /* \"#utility.yul\":2135:2154   */\n      mstore\n        /* \"#utility.yul\":2187:2191   */\n      0x20\n        /* \"#utility.yul\":2182:2185   */\n      dup3\n        /* \"#utility.yul\":2178:2192   */\n      add\n        /* \"#utility.yul\":2163:2192   */\n      swap1\n      pop\n        /* \"#utility.yul\":2029:2198   */\n      swap3\n      swap2\n      pop\n      pop\n      jump\t// out\n        /* \"#utility.yul\":2204:2438   */\n    tag_51:\n        /* \"#utility.yul\":2344:2378   */\n      0x4552524f5220315f496e73756666696369656e742062616c616e636520746f20\n        /* \"#utility.yul\":2340:2341   */\n      0x00\n        /* \"#utility.yul\":2332:2338   */\n      dup3\n        /* \"#utility.yul\":2328:2342   */\n      add\n        /* \"#utility.yul\":2321:2379   */\n      mstore\n        /* \"#utility.yul\":2413:2430   */\n      0x7472616e736665722066756e64732e0000000000000000000000000000000000\n        /* \"#utility.yul\":2408:2410   */\n      0x20\n        /* \"#utility.yul\":2400:2406   */\n      dup3\n        /* \"#utility.yul\":2396:2411   */\n      add\n        /* \"#utility.yul\":2389:2431   */\n      mstore\n        /* \"#utility.yul\":2204:2438   */\n      pop\n      jump\t// out\n        /* \"#utility.yul\":2444:2810   */\n    tag_52:\n        /* \"#utility.yul\":2586:2589   */\n      0x00\n        /* \"#utility.yul\":2607:2674   */\n      tag_86\n        /* \"#utility.yul\":2671:2673   */\n      0x2f\n        /* \"#utility.yul\":2666:2669   */\n      dup4\n        /* \"#utility.yul\":2607:2674   */\n      tag_50\n      jump\t// in\n    tag_86:\n        /* \"#utility.yul\":2600:2674   */\n      swap2\n      pop\n        /* \"#utility.yul\":2683:2776   */\n      tag_87\n        /* \"#utility.yul\":2772:2775   */\n      dup3\n        /* \"#utility.yul\":2683:2776   */\n      tag_51\n      jump\t// in\n    tag_87:\n        /* \"#utility.yul\":2801:2803   */\n      0x40\n        /* \"#utility.yul\":2796:2799   */\n      dup3\n        /* \"#utility.yul\":2792:2804   */\n      add\n        /* \"#utility.yul\":2785:2804   */\n      swap1\n      pop\n        /* \"#utility.yul\":2444:2810   */\n      swap2\n      swap1\n      pop\n      jump\t// out\n        /* \"#utility.yul\":2816:3235   */\n    tag_22:\n        /* \"#utility.yul\":2982:2986   */\n      0x00\n        /* \"#utility.yul\":3020:3022   */\n      0x20\n        /* \"#utility.yul\":3009:3018   */\n      dup3\n        /* \"#utility.yul\":3005:3023   */\n      add\n        /* \"#utility.yul\":2997:3023   */\n      swap1\n      pop\n        /* \"#utility.yul\":3069:3078   */\n      dup2\n        /* \"#utility.yul\":3063:3067   */\n      dup2\n        /* \"#utility.yul\":3059:3079   */\n      sub\n        /* \"#utility.yul\":3055:3056   */\n      0x00\n        /* \"#utility.yul\":3044:3053   */\n      dup4\n        /* \"#utility.yul\":3040:3057   */\n      add\n        /* \"#utility.yul\":3033:3080   */\n      mstore\n        /* \"#utility.yul\":3097:3228   */\n      tag_89\n        /* \"#utility.yul\":3223:3227   */\n      dup2\n        /* \"#utility.yul\":3097:3228   */\n      tag_52\n      jump\t// in\n    tag_89:\n        /* \"#utility.yul\":3089:3228   */\n      swap1\n      pop\n        /* \"#utility.yul\":2816:3235   */\n      swap2\n      swap1\n      pop\n      jump\t// out\n        /* \"#utility.yul\":3241:3471   */\n    tag_53:\n        /* \"#utility.yul\":3381:3415   */\n      0x4552524f5220325f5468652073656e6465722063616e6e6f7420626520746865\n        /* \"#utility.yul\":3377:3378   */\n      0x00\n        /* \"#utility.yul\":3369:3375   */\n      dup3\n        /* \"#utility.yul\":3365:3379   */\n      add\n        /* \"#utility.yul\":3358:3416   */\n      mstore\n        /* \"#utility.yul\":3450:3463   */\n      0x20726563697069656e742e000000000000000000000000000000000000000000\n        /* \"#utility.yul\":3445:3447   */\n      0x20\n        /* \"#utility.yul\":3437:3443   */\n      dup3\n        /* \"#utility.yul\":3433:3448   */\n      add\n        /* \"#utility.yul\":3426:3464   */\n      mstore\n        /* \"#utility.yul\":3241:3471   */\n      pop\n      jump\t// out\n        /* \"#utility.yul\":3477:3843   */\n    tag_54:\n        /* \"#utility.yul\":3619:3622   */\n      0x00\n        /* \"#utility.yul\":3640:3707   */\n      tag_92\n        /* \"#utility.yul\":3704:3706   */\n      0x2b\n        /* \"#utility.yul\":3699:3702   */\n      dup4\n        /* \"#utility.yul\":3640:3707   */\n      tag_50\n      jump\t// in\n    tag_92:\n        /* \"#utility.yul\":3633:3707   */\n      swap2\n      pop\n        /* \"#utility.yul\":3716:3809   */\n      tag_93\n        /* \"#utility.yul\":3805:3808   */\n      dup3\n        /* \"#utility.yul\":3716:3809   */\n      tag_53\n      jump\t// in\n    tag_93:\n        /* \"#utility.yul\":3834:3836   */\n      0x40\n        /* \"#utility.yul\":3829:3832   */\n      dup3\n        /* \"#utility.yul\":3825:3837   */\n      add\n        /* \"#utility.yul\":3818:3837   */\n      swap1\n      pop\n        /* \"#utility.yul\":3477:3843   */\n      swap2\n      swap1\n      pop\n      jump\t// out\n        /* \"#utility.yul\":3849:4268   */\n    tag_25:\n        /* \"#utility.yul\":4015:4019   */\n      0x00\n        /* \"#utility.yul\":4053:4055   */\n      0x20\n        /* \"#utility.yul\":4042:4051   */\n      dup3\n        /* \"#utility.yul\":4038:4056   */\n      add\n        /* \"#utility.yul\":4030:4056   */\n      swap1\n      pop\n        /* \"#utility.yul\":4102:4111   */\n      dup2\n        /* \"#utility.yul\":4096:4100   */\n      dup2\n        /* \"#utility.yul\":4092:4112   */\n      sub\n        /* \"#utility.yul\":4088:4089   */\n      0x00\n        /* \"#utility.yul\":4077:4086   */\n      dup4\n        /* \"#utility.yul\":4073:4090   */\n      add\n        /* \"#utility.yul\":4066:4113   */\n      mstore\n        /* \"#utility.yul\":4130:4261   */\n      tag_95\n        /* \"#utility.yul\":4256:4260   */\n      dup2\n        /* \"#utility.yul\":4130:4261   */\n      tag_54\n      jump\t// in\n    tag_95:\n        /* \"#utility.yul\":4122:4261   */\n      swap1\n      pop\n        /* \"#utility.yul\":3849:4268   */\n      swap2\n      swap1\n      pop\n      jump\t// out\n        /* \"#utility.yul\":4274:4454   */\n    tag_55:\n        /* \"#utility.yul\":4322:4399   */\n      0x4e487b7100000000000000000000000000000000000000000000000000000000\n        /* \"#utility.yul\":4319:4320   */\n      0x00\n        /* \"#utility.yul\":4312:4400   */\n      mstore\n        /* \"#utility.yul\":4419:4423   */\n      0x11\n        /* \"#utility.yul\":4416:4417   */\n      0x04\n        /* \"#utility.yul\":4409:4424   */\n      mstore\n        /* \"#utility.yul\":4443:4447   */\n      0x24\n        /* \"#utility.yul\":4440:4441   */\n      0x00\n        /* \"#utility.yul\":4433:4448   */\n      revert\n        /* \"#utility.yul\":4460:4651   */\n    tag_29:\n        /* \"#utility.yul\":4500:4504   */\n      0x00\n        /* \"#utility.yul\":4520:4540   */\n      tag_98\n        /* \"#utility.yul\":4538:4539   */\n      dup3\n        /* \"#utility.yul\":4520:4540   */\n      tag_39\n      jump\t// in\n    tag_98:\n        /* \"#utility.yul\":4515:4540   */\n      swap2\n      pop\n        /* \"#utility.yul\":4554:4574   */\n      tag_99\n        /* \"#utility.yul\":4572:4573   */\n      dup4\n        /* \"#utility.yul\":4554:4574   */\n      tag_39\n      jump\t// in\n    tag_99:\n        /* \"#utility.yul\":4549:4574   */\n      swap3\n      pop\n        /* \"#utility.yul\":4593:4594   */\n      dup3\n        /* \"#utility.yul\":4590:4591   */\n      dup3\n        /* \"#utility.yul\":4587:4595   */\n      lt\n        /* \"#utility.yul\":4584:4618   */\n      iszero\n      tag_100\n      jumpi\n        /* \"#utility.yul\":4598:4616   */\n      tag_101\n      tag_55\n      jump\t// in\n    tag_101:\n        /* \"#utility.yul\":4584:4618   */\n    tag_100:\n        /* \"#utility.yul\":4643:4644   */\n      dup3\n        /* \"#utility.yul\":4640:4641   */\n      dup3\n        /* \"#utility.yul\":4636:4645   */\n      sub\n        /* \"#utility.yul\":4628:4645   */\n      swap1\n      pop\n        /* \"#utility.yul\":4460:4651   */\n      swap3\n      swap2\n      pop\n      pop\n      jump\t// out\n        /* \"#utility.yul\":4657:4837   */\n    tag_32:\n        /* \"#utility.yul\":4705:4782   */\n      0x4e487b7100000000000000000000000000000000000000000000000000000000\n        /* \"#utility.yul\":4702:4703   */\n      0x00\n        /* \"#utility.yul\":4695:4783   */\n      mstore\n        /* \"#utility.yul\":4802:4806   */\n      0x01\n        /* \"#utility.yul\":4799:4800   */\n      0x04\n        /* \"#utility.yul\":4792:4807   */\n      mstore\n        /* \"#utility.yul\":4826:4830   */\n      0x24\n        /* \"#utility.yul\":4823:4824   */\n      0x00\n        /* \"#utility.yul\":4816:4831   */\n      revert\n        /* \"#utility.yul\":4843:5148   */\n    tag_35:\n        /* \"#utility.yul\":4883:4886   */\n      0x00\n        /* \"#utility.yul\":4902:4922   */\n      tag_104\n        /* \"#utility.yul\":4920:4921   */\n      dup3\n        /* \"#utility.yul\":4902:4922   */\n      tag_39\n      jump\t// in\n    tag_104:\n        /* \"#utility.yul\":4897:4922   */\n      swap2\n      pop\n        /* \"#utility.yul\":4936:4956   */\n      tag_105\n        /* \"#utility.yul\":4954:4955   */\n      dup4\n        /* \"#utility.yul\":4936:4956   */\n      tag_39\n      jump\t// in\n    tag_105:\n        /* \"#utility.yul\":4931:4956   */\n      swap3\n      pop\n        /* \"#utility.yul\":5090:5091   */\n      dup3\n        /* \"#utility.yul\":5022:5088   */\n      0xffffffffffffffffffffffffffffffffffffffffffffffffffffffffffffffff\n        /* \"#utility.yul\":5018:5092   */\n      sub\n        /* \"#utility.yul\":5015:5016   */\n      dup3\n        /* \"#utility.yul\":5012:5093   */\n      gt\n        /* \"#utility.yul\":5009:5116   */\n      iszero\n      tag_106\n      jumpi\n        /* \"#utility.yul\":5096:5114   */\n      tag_107\n      tag_55\n      jump\t// in\n    tag_107:\n        /* \"#utility.yul\":5009:5116   */\n    tag_106:\n        /* \"#utility.yul\":5140:5141   */\n      dup3\n        /* \"#utility.yul\":5137:5138   */\n      dup3\n        /* \"#utility.yul\":5133:5142   */\n      add\n        /* \"#utility.yul\":5126:5142   */\n      swap1\n      pop\n        /* \"#utility.yul\":4843:5148   */\n      swap3\n      swap2\n      pop\n      pop\n      jump\t// out\n\n    auxdata: 0xa2646970667358221220ba0e89ffdd882e489f23ad379dfd611d2a44b884427971e0df93ec8c6ebb8ee564736f6c634300080d0033\n}\n",
				"bytecode": {
					"linkReferences": {},
					"object": "608060405234801561001057600080fd5b5033600160006101000a81548173ffffffffffffffffffffffffffffffffffffffff021916908373ffffffffffffffffffffffffffffffffffffffff1602179055506107cb806100616000396000f3fe6080604052600436106100345760003560e01c806312065fe014610039578063a9059cbb14610064578063d0e30db01461008d575b600080fd5b34801561004557600080fd5b5061004e6100ab565b60405161005b919061048e565b60405180910390f35b34801561007057600080fd5b5061008b60048036038101906100869190610538565b6100f1565b005b6100956102e7565b6040516100a2919061048e565b60405180910390f35b60008060003373ffffffffffffffffffffffffffffffffffffffff1673ffffffffffffffffffffffffffffffffffffffff16815260200190815260200160002054905090565b806000803373ffffffffffffffffffffffffffffffffffffffff1673ffffffffffffffffffffffffffffffffffffffff168152602001908152602001600020541015610172576040517f08c379a0000000000000000000000000000000000000000000000000000000008152600401610169906105fb565b60405180910390fd5b8173ffffffffffffffffffffffffffffffffffffffff163373ffffffffffffffffffffffffffffffffffffffff16036101e0576040517f08c379a00000000000000000000000000000000000000000000000000000000081526004016101d79061068d565b60405180910390fd5b60008060003373ffffffffffffffffffffffffffffffffffffffff1673ffffffffffffffffffffffffffffffffffffffff16815260200190815260200160002054905061022e3384846103c6565b818373ffffffffffffffffffffffffffffffffffffffff163373ffffffffffffffffffffffffffffffffffffffff167f3573881c639e018e0c3ba3a7d19063f6a7a8205d54eb828319a7f98db00426a060405160405180910390a4818161029591906106dc565b6000803373ffffffffffffffffffffffffffffffffffffffff1673ffffffffffffffffffffffffffffffffffffffff16815260200190815260200160002054146102e2576102e1610710565b5b505050565b6000346000803373ffffffffffffffffffffffffffffffffffffffff1673ffffffffffffffffffffffffffffffffffffffff1681526020019081526020016000206000828254610337919061073f565b925050819055503373ffffffffffffffffffffffffffffffffffffffff16347fa23831066066ec8812cc52afc91a52134a8b50c9209b68c276be679f4073d95d60405160405180910390a36000803373ffffffffffffffffffffffffffffffffffffffff1673ffffffffffffffffffffffffffffffffffffffff16815260200190815260200160002054905090565b806000808573ffffffffffffffffffffffffffffffffffffffff1673ffffffffffffffffffffffffffffffffffffffff168152602001908152602001600020600082825461041491906106dc565b92505081905550806000808473ffffffffffffffffffffffffffffffffffffffff1673ffffffffffffffffffffffffffffffffffffffff1681526020019081526020016000206000828254610469919061073f565b92505081905550505050565b6000819050919050565b61048881610475565b82525050565b60006020820190506104a3600083018461047f565b92915050565b600080fd5b600073ffffffffffffffffffffffffffffffffffffffff82169050919050565b60006104d9826104ae565b9050919050565b6104e9816104ce565b81146104f457600080fd5b50565b600081359050610506816104e0565b92915050565b61051581610475565b811461052057600080fd5b50565b6000813590506105328161050c565b92915050565b6000806040838503121561054f5761054e6104a9565b5b600061055d858286016104f7565b925050602061056e85828601610523565b9150509250929050565b600082825260208201905092915050565b7f4552524f5220315f496e73756666696369656e742062616c616e636520746f2060008201527f7472616e736665722066756e64732e0000000000000000000000000000000000602082015250565b60006105e5602f83610578565b91506105f082610589565b604082019050919050565b60006020820190508181036000830152610614816105d8565b9050919050565b7f4552524f5220325f5468652073656e6465722063616e6e6f742062652074686560008201527f20726563697069656e742e000000000000000000000000000000000000000000602082015250565b6000610677602b83610578565b91506106828261061b565b604082019050919050565b600060208201905081810360008301526106a68161066a565b9050919050565b7f4e487b7100000000000000000000000000000000000000000000000000000000600052601160045260246000fd5b60006106e782610475565b91506106f283610475565b925082821015610705576107046106ad565b5b828203905092915050565b7f4e487b7100000000000000000000000000000000000000000000000000000000600052600160045260246000fd5b600061074a82610475565b915061075583610475565b9250827fffffffffffffffffffffffffffffffffffffffffffffffffffffffffffffffff0382111561078a576107896106ad565b5b82820190509291505056fea2646970667358221220ba0e89ffdd882e489f23ad379dfd611d2a44b884427971e0df93ec8c6ebb8ee564736f6c634300080d0033",
					"opcodes": "PUSH1 0x80 PUSH1 0x40 MSTORE CALLVALUE DUP1 ISZERO PUSH2 0x10 JUMPI PUSH1 0x0 DUP1 REVERT JUMPDEST POP CALLER PUSH1 0x1 PUSH1 0x0 PUSH2 0x100 EXP DUP2 SLOAD DUP2 PUSH20 0xFFFFFFFFFFFFFFFFFFFFFFFFFFFFFFFFFFFFFFFF MUL NOT AND SWAP1 DUP4 PUSH20 0xFFFFFFFFFFFFFFFFFFFFFFFFFFFFFFFFFFFFFFFF AND MUL OR SWAP1 SSTORE POP PUSH2 0x7CB DUP1 PUSH2 0x61 PUSH1 0x0 CODECOPY PUSH1 0x0 RETURN INVALID PUSH1 0x80 PUSH1 0x40 MSTORE PUSH1 0x4 CALLDATASIZE LT PUSH2 0x34 JUMPI PUSH1 0x0 CALLDATALOAD PUSH1 0xE0 SHR DUP1 PUSH4 0x12065FE0 EQ PUSH2 0x39 JUMPI DUP1 PUSH4 0xA9059CBB EQ PUSH2 0x64 JUMPI DUP1 PUSH4 0xD0E30DB0 EQ PUSH2 0x8D JUMPI JUMPDEST PUSH1 0x0 DUP1 REVERT JUMPDEST CALLVALUE DUP1 ISZERO PUSH2 0x45 JUMPI PUSH1 0x0 DUP1 REVERT JUMPDEST POP PUSH2 0x4E PUSH2 0xAB JUMP JUMPDEST PUSH1 0x40 MLOAD PUSH2 0x5B SWAP2 SWAP1 PUSH2 0x48E JUMP JUMPDEST PUSH1 0x40 MLOAD DUP1 SWAP2 SUB SWAP1 RETURN JUMPDEST CALLVALUE DUP1 ISZERO PUSH2 0x70 JUMPI PUSH1 0x0 DUP1 REVERT JUMPDEST POP PUSH2 0x8B PUSH1 0x4 DUP1 CALLDATASIZE SUB DUP2 ADD SWAP1 PUSH2 0x86 SWAP2 SWAP1 PUSH2 0x538 JUMP JUMPDEST PUSH2 0xF1 JUMP JUMPDEST STOP JUMPDEST PUSH2 0x95 PUSH2 0x2E7 JUMP JUMPDEST PUSH1 0x40 MLOAD PUSH2 0xA2 SWAP2 SWAP1 PUSH2 0x48E JUMP JUMPDEST PUSH1 0x40 MLOAD DUP1 SWAP2 SUB SWAP1 RETURN JUMPDEST PUSH1 0x0 DUP1 PUSH1 0x0 CALLER PUSH20 0xFFFFFFFFFFFFFFFFFFFFFFFFFFFFFFFFFFFFFFFF AND PUSH20 0xFFFFFFFFFFFFFFFFFFFFFFFFFFFFFFFFFFFFFFFF AND DUP2 MSTORE PUSH1 0x20 ADD SWAP1 DUP2 MSTORE PUSH1 0x20 ADD PUSH1 0x0 KECCAK256 SLOAD SWAP1 POP SWAP1 JUMP JUMPDEST DUP1 PUSH1 0x0 DUP1 CALLER PUSH20 0xFFFFFFFFFFFFFFFFFFFFFFFFFFFFFFFFFFFFFFFF AND PUSH20 0xFFFFFFFFFFFFFFFFFFFFFFFFFFFFFFFFFFFFFFFF AND DUP2 MSTORE PUSH1 0x20 ADD SWAP1 DUP2 MSTORE PUSH1 0x20 ADD PUSH1 0x0 KECCAK256 SLOAD LT ISZERO PUSH2 0x172 JUMPI PUSH1 0x40 MLOAD PUSH32 0x8C379A000000000000000000000000000000000000000000000000000000000 DUP2 MSTORE PUSH1 0x4 ADD PUSH2 0x169 SWAP1 PUSH2 0x5FB JUMP JUMPDEST PUSH1 0x40 MLOAD DUP1 SWAP2 SUB SWAP1 REVERT JUMPDEST DUP2 PUSH20 0xFFFFFFFFFFFFFFFFFFFFFFFFFFFFFFFFFFFFFFFF AND CALLER PUSH20 0xFFFFFFFFFFFFFFFFFFFFFFFFFFFFFFFFFFFFFFFF AND SUB PUSH2 0x1E0 JUMPI PUSH1 0x40 MLOAD PUSH32 0x8C379A000000000000000000000000000000000000000000000000000000000 DUP2 MSTORE PUSH1 0x4 ADD PUSH2 0x1D7 SWAP1 PUSH2 0x68D JUMP JUMPDEST PUSH1 0x40 MLOAD DUP1 SWAP2 SUB SWAP1 REVERT JUMPDEST PUSH1 0x0 DUP1 PUSH1 0x0 CALLER PUSH20 0xFFFFFFFFFFFFFFFFFFFFFFFFFFFFFFFFFFFFFFFF AND PUSH20 0xFFFFFFFFFFFFFFFFFFFFFFFFFFFFFFFFFFFFFFFF AND DUP2 MSTORE PUSH1 0x20 ADD SWAP1 DUP2 MSTORE PUSH1 0x20 ADD PUSH1 0x0 KECCAK256 SLOAD SWAP1 POP PUSH2 0x22E CALLER DUP5 DUP5 PUSH2 0x3C6 JUMP JUMPDEST DUP2 DUP4 PUSH20 0xFFFFFFFFFFFFFFFFFFFFFFFFFFFFFFFFFFFFFFFF AND CALLER PUSH20 0xFFFFFFFFFFFFFFFFFFFFFFFFFFFFFFFFFFFFFFFF AND PUSH32 0x3573881C639E018E0C3BA3A7D19063F6A7A8205D54EB828319A7F98DB00426A0 PUSH1 0x40 MLOAD PUSH1 0x40 MLOAD DUP1 SWAP2 SUB SWAP1 LOG4 DUP2 DUP2 PUSH2 0x295 SWAP2 SWAP1 PUSH2 0x6DC JUMP JUMPDEST PUSH1 0x0 DUP1 CALLER PUSH20 0xFFFFFFFFFFFFFFFFFFFFFFFFFFFFFFFFFFFFFFFF AND PUSH20 0xFFFFFFFFFFFFFFFFFFFFFFFFFFFFFFFFFFFFFFFF AND DUP2 MSTORE PUSH1 0x20 ADD SWAP1 DUP2 MSTORE PUSH1 0x20 ADD PUSH1 0x0 KECCAK256 SLOAD EQ PUSH2 0x2E2 JUMPI PUSH2 0x2E1 PUSH2 0x710 JUMP JUMPDEST JUMPDEST POP POP POP JUMP JUMPDEST PUSH1 0x0 CALLVALUE PUSH1 0x0 DUP1 CALLER PUSH20 0xFFFFFFFFFFFFFFFFFFFFFFFFFFFFFFFFFFFFFFFF AND PUSH20 0xFFFFFFFFFFFFFFFFFFFFFFFFFFFFFFFFFFFFFFFF AND DUP2 MSTORE PUSH1 0x20 ADD SWAP1 DUP2 MSTORE PUSH1 0x20 ADD PUSH1 0x0 KECCAK256 PUSH1 0x0 DUP3 DUP3 SLOAD PUSH2 0x337 SWAP2 SWAP1 PUSH2 0x73F JUMP JUMPDEST SWAP3 POP POP DUP2 SWAP1 SSTORE POP CALLER PUSH20 0xFFFFFFFFFFFFFFFFFFFFFFFFFFFFFFFFFFFFFFFF AND CALLVALUE PUSH32 0xA23831066066EC8812CC52AFC91A52134A8B50C9209B68C276BE679F4073D95D PUSH1 0x40 MLOAD PUSH1 0x40 MLOAD DUP1 SWAP2 SUB SWAP1 LOG3 PUSH1 0x0 DUP1 CALLER PUSH20 0xFFFFFFFFFFFFFFFFFFFFFFFFFFFFFFFFFFFFFFFF AND PUSH20 0xFFFFFFFFFFFFFFFFFFFFFFFFFFFFFFFFFFFFFFFF AND DUP2 MSTORE PUSH1 0x20 ADD SWAP1 DUP2 MSTORE PUSH1 0x20 ADD PUSH1 0x0 KECCAK256 SLOAD SWAP1 POP SWAP1 JUMP JUMPDEST DUP1 PUSH1 0x0 DUP1 DUP6 PUSH20 0xFFFFFFFFFFFFFFFFFFFFFFFFFFFFFFFFFFFFFFFF AND PUSH20 0xFFFFFFFFFFFFFFFFFFFFFFFFFFFFFFFFFFFFFFFF AND DUP2 MSTORE PUSH1 0x20 ADD SWAP1 DUP2 MSTORE PUSH1 0x20 ADD PUSH1 0x0 KECCAK256 PUSH1 0x0 DUP3 DUP3 SLOAD PUSH2 0x414 SWAP2 SWAP1 PUSH2 0x6DC JUMP JUMPDEST SWAP3 POP POP DUP2 SWAP1 SSTORE POP DUP1 PUSH1 0x0 DUP1 DUP5 PUSH20 0xFFFFFFFFFFFFFFFFFFFFFFFFFFFFFFFFFFFFFFFF AND PUSH20 0xFFFFFFFFFFFFFFFFFFFFFFFFFFFFFFFFFFFFFFFF AND DUP2 MSTORE PUSH1 0x20 ADD SWAP1 DUP2 MSTORE PUSH1 0x20 ADD PUSH1 0x0 KECCAK256 PUSH1 0x0 DUP3 DUP3 SLOAD PUSH2 0x469 SWAP2 SWAP1 PUSH2 0x73F JUMP JUMPDEST SWAP3 POP POP DUP2 SWAP1 SSTORE POP POP POP POP JUMP JUMPDEST PUSH1 0x0 DUP2 SWAP1 POP SWAP2 SWAP1 POP JUMP JUMPDEST PUSH2 0x488 DUP2 PUSH2 0x475 JUMP JUMPDEST DUP3 MSTORE POP POP JUMP JUMPDEST PUSH1 0x0 PUSH1 0x20 DUP3 ADD SWAP1 POP PUSH2 0x4A3 PUSH1 0x0 DUP4 ADD DUP5 PUSH2 0x47F JUMP JUMPDEST SWAP3 SWAP2 POP POP JUMP JUMPDEST PUSH1 0x0 DUP1 REVERT JUMPDEST PUSH1 0x0 PUSH20 0xFFFFFFFFFFFFFFFFFFFFFFFFFFFFFFFFFFFFFFFF DUP3 AND SWAP1 POP SWAP2 SWAP1 POP JUMP JUMPDEST PUSH1 0x0 PUSH2 0x4D9 DUP3 PUSH2 0x4AE JUMP JUMPDEST SWAP1 POP SWAP2 SWAP1 POP JUMP JUMPDEST PUSH2 0x4E9 DUP2 PUSH2 0x4CE JUMP JUMPDEST DUP2 EQ PUSH2 0x4F4 JUMPI PUSH1 0x0 DUP1 REVERT JUMPDEST POP JUMP JUMPDEST PUSH1 0x0 DUP2 CALLDATALOAD SWAP1 POP PUSH2 0x506 DUP2 PUSH2 0x4E0 JUMP JUMPDEST SWAP3 SWAP2 POP POP JUMP JUMPDEST PUSH2 0x515 DUP2 PUSH2 0x475 JUMP JUMPDEST DUP2 EQ PUSH2 0x520 JUMPI PUSH1 0x0 DUP1 REVERT JUMPDEST POP JUMP JUMPDEST PUSH1 0x0 DUP2 CALLDATALOAD SWAP1 POP PUSH2 0x532 DUP2 PUSH2 0x50C JUMP JUMPDEST SWAP3 SWAP2 POP POP JUMP JUMPDEST PUSH1 0x0 DUP1 PUSH1 0x40 DUP4 DUP6 SUB SLT ISZERO PUSH2 0x54F JUMPI PUSH2 0x54E PUSH2 0x4A9 JUMP JUMPDEST JUMPDEST PUSH1 0x0 PUSH2 0x55D DUP6 DUP3 DUP7 ADD PUSH2 0x4F7 JUMP JUMPDEST SWAP3 POP POP PUSH1 0x20 PUSH2 0x56E DUP6 DUP3 DUP7 ADD PUSH2 0x523 JUMP JUMPDEST SWAP2 POP POP SWAP3 POP SWAP3 SWAP1 POP JUMP JUMPDEST PUSH1 0x0 DUP3 DUP3 MSTORE PUSH1 0x20 DUP3 ADD SWAP1 POP SWAP3 SWAP2 POP POP JUMP JUMPDEST PUSH32 0x4552524F5220315F496E73756666696369656E742062616C616E636520746F20 PUSH1 0x0 DUP3 ADD MSTORE PUSH32 0x7472616E736665722066756E64732E0000000000000000000000000000000000 PUSH1 0x20 DUP3 ADD MSTORE POP JUMP JUMPDEST PUSH1 0x0 PUSH2 0x5E5 PUSH1 0x2F DUP4 PUSH2 0x578 JUMP JUMPDEST SWAP2 POP PUSH2 0x5F0 DUP3 PUSH2 0x589 JUMP JUMPDEST PUSH1 0x40 DUP3 ADD SWAP1 POP SWAP2 SWAP1 POP JUMP JUMPDEST PUSH1 0x0 PUSH1 0x20 DUP3 ADD SWAP1 POP DUP2 DUP2 SUB PUSH1 0x0 DUP4 ADD MSTORE PUSH2 0x614 DUP2 PUSH2 0x5D8 JUMP JUMPDEST SWAP1 POP SWAP2 SWAP1 POP JUMP JUMPDEST PUSH32 0x4552524F5220325F5468652073656E6465722063616E6E6F7420626520746865 PUSH1 0x0 DUP3 ADD MSTORE PUSH32 0x20726563697069656E742E000000000000000000000000000000000000000000 PUSH1 0x20 DUP3 ADD MSTORE POP JUMP JUMPDEST PUSH1 0x0 PUSH2 0x677 PUSH1 0x2B DUP4 PUSH2 0x578 JUMP JUMPDEST SWAP2 POP PUSH2 0x682 DUP3 PUSH2 0x61B JUMP JUMPDEST PUSH1 0x40 DUP3 ADD SWAP1 POP SWAP2 SWAP1 POP JUMP JUMPDEST PUSH1 0x0 PUSH1 0x20 DUP3 ADD SWAP1 POP DUP2 DUP2 SUB PUSH1 0x0 DUP4 ADD MSTORE PUSH2 0x6A6 DUP2 PUSH2 0x66A JUMP JUMPDEST SWAP1 POP SWAP2 SWAP1 POP JUMP JUMPDEST PUSH32 0x4E487B7100000000000000000000000000000000000000000000000000000000 PUSH1 0x0 MSTORE PUSH1 0x11 PUSH1 0x4 MSTORE PUSH1 0x24 PUSH1 0x0 REVERT JUMPDEST PUSH1 0x0 PUSH2 0x6E7 DUP3 PUSH2 0x475 JUMP JUMPDEST SWAP2 POP PUSH2 0x6F2 DUP4 PUSH2 0x475 JUMP JUMPDEST SWAP3 POP DUP3 DUP3 LT ISZERO PUSH2 0x705 JUMPI PUSH2 0x704 PUSH2 0x6AD JUMP JUMPDEST JUMPDEST DUP3 DUP3 SUB SWAP1 POP SWAP3 SWAP2 POP POP JUMP JUMPDEST PUSH32 0x4E487B7100000000000000000000000000000000000000000000000000000000 PUSH1 0x0 MSTORE PUSH1 0x1 PUSH1 0x4 MSTORE PUSH1 0x24 PUSH1 0x0 REVERT JUMPDEST PUSH1 0x0 PUSH2 0x74A DUP3 PUSH2 0x475 JUMP JUMPDEST SWAP2 POP PUSH2 0x755 DUP4 PUSH2 0x475 JUMP JUMPDEST SWAP3 POP DUP3 PUSH32 0xFFFFFFFFFFFFFFFFFFFFFFFFFFFFFFFFFFFFFFFFFFFFFFFFFFFFFFFFFFFFFFFF SUB DUP3 GT ISZERO PUSH2 0x78A JUMPI PUSH2 0x789 PUSH2 0x6AD JUMP JUMPDEST JUMPDEST DUP3 DUP3 ADD SWAP1 POP SWAP3 SWAP2 POP POP JUMP INVALID LOG2 PUSH5 0x6970667358 0x22 SLT KECCAK256 0xBA 0xE DUP10 SELFDESTRUCT 0xDD DUP9 0x2E BASEFEE SWAP16 0x23 0xAD CALLDATACOPY SWAP14 REVERT PUSH2 0x1D2A DIFFICULTY 0xB8 DUP5 TIMESTAMP PUSH26 0x71E0DF93EC8C6EBB8EE564736F6C634300080D00330000000000 "
				},
				"gasEstimates": {
					"creation": {
						"codeDepositCost": "399000",
						"executionCost": "24702",
						"totalCost": "423702"
					},
					"external": {
						"deposit()": "infinite",
						"getBalance()": "2504",
						"transfer(address,uint256)": "infinite"
					},
					"internal": {
						"_transfer(address,address,uint256)": "infinite"
					}
				},
				"methodIdentifiers": {
					"deposit()": "d0e30db0",
					"getBalance()": "12065fe0",
					"transfer(address,uint256)": "a9059cbb"
				}
			},
			"storageLayout": {
				"storage": [
					{
						"astId": 5,
						"contract": "contracts/Bank_Payable-Functions.sol:Bank_Payable",
						"label": "balance",
						"offset": 0,
						"slot": "0",
						"type": "t_mapping(t_address,t_uint256)"
					},
					{
						"astId": 7,
						"contract": "contracts/Bank_Payable-Functions.sol:Bank_Payable",
						"label": "owner",
						"offset": 0,
						"slot": "1",
						"type": "t_address"
					}
				],
				"types": {
					"t_address": {
						"encoding": "inplace",
						"label": "address",
						"numberOfBytes": "20"
					},
					"t_mapping(t_address,t_uint256)": {
						"encoding": "mapping",
						"key": "t_address",
						"label": "mapping(address => uint256)",
						"numberOfBytes": "32",
						"value": "t_uint256"
					},
					"t_uint256": {
						"encoding": "inplace",
						"label": "uint256",
						"numberOfBytes": "32"
					}
				}
			},
			"userdoc": {
				"kind": "user",
				"methods": {},
				"version": 1
			}
		}
	}
}