{
	"contracts/Bank_Payable-Functions.sol": {
		"Bank_Events": {
			"abi": [
				{
					"inputs": [],
					"stateMutability": "nonpayable",
					"type": "constructor"
				},
				{
					"anonymous": false,
					"inputs": [
						{
							"indexed": true,
							"internalType": "uint256",
							"name": "amount",
							"type": "uint256"
						},
						{
							"indexed": true,
							"internalType": "address",
							"name": "depositedTo",
							"type": "address"
						}
					],
					"name": "balanceAdded",
					"type": "event"
				},
				{
					"anonymous": false,
					"inputs": [
						{
							"indexed": true,
							"internalType": "address",
							"name": "from",
							"type": "address"
						},
						{
							"indexed": true,
							"internalType": "address",
							"name": "to",
							"type": "address"
						},
						{
							"indexed": true,
							"internalType": "uint256",
							"name": "amount",
							"type": "uint256"
						}
					],
					"name": "transferedAmount",
					"type": "event"
				},
				{
					"inputs": [
						{
							"internalType": "uint256",
							"name": "_toAdd",
							"type": "uint256"
						}
					],
					"name": "Deposit",
					"outputs": [
						{
							"internalType": "uint256",
							"name": "",
							"type": "uint256"
						}
					],
					"stateMutability": "nonpayable",
					"type": "function"
				},
				{
					"inputs": [],
					"name": "getBalance",
					"outputs": [
						{
							"internalType": "uint256",
							"name": "",
							"type": "uint256"
						}
					],
					"stateMutability": "view",
					"type": "function"
				},
				{
					"inputs": [
						{
							"internalType": "address",
							"name": "recipient",
							"type": "address"
						},
						{
							"internalType": "uint256",
							"name": "amount",
							"type": "uint256"
						}
					],
					"name": "transfer",
					"outputs": [],
					"stateMutability": "nonpayable",
					"type": "function"
				}
			],
			"devdoc": {
				"kind": "dev",
				"methods": {},
				"version": 1
			},
			"evm": {
				"assembly": "    /* \"contracts/Bank_Payable-Functions.sol\":25:1643  contract Bank_Events{... */\n  mstore(0x40, 0x80)\n    /* \"contracts/Bank_Payable-Functions.sol\":538:589  constructor(){... */\n  callvalue\n  dup1\n  iszero\n  tag_1\n  jumpi\n  0x00\n  dup1\n  revert\ntag_1:\n  pop\n    /* \"contracts/Bank_Payable-Functions.sol\":570:580  msg.sender */\n  caller\n    /* \"contracts/Bank_Payable-Functions.sol\":562:567  owner */\n  0x01\n  0x00\n    /* \"contracts/Bank_Payable-Functions.sol\":562:580  owner = msg.sender */\n  0x0100\n  exp\n  dup2\n  sload\n  dup2\n  0xffffffffffffffffffffffffffffffffffffffff\n  mul\n  not\n  and\n  swap1\n  dup4\n  0xffffffffffffffffffffffffffffffffffffffff\n  and\n  mul\n  or\n  swap1\n  sstore\n  pop\n    /* \"contracts/Bank_Payable-Functions.sol\":25:1643  contract Bank_Events{... */\n  dataSize(sub_0)\n  dup1\n  dataOffset(sub_0)\n  0x00\n  codecopy\n  0x00\n  return\nstop\n\nsub_0: assembly {\n        /* \"contracts/Bank_Payable-Functions.sol\":25:1643  contract Bank_Events{... */\n      mstore(0x40, 0x80)\n      callvalue\n      dup1\n      iszero\n      tag_1\n      jumpi\n      0x00\n      dup1\n      revert\n    tag_1:\n      pop\n      jumpi(tag_2, lt(calldatasize, 0x04))\n      shr(0xe0, calldataload(0x00))\n      dup1\n      0x12065fe0\n      eq\n      tag_3\n      jumpi\n      dup1\n      0x4d6ce1e5\n      eq\n      tag_4\n      jumpi\n      dup1\n      0xa9059cbb\n      eq\n      tag_5\n      jumpi\n    tag_2:\n      0x00\n      dup1\n      revert\n        /* \"contracts/Bank_Payable-Functions.sol\":819:913  function getBalance () public view returns (uint){... */\n    tag_3:\n      tag_6\n      tag_7\n      jump\t// in\n    tag_6:\n      mload(0x40)\n      tag_8\n      swap2\n      swap1\n      tag_9\n      jump\t// in\n    tag_8:\n      mload(0x40)\n      dup1\n      swap2\n      sub\n      swap1\n      return\n        /* \"contracts/Bank_Payable-Functions.sol\":597:811  function Deposit (uint _toAdd) public onlyOwner returns (uint){ ... */\n    tag_4:\n      tag_10\n      0x04\n      dup1\n      calldatasize\n      sub\n      dup2\n      add\n      swap1\n      tag_11\n      swap2\n      swap1\n      tag_12\n      jump\t// in\n    tag_11:\n      tag_13\n      jump\t// in\n    tag_10:\n      mload(0x40)\n      tag_14\n      swap2\n      swap1\n      tag_9\n      jump\t// in\n    tag_14:\n      mload(0x40)\n      dup1\n      swap2\n      sub\n      swap1\n      return\n        /* \"contracts/Bank_Payable-Functions.sol\":921:1490  function transfer(address recipient, uint amount) public {... */\n    tag_5:\n      tag_15\n      0x04\n      dup1\n      calldatasize\n      sub\n      dup2\n      add\n      swap1\n      tag_16\n      swap2\n      swap1\n      tag_17\n      jump\t// in\n    tag_16:\n      tag_18\n      jump\t// in\n    tag_15:\n      stop\n        /* \"contracts/Bank_Payable-Functions.sol\":819:913  function getBalance () public view returns (uint){... */\n    tag_7:\n        /* \"contracts/Bank_Payable-Functions.sol\":863:867  uint */\n      0x00\n        /* \"contracts/Bank_Payable-Functions.sol\":886:893  balance */\n      dup1\n        /* \"contracts/Bank_Payable-Functions.sol\":886:905  balance[msg.sender] */\n      0x00\n        /* \"contracts/Bank_Payable-Functions.sol\":894:904  msg.sender */\n      caller\n        /* \"contracts/Bank_Payable-Functions.sol\":886:905  balance[msg.sender] */\n      0xffffffffffffffffffffffffffffffffffffffff\n      and\n      0xffffffffffffffffffffffffffffffffffffffff\n      and\n      dup2\n      mstore\n      0x20\n      add\n      swap1\n      dup2\n      mstore\n      0x20\n      add\n      0x00\n      keccak256\n      sload\n        /* \"contracts/Bank_Payable-Functions.sol\":879:905  return balance[msg.sender] */\n      swap1\n      pop\n        /* \"contracts/Bank_Payable-Functions.sol\":819:913  function getBalance () public view returns (uint){... */\n      swap1\n      jump\t// out\n        /* \"contracts/Bank_Payable-Functions.sol\":597:811  function Deposit (uint _toAdd) public onlyOwner returns (uint){ ... */\n    tag_13:\n        /* \"contracts/Bank_Payable-Functions.sol\":654:658  uint */\n      0x00\n        /* \"contracts/Bank_Payable-Functions.sol\":408:413  owner */\n      0x01\n      0x00\n      swap1\n      sload\n      swap1\n      0x0100\n      exp\n      swap1\n      div\n      0xffffffffffffffffffffffffffffffffffffffff\n      and\n        /* \"contracts/Bank_Payable-Functions.sol\":394:413  msg.sender == owner */\n      0xffffffffffffffffffffffffffffffffffffffff\n      and\n        /* \"contracts/Bank_Payable-Functions.sol\":394:404  msg.sender */\n      caller\n        /* \"contracts/Bank_Payable-Functions.sol\":394:413  msg.sender == owner */\n      0xffffffffffffffffffffffffffffffffffffffff\n      and\n      eq\n        /* \"contracts/Bank_Payable-Functions.sol\":386:414  require(msg.sender == owner) */\n      tag_21\n      jumpi\n      0x00\n      dup1\n      revert\n    tag_21:\n        /* \"contracts/Bank_Payable-Functions.sol\":694:700  _toAdd */\n      dup2\n        /* \"contracts/Bank_Payable-Functions.sol\":671:678  balance */\n      0x00\n        /* \"contracts/Bank_Payable-Functions.sol\":671:690  balance[msg.sender] */\n      dup1\n        /* \"contracts/Bank_Payable-Functions.sol\":679:689  msg.sender */\n      caller\n        /* \"contracts/Bank_Payable-Functions.sol\":671:690  balance[msg.sender] */\n      0xffffffffffffffffffffffffffffffffffffffff\n      and\n      0xffffffffffffffffffffffffffffffffffffffff\n      and\n      dup2\n      mstore\n      0x20\n      add\n      swap1\n      dup2\n      mstore\n      0x20\n      add\n      0x00\n      keccak256\n      0x00\n        /* \"contracts/Bank_Payable-Functions.sol\":671:700  balance[msg.sender] += _toAdd */\n      dup3\n      dup3\n      sload\n      tag_23\n      swap2\n      swap1\n      tag_24\n      jump\t// in\n    tag_23:\n      swap3\n      pop\n      pop\n      dup2\n      swap1\n      sstore\n      pop\n        /* \"contracts/Bank_Payable-Functions.sol\":738:748  msg.sender */\n      caller\n        /* \"contracts/Bank_Payable-Functions.sol\":716:749  balanceAdded (_toAdd, msg.sender) */\n      0xffffffffffffffffffffffffffffffffffffffff\n      and\n        /* \"contracts/Bank_Payable-Functions.sol\":730:736  _toAdd */\n      dup3\n        /* \"contracts/Bank_Payable-Functions.sol\":716:749  balanceAdded (_toAdd, msg.sender) */\n      0xdb42e689d0c993b1eaac62924e67d96c365c40778a39beaaaf6865b061a93f32\n      mload(0x40)\n      mload(0x40)\n      dup1\n      swap2\n      sub\n      swap1\n      log3\n        /* \"contracts/Bank_Payable-Functions.sol\":784:791  balance */\n      0x00\n        /* \"contracts/Bank_Payable-Functions.sol\":784:803  balance[msg.sender] */\n      dup1\n        /* \"contracts/Bank_Payable-Functions.sol\":792:802  msg.sender */\n      caller\n        /* \"contracts/Bank_Payable-Functions.sol\":784:803  balance[msg.sender] */\n      0xffffffffffffffffffffffffffffffffffffffff\n      and\n      0xffffffffffffffffffffffffffffffffffffffff\n      and\n      dup2\n      mstore\n      0x20\n      add\n      swap1\n      dup2\n      mstore\n      0x20\n      add\n      0x00\n      keccak256\n      sload\n        /* \"contracts/Bank_Payable-Functions.sol\":777:803  return balance[msg.sender] */\n      swap1\n      pop\n        /* \"contracts/Bank_Payable-Functions.sol\":597:811  function Deposit (uint _toAdd) public onlyOwner returns (uint){ ... */\n      swap2\n      swap1\n      pop\n      jump\t// out\n        /* \"contracts/Bank_Payable-Functions.sol\":921:1490  function transfer(address recipient, uint amount) public {... */\n    tag_18:\n        /* \"contracts/Bank_Payable-Functions.sol\":1019:1025  amount */\n      dup1\n        /* \"contracts/Bank_Payable-Functions.sol\":997:1004  balance */\n      0x00\n        /* \"contracts/Bank_Payable-Functions.sol\":997:1016  balance[msg.sender] */\n      dup1\n        /* \"contracts/Bank_Payable-Functions.sol\":1005:1015  msg.sender */\n      caller\n        /* \"contracts/Bank_Payable-Functions.sol\":997:1016  balance[msg.sender] */\n      0xffffffffffffffffffffffffffffffffffffffff\n      and\n      0xffffffffffffffffffffffffffffffffffffffff\n      and\n      dup2\n      mstore\n      0x20\n      add\n      swap1\n      dup2\n      mstore\n      0x20\n      add\n      0x00\n      keccak256\n      sload\n        /* \"contracts/Bank_Payable-Functions.sol\":997:1025  balance[msg.sender]>= amount */\n      lt\n      iszero\n        /* \"contracts/Bank_Payable-Functions.sol\":989:1076  require(balance[msg.sender]>= amount,\"ERROR 1_Insufficient balance to transfer funds.\") */\n      tag_26\n      jumpi\n      mload(0x40)\n      0x08c379a000000000000000000000000000000000000000000000000000000000\n      dup2\n      mstore\n      0x04\n      add\n      tag_27\n      swap1\n      tag_28\n      jump\t// in\n    tag_27:\n      mload(0x40)\n      dup1\n      swap2\n      sub\n      swap1\n      revert\n    tag_26:\n        /* \"contracts/Bank_Payable-Functions.sol\":1140:1149  recipient */\n      dup2\n        /* \"contracts/Bank_Payable-Functions.sol\":1126:1149  msg.sender != recipient */\n      0xffffffffffffffffffffffffffffffffffffffff\n      and\n        /* \"contracts/Bank_Payable-Functions.sol\":1126:1136  msg.sender */\n      caller\n        /* \"contracts/Bank_Payable-Functions.sol\":1126:1149  msg.sender != recipient */\n      0xffffffffffffffffffffffffffffffffffffffff\n      and\n      sub\n        /* \"contracts/Bank_Payable-Functions.sol\":1118:1196  require(msg.sender != recipient,\"ERROR 2_The sender cannot be the recipient.\") */\n      tag_29\n      jumpi\n      mload(0x40)\n      0x08c379a000000000000000000000000000000000000000000000000000000000\n      dup2\n      mstore\n      0x04\n      add\n      tag_30\n      swap1\n      tag_31\n      jump\t// in\n    tag_30:\n      mload(0x40)\n      dup1\n      swap2\n      sub\n      swap1\n      revert\n    tag_29:\n        /* \"contracts/Bank_Payable-Functions.sol\":1209:1235  uint previousSenderBalance */\n      0x00\n        /* \"contracts/Bank_Payable-Functions.sol\":1238:1245  balance */\n      dup1\n        /* \"contracts/Bank_Payable-Functions.sol\":1238:1257  balance[msg.sender] */\n      0x00\n        /* \"contracts/Bank_Payable-Functions.sol\":1246:1256  msg.sender */\n      caller\n        /* \"contracts/Bank_Payable-Functions.sol\":1238:1257  balance[msg.sender] */\n      0xffffffffffffffffffffffffffffffffffffffff\n      and\n      0xffffffffffffffffffffffffffffffffffffffff\n      and\n      dup2\n      mstore\n      0x20\n      add\n      swap1\n      dup2\n      mstore\n      0x20\n      add\n      0x00\n      keccak256\n      sload\n        /* \"contracts/Bank_Payable-Functions.sol\":1209:1257  uint previousSenderBalance = balance[msg.sender] */\n      swap1\n      pop\n        /* \"contracts/Bank_Payable-Functions.sol\":1268:1309  _transfer (msg.sender, recipient, amount) */\n      tag_32\n        /* \"contracts/Bank_Payable-Functions.sol\":1279:1289  msg.sender */\n      caller\n        /* \"contracts/Bank_Payable-Functions.sol\":1291:1300  recipient */\n      dup5\n        /* \"contracts/Bank_Payable-Functions.sol\":1302:1308  amount */\n      dup5\n        /* \"contracts/Bank_Payable-Functions.sol\":1268:1277  _transfer */\n      tag_33\n        /* \"contracts/Bank_Payable-Functions.sol\":1268:1309  _transfer (msg.sender, recipient, amount) */\n      jump\t// in\n    tag_32:\n        /* \"contracts/Bank_Payable-Functions.sol\":1367:1373  amount */\n      dup2\n        /* \"contracts/Bank_Payable-Functions.sol\":1356:1365  recipient */\n      dup4\n        /* \"contracts/Bank_Payable-Functions.sol\":1327:1374  transferedAmount(msg.sender, recipient, amount) */\n      0xffffffffffffffffffffffffffffffffffffffff\n      and\n        /* \"contracts/Bank_Payable-Functions.sol\":1344:1354  msg.sender */\n      caller\n        /* \"contracts/Bank_Payable-Functions.sol\":1327:1374  transferedAmount(msg.sender, recipient, amount) */\n      0xffffffffffffffffffffffffffffffffffffffff\n      and\n      0x3573881c639e018e0c3ba3a7d19063f6a7a8205d54eb828319a7f98db00426a0\n      mload(0x40)\n      mload(0x40)\n      dup1\n      swap2\n      sub\n      swap1\n      log4\n        /* \"contracts/Bank_Payable-Functions.sol\":1452:1458  amount */\n      dup2\n        /* \"contracts/Bank_Payable-Functions.sol\":1428:1449  previousSenderBalance */\n      dup2\n        /* \"contracts/Bank_Payable-Functions.sol\":1428:1458  previousSenderBalance - amount */\n      tag_34\n      swap2\n      swap1\n      tag_35\n      jump\t// in\n    tag_34:\n        /* \"contracts/Bank_Payable-Functions.sol\":1405:1412  balance */\n      0x00\n        /* \"contracts/Bank_Payable-Functions.sol\":1405:1424  balance[msg.sender] */\n      dup1\n        /* \"contracts/Bank_Payable-Functions.sol\":1413:1423  msg.sender */\n      caller\n        /* \"contracts/Bank_Payable-Functions.sol\":1405:1424  balance[msg.sender] */\n      0xffffffffffffffffffffffffffffffffffffffff\n      and\n      0xffffffffffffffffffffffffffffffffffffffff\n      and\n      dup2\n      mstore\n      0x20\n      add\n      swap1\n      dup2\n      mstore\n      0x20\n      add\n      0x00\n      keccak256\n      sload\n        /* \"contracts/Bank_Payable-Functions.sol\":1405:1458  balance[msg.sender] == previousSenderBalance - amount */\n      eq\n        /* \"contracts/Bank_Payable-Functions.sol\":1398:1459  assert(balance[msg.sender] == previousSenderBalance - amount) */\n      tag_36\n      jumpi\n      tag_37\n      tag_38\n      jump\t// in\n    tag_37:\n    tag_36:\n        /* \"contracts/Bank_Payable-Functions.sol\":978:1490  {... */\n      pop\n        /* \"contracts/Bank_Payable-Functions.sol\":921:1490  function transfer(address recipient, uint amount) public {... */\n      pop\n      pop\n      jump\t// out\n        /* \"contracts/Bank_Payable-Functions.sol\":1498:1638  function _transfer(address from, address to, uint amount) private {... */\n    tag_33:\n        /* \"contracts/Bank_Payable-Functions.sol\":1592:1598  amount */\n      dup1\n        /* \"contracts/Bank_Payable-Functions.sol\":1575:1582  balance */\n      0x00\n        /* \"contracts/Bank_Payable-Functions.sol\":1575:1588  balance[from] */\n      dup1\n        /* \"contracts/Bank_Payable-Functions.sol\":1583:1587  from */\n      dup6\n        /* \"contracts/Bank_Payable-Functions.sol\":1575:1588  balance[from] */\n      0xffffffffffffffffffffffffffffffffffffffff\n      and\n      0xffffffffffffffffffffffffffffffffffffffff\n      and\n      dup2\n      mstore\n      0x20\n      add\n      swap1\n      dup2\n      mstore\n      0x20\n      add\n      0x00\n      keccak256\n      0x00\n        /* \"contracts/Bank_Payable-Functions.sol\":1575:1598  balance[from] -= amount */\n      dup3\n      dup3\n      sload\n      tag_40\n      swap2\n      swap1\n      tag_35\n      jump\t// in\n    tag_40:\n      swap3\n      pop\n      pop\n      dup2\n      swap1\n      sstore\n      pop\n        /* \"contracts/Bank_Payable-Functions.sol\":1624:1630  amount */\n      dup1\n        /* \"contracts/Bank_Payable-Functions.sol\":1609:1616  balance */\n      0x00\n        /* \"contracts/Bank_Payable-Functions.sol\":1609:1620  balance[to] */\n      dup1\n        /* \"contracts/Bank_Payable-Functions.sol\":1617:1619  to */\n      dup5\n        /* \"contracts/Bank_Payable-Functions.sol\":1609:1620  balance[to] */\n      0xffffffffffffffffffffffffffffffffffffffff\n      and\n      0xffffffffffffffffffffffffffffffffffffffff\n      and\n      dup2\n      mstore\n      0x20\n      add\n      swap1\n      dup2\n      mstore\n      0x20\n      add\n      0x00\n      keccak256\n      0x00\n        /* \"contracts/Bank_Payable-Functions.sol\":1609:1630  balance[to] += amount */\n      dup3\n      dup3\n      sload\n      tag_41\n      swap2\n      swap1\n      tag_24\n      jump\t// in\n    tag_41:\n      swap3\n      pop\n      pop\n      dup2\n      swap1\n      sstore\n      pop\n        /* \"contracts/Bank_Payable-Functions.sol\":1498:1638  function _transfer(address from, address to, uint amount) private {... */\n      pop\n      pop\n      pop\n      jump\t// out\n        /* \"#utility.yul\":7:84   */\n    tag_42:\n        /* \"#utility.yul\":44:51   */\n      0x00\n        /* \"#utility.yul\":73:78   */\n      dup2\n        /* \"#utility.yul\":62:78   */\n      swap1\n      pop\n        /* \"#utility.yul\":7:84   */\n      swap2\n      swap1\n      pop\n      jump\t// out\n        /* \"#utility.yul\":90:208   */\n    tag_43:\n        /* \"#utility.yul\":177:201   */\n      tag_62\n        /* \"#utility.yul\":195:200   */\n      dup2\n        /* \"#utility.yul\":177:201   */\n      tag_42\n      jump\t// in\n    tag_62:\n        /* \"#utility.yul\":172:175   */\n      dup3\n        /* \"#utility.yul\":165:202   */\n      mstore\n        /* \"#utility.yul\":90:208   */\n      pop\n      pop\n      jump\t// out\n        /* \"#utility.yul\":214:436   */\n    tag_9:\n        /* \"#utility.yul\":307:311   */\n      0x00\n        /* \"#utility.yul\":345:347   */\n      0x20\n        /* \"#utility.yul\":334:343   */\n      dup3\n        /* \"#utility.yul\":330:348   */\n      add\n        /* \"#utility.yul\":322:348   */\n      swap1\n      pop\n        /* \"#utility.yul\":358:429   */\n      tag_64\n        /* \"#utility.yul\":426:427   */\n      0x00\n        /* \"#utility.yul\":415:424   */\n      dup4\n        /* \"#utility.yul\":411:428   */\n      add\n        /* \"#utility.yul\":402:408   */\n      dup5\n        /* \"#utility.yul\":358:429   */\n      tag_43\n      jump\t// in\n    tag_64:\n        /* \"#utility.yul\":214:436   */\n      swap3\n      swap2\n      pop\n      pop\n      jump\t// out\n        /* \"#utility.yul\":523:640   */\n    tag_45:\n        /* \"#utility.yul\":632:633   */\n      0x00\n        /* \"#utility.yul\":629:630   */\n      dup1\n        /* \"#utility.yul\":622:634   */\n      revert\n        /* \"#utility.yul\":769:891   */\n    tag_47:\n        /* \"#utility.yul\":842:866   */\n      tag_69\n        /* \"#utility.yul\":860:865   */\n      dup2\n        /* \"#utility.yul\":842:866   */\n      tag_42\n      jump\t// in\n    tag_69:\n        /* \"#utility.yul\":835:840   */\n      dup2\n        /* \"#utility.yul\":832:867   */\n      eq\n        /* \"#utility.yul\":822:885   */\n      tag_70\n      jumpi\n        /* \"#utility.yul\":881:882   */\n      0x00\n        /* \"#utility.yul\":878:879   */\n      dup1\n        /* \"#utility.yul\":871:883   */\n      revert\n        /* \"#utility.yul\":822:885   */\n    tag_70:\n        /* \"#utility.yul\":769:891   */\n      pop\n      jump\t// out\n        /* \"#utility.yul\":897:1036   */\n    tag_48:\n        /* \"#utility.yul\":943:948   */\n      0x00\n        /* \"#utility.yul\":981:987   */\n      dup2\n        /* \"#utility.yul\":968:988   */\n      calldataload\n        /* \"#utility.yul\":959:988   */\n      swap1\n      pop\n        /* \"#utility.yul\":997:1030   */\n      tag_72\n        /* \"#utility.yul\":1024:1029   */\n      dup2\n        /* \"#utility.yul\":997:1030   */\n      tag_47\n      jump\t// in\n    tag_72:\n        /* \"#utility.yul\":897:1036   */\n      swap3\n      swap2\n      pop\n      pop\n      jump\t// out\n        /* \"#utility.yul\":1042:1371   */\n    tag_12:\n        /* \"#utility.yul\":1101:1107   */\n      0x00\n        /* \"#utility.yul\":1150:1152   */\n      0x20\n        /* \"#utility.yul\":1138:1147   */\n      dup3\n        /* \"#utility.yul\":1129:1136   */\n      dup5\n        /* \"#utility.yul\":1125:1148   */\n      sub\n        /* \"#utility.yul\":1121:1153   */\n      slt\n        /* \"#utility.yul\":1118:1237   */\n      iszero\n      tag_74\n      jumpi\n        /* \"#utility.yul\":1156:1235   */\n      tag_75\n      tag_45\n      jump\t// in\n    tag_75:\n        /* \"#utility.yul\":1118:1237   */\n    tag_74:\n        /* \"#utility.yul\":1276:1277   */\n      0x00\n        /* \"#utility.yul\":1301:1354   */\n      tag_76\n        /* \"#utility.yul\":1346:1353   */\n      dup5\n        /* \"#utility.yul\":1337:1343   */\n      dup3\n        /* \"#utility.yul\":1326:1335   */\n      dup6\n        /* \"#utility.yul\":1322:1344   */\n      add\n        /* \"#utility.yul\":1301:1354   */\n      tag_48\n      jump\t// in\n    tag_76:\n        /* \"#utility.yul\":1291:1354   */\n      swap2\n      pop\n        /* \"#utility.yul\":1247:1364   */\n      pop\n        /* \"#utility.yul\":1042:1371   */\n      swap3\n      swap2\n      pop\n      pop\n      jump\t// out\n        /* \"#utility.yul\":1377:1503   */\n    tag_49:\n        /* \"#utility.yul\":1414:1421   */\n      0x00\n        /* \"#utility.yul\":1454:1496   */\n      0xffffffffffffffffffffffffffffffffffffffff\n        /* \"#utility.yul\":1447:1452   */\n      dup3\n        /* \"#utility.yul\":1443:1497   */\n      and\n        /* \"#utility.yul\":1432:1497   */\n      swap1\n      pop\n        /* \"#utility.yul\":1377:1503   */\n      swap2\n      swap1\n      pop\n      jump\t// out\n        /* \"#utility.yul\":1509:1605   */\n    tag_50:\n        /* \"#utility.yul\":1546:1553   */\n      0x00\n        /* \"#utility.yul\":1575:1599   */\n      tag_79\n        /* \"#utility.yul\":1593:1598   */\n      dup3\n        /* \"#utility.yul\":1575:1599   */\n      tag_49\n      jump\t// in\n    tag_79:\n        /* \"#utility.yul\":1564:1599   */\n      swap1\n      pop\n        /* \"#utility.yul\":1509:1605   */\n      swap2\n      swap1\n      pop\n      jump\t// out\n        /* \"#utility.yul\":1611:1733   */\n    tag_51:\n        /* \"#utility.yul\":1684:1708   */\n      tag_81\n        /* \"#utility.yul\":1702:1707   */\n      dup2\n        /* \"#utility.yul\":1684:1708   */\n      tag_50\n      jump\t// in\n    tag_81:\n        /* \"#utility.yul\":1677:1682   */\n      dup2\n        /* \"#utility.yul\":1674:1709   */\n      eq\n        /* \"#utility.yul\":1664:1727   */\n      tag_82\n      jumpi\n        /* \"#utility.yul\":1723:1724   */\n      0x00\n        /* \"#utility.yul\":1720:1721   */\n      dup1\n        /* \"#utility.yul\":1713:1725   */\n      revert\n        /* \"#utility.yul\":1664:1727   */\n    tag_82:\n        /* \"#utility.yul\":1611:1733   */\n      pop\n      jump\t// out\n        /* \"#utility.yul\":1739:1878   */\n    tag_52:\n        /* \"#utility.yul\":1785:1790   */\n      0x00\n        /* \"#utility.yul\":1823:1829   */\n      dup2\n        /* \"#utility.yul\":1810:1830   */\n      calldataload\n        /* \"#utility.yul\":1801:1830   */\n      swap1\n      pop\n        /* \"#utility.yul\":1839:1872   */\n      tag_84\n        /* \"#utility.yul\":1866:1871   */\n      dup2\n        /* \"#utility.yul\":1839:1872   */\n      tag_51\n      jump\t// in\n    tag_84:\n        /* \"#utility.yul\":1739:1878   */\n      swap3\n      swap2\n      pop\n      pop\n      jump\t// out\n        /* \"#utility.yul\":1884:2358   */\n    tag_17:\n        /* \"#utility.yul\":1952:1958   */\n      0x00\n        /* \"#utility.yul\":1960:1966   */\n      dup1\n        /* \"#utility.yul\":2009:2011   */\n      0x40\n        /* \"#utility.yul\":1997:2006   */\n      dup4\n        /* \"#utility.yul\":1988:1995   */\n      dup6\n        /* \"#utility.yul\":1984:2007   */\n      sub\n        /* \"#utility.yul\":1980:2012   */\n      slt\n        /* \"#utility.yul\":1977:2096   */\n      iszero\n      tag_86\n      jumpi\n        /* \"#utility.yul\":2015:2094   */\n      tag_87\n      tag_45\n      jump\t// in\n    tag_87:\n        /* \"#utility.yul\":1977:2096   */\n    tag_86:\n        /* \"#utility.yul\":2135:2136   */\n      0x00\n        /* \"#utility.yul\":2160:2213   */\n      tag_88\n        /* \"#utility.yul\":2205:2212   */\n      dup6\n        /* \"#utility.yul\":2196:2202   */\n      dup3\n        /* \"#utility.yul\":2185:2194   */\n      dup7\n        /* \"#utility.yul\":2181:2203   */\n      add\n        /* \"#utility.yul\":2160:2213   */\n      tag_52\n      jump\t// in\n    tag_88:\n        /* \"#utility.yul\":2150:2213   */\n      swap3\n      pop\n        /* \"#utility.yul\":2106:2223   */\n      pop\n        /* \"#utility.yul\":2262:2264   */\n      0x20\n        /* \"#utility.yul\":2288:2341   */\n      tag_89\n        /* \"#utility.yul\":2333:2340   */\n      dup6\n        /* \"#utility.yul\":2324:2330   */\n      dup3\n        /* \"#utility.yul\":2313:2322   */\n      dup7\n        /* \"#utility.yul\":2309:2331   */\n      add\n        /* \"#utility.yul\":2288:2341   */\n      tag_48\n      jump\t// in\n    tag_89:\n        /* \"#utility.yul\":2278:2341   */\n      swap2\n      pop\n        /* \"#utility.yul\":2233:2351   */\n      pop\n        /* \"#utility.yul\":1884:2358   */\n      swap3\n      pop\n      swap3\n      swap1\n      pop\n      jump\t// out\n        /* \"#utility.yul\":2364:2544   */\n    tag_53:\n        /* \"#utility.yul\":2412:2489   */\n      0x4e487b7100000000000000000000000000000000000000000000000000000000\n        /* \"#utility.yul\":2409:2410   */\n      0x00\n        /* \"#utility.yul\":2402:2490   */\n      mstore\n        /* \"#utility.yul\":2509:2513   */\n      0x11\n        /* \"#utility.yul\":2506:2507   */\n      0x04\n        /* \"#utility.yul\":2499:2514   */\n      mstore\n        /* \"#utility.yul\":2533:2537   */\n      0x24\n        /* \"#utility.yul\":2530:2531   */\n      0x00\n        /* \"#utility.yul\":2523:2538   */\n      revert\n        /* \"#utility.yul\":2550:2855   */\n    tag_24:\n        /* \"#utility.yul\":2590:2593   */\n      0x00\n        /* \"#utility.yul\":2609:2629   */\n      tag_92\n        /* \"#utility.yul\":2627:2628   */\n      dup3\n        /* \"#utility.yul\":2609:2629   */\n      tag_42\n      jump\t// in\n    tag_92:\n        /* \"#utility.yul\":2604:2629   */\n      swap2\n      pop\n        /* \"#utility.yul\":2643:2663   */\n      tag_93\n        /* \"#utility.yul\":2661:2662   */\n      dup4\n        /* \"#utility.yul\":2643:2663   */\n      tag_42\n      jump\t// in\n    tag_93:\n        /* \"#utility.yul\":2638:2663   */\n      swap3\n      pop\n        /* \"#utility.yul\":2797:2798   */\n      dup3\n        /* \"#utility.yul\":2729:2795   */\n      0xffffffffffffffffffffffffffffffffffffffffffffffffffffffffffffffff\n        /* \"#utility.yul\":2725:2799   */\n      sub\n        /* \"#utility.yul\":2722:2723   */\n      dup3\n        /* \"#utility.yul\":2719:2800   */\n      gt\n        /* \"#utility.yul\":2716:2823   */\n      iszero\n      tag_94\n      jumpi\n        /* \"#utility.yul\":2803:2821   */\n      tag_95\n      tag_53\n      jump\t// in\n    tag_95:\n        /* \"#utility.yul\":2716:2823   */\n    tag_94:\n        /* \"#utility.yul\":2847:2848   */\n      dup3\n        /* \"#utility.yul\":2844:2845   */\n      dup3\n        /* \"#utility.yul\":2840:2849   */\n      add\n        /* \"#utility.yul\":2833:2849   */\n      swap1\n      pop\n        /* \"#utility.yul\":2550:2855   */\n      swap3\n      swap2\n      pop\n      pop\n      jump\t// out\n        /* \"#utility.yul\":2861:3030   */\n    tag_54:\n        /* \"#utility.yul\":2945:2956   */\n      0x00\n        /* \"#utility.yul\":2979:2985   */\n      dup3\n        /* \"#utility.yul\":2974:2977   */\n      dup3\n        /* \"#utility.yul\":2967:2986   */\n      mstore\n        /* \"#utility.yul\":3019:3023   */\n      0x20\n        /* \"#utility.yul\":3014:3017   */\n      dup3\n        /* \"#utility.yul\":3010:3024   */\n      add\n        /* \"#utility.yul\":2995:3024   */\n      swap1\n      pop\n        /* \"#utility.yul\":2861:3030   */\n      swap3\n      swap2\n      pop\n      pop\n      jump\t// out\n        /* \"#utility.yul\":3036:3270   */\n    tag_55:\n        /* \"#utility.yul\":3176:3210   */\n      0x4552524f5220315f496e73756666696369656e742062616c616e636520746f20\n        /* \"#utility.yul\":3172:3173   */\n      0x00\n        /* \"#utility.yul\":3164:3170   */\n      dup3\n        /* \"#utility.yul\":3160:3174   */\n      add\n        /* \"#utility.yul\":3153:3211   */\n      mstore\n        /* \"#utility.yul\":3245:3262   */\n      0x7472616e736665722066756e64732e0000000000000000000000000000000000\n        /* \"#utility.yul\":3240:3242   */\n      0x20\n        /* \"#utility.yul\":3232:3238   */\n      dup3\n        /* \"#utility.yul\":3228:3243   */\n      add\n        /* \"#utility.yul\":3221:3263   */\n      mstore\n        /* \"#utility.yul\":3036:3270   */\n      pop\n      jump\t// out\n        /* \"#utility.yul\":3276:3642   */\n    tag_56:\n        /* \"#utility.yul\":3418:3421   */\n      0x00\n        /* \"#utility.yul\":3439:3506   */\n      tag_99\n        /* \"#utility.yul\":3503:3505   */\n      0x2f\n        /* \"#utility.yul\":3498:3501   */\n      dup4\n        /* \"#utility.yul\":3439:3506   */\n      tag_54\n      jump\t// in\n    tag_99:\n        /* \"#utility.yul\":3432:3506   */\n      swap2\n      pop\n        /* \"#utility.yul\":3515:3608   */\n      tag_100\n        /* \"#utility.yul\":3604:3607   */\n      dup3\n        /* \"#utility.yul\":3515:3608   */\n      tag_55\n      jump\t// in\n    tag_100:\n        /* \"#utility.yul\":3633:3635   */\n      0x40\n        /* \"#utility.yul\":3628:3631   */\n      dup3\n        /* \"#utility.yul\":3624:3636   */\n      add\n        /* \"#utility.yul\":3617:3636   */\n      swap1\n      pop\n        /* \"#utility.yul\":3276:3642   */\n      swap2\n      swap1\n      pop\n      jump\t// out\n        /* \"#utility.yul\":3648:4067   */\n    tag_28:\n        /* \"#utility.yul\":3814:3818   */\n      0x00\n        /* \"#utility.yul\":3852:3854   */\n      0x20\n        /* \"#utility.yul\":3841:3850   */\n      dup3\n        /* \"#utility.yul\":3837:3855   */\n      add\n        /* \"#utility.yul\":3829:3855   */\n      swap1\n      pop\n        /* \"#utility.yul\":3901:3910   */\n      dup2\n        /* \"#utility.yul\":3895:3899   */\n      dup2\n        /* \"#utility.yul\":3891:3911   */\n      sub\n        /* \"#utility.yul\":3887:3888   */\n      0x00\n        /* \"#utility.yul\":3876:3885   */\n      dup4\n        /* \"#utility.yul\":3872:3889   */\n      add\n        /* \"#utility.yul\":3865:3912   */\n      mstore\n        /* \"#utility.yul\":3929:4060   */\n      tag_102\n        /* \"#utility.yul\":4055:4059   */\n      dup2\n        /* \"#utility.yul\":3929:4060   */\n      tag_56\n      jump\t// in\n    tag_102:\n        /* \"#utility.yul\":3921:4060   */\n      swap1\n      pop\n        /* \"#utility.yul\":3648:4067   */\n      swap2\n      swap1\n      pop\n      jump\t// out\n        /* \"#utility.yul\":4073:4303   */\n    tag_57:\n        /* \"#utility.yul\":4213:4247   */\n      0x4552524f5220325f5468652073656e6465722063616e6e6f7420626520746865\n        /* \"#utility.yul\":4209:4210   */\n      0x00\n        /* \"#utility.yul\":4201:4207   */\n      dup3\n        /* \"#utility.yul\":4197:4211   */\n      add\n        /* \"#utility.yul\":4190:4248   */\n      mstore\n        /* \"#utility.yul\":4282:4295   */\n      0x20726563697069656e742e000000000000000000000000000000000000000000\n        /* \"#utility.yul\":4277:4279   */\n      0x20\n        /* \"#utility.yul\":4269:4275   */\n      dup3\n        /* \"#utility.yul\":4265:4280   */\n      add\n        /* \"#utility.yul\":4258:4296   */\n      mstore\n        /* \"#utility.yul\":4073:4303   */\n      pop\n      jump\t// out\n        /* \"#utility.yul\":4309:4675   */\n    tag_58:\n        /* \"#utility.yul\":4451:4454   */\n      0x00\n        /* \"#utility.yul\":4472:4539   */\n      tag_105\n        /* \"#utility.yul\":4536:4538   */\n      0x2b\n        /* \"#utility.yul\":4531:4534   */\n      dup4\n        /* \"#utility.yul\":4472:4539   */\n      tag_54\n      jump\t// in\n    tag_105:\n        /* \"#utility.yul\":4465:4539   */\n      swap2\n      pop\n        /* \"#utility.yul\":4548:4641   */\n      tag_106\n        /* \"#utility.yul\":4637:4640   */\n      dup3\n        /* \"#utility.yul\":4548:4641   */\n      tag_57\n      jump\t// in\n    tag_106:\n        /* \"#utility.yul\":4666:4668   */\n      0x40\n        /* \"#utility.yul\":4661:4664   */\n      dup3\n        /* \"#utility.yul\":4657:4669   */\n      add\n        /* \"#utility.yul\":4650:4669   */\n      swap1\n      pop\n        /* \"#utility.yul\":4309:4675   */\n      swap2\n      swap1\n      pop\n      jump\t// out\n        /* \"#utility.yul\":4681:5100   */\n    tag_31:\n        /* \"#utility.yul\":4847:4851   */\n      0x00\n        /* \"#utility.yul\":4885:4887   */\n      0x20\n        /* \"#utility.yul\":4874:4883   */\n      dup3\n        /* \"#utility.yul\":4870:4888   */\n      add\n        /* \"#utility.yul\":4862:4888   */\n      swap1\n      pop\n        /* \"#utility.yul\":4934:4943   */\n      dup2\n        /* \"#utility.yul\":4928:4932   */\n      dup2\n        /* \"#utility.yul\":4924:4944   */\n      sub\n        /* \"#utility.yul\":4920:4921   */\n      0x00\n        /* \"#utility.yul\":4909:4918   */\n      dup4\n        /* \"#utility.yul\":4905:4922   */\n      add\n        /* \"#utility.yul\":4898:4945   */\n      mstore\n        /* \"#utility.yul\":4962:5093   */\n      tag_108\n        /* \"#utility.yul\":5088:5092   */\n      dup2\n        /* \"#utility.yul\":4962:5093   */\n      tag_58\n      jump\t// in\n    tag_108:\n        /* \"#utility.yul\":4954:5093   */\n      swap1\n      pop\n        /* \"#utility.yul\":4681:5100   */\n      swap2\n      swap1\n      pop\n      jump\t// out\n        /* \"#utility.yul\":5106:5297   */\n    tag_35:\n        /* \"#utility.yul\":5146:5150   */\n      0x00\n        /* \"#utility.yul\":5166:5186   */\n      tag_110\n        /* \"#utility.yul\":5184:5185   */\n      dup3\n        /* \"#utility.yul\":5166:5186   */\n      tag_42\n      jump\t// in\n    tag_110:\n        /* \"#utility.yul\":5161:5186   */\n      swap2\n      pop\n        /* \"#utility.yul\":5200:5220   */\n      tag_111\n        /* \"#utility.yul\":5218:5219   */\n      dup4\n        /* \"#utility.yul\":5200:5220   */\n      tag_42\n      jump\t// in\n    tag_111:\n        /* \"#utility.yul\":5195:5220   */\n      swap3\n      pop\n        /* \"#utility.yul\":5239:5240   */\n      dup3\n        /* \"#utility.yul\":5236:5237   */\n      dup3\n        /* \"#utility.yul\":5233:5241   */\n      lt\n        /* \"#utility.yul\":5230:5264   */\n      iszero\n      tag_112\n      jumpi\n        /* \"#utility.yul\":5244:5262   */\n      tag_113\n      tag_53\n      jump\t// in\n    tag_113:\n        /* \"#utility.yul\":5230:5264   */\n    tag_112:\n        /* \"#utility.yul\":5289:5290   */\n      dup3\n        /* \"#utility.yul\":5286:5287   */\n      dup3\n        /* \"#utility.yul\":5282:5291   */\n      sub\n        /* \"#utility.yul\":5274:5291   */\n      swap1\n      pop\n        /* \"#utility.yul\":5106:5297   */\n      swap3\n      swap2\n      pop\n      pop\n      jump\t// out\n        /* \"#utility.yul\":5303:5483   */\n    tag_38:\n        /* \"#utility.yul\":5351:5428   */\n      0x4e487b7100000000000000000000000000000000000000000000000000000000\n        /* \"#utility.yul\":5348:5349   */\n      0x00\n        /* \"#utility.yul\":5341:5429   */\n      mstore\n        /* \"#utility.yul\":5448:5452   */\n      0x01\n        /* \"#utility.yul\":5445:5446   */\n      0x04\n        /* \"#utility.yul\":5438:5453   */\n      mstore\n        /* \"#utility.yul\":5472:5476   */\n      0x24\n        /* \"#utility.yul\":5469:5470   */\n      0x00\n        /* \"#utility.yul\":5462:5477   */\n      revert\n\n    auxdata: 0xa26469706673582212202e0ed275f03d505154cdac70f570c26679411d5f9386396c45710f96d369e95164736f6c634300080d0033\n}\n",
				"bytecode": {
					"linkReferences": {},
					"object": "608060405234801561001057600080fd5b5033600160006101000a81548173ffffffffffffffffffffffffffffffffffffffff021916908373ffffffffffffffffffffffffffffffffffffffff160217905550610859806100616000396000f3fe608060405234801561001057600080fd5b50600436106100415760003560e01c806312065fe0146100465780634d6ce1e514610064578063a9059cbb14610094575b600080fd5b61004e6100b0565b60405161005b91906104ef565b60405180910390f35b61007e6004803603810190610079919061053b565b6100f6565b60405161008b91906104ef565b60405180910390f35b6100ae60048036038101906100a991906105c6565b610231565b005b60008060003373ffffffffffffffffffffffffffffffffffffffff1673ffffffffffffffffffffffffffffffffffffffff16815260200190815260200160002054905090565b6000600160009054906101000a900473ffffffffffffffffffffffffffffffffffffffff1673ffffffffffffffffffffffffffffffffffffffff163373ffffffffffffffffffffffffffffffffffffffff161461015257600080fd5b816000803373ffffffffffffffffffffffffffffffffffffffff1673ffffffffffffffffffffffffffffffffffffffff16815260200190815260200160002060008282546101a09190610635565b925050819055503373ffffffffffffffffffffffffffffffffffffffff16827fdb42e689d0c993b1eaac62924e67d96c365c40778a39beaaaf6865b061a93f3260405160405180910390a36000803373ffffffffffffffffffffffffffffffffffffffff1673ffffffffffffffffffffffffffffffffffffffff168152602001908152602001600020549050919050565b806000803373ffffffffffffffffffffffffffffffffffffffff1673ffffffffffffffffffffffffffffffffffffffff1681526020019081526020016000205410156102b2576040517f08c379a00000000000000000000000000000000000000000000000000000000081526004016102a99061070e565b60405180910390fd5b8173ffffffffffffffffffffffffffffffffffffffff163373ffffffffffffffffffffffffffffffffffffffff1603610320576040517f08c379a0000000000000000000000000000000000000000000000000000000008152600401610317906107a0565b60405180910390fd5b60008060003373ffffffffffffffffffffffffffffffffffffffff1673ffffffffffffffffffffffffffffffffffffffff16815260200190815260200160002054905061036e338484610427565b818373ffffffffffffffffffffffffffffffffffffffff163373ffffffffffffffffffffffffffffffffffffffff167f3573881c639e018e0c3ba3a7d19063f6a7a8205d54eb828319a7f98db00426a060405160405180910390a481816103d591906107c0565b6000803373ffffffffffffffffffffffffffffffffffffffff1673ffffffffffffffffffffffffffffffffffffffff1681526020019081526020016000205414610422576104216107f4565b5b505050565b806000808573ffffffffffffffffffffffffffffffffffffffff1673ffffffffffffffffffffffffffffffffffffffff168152602001908152602001600020600082825461047591906107c0565b92505081905550806000808473ffffffffffffffffffffffffffffffffffffffff1673ffffffffffffffffffffffffffffffffffffffff16815260200190815260200160002060008282546104ca9190610635565b92505081905550505050565b6000819050919050565b6104e9816104d6565b82525050565b600060208201905061050460008301846104e0565b92915050565b600080fd5b610518816104d6565b811461052357600080fd5b50565b6000813590506105358161050f565b92915050565b6000602082840312156105515761055061050a565b5b600061055f84828501610526565b91505092915050565b600073ffffffffffffffffffffffffffffffffffffffff82169050919050565b600061059382610568565b9050919050565b6105a381610588565b81146105ae57600080fd5b50565b6000813590506105c08161059a565b92915050565b600080604083850312156105dd576105dc61050a565b5b60006105eb858286016105b1565b92505060206105fc85828601610526565b9150509250929050565b7f4e487b7100000000000000000000000000000000000000000000000000000000600052601160045260246000fd5b6000610640826104d6565b915061064b836104d6565b9250827fffffffffffffffffffffffffffffffffffffffffffffffffffffffffffffffff038211156106805761067f610606565b5b828201905092915050565b600082825260208201905092915050565b7f4552524f5220315f496e73756666696369656e742062616c616e636520746f2060008201527f7472616e736665722066756e64732e0000000000000000000000000000000000602082015250565b60006106f8602f8361068b565b91506107038261069c565b604082019050919050565b60006020820190508181036000830152610727816106eb565b9050919050565b7f4552524f5220325f5468652073656e6465722063616e6e6f742062652074686560008201527f20726563697069656e742e000000000000000000000000000000000000000000602082015250565b600061078a602b8361068b565b91506107958261072e565b604082019050919050565b600060208201905081810360008301526107b98161077d565b9050919050565b60006107cb826104d6565b91506107d6836104d6565b9250828210156107e9576107e8610606565b5b828203905092915050565b7f4e487b7100000000000000000000000000000000000000000000000000000000600052600160045260246000fdfea26469706673582212202e0ed275f03d505154cdac70f570c26679411d5f9386396c45710f96d369e95164736f6c634300080d0033",
					"opcodes": "PUSH1 0x80 PUSH1 0x40 MSTORE CALLVALUE DUP1 ISZERO PUSH2 0x10 JUMPI PUSH1 0x0 DUP1 REVERT JUMPDEST POP CALLER PUSH1 0x1 PUSH1 0x0 PUSH2 0x100 EXP DUP2 SLOAD DUP2 PUSH20 0xFFFFFFFFFFFFFFFFFFFFFFFFFFFFFFFFFFFFFFFF MUL NOT AND SWAP1 DUP4 PUSH20 0xFFFFFFFFFFFFFFFFFFFFFFFFFFFFFFFFFFFFFFFF AND MUL OR SWAP1 SSTORE POP PUSH2 0x859 DUP1 PUSH2 0x61 PUSH1 0x0 CODECOPY PUSH1 0x0 RETURN INVALID PUSH1 0x80 PUSH1 0x40 MSTORE CALLVALUE DUP1 ISZERO PUSH2 0x10 JUMPI PUSH1 0x0 DUP1 REVERT JUMPDEST POP PUSH1 0x4 CALLDATASIZE LT PUSH2 0x41 JUMPI PUSH1 0x0 CALLDATALOAD PUSH1 0xE0 SHR DUP1 PUSH4 0x12065FE0 EQ PUSH2 0x46 JUMPI DUP1 PUSH4 0x4D6CE1E5 EQ PUSH2 0x64 JUMPI DUP1 PUSH4 0xA9059CBB EQ PUSH2 0x94 JUMPI JUMPDEST PUSH1 0x0 DUP1 REVERT JUMPDEST PUSH2 0x4E PUSH2 0xB0 JUMP JUMPDEST PUSH1 0x40 MLOAD PUSH2 0x5B SWAP2 SWAP1 PUSH2 0x4EF JUMP JUMPDEST PUSH1 0x40 MLOAD DUP1 SWAP2 SUB SWAP1 RETURN JUMPDEST PUSH2 0x7E PUSH1 0x4 DUP1 CALLDATASIZE SUB DUP2 ADD SWAP1 PUSH2 0x79 SWAP2 SWAP1 PUSH2 0x53B JUMP JUMPDEST PUSH2 0xF6 JUMP JUMPDEST PUSH1 0x40 MLOAD PUSH2 0x8B SWAP2 SWAP1 PUSH2 0x4EF JUMP JUMPDEST PUSH1 0x40 MLOAD DUP1 SWAP2 SUB SWAP1 RETURN JUMPDEST PUSH2 0xAE PUSH1 0x4 DUP1 CALLDATASIZE SUB DUP2 ADD SWAP1 PUSH2 0xA9 SWAP2 SWAP1 PUSH2 0x5C6 JUMP JUMPDEST PUSH2 0x231 JUMP JUMPDEST STOP JUMPDEST PUSH1 0x0 DUP1 PUSH1 0x0 CALLER PUSH20 0xFFFFFFFFFFFFFFFFFFFFFFFFFFFFFFFFFFFFFFFF AND PUSH20 0xFFFFFFFFFFFFFFFFFFFFFFFFFFFFFFFFFFFFFFFF AND DUP2 MSTORE PUSH1 0x20 ADD SWAP1 DUP2 MSTORE PUSH1 0x20 ADD PUSH1 0x0 KECCAK256 SLOAD SWAP1 POP SWAP1 JUMP JUMPDEST PUSH1 0x0 PUSH1 0x1 PUSH1 0x0 SWAP1 SLOAD SWAP1 PUSH2 0x100 EXP SWAP1 DIV PUSH20 0xFFFFFFFFFFFFFFFFFFFFFFFFFFFFFFFFFFFFFFFF AND PUSH20 0xFFFFFFFFFFFFFFFFFFFFFFFFFFFFFFFFFFFFFFFF AND CALLER PUSH20 0xFFFFFFFFFFFFFFFFFFFFFFFFFFFFFFFFFFFFFFFF AND EQ PUSH2 0x152 JUMPI PUSH1 0x0 DUP1 REVERT JUMPDEST DUP2 PUSH1 0x0 DUP1 CALLER PUSH20 0xFFFFFFFFFFFFFFFFFFFFFFFFFFFFFFFFFFFFFFFF AND PUSH20 0xFFFFFFFFFFFFFFFFFFFFFFFFFFFFFFFFFFFFFFFF AND DUP2 MSTORE PUSH1 0x20 ADD SWAP1 DUP2 MSTORE PUSH1 0x20 ADD PUSH1 0x0 KECCAK256 PUSH1 0x0 DUP3 DUP3 SLOAD PUSH2 0x1A0 SWAP2 SWAP1 PUSH2 0x635 JUMP JUMPDEST SWAP3 POP POP DUP2 SWAP1 SSTORE POP CALLER PUSH20 0xFFFFFFFFFFFFFFFFFFFFFFFFFFFFFFFFFFFFFFFF AND DUP3 PUSH32 0xDB42E689D0C993B1EAAC62924E67D96C365C40778A39BEAAAF6865B061A93F32 PUSH1 0x40 MLOAD PUSH1 0x40 MLOAD DUP1 SWAP2 SUB SWAP1 LOG3 PUSH1 0x0 DUP1 CALLER PUSH20 0xFFFFFFFFFFFFFFFFFFFFFFFFFFFFFFFFFFFFFFFF AND PUSH20 0xFFFFFFFFFFFFFFFFFFFFFFFFFFFFFFFFFFFFFFFF AND DUP2 MSTORE PUSH1 0x20 ADD SWAP1 DUP2 MSTORE PUSH1 0x20 ADD PUSH1 0x0 KECCAK256 SLOAD SWAP1 POP SWAP2 SWAP1 POP JUMP JUMPDEST DUP1 PUSH1 0x0 DUP1 CALLER PUSH20 0xFFFFFFFFFFFFFFFFFFFFFFFFFFFFFFFFFFFFFFFF AND PUSH20 0xFFFFFFFFFFFFFFFFFFFFFFFFFFFFFFFFFFFFFFFF AND DUP2 MSTORE PUSH1 0x20 ADD SWAP1 DUP2 MSTORE PUSH1 0x20 ADD PUSH1 0x0 KECCAK256 SLOAD LT ISZERO PUSH2 0x2B2 JUMPI PUSH1 0x40 MLOAD PUSH32 0x8C379A000000000000000000000000000000000000000000000000000000000 DUP2 MSTORE PUSH1 0x4 ADD PUSH2 0x2A9 SWAP1 PUSH2 0x70E JUMP JUMPDEST PUSH1 0x40 MLOAD DUP1 SWAP2 SUB SWAP1 REVERT JUMPDEST DUP2 PUSH20 0xFFFFFFFFFFFFFFFFFFFFFFFFFFFFFFFFFFFFFFFF AND CALLER PUSH20 0xFFFFFFFFFFFFFFFFFFFFFFFFFFFFFFFFFFFFFFFF AND SUB PUSH2 0x320 JUMPI PUSH1 0x40 MLOAD PUSH32 0x8C379A000000000000000000000000000000000000000000000000000000000 DUP2 MSTORE PUSH1 0x4 ADD PUSH2 0x317 SWAP1 PUSH2 0x7A0 JUMP JUMPDEST PUSH1 0x40 MLOAD DUP1 SWAP2 SUB SWAP1 REVERT JUMPDEST PUSH1 0x0 DUP1 PUSH1 0x0 CALLER PUSH20 0xFFFFFFFFFFFFFFFFFFFFFFFFFFFFFFFFFFFFFFFF AND PUSH20 0xFFFFFFFFFFFFFFFFFFFFFFFFFFFFFFFFFFFFFFFF AND DUP2 MSTORE PUSH1 0x20 ADD SWAP1 DUP2 MSTORE PUSH1 0x20 ADD PUSH1 0x0 KECCAK256 SLOAD SWAP1 POP PUSH2 0x36E CALLER DUP5 DUP5 PUSH2 0x427 JUMP JUMPDEST DUP2 DUP4 PUSH20 0xFFFFFFFFFFFFFFFFFFFFFFFFFFFFFFFFFFFFFFFF AND CALLER PUSH20 0xFFFFFFFFFFFFFFFFFFFFFFFFFFFFFFFFFFFFFFFF AND PUSH32 0x3573881C639E018E0C3BA3A7D19063F6A7A8205D54EB828319A7F98DB00426A0 PUSH1 0x40 MLOAD PUSH1 0x40 MLOAD DUP1 SWAP2 SUB SWAP1 LOG4 DUP2 DUP2 PUSH2 0x3D5 SWAP2 SWAP1 PUSH2 0x7C0 JUMP JUMPDEST PUSH1 0x0 DUP1 CALLER PUSH20 0xFFFFFFFFFFFFFFFFFFFFFFFFFFFFFFFFFFFFFFFF AND PUSH20 0xFFFFFFFFFFFFFFFFFFFFFFFFFFFFFFFFFFFFFFFF AND DUP2 MSTORE PUSH1 0x20 ADD SWAP1 DUP2 MSTORE PUSH1 0x20 ADD PUSH1 0x0 KECCAK256 SLOAD EQ PUSH2 0x422 JUMPI PUSH2 0x421 PUSH2 0x7F4 JUMP JUMPDEST JUMPDEST POP POP POP JUMP JUMPDEST DUP1 PUSH1 0x0 DUP1 DUP6 PUSH20 0xFFFFFFFFFFFFFFFFFFFFFFFFFFFFFFFFFFFFFFFF AND PUSH20 0xFFFFFFFFFFFFFFFFFFFFFFFFFFFFFFFFFFFFFFFF AND DUP2 MSTORE PUSH1 0x20 ADD SWAP1 DUP2 MSTORE PUSH1 0x20 ADD PUSH1 0x0 KECCAK256 PUSH1 0x0 DUP3 DUP3 SLOAD PUSH2 0x475 SWAP2 SWAP1 PUSH2 0x7C0 JUMP JUMPDEST SWAP3 POP POP DUP2 SWAP1 SSTORE POP DUP1 PUSH1 0x0 DUP1 DUP5 PUSH20 0xFFFFFFFFFFFFFFFFFFFFFFFFFFFFFFFFFFFFFFFF AND PUSH20 0xFFFFFFFFFFFFFFFFFFFFFFFFFFFFFFFFFFFFFFFF AND DUP2 MSTORE PUSH1 0x20 ADD SWAP1 DUP2 MSTORE PUSH1 0x20 ADD PUSH1 0x0 KECCAK256 PUSH1 0x0 DUP3 DUP3 SLOAD PUSH2 0x4CA SWAP2 SWAP1 PUSH2 0x635 JUMP JUMPDEST SWAP3 POP POP DUP2 SWAP1 SSTORE POP POP POP POP JUMP JUMPDEST PUSH1 0x0 DUP2 SWAP1 POP SWAP2 SWAP1 POP JUMP JUMPDEST PUSH2 0x4E9 DUP2 PUSH2 0x4D6 JUMP JUMPDEST DUP3 MSTORE POP POP JUMP JUMPDEST PUSH1 0x0 PUSH1 0x20 DUP3 ADD SWAP1 POP PUSH2 0x504 PUSH1 0x0 DUP4 ADD DUP5 PUSH2 0x4E0 JUMP JUMPDEST SWAP3 SWAP2 POP POP JUMP JUMPDEST PUSH1 0x0 DUP1 REVERT JUMPDEST PUSH2 0x518 DUP2 PUSH2 0x4D6 JUMP JUMPDEST DUP2 EQ PUSH2 0x523 JUMPI PUSH1 0x0 DUP1 REVERT JUMPDEST POP JUMP JUMPDEST PUSH1 0x0 DUP2 CALLDATALOAD SWAP1 POP PUSH2 0x535 DUP2 PUSH2 0x50F JUMP JUMPDEST SWAP3 SWAP2 POP POP JUMP JUMPDEST PUSH1 0x0 PUSH1 0x20 DUP3 DUP5 SUB SLT ISZERO PUSH2 0x551 JUMPI PUSH2 0x550 PUSH2 0x50A JUMP JUMPDEST JUMPDEST PUSH1 0x0 PUSH2 0x55F DUP5 DUP3 DUP6 ADD PUSH2 0x526 JUMP JUMPDEST SWAP2 POP POP SWAP3 SWAP2 POP POP JUMP JUMPDEST PUSH1 0x0 PUSH20 0xFFFFFFFFFFFFFFFFFFFFFFFFFFFFFFFFFFFFFFFF DUP3 AND SWAP1 POP SWAP2 SWAP1 POP JUMP JUMPDEST PUSH1 0x0 PUSH2 0x593 DUP3 PUSH2 0x568 JUMP JUMPDEST SWAP1 POP SWAP2 SWAP1 POP JUMP JUMPDEST PUSH2 0x5A3 DUP2 PUSH2 0x588 JUMP JUMPDEST DUP2 EQ PUSH2 0x5AE JUMPI PUSH1 0x0 DUP1 REVERT JUMPDEST POP JUMP JUMPDEST PUSH1 0x0 DUP2 CALLDATALOAD SWAP1 POP PUSH2 0x5C0 DUP2 PUSH2 0x59A JUMP JUMPDEST SWAP3 SWAP2 POP POP JUMP JUMPDEST PUSH1 0x0 DUP1 PUSH1 0x40 DUP4 DUP6 SUB SLT ISZERO PUSH2 0x5DD JUMPI PUSH2 0x5DC PUSH2 0x50A JUMP JUMPDEST JUMPDEST PUSH1 0x0 PUSH2 0x5EB DUP6 DUP3 DUP7 ADD PUSH2 0x5B1 JUMP JUMPDEST SWAP3 POP POP PUSH1 0x20 PUSH2 0x5FC DUP6 DUP3 DUP7 ADD PUSH2 0x526 JUMP JUMPDEST SWAP2 POP POP SWAP3 POP SWAP3 SWAP1 POP JUMP JUMPDEST PUSH32 0x4E487B7100000000000000000000000000000000000000000000000000000000 PUSH1 0x0 MSTORE PUSH1 0x11 PUSH1 0x4 MSTORE PUSH1 0x24 PUSH1 0x0 REVERT JUMPDEST PUSH1 0x0 PUSH2 0x640 DUP3 PUSH2 0x4D6 JUMP JUMPDEST SWAP2 POP PUSH2 0x64B DUP4 PUSH2 0x4D6 JUMP JUMPDEST SWAP3 POP DUP3 PUSH32 0xFFFFFFFFFFFFFFFFFFFFFFFFFFFFFFFFFFFFFFFFFFFFFFFFFFFFFFFFFFFFFFFF SUB DUP3 GT ISZERO PUSH2 0x680 JUMPI PUSH2 0x67F PUSH2 0x606 JUMP JUMPDEST JUMPDEST DUP3 DUP3 ADD SWAP1 POP SWAP3 SWAP2 POP POP JUMP JUMPDEST PUSH1 0x0 DUP3 DUP3 MSTORE PUSH1 0x20 DUP3 ADD SWAP1 POP SWAP3 SWAP2 POP POP JUMP JUMPDEST PUSH32 0x4552524F5220315F496E73756666696369656E742062616C616E636520746F20 PUSH1 0x0 DUP3 ADD MSTORE PUSH32 0x7472616E736665722066756E64732E0000000000000000000000000000000000 PUSH1 0x20 DUP3 ADD MSTORE POP JUMP JUMPDEST PUSH1 0x0 PUSH2 0x6F8 PUSH1 0x2F DUP4 PUSH2 0x68B JUMP JUMPDEST SWAP2 POP PUSH2 0x703 DUP3 PUSH2 0x69C JUMP JUMPDEST PUSH1 0x40 DUP3 ADD SWAP1 POP SWAP2 SWAP1 POP JUMP JUMPDEST PUSH1 0x0 PUSH1 0x20 DUP3 ADD SWAP1 POP DUP2 DUP2 SUB PUSH1 0x0 DUP4 ADD MSTORE PUSH2 0x727 DUP2 PUSH2 0x6EB JUMP JUMPDEST SWAP1 POP SWAP2 SWAP1 POP JUMP JUMPDEST PUSH32 0x4552524F5220325F5468652073656E6465722063616E6E6F7420626520746865 PUSH1 0x0 DUP3 ADD MSTORE PUSH32 0x20726563697069656E742E000000000000000000000000000000000000000000 PUSH1 0x20 DUP3 ADD MSTORE POP JUMP JUMPDEST PUSH1 0x0 PUSH2 0x78A PUSH1 0x2B DUP4 PUSH2 0x68B JUMP JUMPDEST SWAP2 POP PUSH2 0x795 DUP3 PUSH2 0x72E JUMP JUMPDEST PUSH1 0x40 DUP3 ADD SWAP1 POP SWAP2 SWAP1 POP JUMP JUMPDEST PUSH1 0x0 PUSH1 0x20 DUP3 ADD SWAP1 POP DUP2 DUP2 SUB PUSH1 0x0 DUP4 ADD MSTORE PUSH2 0x7B9 DUP2 PUSH2 0x77D JUMP JUMPDEST SWAP1 POP SWAP2 SWAP1 POP JUMP JUMPDEST PUSH1 0x0 PUSH2 0x7CB DUP3 PUSH2 0x4D6 JUMP JUMPDEST SWAP2 POP PUSH2 0x7D6 DUP4 PUSH2 0x4D6 JUMP JUMPDEST SWAP3 POP DUP3 DUP3 LT ISZERO PUSH2 0x7E9 JUMPI PUSH2 0x7E8 PUSH2 0x606 JUMP JUMPDEST JUMPDEST DUP3 DUP3 SUB SWAP1 POP SWAP3 SWAP2 POP POP JUMP JUMPDEST PUSH32 0x4E487B7100000000000000000000000000000000000000000000000000000000 PUSH1 0x0 MSTORE PUSH1 0x1 PUSH1 0x4 MSTORE PUSH1 0x24 PUSH1 0x0 REVERT INVALID LOG2 PUSH5 0x6970667358 0x22 SLT KECCAK256 0x2E 0xE 0xD2 PUSH22 0xF03D505154CDAC70F570C26679411D5F9386396C4571 0xF SWAP7 0xD3 PUSH10 0xE95164736F6C63430008 0xD STOP CALLER "
				},
				"gasEstimates": {
					"creation": {
						"codeDepositCost": "427400",
						"executionCost": "24727",
						"totalCost": "452127"
					},
					"external": {
						"Deposit(uint256)": "infinite",
						"getBalance()": "2504",
						"transfer(address,uint256)": "infinite"
					},
					"internal": {
						"_transfer(address,address,uint256)": "infinite"
					}
				},
				"methodIdentifiers": {
					"Deposit(uint256)": "4d6ce1e5",
					"getBalance()": "12065fe0",
					"transfer(address,uint256)": "a9059cbb"
				}
			},
			"storageLayout": {
				"storage": [
					{
						"astId": 5,
						"contract": "contracts/Bank_Payable-Functions.sol:Bank_Events",
						"label": "balance",
						"offset": 0,
						"slot": "0",
						"type": "t_mapping(t_address,t_uint256)"
					},
					{
						"astId": 7,
						"contract": "contracts/Bank_Payable-Functions.sol:Bank_Events",
						"label": "owner",
						"offset": 0,
						"slot": "1",
						"type": "t_address"
					}
				],
				"types": {
					"t_address": {
						"encoding": "inplace",
						"label": "address",
						"numberOfBytes": "20"
					},
					"t_mapping(t_address,t_uint256)": {
						"encoding": "mapping",
						"key": "t_address",
						"label": "mapping(address => uint256)",
						"numberOfBytes": "32",
						"value": "t_uint256"
					},
					"t_uint256": {
						"encoding": "inplace",
						"label": "uint256",
						"numberOfBytes": "32"
					}
				}
			},
			"userdoc": {
				"kind": "user",
				"methods": {},
				"version": 1
			}
		}
	}
}