{
	"contracts/Bank_MultiSIG.sol": {
		"Bank": {
			"abi": [
				{
					"anonymous": false,
					"inputs": [
						{
							"indexed": true,
							"internalType": "uint256",
							"name": "amount",
							"type": "uint256"
						},
						{
							"indexed": true,
							"internalType": "address",
							"name": "depositedTo",
							"type": "address"
						}
					],
					"name": "deposited",
					"type": "event"
				},
				{
					"anonymous": false,
					"inputs": [
						{
							"indexed": true,
							"internalType": "address",
							"name": "from",
							"type": "address"
						},
						{
							"indexed": true,
							"internalType": "address",
							"name": "to",
							"type": "address"
						},
						{
							"indexed": true,
							"internalType": "uint256",
							"name": "amount",
							"type": "uint256"
						}
					],
					"name": "transferedAmount",
					"type": "event"
				},
				{
					"inputs": [
						{
							"internalType": "address",
							"name": "_oaddress",
							"type": "address"
						}
					],
					"name": "addOwner",
					"outputs": [],
					"stateMutability": "nonpayable",
					"type": "function"
				},
				{
					"inputs": [],
					"name": "deposit",
					"outputs": [
						{
							"internalType": "uint256",
							"name": "",
							"type": "uint256"
						}
					],
					"stateMutability": "payable",
					"type": "function"
				},
				{
					"inputs": [],
					"name": "getBalance",
					"outputs": [
						{
							"internalType": "uint256",
							"name": "",
							"type": "uint256"
						}
					],
					"stateMutability": "view",
					"type": "function"
				},
				{
					"inputs": [],
					"name": "getNumApprovals",
					"outputs": [
						{
							"internalType": "int256",
							"name": "",
							"type": "int256"
						}
					],
					"stateMutability": "view",
					"type": "function"
				},
				{
					"inputs": [
						{
							"internalType": "uint256",
							"name": "_index",
							"type": "uint256"
						}
					],
					"name": "getOwner",
					"outputs": [
						{
							"internalType": "address",
							"name": "",
							"type": "address"
						}
					],
					"stateMutability": "view",
					"type": "function"
				},
				{
					"inputs": [],
					"name": "selfDestruct",
					"outputs": [],
					"stateMutability": "nonpayable",
					"type": "function"
				},
				{
					"inputs": [
						{
							"internalType": "int256",
							"name": "_number",
							"type": "int256"
						}
					],
					"name": "setNumApprovals",
					"outputs": [],
					"stateMutability": "nonpayable",
					"type": "function"
				},
				{
					"inputs": [
						{
							"internalType": "address",
							"name": "recipient",
							"type": "address"
						},
						{
							"internalType": "uint256",
							"name": "amount",
							"type": "uint256"
						}
					],
					"name": "transfer",
					"outputs": [],
					"stateMutability": "nonpayable",
					"type": "function"
				},
				{
					"inputs": [
						{
							"internalType": "uint256",
							"name": "amount",
							"type": "uint256"
						}
					],
					"name": "withdraw",
					"outputs": [
						{
							"internalType": "uint256",
							"name": "",
							"type": "uint256"
						}
					],
					"stateMutability": "nonpayable",
					"type": "function"
				}
			],
			"devdoc": {
				"kind": "dev",
				"methods": {},
				"version": 1
			},
			"evm": {
				"assembly": "    /* \"contracts/Bank_MultiSIG.sol\":292:3392  contract Bank is Ownable, Destroyable {\r... */\n  mstore(0x40, 0x80)\n    /* \"contracts/Bank_MultiSIG.sol\":400:442  0xDA0bab807633f07f013f94DD0E6A4F96F8742B53 */\n  0xda0bab807633f07f013f94dd0e6a4f96f8742b53\n    /* \"contracts/Bank_MultiSIG.sol\":339:443  GovernmentInterface GovernmentInstance = GovernmentInterface(0xDA0bab807633f07f013f94DD0E6A4F96F8742B53) */\n  0x01\n  exp(0x0100, 0x00)\n  dup2\n  sload\n  dup2\n  0xffffffffffffffffffffffffffffffffffffffff\n  mul\n  not\n  and\n  swap1\n  dup4\n  0xffffffffffffffffffffffffffffffffffffffff\n  and\n  mul\n  or\n  swap1\n  sstore\n  pop\n    /* \"contracts/Bank_MultiSIG.sol\":292:3392  contract Bank is Ownable, Destroyable {\r... */\n  callvalue\n  dup1\n  iszero\n  tag_1\n  jumpi\n  0x00\n  dup1\n  revert\ntag_1:\n  pop\n    /* \"contracts/Inheritance_Ownable.sol\":414:424  msg.sender */\n  caller\n    /* \"contracts/Inheritance_Ownable.sol\":406:411  owner */\n  0x00\n  dup1\n    /* \"contracts/Inheritance_Ownable.sol\":406:424  owner = msg.sender */\n  0x0100\n  exp\n  dup2\n  sload\n  dup2\n  0xffffffffffffffffffffffffffffffffffffffff\n  mul\n  not\n  and\n  swap1\n  dup4\n  0xffffffffffffffffffffffffffffffffffffffff\n  and\n  mul\n  or\n  swap1\n  sstore\n  pop\n    /* \"contracts/Bank_MultiSIG.sol\":292:3392  contract Bank is Ownable, Destroyable {\r... */\n  dataSize(sub_0)\n  dup1\n  dataOffset(sub_0)\n  0x00\n  codecopy\n  0x00\n  return\nstop\n\nsub_0: assembly {\n        /* \"contracts/Bank_MultiSIG.sol\":292:3392  contract Bank is Ownable, Destroyable {\r... */\n      mstore(0x40, 0x80)\n      jumpi(tag_1, lt(calldatasize, 0x04))\n      shr(0xe0, calldataload(0x00))\n      dup1\n      0x9cb8a26a\n      gt\n      tag_11\n      jumpi\n      dup1\n      0x9cb8a26a\n      eq\n      tag_6\n      jumpi\n      dup1\n      0xa9059cbb\n      eq\n      tag_7\n      jumpi\n      dup1\n      0xc41a360a\n      eq\n      tag_8\n      jumpi\n      dup1\n      0xd0e30db0\n      eq\n      tag_9\n      jumpi\n      dup1\n      0xec2e11ae\n      eq\n      tag_10\n      jumpi\n      jump(tag_1)\n    tag_11:\n      dup1\n      0x12065fe0\n      eq\n      tag_2\n      jumpi\n      dup1\n      0x1cd9aa0e\n      eq\n      tag_3\n      jumpi\n      dup1\n      0x2e1a7d4d\n      eq\n      tag_4\n      jumpi\n      dup1\n      0x7065cb48\n      eq\n      tag_5\n      jumpi\n    tag_1:\n      0x00\n      dup1\n      revert\n        /* \"contracts/Bank_MultiSIG.sol\":2133:2226  function getBalance() public view returns (uint){\r... */\n    tag_2:\n      callvalue\n      dup1\n      iszero\n      tag_12\n      jumpi\n      0x00\n      dup1\n      revert\n    tag_12:\n      pop\n      tag_13\n      tag_14\n      jump\t// in\n    tag_13:\n      mload(0x40)\n      tag_15\n      swap2\n      swap1\n      tag_16\n      jump\t// in\n    tag_15:\n      mload(0x40)\n      dup1\n      swap2\n      sub\n      swap1\n      return\n        /* \"contracts/Bank_MultiSIG.sol\":1352:1445  function getNumApprovals() public view returns(int){\r... */\n    tag_3:\n      callvalue\n      dup1\n      iszero\n      tag_17\n      jumpi\n      0x00\n      dup1\n      revert\n    tag_17:\n      pop\n      tag_18\n      tag_19\n      jump\t// in\n    tag_18:\n      mload(0x40)\n      tag_20\n      swap2\n      swap1\n      tag_21\n      jump\t// in\n    tag_20:\n      mload(0x40)\n      dup1\n      swap2\n      sub\n      swap1\n      return\n        /* \"contracts/Bank_MultiSIG.sol\":2332:2605  function withdraw(uint amount) public returns (uint){\r... */\n    tag_4:\n      callvalue\n      dup1\n      iszero\n      tag_22\n      jumpi\n      0x00\n      dup1\n      revert\n    tag_22:\n      pop\n      tag_23\n      0x04\n      dup1\n      calldatasize\n      sub\n      dup2\n      add\n      swap1\n      tag_24\n      swap2\n      swap1\n      tag_25\n      jump\t// in\n    tag_24:\n      tag_26\n      jump\t// in\n    tag_23:\n      mload(0x40)\n      tag_27\n      swap2\n      swap1\n      tag_16\n      jump\t// in\n    tag_27:\n      mload(0x40)\n      dup1\n      swap2\n      sub\n      swap1\n      return\n        /* \"contracts/Bank_MultiSIG.sol\":863:1012  function addOwner(address _oaddress) onlyOwner public {\r... */\n    tag_5:\n      callvalue\n      dup1\n      iszero\n      tag_28\n      jumpi\n      0x00\n      dup1\n      revert\n    tag_28:\n      pop\n      tag_29\n      0x04\n      dup1\n      calldatasize\n      sub\n      dup2\n      add\n      swap1\n      tag_30\n      swap2\n      swap1\n      tag_31\n      jump\t// in\n    tag_30:\n      tag_32\n      jump\t// in\n    tag_29:\n      stop\n        /* \"contracts/Inheritance_Destroyable.sol\":141:225  function selfDestruct() public onlyOwner {\r... */\n    tag_6:\n      callvalue\n      dup1\n      iszero\n      tag_33\n      jumpi\n      0x00\n      dup1\n      revert\n    tag_33:\n      pop\n      tag_34\n      tag_35\n      jump\t// in\n    tag_34:\n      stop\n        /* \"contracts/Bank_MultiSIG.sol\":2613:3239  function transfer(address recipient, uint amount) public {\r... */\n    tag_7:\n      callvalue\n      dup1\n      iszero\n      tag_36\n      jumpi\n      0x00\n      dup1\n      revert\n    tag_36:\n      pop\n      tag_37\n      0x04\n      dup1\n      calldatasize\n      sub\n      dup2\n      add\n      swap1\n      tag_38\n      swap2\n      swap1\n      tag_39\n      jump\t// in\n    tag_38:\n      tag_40\n      jump\t// in\n    tag_37:\n      stop\n        /* \"contracts/Bank_MultiSIG.sol\":1020:1188  function getOwner(uint _index) public view returns (address){\r... */\n    tag_8:\n      callvalue\n      dup1\n      iszero\n      tag_41\n      jumpi\n      0x00\n      dup1\n      revert\n    tag_41:\n      pop\n      tag_42\n      0x04\n      dup1\n      calldatasize\n      sub\n      dup2\n      add\n      swap1\n      tag_43\n      swap2\n      swap1\n      tag_25\n      jump\t// in\n    tag_43:\n      tag_44\n      jump\t// in\n    tag_42:\n      mload(0x40)\n      tag_45\n      swap2\n      swap1\n      tag_46\n      jump\t// in\n    tag_45:\n      mload(0x40)\n      dup1\n      swap2\n      sub\n      swap1\n      return\n        /* \"contracts/Bank_MultiSIG.sol\":1718:2031  function deposit() public payable returns (uint) { \r... */\n    tag_9:\n      tag_47\n      tag_48\n      jump\t// in\n    tag_47:\n      mload(0x40)\n      tag_49\n      swap2\n      swap1\n      tag_16\n      jump\t// in\n    tag_49:\n      mload(0x40)\n      dup1\n      swap2\n      sub\n      swap1\n      return\n        /* \"contracts/Bank_MultiSIG.sol\":1451:1609  function setNumApprovals(int _number) public {  //not view or pure because we are changing the state of \"numApprovals\"\r... */\n    tag_10:\n      callvalue\n      dup1\n      iszero\n      tag_50\n      jumpi\n      0x00\n      dup1\n      revert\n    tag_50:\n      pop\n      tag_51\n      0x04\n      dup1\n      calldatasize\n      sub\n      dup2\n      add\n      swap1\n      tag_52\n      swap2\n      swap1\n      tag_53\n      jump\t// in\n    tag_52:\n      tag_54\n      jump\t// in\n    tag_51:\n      stop\n        /* \"contracts/Bank_MultiSIG.sol\":2133:2226  function getBalance() public view returns (uint){\r... */\n    tag_14:\n        /* \"contracts/Bank_MultiSIG.sol\":2176:2180  uint */\n      0x00\n        /* \"contracts/Bank_MultiSIG.sol\":2199:2206  balance */\n      0x02\n        /* \"contracts/Bank_MultiSIG.sol\":2199:2218  balance[msg.sender] */\n      0x00\n        /* \"contracts/Bank_MultiSIG.sol\":2207:2217  msg.sender */\n      caller\n        /* \"contracts/Bank_MultiSIG.sol\":2199:2218  balance[msg.sender] */\n      0xffffffffffffffffffffffffffffffffffffffff\n      and\n      0xffffffffffffffffffffffffffffffffffffffff\n      and\n      dup2\n      mstore\n      0x20\n      add\n      swap1\n      dup2\n      mstore\n      0x20\n      add\n      0x00\n      keccak256\n      sload\n        /* \"contracts/Bank_MultiSIG.sol\":2192:2218  return balance[msg.sender] */\n      swap1\n      pop\n        /* \"contracts/Bank_MultiSIG.sol\":2133:2226  function getBalance() public view returns (uint){\r... */\n      swap1\n      jump\t// out\n        /* \"contracts/Bank_MultiSIG.sol\":1352:1445  function getNumApprovals() public view returns(int){\r... */\n    tag_19:\n        /* \"contracts/Bank_MultiSIG.sol\":1399:1402  int */\n      0x00\n        /* \"contracts/Bank_MultiSIG.sol\":1421:1433  numApprovals */\n      sload(0x04)\n        /* \"contracts/Bank_MultiSIG.sol\":1414:1433  return numApprovals */\n      swap1\n      pop\n        /* \"contracts/Bank_MultiSIG.sol\":1352:1445  function getNumApprovals() public view returns(int){\r... */\n      swap1\n      jump\t// out\n        /* \"contracts/Bank_MultiSIG.sol\":2332:2605  function withdraw(uint amount) public returns (uint){\r... */\n    tag_26:\n        /* \"contracts/Bank_MultiSIG.sol\":2379:2383  uint */\n      0x00\n        /* \"contracts/Bank_MultiSIG.sol\":2425:2431  amount */\n      dup2\n        /* \"contracts/Bank_MultiSIG.sol\":2403:2410  balance */\n      0x02\n        /* \"contracts/Bank_MultiSIG.sol\":2403:2422  balance[msg.sender] */\n      0x00\n        /* \"contracts/Bank_MultiSIG.sol\":2411:2421  msg.sender */\n      caller\n        /* \"contracts/Bank_MultiSIG.sol\":2403:2422  balance[msg.sender] */\n      0xffffffffffffffffffffffffffffffffffffffff\n      and\n      0xffffffffffffffffffffffffffffffffffffffff\n      and\n      dup2\n      mstore\n      0x20\n      add\n      swap1\n      dup2\n      mstore\n      0x20\n      add\n      0x00\n      keccak256\n      sload\n        /* \"contracts/Bank_MultiSIG.sol\":2403:2431  balance[msg.sender]>= amount */\n      lt\n      iszero\n        /* \"contracts/Bank_MultiSIG.sol\":2395:2482  require(balance[msg.sender]>= amount,\"ERROR 1_Insufficient balance to withdraw funds.\") */\n      tag_58\n      jumpi\n      mload(0x40)\n      0x08c379a000000000000000000000000000000000000000000000000000000000\n      dup2\n      mstore\n      0x04\n      add\n      tag_59\n      swap1\n      tag_60\n      jump\t// in\n    tag_59:\n      mload(0x40)\n      dup1\n      swap2\n      sub\n      swap1\n      revert\n    tag_58:\n        /* \"contracts/Bank_MultiSIG.sol\":2493:2503  msg.sender */\n      caller\n        /* \"contracts/Bank_MultiSIG.sol\":2493:2512  msg.sender.transfer */\n      0xffffffffffffffffffffffffffffffffffffffff\n      and\n        /* \"contracts/Bank_MultiSIG.sol\":2493:2520  msg.sender.transfer(amount) */\n      0x08fc\n        /* \"contracts/Bank_MultiSIG.sol\":2513:2519  amount */\n      dup4\n        /* \"contracts/Bank_MultiSIG.sol\":2493:2520  msg.sender.transfer(amount) */\n      swap1\n      dup2\n      iszero\n      mul\n      swap1\n      mload(0x40)\n      0x00\n      mload(0x40)\n      dup1\n      dup4\n      sub\n      dup2\n      dup6\n      dup9\n      dup9\n      call\n      swap4\n      pop\n      pop\n      pop\n      pop\n      iszero\n      dup1\n      iszero\n      tag_62\n      jumpi\n      returndatasize\n      0x00\n      dup1\n      returndatacopy\n      revert(0x00, returndatasize)\n    tag_62:\n      pop\n        /* \"contracts/Bank_MultiSIG.sol\":2554:2560  amount */\n      dup2\n        /* \"contracts/Bank_MultiSIG.sol\":2531:2538  balance */\n      0x02\n        /* \"contracts/Bank_MultiSIG.sol\":2531:2550  balance[msg.sender] */\n      0x00\n        /* \"contracts/Bank_MultiSIG.sol\":2539:2549  msg.sender */\n      caller\n        /* \"contracts/Bank_MultiSIG.sol\":2531:2550  balance[msg.sender] */\n      0xffffffffffffffffffffffffffffffffffffffff\n      and\n      0xffffffffffffffffffffffffffffffffffffffff\n      and\n      dup2\n      mstore\n      0x20\n      add\n      swap1\n      dup2\n      mstore\n      0x20\n      add\n      0x00\n      keccak256\n      0x00\n        /* \"contracts/Bank_MultiSIG.sol\":2531:2560  balance[msg.sender] -= amount */\n      dup3\n      dup3\n      sload\n      sub\n      swap3\n      pop\n      pop\n      dup2\n      swap1\n      sstore\n      pop\n        /* \"contracts/Bank_MultiSIG.sol\":2578:2585  balance */\n      0x02\n        /* \"contracts/Bank_MultiSIG.sol\":2578:2597  balance[msg.sender] */\n      0x00\n        /* \"contracts/Bank_MultiSIG.sol\":2586:2596  msg.sender */\n      caller\n        /* \"contracts/Bank_MultiSIG.sol\":2578:2597  balance[msg.sender] */\n      0xffffffffffffffffffffffffffffffffffffffff\n      and\n      0xffffffffffffffffffffffffffffffffffffffff\n      and\n      dup2\n      mstore\n      0x20\n      add\n      swap1\n      dup2\n      mstore\n      0x20\n      add\n      0x00\n      keccak256\n      sload\n        /* \"contracts/Bank_MultiSIG.sol\":2571:2597  return balance[msg.sender] */\n      swap1\n      pop\n        /* \"contracts/Bank_MultiSIG.sol\":2332:2605  function withdraw(uint amount) public returns (uint){\r... */\n      swap2\n      swap1\n      pop\n      jump\t// out\n        /* \"contracts/Bank_MultiSIG.sol\":863:1012  function addOwner(address _oaddress) onlyOwner public {\r... */\n    tag_32:\n        /* \"contracts/Inheritance_Ownable.sol\":308:313  owner */\n      0x00\n      dup1\n      sload\n      swap1\n      0x0100\n      exp\n      swap1\n      div\n      0xffffffffffffffffffffffffffffffffffffffff\n      and\n        /* \"contracts/Inheritance_Ownable.sol\":294:313  msg.sender == owner */\n      0xffffffffffffffffffffffffffffffffffffffff\n      and\n        /* \"contracts/Inheritance_Ownable.sol\":294:304  msg.sender */\n      caller\n        /* \"contracts/Inheritance_Ownable.sol\":294:313  msg.sender == owner */\n      0xffffffffffffffffffffffffffffffffffffffff\n      and\n      eq\n        /* \"contracts/Inheritance_Ownable.sol\":286:314  require(msg.sender == owner) */\n      tag_64\n      jumpi\n      0x00\n      dup1\n      revert\n    tag_64:\n        /* \"contracts/Bank_MultiSIG.sol\":928:949  Owner memory newOwner */\n      tag_66\n      tag_67\n      jump\t// in\n    tag_66:\n        /* \"contracts/Bank_MultiSIG.sol\":952:968  Owner(_oaddress) */\n      mload(0x40)\n      dup1\n      0x20\n      add\n      0x40\n      mstore\n      dup1\n        /* \"contracts/Bank_MultiSIG.sol\":958:967  _oaddress */\n      dup4\n        /* \"contracts/Bank_MultiSIG.sol\":952:968  Owner(_oaddress) */\n      0xffffffffffffffffffffffffffffffffffffffff\n      and\n      dup2\n      mstore\n      pop\n        /* \"contracts/Bank_MultiSIG.sol\":928:968  Owner memory newOwner = Owner(_oaddress) */\n      swap1\n      pop\n        /* \"contracts/Bank_MultiSIG.sol\":979:985  owners */\n      0x03\n        /* \"contracts/Bank_MultiSIG.sol\":991:999  newOwner */\n      dup2\n        /* \"contracts/Bank_MultiSIG.sol\":979:1000  owners.push(newOwner) */\n      swap1\n      dup1\n      0x01\n      dup2\n      sload\n      add\n      dup1\n      dup3\n      sstore\n      dup1\n      swap2\n      pop\n      pop\n      0x01\n      swap1\n      sub\n      swap1\n      0x00\n      mstore\n      keccak256(0x00, 0x20)\n      add\n      0x00\n      swap1\n      swap2\n      swap1\n      swap2\n      swap1\n      swap2\n      pop\n      0x00\n      dup3\n      add\n      mload\n      dup2\n      0x00\n      add\n      exp(0x0100, 0x00)\n      dup2\n      sload\n      dup2\n      0xffffffffffffffffffffffffffffffffffffffff\n      mul\n      not\n      and\n      swap1\n      dup4\n      0xffffffffffffffffffffffffffffffffffffffff\n      and\n      mul\n      or\n      swap1\n      sstore\n      pop\n      pop\n      pop\n        /* \"contracts/Inheritance_Ownable.sol\":327:328  _ */\n      pop\n        /* \"contracts/Bank_MultiSIG.sol\":863:1012  function addOwner(address _oaddress) onlyOwner public {\r... */\n      pop\n      jump\t// out\n        /* \"contracts/Inheritance_Destroyable.sol\":141:225  function selfDestruct() public onlyOwner {\r... */\n    tag_35:\n        /* \"contracts/Inheritance_Ownable.sol\":308:313  owner */\n      0x00\n      dup1\n      sload\n      swap1\n      0x0100\n      exp\n      swap1\n      div\n      0xffffffffffffffffffffffffffffffffffffffff\n      and\n        /* \"contracts/Inheritance_Ownable.sol\":294:313  msg.sender == owner */\n      0xffffffffffffffffffffffffffffffffffffffff\n      and\n        /* \"contracts/Inheritance_Ownable.sol\":294:304  msg.sender */\n      caller\n        /* \"contracts/Inheritance_Ownable.sol\":294:313  msg.sender == owner */\n      0xffffffffffffffffffffffffffffffffffffffff\n      and\n      eq\n        /* \"contracts/Inheritance_Ownable.sol\":286:314  require(msg.sender == owner) */\n      tag_70\n      jumpi\n      0x00\n      dup1\n      revert\n    tag_70:\n        /* \"contracts/Inheritance_Destroyable.sol\":206:216  msg.sender */\n      caller\n        /* \"contracts/Inheritance_Destroyable.sol\":193:217  selfdestruct(msg.sender) */\n      0xffffffffffffffffffffffffffffffffffffffff\n      and\n      selfdestruct\n        /* \"contracts/Bank_MultiSIG.sol\":2613:3239  function transfer(address recipient, uint amount) public {\r... */\n    tag_40:\n        /* \"contracts/Bank_MultiSIG.sol\":2711:2717  amount */\n      dup1\n        /* \"contracts/Bank_MultiSIG.sol\":2689:2696  balance */\n      0x02\n        /* \"contracts/Bank_MultiSIG.sol\":2689:2708  balance[msg.sender] */\n      0x00\n        /* \"contracts/Bank_MultiSIG.sol\":2697:2707  msg.sender */\n      caller\n        /* \"contracts/Bank_MultiSIG.sol\":2689:2708  balance[msg.sender] */\n      0xffffffffffffffffffffffffffffffffffffffff\n      and\n      0xffffffffffffffffffffffffffffffffffffffff\n      and\n      dup2\n      mstore\n      0x20\n      add\n      swap1\n      dup2\n      mstore\n      0x20\n      add\n      0x00\n      keccak256\n      sload\n        /* \"contracts/Bank_MultiSIG.sol\":2689:2717  balance[msg.sender]>= amount */\n      lt\n      iszero\n        /* \"contracts/Bank_MultiSIG.sol\":2681:2768  require(balance[msg.sender]>= amount,\"ERROR 1_Insufficient balance to transfer funds.\") */\n      tag_73\n      jumpi\n      mload(0x40)\n      0x08c379a000000000000000000000000000000000000000000000000000000000\n      dup2\n      mstore\n      0x04\n      add\n      tag_74\n      swap1\n      tag_75\n      jump\t// in\n    tag_74:\n      mload(0x40)\n      dup1\n      swap2\n      sub\n      swap1\n      revert\n    tag_73:\n        /* \"contracts/Bank_MultiSIG.sol\":2832:2841  recipient */\n      dup2\n        /* \"contracts/Bank_MultiSIG.sol\":2818:2841  msg.sender != recipient */\n      0xffffffffffffffffffffffffffffffffffffffff\n      and\n        /* \"contracts/Bank_MultiSIG.sol\":2818:2828  msg.sender */\n      caller\n        /* \"contracts/Bank_MultiSIG.sol\":2818:2841  msg.sender != recipient */\n      0xffffffffffffffffffffffffffffffffffffffff\n      and\n      eq\n      iszero\n        /* \"contracts/Bank_MultiSIG.sol\":2810:2888  require(msg.sender != recipient,\"ERROR 2_The sender cannot be the recipient.\") */\n      tag_76\n      jumpi\n      mload(0x40)\n      0x08c379a000000000000000000000000000000000000000000000000000000000\n      dup2\n      mstore\n      0x04\n      add\n      tag_77\n      swap1\n      tag_78\n      jump\t// in\n    tag_77:\n      mload(0x40)\n      dup1\n      swap2\n      sub\n      swap1\n      revert\n    tag_76:\n        /* \"contracts/Bank_MultiSIG.sol\":2901:2927  uint previousSenderBalance */\n      0x00\n        /* \"contracts/Bank_MultiSIG.sol\":2930:2937  balance */\n      0x02\n        /* \"contracts/Bank_MultiSIG.sol\":2930:2949  balance[msg.sender] */\n      0x00\n        /* \"contracts/Bank_MultiSIG.sol\":2938:2948  msg.sender */\n      caller\n        /* \"contracts/Bank_MultiSIG.sol\":2930:2949  balance[msg.sender] */\n      0xffffffffffffffffffffffffffffffffffffffff\n      and\n      0xffffffffffffffffffffffffffffffffffffffff\n      and\n      dup2\n      mstore\n      0x20\n      add\n      swap1\n      dup2\n      mstore\n      0x20\n      add\n      0x00\n      keccak256\n      sload\n        /* \"contracts/Bank_MultiSIG.sol\":2901:2949  uint previousSenderBalance = balance[msg.sender] */\n      swap1\n      pop\n        /* \"contracts/Bank_MultiSIG.sol\":2960:3001  _transfer (msg.sender, recipient, amount) */\n      tag_79\n        /* \"contracts/Bank_MultiSIG.sol\":2971:2981  msg.sender */\n      caller\n        /* \"contracts/Bank_MultiSIG.sol\":2983:2992  recipient */\n      dup5\n        /* \"contracts/Bank_MultiSIG.sol\":2994:3000  amount */\n      dup5\n        /* \"contracts/Bank_MultiSIG.sol\":2960:2969  _transfer */\n      tag_80\n        /* \"contracts/Bank_MultiSIG.sol\":2960:3001  _transfer (msg.sender, recipient, amount) */\n      jump\t// in\n    tag_79:\n        /* \"contracts/Bank_MultiSIG.sol\":3059:3065  amount */\n      dup2\n        /* \"contracts/Bank_MultiSIG.sol\":3048:3057  recipient */\n      dup4\n        /* \"contracts/Bank_MultiSIG.sol\":3019:3066  transferedAmount(msg.sender, recipient, amount) */\n      0xffffffffffffffffffffffffffffffffffffffff\n      and\n        /* \"contracts/Bank_MultiSIG.sol\":3036:3046  msg.sender */\n      caller\n        /* \"contracts/Bank_MultiSIG.sol\":3019:3066  transferedAmount(msg.sender, recipient, amount) */\n      0xffffffffffffffffffffffffffffffffffffffff\n      and\n      0x3573881c639e018e0c3ba3a7d19063f6a7a8205d54eb828319a7f98db00426a0\n      mload(0x40)\n      mload(0x40)\n      dup1\n      swap2\n      sub\n      swap1\n      log4\n        /* \"contracts/Bank_MultiSIG.sol\":3092:3110  GovernmentInstance */\n      0x01\n      0x00\n      swap1\n      sload\n      swap1\n      0x0100\n      exp\n      swap1\n      div\n      0xffffffffffffffffffffffffffffffffffffffff\n      and\n        /* \"contracts/Bank_MultiSIG.sol\":3092:3125  GovernmentInstance.addTransaction */\n      0xffffffffffffffffffffffffffffffffffffffff\n      and\n      0xfe73b27f\n        /* \"contracts/Bank_MultiSIG.sol\":3126:3136  msg.sender */\n      caller\n        /* \"contracts/Bank_MultiSIG.sol\":3138:3147  recipient */\n      dup6\n        /* \"contracts/Bank_MultiSIG.sol\":3149:3155  amount */\n      dup6\n        /* \"contracts/Bank_MultiSIG.sol\":3092:3156  GovernmentInstance.addTransaction(msg.sender, recipient, amount) */\n      mload(0x40)\n      dup5\n      0xffffffff\n      and\n      0xe0\n      shl\n      dup2\n      mstore\n      0x04\n      add\n      tag_81\n      swap4\n      swap3\n      swap2\n      swap1\n      tag_82\n      jump\t// in\n    tag_81:\n      0x00\n      mload(0x40)\n      dup1\n      dup4\n      sub\n      dup2\n      0x00\n      dup8\n      dup1\n      extcodesize\n      iszero\n      dup1\n      iszero\n      tag_83\n      jumpi\n      0x00\n      dup1\n      revert\n    tag_83:\n      pop\n      gas\n      call\n      iszero\n      dup1\n      iszero\n      tag_85\n      jumpi\n      returndatasize\n      0x00\n      dup1\n      returndatacopy\n      revert(0x00, returndatasize)\n    tag_85:\n      pop\n      pop\n      pop\n      pop\n        /* \"contracts/Bank_MultiSIG.sol\":3223:3229  amount */\n      dup2\n        /* \"contracts/Bank_MultiSIG.sol\":3199:3220  previousSenderBalance */\n      dup2\n        /* \"contracts/Bank_MultiSIG.sol\":3199:3229  previousSenderBalance - amount */\n      sub\n        /* \"contracts/Bank_MultiSIG.sol\":3176:3183  balance */\n      0x02\n        /* \"contracts/Bank_MultiSIG.sol\":3176:3195  balance[msg.sender] */\n      0x00\n        /* \"contracts/Bank_MultiSIG.sol\":3184:3194  msg.sender */\n      caller\n        /* \"contracts/Bank_MultiSIG.sol\":3176:3195  balance[msg.sender] */\n      0xffffffffffffffffffffffffffffffffffffffff\n      and\n      0xffffffffffffffffffffffffffffffffffffffff\n      and\n      dup2\n      mstore\n      0x20\n      add\n      swap1\n      dup2\n      mstore\n      0x20\n      add\n      0x00\n      keccak256\n      sload\n        /* \"contracts/Bank_MultiSIG.sol\":3176:3229  balance[msg.sender] == previousSenderBalance - amount */\n      eq\n        /* \"contracts/Bank_MultiSIG.sol\":3169:3230  assert(balance[msg.sender] == previousSenderBalance - amount) */\n      tag_86\n      jumpi\n      invalid\n    tag_86:\n        /* \"contracts/Bank_MultiSIG.sol\":2613:3239  function transfer(address recipient, uint amount) public {\r... */\n      pop\n      pop\n      pop\n      jump\t// out\n        /* \"contracts/Bank_MultiSIG.sol\":1020:1188  function getOwner(uint _index) public view returns (address){\r... */\n    tag_44:\n        /* \"contracts/Bank_MultiSIG.sol\":1072:1079  address */\n      0x00\n        /* \"contracts/Bank_MultiSIG.sol\":1091:1117  Owner memory ownerToReturn */\n      tag_88\n      tag_67\n      jump\t// in\n    tag_88:\n        /* \"contracts/Bank_MultiSIG.sol\":1120:1126  owners */\n      0x03\n        /* \"contracts/Bank_MultiSIG.sol\":1127:1133  _index */\n      dup4\n        /* \"contracts/Bank_MultiSIG.sol\":1120:1134  owners[_index] */\n      dup2\n      sload\n      dup2\n      lt\n      tag_89\n      jumpi\n      invalid\n    tag_89:\n      swap1\n      0x00\n      mstore\n      keccak256(0x00, 0x20)\n      add\n        /* \"contracts/Bank_MultiSIG.sol\":1091:1134  Owner memory ownerToReturn = owners[_index] */\n      mload(0x40)\n      dup1\n      0x20\n      add\n      0x40\n      mstore\n      swap1\n      dup2\n      0x00\n      dup3\n      add\n      0x00\n      swap1\n      sload\n      swap1\n      0x0100\n      exp\n      swap1\n      div\n      0xffffffffffffffffffffffffffffffffffffffff\n      and\n      0xffffffffffffffffffffffffffffffffffffffff\n      and\n      0xffffffffffffffffffffffffffffffffffffffff\n      and\n      dup2\n      mstore\n      pop\n      pop\n      swap1\n      pop\n        /* \"contracts/Bank_MultiSIG.sol\":1153:1166  ownerToReturn */\n      dup1\n        /* \"contracts/Bank_MultiSIG.sol\":1153:1175  ownerToReturn.oaddress */\n      0x00\n      add\n      mload\n        /* \"contracts/Bank_MultiSIG.sol\":1145:1176  return (ownerToReturn.oaddress) */\n      swap2\n      pop\n      pop\n        /* \"contracts/Bank_MultiSIG.sol\":1020:1188  function getOwner(uint _index) public view returns (address){\r... */\n      swap2\n      swap1\n      pop\n      jump\t// out\n        /* \"contracts/Bank_MultiSIG.sol\":1718:2031  function deposit() public payable returns (uint) { \r... */\n    tag_48:\n        /* \"contracts/Bank_MultiSIG.sol\":1761:1765  uint */\n      0x00\n        /* \"contracts/Bank_MultiSIG.sol\":1802:1811  msg.value */\n      callvalue\n        /* \"contracts/Bank_MultiSIG.sol\":1779:1786  balance */\n      0x02\n        /* \"contracts/Bank_MultiSIG.sol\":1779:1798  balance[msg.sender] */\n      0x00\n        /* \"contracts/Bank_MultiSIG.sol\":1787:1797  msg.sender */\n      caller\n        /* \"contracts/Bank_MultiSIG.sol\":1779:1798  balance[msg.sender] */\n      0xffffffffffffffffffffffffffffffffffffffff\n      and\n      0xffffffffffffffffffffffffffffffffffffffff\n      and\n      dup2\n      mstore\n      0x20\n      add\n      swap1\n      dup2\n      mstore\n      0x20\n      add\n      0x00\n      keccak256\n      0x00\n        /* \"contracts/Bank_MultiSIG.sol\":1779:1811  balance[msg.sender] += msg.value */\n      dup3\n      dup3\n      sload\n      add\n      swap3\n      pop\n      pop\n      dup2\n      swap1\n      sstore\n      pop\n        /* \"contracts/Bank_MultiSIG.sol\":1958:1968  msg.sender */\n      caller\n        /* \"contracts/Bank_MultiSIG.sol\":1936:1969  deposited (msg.value, msg.sender) */\n      0xffffffffffffffffffffffffffffffffffffffff\n      and\n        /* \"contracts/Bank_MultiSIG.sol\":1947:1956  msg.value */\n      callvalue\n        /* \"contracts/Bank_MultiSIG.sol\":1936:1969  deposited (msg.value, msg.sender) */\n      0xa23831066066ec8812cc52afc91a52134a8b50c9209b68c276be679f4073d95d\n      mload(0x40)\n      mload(0x40)\n      dup1\n      swap2\n      sub\n      swap1\n      log3\n        /* \"contracts/Bank_MultiSIG.sol\":2004:2011  balance */\n      0x02\n        /* \"contracts/Bank_MultiSIG.sol\":2004:2023  balance[msg.sender] */\n      0x00\n        /* \"contracts/Bank_MultiSIG.sol\":2012:2022  msg.sender */\n      caller\n        /* \"contracts/Bank_MultiSIG.sol\":2004:2023  balance[msg.sender] */\n      0xffffffffffffffffffffffffffffffffffffffff\n      and\n      0xffffffffffffffffffffffffffffffffffffffff\n      and\n      dup2\n      mstore\n      0x20\n      add\n      swap1\n      dup2\n      mstore\n      0x20\n      add\n      0x00\n      keccak256\n      sload\n        /* \"contracts/Bank_MultiSIG.sol\":1997:2023  return balance[msg.sender] */\n      swap1\n      pop\n        /* \"contracts/Bank_MultiSIG.sol\":1718:2031  function deposit() public payable returns (uint) { \r... */\n      swap1\n      jump\t// out\n        /* \"contracts/Bank_MultiSIG.sol\":1451:1609  function setNumApprovals(int _number) public {  //not view or pure because we are changing the state of \"numApprovals\"\r... */\n    tag_54:\n        /* \"contracts/Bank_MultiSIG.sol\":1594:1601  _number */\n      dup1\n        /* \"contracts/Bank_MultiSIG.sol\":1579:1591  numApprovals */\n      0x04\n        /* \"contracts/Bank_MultiSIG.sol\":1579:1601  numApprovals = _number */\n      dup2\n      swap1\n      sstore\n      pop\n        /* \"contracts/Bank_MultiSIG.sol\":1451:1609  function setNumApprovals(int _number) public {  //not view or pure because we are changing the state of \"numApprovals\"\r... */\n      pop\n      jump\t// out\n        /* \"contracts/Bank_MultiSIG.sol\":3247:3387  function _transfer(address from, address to, uint amount) private {\r... */\n    tag_80:\n        /* \"contracts/Bank_MultiSIG.sol\":3341:3347  amount */\n      dup1\n        /* \"contracts/Bank_MultiSIG.sol\":3324:3331  balance */\n      0x02\n        /* \"contracts/Bank_MultiSIG.sol\":3324:3337  balance[from] */\n      0x00\n        /* \"contracts/Bank_MultiSIG.sol\":3332:3336  from */\n      dup6\n        /* \"contracts/Bank_MultiSIG.sol\":3324:3337  balance[from] */\n      0xffffffffffffffffffffffffffffffffffffffff\n      and\n      0xffffffffffffffffffffffffffffffffffffffff\n      and\n      dup2\n      mstore\n      0x20\n      add\n      swap1\n      dup2\n      mstore\n      0x20\n      add\n      0x00\n      keccak256\n      0x00\n        /* \"contracts/Bank_MultiSIG.sol\":3324:3347  balance[from] -= amount */\n      dup3\n      dup3\n      sload\n      sub\n      swap3\n      pop\n      pop\n      dup2\n      swap1\n      sstore\n      pop\n        /* \"contracts/Bank_MultiSIG.sol\":3373:3379  amount */\n      dup1\n        /* \"contracts/Bank_MultiSIG.sol\":3358:3365  balance */\n      0x02\n        /* \"contracts/Bank_MultiSIG.sol\":3358:3369  balance[to] */\n      0x00\n        /* \"contracts/Bank_MultiSIG.sol\":3366:3368  to */\n      dup5\n        /* \"contracts/Bank_MultiSIG.sol\":3358:3369  balance[to] */\n      0xffffffffffffffffffffffffffffffffffffffff\n      and\n      0xffffffffffffffffffffffffffffffffffffffff\n      and\n      dup2\n      mstore\n      0x20\n      add\n      swap1\n      dup2\n      mstore\n      0x20\n      add\n      0x00\n      keccak256\n      0x00\n        /* \"contracts/Bank_MultiSIG.sol\":3358:3379  balance[to] += amount */\n      dup3\n      dup3\n      sload\n      add\n      swap3\n      pop\n      pop\n      dup2\n      swap1\n      sstore\n      pop\n        /* \"contracts/Bank_MultiSIG.sol\":3247:3387  function _transfer(address from, address to, uint amount) private {\r... */\n      pop\n      pop\n      pop\n      jump\t// out\n    tag_67:\n      mload(0x40)\n      dup1\n      0x20\n      add\n      0x40\n      mstore\n      dup1\n      and(0xffffffffffffffffffffffffffffffffffffffff, 0x00)\n      dup2\n      mstore\n      pop\n      swap1\n      jump\t// out\n        /* \"#utility.yul\":7:146   */\n    tag_95:\n      0x00\n        /* \"#utility.yul\":91:97   */\n      dup2\n        /* \"#utility.yul\":78:98   */\n      calldataload\n        /* \"#utility.yul\":69:98   */\n      swap1\n      pop\n        /* \"#utility.yul\":107:140   */\n      tag_97\n        /* \"#utility.yul\":134:139   */\n      dup2\n        /* \"#utility.yul\":107:140   */\n      tag_98\n      jump\t// in\n    tag_97:\n        /* \"#utility.yul\":59:146   */\n      swap3\n      swap2\n      pop\n      pop\n      jump\t// out\n        /* \"#utility.yul\":152:289   */\n    tag_99:\n      0x00\n        /* \"#utility.yul\":235:241   */\n      dup2\n        /* \"#utility.yul\":222:242   */\n      calldataload\n        /* \"#utility.yul\":213:242   */\n      swap1\n      pop\n        /* \"#utility.yul\":251:283   */\n      tag_101\n        /* \"#utility.yul\":277:282   */\n      dup2\n        /* \"#utility.yul\":251:283   */\n      tag_102\n      jump\t// in\n    tag_101:\n        /* \"#utility.yul\":203:289   */\n      swap3\n      swap2\n      pop\n      pop\n      jump\t// out\n        /* \"#utility.yul\":295:434   */\n    tag_103:\n      0x00\n        /* \"#utility.yul\":379:385   */\n      dup2\n        /* \"#utility.yul\":366:386   */\n      calldataload\n        /* \"#utility.yul\":357:386   */\n      swap1\n      pop\n        /* \"#utility.yul\":395:428   */\n      tag_105\n        /* \"#utility.yul\":422:427   */\n      dup2\n        /* \"#utility.yul\":395:428   */\n      tag_106\n      jump\t// in\n    tag_105:\n        /* \"#utility.yul\":347:434   */\n      swap3\n      swap2\n      pop\n      pop\n      jump\t// out\n        /* \"#utility.yul\":440:700   */\n    tag_31:\n      0x00\n        /* \"#utility.yul\":548:550   */\n      0x20\n        /* \"#utility.yul\":536:545   */\n      dup3\n        /* \"#utility.yul\":527:534   */\n      dup5\n        /* \"#utility.yul\":523:546   */\n      sub\n        /* \"#utility.yul\":519:551   */\n      slt\n        /* \"#utility.yul\":516:518   */\n      iszero\n      tag_108\n      jumpi\n        /* \"#utility.yul\":564:565   */\n      0x00\n        /* \"#utility.yul\":561:562   */\n      dup1\n        /* \"#utility.yul\":554:566   */\n      revert\n        /* \"#utility.yul\":516:518   */\n    tag_108:\n        /* \"#utility.yul\":606:607   */\n      0x00\n        /* \"#utility.yul\":630:683   */\n      tag_109\n        /* \"#utility.yul\":675:682   */\n      dup5\n        /* \"#utility.yul\":666:672   */\n      dup3\n        /* \"#utility.yul\":655:664   */\n      dup6\n        /* \"#utility.yul\":651:673   */\n      add\n        /* \"#utility.yul\":630:683   */\n      tag_95\n      jump\t// in\n    tag_109:\n        /* \"#utility.yul\":620:683   */\n      swap2\n      pop\n        /* \"#utility.yul\":578:693   */\n      pop\n        /* \"#utility.yul\":506:700   */\n      swap3\n      swap2\n      pop\n      pop\n      jump\t// out\n        /* \"#utility.yul\":706:1109   */\n    tag_39:\n      0x00\n      dup1\n        /* \"#utility.yul\":831:833   */\n      0x40\n        /* \"#utility.yul\":819:828   */\n      dup4\n        /* \"#utility.yul\":810:817   */\n      dup6\n        /* \"#utility.yul\":806:829   */\n      sub\n        /* \"#utility.yul\":802:834   */\n      slt\n        /* \"#utility.yul\":799:801   */\n      iszero\n      tag_111\n      jumpi\n        /* \"#utility.yul\":847:848   */\n      0x00\n        /* \"#utility.yul\":844:845   */\n      dup1\n        /* \"#utility.yul\":837:849   */\n      revert\n        /* \"#utility.yul\":799:801   */\n    tag_111:\n        /* \"#utility.yul\":889:890   */\n      0x00\n        /* \"#utility.yul\":913:966   */\n      tag_112\n        /* \"#utility.yul\":958:965   */\n      dup6\n        /* \"#utility.yul\":949:955   */\n      dup3\n        /* \"#utility.yul\":938:947   */\n      dup7\n        /* \"#utility.yul\":934:956   */\n      add\n        /* \"#utility.yul\":913:966   */\n      tag_95\n      jump\t// in\n    tag_112:\n        /* \"#utility.yul\":903:966   */\n      swap3\n      pop\n        /* \"#utility.yul\":861:976   */\n      pop\n        /* \"#utility.yul\":1014:1016   */\n      0x20\n        /* \"#utility.yul\":1039:1092   */\n      tag_113\n        /* \"#utility.yul\":1084:1091   */\n      dup6\n        /* \"#utility.yul\":1075:1081   */\n      dup3\n        /* \"#utility.yul\":1064:1073   */\n      dup7\n        /* \"#utility.yul\":1060:1082   */\n      add\n        /* \"#utility.yul\":1039:1092   */\n      tag_103\n      jump\t// in\n    tag_113:\n        /* \"#utility.yul\":1029:1092   */\n      swap2\n      pop\n        /* \"#utility.yul\":986:1102   */\n      pop\n        /* \"#utility.yul\":789:1109   */\n      swap3\n      pop\n      swap3\n      swap1\n      pop\n      jump\t// out\n        /* \"#utility.yul\":1115:1373   */\n    tag_53:\n      0x00\n        /* \"#utility.yul\":1222:1224   */\n      0x20\n        /* \"#utility.yul\":1210:1219   */\n      dup3\n        /* \"#utility.yul\":1201:1208   */\n      dup5\n        /* \"#utility.yul\":1197:1220   */\n      sub\n        /* \"#utility.yul\":1193:1225   */\n      slt\n        /* \"#utility.yul\":1190:1192   */\n      iszero\n      tag_115\n      jumpi\n        /* \"#utility.yul\":1238:1239   */\n      0x00\n        /* \"#utility.yul\":1235:1236   */\n      dup1\n        /* \"#utility.yul\":1228:1240   */\n      revert\n        /* \"#utility.yul\":1190:1192   */\n    tag_115:\n        /* \"#utility.yul\":1280:1281   */\n      0x00\n        /* \"#utility.yul\":1304:1356   */\n      tag_116\n        /* \"#utility.yul\":1348:1355   */\n      dup5\n        /* \"#utility.yul\":1339:1345   */\n      dup3\n        /* \"#utility.yul\":1328:1337   */\n      dup6\n        /* \"#utility.yul\":1324:1346   */\n      add\n        /* \"#utility.yul\":1304:1356   */\n      tag_99\n      jump\t// in\n    tag_116:\n        /* \"#utility.yul\":1294:1356   */\n      swap2\n      pop\n        /* \"#utility.yul\":1252:1366   */\n      pop\n        /* \"#utility.yul\":1180:1373   */\n      swap3\n      swap2\n      pop\n      pop\n      jump\t// out\n        /* \"#utility.yul\":1379:1639   */\n    tag_25:\n      0x00\n        /* \"#utility.yul\":1487:1489   */\n      0x20\n        /* \"#utility.yul\":1475:1484   */\n      dup3\n        /* \"#utility.yul\":1466:1473   */\n      dup5\n        /* \"#utility.yul\":1462:1485   */\n      sub\n        /* \"#utility.yul\":1458:1490   */\n      slt\n        /* \"#utility.yul\":1455:1457   */\n      iszero\n      tag_118\n      jumpi\n        /* \"#utility.yul\":1503:1504   */\n      0x00\n        /* \"#utility.yul\":1500:1501   */\n      dup1\n        /* \"#utility.yul\":1493:1505   */\n      revert\n        /* \"#utility.yul\":1455:1457   */\n    tag_118:\n        /* \"#utility.yul\":1545:1546   */\n      0x00\n        /* \"#utility.yul\":1569:1622   */\n      tag_119\n        /* \"#utility.yul\":1614:1621   */\n      dup5\n        /* \"#utility.yul\":1605:1611   */\n      dup3\n        /* \"#utility.yul\":1594:1603   */\n      dup6\n        /* \"#utility.yul\":1590:1612   */\n      add\n        /* \"#utility.yul\":1569:1622   */\n      tag_103\n      jump\t// in\n    tag_119:\n        /* \"#utility.yul\":1559:1622   */\n      swap2\n      pop\n        /* \"#utility.yul\":1517:1632   */\n      pop\n        /* \"#utility.yul\":1445:1639   */\n      swap3\n      swap2\n      pop\n      pop\n      jump\t// out\n        /* \"#utility.yul\":1645:1792   */\n    tag_120:\n        /* \"#utility.yul\":1740:1785   */\n      tag_122\n        /* \"#utility.yul\":1779:1784   */\n      dup2\n        /* \"#utility.yul\":1740:1785   */\n      tag_123\n      jump\t// in\n    tag_122:\n        /* \"#utility.yul\":1735:1738   */\n      dup3\n        /* \"#utility.yul\":1728:1786   */\n      mstore\n        /* \"#utility.yul\":1718:1792   */\n      pop\n      pop\n      jump\t// out\n        /* \"#utility.yul\":1798:1916   */\n    tag_124:\n        /* \"#utility.yul\":1885:1909   */\n      tag_126\n        /* \"#utility.yul\":1903:1908   */\n      dup2\n        /* \"#utility.yul\":1885:1909   */\n      tag_127\n      jump\t// in\n    tag_126:\n        /* \"#utility.yul\":1880:1883   */\n      dup3\n        /* \"#utility.yul\":1873:1910   */\n      mstore\n        /* \"#utility.yul\":1863:1916   */\n      pop\n      pop\n      jump\t// out\n        /* \"#utility.yul\":1922:2037   */\n    tag_128:\n        /* \"#utility.yul\":2007:2030   */\n      tag_130\n        /* \"#utility.yul\":2024:2029   */\n      dup2\n        /* \"#utility.yul\":2007:2030   */\n      tag_131\n      jump\t// in\n    tag_130:\n        /* \"#utility.yul\":2002:2005   */\n      dup3\n        /* \"#utility.yul\":1995:2031   */\n      mstore\n        /* \"#utility.yul\":1985:2037   */\n      pop\n      pop\n      jump\t// out\n        /* \"#utility.yul\":2043:2418   */\n    tag_132:\n      0x00\n        /* \"#utility.yul\":2206:2273   */\n      tag_134\n        /* \"#utility.yul\":2270:2272   */\n      0x2b\n        /* \"#utility.yul\":2265:2268   */\n      dup4\n        /* \"#utility.yul\":2206:2273   */\n      tag_135\n      jump\t// in\n    tag_134:\n        /* \"#utility.yul\":2199:2273   */\n      swap2\n      pop\n        /* \"#utility.yul\":2303:2337   */\n      0x4552524f5220325f5468652073656e6465722063616e6e6f7420626520746865\n        /* \"#utility.yul\":2299:2300   */\n      0x00\n        /* \"#utility.yul\":2294:2297   */\n      dup4\n        /* \"#utility.yul\":2290:2301   */\n      add\n        /* \"#utility.yul\":2283:2338   */\n      mstore\n        /* \"#utility.yul\":2369:2382   */\n      0x20726563697069656e742e000000000000000000000000000000000000000000\n        /* \"#utility.yul\":2364:2366   */\n      0x20\n        /* \"#utility.yul\":2359:2362   */\n      dup4\n        /* \"#utility.yul\":2355:2367   */\n      add\n        /* \"#utility.yul\":2348:2383   */\n      mstore\n        /* \"#utility.yul\":2409:2411   */\n      0x40\n        /* \"#utility.yul\":2404:2407   */\n      dup3\n        /* \"#utility.yul\":2400:2412   */\n      add\n        /* \"#utility.yul\":2393:2412   */\n      swap1\n      pop\n        /* \"#utility.yul\":2189:2418   */\n      swap2\n      swap1\n      pop\n      jump\t// out\n        /* \"#utility.yul\":2424:2803   */\n    tag_136:\n      0x00\n        /* \"#utility.yul\":2587:2654   */\n      tag_138\n        /* \"#utility.yul\":2651:2653   */\n      0x2f\n        /* \"#utility.yul\":2646:2649   */\n      dup4\n        /* \"#utility.yul\":2587:2654   */\n      tag_135\n      jump\t// in\n    tag_138:\n        /* \"#utility.yul\":2580:2654   */\n      swap2\n      pop\n        /* \"#utility.yul\":2684:2718   */\n      0x4552524f5220315f496e73756666696369656e742062616c616e636520746f20\n        /* \"#utility.yul\":2680:2681   */\n      0x00\n        /* \"#utility.yul\":2675:2678   */\n      dup4\n        /* \"#utility.yul\":2671:2682   */\n      add\n        /* \"#utility.yul\":2664:2719   */\n      mstore\n        /* \"#utility.yul\":2750:2767   */\n      0x7472616e736665722066756e64732e0000000000000000000000000000000000\n        /* \"#utility.yul\":2745:2747   */\n      0x20\n        /* \"#utility.yul\":2740:2743   */\n      dup4\n        /* \"#utility.yul\":2736:2748   */\n      add\n        /* \"#utility.yul\":2729:2768   */\n      mstore\n        /* \"#utility.yul\":2794:2796   */\n      0x40\n        /* \"#utility.yul\":2789:2792   */\n      dup3\n        /* \"#utility.yul\":2785:2797   */\n      add\n        /* \"#utility.yul\":2778:2797   */\n      swap1\n      pop\n        /* \"#utility.yul\":2570:2803   */\n      swap2\n      swap1\n      pop\n      jump\t// out\n        /* \"#utility.yul\":2809:3188   */\n    tag_139:\n      0x00\n        /* \"#utility.yul\":2972:3039   */\n      tag_141\n        /* \"#utility.yul\":3036:3038   */\n      0x2f\n        /* \"#utility.yul\":3031:3034   */\n      dup4\n        /* \"#utility.yul\":2972:3039   */\n      tag_135\n      jump\t// in\n    tag_141:\n        /* \"#utility.yul\":2965:3039   */\n      swap2\n      pop\n        /* \"#utility.yul\":3069:3103   */\n      0x4552524f5220315f496e73756666696369656e742062616c616e636520746f20\n        /* \"#utility.yul\":3065:3066   */\n      0x00\n        /* \"#utility.yul\":3060:3063   */\n      dup4\n        /* \"#utility.yul\":3056:3067   */\n      add\n        /* \"#utility.yul\":3049:3104   */\n      mstore\n        /* \"#utility.yul\":3135:3152   */\n      0x77697468647261772066756e64732e0000000000000000000000000000000000\n        /* \"#utility.yul\":3130:3132   */\n      0x20\n        /* \"#utility.yul\":3125:3128   */\n      dup4\n        /* \"#utility.yul\":3121:3133   */\n      add\n        /* \"#utility.yul\":3114:3153   */\n      mstore\n        /* \"#utility.yul\":3179:3181   */\n      0x40\n        /* \"#utility.yul\":3174:3177   */\n      dup3\n        /* \"#utility.yul\":3170:3182   */\n      add\n        /* \"#utility.yul\":3163:3182   */\n      swap1\n      pop\n        /* \"#utility.yul\":2955:3188   */\n      swap2\n      swap1\n      pop\n      jump\t// out\n        /* \"#utility.yul\":3194:3312   */\n    tag_142:\n        /* \"#utility.yul\":3281:3305   */\n      tag_144\n        /* \"#utility.yul\":3299:3304   */\n      dup2\n        /* \"#utility.yul\":3281:3305   */\n      tag_145\n      jump\t// in\n    tag_144:\n        /* \"#utility.yul\":3276:3279   */\n      dup3\n        /* \"#utility.yul\":3269:3306   */\n      mstore\n        /* \"#utility.yul\":3259:3312   */\n      pop\n      pop\n      jump\t// out\n        /* \"#utility.yul\":3318:3540   */\n    tag_46:\n      0x00\n        /* \"#utility.yul\":3449:3451   */\n      0x20\n        /* \"#utility.yul\":3438:3447   */\n      dup3\n        /* \"#utility.yul\":3434:3452   */\n      add\n        /* \"#utility.yul\":3426:3452   */\n      swap1\n      pop\n        /* \"#utility.yul\":3462:3533   */\n      tag_147\n        /* \"#utility.yul\":3530:3531   */\n      0x00\n        /* \"#utility.yul\":3519:3528   */\n      dup4\n        /* \"#utility.yul\":3515:3532   */\n      add\n        /* \"#utility.yul\":3506:3512   */\n      dup5\n        /* \"#utility.yul\":3462:3533   */\n      tag_124\n      jump\t// in\n    tag_147:\n        /* \"#utility.yul\":3416:3540   */\n      swap3\n      swap2\n      pop\n      pop\n      jump\t// out\n        /* \"#utility.yul\":3546:4004   */\n    tag_82:\n      0x00\n        /* \"#utility.yul\":3741:3743   */\n      0x60\n        /* \"#utility.yul\":3730:3739   */\n      dup3\n        /* \"#utility.yul\":3726:3744   */\n      add\n        /* \"#utility.yul\":3718:3744   */\n      swap1\n      pop\n        /* \"#utility.yul\":3754:3833   */\n      tag_149\n        /* \"#utility.yul\":3830:3831   */\n      0x00\n        /* \"#utility.yul\":3819:3828   */\n      dup4\n        /* \"#utility.yul\":3815:3832   */\n      add\n        /* \"#utility.yul\":3806:3812   */\n      dup7\n        /* \"#utility.yul\":3754:3833   */\n      tag_120\n      jump\t// in\n    tag_149:\n        /* \"#utility.yul\":3843:3915   */\n      tag_150\n        /* \"#utility.yul\":3911:3913   */\n      0x20\n        /* \"#utility.yul\":3900:3909   */\n      dup4\n        /* \"#utility.yul\":3896:3914   */\n      add\n        /* \"#utility.yul\":3887:3893   */\n      dup6\n        /* \"#utility.yul\":3843:3915   */\n      tag_124\n      jump\t// in\n    tag_150:\n        /* \"#utility.yul\":3925:3997   */\n      tag_151\n        /* \"#utility.yul\":3993:3995   */\n      0x40\n        /* \"#utility.yul\":3982:3991   */\n      dup4\n        /* \"#utility.yul\":3978:3996   */\n      add\n        /* \"#utility.yul\":3969:3975   */\n      dup5\n        /* \"#utility.yul\":3925:3997   */\n      tag_142\n      jump\t// in\n    tag_151:\n        /* \"#utility.yul\":3708:4004   */\n      swap5\n      swap4\n      pop\n      pop\n      pop\n      pop\n      jump\t// out\n        /* \"#utility.yul\":4010:4228   */\n    tag_21:\n      0x00\n        /* \"#utility.yul\":4139:4141   */\n      0x20\n        /* \"#utility.yul\":4128:4137   */\n      dup3\n        /* \"#utility.yul\":4124:4142   */\n      add\n        /* \"#utility.yul\":4116:4142   */\n      swap1\n      pop\n        /* \"#utility.yul\":4152:4221   */\n      tag_153\n        /* \"#utility.yul\":4218:4219   */\n      0x00\n        /* \"#utility.yul\":4207:4216   */\n      dup4\n        /* \"#utility.yul\":4203:4220   */\n      add\n        /* \"#utility.yul\":4194:4200   */\n      dup5\n        /* \"#utility.yul\":4152:4221   */\n      tag_128\n      jump\t// in\n    tag_153:\n        /* \"#utility.yul\":4106:4228   */\n      swap3\n      swap2\n      pop\n      pop\n      jump\t// out\n        /* \"#utility.yul\":4234:4653   */\n    tag_78:\n      0x00\n        /* \"#utility.yul\":4438:4440   */\n      0x20\n        /* \"#utility.yul\":4427:4436   */\n      dup3\n        /* \"#utility.yul\":4423:4441   */\n      add\n        /* \"#utility.yul\":4415:4441   */\n      swap1\n      pop\n        /* \"#utility.yul\":4487:4496   */\n      dup2\n        /* \"#utility.yul\":4481:4485   */\n      dup2\n        /* \"#utility.yul\":4477:4497   */\n      sub\n        /* \"#utility.yul\":4473:4474   */\n      0x00\n        /* \"#utility.yul\":4462:4471   */\n      dup4\n        /* \"#utility.yul\":4458:4475   */\n      add\n        /* \"#utility.yul\":4451:4498   */\n      mstore\n        /* \"#utility.yul\":4515:4646   */\n      tag_155\n        /* \"#utility.yul\":4641:4645   */\n      dup2\n        /* \"#utility.yul\":4515:4646   */\n      tag_132\n      jump\t// in\n    tag_155:\n        /* \"#utility.yul\":4507:4646   */\n      swap1\n      pop\n        /* \"#utility.yul\":4405:4653   */\n      swap2\n      swap1\n      pop\n      jump\t// out\n        /* \"#utility.yul\":4659:5078   */\n    tag_75:\n      0x00\n        /* \"#utility.yul\":4863:4865   */\n      0x20\n        /* \"#utility.yul\":4852:4861   */\n      dup3\n        /* \"#utility.yul\":4848:4866   */\n      add\n        /* \"#utility.yul\":4840:4866   */\n      swap1\n      pop\n        /* \"#utility.yul\":4912:4921   */\n      dup2\n        /* \"#utility.yul\":4906:4910   */\n      dup2\n        /* \"#utility.yul\":4902:4922   */\n      sub\n        /* \"#utility.yul\":4898:4899   */\n      0x00\n        /* \"#utility.yul\":4887:4896   */\n      dup4\n        /* \"#utility.yul\":4883:4900   */\n      add\n        /* \"#utility.yul\":4876:4923   */\n      mstore\n        /* \"#utility.yul\":4940:5071   */\n      tag_157\n        /* \"#utility.yul\":5066:5070   */\n      dup2\n        /* \"#utility.yul\":4940:5071   */\n      tag_136\n      jump\t// in\n    tag_157:\n        /* \"#utility.yul\":4932:5071   */\n      swap1\n      pop\n        /* \"#utility.yul\":4830:5078   */\n      swap2\n      swap1\n      pop\n      jump\t// out\n        /* \"#utility.yul\":5084:5503   */\n    tag_60:\n      0x00\n        /* \"#utility.yul\":5288:5290   */\n      0x20\n        /* \"#utility.yul\":5277:5286   */\n      dup3\n        /* \"#utility.yul\":5273:5291   */\n      add\n        /* \"#utility.yul\":5265:5291   */\n      swap1\n      pop\n        /* \"#utility.yul\":5337:5346   */\n      dup2\n        /* \"#utility.yul\":5331:5335   */\n      dup2\n        /* \"#utility.yul\":5327:5347   */\n      sub\n        /* \"#utility.yul\":5323:5324   */\n      0x00\n        /* \"#utility.yul\":5312:5321   */\n      dup4\n        /* \"#utility.yul\":5308:5325   */\n      add\n        /* \"#utility.yul\":5301:5348   */\n      mstore\n        /* \"#utility.yul\":5365:5496   */\n      tag_159\n        /* \"#utility.yul\":5491:5495   */\n      dup2\n        /* \"#utility.yul\":5365:5496   */\n      tag_139\n      jump\t// in\n    tag_159:\n        /* \"#utility.yul\":5357:5496   */\n      swap1\n      pop\n        /* \"#utility.yul\":5255:5503   */\n      swap2\n      swap1\n      pop\n      jump\t// out\n        /* \"#utility.yul\":5509:5731   */\n    tag_16:\n      0x00\n        /* \"#utility.yul\":5640:5642   */\n      0x20\n        /* \"#utility.yul\":5629:5638   */\n      dup3\n        /* \"#utility.yul\":5625:5643   */\n      add\n        /* \"#utility.yul\":5617:5643   */\n      swap1\n      pop\n        /* \"#utility.yul\":5653:5724   */\n      tag_161\n        /* \"#utility.yul\":5721:5722   */\n      0x00\n        /* \"#utility.yul\":5710:5719   */\n      dup4\n        /* \"#utility.yul\":5706:5723   */\n      add\n        /* \"#utility.yul\":5697:5703   */\n      dup5\n        /* \"#utility.yul\":5653:5724   */\n      tag_142\n      jump\t// in\n    tag_161:\n        /* \"#utility.yul\":5607:5731   */\n      swap3\n      swap2\n      pop\n      pop\n      jump\t// out\n        /* \"#utility.yul\":5737:5906   */\n    tag_135:\n      0x00\n        /* \"#utility.yul\":5855:5861   */\n      dup3\n        /* \"#utility.yul\":5850:5853   */\n      dup3\n        /* \"#utility.yul\":5843:5862   */\n      mstore\n        /* \"#utility.yul\":5895:5899   */\n      0x20\n        /* \"#utility.yul\":5890:5893   */\n      dup3\n        /* \"#utility.yul\":5886:5900   */\n      add\n        /* \"#utility.yul\":5871:5900   */\n      swap1\n      pop\n        /* \"#utility.yul\":5833:5906   */\n      swap3\n      swap2\n      pop\n      pop\n      jump\t// out\n        /* \"#utility.yul\":5912:6008   */\n    tag_127:\n      0x00\n        /* \"#utility.yul\":5978:6002   */\n      tag_164\n        /* \"#utility.yul\":5996:6001   */\n      dup3\n        /* \"#utility.yul\":5978:6002   */\n      tag_165\n      jump\t// in\n    tag_164:\n        /* \"#utility.yul\":5967:6002   */\n      swap1\n      pop\n        /* \"#utility.yul\":5957:6008   */\n      swap2\n      swap1\n      pop\n      jump\t// out\n        /* \"#utility.yul\":6014:6090   */\n    tag_131:\n      0x00\n        /* \"#utility.yul\":6079:6084   */\n      dup2\n        /* \"#utility.yul\":6068:6084   */\n      swap1\n      pop\n        /* \"#utility.yul\":6058:6090   */\n      swap2\n      swap1\n      pop\n      jump\t// out\n        /* \"#utility.yul\":6096:6222   */\n    tag_165:\n      0x00\n        /* \"#utility.yul\":6173:6215   */\n      0xffffffffffffffffffffffffffffffffffffffff\n        /* \"#utility.yul\":6166:6171   */\n      dup3\n        /* \"#utility.yul\":6162:6216   */\n      and\n        /* \"#utility.yul\":6151:6216   */\n      swap1\n      pop\n        /* \"#utility.yul\":6141:6222   */\n      swap2\n      swap1\n      pop\n      jump\t// out\n        /* \"#utility.yul\":6228:6305   */\n    tag_145:\n      0x00\n        /* \"#utility.yul\":6294:6299   */\n      dup2\n        /* \"#utility.yul\":6283:6299   */\n      swap1\n      pop\n        /* \"#utility.yul\":6273:6305   */\n      swap2\n      swap1\n      pop\n      jump\t// out\n        /* \"#utility.yul\":6311:6445   */\n    tag_123:\n      0x00\n        /* \"#utility.yul\":6402:6439   */\n      tag_170\n        /* \"#utility.yul\":6433:6438   */\n      dup3\n        /* \"#utility.yul\":6402:6439   */\n      tag_171\n      jump\t// in\n    tag_170:\n        /* \"#utility.yul\":6389:6439   */\n      swap1\n      pop\n        /* \"#utility.yul\":6379:6445   */\n      swap2\n      swap1\n      pop\n      jump\t// out\n        /* \"#utility.yul\":6451:6577   */\n    tag_171:\n      0x00\n        /* \"#utility.yul\":6534:6571   */\n      tag_173\n        /* \"#utility.yul\":6565:6570   */\n      dup3\n        /* \"#utility.yul\":6534:6571   */\n      tag_174\n      jump\t// in\n    tag_173:\n        /* \"#utility.yul\":6521:6571   */\n      swap1\n      pop\n        /* \"#utility.yul\":6511:6577   */\n      swap2\n      swap1\n      pop\n      jump\t// out\n        /* \"#utility.yul\":6583:6696   */\n    tag_174:\n      0x00\n        /* \"#utility.yul\":6666:6690   */\n      tag_176\n        /* \"#utility.yul\":6684:6689   */\n      dup3\n        /* \"#utility.yul\":6666:6690   */\n      tag_165\n      jump\t// in\n    tag_176:\n        /* \"#utility.yul\":6653:6690   */\n      swap1\n      pop\n        /* \"#utility.yul\":6643:6696   */\n      swap2\n      swap1\n      pop\n      jump\t// out\n        /* \"#utility.yul\":6702:6824   */\n    tag_98:\n        /* \"#utility.yul\":6775:6799   */\n      tag_178\n        /* \"#utility.yul\":6793:6798   */\n      dup2\n        /* \"#utility.yul\":6775:6799   */\n      tag_127\n      jump\t// in\n    tag_178:\n        /* \"#utility.yul\":6768:6773   */\n      dup2\n        /* \"#utility.yul\":6765:6800   */\n      eq\n        /* \"#utility.yul\":6755:6757   */\n      tag_179\n      jumpi\n        /* \"#utility.yul\":6814:6815   */\n      0x00\n        /* \"#utility.yul\":6811:6812   */\n      dup1\n        /* \"#utility.yul\":6804:6816   */\n      revert\n        /* \"#utility.yul\":6755:6757   */\n    tag_179:\n        /* \"#utility.yul\":6745:6824   */\n      pop\n      jump\t// out\n        /* \"#utility.yul\":6830:6950   */\n    tag_102:\n        /* \"#utility.yul\":6902:6925   */\n      tag_181\n        /* \"#utility.yul\":6919:6924   */\n      dup2\n        /* \"#utility.yul\":6902:6925   */\n      tag_131\n      jump\t// in\n    tag_181:\n        /* \"#utility.yul\":6895:6900   */\n      dup2\n        /* \"#utility.yul\":6892:6926   */\n      eq\n        /* \"#utility.yul\":6882:6884   */\n      tag_182\n      jumpi\n        /* \"#utility.yul\":6940:6941   */\n      0x00\n        /* \"#utility.yul\":6937:6938   */\n      dup1\n        /* \"#utility.yul\":6930:6942   */\n      revert\n        /* \"#utility.yul\":6882:6884   */\n    tag_182:\n        /* \"#utility.yul\":6872:6950   */\n      pop\n      jump\t// out\n        /* \"#utility.yul\":6956:7078   */\n    tag_106:\n        /* \"#utility.yul\":7029:7053   */\n      tag_184\n        /* \"#utility.yul\":7047:7052   */\n      dup2\n        /* \"#utility.yul\":7029:7053   */\n      tag_145\n      jump\t// in\n    tag_184:\n        /* \"#utility.yul\":7022:7027   */\n      dup2\n        /* \"#utility.yul\":7019:7054   */\n      eq\n        /* \"#utility.yul\":7009:7011   */\n      tag_185\n      jumpi\n        /* \"#utility.yul\":7068:7069   */\n      0x00\n        /* \"#utility.yul\":7065:7066   */\n      dup1\n        /* \"#utility.yul\":7058:7070   */\n      revert\n        /* \"#utility.yul\":7009:7011   */\n    tag_185:\n        /* \"#utility.yul\":6999:7078   */\n      pop\n      jump\t// out\n\n    auxdata: 0xa264697066735822122009876b3702c2ee99113d35ab88593185402a8640ebffa5f9d837c3374d71909764736f6c63430007050033\n}\n",
				"bytecode": {
					"linkReferences": {},
					"object": "608060405273da0bab807633f07f013f94dd0e6a4f96f8742b53600160006101000a81548173ffffffffffffffffffffffffffffffffffffffff021916908373ffffffffffffffffffffffffffffffffffffffff16021790555034801561006557600080fd5b50336000806101000a81548173ffffffffffffffffffffffffffffffffffffffff021916908373ffffffffffffffffffffffffffffffffffffffff160217905550610e32806100b56000396000f3fe6080604052600436106100865760003560e01c80639cb8a26a116100595780639cb8a26a14610147578063a9059cbb1461015e578063c41a360a14610187578063d0e30db0146101c4578063ec2e11ae146101e257610086565b806312065fe01461008b5780631cd9aa0e146100b65780632e1a7d4d146100e15780637065cb481461011e575b600080fd5b34801561009757600080fd5b506100a061020b565b6040516100ad9190610d0f565b60405180910390f35b3480156100c257600080fd5b506100cb610252565b6040516100d89190610c94565b60405180910390f35b3480156100ed57600080fd5b5061010860048036038101906101039190610aab565b61025c565b6040516101159190610d0f565b60405180910390f35b34801561012a57600080fd5b5061014560048036038101906101409190610a1d565b6103bb565b005b34801561015357600080fd5b5061015c6104b7565b005b34801561016a57600080fd5b5061018560048036038101906101809190610a46565b610528565b005b34801561019357600080fd5b506101ae60048036038101906101a99190610aab565b6107a3565b6040516101bb9190610c42565b60405180910390f35b6101cc610834565b6040516101d99190610d0f565b60405180910390f35b3480156101ee57600080fd5b5061020960048036038101906102049190610a82565b61090c565b005b6000600260003373ffffffffffffffffffffffffffffffffffffffff1673ffffffffffffffffffffffffffffffffffffffff16815260200190815260200160002054905090565b6000600454905090565b600081600260003373ffffffffffffffffffffffffffffffffffffffff1673ffffffffffffffffffffffffffffffffffffffff1681526020019081526020016000205410156102e0576040517f08c379a00000000000000000000000000000000000000000000000000000000081526004016102d790610cef565b60405180910390fd5b3373ffffffffffffffffffffffffffffffffffffffff166108fc839081150290604051600060405180830381858888f19350505050158015610326573d6000803e3d6000fd5b5081600260003373ffffffffffffffffffffffffffffffffffffffff1673ffffffffffffffffffffffffffffffffffffffff16815260200190815260200160002060008282540392505081905550600260003373ffffffffffffffffffffffffffffffffffffffff1673ffffffffffffffffffffffffffffffffffffffff168152602001908152602001600020549050919050565b60008054906101000a900473ffffffffffffffffffffffffffffffffffffffff1673ffffffffffffffffffffffffffffffffffffffff163373ffffffffffffffffffffffffffffffffffffffff161461041357600080fd5b61041b6109b5565b60405180602001604052808373ffffffffffffffffffffffffffffffffffffffff1681525090506003819080600181540180825580915050600190039060005260206000200160009091909190915060008201518160000160006101000a81548173ffffffffffffffffffffffffffffffffffffffff021916908373ffffffffffffffffffffffffffffffffffffffff16021790555050505050565b60008054906101000a900473ffffffffffffffffffffffffffffffffffffffff1673ffffffffffffffffffffffffffffffffffffffff163373ffffffffffffffffffffffffffffffffffffffff161461050f57600080fd5b3373ffffffffffffffffffffffffffffffffffffffff16ff5b80600260003373ffffffffffffffffffffffffffffffffffffffff1673ffffffffffffffffffffffffffffffffffffffff1681526020019081526020016000205410156105aa576040517f08c379a00000000000000000000000000000000000000000000000000000000081526004016105a190610ccf565b60405180910390fd5b8173ffffffffffffffffffffffffffffffffffffffff163373ffffffffffffffffffffffffffffffffffffffff161415610619576040517f08c379a000000000000000000000000000000000000000000000000000000000815260040161061090610caf565b60405180910390fd5b6000600260003373ffffffffffffffffffffffffffffffffffffffff1673ffffffffffffffffffffffffffffffffffffffff168152602001908152602001600020549050610668338484610916565b818373ffffffffffffffffffffffffffffffffffffffff163373ffffffffffffffffffffffffffffffffffffffff167f3573881c639e018e0c3ba3a7d19063f6a7a8205d54eb828319a7f98db00426a060405160405180910390a4600160009054906101000a900473ffffffffffffffffffffffffffffffffffffffff1673ffffffffffffffffffffffffffffffffffffffff1663fe73b27f3385856040518463ffffffff1660e01b815260040161072293929190610c5d565b600060405180830381600087803b15801561073c57600080fd5b505af1158015610750573d6000803e3d6000fd5b50505050818103600260003373ffffffffffffffffffffffffffffffffffffffff1673ffffffffffffffffffffffffffffffffffffffff168152602001908152602001600020541461079e57fe5b505050565b60006107ad6109b5565b600383815481106107ba57fe5b906000526020600020016040518060200160405290816000820160009054906101000a900473ffffffffffffffffffffffffffffffffffffffff1673ffffffffffffffffffffffffffffffffffffffff1673ffffffffffffffffffffffffffffffffffffffff168152505090508060000151915050919050565b600034600260003373ffffffffffffffffffffffffffffffffffffffff1673ffffffffffffffffffffffffffffffffffffffff168152602001908152602001600020600082825401925050819055503373ffffffffffffffffffffffffffffffffffffffff16347fa23831066066ec8812cc52afc91a52134a8b50c9209b68c276be679f4073d95d60405160405180910390a3600260003373ffffffffffffffffffffffffffffffffffffffff1673ffffffffffffffffffffffffffffffffffffffff16815260200190815260200160002054905090565b8060048190555050565b80600260008573ffffffffffffffffffffffffffffffffffffffff1673ffffffffffffffffffffffffffffffffffffffff1681526020019081526020016000206000828254039250508190555080600260008473ffffffffffffffffffffffffffffffffffffffff1673ffffffffffffffffffffffffffffffffffffffff16815260200190815260200160002060008282540192505081905550505050565b6040518060200160405280600073ffffffffffffffffffffffffffffffffffffffff1681525090565b6000813590506109ed81610db7565b92915050565b600081359050610a0281610dce565b92915050565b600081359050610a1781610de5565b92915050565b600060208284031215610a2f57600080fd5b6000610a3d848285016109de565b91505092915050565b60008060408385031215610a5957600080fd5b6000610a67858286016109de565b9250506020610a7885828601610a08565b9150509250929050565b600060208284031215610a9457600080fd5b6000610aa2848285016109f3565b91505092915050565b600060208284031215610abd57600080fd5b6000610acb84828501610a08565b91505092915050565b610add81610d81565b82525050565b610aec81610d3b565b82525050565b610afb81610d4d565b82525050565b6000610b0e602b83610d2a565b91507f4552524f5220325f5468652073656e6465722063616e6e6f742062652074686560008301527f20726563697069656e742e0000000000000000000000000000000000000000006020830152604082019050919050565b6000610b74602f83610d2a565b91507f4552524f5220315f496e73756666696369656e742062616c616e636520746f2060008301527f7472616e736665722066756e64732e00000000000000000000000000000000006020830152604082019050919050565b6000610bda602f83610d2a565b91507f4552524f5220315f496e73756666696369656e742062616c616e636520746f2060008301527f77697468647261772066756e64732e00000000000000000000000000000000006020830152604082019050919050565b610c3c81610d77565b82525050565b6000602082019050610c576000830184610ae3565b92915050565b6000606082019050610c726000830186610ad4565b610c7f6020830185610ae3565b610c8c6040830184610c33565b949350505050565b6000602082019050610ca96000830184610af2565b92915050565b60006020820190508181036000830152610cc881610b01565b9050919050565b60006020820190508181036000830152610ce881610b67565b9050919050565b60006020820190508181036000830152610d0881610bcd565b9050919050565b6000602082019050610d246000830184610c33565b92915050565b600082825260208201905092915050565b6000610d4682610d57565b9050919050565b6000819050919050565b600073ffffffffffffffffffffffffffffffffffffffff82169050919050565b6000819050919050565b6000610d8c82610d93565b9050919050565b6000610d9e82610da5565b9050919050565b6000610db082610d57565b9050919050565b610dc081610d3b565b8114610dcb57600080fd5b50565b610dd781610d4d565b8114610de257600080fd5b50565b610dee81610d77565b8114610df957600080fd5b5056fea264697066735822122009876b3702c2ee99113d35ab88593185402a8640ebffa5f9d837c3374d71909764736f6c63430007050033",
					"opcodes": "PUSH1 0x80 PUSH1 0x40 MSTORE PUSH20 0xDA0BAB807633F07F013F94DD0E6A4F96F8742B53 PUSH1 0x1 PUSH1 0x0 PUSH2 0x100 EXP DUP2 SLOAD DUP2 PUSH20 0xFFFFFFFFFFFFFFFFFFFFFFFFFFFFFFFFFFFFFFFF MUL NOT AND SWAP1 DUP4 PUSH20 0xFFFFFFFFFFFFFFFFFFFFFFFFFFFFFFFFFFFFFFFF AND MUL OR SWAP1 SSTORE POP CALLVALUE DUP1 ISZERO PUSH2 0x65 JUMPI PUSH1 0x0 DUP1 REVERT JUMPDEST POP CALLER PUSH1 0x0 DUP1 PUSH2 0x100 EXP DUP2 SLOAD DUP2 PUSH20 0xFFFFFFFFFFFFFFFFFFFFFFFFFFFFFFFFFFFFFFFF MUL NOT AND SWAP1 DUP4 PUSH20 0xFFFFFFFFFFFFFFFFFFFFFFFFFFFFFFFFFFFFFFFF AND MUL OR SWAP1 SSTORE POP PUSH2 0xE32 DUP1 PUSH2 0xB5 PUSH1 0x0 CODECOPY PUSH1 0x0 RETURN INVALID PUSH1 0x80 PUSH1 0x40 MSTORE PUSH1 0x4 CALLDATASIZE LT PUSH2 0x86 JUMPI PUSH1 0x0 CALLDATALOAD PUSH1 0xE0 SHR DUP1 PUSH4 0x9CB8A26A GT PUSH2 0x59 JUMPI DUP1 PUSH4 0x9CB8A26A EQ PUSH2 0x147 JUMPI DUP1 PUSH4 0xA9059CBB EQ PUSH2 0x15E JUMPI DUP1 PUSH4 0xC41A360A EQ PUSH2 0x187 JUMPI DUP1 PUSH4 0xD0E30DB0 EQ PUSH2 0x1C4 JUMPI DUP1 PUSH4 0xEC2E11AE EQ PUSH2 0x1E2 JUMPI PUSH2 0x86 JUMP JUMPDEST DUP1 PUSH4 0x12065FE0 EQ PUSH2 0x8B JUMPI DUP1 PUSH4 0x1CD9AA0E EQ PUSH2 0xB6 JUMPI DUP1 PUSH4 0x2E1A7D4D EQ PUSH2 0xE1 JUMPI DUP1 PUSH4 0x7065CB48 EQ PUSH2 0x11E JUMPI JUMPDEST PUSH1 0x0 DUP1 REVERT JUMPDEST CALLVALUE DUP1 ISZERO PUSH2 0x97 JUMPI PUSH1 0x0 DUP1 REVERT JUMPDEST POP PUSH2 0xA0 PUSH2 0x20B JUMP JUMPDEST PUSH1 0x40 MLOAD PUSH2 0xAD SWAP2 SWAP1 PUSH2 0xD0F JUMP JUMPDEST PUSH1 0x40 MLOAD DUP1 SWAP2 SUB SWAP1 RETURN JUMPDEST CALLVALUE DUP1 ISZERO PUSH2 0xC2 JUMPI PUSH1 0x0 DUP1 REVERT JUMPDEST POP PUSH2 0xCB PUSH2 0x252 JUMP JUMPDEST PUSH1 0x40 MLOAD PUSH2 0xD8 SWAP2 SWAP1 PUSH2 0xC94 JUMP JUMPDEST PUSH1 0x40 MLOAD DUP1 SWAP2 SUB SWAP1 RETURN JUMPDEST CALLVALUE DUP1 ISZERO PUSH2 0xED JUMPI PUSH1 0x0 DUP1 REVERT JUMPDEST POP PUSH2 0x108 PUSH1 0x4 DUP1 CALLDATASIZE SUB DUP2 ADD SWAP1 PUSH2 0x103 SWAP2 SWAP1 PUSH2 0xAAB JUMP JUMPDEST PUSH2 0x25C JUMP JUMPDEST PUSH1 0x40 MLOAD PUSH2 0x115 SWAP2 SWAP1 PUSH2 0xD0F JUMP JUMPDEST PUSH1 0x40 MLOAD DUP1 SWAP2 SUB SWAP1 RETURN JUMPDEST CALLVALUE DUP1 ISZERO PUSH2 0x12A JUMPI PUSH1 0x0 DUP1 REVERT JUMPDEST POP PUSH2 0x145 PUSH1 0x4 DUP1 CALLDATASIZE SUB DUP2 ADD SWAP1 PUSH2 0x140 SWAP2 SWAP1 PUSH2 0xA1D JUMP JUMPDEST PUSH2 0x3BB JUMP JUMPDEST STOP JUMPDEST CALLVALUE DUP1 ISZERO PUSH2 0x153 JUMPI PUSH1 0x0 DUP1 REVERT JUMPDEST POP PUSH2 0x15C PUSH2 0x4B7 JUMP JUMPDEST STOP JUMPDEST CALLVALUE DUP1 ISZERO PUSH2 0x16A JUMPI PUSH1 0x0 DUP1 REVERT JUMPDEST POP PUSH2 0x185 PUSH1 0x4 DUP1 CALLDATASIZE SUB DUP2 ADD SWAP1 PUSH2 0x180 SWAP2 SWAP1 PUSH2 0xA46 JUMP JUMPDEST PUSH2 0x528 JUMP JUMPDEST STOP JUMPDEST CALLVALUE DUP1 ISZERO PUSH2 0x193 JUMPI PUSH1 0x0 DUP1 REVERT JUMPDEST POP PUSH2 0x1AE PUSH1 0x4 DUP1 CALLDATASIZE SUB DUP2 ADD SWAP1 PUSH2 0x1A9 SWAP2 SWAP1 PUSH2 0xAAB JUMP JUMPDEST PUSH2 0x7A3 JUMP JUMPDEST PUSH1 0x40 MLOAD PUSH2 0x1BB SWAP2 SWAP1 PUSH2 0xC42 JUMP JUMPDEST PUSH1 0x40 MLOAD DUP1 SWAP2 SUB SWAP1 RETURN JUMPDEST PUSH2 0x1CC PUSH2 0x834 JUMP JUMPDEST PUSH1 0x40 MLOAD PUSH2 0x1D9 SWAP2 SWAP1 PUSH2 0xD0F JUMP JUMPDEST PUSH1 0x40 MLOAD DUP1 SWAP2 SUB SWAP1 RETURN JUMPDEST CALLVALUE DUP1 ISZERO PUSH2 0x1EE JUMPI PUSH1 0x0 DUP1 REVERT JUMPDEST POP PUSH2 0x209 PUSH1 0x4 DUP1 CALLDATASIZE SUB DUP2 ADD SWAP1 PUSH2 0x204 SWAP2 SWAP1 PUSH2 0xA82 JUMP JUMPDEST PUSH2 0x90C JUMP JUMPDEST STOP JUMPDEST PUSH1 0x0 PUSH1 0x2 PUSH1 0x0 CALLER PUSH20 0xFFFFFFFFFFFFFFFFFFFFFFFFFFFFFFFFFFFFFFFF AND PUSH20 0xFFFFFFFFFFFFFFFFFFFFFFFFFFFFFFFFFFFFFFFF AND DUP2 MSTORE PUSH1 0x20 ADD SWAP1 DUP2 MSTORE PUSH1 0x20 ADD PUSH1 0x0 KECCAK256 SLOAD SWAP1 POP SWAP1 JUMP JUMPDEST PUSH1 0x0 PUSH1 0x4 SLOAD SWAP1 POP SWAP1 JUMP JUMPDEST PUSH1 0x0 DUP2 PUSH1 0x2 PUSH1 0x0 CALLER PUSH20 0xFFFFFFFFFFFFFFFFFFFFFFFFFFFFFFFFFFFFFFFF AND PUSH20 0xFFFFFFFFFFFFFFFFFFFFFFFFFFFFFFFFFFFFFFFF AND DUP2 MSTORE PUSH1 0x20 ADD SWAP1 DUP2 MSTORE PUSH1 0x20 ADD PUSH1 0x0 KECCAK256 SLOAD LT ISZERO PUSH2 0x2E0 JUMPI PUSH1 0x40 MLOAD PUSH32 0x8C379A000000000000000000000000000000000000000000000000000000000 DUP2 MSTORE PUSH1 0x4 ADD PUSH2 0x2D7 SWAP1 PUSH2 0xCEF JUMP JUMPDEST PUSH1 0x40 MLOAD DUP1 SWAP2 SUB SWAP1 REVERT JUMPDEST CALLER PUSH20 0xFFFFFFFFFFFFFFFFFFFFFFFFFFFFFFFFFFFFFFFF AND PUSH2 0x8FC DUP4 SWAP1 DUP2 ISZERO MUL SWAP1 PUSH1 0x40 MLOAD PUSH1 0x0 PUSH1 0x40 MLOAD DUP1 DUP4 SUB DUP2 DUP6 DUP9 DUP9 CALL SWAP4 POP POP POP POP ISZERO DUP1 ISZERO PUSH2 0x326 JUMPI RETURNDATASIZE PUSH1 0x0 DUP1 RETURNDATACOPY RETURNDATASIZE PUSH1 0x0 REVERT JUMPDEST POP DUP2 PUSH1 0x2 PUSH1 0x0 CALLER PUSH20 0xFFFFFFFFFFFFFFFFFFFFFFFFFFFFFFFFFFFFFFFF AND PUSH20 0xFFFFFFFFFFFFFFFFFFFFFFFFFFFFFFFFFFFFFFFF AND DUP2 MSTORE PUSH1 0x20 ADD SWAP1 DUP2 MSTORE PUSH1 0x20 ADD PUSH1 0x0 KECCAK256 PUSH1 0x0 DUP3 DUP3 SLOAD SUB SWAP3 POP POP DUP2 SWAP1 SSTORE POP PUSH1 0x2 PUSH1 0x0 CALLER PUSH20 0xFFFFFFFFFFFFFFFFFFFFFFFFFFFFFFFFFFFFFFFF AND PUSH20 0xFFFFFFFFFFFFFFFFFFFFFFFFFFFFFFFFFFFFFFFF AND DUP2 MSTORE PUSH1 0x20 ADD SWAP1 DUP2 MSTORE PUSH1 0x20 ADD PUSH1 0x0 KECCAK256 SLOAD SWAP1 POP SWAP2 SWAP1 POP JUMP JUMPDEST PUSH1 0x0 DUP1 SLOAD SWAP1 PUSH2 0x100 EXP SWAP1 DIV PUSH20 0xFFFFFFFFFFFFFFFFFFFFFFFFFFFFFFFFFFFFFFFF AND PUSH20 0xFFFFFFFFFFFFFFFFFFFFFFFFFFFFFFFFFFFFFFFF AND CALLER PUSH20 0xFFFFFFFFFFFFFFFFFFFFFFFFFFFFFFFFFFFFFFFF AND EQ PUSH2 0x413 JUMPI PUSH1 0x0 DUP1 REVERT JUMPDEST PUSH2 0x41B PUSH2 0x9B5 JUMP JUMPDEST PUSH1 0x40 MLOAD DUP1 PUSH1 0x20 ADD PUSH1 0x40 MSTORE DUP1 DUP4 PUSH20 0xFFFFFFFFFFFFFFFFFFFFFFFFFFFFFFFFFFFFFFFF AND DUP2 MSTORE POP SWAP1 POP PUSH1 0x3 DUP2 SWAP1 DUP1 PUSH1 0x1 DUP2 SLOAD ADD DUP1 DUP3 SSTORE DUP1 SWAP2 POP POP PUSH1 0x1 SWAP1 SUB SWAP1 PUSH1 0x0 MSTORE PUSH1 0x20 PUSH1 0x0 KECCAK256 ADD PUSH1 0x0 SWAP1 SWAP2 SWAP1 SWAP2 SWAP1 SWAP2 POP PUSH1 0x0 DUP3 ADD MLOAD DUP2 PUSH1 0x0 ADD PUSH1 0x0 PUSH2 0x100 EXP DUP2 SLOAD DUP2 PUSH20 0xFFFFFFFFFFFFFFFFFFFFFFFFFFFFFFFFFFFFFFFF MUL NOT AND SWAP1 DUP4 PUSH20 0xFFFFFFFFFFFFFFFFFFFFFFFFFFFFFFFFFFFFFFFF AND MUL OR SWAP1 SSTORE POP POP POP POP POP JUMP JUMPDEST PUSH1 0x0 DUP1 SLOAD SWAP1 PUSH2 0x100 EXP SWAP1 DIV PUSH20 0xFFFFFFFFFFFFFFFFFFFFFFFFFFFFFFFFFFFFFFFF AND PUSH20 0xFFFFFFFFFFFFFFFFFFFFFFFFFFFFFFFFFFFFFFFF AND CALLER PUSH20 0xFFFFFFFFFFFFFFFFFFFFFFFFFFFFFFFFFFFFFFFF AND EQ PUSH2 0x50F JUMPI PUSH1 0x0 DUP1 REVERT JUMPDEST CALLER PUSH20 0xFFFFFFFFFFFFFFFFFFFFFFFFFFFFFFFFFFFFFFFF AND SELFDESTRUCT JUMPDEST DUP1 PUSH1 0x2 PUSH1 0x0 CALLER PUSH20 0xFFFFFFFFFFFFFFFFFFFFFFFFFFFFFFFFFFFFFFFF AND PUSH20 0xFFFFFFFFFFFFFFFFFFFFFFFFFFFFFFFFFFFFFFFF AND DUP2 MSTORE PUSH1 0x20 ADD SWAP1 DUP2 MSTORE PUSH1 0x20 ADD PUSH1 0x0 KECCAK256 SLOAD LT ISZERO PUSH2 0x5AA JUMPI PUSH1 0x40 MLOAD PUSH32 0x8C379A000000000000000000000000000000000000000000000000000000000 DUP2 MSTORE PUSH1 0x4 ADD PUSH2 0x5A1 SWAP1 PUSH2 0xCCF JUMP JUMPDEST PUSH1 0x40 MLOAD DUP1 SWAP2 SUB SWAP1 REVERT JUMPDEST DUP2 PUSH20 0xFFFFFFFFFFFFFFFFFFFFFFFFFFFFFFFFFFFFFFFF AND CALLER PUSH20 0xFFFFFFFFFFFFFFFFFFFFFFFFFFFFFFFFFFFFFFFF AND EQ ISZERO PUSH2 0x619 JUMPI PUSH1 0x40 MLOAD PUSH32 0x8C379A000000000000000000000000000000000000000000000000000000000 DUP2 MSTORE PUSH1 0x4 ADD PUSH2 0x610 SWAP1 PUSH2 0xCAF JUMP JUMPDEST PUSH1 0x40 MLOAD DUP1 SWAP2 SUB SWAP1 REVERT JUMPDEST PUSH1 0x0 PUSH1 0x2 PUSH1 0x0 CALLER PUSH20 0xFFFFFFFFFFFFFFFFFFFFFFFFFFFFFFFFFFFFFFFF AND PUSH20 0xFFFFFFFFFFFFFFFFFFFFFFFFFFFFFFFFFFFFFFFF AND DUP2 MSTORE PUSH1 0x20 ADD SWAP1 DUP2 MSTORE PUSH1 0x20 ADD PUSH1 0x0 KECCAK256 SLOAD SWAP1 POP PUSH2 0x668 CALLER DUP5 DUP5 PUSH2 0x916 JUMP JUMPDEST DUP2 DUP4 PUSH20 0xFFFFFFFFFFFFFFFFFFFFFFFFFFFFFFFFFFFFFFFF AND CALLER PUSH20 0xFFFFFFFFFFFFFFFFFFFFFFFFFFFFFFFFFFFFFFFF AND PUSH32 0x3573881C639E018E0C3BA3A7D19063F6A7A8205D54EB828319A7F98DB00426A0 PUSH1 0x40 MLOAD PUSH1 0x40 MLOAD DUP1 SWAP2 SUB SWAP1 LOG4 PUSH1 0x1 PUSH1 0x0 SWAP1 SLOAD SWAP1 PUSH2 0x100 EXP SWAP1 DIV PUSH20 0xFFFFFFFFFFFFFFFFFFFFFFFFFFFFFFFFFFFFFFFF AND PUSH20 0xFFFFFFFFFFFFFFFFFFFFFFFFFFFFFFFFFFFFFFFF AND PUSH4 0xFE73B27F CALLER DUP6 DUP6 PUSH1 0x40 MLOAD DUP5 PUSH4 0xFFFFFFFF AND PUSH1 0xE0 SHL DUP2 MSTORE PUSH1 0x4 ADD PUSH2 0x722 SWAP4 SWAP3 SWAP2 SWAP1 PUSH2 0xC5D JUMP JUMPDEST PUSH1 0x0 PUSH1 0x40 MLOAD DUP1 DUP4 SUB DUP2 PUSH1 0x0 DUP8 DUP1 EXTCODESIZE ISZERO DUP1 ISZERO PUSH2 0x73C JUMPI PUSH1 0x0 DUP1 REVERT JUMPDEST POP GAS CALL ISZERO DUP1 ISZERO PUSH2 0x750 JUMPI RETURNDATASIZE PUSH1 0x0 DUP1 RETURNDATACOPY RETURNDATASIZE PUSH1 0x0 REVERT JUMPDEST POP POP POP POP DUP2 DUP2 SUB PUSH1 0x2 PUSH1 0x0 CALLER PUSH20 0xFFFFFFFFFFFFFFFFFFFFFFFFFFFFFFFFFFFFFFFF AND PUSH20 0xFFFFFFFFFFFFFFFFFFFFFFFFFFFFFFFFFFFFFFFF AND DUP2 MSTORE PUSH1 0x20 ADD SWAP1 DUP2 MSTORE PUSH1 0x20 ADD PUSH1 0x0 KECCAK256 SLOAD EQ PUSH2 0x79E JUMPI INVALID JUMPDEST POP POP POP JUMP JUMPDEST PUSH1 0x0 PUSH2 0x7AD PUSH2 0x9B5 JUMP JUMPDEST PUSH1 0x3 DUP4 DUP2 SLOAD DUP2 LT PUSH2 0x7BA JUMPI INVALID JUMPDEST SWAP1 PUSH1 0x0 MSTORE PUSH1 0x20 PUSH1 0x0 KECCAK256 ADD PUSH1 0x40 MLOAD DUP1 PUSH1 0x20 ADD PUSH1 0x40 MSTORE SWAP1 DUP2 PUSH1 0x0 DUP3 ADD PUSH1 0x0 SWAP1 SLOAD SWAP1 PUSH2 0x100 EXP SWAP1 DIV PUSH20 0xFFFFFFFFFFFFFFFFFFFFFFFFFFFFFFFFFFFFFFFF AND PUSH20 0xFFFFFFFFFFFFFFFFFFFFFFFFFFFFFFFFFFFFFFFF AND PUSH20 0xFFFFFFFFFFFFFFFFFFFFFFFFFFFFFFFFFFFFFFFF AND DUP2 MSTORE POP POP SWAP1 POP DUP1 PUSH1 0x0 ADD MLOAD SWAP2 POP POP SWAP2 SWAP1 POP JUMP JUMPDEST PUSH1 0x0 CALLVALUE PUSH1 0x2 PUSH1 0x0 CALLER PUSH20 0xFFFFFFFFFFFFFFFFFFFFFFFFFFFFFFFFFFFFFFFF AND PUSH20 0xFFFFFFFFFFFFFFFFFFFFFFFFFFFFFFFFFFFFFFFF AND DUP2 MSTORE PUSH1 0x20 ADD SWAP1 DUP2 MSTORE PUSH1 0x20 ADD PUSH1 0x0 KECCAK256 PUSH1 0x0 DUP3 DUP3 SLOAD ADD SWAP3 POP POP DUP2 SWAP1 SSTORE POP CALLER PUSH20 0xFFFFFFFFFFFFFFFFFFFFFFFFFFFFFFFFFFFFFFFF AND CALLVALUE PUSH32 0xA23831066066EC8812CC52AFC91A52134A8B50C9209B68C276BE679F4073D95D PUSH1 0x40 MLOAD PUSH1 0x40 MLOAD DUP1 SWAP2 SUB SWAP1 LOG3 PUSH1 0x2 PUSH1 0x0 CALLER PUSH20 0xFFFFFFFFFFFFFFFFFFFFFFFFFFFFFFFFFFFFFFFF AND PUSH20 0xFFFFFFFFFFFFFFFFFFFFFFFFFFFFFFFFFFFFFFFF AND DUP2 MSTORE PUSH1 0x20 ADD SWAP1 DUP2 MSTORE PUSH1 0x20 ADD PUSH1 0x0 KECCAK256 SLOAD SWAP1 POP SWAP1 JUMP JUMPDEST DUP1 PUSH1 0x4 DUP2 SWAP1 SSTORE POP POP JUMP JUMPDEST DUP1 PUSH1 0x2 PUSH1 0x0 DUP6 PUSH20 0xFFFFFFFFFFFFFFFFFFFFFFFFFFFFFFFFFFFFFFFF AND PUSH20 0xFFFFFFFFFFFFFFFFFFFFFFFFFFFFFFFFFFFFFFFF AND DUP2 MSTORE PUSH1 0x20 ADD SWAP1 DUP2 MSTORE PUSH1 0x20 ADD PUSH1 0x0 KECCAK256 PUSH1 0x0 DUP3 DUP3 SLOAD SUB SWAP3 POP POP DUP2 SWAP1 SSTORE POP DUP1 PUSH1 0x2 PUSH1 0x0 DUP5 PUSH20 0xFFFFFFFFFFFFFFFFFFFFFFFFFFFFFFFFFFFFFFFF AND PUSH20 0xFFFFFFFFFFFFFFFFFFFFFFFFFFFFFFFFFFFFFFFF AND DUP2 MSTORE PUSH1 0x20 ADD SWAP1 DUP2 MSTORE PUSH1 0x20 ADD PUSH1 0x0 KECCAK256 PUSH1 0x0 DUP3 DUP3 SLOAD ADD SWAP3 POP POP DUP2 SWAP1 SSTORE POP POP POP POP JUMP JUMPDEST PUSH1 0x40 MLOAD DUP1 PUSH1 0x20 ADD PUSH1 0x40 MSTORE DUP1 PUSH1 0x0 PUSH20 0xFFFFFFFFFFFFFFFFFFFFFFFFFFFFFFFFFFFFFFFF AND DUP2 MSTORE POP SWAP1 JUMP JUMPDEST PUSH1 0x0 DUP2 CALLDATALOAD SWAP1 POP PUSH2 0x9ED DUP2 PUSH2 0xDB7 JUMP JUMPDEST SWAP3 SWAP2 POP POP JUMP JUMPDEST PUSH1 0x0 DUP2 CALLDATALOAD SWAP1 POP PUSH2 0xA02 DUP2 PUSH2 0xDCE JUMP JUMPDEST SWAP3 SWAP2 POP POP JUMP JUMPDEST PUSH1 0x0 DUP2 CALLDATALOAD SWAP1 POP PUSH2 0xA17 DUP2 PUSH2 0xDE5 JUMP JUMPDEST SWAP3 SWAP2 POP POP JUMP JUMPDEST PUSH1 0x0 PUSH1 0x20 DUP3 DUP5 SUB SLT ISZERO PUSH2 0xA2F JUMPI PUSH1 0x0 DUP1 REVERT JUMPDEST PUSH1 0x0 PUSH2 0xA3D DUP5 DUP3 DUP6 ADD PUSH2 0x9DE JUMP JUMPDEST SWAP2 POP POP SWAP3 SWAP2 POP POP JUMP JUMPDEST PUSH1 0x0 DUP1 PUSH1 0x40 DUP4 DUP6 SUB SLT ISZERO PUSH2 0xA59 JUMPI PUSH1 0x0 DUP1 REVERT JUMPDEST PUSH1 0x0 PUSH2 0xA67 DUP6 DUP3 DUP7 ADD PUSH2 0x9DE JUMP JUMPDEST SWAP3 POP POP PUSH1 0x20 PUSH2 0xA78 DUP6 DUP3 DUP7 ADD PUSH2 0xA08 JUMP JUMPDEST SWAP2 POP POP SWAP3 POP SWAP3 SWAP1 POP JUMP JUMPDEST PUSH1 0x0 PUSH1 0x20 DUP3 DUP5 SUB SLT ISZERO PUSH2 0xA94 JUMPI PUSH1 0x0 DUP1 REVERT JUMPDEST PUSH1 0x0 PUSH2 0xAA2 DUP5 DUP3 DUP6 ADD PUSH2 0x9F3 JUMP JUMPDEST SWAP2 POP POP SWAP3 SWAP2 POP POP JUMP JUMPDEST PUSH1 0x0 PUSH1 0x20 DUP3 DUP5 SUB SLT ISZERO PUSH2 0xABD JUMPI PUSH1 0x0 DUP1 REVERT JUMPDEST PUSH1 0x0 PUSH2 0xACB DUP5 DUP3 DUP6 ADD PUSH2 0xA08 JUMP JUMPDEST SWAP2 POP POP SWAP3 SWAP2 POP POP JUMP JUMPDEST PUSH2 0xADD DUP2 PUSH2 0xD81 JUMP JUMPDEST DUP3 MSTORE POP POP JUMP JUMPDEST PUSH2 0xAEC DUP2 PUSH2 0xD3B JUMP JUMPDEST DUP3 MSTORE POP POP JUMP JUMPDEST PUSH2 0xAFB DUP2 PUSH2 0xD4D JUMP JUMPDEST DUP3 MSTORE POP POP JUMP JUMPDEST PUSH1 0x0 PUSH2 0xB0E PUSH1 0x2B DUP4 PUSH2 0xD2A JUMP JUMPDEST SWAP2 POP PUSH32 0x4552524F5220325F5468652073656E6465722063616E6E6F7420626520746865 PUSH1 0x0 DUP4 ADD MSTORE PUSH32 0x20726563697069656E742E000000000000000000000000000000000000000000 PUSH1 0x20 DUP4 ADD MSTORE PUSH1 0x40 DUP3 ADD SWAP1 POP SWAP2 SWAP1 POP JUMP JUMPDEST PUSH1 0x0 PUSH2 0xB74 PUSH1 0x2F DUP4 PUSH2 0xD2A JUMP JUMPDEST SWAP2 POP PUSH32 0x4552524F5220315F496E73756666696369656E742062616C616E636520746F20 PUSH1 0x0 DUP4 ADD MSTORE PUSH32 0x7472616E736665722066756E64732E0000000000000000000000000000000000 PUSH1 0x20 DUP4 ADD MSTORE PUSH1 0x40 DUP3 ADD SWAP1 POP SWAP2 SWAP1 POP JUMP JUMPDEST PUSH1 0x0 PUSH2 0xBDA PUSH1 0x2F DUP4 PUSH2 0xD2A JUMP JUMPDEST SWAP2 POP PUSH32 0x4552524F5220315F496E73756666696369656E742062616C616E636520746F20 PUSH1 0x0 DUP4 ADD MSTORE PUSH32 0x77697468647261772066756E64732E0000000000000000000000000000000000 PUSH1 0x20 DUP4 ADD MSTORE PUSH1 0x40 DUP3 ADD SWAP1 POP SWAP2 SWAP1 POP JUMP JUMPDEST PUSH2 0xC3C DUP2 PUSH2 0xD77 JUMP JUMPDEST DUP3 MSTORE POP POP JUMP JUMPDEST PUSH1 0x0 PUSH1 0x20 DUP3 ADD SWAP1 POP PUSH2 0xC57 PUSH1 0x0 DUP4 ADD DUP5 PUSH2 0xAE3 JUMP JUMPDEST SWAP3 SWAP2 POP POP JUMP JUMPDEST PUSH1 0x0 PUSH1 0x60 DUP3 ADD SWAP1 POP PUSH2 0xC72 PUSH1 0x0 DUP4 ADD DUP7 PUSH2 0xAD4 JUMP JUMPDEST PUSH2 0xC7F PUSH1 0x20 DUP4 ADD DUP6 PUSH2 0xAE3 JUMP JUMPDEST PUSH2 0xC8C PUSH1 0x40 DUP4 ADD DUP5 PUSH2 0xC33 JUMP JUMPDEST SWAP5 SWAP4 POP POP POP POP JUMP JUMPDEST PUSH1 0x0 PUSH1 0x20 DUP3 ADD SWAP1 POP PUSH2 0xCA9 PUSH1 0x0 DUP4 ADD DUP5 PUSH2 0xAF2 JUMP JUMPDEST SWAP3 SWAP2 POP POP JUMP JUMPDEST PUSH1 0x0 PUSH1 0x20 DUP3 ADD SWAP1 POP DUP2 DUP2 SUB PUSH1 0x0 DUP4 ADD MSTORE PUSH2 0xCC8 DUP2 PUSH2 0xB01 JUMP JUMPDEST SWAP1 POP SWAP2 SWAP1 POP JUMP JUMPDEST PUSH1 0x0 PUSH1 0x20 DUP3 ADD SWAP1 POP DUP2 DUP2 SUB PUSH1 0x0 DUP4 ADD MSTORE PUSH2 0xCE8 DUP2 PUSH2 0xB67 JUMP JUMPDEST SWAP1 POP SWAP2 SWAP1 POP JUMP JUMPDEST PUSH1 0x0 PUSH1 0x20 DUP3 ADD SWAP1 POP DUP2 DUP2 SUB PUSH1 0x0 DUP4 ADD MSTORE PUSH2 0xD08 DUP2 PUSH2 0xBCD JUMP JUMPDEST SWAP1 POP SWAP2 SWAP1 POP JUMP JUMPDEST PUSH1 0x0 PUSH1 0x20 DUP3 ADD SWAP1 POP PUSH2 0xD24 PUSH1 0x0 DUP4 ADD DUP5 PUSH2 0xC33 JUMP JUMPDEST SWAP3 SWAP2 POP POP JUMP JUMPDEST PUSH1 0x0 DUP3 DUP3 MSTORE PUSH1 0x20 DUP3 ADD SWAP1 POP SWAP3 SWAP2 POP POP JUMP JUMPDEST PUSH1 0x0 PUSH2 0xD46 DUP3 PUSH2 0xD57 JUMP JUMPDEST SWAP1 POP SWAP2 SWAP1 POP JUMP JUMPDEST PUSH1 0x0 DUP2 SWAP1 POP SWAP2 SWAP1 POP JUMP JUMPDEST PUSH1 0x0 PUSH20 0xFFFFFFFFFFFFFFFFFFFFFFFFFFFFFFFFFFFFFFFF DUP3 AND SWAP1 POP SWAP2 SWAP1 POP JUMP JUMPDEST PUSH1 0x0 DUP2 SWAP1 POP SWAP2 SWAP1 POP JUMP JUMPDEST PUSH1 0x0 PUSH2 0xD8C DUP3 PUSH2 0xD93 JUMP JUMPDEST SWAP1 POP SWAP2 SWAP1 POP JUMP JUMPDEST PUSH1 0x0 PUSH2 0xD9E DUP3 PUSH2 0xDA5 JUMP JUMPDEST SWAP1 POP SWAP2 SWAP1 POP JUMP JUMPDEST PUSH1 0x0 PUSH2 0xDB0 DUP3 PUSH2 0xD57 JUMP JUMPDEST SWAP1 POP SWAP2 SWAP1 POP JUMP JUMPDEST PUSH2 0xDC0 DUP2 PUSH2 0xD3B JUMP JUMPDEST DUP2 EQ PUSH2 0xDCB JUMPI PUSH1 0x0 DUP1 REVERT JUMPDEST POP JUMP JUMPDEST PUSH2 0xDD7 DUP2 PUSH2 0xD4D JUMP JUMPDEST DUP2 EQ PUSH2 0xDE2 JUMPI PUSH1 0x0 DUP1 REVERT JUMPDEST POP JUMP JUMPDEST PUSH2 0xDEE DUP2 PUSH2 0xD77 JUMP JUMPDEST DUP2 EQ PUSH2 0xDF9 JUMPI PUSH1 0x0 DUP1 REVERT JUMPDEST POP JUMP INVALID LOG2 PUSH5 0x6970667358 0x22 SLT KECCAK256 MULMOD DUP8 PUSH12 0x3702C2EE99113D35AB885931 DUP6 BLOCKHASH 0x2A DUP7 BLOCKHASH 0xEB SELFDESTRUCT 0xA5 0xF9 0xD8 CALLDATACOPY 0xC3 CALLDATACOPY 0x4D PUSH18 0x909764736F6C634300070500330000000000 "
				},
				"gasEstimates": {
					"creation": {
						"codeDepositCost": "726800",
						"executionCost": "42493",
						"totalCost": "769293"
					},
					"external": {
						"addOwner(address)": "43323",
						"deposit()": "23726",
						"getBalance()": "1227",
						"getNumApprovals()": "1160",
						"getOwner(uint256)": "2562",
						"selfDestruct()": "31010",
						"setNumApprovals(int256)": "20508",
						"transfer(address,uint256)": "infinite",
						"withdraw(uint256)": "infinite"
					},
					"internal": {
						"_transfer(address,address,uint256)": "41867"
					}
				},
				"methodIdentifiers": {
					"addOwner(address)": "7065cb48",
					"deposit()": "d0e30db0",
					"getBalance()": "12065fe0",
					"getNumApprovals()": "1cd9aa0e",
					"getOwner(uint256)": "c41a360a",
					"selfDestruct()": "9cb8a26a",
					"setNumApprovals(int256)": "ec2e11ae",
					"transfer(address,uint256)": "a9059cbb",
					"withdraw(uint256)": "2e1a7d4d"
				}
			},
			"storageLayout": {
				"storage": [
					{
						"astId": 291,
						"contract": "contracts/Bank_MultiSIG.sol:Bank",
						"label": "owner",
						"offset": 0,
						"slot": "0",
						"type": "t_address"
					},
					{
						"astId": 23,
						"contract": "contracts/Bank_MultiSIG.sol:Bank",
						"label": "GovernmentInstance",
						"offset": 0,
						"slot": "1",
						"type": "t_contract(GovernmentInterface)14"
					},
					{
						"astId": 27,
						"contract": "contracts/Bank_MultiSIG.sol:Bank",
						"label": "balance",
						"offset": 0,
						"slot": "2",
						"type": "t_mapping(t_address,t_uint256)"
					},
					{
						"astId": 47,
						"contract": "contracts/Bank_MultiSIG.sol:Bank",
						"label": "owners",
						"offset": 0,
						"slot": "3",
						"type": "t_array(t_struct(Owner)44_storage)dyn_storage"
					},
					{
						"astId": 87,
						"contract": "contracts/Bank_MultiSIG.sol:Bank",
						"label": "numApprovals",
						"offset": 0,
						"slot": "4",
						"type": "t_int256"
					}
				],
				"types": {
					"t_address": {
						"encoding": "inplace",
						"label": "address",
						"numberOfBytes": "20"
					},
					"t_array(t_struct(Owner)44_storage)dyn_storage": {
						"base": "t_struct(Owner)44_storage",
						"encoding": "dynamic_array",
						"label": "struct Bank.Owner[]",
						"numberOfBytes": "32"
					},
					"t_contract(GovernmentInterface)14": {
						"encoding": "inplace",
						"label": "contract GovernmentInterface",
						"numberOfBytes": "20"
					},
					"t_int256": {
						"encoding": "inplace",
						"label": "int256",
						"numberOfBytes": "32"
					},
					"t_mapping(t_address,t_uint256)": {
						"encoding": "mapping",
						"key": "t_address",
						"label": "mapping(address => uint256)",
						"numberOfBytes": "32",
						"value": "t_uint256"
					},
					"t_struct(Owner)44_storage": {
						"encoding": "inplace",
						"label": "struct Bank.Owner",
						"members": [
							{
								"astId": 43,
								"contract": "contracts/Bank_MultiSIG.sol:Bank",
								"label": "oaddress",
								"offset": 0,
								"slot": "0",
								"type": "t_address"
							}
						],
						"numberOfBytes": "32"
					},
					"t_uint256": {
						"encoding": "inplace",
						"label": "uint256",
						"numberOfBytes": "32"
					}
				}
			},
			"userdoc": {
				"kind": "user",
				"methods": {},
				"version": 1
			}
		}
	}
}