{
	"contracts/Bank_MultiSIG.sol": {
		"Bank": {
			"abi": [
				{
					"anonymous": false,
					"inputs": [
						{
							"indexed": true,
							"internalType": "uint256",
							"name": "amount",
							"type": "uint256"
						},
						{
							"indexed": true,
							"internalType": "address",
							"name": "depositedTo",
							"type": "address"
						}
					],
					"name": "deposited",
					"type": "event"
				},
				{
					"anonymous": false,
					"inputs": [
						{
							"indexed": true,
							"internalType": "address",
							"name": "from",
							"type": "address"
						},
						{
							"indexed": true,
							"internalType": "address",
							"name": "to",
							"type": "address"
						},
						{
							"indexed": true,
							"internalType": "uint256",
							"name": "amount",
							"type": "uint256"
						}
					],
					"name": "transferedAmount",
					"type": "event"
				},
				{
					"inputs": [
						{
							"internalType": "address",
							"name": "_oaddress",
							"type": "address"
						}
					],
					"name": "addOwner",
					"outputs": [],
					"stateMutability": "nonpayable",
					"type": "function"
				},
				{
					"inputs": [],
					"name": "deposit",
					"outputs": [
						{
							"internalType": "uint256",
							"name": "",
							"type": "uint256"
						}
					],
					"stateMutability": "payable",
					"type": "function"
				},
				{
					"inputs": [],
					"name": "getBalance",
					"outputs": [
						{
							"internalType": "uint256",
							"name": "",
							"type": "uint256"
						}
					],
					"stateMutability": "view",
					"type": "function"
				},
				{
					"inputs": [
						{
							"internalType": "uint256",
							"name": "_index",
							"type": "uint256"
						}
					],
					"name": "getOwner",
					"outputs": [
						{
							"internalType": "address",
							"name": "",
							"type": "address"
						}
					],
					"stateMutability": "view",
					"type": "function"
				},
				{
					"inputs": [],
					"name": "selfDestruct",
					"outputs": [],
					"stateMutability": "nonpayable",
					"type": "function"
				},
				{
					"inputs": [
						{
							"internalType": "address",
							"name": "recipient",
							"type": "address"
						},
						{
							"internalType": "uint256",
							"name": "amount",
							"type": "uint256"
						}
					],
					"name": "transfer",
					"outputs": [],
					"stateMutability": "nonpayable",
					"type": "function"
				},
				{
					"inputs": [
						{
							"internalType": "uint256",
							"name": "amount",
							"type": "uint256"
						}
					],
					"name": "withdraw",
					"outputs": [
						{
							"internalType": "uint256",
							"name": "",
							"type": "uint256"
						}
					],
					"stateMutability": "nonpayable",
					"type": "function"
				}
			],
			"devdoc": {
				"kind": "dev",
				"methods": {},
				"version": 1
			},
			"evm": {
				"assembly": "    /* \"contracts/Bank_MultiSIG.sol\":292:3045  contract Bank is Ownable, Destroyable {\r... */\n  mstore(0x40, 0x80)\n    /* \"contracts/Bank_MultiSIG.sol\":400:442  0xDA0bab807633f07f013f94DD0E6A4F96F8742B53 */\n  0xda0bab807633f07f013f94dd0e6a4f96f8742b53\n    /* \"contracts/Bank_MultiSIG.sol\":339:443  GovernmentInterface GovernmentInstance = GovernmentInterface(0xDA0bab807633f07f013f94DD0E6A4F96F8742B53) */\n  0x01\n  exp(0x0100, 0x00)\n  dup2\n  sload\n  dup2\n  0xffffffffffffffffffffffffffffffffffffffff\n  mul\n  not\n  and\n  swap1\n  dup4\n  0xffffffffffffffffffffffffffffffffffffffff\n  and\n  mul\n  or\n  swap1\n  sstore\n  pop\n    /* \"contracts/Bank_MultiSIG.sol\":292:3045  contract Bank is Ownable, Destroyable {\r... */\n  callvalue\n  dup1\n  iszero\n  tag_1\n  jumpi\n  0x00\n  dup1\n  revert\ntag_1:\n  pop\n    /* \"contracts/Inheritance_Ownable.sol\":414:424  msg.sender */\n  caller\n    /* \"contracts/Inheritance_Ownable.sol\":406:411  owner */\n  0x00\n  dup1\n    /* \"contracts/Inheritance_Ownable.sol\":406:424  owner = msg.sender */\n  0x0100\n  exp\n  dup2\n  sload\n  dup2\n  0xffffffffffffffffffffffffffffffffffffffff\n  mul\n  not\n  and\n  swap1\n  dup4\n  0xffffffffffffffffffffffffffffffffffffffff\n  and\n  mul\n  or\n  swap1\n  sstore\n  pop\n    /* \"contracts/Bank_MultiSIG.sol\":292:3045  contract Bank is Ownable, Destroyable {\r... */\n  dataSize(sub_0)\n  dup1\n  dataOffset(sub_0)\n  0x00\n  codecopy\n  0x00\n  return\nstop\n\nsub_0: assembly {\n        /* \"contracts/Bank_MultiSIG.sol\":292:3045  contract Bank is Ownable, Destroyable {\r... */\n      mstore(0x40, 0x80)\n      jumpi(tag_1, lt(calldatasize, 0x04))\n      shr(0xe0, calldataload(0x00))\n      dup1\n      0x9cb8a26a\n      gt\n      tag_9\n      jumpi\n      dup1\n      0x9cb8a26a\n      eq\n      tag_5\n      jumpi\n      dup1\n      0xa9059cbb\n      eq\n      tag_6\n      jumpi\n      dup1\n      0xc41a360a\n      eq\n      tag_7\n      jumpi\n      dup1\n      0xd0e30db0\n      eq\n      tag_8\n      jumpi\n      jump(tag_1)\n    tag_9:\n      dup1\n      0x12065fe0\n      eq\n      tag_2\n      jumpi\n      dup1\n      0x2e1a7d4d\n      eq\n      tag_3\n      jumpi\n      dup1\n      0x7065cb48\n      eq\n      tag_4\n      jumpi\n    tag_1:\n      0x00\n      dup1\n      revert\n        /* \"contracts/Bank_MultiSIG.sol\":1786:1879  function getBalance() public view returns (uint){\r... */\n    tag_2:\n      callvalue\n      dup1\n      iszero\n      tag_10\n      jumpi\n      0x00\n      dup1\n      revert\n    tag_10:\n      pop\n      tag_11\n      tag_12\n      jump\t// in\n    tag_11:\n      mload(0x40)\n      tag_13\n      swap2\n      swap1\n      tag_14\n      jump\t// in\n    tag_13:\n      mload(0x40)\n      dup1\n      swap2\n      sub\n      swap1\n      return\n        /* \"contracts/Bank_MultiSIG.sol\":1985:2258  function withdraw(uint amount) public returns (uint){\r... */\n    tag_3:\n      callvalue\n      dup1\n      iszero\n      tag_15\n      jumpi\n      0x00\n      dup1\n      revert\n    tag_15:\n      pop\n      tag_16\n      0x04\n      dup1\n      calldatasize\n      sub\n      dup2\n      add\n      swap1\n      tag_17\n      swap2\n      swap1\n      tag_18\n      jump\t// in\n    tag_17:\n      tag_19\n      jump\t// in\n    tag_16:\n      mload(0x40)\n      tag_20\n      swap2\n      swap1\n      tag_14\n      jump\t// in\n    tag_20:\n      mload(0x40)\n      dup1\n      swap2\n      sub\n      swap1\n      return\n        /* \"contracts/Bank_MultiSIG.sol\":812:961  function addOwner(address _oaddress) onlyOwner public {\r... */\n    tag_4:\n      callvalue\n      dup1\n      iszero\n      tag_21\n      jumpi\n      0x00\n      dup1\n      revert\n    tag_21:\n      pop\n      tag_22\n      0x04\n      dup1\n      calldatasize\n      sub\n      dup2\n      add\n      swap1\n      tag_23\n      swap2\n      swap1\n      tag_24\n      jump\t// in\n    tag_23:\n      tag_25\n      jump\t// in\n    tag_22:\n      stop\n        /* \"contracts/Inheritance_Destroyable.sol\":141:225  function selfDestruct() public onlyOwner {\r... */\n    tag_5:\n      callvalue\n      dup1\n      iszero\n      tag_26\n      jumpi\n      0x00\n      dup1\n      revert\n    tag_26:\n      pop\n      tag_27\n      tag_28\n      jump\t// in\n    tag_27:\n      stop\n        /* \"contracts/Bank_MultiSIG.sol\":2266:2892  function transfer(address recipient, uint amount) public {\r... */\n    tag_6:\n      callvalue\n      dup1\n      iszero\n      tag_29\n      jumpi\n      0x00\n      dup1\n      revert\n    tag_29:\n      pop\n      tag_30\n      0x04\n      dup1\n      calldatasize\n      sub\n      dup2\n      add\n      swap1\n      tag_31\n      swap2\n      swap1\n      tag_32\n      jump\t// in\n    tag_31:\n      tag_33\n      jump\t// in\n    tag_30:\n      stop\n        /* \"contracts/Bank_MultiSIG.sol\":969:1137  function getOwner(uint _index) public view returns (address){\r... */\n    tag_7:\n      callvalue\n      dup1\n      iszero\n      tag_34\n      jumpi\n      0x00\n      dup1\n      revert\n    tag_34:\n      pop\n      tag_35\n      0x04\n      dup1\n      calldatasize\n      sub\n      dup2\n      add\n      swap1\n      tag_36\n      swap2\n      swap1\n      tag_18\n      jump\t// in\n    tag_36:\n      tag_37\n      jump\t// in\n    tag_35:\n      mload(0x40)\n      tag_38\n      swap2\n      swap1\n      tag_39\n      jump\t// in\n    tag_38:\n      mload(0x40)\n      dup1\n      swap2\n      sub\n      swap1\n      return\n        /* \"contracts/Bank_MultiSIG.sol\":1371:1684  function deposit() public payable returns (uint) { \r... */\n    tag_8:\n      tag_40\n      tag_41\n      jump\t// in\n    tag_40:\n      mload(0x40)\n      tag_42\n      swap2\n      swap1\n      tag_14\n      jump\t// in\n    tag_42:\n      mload(0x40)\n      dup1\n      swap2\n      sub\n      swap1\n      return\n        /* \"contracts/Bank_MultiSIG.sol\":1786:1879  function getBalance() public view returns (uint){\r... */\n    tag_12:\n        /* \"contracts/Bank_MultiSIG.sol\":1829:1833  uint */\n      0x00\n        /* \"contracts/Bank_MultiSIG.sol\":1852:1859  balance */\n      0x02\n        /* \"contracts/Bank_MultiSIG.sol\":1852:1871  balance[msg.sender] */\n      0x00\n        /* \"contracts/Bank_MultiSIG.sol\":1860:1870  msg.sender */\n      caller\n        /* \"contracts/Bank_MultiSIG.sol\":1852:1871  balance[msg.sender] */\n      0xffffffffffffffffffffffffffffffffffffffff\n      and\n      0xffffffffffffffffffffffffffffffffffffffff\n      and\n      dup2\n      mstore\n      0x20\n      add\n      swap1\n      dup2\n      mstore\n      0x20\n      add\n      0x00\n      keccak256\n      sload\n        /* \"contracts/Bank_MultiSIG.sol\":1845:1871  return balance[msg.sender] */\n      swap1\n      pop\n        /* \"contracts/Bank_MultiSIG.sol\":1786:1879  function getBalance() public view returns (uint){\r... */\n      swap1\n      jump\t// out\n        /* \"contracts/Bank_MultiSIG.sol\":1985:2258  function withdraw(uint amount) public returns (uint){\r... */\n    tag_19:\n        /* \"contracts/Bank_MultiSIG.sol\":2032:2036  uint */\n      0x00\n        /* \"contracts/Bank_MultiSIG.sol\":2078:2084  amount */\n      dup2\n        /* \"contracts/Bank_MultiSIG.sol\":2056:2063  balance */\n      0x02\n        /* \"contracts/Bank_MultiSIG.sol\":2056:2075  balance[msg.sender] */\n      0x00\n        /* \"contracts/Bank_MultiSIG.sol\":2064:2074  msg.sender */\n      caller\n        /* \"contracts/Bank_MultiSIG.sol\":2056:2075  balance[msg.sender] */\n      0xffffffffffffffffffffffffffffffffffffffff\n      and\n      0xffffffffffffffffffffffffffffffffffffffff\n      and\n      dup2\n      mstore\n      0x20\n      add\n      swap1\n      dup2\n      mstore\n      0x20\n      add\n      0x00\n      keccak256\n      sload\n        /* \"contracts/Bank_MultiSIG.sol\":2056:2084  balance[msg.sender]>= amount */\n      lt\n      iszero\n        /* \"contracts/Bank_MultiSIG.sol\":2048:2135  require(balance[msg.sender]>= amount,\"ERROR 1_Insufficient balance to withdraw funds.\") */\n      tag_45\n      jumpi\n      mload(0x40)\n      0x08c379a000000000000000000000000000000000000000000000000000000000\n      dup2\n      mstore\n      0x04\n      add\n      tag_46\n      swap1\n      tag_47\n      jump\t// in\n    tag_46:\n      mload(0x40)\n      dup1\n      swap2\n      sub\n      swap1\n      revert\n    tag_45:\n        /* \"contracts/Bank_MultiSIG.sol\":2146:2156  msg.sender */\n      caller\n        /* \"contracts/Bank_MultiSIG.sol\":2146:2165  msg.sender.transfer */\n      0xffffffffffffffffffffffffffffffffffffffff\n      and\n        /* \"contracts/Bank_MultiSIG.sol\":2146:2173  msg.sender.transfer(amount) */\n      0x08fc\n        /* \"contracts/Bank_MultiSIG.sol\":2166:2172  amount */\n      dup4\n        /* \"contracts/Bank_MultiSIG.sol\":2146:2173  msg.sender.transfer(amount) */\n      swap1\n      dup2\n      iszero\n      mul\n      swap1\n      mload(0x40)\n      0x00\n      mload(0x40)\n      dup1\n      dup4\n      sub\n      dup2\n      dup6\n      dup9\n      dup9\n      call\n      swap4\n      pop\n      pop\n      pop\n      pop\n      iszero\n      dup1\n      iszero\n      tag_49\n      jumpi\n      returndatasize\n      0x00\n      dup1\n      returndatacopy\n      revert(0x00, returndatasize)\n    tag_49:\n      pop\n        /* \"contracts/Bank_MultiSIG.sol\":2207:2213  amount */\n      dup2\n        /* \"contracts/Bank_MultiSIG.sol\":2184:2191  balance */\n      0x02\n        /* \"contracts/Bank_MultiSIG.sol\":2184:2203  balance[msg.sender] */\n      0x00\n        /* \"contracts/Bank_MultiSIG.sol\":2192:2202  msg.sender */\n      caller\n        /* \"contracts/Bank_MultiSIG.sol\":2184:2203  balance[msg.sender] */\n      0xffffffffffffffffffffffffffffffffffffffff\n      and\n      0xffffffffffffffffffffffffffffffffffffffff\n      and\n      dup2\n      mstore\n      0x20\n      add\n      swap1\n      dup2\n      mstore\n      0x20\n      add\n      0x00\n      keccak256\n      0x00\n        /* \"contracts/Bank_MultiSIG.sol\":2184:2213  balance[msg.sender] -= amount */\n      dup3\n      dup3\n      sload\n      sub\n      swap3\n      pop\n      pop\n      dup2\n      swap1\n      sstore\n      pop\n        /* \"contracts/Bank_MultiSIG.sol\":2231:2238  balance */\n      0x02\n        /* \"contracts/Bank_MultiSIG.sol\":2231:2250  balance[msg.sender] */\n      0x00\n        /* \"contracts/Bank_MultiSIG.sol\":2239:2249  msg.sender */\n      caller\n        /* \"contracts/Bank_MultiSIG.sol\":2231:2250  balance[msg.sender] */\n      0xffffffffffffffffffffffffffffffffffffffff\n      and\n      0xffffffffffffffffffffffffffffffffffffffff\n      and\n      dup2\n      mstore\n      0x20\n      add\n      swap1\n      dup2\n      mstore\n      0x20\n      add\n      0x00\n      keccak256\n      sload\n        /* \"contracts/Bank_MultiSIG.sol\":2224:2250  return balance[msg.sender] */\n      swap1\n      pop\n        /* \"contracts/Bank_MultiSIG.sol\":1985:2258  function withdraw(uint amount) public returns (uint){\r... */\n      swap2\n      swap1\n      pop\n      jump\t// out\n        /* \"contracts/Bank_MultiSIG.sol\":812:961  function addOwner(address _oaddress) onlyOwner public {\r... */\n    tag_25:\n        /* \"contracts/Inheritance_Ownable.sol\":308:313  owner */\n      0x00\n      dup1\n      sload\n      swap1\n      0x0100\n      exp\n      swap1\n      div\n      0xffffffffffffffffffffffffffffffffffffffff\n      and\n        /* \"contracts/Inheritance_Ownable.sol\":294:313  msg.sender == owner */\n      0xffffffffffffffffffffffffffffffffffffffff\n      and\n        /* \"contracts/Inheritance_Ownable.sol\":294:304  msg.sender */\n      caller\n        /* \"contracts/Inheritance_Ownable.sol\":294:313  msg.sender == owner */\n      0xffffffffffffffffffffffffffffffffffffffff\n      and\n      eq\n        /* \"contracts/Inheritance_Ownable.sol\":286:314  require(msg.sender == owner) */\n      tag_51\n      jumpi\n      0x00\n      dup1\n      revert\n    tag_51:\n        /* \"contracts/Bank_MultiSIG.sol\":877:898  Owner memory newOwner */\n      tag_53\n      tag_54\n      jump\t// in\n    tag_53:\n        /* \"contracts/Bank_MultiSIG.sol\":901:917  Owner(_oaddress) */\n      mload(0x40)\n      dup1\n      0x20\n      add\n      0x40\n      mstore\n      dup1\n        /* \"contracts/Bank_MultiSIG.sol\":907:916  _oaddress */\n      dup4\n        /* \"contracts/Bank_MultiSIG.sol\":901:917  Owner(_oaddress) */\n      0xffffffffffffffffffffffffffffffffffffffff\n      and\n      dup2\n      mstore\n      pop\n        /* \"contracts/Bank_MultiSIG.sol\":877:917  Owner memory newOwner = Owner(_oaddress) */\n      swap1\n      pop\n        /* \"contracts/Bank_MultiSIG.sol\":928:934  owners */\n      0x03\n        /* \"contracts/Bank_MultiSIG.sol\":940:948  newOwner */\n      dup2\n        /* \"contracts/Bank_MultiSIG.sol\":928:949  owners.push(newOwner) */\n      swap1\n      dup1\n      0x01\n      dup2\n      sload\n      add\n      dup1\n      dup3\n      sstore\n      dup1\n      swap2\n      pop\n      pop\n      0x01\n      swap1\n      sub\n      swap1\n      0x00\n      mstore\n      keccak256(0x00, 0x20)\n      add\n      0x00\n      swap1\n      swap2\n      swap1\n      swap2\n      swap1\n      swap2\n      pop\n      0x00\n      dup3\n      add\n      mload\n      dup2\n      0x00\n      add\n      exp(0x0100, 0x00)\n      dup2\n      sload\n      dup2\n      0xffffffffffffffffffffffffffffffffffffffff\n      mul\n      not\n      and\n      swap1\n      dup4\n      0xffffffffffffffffffffffffffffffffffffffff\n      and\n      mul\n      or\n      swap1\n      sstore\n      pop\n      pop\n      pop\n        /* \"contracts/Inheritance_Ownable.sol\":327:328  _ */\n      pop\n        /* \"contracts/Bank_MultiSIG.sol\":812:961  function addOwner(address _oaddress) onlyOwner public {\r... */\n      pop\n      jump\t// out\n        /* \"contracts/Inheritance_Destroyable.sol\":141:225  function selfDestruct() public onlyOwner {\r... */\n    tag_28:\n        /* \"contracts/Inheritance_Ownable.sol\":308:313  owner */\n      0x00\n      dup1\n      sload\n      swap1\n      0x0100\n      exp\n      swap1\n      div\n      0xffffffffffffffffffffffffffffffffffffffff\n      and\n        /* \"contracts/Inheritance_Ownable.sol\":294:313  msg.sender == owner */\n      0xffffffffffffffffffffffffffffffffffffffff\n      and\n        /* \"contracts/Inheritance_Ownable.sol\":294:304  msg.sender */\n      caller\n        /* \"contracts/Inheritance_Ownable.sol\":294:313  msg.sender == owner */\n      0xffffffffffffffffffffffffffffffffffffffff\n      and\n      eq\n        /* \"contracts/Inheritance_Ownable.sol\":286:314  require(msg.sender == owner) */\n      tag_57\n      jumpi\n      0x00\n      dup1\n      revert\n    tag_57:\n        /* \"contracts/Inheritance_Destroyable.sol\":206:216  msg.sender */\n      caller\n        /* \"contracts/Inheritance_Destroyable.sol\":193:217  selfdestruct(msg.sender) */\n      0xffffffffffffffffffffffffffffffffffffffff\n      and\n      selfdestruct\n        /* \"contracts/Bank_MultiSIG.sol\":2266:2892  function transfer(address recipient, uint amount) public {\r... */\n    tag_33:\n        /* \"contracts/Bank_MultiSIG.sol\":2364:2370  amount */\n      dup1\n        /* \"contracts/Bank_MultiSIG.sol\":2342:2349  balance */\n      0x02\n        /* \"contracts/Bank_MultiSIG.sol\":2342:2361  balance[msg.sender] */\n      0x00\n        /* \"contracts/Bank_MultiSIG.sol\":2350:2360  msg.sender */\n      caller\n        /* \"contracts/Bank_MultiSIG.sol\":2342:2361  balance[msg.sender] */\n      0xffffffffffffffffffffffffffffffffffffffff\n      and\n      0xffffffffffffffffffffffffffffffffffffffff\n      and\n      dup2\n      mstore\n      0x20\n      add\n      swap1\n      dup2\n      mstore\n      0x20\n      add\n      0x00\n      keccak256\n      sload\n        /* \"contracts/Bank_MultiSIG.sol\":2342:2370  balance[msg.sender]>= amount */\n      lt\n      iszero\n        /* \"contracts/Bank_MultiSIG.sol\":2334:2421  require(balance[msg.sender]>= amount,\"ERROR 1_Insufficient balance to transfer funds.\") */\n      tag_60\n      jumpi\n      mload(0x40)\n      0x08c379a000000000000000000000000000000000000000000000000000000000\n      dup2\n      mstore\n      0x04\n      add\n      tag_61\n      swap1\n      tag_62\n      jump\t// in\n    tag_61:\n      mload(0x40)\n      dup1\n      swap2\n      sub\n      swap1\n      revert\n    tag_60:\n        /* \"contracts/Bank_MultiSIG.sol\":2485:2494  recipient */\n      dup2\n        /* \"contracts/Bank_MultiSIG.sol\":2471:2494  msg.sender != recipient */\n      0xffffffffffffffffffffffffffffffffffffffff\n      and\n        /* \"contracts/Bank_MultiSIG.sol\":2471:2481  msg.sender */\n      caller\n        /* \"contracts/Bank_MultiSIG.sol\":2471:2494  msg.sender != recipient */\n      0xffffffffffffffffffffffffffffffffffffffff\n      and\n      eq\n      iszero\n        /* \"contracts/Bank_MultiSIG.sol\":2463:2541  require(msg.sender != recipient,\"ERROR 2_The sender cannot be the recipient.\") */\n      tag_63\n      jumpi\n      mload(0x40)\n      0x08c379a000000000000000000000000000000000000000000000000000000000\n      dup2\n      mstore\n      0x04\n      add\n      tag_64\n      swap1\n      tag_65\n      jump\t// in\n    tag_64:\n      mload(0x40)\n      dup1\n      swap2\n      sub\n      swap1\n      revert\n    tag_63:\n        /* \"contracts/Bank_MultiSIG.sol\":2554:2580  uint previousSenderBalance */\n      0x00\n        /* \"contracts/Bank_MultiSIG.sol\":2583:2590  balance */\n      0x02\n        /* \"contracts/Bank_MultiSIG.sol\":2583:2602  balance[msg.sender] */\n      0x00\n        /* \"contracts/Bank_MultiSIG.sol\":2591:2601  msg.sender */\n      caller\n        /* \"contracts/Bank_MultiSIG.sol\":2583:2602  balance[msg.sender] */\n      0xffffffffffffffffffffffffffffffffffffffff\n      and\n      0xffffffffffffffffffffffffffffffffffffffff\n      and\n      dup2\n      mstore\n      0x20\n      add\n      swap1\n      dup2\n      mstore\n      0x20\n      add\n      0x00\n      keccak256\n      sload\n        /* \"contracts/Bank_MultiSIG.sol\":2554:2602  uint previousSenderBalance = balance[msg.sender] */\n      swap1\n      pop\n        /* \"contracts/Bank_MultiSIG.sol\":2613:2654  _transfer (msg.sender, recipient, amount) */\n      tag_66\n        /* \"contracts/Bank_MultiSIG.sol\":2624:2634  msg.sender */\n      caller\n        /* \"contracts/Bank_MultiSIG.sol\":2636:2645  recipient */\n      dup5\n        /* \"contracts/Bank_MultiSIG.sol\":2647:2653  amount */\n      dup5\n        /* \"contracts/Bank_MultiSIG.sol\":2613:2622  _transfer */\n      tag_67\n        /* \"contracts/Bank_MultiSIG.sol\":2613:2654  _transfer (msg.sender, recipient, amount) */\n      jump\t// in\n    tag_66:\n        /* \"contracts/Bank_MultiSIG.sol\":2712:2718  amount */\n      dup2\n        /* \"contracts/Bank_MultiSIG.sol\":2701:2710  recipient */\n      dup4\n        /* \"contracts/Bank_MultiSIG.sol\":2672:2719  transferedAmount(msg.sender, recipient, amount) */\n      0xffffffffffffffffffffffffffffffffffffffff\n      and\n        /* \"contracts/Bank_MultiSIG.sol\":2689:2699  msg.sender */\n      caller\n        /* \"contracts/Bank_MultiSIG.sol\":2672:2719  transferedAmount(msg.sender, recipient, amount) */\n      0xffffffffffffffffffffffffffffffffffffffff\n      and\n      0x3573881c639e018e0c3ba3a7d19063f6a7a8205d54eb828319a7f98db00426a0\n      mload(0x40)\n      mload(0x40)\n      dup1\n      swap2\n      sub\n      swap1\n      log4\n        /* \"contracts/Bank_MultiSIG.sol\":2745:2763  GovernmentInstance */\n      0x01\n      0x00\n      swap1\n      sload\n      swap1\n      0x0100\n      exp\n      swap1\n      div\n      0xffffffffffffffffffffffffffffffffffffffff\n      and\n        /* \"contracts/Bank_MultiSIG.sol\":2745:2778  GovernmentInstance.addTransaction */\n      0xffffffffffffffffffffffffffffffffffffffff\n      and\n      0xfe73b27f\n        /* \"contracts/Bank_MultiSIG.sol\":2779:2789  msg.sender */\n      caller\n        /* \"contracts/Bank_MultiSIG.sol\":2791:2800  recipient */\n      dup6\n        /* \"contracts/Bank_MultiSIG.sol\":2802:2808  amount */\n      dup6\n        /* \"contracts/Bank_MultiSIG.sol\":2745:2809  GovernmentInstance.addTransaction(msg.sender, recipient, amount) */\n      mload(0x40)\n      dup5\n      0xffffffff\n      and\n      0xe0\n      shl\n      dup2\n      mstore\n      0x04\n      add\n      tag_68\n      swap4\n      swap3\n      swap2\n      swap1\n      tag_69\n      jump\t// in\n    tag_68:\n      0x00\n      mload(0x40)\n      dup1\n      dup4\n      sub\n      dup2\n      0x00\n      dup8\n      dup1\n      extcodesize\n      iszero\n      dup1\n      iszero\n      tag_70\n      jumpi\n      0x00\n      dup1\n      revert\n    tag_70:\n      pop\n      gas\n      call\n      iszero\n      dup1\n      iszero\n      tag_72\n      jumpi\n      returndatasize\n      0x00\n      dup1\n      returndatacopy\n      revert(0x00, returndatasize)\n    tag_72:\n      pop\n      pop\n      pop\n      pop\n        /* \"contracts/Bank_MultiSIG.sol\":2876:2882  amount */\n      dup2\n        /* \"contracts/Bank_MultiSIG.sol\":2852:2873  previousSenderBalance */\n      dup2\n        /* \"contracts/Bank_MultiSIG.sol\":2852:2882  previousSenderBalance - amount */\n      sub\n        /* \"contracts/Bank_MultiSIG.sol\":2829:2836  balance */\n      0x02\n        /* \"contracts/Bank_MultiSIG.sol\":2829:2848  balance[msg.sender] */\n      0x00\n        /* \"contracts/Bank_MultiSIG.sol\":2837:2847  msg.sender */\n      caller\n        /* \"contracts/Bank_MultiSIG.sol\":2829:2848  balance[msg.sender] */\n      0xffffffffffffffffffffffffffffffffffffffff\n      and\n      0xffffffffffffffffffffffffffffffffffffffff\n      and\n      dup2\n      mstore\n      0x20\n      add\n      swap1\n      dup2\n      mstore\n      0x20\n      add\n      0x00\n      keccak256\n      sload\n        /* \"contracts/Bank_MultiSIG.sol\":2829:2882  balance[msg.sender] == previousSenderBalance - amount */\n      eq\n        /* \"contracts/Bank_MultiSIG.sol\":2822:2883  assert(balance[msg.sender] == previousSenderBalance - amount) */\n      tag_73\n      jumpi\n      invalid\n    tag_73:\n        /* \"contracts/Bank_MultiSIG.sol\":2266:2892  function transfer(address recipient, uint amount) public {\r... */\n      pop\n      pop\n      pop\n      jump\t// out\n        /* \"contracts/Bank_MultiSIG.sol\":969:1137  function getOwner(uint _index) public view returns (address){\r... */\n    tag_37:\n        /* \"contracts/Bank_MultiSIG.sol\":1021:1028  address */\n      0x00\n        /* \"contracts/Bank_MultiSIG.sol\":1040:1066  Owner memory ownerToReturn */\n      tag_75\n      tag_54\n      jump\t// in\n    tag_75:\n        /* \"contracts/Bank_MultiSIG.sol\":1069:1075  owners */\n      0x03\n        /* \"contracts/Bank_MultiSIG.sol\":1076:1082  _index */\n      dup4\n        /* \"contracts/Bank_MultiSIG.sol\":1069:1083  owners[_index] */\n      dup2\n      sload\n      dup2\n      lt\n      tag_76\n      jumpi\n      invalid\n    tag_76:\n      swap1\n      0x00\n      mstore\n      keccak256(0x00, 0x20)\n      add\n        /* \"contracts/Bank_MultiSIG.sol\":1040:1083  Owner memory ownerToReturn = owners[_index] */\n      mload(0x40)\n      dup1\n      0x20\n      add\n      0x40\n      mstore\n      swap1\n      dup2\n      0x00\n      dup3\n      add\n      0x00\n      swap1\n      sload\n      swap1\n      0x0100\n      exp\n      swap1\n      div\n      0xffffffffffffffffffffffffffffffffffffffff\n      and\n      0xffffffffffffffffffffffffffffffffffffffff\n      and\n      0xffffffffffffffffffffffffffffffffffffffff\n      and\n      dup2\n      mstore\n      pop\n      pop\n      swap1\n      pop\n        /* \"contracts/Bank_MultiSIG.sol\":1102:1115  ownerToReturn */\n      dup1\n        /* \"contracts/Bank_MultiSIG.sol\":1102:1124  ownerToReturn.oaddress */\n      0x00\n      add\n      mload\n        /* \"contracts/Bank_MultiSIG.sol\":1094:1125  return (ownerToReturn.oaddress) */\n      swap2\n      pop\n      pop\n        /* \"contracts/Bank_MultiSIG.sol\":969:1137  function getOwner(uint _index) public view returns (address){\r... */\n      swap2\n      swap1\n      pop\n      jump\t// out\n        /* \"contracts/Bank_MultiSIG.sol\":1371:1684  function deposit() public payable returns (uint) { \r... */\n    tag_41:\n        /* \"contracts/Bank_MultiSIG.sol\":1414:1418  uint */\n      0x00\n        /* \"contracts/Bank_MultiSIG.sol\":1455:1464  msg.value */\n      callvalue\n        /* \"contracts/Bank_MultiSIG.sol\":1432:1439  balance */\n      0x02\n        /* \"contracts/Bank_MultiSIG.sol\":1432:1451  balance[msg.sender] */\n      0x00\n        /* \"contracts/Bank_MultiSIG.sol\":1440:1450  msg.sender */\n      caller\n        /* \"contracts/Bank_MultiSIG.sol\":1432:1451  balance[msg.sender] */\n      0xffffffffffffffffffffffffffffffffffffffff\n      and\n      0xffffffffffffffffffffffffffffffffffffffff\n      and\n      dup2\n      mstore\n      0x20\n      add\n      swap1\n      dup2\n      mstore\n      0x20\n      add\n      0x00\n      keccak256\n      0x00\n        /* \"contracts/Bank_MultiSIG.sol\":1432:1464  balance[msg.sender] += msg.value */\n      dup3\n      dup3\n      sload\n      add\n      swap3\n      pop\n      pop\n      dup2\n      swap1\n      sstore\n      pop\n        /* \"contracts/Bank_MultiSIG.sol\":1611:1621  msg.sender */\n      caller\n        /* \"contracts/Bank_MultiSIG.sol\":1589:1622  deposited (msg.value, msg.sender) */\n      0xffffffffffffffffffffffffffffffffffffffff\n      and\n        /* \"contracts/Bank_MultiSIG.sol\":1600:1609  msg.value */\n      callvalue\n        /* \"contracts/Bank_MultiSIG.sol\":1589:1622  deposited (msg.value, msg.sender) */\n      0xa23831066066ec8812cc52afc91a52134a8b50c9209b68c276be679f4073d95d\n      mload(0x40)\n      mload(0x40)\n      dup1\n      swap2\n      sub\n      swap1\n      log3\n        /* \"contracts/Bank_MultiSIG.sol\":1657:1664  balance */\n      0x02\n        /* \"contracts/Bank_MultiSIG.sol\":1657:1676  balance[msg.sender] */\n      0x00\n        /* \"contracts/Bank_MultiSIG.sol\":1665:1675  msg.sender */\n      caller\n        /* \"contracts/Bank_MultiSIG.sol\":1657:1676  balance[msg.sender] */\n      0xffffffffffffffffffffffffffffffffffffffff\n      and\n      0xffffffffffffffffffffffffffffffffffffffff\n      and\n      dup2\n      mstore\n      0x20\n      add\n      swap1\n      dup2\n      mstore\n      0x20\n      add\n      0x00\n      keccak256\n      sload\n        /* \"contracts/Bank_MultiSIG.sol\":1650:1676  return balance[msg.sender] */\n      swap1\n      pop\n        /* \"contracts/Bank_MultiSIG.sol\":1371:1684  function deposit() public payable returns (uint) { \r... */\n      swap1\n      jump\t// out\n        /* \"contracts/Bank_MultiSIG.sol\":2900:3040  function _transfer(address from, address to, uint amount) private {\r... */\n    tag_67:\n        /* \"contracts/Bank_MultiSIG.sol\":2994:3000  amount */\n      dup1\n        /* \"contracts/Bank_MultiSIG.sol\":2977:2984  balance */\n      0x02\n        /* \"contracts/Bank_MultiSIG.sol\":2977:2990  balance[from] */\n      0x00\n        /* \"contracts/Bank_MultiSIG.sol\":2985:2989  from */\n      dup6\n        /* \"contracts/Bank_MultiSIG.sol\":2977:2990  balance[from] */\n      0xffffffffffffffffffffffffffffffffffffffff\n      and\n      0xffffffffffffffffffffffffffffffffffffffff\n      and\n      dup2\n      mstore\n      0x20\n      add\n      swap1\n      dup2\n      mstore\n      0x20\n      add\n      0x00\n      keccak256\n      0x00\n        /* \"contracts/Bank_MultiSIG.sol\":2977:3000  balance[from] -= amount */\n      dup3\n      dup3\n      sload\n      sub\n      swap3\n      pop\n      pop\n      dup2\n      swap1\n      sstore\n      pop\n        /* \"contracts/Bank_MultiSIG.sol\":3026:3032  amount */\n      dup1\n        /* \"contracts/Bank_MultiSIG.sol\":3011:3018  balance */\n      0x02\n        /* \"contracts/Bank_MultiSIG.sol\":3011:3022  balance[to] */\n      0x00\n        /* \"contracts/Bank_MultiSIG.sol\":3019:3021  to */\n      dup5\n        /* \"contracts/Bank_MultiSIG.sol\":3011:3022  balance[to] */\n      0xffffffffffffffffffffffffffffffffffffffff\n      and\n      0xffffffffffffffffffffffffffffffffffffffff\n      and\n      dup2\n      mstore\n      0x20\n      add\n      swap1\n      dup2\n      mstore\n      0x20\n      add\n      0x00\n      keccak256\n      0x00\n        /* \"contracts/Bank_MultiSIG.sol\":3011:3032  balance[to] += amount */\n      dup3\n      dup3\n      sload\n      add\n      swap3\n      pop\n      pop\n      dup2\n      swap1\n      sstore\n      pop\n        /* \"contracts/Bank_MultiSIG.sol\":2900:3040  function _transfer(address from, address to, uint amount) private {\r... */\n      pop\n      pop\n      pop\n      jump\t// out\n    tag_54:\n      mload(0x40)\n      dup1\n      0x20\n      add\n      0x40\n      mstore\n      dup1\n      and(0xffffffffffffffffffffffffffffffffffffffff, 0x00)\n      dup2\n      mstore\n      pop\n      swap1\n      jump\t// out\n        /* \"#utility.yul\":7:146   */\n    tag_81:\n      0x00\n        /* \"#utility.yul\":91:97   */\n      dup2\n        /* \"#utility.yul\":78:98   */\n      calldataload\n        /* \"#utility.yul\":69:98   */\n      swap1\n      pop\n        /* \"#utility.yul\":107:140   */\n      tag_83\n        /* \"#utility.yul\":134:139   */\n      dup2\n        /* \"#utility.yul\":107:140   */\n      tag_84\n      jump\t// in\n    tag_83:\n        /* \"#utility.yul\":59:146   */\n      swap3\n      swap2\n      pop\n      pop\n      jump\t// out\n        /* \"#utility.yul\":152:291   */\n    tag_85:\n      0x00\n        /* \"#utility.yul\":236:242   */\n      dup2\n        /* \"#utility.yul\":223:243   */\n      calldataload\n        /* \"#utility.yul\":214:243   */\n      swap1\n      pop\n        /* \"#utility.yul\":252:285   */\n      tag_87\n        /* \"#utility.yul\":279:284   */\n      dup2\n        /* \"#utility.yul\":252:285   */\n      tag_88\n      jump\t// in\n    tag_87:\n        /* \"#utility.yul\":204:291   */\n      swap3\n      swap2\n      pop\n      pop\n      jump\t// out\n        /* \"#utility.yul\":297:557   */\n    tag_24:\n      0x00\n        /* \"#utility.yul\":405:407   */\n      0x20\n        /* \"#utility.yul\":393:402   */\n      dup3\n        /* \"#utility.yul\":384:391   */\n      dup5\n        /* \"#utility.yul\":380:403   */\n      sub\n        /* \"#utility.yul\":376:408   */\n      slt\n        /* \"#utility.yul\":373:375   */\n      iszero\n      tag_90\n      jumpi\n        /* \"#utility.yul\":421:422   */\n      0x00\n        /* \"#utility.yul\":418:419   */\n      dup1\n        /* \"#utility.yul\":411:423   */\n      revert\n        /* \"#utility.yul\":373:375   */\n    tag_90:\n        /* \"#utility.yul\":463:464   */\n      0x00\n        /* \"#utility.yul\":487:540   */\n      tag_91\n        /* \"#utility.yul\":532:539   */\n      dup5\n        /* \"#utility.yul\":523:529   */\n      dup3\n        /* \"#utility.yul\":512:521   */\n      dup6\n        /* \"#utility.yul\":508:530   */\n      add\n        /* \"#utility.yul\":487:540   */\n      tag_81\n      jump\t// in\n    tag_91:\n        /* \"#utility.yul\":477:540   */\n      swap2\n      pop\n        /* \"#utility.yul\":435:550   */\n      pop\n        /* \"#utility.yul\":363:557   */\n      swap3\n      swap2\n      pop\n      pop\n      jump\t// out\n        /* \"#utility.yul\":563:966   */\n    tag_32:\n      0x00\n      dup1\n        /* \"#utility.yul\":688:690   */\n      0x40\n        /* \"#utility.yul\":676:685   */\n      dup4\n        /* \"#utility.yul\":667:674   */\n      dup6\n        /* \"#utility.yul\":663:686   */\n      sub\n        /* \"#utility.yul\":659:691   */\n      slt\n        /* \"#utility.yul\":656:658   */\n      iszero\n      tag_93\n      jumpi\n        /* \"#utility.yul\":704:705   */\n      0x00\n        /* \"#utility.yul\":701:702   */\n      dup1\n        /* \"#utility.yul\":694:706   */\n      revert\n        /* \"#utility.yul\":656:658   */\n    tag_93:\n        /* \"#utility.yul\":746:747   */\n      0x00\n        /* \"#utility.yul\":770:823   */\n      tag_94\n        /* \"#utility.yul\":815:822   */\n      dup6\n        /* \"#utility.yul\":806:812   */\n      dup3\n        /* \"#utility.yul\":795:804   */\n      dup7\n        /* \"#utility.yul\":791:813   */\n      add\n        /* \"#utility.yul\":770:823   */\n      tag_81\n      jump\t// in\n    tag_94:\n        /* \"#utility.yul\":760:823   */\n      swap3\n      pop\n        /* \"#utility.yul\":718:833   */\n      pop\n        /* \"#utility.yul\":871:873   */\n      0x20\n        /* \"#utility.yul\":896:949   */\n      tag_95\n        /* \"#utility.yul\":941:948   */\n      dup6\n        /* \"#utility.yul\":932:938   */\n      dup3\n        /* \"#utility.yul\":921:930   */\n      dup7\n        /* \"#utility.yul\":917:939   */\n      add\n        /* \"#utility.yul\":896:949   */\n      tag_85\n      jump\t// in\n    tag_95:\n        /* \"#utility.yul\":886:949   */\n      swap2\n      pop\n        /* \"#utility.yul\":843:959   */\n      pop\n        /* \"#utility.yul\":646:966   */\n      swap3\n      pop\n      swap3\n      swap1\n      pop\n      jump\t// out\n        /* \"#utility.yul\":972:1232   */\n    tag_18:\n      0x00\n        /* \"#utility.yul\":1080:1082   */\n      0x20\n        /* \"#utility.yul\":1068:1077   */\n      dup3\n        /* \"#utility.yul\":1059:1066   */\n      dup5\n        /* \"#utility.yul\":1055:1078   */\n      sub\n        /* \"#utility.yul\":1051:1083   */\n      slt\n        /* \"#utility.yul\":1048:1050   */\n      iszero\n      tag_97\n      jumpi\n        /* \"#utility.yul\":1096:1097   */\n      0x00\n        /* \"#utility.yul\":1093:1094   */\n      dup1\n        /* \"#utility.yul\":1086:1098   */\n      revert\n        /* \"#utility.yul\":1048:1050   */\n    tag_97:\n        /* \"#utility.yul\":1138:1139   */\n      0x00\n        /* \"#utility.yul\":1162:1215   */\n      tag_98\n        /* \"#utility.yul\":1207:1214   */\n      dup5\n        /* \"#utility.yul\":1198:1204   */\n      dup3\n        /* \"#utility.yul\":1187:1196   */\n      dup6\n        /* \"#utility.yul\":1183:1205   */\n      add\n        /* \"#utility.yul\":1162:1215   */\n      tag_85\n      jump\t// in\n    tag_98:\n        /* \"#utility.yul\":1152:1215   */\n      swap2\n      pop\n        /* \"#utility.yul\":1110:1225   */\n      pop\n        /* \"#utility.yul\":1038:1232   */\n      swap3\n      swap2\n      pop\n      pop\n      jump\t// out\n        /* \"#utility.yul\":1238:1385   */\n    tag_99:\n        /* \"#utility.yul\":1333:1378   */\n      tag_101\n        /* \"#utility.yul\":1372:1377   */\n      dup2\n        /* \"#utility.yul\":1333:1378   */\n      tag_102\n      jump\t// in\n    tag_101:\n        /* \"#utility.yul\":1328:1331   */\n      dup3\n        /* \"#utility.yul\":1321:1379   */\n      mstore\n        /* \"#utility.yul\":1311:1385   */\n      pop\n      pop\n      jump\t// out\n        /* \"#utility.yul\":1391:1509   */\n    tag_103:\n        /* \"#utility.yul\":1478:1502   */\n      tag_105\n        /* \"#utility.yul\":1496:1501   */\n      dup2\n        /* \"#utility.yul\":1478:1502   */\n      tag_106\n      jump\t// in\n    tag_105:\n        /* \"#utility.yul\":1473:1476   */\n      dup3\n        /* \"#utility.yul\":1466:1503   */\n      mstore\n        /* \"#utility.yul\":1456:1509   */\n      pop\n      pop\n      jump\t// out\n        /* \"#utility.yul\":1515:1890   */\n    tag_107:\n      0x00\n        /* \"#utility.yul\":1678:1745   */\n      tag_109\n        /* \"#utility.yul\":1742:1744   */\n      0x2b\n        /* \"#utility.yul\":1737:1740   */\n      dup4\n        /* \"#utility.yul\":1678:1745   */\n      tag_110\n      jump\t// in\n    tag_109:\n        /* \"#utility.yul\":1671:1745   */\n      swap2\n      pop\n        /* \"#utility.yul\":1775:1809   */\n      0x4552524f5220325f5468652073656e6465722063616e6e6f7420626520746865\n        /* \"#utility.yul\":1771:1772   */\n      0x00\n        /* \"#utility.yul\":1766:1769   */\n      dup4\n        /* \"#utility.yul\":1762:1773   */\n      add\n        /* \"#utility.yul\":1755:1810   */\n      mstore\n        /* \"#utility.yul\":1841:1854   */\n      0x20726563697069656e742e000000000000000000000000000000000000000000\n        /* \"#utility.yul\":1836:1838   */\n      0x20\n        /* \"#utility.yul\":1831:1834   */\n      dup4\n        /* \"#utility.yul\":1827:1839   */\n      add\n        /* \"#utility.yul\":1820:1855   */\n      mstore\n        /* \"#utility.yul\":1881:1883   */\n      0x40\n        /* \"#utility.yul\":1876:1879   */\n      dup3\n        /* \"#utility.yul\":1872:1884   */\n      add\n        /* \"#utility.yul\":1865:1884   */\n      swap1\n      pop\n        /* \"#utility.yul\":1661:1890   */\n      swap2\n      swap1\n      pop\n      jump\t// out\n        /* \"#utility.yul\":1896:2275   */\n    tag_111:\n      0x00\n        /* \"#utility.yul\":2059:2126   */\n      tag_113\n        /* \"#utility.yul\":2123:2125   */\n      0x2f\n        /* \"#utility.yul\":2118:2121   */\n      dup4\n        /* \"#utility.yul\":2059:2126   */\n      tag_110\n      jump\t// in\n    tag_113:\n        /* \"#utility.yul\":2052:2126   */\n      swap2\n      pop\n        /* \"#utility.yul\":2156:2190   */\n      0x4552524f5220315f496e73756666696369656e742062616c616e636520746f20\n        /* \"#utility.yul\":2152:2153   */\n      0x00\n        /* \"#utility.yul\":2147:2150   */\n      dup4\n        /* \"#utility.yul\":2143:2154   */\n      add\n        /* \"#utility.yul\":2136:2191   */\n      mstore\n        /* \"#utility.yul\":2222:2239   */\n      0x7472616e736665722066756e64732e0000000000000000000000000000000000\n        /* \"#utility.yul\":2217:2219   */\n      0x20\n        /* \"#utility.yul\":2212:2215   */\n      dup4\n        /* \"#utility.yul\":2208:2220   */\n      add\n        /* \"#utility.yul\":2201:2240   */\n      mstore\n        /* \"#utility.yul\":2266:2268   */\n      0x40\n        /* \"#utility.yul\":2261:2264   */\n      dup3\n        /* \"#utility.yul\":2257:2269   */\n      add\n        /* \"#utility.yul\":2250:2269   */\n      swap1\n      pop\n        /* \"#utility.yul\":2042:2275   */\n      swap2\n      swap1\n      pop\n      jump\t// out\n        /* \"#utility.yul\":2281:2660   */\n    tag_114:\n      0x00\n        /* \"#utility.yul\":2444:2511   */\n      tag_116\n        /* \"#utility.yul\":2508:2510   */\n      0x2f\n        /* \"#utility.yul\":2503:2506   */\n      dup4\n        /* \"#utility.yul\":2444:2511   */\n      tag_110\n      jump\t// in\n    tag_116:\n        /* \"#utility.yul\":2437:2511   */\n      swap2\n      pop\n        /* \"#utility.yul\":2541:2575   */\n      0x4552524f5220315f496e73756666696369656e742062616c616e636520746f20\n        /* \"#utility.yul\":2537:2538   */\n      0x00\n        /* \"#utility.yul\":2532:2535   */\n      dup4\n        /* \"#utility.yul\":2528:2539   */\n      add\n        /* \"#utility.yul\":2521:2576   */\n      mstore\n        /* \"#utility.yul\":2607:2624   */\n      0x77697468647261772066756e64732e0000000000000000000000000000000000\n        /* \"#utility.yul\":2602:2604   */\n      0x20\n        /* \"#utility.yul\":2597:2600   */\n      dup4\n        /* \"#utility.yul\":2593:2605   */\n      add\n        /* \"#utility.yul\":2586:2625   */\n      mstore\n        /* \"#utility.yul\":2651:2653   */\n      0x40\n        /* \"#utility.yul\":2646:2649   */\n      dup3\n        /* \"#utility.yul\":2642:2654   */\n      add\n        /* \"#utility.yul\":2635:2654   */\n      swap1\n      pop\n        /* \"#utility.yul\":2427:2660   */\n      swap2\n      swap1\n      pop\n      jump\t// out\n        /* \"#utility.yul\":2666:2784   */\n    tag_117:\n        /* \"#utility.yul\":2753:2777   */\n      tag_119\n        /* \"#utility.yul\":2771:2776   */\n      dup2\n        /* \"#utility.yul\":2753:2777   */\n      tag_120\n      jump\t// in\n    tag_119:\n        /* \"#utility.yul\":2748:2751   */\n      dup3\n        /* \"#utility.yul\":2741:2778   */\n      mstore\n        /* \"#utility.yul\":2731:2784   */\n      pop\n      pop\n      jump\t// out\n        /* \"#utility.yul\":2790:3012   */\n    tag_39:\n      0x00\n        /* \"#utility.yul\":2921:2923   */\n      0x20\n        /* \"#utility.yul\":2910:2919   */\n      dup3\n        /* \"#utility.yul\":2906:2924   */\n      add\n        /* \"#utility.yul\":2898:2924   */\n      swap1\n      pop\n        /* \"#utility.yul\":2934:3005   */\n      tag_122\n        /* \"#utility.yul\":3002:3003   */\n      0x00\n        /* \"#utility.yul\":2991:3000   */\n      dup4\n        /* \"#utility.yul\":2987:3004   */\n      add\n        /* \"#utility.yul\":2978:2984   */\n      dup5\n        /* \"#utility.yul\":2934:3005   */\n      tag_103\n      jump\t// in\n    tag_122:\n        /* \"#utility.yul\":2888:3012   */\n      swap3\n      swap2\n      pop\n      pop\n      jump\t// out\n        /* \"#utility.yul\":3018:3476   */\n    tag_69:\n      0x00\n        /* \"#utility.yul\":3213:3215   */\n      0x60\n        /* \"#utility.yul\":3202:3211   */\n      dup3\n        /* \"#utility.yul\":3198:3216   */\n      add\n        /* \"#utility.yul\":3190:3216   */\n      swap1\n      pop\n        /* \"#utility.yul\":3226:3305   */\n      tag_124\n        /* \"#utility.yul\":3302:3303   */\n      0x00\n        /* \"#utility.yul\":3291:3300   */\n      dup4\n        /* \"#utility.yul\":3287:3304   */\n      add\n        /* \"#utility.yul\":3278:3284   */\n      dup7\n        /* \"#utility.yul\":3226:3305   */\n      tag_99\n      jump\t// in\n    tag_124:\n        /* \"#utility.yul\":3315:3387   */\n      tag_125\n        /* \"#utility.yul\":3383:3385   */\n      0x20\n        /* \"#utility.yul\":3372:3381   */\n      dup4\n        /* \"#utility.yul\":3368:3386   */\n      add\n        /* \"#utility.yul\":3359:3365   */\n      dup6\n        /* \"#utility.yul\":3315:3387   */\n      tag_103\n      jump\t// in\n    tag_125:\n        /* \"#utility.yul\":3397:3469   */\n      tag_126\n        /* \"#utility.yul\":3465:3467   */\n      0x40\n        /* \"#utility.yul\":3454:3463   */\n      dup4\n        /* \"#utility.yul\":3450:3468   */\n      add\n        /* \"#utility.yul\":3441:3447   */\n      dup5\n        /* \"#utility.yul\":3397:3469   */\n      tag_117\n      jump\t// in\n    tag_126:\n        /* \"#utility.yul\":3180:3476   */\n      swap5\n      swap4\n      pop\n      pop\n      pop\n      pop\n      jump\t// out\n        /* \"#utility.yul\":3482:3901   */\n    tag_65:\n      0x00\n        /* \"#utility.yul\":3686:3688   */\n      0x20\n        /* \"#utility.yul\":3675:3684   */\n      dup3\n        /* \"#utility.yul\":3671:3689   */\n      add\n        /* \"#utility.yul\":3663:3689   */\n      swap1\n      pop\n        /* \"#utility.yul\":3735:3744   */\n      dup2\n        /* \"#utility.yul\":3729:3733   */\n      dup2\n        /* \"#utility.yul\":3725:3745   */\n      sub\n        /* \"#utility.yul\":3721:3722   */\n      0x00\n        /* \"#utility.yul\":3710:3719   */\n      dup4\n        /* \"#utility.yul\":3706:3723   */\n      add\n        /* \"#utility.yul\":3699:3746   */\n      mstore\n        /* \"#utility.yul\":3763:3894   */\n      tag_128\n        /* \"#utility.yul\":3889:3893   */\n      dup2\n        /* \"#utility.yul\":3763:3894   */\n      tag_107\n      jump\t// in\n    tag_128:\n        /* \"#utility.yul\":3755:3894   */\n      swap1\n      pop\n        /* \"#utility.yul\":3653:3901   */\n      swap2\n      swap1\n      pop\n      jump\t// out\n        /* \"#utility.yul\":3907:4326   */\n    tag_62:\n      0x00\n        /* \"#utility.yul\":4111:4113   */\n      0x20\n        /* \"#utility.yul\":4100:4109   */\n      dup3\n        /* \"#utility.yul\":4096:4114   */\n      add\n        /* \"#utility.yul\":4088:4114   */\n      swap1\n      pop\n        /* \"#utility.yul\":4160:4169   */\n      dup2\n        /* \"#utility.yul\":4154:4158   */\n      dup2\n        /* \"#utility.yul\":4150:4170   */\n      sub\n        /* \"#utility.yul\":4146:4147   */\n      0x00\n        /* \"#utility.yul\":4135:4144   */\n      dup4\n        /* \"#utility.yul\":4131:4148   */\n      add\n        /* \"#utility.yul\":4124:4171   */\n      mstore\n        /* \"#utility.yul\":4188:4319   */\n      tag_130\n        /* \"#utility.yul\":4314:4318   */\n      dup2\n        /* \"#utility.yul\":4188:4319   */\n      tag_111\n      jump\t// in\n    tag_130:\n        /* \"#utility.yul\":4180:4319   */\n      swap1\n      pop\n        /* \"#utility.yul\":4078:4326   */\n      swap2\n      swap1\n      pop\n      jump\t// out\n        /* \"#utility.yul\":4332:4751   */\n    tag_47:\n      0x00\n        /* \"#utility.yul\":4536:4538   */\n      0x20\n        /* \"#utility.yul\":4525:4534   */\n      dup3\n        /* \"#utility.yul\":4521:4539   */\n      add\n        /* \"#utility.yul\":4513:4539   */\n      swap1\n      pop\n        /* \"#utility.yul\":4585:4594   */\n      dup2\n        /* \"#utility.yul\":4579:4583   */\n      dup2\n        /* \"#utility.yul\":4575:4595   */\n      sub\n        /* \"#utility.yul\":4571:4572   */\n      0x00\n        /* \"#utility.yul\":4560:4569   */\n      dup4\n        /* \"#utility.yul\":4556:4573   */\n      add\n        /* \"#utility.yul\":4549:4596   */\n      mstore\n        /* \"#utility.yul\":4613:4744   */\n      tag_132\n        /* \"#utility.yul\":4739:4743   */\n      dup2\n        /* \"#utility.yul\":4613:4744   */\n      tag_114\n      jump\t// in\n    tag_132:\n        /* \"#utility.yul\":4605:4744   */\n      swap1\n      pop\n        /* \"#utility.yul\":4503:4751   */\n      swap2\n      swap1\n      pop\n      jump\t// out\n        /* \"#utility.yul\":4757:4979   */\n    tag_14:\n      0x00\n        /* \"#utility.yul\":4888:4890   */\n      0x20\n        /* \"#utility.yul\":4877:4886   */\n      dup3\n        /* \"#utility.yul\":4873:4891   */\n      add\n        /* \"#utility.yul\":4865:4891   */\n      swap1\n      pop\n        /* \"#utility.yul\":4901:4972   */\n      tag_134\n        /* \"#utility.yul\":4969:4970   */\n      0x00\n        /* \"#utility.yul\":4958:4967   */\n      dup4\n        /* \"#utility.yul\":4954:4971   */\n      add\n        /* \"#utility.yul\":4945:4951   */\n      dup5\n        /* \"#utility.yul\":4901:4972   */\n      tag_117\n      jump\t// in\n    tag_134:\n        /* \"#utility.yul\":4855:4979   */\n      swap3\n      swap2\n      pop\n      pop\n      jump\t// out\n        /* \"#utility.yul\":4985:5154   */\n    tag_110:\n      0x00\n        /* \"#utility.yul\":5103:5109   */\n      dup3\n        /* \"#utility.yul\":5098:5101   */\n      dup3\n        /* \"#utility.yul\":5091:5110   */\n      mstore\n        /* \"#utility.yul\":5143:5147   */\n      0x20\n        /* \"#utility.yul\":5138:5141   */\n      dup3\n        /* \"#utility.yul\":5134:5148   */\n      add\n        /* \"#utility.yul\":5119:5148   */\n      swap1\n      pop\n        /* \"#utility.yul\":5081:5154   */\n      swap3\n      swap2\n      pop\n      pop\n      jump\t// out\n        /* \"#utility.yul\":5160:5256   */\n    tag_106:\n      0x00\n        /* \"#utility.yul\":5226:5250   */\n      tag_137\n        /* \"#utility.yul\":5244:5249   */\n      dup3\n        /* \"#utility.yul\":5226:5250   */\n      tag_138\n      jump\t// in\n    tag_137:\n        /* \"#utility.yul\":5215:5250   */\n      swap1\n      pop\n        /* \"#utility.yul\":5205:5256   */\n      swap2\n      swap1\n      pop\n      jump\t// out\n        /* \"#utility.yul\":5262:5388   */\n    tag_138:\n      0x00\n        /* \"#utility.yul\":5339:5381   */\n      0xffffffffffffffffffffffffffffffffffffffff\n        /* \"#utility.yul\":5332:5337   */\n      dup3\n        /* \"#utility.yul\":5328:5382   */\n      and\n        /* \"#utility.yul\":5317:5382   */\n      swap1\n      pop\n        /* \"#utility.yul\":5307:5388   */\n      swap2\n      swap1\n      pop\n      jump\t// out\n        /* \"#utility.yul\":5394:5471   */\n    tag_120:\n      0x00\n        /* \"#utility.yul\":5460:5465   */\n      dup2\n        /* \"#utility.yul\":5449:5465   */\n      swap1\n      pop\n        /* \"#utility.yul\":5439:5471   */\n      swap2\n      swap1\n      pop\n      jump\t// out\n        /* \"#utility.yul\":5477:5611   */\n    tag_102:\n      0x00\n        /* \"#utility.yul\":5568:5605   */\n      tag_142\n        /* \"#utility.yul\":5599:5604   */\n      dup3\n        /* \"#utility.yul\":5568:5605   */\n      tag_143\n      jump\t// in\n    tag_142:\n        /* \"#utility.yul\":5555:5605   */\n      swap1\n      pop\n        /* \"#utility.yul\":5545:5611   */\n      swap2\n      swap1\n      pop\n      jump\t// out\n        /* \"#utility.yul\":5617:5743   */\n    tag_143:\n      0x00\n        /* \"#utility.yul\":5700:5737   */\n      tag_145\n        /* \"#utility.yul\":5731:5736   */\n      dup3\n        /* \"#utility.yul\":5700:5737   */\n      tag_146\n      jump\t// in\n    tag_145:\n        /* \"#utility.yul\":5687:5737   */\n      swap1\n      pop\n        /* \"#utility.yul\":5677:5743   */\n      swap2\n      swap1\n      pop\n      jump\t// out\n        /* \"#utility.yul\":5749:5862   */\n    tag_146:\n      0x00\n        /* \"#utility.yul\":5832:5856   */\n      tag_148\n        /* \"#utility.yul\":5850:5855   */\n      dup3\n        /* \"#utility.yul\":5832:5856   */\n      tag_138\n      jump\t// in\n    tag_148:\n        /* \"#utility.yul\":5819:5856   */\n      swap1\n      pop\n        /* \"#utility.yul\":5809:5862   */\n      swap2\n      swap1\n      pop\n      jump\t// out\n        /* \"#utility.yul\":5868:5990   */\n    tag_84:\n        /* \"#utility.yul\":5941:5965   */\n      tag_150\n        /* \"#utility.yul\":5959:5964   */\n      dup2\n        /* \"#utility.yul\":5941:5965   */\n      tag_106\n      jump\t// in\n    tag_150:\n        /* \"#utility.yul\":5934:5939   */\n      dup2\n        /* \"#utility.yul\":5931:5966   */\n      eq\n        /* \"#utility.yul\":5921:5923   */\n      tag_151\n      jumpi\n        /* \"#utility.yul\":5980:5981   */\n      0x00\n        /* \"#utility.yul\":5977:5978   */\n      dup1\n        /* \"#utility.yul\":5970:5982   */\n      revert\n        /* \"#utility.yul\":5921:5923   */\n    tag_151:\n        /* \"#utility.yul\":5911:5990   */\n      pop\n      jump\t// out\n        /* \"#utility.yul\":5996:6118   */\n    tag_88:\n        /* \"#utility.yul\":6069:6093   */\n      tag_153\n        /* \"#utility.yul\":6087:6092   */\n      dup2\n        /* \"#utility.yul\":6069:6093   */\n      tag_120\n      jump\t// in\n    tag_153:\n        /* \"#utility.yul\":6062:6067   */\n      dup2\n        /* \"#utility.yul\":6059:6094   */\n      eq\n        /* \"#utility.yul\":6049:6051   */\n      tag_154\n      jumpi\n        /* \"#utility.yul\":6108:6109   */\n      0x00\n        /* \"#utility.yul\":6105:6106   */\n      dup1\n        /* \"#utility.yul\":6098:6110   */\n      revert\n        /* \"#utility.yul\":6049:6051   */\n    tag_154:\n        /* \"#utility.yul\":6039:6118   */\n      pop\n      jump\t// out\n\n    auxdata: 0xa2646970667358221220b508eebe61d64d2692d0a0fbe07c4c8a936f4b0c0bf993cc47714c97b963e86b64736f6c63430007050033\n}\n",
				"bytecode": {
					"linkReferences": {},
					"object": "608060405273da0bab807633f07f013f94dd0e6a4f96f8742b53600160006101000a81548173ffffffffffffffffffffffffffffffffffffffff021916908373ffffffffffffffffffffffffffffffffffffffff16021790555034801561006557600080fd5b50336000806101000a81548173ffffffffffffffffffffffffffffffffffffffff021916908373ffffffffffffffffffffffffffffffffffffffff160217905550610d2b806100b56000396000f3fe6080604052600436106100705760003560e01c80639cb8a26a1161004e5780639cb8a26a14610106578063a9059cbb1461011d578063c41a360a14610146578063d0e30db01461018357610070565b806312065fe0146100755780632e1a7d4d146100a05780637065cb48146100dd575b600080fd5b34801561008157600080fd5b5061008a6101a1565b6040516100979190610c29565b60405180910390f35b3480156100ac57600080fd5b506100c760048036038101906100c291906109ef565b6101e8565b6040516100d49190610c29565b60405180910390f35b3480156100e957600080fd5b5061010460048036038101906100ff919061098a565b610347565b005b34801561011257600080fd5b5061011b610443565b005b34801561012957600080fd5b50610144600480360381019061013f91906109b3565b6104b4565b005b34801561015257600080fd5b5061016d600480360381019061016891906109ef565b61072f565b60405161017a9190610b77565b60405180910390f35b61018b6107c0565b6040516101989190610c29565b60405180910390f35b6000600260003373ffffffffffffffffffffffffffffffffffffffff1673ffffffffffffffffffffffffffffffffffffffff16815260200190815260200160002054905090565b600081600260003373ffffffffffffffffffffffffffffffffffffffff1673ffffffffffffffffffffffffffffffffffffffff16815260200190815260200160002054101561026c576040517f08c379a000000000000000000000000000000000000000000000000000000000815260040161026390610c09565b60405180910390fd5b3373ffffffffffffffffffffffffffffffffffffffff166108fc839081150290604051600060405180830381858888f193505050501580156102b2573d6000803e3d6000fd5b5081600260003373ffffffffffffffffffffffffffffffffffffffff1673ffffffffffffffffffffffffffffffffffffffff16815260200190815260200160002060008282540392505081905550600260003373ffffffffffffffffffffffffffffffffffffffff1673ffffffffffffffffffffffffffffffffffffffff168152602001908152602001600020549050919050565b60008054906101000a900473ffffffffffffffffffffffffffffffffffffffff1673ffffffffffffffffffffffffffffffffffffffff163373ffffffffffffffffffffffffffffffffffffffff161461039f57600080fd5b6103a7610937565b60405180602001604052808373ffffffffffffffffffffffffffffffffffffffff1681525090506003819080600181540180825580915050600190039060005260206000200160009091909190915060008201518160000160006101000a81548173ffffffffffffffffffffffffffffffffffffffff021916908373ffffffffffffffffffffffffffffffffffffffff16021790555050505050565b60008054906101000a900473ffffffffffffffffffffffffffffffffffffffff1673ffffffffffffffffffffffffffffffffffffffff163373ffffffffffffffffffffffffffffffffffffffff161461049b57600080fd5b3373ffffffffffffffffffffffffffffffffffffffff16ff5b80600260003373ffffffffffffffffffffffffffffffffffffffff1673ffffffffffffffffffffffffffffffffffffffff168152602001908152602001600020541015610536576040517f08c379a000000000000000000000000000000000000000000000000000000000815260040161052d90610be9565b60405180910390fd5b8173ffffffffffffffffffffffffffffffffffffffff163373ffffffffffffffffffffffffffffffffffffffff1614156105a5576040517f08c379a000000000000000000000000000000000000000000000000000000000815260040161059c90610bc9565b60405180910390fd5b6000600260003373ffffffffffffffffffffffffffffffffffffffff1673ffffffffffffffffffffffffffffffffffffffff1681526020019081526020016000205490506105f4338484610898565b818373ffffffffffffffffffffffffffffffffffffffff163373ffffffffffffffffffffffffffffffffffffffff167f3573881c639e018e0c3ba3a7d19063f6a7a8205d54eb828319a7f98db00426a060405160405180910390a4600160009054906101000a900473ffffffffffffffffffffffffffffffffffffffff1673ffffffffffffffffffffffffffffffffffffffff1663fe73b27f3385856040518463ffffffff1660e01b81526004016106ae93929190610b92565b600060405180830381600087803b1580156106c857600080fd5b505af11580156106dc573d6000803e3d6000fd5b50505050818103600260003373ffffffffffffffffffffffffffffffffffffffff1673ffffffffffffffffffffffffffffffffffffffff168152602001908152602001600020541461072a57fe5b505050565b6000610739610937565b6003838154811061074657fe5b906000526020600020016040518060200160405290816000820160009054906101000a900473ffffffffffffffffffffffffffffffffffffffff1673ffffffffffffffffffffffffffffffffffffffff1673ffffffffffffffffffffffffffffffffffffffff168152505090508060000151915050919050565b600034600260003373ffffffffffffffffffffffffffffffffffffffff1673ffffffffffffffffffffffffffffffffffffffff168152602001908152602001600020600082825401925050819055503373ffffffffffffffffffffffffffffffffffffffff16347fa23831066066ec8812cc52afc91a52134a8b50c9209b68c276be679f4073d95d60405160405180910390a3600260003373ffffffffffffffffffffffffffffffffffffffff1673ffffffffffffffffffffffffffffffffffffffff16815260200190815260200160002054905090565b80600260008573ffffffffffffffffffffffffffffffffffffffff1673ffffffffffffffffffffffffffffffffffffffff1681526020019081526020016000206000828254039250508190555080600260008473ffffffffffffffffffffffffffffffffffffffff1673ffffffffffffffffffffffffffffffffffffffff16815260200190815260200160002060008282540192505081905550505050565b6040518060200160405280600073ffffffffffffffffffffffffffffffffffffffff1681525090565b60008135905061096f81610cc7565b92915050565b60008135905061098481610cde565b92915050565b60006020828403121561099c57600080fd5b60006109aa84828501610960565b91505092915050565b600080604083850312156109c657600080fd5b60006109d485828601610960565b92505060206109e585828601610975565b9150509250929050565b600060208284031215610a0157600080fd5b6000610a0f84828501610975565b91505092915050565b610a2181610c91565b82525050565b610a3081610c55565b82525050565b6000610a43602b83610c44565b91507f4552524f5220325f5468652073656e6465722063616e6e6f742062652074686560008301527f20726563697069656e742e0000000000000000000000000000000000000000006020830152604082019050919050565b6000610aa9602f83610c44565b91507f4552524f5220315f496e73756666696369656e742062616c616e636520746f2060008301527f7472616e736665722066756e64732e00000000000000000000000000000000006020830152604082019050919050565b6000610b0f602f83610c44565b91507f4552524f5220315f496e73756666696369656e742062616c616e636520746f2060008301527f77697468647261772066756e64732e00000000000000000000000000000000006020830152604082019050919050565b610b7181610c87565b82525050565b6000602082019050610b8c6000830184610a27565b92915050565b6000606082019050610ba76000830186610a18565b610bb46020830185610a27565b610bc16040830184610b68565b949350505050565b60006020820190508181036000830152610be281610a36565b9050919050565b60006020820190508181036000830152610c0281610a9c565b9050919050565b60006020820190508181036000830152610c2281610b02565b9050919050565b6000602082019050610c3e6000830184610b68565b92915050565b600082825260208201905092915050565b6000610c6082610c67565b9050919050565b600073ffffffffffffffffffffffffffffffffffffffff82169050919050565b6000819050919050565b6000610c9c82610ca3565b9050919050565b6000610cae82610cb5565b9050919050565b6000610cc082610c67565b9050919050565b610cd081610c55565b8114610cdb57600080fd5b50565b610ce781610c87565b8114610cf257600080fd5b5056fea2646970667358221220b508eebe61d64d2692d0a0fbe07c4c8a936f4b0c0bf993cc47714c97b963e86b64736f6c63430007050033",
					"opcodes": "PUSH1 0x80 PUSH1 0x40 MSTORE PUSH20 0xDA0BAB807633F07F013F94DD0E6A4F96F8742B53 PUSH1 0x1 PUSH1 0x0 PUSH2 0x100 EXP DUP2 SLOAD DUP2 PUSH20 0xFFFFFFFFFFFFFFFFFFFFFFFFFFFFFFFFFFFFFFFF MUL NOT AND SWAP1 DUP4 PUSH20 0xFFFFFFFFFFFFFFFFFFFFFFFFFFFFFFFFFFFFFFFF AND MUL OR SWAP1 SSTORE POP CALLVALUE DUP1 ISZERO PUSH2 0x65 JUMPI PUSH1 0x0 DUP1 REVERT JUMPDEST POP CALLER PUSH1 0x0 DUP1 PUSH2 0x100 EXP DUP2 SLOAD DUP2 PUSH20 0xFFFFFFFFFFFFFFFFFFFFFFFFFFFFFFFFFFFFFFFF MUL NOT AND SWAP1 DUP4 PUSH20 0xFFFFFFFFFFFFFFFFFFFFFFFFFFFFFFFFFFFFFFFF AND MUL OR SWAP1 SSTORE POP PUSH2 0xD2B DUP1 PUSH2 0xB5 PUSH1 0x0 CODECOPY PUSH1 0x0 RETURN INVALID PUSH1 0x80 PUSH1 0x40 MSTORE PUSH1 0x4 CALLDATASIZE LT PUSH2 0x70 JUMPI PUSH1 0x0 CALLDATALOAD PUSH1 0xE0 SHR DUP1 PUSH4 0x9CB8A26A GT PUSH2 0x4E JUMPI DUP1 PUSH4 0x9CB8A26A EQ PUSH2 0x106 JUMPI DUP1 PUSH4 0xA9059CBB EQ PUSH2 0x11D JUMPI DUP1 PUSH4 0xC41A360A EQ PUSH2 0x146 JUMPI DUP1 PUSH4 0xD0E30DB0 EQ PUSH2 0x183 JUMPI PUSH2 0x70 JUMP JUMPDEST DUP1 PUSH4 0x12065FE0 EQ PUSH2 0x75 JUMPI DUP1 PUSH4 0x2E1A7D4D EQ PUSH2 0xA0 JUMPI DUP1 PUSH4 0x7065CB48 EQ PUSH2 0xDD JUMPI JUMPDEST PUSH1 0x0 DUP1 REVERT JUMPDEST CALLVALUE DUP1 ISZERO PUSH2 0x81 JUMPI PUSH1 0x0 DUP1 REVERT JUMPDEST POP PUSH2 0x8A PUSH2 0x1A1 JUMP JUMPDEST PUSH1 0x40 MLOAD PUSH2 0x97 SWAP2 SWAP1 PUSH2 0xC29 JUMP JUMPDEST PUSH1 0x40 MLOAD DUP1 SWAP2 SUB SWAP1 RETURN JUMPDEST CALLVALUE DUP1 ISZERO PUSH2 0xAC JUMPI PUSH1 0x0 DUP1 REVERT JUMPDEST POP PUSH2 0xC7 PUSH1 0x4 DUP1 CALLDATASIZE SUB DUP2 ADD SWAP1 PUSH2 0xC2 SWAP2 SWAP1 PUSH2 0x9EF JUMP JUMPDEST PUSH2 0x1E8 JUMP JUMPDEST PUSH1 0x40 MLOAD PUSH2 0xD4 SWAP2 SWAP1 PUSH2 0xC29 JUMP JUMPDEST PUSH1 0x40 MLOAD DUP1 SWAP2 SUB SWAP1 RETURN JUMPDEST CALLVALUE DUP1 ISZERO PUSH2 0xE9 JUMPI PUSH1 0x0 DUP1 REVERT JUMPDEST POP PUSH2 0x104 PUSH1 0x4 DUP1 CALLDATASIZE SUB DUP2 ADD SWAP1 PUSH2 0xFF SWAP2 SWAP1 PUSH2 0x98A JUMP JUMPDEST PUSH2 0x347 JUMP JUMPDEST STOP JUMPDEST CALLVALUE DUP1 ISZERO PUSH2 0x112 JUMPI PUSH1 0x0 DUP1 REVERT JUMPDEST POP PUSH2 0x11B PUSH2 0x443 JUMP JUMPDEST STOP JUMPDEST CALLVALUE DUP1 ISZERO PUSH2 0x129 JUMPI PUSH1 0x0 DUP1 REVERT JUMPDEST POP PUSH2 0x144 PUSH1 0x4 DUP1 CALLDATASIZE SUB DUP2 ADD SWAP1 PUSH2 0x13F SWAP2 SWAP1 PUSH2 0x9B3 JUMP JUMPDEST PUSH2 0x4B4 JUMP JUMPDEST STOP JUMPDEST CALLVALUE DUP1 ISZERO PUSH2 0x152 JUMPI PUSH1 0x0 DUP1 REVERT JUMPDEST POP PUSH2 0x16D PUSH1 0x4 DUP1 CALLDATASIZE SUB DUP2 ADD SWAP1 PUSH2 0x168 SWAP2 SWAP1 PUSH2 0x9EF JUMP JUMPDEST PUSH2 0x72F JUMP JUMPDEST PUSH1 0x40 MLOAD PUSH2 0x17A SWAP2 SWAP1 PUSH2 0xB77 JUMP JUMPDEST PUSH1 0x40 MLOAD DUP1 SWAP2 SUB SWAP1 RETURN JUMPDEST PUSH2 0x18B PUSH2 0x7C0 JUMP JUMPDEST PUSH1 0x40 MLOAD PUSH2 0x198 SWAP2 SWAP1 PUSH2 0xC29 JUMP JUMPDEST PUSH1 0x40 MLOAD DUP1 SWAP2 SUB SWAP1 RETURN JUMPDEST PUSH1 0x0 PUSH1 0x2 PUSH1 0x0 CALLER PUSH20 0xFFFFFFFFFFFFFFFFFFFFFFFFFFFFFFFFFFFFFFFF AND PUSH20 0xFFFFFFFFFFFFFFFFFFFFFFFFFFFFFFFFFFFFFFFF AND DUP2 MSTORE PUSH1 0x20 ADD SWAP1 DUP2 MSTORE PUSH1 0x20 ADD PUSH1 0x0 KECCAK256 SLOAD SWAP1 POP SWAP1 JUMP JUMPDEST PUSH1 0x0 DUP2 PUSH1 0x2 PUSH1 0x0 CALLER PUSH20 0xFFFFFFFFFFFFFFFFFFFFFFFFFFFFFFFFFFFFFFFF AND PUSH20 0xFFFFFFFFFFFFFFFFFFFFFFFFFFFFFFFFFFFFFFFF AND DUP2 MSTORE PUSH1 0x20 ADD SWAP1 DUP2 MSTORE PUSH1 0x20 ADD PUSH1 0x0 KECCAK256 SLOAD LT ISZERO PUSH2 0x26C JUMPI PUSH1 0x40 MLOAD PUSH32 0x8C379A000000000000000000000000000000000000000000000000000000000 DUP2 MSTORE PUSH1 0x4 ADD PUSH2 0x263 SWAP1 PUSH2 0xC09 JUMP JUMPDEST PUSH1 0x40 MLOAD DUP1 SWAP2 SUB SWAP1 REVERT JUMPDEST CALLER PUSH20 0xFFFFFFFFFFFFFFFFFFFFFFFFFFFFFFFFFFFFFFFF AND PUSH2 0x8FC DUP4 SWAP1 DUP2 ISZERO MUL SWAP1 PUSH1 0x40 MLOAD PUSH1 0x0 PUSH1 0x40 MLOAD DUP1 DUP4 SUB DUP2 DUP6 DUP9 DUP9 CALL SWAP4 POP POP POP POP ISZERO DUP1 ISZERO PUSH2 0x2B2 JUMPI RETURNDATASIZE PUSH1 0x0 DUP1 RETURNDATACOPY RETURNDATASIZE PUSH1 0x0 REVERT JUMPDEST POP DUP2 PUSH1 0x2 PUSH1 0x0 CALLER PUSH20 0xFFFFFFFFFFFFFFFFFFFFFFFFFFFFFFFFFFFFFFFF AND PUSH20 0xFFFFFFFFFFFFFFFFFFFFFFFFFFFFFFFFFFFFFFFF AND DUP2 MSTORE PUSH1 0x20 ADD SWAP1 DUP2 MSTORE PUSH1 0x20 ADD PUSH1 0x0 KECCAK256 PUSH1 0x0 DUP3 DUP3 SLOAD SUB SWAP3 POP POP DUP2 SWAP1 SSTORE POP PUSH1 0x2 PUSH1 0x0 CALLER PUSH20 0xFFFFFFFFFFFFFFFFFFFFFFFFFFFFFFFFFFFFFFFF AND PUSH20 0xFFFFFFFFFFFFFFFFFFFFFFFFFFFFFFFFFFFFFFFF AND DUP2 MSTORE PUSH1 0x20 ADD SWAP1 DUP2 MSTORE PUSH1 0x20 ADD PUSH1 0x0 KECCAK256 SLOAD SWAP1 POP SWAP2 SWAP1 POP JUMP JUMPDEST PUSH1 0x0 DUP1 SLOAD SWAP1 PUSH2 0x100 EXP SWAP1 DIV PUSH20 0xFFFFFFFFFFFFFFFFFFFFFFFFFFFFFFFFFFFFFFFF AND PUSH20 0xFFFFFFFFFFFFFFFFFFFFFFFFFFFFFFFFFFFFFFFF AND CALLER PUSH20 0xFFFFFFFFFFFFFFFFFFFFFFFFFFFFFFFFFFFFFFFF AND EQ PUSH2 0x39F JUMPI PUSH1 0x0 DUP1 REVERT JUMPDEST PUSH2 0x3A7 PUSH2 0x937 JUMP JUMPDEST PUSH1 0x40 MLOAD DUP1 PUSH1 0x20 ADD PUSH1 0x40 MSTORE DUP1 DUP4 PUSH20 0xFFFFFFFFFFFFFFFFFFFFFFFFFFFFFFFFFFFFFFFF AND DUP2 MSTORE POP SWAP1 POP PUSH1 0x3 DUP2 SWAP1 DUP1 PUSH1 0x1 DUP2 SLOAD ADD DUP1 DUP3 SSTORE DUP1 SWAP2 POP POP PUSH1 0x1 SWAP1 SUB SWAP1 PUSH1 0x0 MSTORE PUSH1 0x20 PUSH1 0x0 KECCAK256 ADD PUSH1 0x0 SWAP1 SWAP2 SWAP1 SWAP2 SWAP1 SWAP2 POP PUSH1 0x0 DUP3 ADD MLOAD DUP2 PUSH1 0x0 ADD PUSH1 0x0 PUSH2 0x100 EXP DUP2 SLOAD DUP2 PUSH20 0xFFFFFFFFFFFFFFFFFFFFFFFFFFFFFFFFFFFFFFFF MUL NOT AND SWAP1 DUP4 PUSH20 0xFFFFFFFFFFFFFFFFFFFFFFFFFFFFFFFFFFFFFFFF AND MUL OR SWAP1 SSTORE POP POP POP POP POP JUMP JUMPDEST PUSH1 0x0 DUP1 SLOAD SWAP1 PUSH2 0x100 EXP SWAP1 DIV PUSH20 0xFFFFFFFFFFFFFFFFFFFFFFFFFFFFFFFFFFFFFFFF AND PUSH20 0xFFFFFFFFFFFFFFFFFFFFFFFFFFFFFFFFFFFFFFFF AND CALLER PUSH20 0xFFFFFFFFFFFFFFFFFFFFFFFFFFFFFFFFFFFFFFFF AND EQ PUSH2 0x49B JUMPI PUSH1 0x0 DUP1 REVERT JUMPDEST CALLER PUSH20 0xFFFFFFFFFFFFFFFFFFFFFFFFFFFFFFFFFFFFFFFF AND SELFDESTRUCT JUMPDEST DUP1 PUSH1 0x2 PUSH1 0x0 CALLER PUSH20 0xFFFFFFFFFFFFFFFFFFFFFFFFFFFFFFFFFFFFFFFF AND PUSH20 0xFFFFFFFFFFFFFFFFFFFFFFFFFFFFFFFFFFFFFFFF AND DUP2 MSTORE PUSH1 0x20 ADD SWAP1 DUP2 MSTORE PUSH1 0x20 ADD PUSH1 0x0 KECCAK256 SLOAD LT ISZERO PUSH2 0x536 JUMPI PUSH1 0x40 MLOAD PUSH32 0x8C379A000000000000000000000000000000000000000000000000000000000 DUP2 MSTORE PUSH1 0x4 ADD PUSH2 0x52D SWAP1 PUSH2 0xBE9 JUMP JUMPDEST PUSH1 0x40 MLOAD DUP1 SWAP2 SUB SWAP1 REVERT JUMPDEST DUP2 PUSH20 0xFFFFFFFFFFFFFFFFFFFFFFFFFFFFFFFFFFFFFFFF AND CALLER PUSH20 0xFFFFFFFFFFFFFFFFFFFFFFFFFFFFFFFFFFFFFFFF AND EQ ISZERO PUSH2 0x5A5 JUMPI PUSH1 0x40 MLOAD PUSH32 0x8C379A000000000000000000000000000000000000000000000000000000000 DUP2 MSTORE PUSH1 0x4 ADD PUSH2 0x59C SWAP1 PUSH2 0xBC9 JUMP JUMPDEST PUSH1 0x40 MLOAD DUP1 SWAP2 SUB SWAP1 REVERT JUMPDEST PUSH1 0x0 PUSH1 0x2 PUSH1 0x0 CALLER PUSH20 0xFFFFFFFFFFFFFFFFFFFFFFFFFFFFFFFFFFFFFFFF AND PUSH20 0xFFFFFFFFFFFFFFFFFFFFFFFFFFFFFFFFFFFFFFFF AND DUP2 MSTORE PUSH1 0x20 ADD SWAP1 DUP2 MSTORE PUSH1 0x20 ADD PUSH1 0x0 KECCAK256 SLOAD SWAP1 POP PUSH2 0x5F4 CALLER DUP5 DUP5 PUSH2 0x898 JUMP JUMPDEST DUP2 DUP4 PUSH20 0xFFFFFFFFFFFFFFFFFFFFFFFFFFFFFFFFFFFFFFFF AND CALLER PUSH20 0xFFFFFFFFFFFFFFFFFFFFFFFFFFFFFFFFFFFFFFFF AND PUSH32 0x3573881C639E018E0C3BA3A7D19063F6A7A8205D54EB828319A7F98DB00426A0 PUSH1 0x40 MLOAD PUSH1 0x40 MLOAD DUP1 SWAP2 SUB SWAP1 LOG4 PUSH1 0x1 PUSH1 0x0 SWAP1 SLOAD SWAP1 PUSH2 0x100 EXP SWAP1 DIV PUSH20 0xFFFFFFFFFFFFFFFFFFFFFFFFFFFFFFFFFFFFFFFF AND PUSH20 0xFFFFFFFFFFFFFFFFFFFFFFFFFFFFFFFFFFFFFFFF AND PUSH4 0xFE73B27F CALLER DUP6 DUP6 PUSH1 0x40 MLOAD DUP5 PUSH4 0xFFFFFFFF AND PUSH1 0xE0 SHL DUP2 MSTORE PUSH1 0x4 ADD PUSH2 0x6AE SWAP4 SWAP3 SWAP2 SWAP1 PUSH2 0xB92 JUMP JUMPDEST PUSH1 0x0 PUSH1 0x40 MLOAD DUP1 DUP4 SUB DUP2 PUSH1 0x0 DUP8 DUP1 EXTCODESIZE ISZERO DUP1 ISZERO PUSH2 0x6C8 JUMPI PUSH1 0x0 DUP1 REVERT JUMPDEST POP GAS CALL ISZERO DUP1 ISZERO PUSH2 0x6DC JUMPI RETURNDATASIZE PUSH1 0x0 DUP1 RETURNDATACOPY RETURNDATASIZE PUSH1 0x0 REVERT JUMPDEST POP POP POP POP DUP2 DUP2 SUB PUSH1 0x2 PUSH1 0x0 CALLER PUSH20 0xFFFFFFFFFFFFFFFFFFFFFFFFFFFFFFFFFFFFFFFF AND PUSH20 0xFFFFFFFFFFFFFFFFFFFFFFFFFFFFFFFFFFFFFFFF AND DUP2 MSTORE PUSH1 0x20 ADD SWAP1 DUP2 MSTORE PUSH1 0x20 ADD PUSH1 0x0 KECCAK256 SLOAD EQ PUSH2 0x72A JUMPI INVALID JUMPDEST POP POP POP JUMP JUMPDEST PUSH1 0x0 PUSH2 0x739 PUSH2 0x937 JUMP JUMPDEST PUSH1 0x3 DUP4 DUP2 SLOAD DUP2 LT PUSH2 0x746 JUMPI INVALID JUMPDEST SWAP1 PUSH1 0x0 MSTORE PUSH1 0x20 PUSH1 0x0 KECCAK256 ADD PUSH1 0x40 MLOAD DUP1 PUSH1 0x20 ADD PUSH1 0x40 MSTORE SWAP1 DUP2 PUSH1 0x0 DUP3 ADD PUSH1 0x0 SWAP1 SLOAD SWAP1 PUSH2 0x100 EXP SWAP1 DIV PUSH20 0xFFFFFFFFFFFFFFFFFFFFFFFFFFFFFFFFFFFFFFFF AND PUSH20 0xFFFFFFFFFFFFFFFFFFFFFFFFFFFFFFFFFFFFFFFF AND PUSH20 0xFFFFFFFFFFFFFFFFFFFFFFFFFFFFFFFFFFFFFFFF AND DUP2 MSTORE POP POP SWAP1 POP DUP1 PUSH1 0x0 ADD MLOAD SWAP2 POP POP SWAP2 SWAP1 POP JUMP JUMPDEST PUSH1 0x0 CALLVALUE PUSH1 0x2 PUSH1 0x0 CALLER PUSH20 0xFFFFFFFFFFFFFFFFFFFFFFFFFFFFFFFFFFFFFFFF AND PUSH20 0xFFFFFFFFFFFFFFFFFFFFFFFFFFFFFFFFFFFFFFFF AND DUP2 MSTORE PUSH1 0x20 ADD SWAP1 DUP2 MSTORE PUSH1 0x20 ADD PUSH1 0x0 KECCAK256 PUSH1 0x0 DUP3 DUP3 SLOAD ADD SWAP3 POP POP DUP2 SWAP1 SSTORE POP CALLER PUSH20 0xFFFFFFFFFFFFFFFFFFFFFFFFFFFFFFFFFFFFFFFF AND CALLVALUE PUSH32 0xA23831066066EC8812CC52AFC91A52134A8B50C9209B68C276BE679F4073D95D PUSH1 0x40 MLOAD PUSH1 0x40 MLOAD DUP1 SWAP2 SUB SWAP1 LOG3 PUSH1 0x2 PUSH1 0x0 CALLER PUSH20 0xFFFFFFFFFFFFFFFFFFFFFFFFFFFFFFFFFFFFFFFF AND PUSH20 0xFFFFFFFFFFFFFFFFFFFFFFFFFFFFFFFFFFFFFFFF AND DUP2 MSTORE PUSH1 0x20 ADD SWAP1 DUP2 MSTORE PUSH1 0x20 ADD PUSH1 0x0 KECCAK256 SLOAD SWAP1 POP SWAP1 JUMP JUMPDEST DUP1 PUSH1 0x2 PUSH1 0x0 DUP6 PUSH20 0xFFFFFFFFFFFFFFFFFFFFFFFFFFFFFFFFFFFFFFFF AND PUSH20 0xFFFFFFFFFFFFFFFFFFFFFFFFFFFFFFFFFFFFFFFF AND DUP2 MSTORE PUSH1 0x20 ADD SWAP1 DUP2 MSTORE PUSH1 0x20 ADD PUSH1 0x0 KECCAK256 PUSH1 0x0 DUP3 DUP3 SLOAD SUB SWAP3 POP POP DUP2 SWAP1 SSTORE POP DUP1 PUSH1 0x2 PUSH1 0x0 DUP5 PUSH20 0xFFFFFFFFFFFFFFFFFFFFFFFFFFFFFFFFFFFFFFFF AND PUSH20 0xFFFFFFFFFFFFFFFFFFFFFFFFFFFFFFFFFFFFFFFF AND DUP2 MSTORE PUSH1 0x20 ADD SWAP1 DUP2 MSTORE PUSH1 0x20 ADD PUSH1 0x0 KECCAK256 PUSH1 0x0 DUP3 DUP3 SLOAD ADD SWAP3 POP POP DUP2 SWAP1 SSTORE POP POP POP POP JUMP JUMPDEST PUSH1 0x40 MLOAD DUP1 PUSH1 0x20 ADD PUSH1 0x40 MSTORE DUP1 PUSH1 0x0 PUSH20 0xFFFFFFFFFFFFFFFFFFFFFFFFFFFFFFFFFFFFFFFF AND DUP2 MSTORE POP SWAP1 JUMP JUMPDEST PUSH1 0x0 DUP2 CALLDATALOAD SWAP1 POP PUSH2 0x96F DUP2 PUSH2 0xCC7 JUMP JUMPDEST SWAP3 SWAP2 POP POP JUMP JUMPDEST PUSH1 0x0 DUP2 CALLDATALOAD SWAP1 POP PUSH2 0x984 DUP2 PUSH2 0xCDE JUMP JUMPDEST SWAP3 SWAP2 POP POP JUMP JUMPDEST PUSH1 0x0 PUSH1 0x20 DUP3 DUP5 SUB SLT ISZERO PUSH2 0x99C JUMPI PUSH1 0x0 DUP1 REVERT JUMPDEST PUSH1 0x0 PUSH2 0x9AA DUP5 DUP3 DUP6 ADD PUSH2 0x960 JUMP JUMPDEST SWAP2 POP POP SWAP3 SWAP2 POP POP JUMP JUMPDEST PUSH1 0x0 DUP1 PUSH1 0x40 DUP4 DUP6 SUB SLT ISZERO PUSH2 0x9C6 JUMPI PUSH1 0x0 DUP1 REVERT JUMPDEST PUSH1 0x0 PUSH2 0x9D4 DUP6 DUP3 DUP7 ADD PUSH2 0x960 JUMP JUMPDEST SWAP3 POP POP PUSH1 0x20 PUSH2 0x9E5 DUP6 DUP3 DUP7 ADD PUSH2 0x975 JUMP JUMPDEST SWAP2 POP POP SWAP3 POP SWAP3 SWAP1 POP JUMP JUMPDEST PUSH1 0x0 PUSH1 0x20 DUP3 DUP5 SUB SLT ISZERO PUSH2 0xA01 JUMPI PUSH1 0x0 DUP1 REVERT JUMPDEST PUSH1 0x0 PUSH2 0xA0F DUP5 DUP3 DUP6 ADD PUSH2 0x975 JUMP JUMPDEST SWAP2 POP POP SWAP3 SWAP2 POP POP JUMP JUMPDEST PUSH2 0xA21 DUP2 PUSH2 0xC91 JUMP JUMPDEST DUP3 MSTORE POP POP JUMP JUMPDEST PUSH2 0xA30 DUP2 PUSH2 0xC55 JUMP JUMPDEST DUP3 MSTORE POP POP JUMP JUMPDEST PUSH1 0x0 PUSH2 0xA43 PUSH1 0x2B DUP4 PUSH2 0xC44 JUMP JUMPDEST SWAP2 POP PUSH32 0x4552524F5220325F5468652073656E6465722063616E6E6F7420626520746865 PUSH1 0x0 DUP4 ADD MSTORE PUSH32 0x20726563697069656E742E000000000000000000000000000000000000000000 PUSH1 0x20 DUP4 ADD MSTORE PUSH1 0x40 DUP3 ADD SWAP1 POP SWAP2 SWAP1 POP JUMP JUMPDEST PUSH1 0x0 PUSH2 0xAA9 PUSH1 0x2F DUP4 PUSH2 0xC44 JUMP JUMPDEST SWAP2 POP PUSH32 0x4552524F5220315F496E73756666696369656E742062616C616E636520746F20 PUSH1 0x0 DUP4 ADD MSTORE PUSH32 0x7472616E736665722066756E64732E0000000000000000000000000000000000 PUSH1 0x20 DUP4 ADD MSTORE PUSH1 0x40 DUP3 ADD SWAP1 POP SWAP2 SWAP1 POP JUMP JUMPDEST PUSH1 0x0 PUSH2 0xB0F PUSH1 0x2F DUP4 PUSH2 0xC44 JUMP JUMPDEST SWAP2 POP PUSH32 0x4552524F5220315F496E73756666696369656E742062616C616E636520746F20 PUSH1 0x0 DUP4 ADD MSTORE PUSH32 0x77697468647261772066756E64732E0000000000000000000000000000000000 PUSH1 0x20 DUP4 ADD MSTORE PUSH1 0x40 DUP3 ADD SWAP1 POP SWAP2 SWAP1 POP JUMP JUMPDEST PUSH2 0xB71 DUP2 PUSH2 0xC87 JUMP JUMPDEST DUP3 MSTORE POP POP JUMP JUMPDEST PUSH1 0x0 PUSH1 0x20 DUP3 ADD SWAP1 POP PUSH2 0xB8C PUSH1 0x0 DUP4 ADD DUP5 PUSH2 0xA27 JUMP JUMPDEST SWAP3 SWAP2 POP POP JUMP JUMPDEST PUSH1 0x0 PUSH1 0x60 DUP3 ADD SWAP1 POP PUSH2 0xBA7 PUSH1 0x0 DUP4 ADD DUP7 PUSH2 0xA18 JUMP JUMPDEST PUSH2 0xBB4 PUSH1 0x20 DUP4 ADD DUP6 PUSH2 0xA27 JUMP JUMPDEST PUSH2 0xBC1 PUSH1 0x40 DUP4 ADD DUP5 PUSH2 0xB68 JUMP JUMPDEST SWAP5 SWAP4 POP POP POP POP JUMP JUMPDEST PUSH1 0x0 PUSH1 0x20 DUP3 ADD SWAP1 POP DUP2 DUP2 SUB PUSH1 0x0 DUP4 ADD MSTORE PUSH2 0xBE2 DUP2 PUSH2 0xA36 JUMP JUMPDEST SWAP1 POP SWAP2 SWAP1 POP JUMP JUMPDEST PUSH1 0x0 PUSH1 0x20 DUP3 ADD SWAP1 POP DUP2 DUP2 SUB PUSH1 0x0 DUP4 ADD MSTORE PUSH2 0xC02 DUP2 PUSH2 0xA9C JUMP JUMPDEST SWAP1 POP SWAP2 SWAP1 POP JUMP JUMPDEST PUSH1 0x0 PUSH1 0x20 DUP3 ADD SWAP1 POP DUP2 DUP2 SUB PUSH1 0x0 DUP4 ADD MSTORE PUSH2 0xC22 DUP2 PUSH2 0xB02 JUMP JUMPDEST SWAP1 POP SWAP2 SWAP1 POP JUMP JUMPDEST PUSH1 0x0 PUSH1 0x20 DUP3 ADD SWAP1 POP PUSH2 0xC3E PUSH1 0x0 DUP4 ADD DUP5 PUSH2 0xB68 JUMP JUMPDEST SWAP3 SWAP2 POP POP JUMP JUMPDEST PUSH1 0x0 DUP3 DUP3 MSTORE PUSH1 0x20 DUP3 ADD SWAP1 POP SWAP3 SWAP2 POP POP JUMP JUMPDEST PUSH1 0x0 PUSH2 0xC60 DUP3 PUSH2 0xC67 JUMP JUMPDEST SWAP1 POP SWAP2 SWAP1 POP JUMP JUMPDEST PUSH1 0x0 PUSH20 0xFFFFFFFFFFFFFFFFFFFFFFFFFFFFFFFFFFFFFFFF DUP3 AND SWAP1 POP SWAP2 SWAP1 POP JUMP JUMPDEST PUSH1 0x0 DUP2 SWAP1 POP SWAP2 SWAP1 POP JUMP JUMPDEST PUSH1 0x0 PUSH2 0xC9C DUP3 PUSH2 0xCA3 JUMP JUMPDEST SWAP1 POP SWAP2 SWAP1 POP JUMP JUMPDEST PUSH1 0x0 PUSH2 0xCAE DUP3 PUSH2 0xCB5 JUMP JUMPDEST SWAP1 POP SWAP2 SWAP1 POP JUMP JUMPDEST PUSH1 0x0 PUSH2 0xCC0 DUP3 PUSH2 0xC67 JUMP JUMPDEST SWAP1 POP SWAP2 SWAP1 POP JUMP JUMPDEST PUSH2 0xCD0 DUP2 PUSH2 0xC55 JUMP JUMPDEST DUP2 EQ PUSH2 0xCDB JUMPI PUSH1 0x0 DUP1 REVERT JUMPDEST POP JUMP JUMPDEST PUSH2 0xCE7 DUP2 PUSH2 0xC87 JUMP JUMPDEST DUP2 EQ PUSH2 0xCF2 JUMPI PUSH1 0x0 DUP1 REVERT JUMPDEST POP JUMP INVALID LOG2 PUSH5 0x6970667358 0x22 SLT KECCAK256 0xB5 ADDMOD 0xEE 0xBE PUSH2 0xD64D 0x26 SWAP3 0xD0 LOG0 0xFB 0xE0 PUSH29 0x4C8A936F4B0C0BF993CC47714C97B963E86B64736F6C63430007050033 "
				},
				"gasEstimates": {
					"creation": {
						"codeDepositCost": "674200",
						"executionCost": "42441",
						"totalCost": "716641"
					},
					"external": {
						"addOwner(address)": "43301",
						"deposit()": "23726",
						"getBalance()": "1227",
						"getOwner(uint256)": "2562",
						"selfDestruct()": "31010",
						"transfer(address,uint256)": "infinite",
						"withdraw(uint256)": "infinite"
					},
					"internal": {
						"RequiredApprovals(uint256)": "infinite",
						"_transfer(address,address,uint256)": "41867"
					}
				},
				"methodIdentifiers": {
					"addOwner(address)": "7065cb48",
					"deposit()": "d0e30db0",
					"getBalance()": "12065fe0",
					"getOwner(uint256)": "c41a360a",
					"selfDestruct()": "9cb8a26a",
					"transfer(address,uint256)": "a9059cbb",
					"withdraw(uint256)": "2e1a7d4d"
				}
			},
			"storageLayout": {
				"storage": [
					{
						"astId": 283,
						"contract": "contracts/Bank_MultiSIG.sol:Bank",
						"label": "owner",
						"offset": 0,
						"slot": "0",
						"type": "t_address"
					},
					{
						"astId": 23,
						"contract": "contracts/Bank_MultiSIG.sol:Bank",
						"label": "GovernmentInstance",
						"offset": 0,
						"slot": "1",
						"type": "t_contract(GovernmentInterface)14"
					},
					{
						"astId": 27,
						"contract": "contracts/Bank_MultiSIG.sol:Bank",
						"label": "balance",
						"offset": 0,
						"slot": "2",
						"type": "t_mapping(t_address,t_uint256)"
					},
					{
						"astId": 47,
						"contract": "contracts/Bank_MultiSIG.sol:Bank",
						"label": "owners",
						"offset": 0,
						"slot": "3",
						"type": "t_array(t_struct(Owner)44_storage)dyn_storage"
					}
				],
				"types": {
					"t_address": {
						"encoding": "inplace",
						"label": "address",
						"numberOfBytes": "20"
					},
					"t_array(t_struct(Owner)44_storage)dyn_storage": {
						"base": "t_struct(Owner)44_storage",
						"encoding": "dynamic_array",
						"label": "struct Bank.Owner[]",
						"numberOfBytes": "32"
					},
					"t_contract(GovernmentInterface)14": {
						"encoding": "inplace",
						"label": "contract GovernmentInterface",
						"numberOfBytes": "20"
					},
					"t_mapping(t_address,t_uint256)": {
						"encoding": "mapping",
						"key": "t_address",
						"label": "mapping(address => uint256)",
						"numberOfBytes": "32",
						"value": "t_uint256"
					},
					"t_struct(Owner)44_storage": {
						"encoding": "inplace",
						"label": "struct Bank.Owner",
						"members": [
							{
								"astId": 43,
								"contract": "contracts/Bank_MultiSIG.sol:Bank",
								"label": "oaddress",
								"offset": 0,
								"slot": "0",
								"type": "t_address"
							}
						],
						"numberOfBytes": "32"
					},
					"t_uint256": {
						"encoding": "inplace",
						"label": "uint256",
						"numberOfBytes": "32"
					}
				}
			},
			"userdoc": {
				"kind": "user",
				"methods": {},
				"version": 1
			}
		}
	}
}