{
	"contracts/Require_Transfer.sol": {
		"Bank_Require": {
			"abi": [
				{
					"inputs": [],
					"stateMutability": "nonpayable",
					"type": "constructor"
				},
				{
					"inputs": [
						{
							"internalType": "uint256",
							"name": "_toAdd",
							"type": "uint256"
						}
					],
					"name": "addBalance",
					"outputs": [
						{
							"internalType": "uint256",
							"name": "",
							"type": "uint256"
						}
					],
					"stateMutability": "nonpayable",
					"type": "function"
				},
				{
					"inputs": [],
					"name": "getBalance",
					"outputs": [
						{
							"internalType": "uint256",
							"name": "",
							"type": "uint256"
						}
					],
					"stateMutability": "view",
					"type": "function"
				},
				{
					"inputs": [
						{
							"internalType": "address",
							"name": "recipient",
							"type": "address"
						},
						{
							"internalType": "uint256",
							"name": "amount",
							"type": "uint256"
						}
					],
					"name": "transfer",
					"outputs": [],
					"stateMutability": "nonpayable",
					"type": "function"
				}
			],
			"devdoc": {
				"kind": "dev",
				"methods": {},
				"version": 1
			},
			"evm": {
				"assembly": "    /* \"contracts/Require_Transfer.sol\":27:1137  contract Bank_Require{... */\n  mstore(0x40, 0x80)\n    /* \"contracts/Require_Transfer.sol\":136:213  constructor(){... */\n  callvalue\n  dup1\n  iszero\n  tag_1\n  jumpi\n  0x00\n  dup1\n  revert\ntag_1:\n  pop\n    /* \"contracts/Require_Transfer.sol\":168:178  msg.sender */\n  caller\n    /* \"contracts/Require_Transfer.sol\":160:165  owner */\n  0x01\n  0x00\n    /* \"contracts/Require_Transfer.sol\":160:178  owner = msg.sender */\n  0x0100\n  exp\n  dup2\n  sload\n  dup2\n  0xffffffffffffffffffffffffffffffffffffffff\n  mul\n  not\n  and\n  swap1\n  dup4\n  0xffffffffffffffffffffffffffffffffffffffff\n  and\n  mul\n  or\n  swap1\n  sstore\n  pop\n    /* \"contracts/Require_Transfer.sol\":27:1137  contract Bank_Require{... */\n  dataSize(sub_0)\n  dup1\n  dataOffset(sub_0)\n  0x00\n  codecopy\n  0x00\n  return\nstop\n\nsub_0: assembly {\n        /* \"contracts/Require_Transfer.sol\":27:1137  contract Bank_Require{... */\n      mstore(0x40, 0x80)\n      callvalue\n      dup1\n      iszero\n      tag_1\n      jumpi\n      0x00\n      dup1\n      revert\n    tag_1:\n      pop\n      jumpi(tag_2, lt(calldatasize, 0x04))\n      shr(0xe0, calldataload(0x00))\n      dup1\n      0x12065fe0\n      eq\n      tag_3\n      jumpi\n      dup1\n      0xa9059cbb\n      eq\n      tag_4\n      jumpi\n      dup1\n      0xd91921ed\n      eq\n      tag_5\n      jumpi\n    tag_2:\n      0x00\n      dup1\n      revert\n        /* \"contracts/Require_Transfer.sol\":488:582  function getBalance () public view returns (uint){... */\n    tag_3:\n      tag_6\n      tag_7\n      jump\t// in\n    tag_6:\n      mload(0x40)\n      tag_8\n      swap2\n      swap1\n      tag_9\n      jump\t// in\n    tag_8:\n      mload(0x40)\n      dup1\n      swap2\n      sub\n      swap1\n      return\n        /* \"contracts/Require_Transfer.sol\":590:984  function transfer(address recipient, uint amount) public {... */\n    tag_4:\n      tag_10\n      0x04\n      dup1\n      calldatasize\n      sub\n      dup2\n      add\n      swap1\n      tag_11\n      swap2\n      swap1\n      tag_12\n      jump\t// in\n    tag_11:\n      tag_13\n      jump\t// in\n    tag_10:\n      stop\n        /* \"contracts/Require_Transfer.sol\":221:480  function addBalance (uint _toAdd) public returns (uint){ ... */\n    tag_5:\n      tag_14\n      0x04\n      dup1\n      calldatasize\n      sub\n      dup2\n      add\n      swap1\n      tag_15\n      swap2\n      swap1\n      tag_16\n      jump\t// in\n    tag_15:\n      tag_17\n      jump\t// in\n    tag_14:\n      mload(0x40)\n      tag_18\n      swap2\n      swap1\n      tag_9\n      jump\t// in\n    tag_18:\n      mload(0x40)\n      dup1\n      swap2\n      sub\n      swap1\n      return\n        /* \"contracts/Require_Transfer.sol\":488:582  function getBalance () public view returns (uint){... */\n    tag_7:\n        /* \"contracts/Require_Transfer.sol\":532:536  uint */\n      0x00\n        /* \"contracts/Require_Transfer.sol\":555:562  balance */\n      dup1\n        /* \"contracts/Require_Transfer.sol\":555:574  balance[msg.sender] */\n      0x00\n        /* \"contracts/Require_Transfer.sol\":563:573  msg.sender */\n      caller\n        /* \"contracts/Require_Transfer.sol\":555:574  balance[msg.sender] */\n      0xffffffffffffffffffffffffffffffffffffffff\n      and\n      0xffffffffffffffffffffffffffffffffffffffff\n      and\n      dup2\n      mstore\n      0x20\n      add\n      swap1\n      dup2\n      mstore\n      0x20\n      add\n      0x00\n      keccak256\n      sload\n        /* \"contracts/Require_Transfer.sol\":548:574  return balance[msg.sender] */\n      swap1\n      pop\n        /* \"contracts/Require_Transfer.sol\":488:582  function getBalance () public view returns (uint){... */\n      swap1\n      jump\t// out\n        /* \"contracts/Require_Transfer.sol\":590:984  function transfer(address recipient, uint amount) public {... */\n    tag_13:\n        /* \"contracts/Require_Transfer.sol\":727:733  amount */\n      dup1\n        /* \"contracts/Require_Transfer.sol\":705:712  balance */\n      0x00\n        /* \"contracts/Require_Transfer.sol\":705:724  balance[msg.sender] */\n      dup1\n        /* \"contracts/Require_Transfer.sol\":713:723  msg.sender */\n      caller\n        /* \"contracts/Require_Transfer.sol\":705:724  balance[msg.sender] */\n      0xffffffffffffffffffffffffffffffffffffffff\n      and\n      0xffffffffffffffffffffffffffffffffffffffff\n      and\n      dup2\n      mstore\n      0x20\n      add\n      swap1\n      dup2\n      mstore\n      0x20\n      add\n      0x00\n      keccak256\n      sload\n        /* \"contracts/Require_Transfer.sol\":705:733  balance[msg.sender]>= amount */\n      lt\n      iszero\n        /* \"contracts/Require_Transfer.sol\":697:777  require(balance[msg.sender]>= amount,\"ERROR 1_Insufficient Balance to Transfer\") */\n      tag_21\n      jumpi\n      mload(0x40)\n      0x08c379a000000000000000000000000000000000000000000000000000000000\n      dup2\n      mstore\n      0x04\n      add\n      tag_22\n      swap1\n      tag_23\n      jump\t// in\n    tag_22:\n      mload(0x40)\n      dup1\n      swap2\n      sub\n      swap1\n      revert\n    tag_21:\n        /* \"contracts/Require_Transfer.sol\":810:819  recipient */\n      dup2\n        /* \"contracts/Require_Transfer.sol\":796:819  msg.sender != recipient */\n      0xffffffffffffffffffffffffffffffffffffffff\n      and\n        /* \"contracts/Require_Transfer.sol\":796:806  msg.sender */\n      caller\n        /* \"contracts/Require_Transfer.sol\":796:819  msg.sender != recipient */\n      0xffffffffffffffffffffffffffffffffffffffff\n      and\n      sub\n        /* \"contracts/Require_Transfer.sol\":788:852  require(msg.sender != recipient,\"ERROR 2_The Sender Cannot be \") */\n      tag_24\n      jumpi\n      mload(0x40)\n      0x08c379a000000000000000000000000000000000000000000000000000000000\n      dup2\n      mstore\n      0x04\n      add\n      tag_25\n      swap1\n      tag_26\n      jump\t// in\n    tag_25:\n      mload(0x40)\n      dup1\n      swap2\n      sub\n      swap1\n      revert\n    tag_24:\n        /* \"contracts/Require_Transfer.sol\":865:906  _transfer (msg.sender, recipient, amount) */\n      tag_27\n        /* \"contracts/Require_Transfer.sol\":876:886  msg.sender */\n      caller\n        /* \"contracts/Require_Transfer.sol\":888:897  recipient */\n      dup4\n        /* \"contracts/Require_Transfer.sol\":899:905  amount */\n      dup4\n        /* \"contracts/Require_Transfer.sol\":865:874  _transfer */\n      tag_28\n        /* \"contracts/Require_Transfer.sol\":865:906  _transfer (msg.sender, recipient, amount) */\n      jump\t// in\n    tag_27:\n        /* \"contracts/Require_Transfer.sol\":590:984  function transfer(address recipient, uint amount) public {... */\n      pop\n      pop\n      jump\t// out\n        /* \"contracts/Require_Transfer.sol\":221:480  function addBalance (uint _toAdd) public returns (uint){ ... */\n    tag_17:\n        /* \"contracts/Require_Transfer.sol\":271:275  uint */\n      0x00\n        /* \"contracts/Require_Transfer.sol\":389:394  owner */\n      0x01\n      0x00\n      swap1\n      sload\n      swap1\n      0x0100\n      exp\n      swap1\n      div\n      0xffffffffffffffffffffffffffffffffffffffff\n      and\n        /* \"contracts/Require_Transfer.sol\":375:394  msg.sender == owner */\n      0xffffffffffffffffffffffffffffffffffffffff\n      and\n        /* \"contracts/Require_Transfer.sol\":375:385  msg.sender */\n      caller\n        /* \"contracts/Require_Transfer.sol\":375:394  msg.sender == owner */\n      0xffffffffffffffffffffffffffffffffffffffff\n      and\n      eq\n        /* \"contracts/Require_Transfer.sol\":367:395  require(msg.sender == owner) */\n      tag_30\n      jumpi\n      0x00\n      dup1\n      revert\n    tag_30:\n        /* \"contracts/Require_Transfer.sol\":429:435  _toAdd */\n      dup2\n        /* \"contracts/Require_Transfer.sol\":406:413  balance */\n      0x00\n        /* \"contracts/Require_Transfer.sol\":406:425  balance[msg.sender] */\n      dup1\n        /* \"contracts/Require_Transfer.sol\":414:424  msg.sender */\n      caller\n        /* \"contracts/Require_Transfer.sol\":406:425  balance[msg.sender] */\n      0xffffffffffffffffffffffffffffffffffffffff\n      and\n      0xffffffffffffffffffffffffffffffffffffffff\n      and\n      dup2\n      mstore\n      0x20\n      add\n      swap1\n      dup2\n      mstore\n      0x20\n      add\n      0x00\n      keccak256\n      0x00\n        /* \"contracts/Require_Transfer.sol\":406:435  balance[msg.sender] += _toAdd */\n      dup3\n      dup3\n      sload\n      tag_31\n      swap2\n      swap1\n      tag_32\n      jump\t// in\n    tag_31:\n      swap3\n      pop\n      pop\n      dup2\n      swap1\n      sstore\n      pop\n        /* \"contracts/Require_Transfer.sol\":453:460  balance */\n      0x00\n        /* \"contracts/Require_Transfer.sol\":453:472  balance[msg.sender] */\n      dup1\n        /* \"contracts/Require_Transfer.sol\":461:471  msg.sender */\n      caller\n        /* \"contracts/Require_Transfer.sol\":453:472  balance[msg.sender] */\n      0xffffffffffffffffffffffffffffffffffffffff\n      and\n      0xffffffffffffffffffffffffffffffffffffffff\n      and\n      dup2\n      mstore\n      0x20\n      add\n      swap1\n      dup2\n      mstore\n      0x20\n      add\n      0x00\n      keccak256\n      sload\n        /* \"contracts/Require_Transfer.sol\":446:472  return balance[msg.sender] */\n      swap1\n      pop\n        /* \"contracts/Require_Transfer.sol\":221:480  function addBalance (uint _toAdd) public returns (uint){ ... */\n      swap2\n      swap1\n      pop\n      jump\t// out\n        /* \"contracts/Require_Transfer.sol\":992:1132  function _transfer(address from, address to, uint amount) private {... */\n    tag_28:\n        /* \"contracts/Require_Transfer.sol\":1086:1092  amount */\n      dup1\n        /* \"contracts/Require_Transfer.sol\":1069:1076  balance */\n      0x00\n        /* \"contracts/Require_Transfer.sol\":1069:1082  balance[from] */\n      dup1\n        /* \"contracts/Require_Transfer.sol\":1077:1081  from */\n      dup6\n        /* \"contracts/Require_Transfer.sol\":1069:1082  balance[from] */\n      0xffffffffffffffffffffffffffffffffffffffff\n      and\n      0xffffffffffffffffffffffffffffffffffffffff\n      and\n      dup2\n      mstore\n      0x20\n      add\n      swap1\n      dup2\n      mstore\n      0x20\n      add\n      0x00\n      keccak256\n      0x00\n        /* \"contracts/Require_Transfer.sol\":1069:1092  balance[from] -= amount */\n      dup3\n      dup3\n      sload\n      tag_34\n      swap2\n      swap1\n      tag_35\n      jump\t// in\n    tag_34:\n      swap3\n      pop\n      pop\n      dup2\n      swap1\n      sstore\n      pop\n        /* \"contracts/Require_Transfer.sol\":1118:1124  amount */\n      dup1\n        /* \"contracts/Require_Transfer.sol\":1103:1110  balance */\n      0x00\n        /* \"contracts/Require_Transfer.sol\":1103:1114  balance[to] */\n      dup1\n        /* \"contracts/Require_Transfer.sol\":1111:1113  to */\n      dup5\n        /* \"contracts/Require_Transfer.sol\":1103:1114  balance[to] */\n      0xffffffffffffffffffffffffffffffffffffffff\n      and\n      0xffffffffffffffffffffffffffffffffffffffff\n      and\n      dup2\n      mstore\n      0x20\n      add\n      swap1\n      dup2\n      mstore\n      0x20\n      add\n      0x00\n      keccak256\n      0x00\n        /* \"contracts/Require_Transfer.sol\":1103:1124  balance[to] += amount */\n      dup3\n      dup3\n      sload\n      tag_36\n      swap2\n      swap1\n      tag_32\n      jump\t// in\n    tag_36:\n      swap3\n      pop\n      pop\n      dup2\n      swap1\n      sstore\n      pop\n        /* \"contracts/Require_Transfer.sol\":992:1132  function _transfer(address from, address to, uint amount) private {... */\n      pop\n      pop\n      pop\n      jump\t// out\n        /* \"#utility.yul\":7:84   */\n    tag_37:\n        /* \"#utility.yul\":44:51   */\n      0x00\n        /* \"#utility.yul\":73:78   */\n      dup2\n        /* \"#utility.yul\":62:78   */\n      swap1\n      pop\n        /* \"#utility.yul\":7:84   */\n      swap2\n      swap1\n      pop\n      jump\t// out\n        /* \"#utility.yul\":90:208   */\n    tag_38:\n        /* \"#utility.yul\":177:201   */\n      tag_57\n        /* \"#utility.yul\":195:200   */\n      dup2\n        /* \"#utility.yul\":177:201   */\n      tag_37\n      jump\t// in\n    tag_57:\n        /* \"#utility.yul\":172:175   */\n      dup3\n        /* \"#utility.yul\":165:202   */\n      mstore\n        /* \"#utility.yul\":90:208   */\n      pop\n      pop\n      jump\t// out\n        /* \"#utility.yul\":214:436   */\n    tag_9:\n        /* \"#utility.yul\":307:311   */\n      0x00\n        /* \"#utility.yul\":345:347   */\n      0x20\n        /* \"#utility.yul\":334:343   */\n      dup3\n        /* \"#utility.yul\":330:348   */\n      add\n        /* \"#utility.yul\":322:348   */\n      swap1\n      pop\n        /* \"#utility.yul\":358:429   */\n      tag_59\n        /* \"#utility.yul\":426:427   */\n      0x00\n        /* \"#utility.yul\":415:424   */\n      dup4\n        /* \"#utility.yul\":411:428   */\n      add\n        /* \"#utility.yul\":402:408   */\n      dup5\n        /* \"#utility.yul\":358:429   */\n      tag_38\n      jump\t// in\n    tag_59:\n        /* \"#utility.yul\":214:436   */\n      swap3\n      swap2\n      pop\n      pop\n      jump\t// out\n        /* \"#utility.yul\":523:640   */\n    tag_40:\n        /* \"#utility.yul\":632:633   */\n      0x00\n        /* \"#utility.yul\":629:630   */\n      dup1\n        /* \"#utility.yul\":622:634   */\n      revert\n        /* \"#utility.yul\":769:895   */\n    tag_42:\n        /* \"#utility.yul\":806:813   */\n      0x00\n        /* \"#utility.yul\":846:888   */\n      0xffffffffffffffffffffffffffffffffffffffff\n        /* \"#utility.yul\":839:844   */\n      dup3\n        /* \"#utility.yul\":835:889   */\n      and\n        /* \"#utility.yul\":824:889   */\n      swap1\n      pop\n        /* \"#utility.yul\":769:895   */\n      swap2\n      swap1\n      pop\n      jump\t// out\n        /* \"#utility.yul\":901:997   */\n    tag_43:\n        /* \"#utility.yul\":938:945   */\n      0x00\n        /* \"#utility.yul\":967:991   */\n      tag_65\n        /* \"#utility.yul\":985:990   */\n      dup3\n        /* \"#utility.yul\":967:991   */\n      tag_42\n      jump\t// in\n    tag_65:\n        /* \"#utility.yul\":956:991   */\n      swap1\n      pop\n        /* \"#utility.yul\":901:997   */\n      swap2\n      swap1\n      pop\n      jump\t// out\n        /* \"#utility.yul\":1003:1125   */\n    tag_44:\n        /* \"#utility.yul\":1076:1100   */\n      tag_67\n        /* \"#utility.yul\":1094:1099   */\n      dup2\n        /* \"#utility.yul\":1076:1100   */\n      tag_43\n      jump\t// in\n    tag_67:\n        /* \"#utility.yul\":1069:1074   */\n      dup2\n        /* \"#utility.yul\":1066:1101   */\n      eq\n        /* \"#utility.yul\":1056:1119   */\n      tag_68\n      jumpi\n        /* \"#utility.yul\":1115:1116   */\n      0x00\n        /* \"#utility.yul\":1112:1113   */\n      dup1\n        /* \"#utility.yul\":1105:1117   */\n      revert\n        /* \"#utility.yul\":1056:1119   */\n    tag_68:\n        /* \"#utility.yul\":1003:1125   */\n      pop\n      jump\t// out\n        /* \"#utility.yul\":1131:1270   */\n    tag_45:\n        /* \"#utility.yul\":1177:1182   */\n      0x00\n        /* \"#utility.yul\":1215:1221   */\n      dup2\n        /* \"#utility.yul\":1202:1222   */\n      calldataload\n        /* \"#utility.yul\":1193:1222   */\n      swap1\n      pop\n        /* \"#utility.yul\":1231:1264   */\n      tag_70\n        /* \"#utility.yul\":1258:1263   */\n      dup2\n        /* \"#utility.yul\":1231:1264   */\n      tag_44\n      jump\t// in\n    tag_70:\n        /* \"#utility.yul\":1131:1270   */\n      swap3\n      swap2\n      pop\n      pop\n      jump\t// out\n        /* \"#utility.yul\":1276:1398   */\n    tag_46:\n        /* \"#utility.yul\":1349:1373   */\n      tag_72\n        /* \"#utility.yul\":1367:1372   */\n      dup2\n        /* \"#utility.yul\":1349:1373   */\n      tag_37\n      jump\t// in\n    tag_72:\n        /* \"#utility.yul\":1342:1347   */\n      dup2\n        /* \"#utility.yul\":1339:1374   */\n      eq\n        /* \"#utility.yul\":1329:1392   */\n      tag_73\n      jumpi\n        /* \"#utility.yul\":1388:1389   */\n      0x00\n        /* \"#utility.yul\":1385:1386   */\n      dup1\n        /* \"#utility.yul\":1378:1390   */\n      revert\n        /* \"#utility.yul\":1329:1392   */\n    tag_73:\n        /* \"#utility.yul\":1276:1398   */\n      pop\n      jump\t// out\n        /* \"#utility.yul\":1404:1543   */\n    tag_47:\n        /* \"#utility.yul\":1450:1455   */\n      0x00\n        /* \"#utility.yul\":1488:1494   */\n      dup2\n        /* \"#utility.yul\":1475:1495   */\n      calldataload\n        /* \"#utility.yul\":1466:1495   */\n      swap1\n      pop\n        /* \"#utility.yul\":1504:1537   */\n      tag_75\n        /* \"#utility.yul\":1531:1536   */\n      dup2\n        /* \"#utility.yul\":1504:1537   */\n      tag_46\n      jump\t// in\n    tag_75:\n        /* \"#utility.yul\":1404:1543   */\n      swap3\n      swap2\n      pop\n      pop\n      jump\t// out\n        /* \"#utility.yul\":1549:2023   */\n    tag_12:\n        /* \"#utility.yul\":1617:1623   */\n      0x00\n        /* \"#utility.yul\":1625:1631   */\n      dup1\n        /* \"#utility.yul\":1674:1676   */\n      0x40\n        /* \"#utility.yul\":1662:1671   */\n      dup4\n        /* \"#utility.yul\":1653:1660   */\n      dup6\n        /* \"#utility.yul\":1649:1672   */\n      sub\n        /* \"#utility.yul\":1645:1677   */\n      slt\n        /* \"#utility.yul\":1642:1761   */\n      iszero\n      tag_77\n      jumpi\n        /* \"#utility.yul\":1680:1759   */\n      tag_78\n      tag_40\n      jump\t// in\n    tag_78:\n        /* \"#utility.yul\":1642:1761   */\n    tag_77:\n        /* \"#utility.yul\":1800:1801   */\n      0x00\n        /* \"#utility.yul\":1825:1878   */\n      tag_79\n        /* \"#utility.yul\":1870:1877   */\n      dup6\n        /* \"#utility.yul\":1861:1867   */\n      dup3\n        /* \"#utility.yul\":1850:1859   */\n      dup7\n        /* \"#utility.yul\":1846:1868   */\n      add\n        /* \"#utility.yul\":1825:1878   */\n      tag_45\n      jump\t// in\n    tag_79:\n        /* \"#utility.yul\":1815:1878   */\n      swap3\n      pop\n        /* \"#utility.yul\":1771:1888   */\n      pop\n        /* \"#utility.yul\":1927:1929   */\n      0x20\n        /* \"#utility.yul\":1953:2006   */\n      tag_80\n        /* \"#utility.yul\":1998:2005   */\n      dup6\n        /* \"#utility.yul\":1989:1995   */\n      dup3\n        /* \"#utility.yul\":1978:1987   */\n      dup7\n        /* \"#utility.yul\":1974:1996   */\n      add\n        /* \"#utility.yul\":1953:2006   */\n      tag_47\n      jump\t// in\n    tag_80:\n        /* \"#utility.yul\":1943:2006   */\n      swap2\n      pop\n        /* \"#utility.yul\":1898:2016   */\n      pop\n        /* \"#utility.yul\":1549:2023   */\n      swap3\n      pop\n      swap3\n      swap1\n      pop\n      jump\t// out\n        /* \"#utility.yul\":2029:2358   */\n    tag_16:\n        /* \"#utility.yul\":2088:2094   */\n      0x00\n        /* \"#utility.yul\":2137:2139   */\n      0x20\n        /* \"#utility.yul\":2125:2134   */\n      dup3\n        /* \"#utility.yul\":2116:2123   */\n      dup5\n        /* \"#utility.yul\":2112:2135   */\n      sub\n        /* \"#utility.yul\":2108:2140   */\n      slt\n        /* \"#utility.yul\":2105:2224   */\n      iszero\n      tag_82\n      jumpi\n        /* \"#utility.yul\":2143:2222   */\n      tag_83\n      tag_40\n      jump\t// in\n    tag_83:\n        /* \"#utility.yul\":2105:2224   */\n    tag_82:\n        /* \"#utility.yul\":2263:2264   */\n      0x00\n        /* \"#utility.yul\":2288:2341   */\n      tag_84\n        /* \"#utility.yul\":2333:2340   */\n      dup5\n        /* \"#utility.yul\":2324:2330   */\n      dup3\n        /* \"#utility.yul\":2313:2322   */\n      dup6\n        /* \"#utility.yul\":2309:2331   */\n      add\n        /* \"#utility.yul\":2288:2341   */\n      tag_47\n      jump\t// in\n    tag_84:\n        /* \"#utility.yul\":2278:2341   */\n      swap2\n      pop\n        /* \"#utility.yul\":2234:2351   */\n      pop\n        /* \"#utility.yul\":2029:2358   */\n      swap3\n      swap2\n      pop\n      pop\n      jump\t// out\n        /* \"#utility.yul\":2364:2533   */\n    tag_48:\n        /* \"#utility.yul\":2448:2459   */\n      0x00\n        /* \"#utility.yul\":2482:2488   */\n      dup3\n        /* \"#utility.yul\":2477:2480   */\n      dup3\n        /* \"#utility.yul\":2470:2489   */\n      mstore\n        /* \"#utility.yul\":2522:2526   */\n      0x20\n        /* \"#utility.yul\":2517:2520   */\n      dup3\n        /* \"#utility.yul\":2513:2527   */\n      add\n        /* \"#utility.yul\":2498:2527   */\n      swap1\n      pop\n        /* \"#utility.yul\":2364:2533   */\n      swap3\n      swap2\n      pop\n      pop\n      jump\t// out\n        /* \"#utility.yul\":2539:2766   */\n    tag_49:\n        /* \"#utility.yul\":2679:2713   */\n      0x4552524f5220315f496e73756666696369656e742042616c616e636520746f20\n        /* \"#utility.yul\":2675:2676   */\n      0x00\n        /* \"#utility.yul\":2667:2673   */\n      dup3\n        /* \"#utility.yul\":2663:2677   */\n      add\n        /* \"#utility.yul\":2656:2714   */\n      mstore\n        /* \"#utility.yul\":2748:2758   */\n      0x5472616e73666572000000000000000000000000000000000000000000000000\n        /* \"#utility.yul\":2743:2745   */\n      0x20\n        /* \"#utility.yul\":2735:2741   */\n      dup3\n        /* \"#utility.yul\":2731:2746   */\n      add\n        /* \"#utility.yul\":2724:2759   */\n      mstore\n        /* \"#utility.yul\":2539:2766   */\n      pop\n      jump\t// out\n        /* \"#utility.yul\":2772:3138   */\n    tag_50:\n        /* \"#utility.yul\":2914:2917   */\n      0x00\n        /* \"#utility.yul\":2935:3002   */\n      tag_88\n        /* \"#utility.yul\":2999:3001   */\n      0x28\n        /* \"#utility.yul\":2994:2997   */\n      dup4\n        /* \"#utility.yul\":2935:3002   */\n      tag_48\n      jump\t// in\n    tag_88:\n        /* \"#utility.yul\":2928:3002   */\n      swap2\n      pop\n        /* \"#utility.yul\":3011:3104   */\n      tag_89\n        /* \"#utility.yul\":3100:3103   */\n      dup3\n        /* \"#utility.yul\":3011:3104   */\n      tag_49\n      jump\t// in\n    tag_89:\n        /* \"#utility.yul\":3129:3131   */\n      0x40\n        /* \"#utility.yul\":3124:3127   */\n      dup3\n        /* \"#utility.yul\":3120:3132   */\n      add\n        /* \"#utility.yul\":3113:3132   */\n      swap1\n      pop\n        /* \"#utility.yul\":2772:3138   */\n      swap2\n      swap1\n      pop\n      jump\t// out\n        /* \"#utility.yul\":3144:3563   */\n    tag_23:\n        /* \"#utility.yul\":3310:3314   */\n      0x00\n        /* \"#utility.yul\":3348:3350   */\n      0x20\n        /* \"#utility.yul\":3337:3346   */\n      dup3\n        /* \"#utility.yul\":3333:3351   */\n      add\n        /* \"#utility.yul\":3325:3351   */\n      swap1\n      pop\n        /* \"#utility.yul\":3397:3406   */\n      dup2\n        /* \"#utility.yul\":3391:3395   */\n      dup2\n        /* \"#utility.yul\":3387:3407   */\n      sub\n        /* \"#utility.yul\":3383:3384   */\n      0x00\n        /* \"#utility.yul\":3372:3381   */\n      dup4\n        /* \"#utility.yul\":3368:3385   */\n      add\n        /* \"#utility.yul\":3361:3408   */\n      mstore\n        /* \"#utility.yul\":3425:3556   */\n      tag_91\n        /* \"#utility.yul\":3551:3555   */\n      dup2\n        /* \"#utility.yul\":3425:3556   */\n      tag_50\n      jump\t// in\n    tag_91:\n        /* \"#utility.yul\":3417:3556   */\n      swap1\n      pop\n        /* \"#utility.yul\":3144:3563   */\n      swap2\n      swap1\n      pop\n      jump\t// out\n        /* \"#utility.yul\":3569:3748   */\n    tag_51:\n        /* \"#utility.yul\":3709:3740   */\n      0x4552524f5220325f5468652053656e6465722043616e6e6f7420626520000000\n        /* \"#utility.yul\":3705:3706   */\n      0x00\n        /* \"#utility.yul\":3697:3703   */\n      dup3\n        /* \"#utility.yul\":3693:3707   */\n      add\n        /* \"#utility.yul\":3686:3741   */\n      mstore\n        /* \"#utility.yul\":3569:3748   */\n      pop\n      jump\t// out\n        /* \"#utility.yul\":3754:4120   */\n    tag_52:\n        /* \"#utility.yul\":3896:3899   */\n      0x00\n        /* \"#utility.yul\":3917:3984   */\n      tag_94\n        /* \"#utility.yul\":3981:3983   */\n      0x1d\n        /* \"#utility.yul\":3976:3979   */\n      dup4\n        /* \"#utility.yul\":3917:3984   */\n      tag_48\n      jump\t// in\n    tag_94:\n        /* \"#utility.yul\":3910:3984   */\n      swap2\n      pop\n        /* \"#utility.yul\":3993:4086   */\n      tag_95\n        /* \"#utility.yul\":4082:4085   */\n      dup3\n        /* \"#utility.yul\":3993:4086   */\n      tag_51\n      jump\t// in\n    tag_95:\n        /* \"#utility.yul\":4111:4113   */\n      0x20\n        /* \"#utility.yul\":4106:4109   */\n      dup3\n        /* \"#utility.yul\":4102:4114   */\n      add\n        /* \"#utility.yul\":4095:4114   */\n      swap1\n      pop\n        /* \"#utility.yul\":3754:4120   */\n      swap2\n      swap1\n      pop\n      jump\t// out\n        /* \"#utility.yul\":4126:4545   */\n    tag_26:\n        /* \"#utility.yul\":4292:4296   */\n      0x00\n        /* \"#utility.yul\":4330:4332   */\n      0x20\n        /* \"#utility.yul\":4319:4328   */\n      dup3\n        /* \"#utility.yul\":4315:4333   */\n      add\n        /* \"#utility.yul\":4307:4333   */\n      swap1\n      pop\n        /* \"#utility.yul\":4379:4388   */\n      dup2\n        /* \"#utility.yul\":4373:4377   */\n      dup2\n        /* \"#utility.yul\":4369:4389   */\n      sub\n        /* \"#utility.yul\":4365:4366   */\n      0x00\n        /* \"#utility.yul\":4354:4363   */\n      dup4\n        /* \"#utility.yul\":4350:4367   */\n      add\n        /* \"#utility.yul\":4343:4390   */\n      mstore\n        /* \"#utility.yul\":4407:4538   */\n      tag_97\n        /* \"#utility.yul\":4533:4537   */\n      dup2\n        /* \"#utility.yul\":4407:4538   */\n      tag_52\n      jump\t// in\n    tag_97:\n        /* \"#utility.yul\":4399:4538   */\n      swap1\n      pop\n        /* \"#utility.yul\":4126:4545   */\n      swap2\n      swap1\n      pop\n      jump\t// out\n        /* \"#utility.yul\":4551:4731   */\n    tag_53:\n        /* \"#utility.yul\":4599:4676   */\n      0x4e487b7100000000000000000000000000000000000000000000000000000000\n        /* \"#utility.yul\":4596:4597   */\n      0x00\n        /* \"#utility.yul\":4589:4677   */\n      mstore\n        /* \"#utility.yul\":4696:4700   */\n      0x11\n        /* \"#utility.yul\":4693:4694   */\n      0x04\n        /* \"#utility.yul\":4686:4701   */\n      mstore\n        /* \"#utility.yul\":4720:4724   */\n      0x24\n        /* \"#utility.yul\":4717:4718   */\n      0x00\n        /* \"#utility.yul\":4710:4725   */\n      revert\n        /* \"#utility.yul\":4737:5042   */\n    tag_32:\n        /* \"#utility.yul\":4777:4780   */\n      0x00\n        /* \"#utility.yul\":4796:4816   */\n      tag_100\n        /* \"#utility.yul\":4814:4815   */\n      dup3\n        /* \"#utility.yul\":4796:4816   */\n      tag_37\n      jump\t// in\n    tag_100:\n        /* \"#utility.yul\":4791:4816   */\n      swap2\n      pop\n        /* \"#utility.yul\":4830:4850   */\n      tag_101\n        /* \"#utility.yul\":4848:4849   */\n      dup4\n        /* \"#utility.yul\":4830:4850   */\n      tag_37\n      jump\t// in\n    tag_101:\n        /* \"#utility.yul\":4825:4850   */\n      swap3\n      pop\n        /* \"#utility.yul\":4984:4985   */\n      dup3\n        /* \"#utility.yul\":4916:4982   */\n      0xffffffffffffffffffffffffffffffffffffffffffffffffffffffffffffffff\n        /* \"#utility.yul\":4912:4986   */\n      sub\n        /* \"#utility.yul\":4909:4910   */\n      dup3\n        /* \"#utility.yul\":4906:4987   */\n      gt\n        /* \"#utility.yul\":4903:5010   */\n      iszero\n      tag_102\n      jumpi\n        /* \"#utility.yul\":4990:5008   */\n      tag_103\n      tag_53\n      jump\t// in\n    tag_103:\n        /* \"#utility.yul\":4903:5010   */\n    tag_102:\n        /* \"#utility.yul\":5034:5035   */\n      dup3\n        /* \"#utility.yul\":5031:5032   */\n      dup3\n        /* \"#utility.yul\":5027:5036   */\n      add\n        /* \"#utility.yul\":5020:5036   */\n      swap1\n      pop\n        /* \"#utility.yul\":4737:5042   */\n      swap3\n      swap2\n      pop\n      pop\n      jump\t// out\n        /* \"#utility.yul\":5048:5239   */\n    tag_35:\n        /* \"#utility.yul\":5088:5092   */\n      0x00\n        /* \"#utility.yul\":5108:5128   */\n      tag_105\n        /* \"#utility.yul\":5126:5127   */\n      dup3\n        /* \"#utility.yul\":5108:5128   */\n      tag_37\n      jump\t// in\n    tag_105:\n        /* \"#utility.yul\":5103:5128   */\n      swap2\n      pop\n        /* \"#utility.yul\":5142:5162   */\n      tag_106\n        /* \"#utility.yul\":5160:5161   */\n      dup4\n        /* \"#utility.yul\":5142:5162   */\n      tag_37\n      jump\t// in\n    tag_106:\n        /* \"#utility.yul\":5137:5162   */\n      swap3\n      pop\n        /* \"#utility.yul\":5181:5182   */\n      dup3\n        /* \"#utility.yul\":5178:5179   */\n      dup3\n        /* \"#utility.yul\":5175:5183   */\n      lt\n        /* \"#utility.yul\":5172:5206   */\n      iszero\n      tag_107\n      jumpi\n        /* \"#utility.yul\":5186:5204   */\n      tag_108\n      tag_53\n      jump\t// in\n    tag_108:\n        /* \"#utility.yul\":5172:5206   */\n    tag_107:\n        /* \"#utility.yul\":5231:5232   */\n      dup3\n        /* \"#utility.yul\":5228:5229   */\n      dup3\n        /* \"#utility.yul\":5224:5233   */\n      sub\n        /* \"#utility.yul\":5216:5233   */\n      swap1\n      pop\n        /* \"#utility.yul\":5048:5239   */\n      swap3\n      swap2\n      pop\n      pop\n      jump\t// out\n\n    auxdata: 0xa26469706673582212205bbf6bea28564152d0d7a4f23798d93833c64b08ad0bd9e086f08702515f22e864736f6c634300080d0033\n}\n",
				"bytecode": {
					"linkReferences": {},
					"object": "608060405234801561001057600080fd5b5033600160006101000a81548173ffffffffffffffffffffffffffffffffffffffff021916908373ffffffffffffffffffffffffffffffffffffffff1602179055506106c8806100616000396000f3fe608060405234801561001057600080fd5b50600436106100415760003560e01c806312065fe014610046578063a9059cbb14610064578063d91921ed14610080575b600080fd5b61004e6100b0565b60405161005b91906103b3565b60405180910390f35b61007e6004803603810190610079919061045d565b6100f6565b005b61009a6004803603810190610095919061049d565b6101f4565b6040516100a791906103b3565b60405180910390f35b60008060003373ffffffffffffffffffffffffffffffffffffffff1673ffffffffffffffffffffffffffffffffffffffff16815260200190815260200160002054905090565b806000803373ffffffffffffffffffffffffffffffffffffffff1673ffffffffffffffffffffffffffffffffffffffff168152602001908152602001600020541015610177576040517f08c379a000000000000000000000000000000000000000000000000000000000815260040161016e9061054d565b60405180910390fd5b8173ffffffffffffffffffffffffffffffffffffffff163373ffffffffffffffffffffffffffffffffffffffff16036101e5576040517f08c379a00000000000000000000000000000000000000000000000000000000081526004016101dc906105b9565b60405180910390fd5b6101f03383836102eb565b5050565b6000600160009054906101000a900473ffffffffffffffffffffffffffffffffffffffff1673ffffffffffffffffffffffffffffffffffffffff163373ffffffffffffffffffffffffffffffffffffffff161461025057600080fd5b816000803373ffffffffffffffffffffffffffffffffffffffff1673ffffffffffffffffffffffffffffffffffffffff168152602001908152602001600020600082825461029e9190610608565b925050819055506000803373ffffffffffffffffffffffffffffffffffffffff1673ffffffffffffffffffffffffffffffffffffffff168152602001908152602001600020549050919050565b806000808573ffffffffffffffffffffffffffffffffffffffff1673ffffffffffffffffffffffffffffffffffffffff1681526020019081526020016000206000828254610339919061065e565b92505081905550806000808473ffffffffffffffffffffffffffffffffffffffff1673ffffffffffffffffffffffffffffffffffffffff168152602001908152602001600020600082825461038e9190610608565b92505081905550505050565b6000819050919050565b6103ad8161039a565b82525050565b60006020820190506103c860008301846103a4565b92915050565b600080fd5b600073ffffffffffffffffffffffffffffffffffffffff82169050919050565b60006103fe826103d3565b9050919050565b61040e816103f3565b811461041957600080fd5b50565b60008135905061042b81610405565b92915050565b61043a8161039a565b811461044557600080fd5b50565b60008135905061045781610431565b92915050565b60008060408385031215610474576104736103ce565b5b60006104828582860161041c565b925050602061049385828601610448565b9150509250929050565b6000602082840312156104b3576104b26103ce565b5b60006104c184828501610448565b91505092915050565b600082825260208201905092915050565b7f4552524f5220315f496e73756666696369656e742042616c616e636520746f2060008201527f5472616e73666572000000000000000000000000000000000000000000000000602082015250565b60006105376028836104ca565b9150610542826104db565b604082019050919050565b600060208201905081810360008301526105668161052a565b9050919050565b7f4552524f5220325f5468652053656e6465722043616e6e6f7420626520000000600082015250565b60006105a3601d836104ca565b91506105ae8261056d565b602082019050919050565b600060208201905081810360008301526105d281610596565b9050919050565b7f4e487b7100000000000000000000000000000000000000000000000000000000600052601160045260246000fd5b60006106138261039a565b915061061e8361039a565b9250827fffffffffffffffffffffffffffffffffffffffffffffffffffffffffffffffff03821115610653576106526105d9565b5b828201905092915050565b60006106698261039a565b91506106748361039a565b925082821015610687576106866105d9565b5b82820390509291505056fea26469706673582212205bbf6bea28564152d0d7a4f23798d93833c64b08ad0bd9e086f08702515f22e864736f6c634300080d0033",
					"opcodes": "PUSH1 0x80 PUSH1 0x40 MSTORE CALLVALUE DUP1 ISZERO PUSH2 0x10 JUMPI PUSH1 0x0 DUP1 REVERT JUMPDEST POP CALLER PUSH1 0x1 PUSH1 0x0 PUSH2 0x100 EXP DUP2 SLOAD DUP2 PUSH20 0xFFFFFFFFFFFFFFFFFFFFFFFFFFFFFFFFFFFFFFFF MUL NOT AND SWAP1 DUP4 PUSH20 0xFFFFFFFFFFFFFFFFFFFFFFFFFFFFFFFFFFFFFFFF AND MUL OR SWAP1 SSTORE POP PUSH2 0x6C8 DUP1 PUSH2 0x61 PUSH1 0x0 CODECOPY PUSH1 0x0 RETURN INVALID PUSH1 0x80 PUSH1 0x40 MSTORE CALLVALUE DUP1 ISZERO PUSH2 0x10 JUMPI PUSH1 0x0 DUP1 REVERT JUMPDEST POP PUSH1 0x4 CALLDATASIZE LT PUSH2 0x41 JUMPI PUSH1 0x0 CALLDATALOAD PUSH1 0xE0 SHR DUP1 PUSH4 0x12065FE0 EQ PUSH2 0x46 JUMPI DUP1 PUSH4 0xA9059CBB EQ PUSH2 0x64 JUMPI DUP1 PUSH4 0xD91921ED EQ PUSH2 0x80 JUMPI JUMPDEST PUSH1 0x0 DUP1 REVERT JUMPDEST PUSH2 0x4E PUSH2 0xB0 JUMP JUMPDEST PUSH1 0x40 MLOAD PUSH2 0x5B SWAP2 SWAP1 PUSH2 0x3B3 JUMP JUMPDEST PUSH1 0x40 MLOAD DUP1 SWAP2 SUB SWAP1 RETURN JUMPDEST PUSH2 0x7E PUSH1 0x4 DUP1 CALLDATASIZE SUB DUP2 ADD SWAP1 PUSH2 0x79 SWAP2 SWAP1 PUSH2 0x45D JUMP JUMPDEST PUSH2 0xF6 JUMP JUMPDEST STOP JUMPDEST PUSH2 0x9A PUSH1 0x4 DUP1 CALLDATASIZE SUB DUP2 ADD SWAP1 PUSH2 0x95 SWAP2 SWAP1 PUSH2 0x49D JUMP JUMPDEST PUSH2 0x1F4 JUMP JUMPDEST PUSH1 0x40 MLOAD PUSH2 0xA7 SWAP2 SWAP1 PUSH2 0x3B3 JUMP JUMPDEST PUSH1 0x40 MLOAD DUP1 SWAP2 SUB SWAP1 RETURN JUMPDEST PUSH1 0x0 DUP1 PUSH1 0x0 CALLER PUSH20 0xFFFFFFFFFFFFFFFFFFFFFFFFFFFFFFFFFFFFFFFF AND PUSH20 0xFFFFFFFFFFFFFFFFFFFFFFFFFFFFFFFFFFFFFFFF AND DUP2 MSTORE PUSH1 0x20 ADD SWAP1 DUP2 MSTORE PUSH1 0x20 ADD PUSH1 0x0 KECCAK256 SLOAD SWAP1 POP SWAP1 JUMP JUMPDEST DUP1 PUSH1 0x0 DUP1 CALLER PUSH20 0xFFFFFFFFFFFFFFFFFFFFFFFFFFFFFFFFFFFFFFFF AND PUSH20 0xFFFFFFFFFFFFFFFFFFFFFFFFFFFFFFFFFFFFFFFF AND DUP2 MSTORE PUSH1 0x20 ADD SWAP1 DUP2 MSTORE PUSH1 0x20 ADD PUSH1 0x0 KECCAK256 SLOAD LT ISZERO PUSH2 0x177 JUMPI PUSH1 0x40 MLOAD PUSH32 0x8C379A000000000000000000000000000000000000000000000000000000000 DUP2 MSTORE PUSH1 0x4 ADD PUSH2 0x16E SWAP1 PUSH2 0x54D JUMP JUMPDEST PUSH1 0x40 MLOAD DUP1 SWAP2 SUB SWAP1 REVERT JUMPDEST DUP2 PUSH20 0xFFFFFFFFFFFFFFFFFFFFFFFFFFFFFFFFFFFFFFFF AND CALLER PUSH20 0xFFFFFFFFFFFFFFFFFFFFFFFFFFFFFFFFFFFFFFFF AND SUB PUSH2 0x1E5 JUMPI PUSH1 0x40 MLOAD PUSH32 0x8C379A000000000000000000000000000000000000000000000000000000000 DUP2 MSTORE PUSH1 0x4 ADD PUSH2 0x1DC SWAP1 PUSH2 0x5B9 JUMP JUMPDEST PUSH1 0x40 MLOAD DUP1 SWAP2 SUB SWAP1 REVERT JUMPDEST PUSH2 0x1F0 CALLER DUP4 DUP4 PUSH2 0x2EB JUMP JUMPDEST POP POP JUMP JUMPDEST PUSH1 0x0 PUSH1 0x1 PUSH1 0x0 SWAP1 SLOAD SWAP1 PUSH2 0x100 EXP SWAP1 DIV PUSH20 0xFFFFFFFFFFFFFFFFFFFFFFFFFFFFFFFFFFFFFFFF AND PUSH20 0xFFFFFFFFFFFFFFFFFFFFFFFFFFFFFFFFFFFFFFFF AND CALLER PUSH20 0xFFFFFFFFFFFFFFFFFFFFFFFFFFFFFFFFFFFFFFFF AND EQ PUSH2 0x250 JUMPI PUSH1 0x0 DUP1 REVERT JUMPDEST DUP2 PUSH1 0x0 DUP1 CALLER PUSH20 0xFFFFFFFFFFFFFFFFFFFFFFFFFFFFFFFFFFFFFFFF AND PUSH20 0xFFFFFFFFFFFFFFFFFFFFFFFFFFFFFFFFFFFFFFFF AND DUP2 MSTORE PUSH1 0x20 ADD SWAP1 DUP2 MSTORE PUSH1 0x20 ADD PUSH1 0x0 KECCAK256 PUSH1 0x0 DUP3 DUP3 SLOAD PUSH2 0x29E SWAP2 SWAP1 PUSH2 0x608 JUMP JUMPDEST SWAP3 POP POP DUP2 SWAP1 SSTORE POP PUSH1 0x0 DUP1 CALLER PUSH20 0xFFFFFFFFFFFFFFFFFFFFFFFFFFFFFFFFFFFFFFFF AND PUSH20 0xFFFFFFFFFFFFFFFFFFFFFFFFFFFFFFFFFFFFFFFF AND DUP2 MSTORE PUSH1 0x20 ADD SWAP1 DUP2 MSTORE PUSH1 0x20 ADD PUSH1 0x0 KECCAK256 SLOAD SWAP1 POP SWAP2 SWAP1 POP JUMP JUMPDEST DUP1 PUSH1 0x0 DUP1 DUP6 PUSH20 0xFFFFFFFFFFFFFFFFFFFFFFFFFFFFFFFFFFFFFFFF AND PUSH20 0xFFFFFFFFFFFFFFFFFFFFFFFFFFFFFFFFFFFFFFFF AND DUP2 MSTORE PUSH1 0x20 ADD SWAP1 DUP2 MSTORE PUSH1 0x20 ADD PUSH1 0x0 KECCAK256 PUSH1 0x0 DUP3 DUP3 SLOAD PUSH2 0x339 SWAP2 SWAP1 PUSH2 0x65E JUMP JUMPDEST SWAP3 POP POP DUP2 SWAP1 SSTORE POP DUP1 PUSH1 0x0 DUP1 DUP5 PUSH20 0xFFFFFFFFFFFFFFFFFFFFFFFFFFFFFFFFFFFFFFFF AND PUSH20 0xFFFFFFFFFFFFFFFFFFFFFFFFFFFFFFFFFFFFFFFF AND DUP2 MSTORE PUSH1 0x20 ADD SWAP1 DUP2 MSTORE PUSH1 0x20 ADD PUSH1 0x0 KECCAK256 PUSH1 0x0 DUP3 DUP3 SLOAD PUSH2 0x38E SWAP2 SWAP1 PUSH2 0x608 JUMP JUMPDEST SWAP3 POP POP DUP2 SWAP1 SSTORE POP POP POP POP JUMP JUMPDEST PUSH1 0x0 DUP2 SWAP1 POP SWAP2 SWAP1 POP JUMP JUMPDEST PUSH2 0x3AD DUP2 PUSH2 0x39A JUMP JUMPDEST DUP3 MSTORE POP POP JUMP JUMPDEST PUSH1 0x0 PUSH1 0x20 DUP3 ADD SWAP1 POP PUSH2 0x3C8 PUSH1 0x0 DUP4 ADD DUP5 PUSH2 0x3A4 JUMP JUMPDEST SWAP3 SWAP2 POP POP JUMP JUMPDEST PUSH1 0x0 DUP1 REVERT JUMPDEST PUSH1 0x0 PUSH20 0xFFFFFFFFFFFFFFFFFFFFFFFFFFFFFFFFFFFFFFFF DUP3 AND SWAP1 POP SWAP2 SWAP1 POP JUMP JUMPDEST PUSH1 0x0 PUSH2 0x3FE DUP3 PUSH2 0x3D3 JUMP JUMPDEST SWAP1 POP SWAP2 SWAP1 POP JUMP JUMPDEST PUSH2 0x40E DUP2 PUSH2 0x3F3 JUMP JUMPDEST DUP2 EQ PUSH2 0x419 JUMPI PUSH1 0x0 DUP1 REVERT JUMPDEST POP JUMP JUMPDEST PUSH1 0x0 DUP2 CALLDATALOAD SWAP1 POP PUSH2 0x42B DUP2 PUSH2 0x405 JUMP JUMPDEST SWAP3 SWAP2 POP POP JUMP JUMPDEST PUSH2 0x43A DUP2 PUSH2 0x39A JUMP JUMPDEST DUP2 EQ PUSH2 0x445 JUMPI PUSH1 0x0 DUP1 REVERT JUMPDEST POP JUMP JUMPDEST PUSH1 0x0 DUP2 CALLDATALOAD SWAP1 POP PUSH2 0x457 DUP2 PUSH2 0x431 JUMP JUMPDEST SWAP3 SWAP2 POP POP JUMP JUMPDEST PUSH1 0x0 DUP1 PUSH1 0x40 DUP4 DUP6 SUB SLT ISZERO PUSH2 0x474 JUMPI PUSH2 0x473 PUSH2 0x3CE JUMP JUMPDEST JUMPDEST PUSH1 0x0 PUSH2 0x482 DUP6 DUP3 DUP7 ADD PUSH2 0x41C JUMP JUMPDEST SWAP3 POP POP PUSH1 0x20 PUSH2 0x493 DUP6 DUP3 DUP7 ADD PUSH2 0x448 JUMP JUMPDEST SWAP2 POP POP SWAP3 POP SWAP3 SWAP1 POP JUMP JUMPDEST PUSH1 0x0 PUSH1 0x20 DUP3 DUP5 SUB SLT ISZERO PUSH2 0x4B3 JUMPI PUSH2 0x4B2 PUSH2 0x3CE JUMP JUMPDEST JUMPDEST PUSH1 0x0 PUSH2 0x4C1 DUP5 DUP3 DUP6 ADD PUSH2 0x448 JUMP JUMPDEST SWAP2 POP POP SWAP3 SWAP2 POP POP JUMP JUMPDEST PUSH1 0x0 DUP3 DUP3 MSTORE PUSH1 0x20 DUP3 ADD SWAP1 POP SWAP3 SWAP2 POP POP JUMP JUMPDEST PUSH32 0x4552524F5220315F496E73756666696369656E742042616C616E636520746F20 PUSH1 0x0 DUP3 ADD MSTORE PUSH32 0x5472616E73666572000000000000000000000000000000000000000000000000 PUSH1 0x20 DUP3 ADD MSTORE POP JUMP JUMPDEST PUSH1 0x0 PUSH2 0x537 PUSH1 0x28 DUP4 PUSH2 0x4CA JUMP JUMPDEST SWAP2 POP PUSH2 0x542 DUP3 PUSH2 0x4DB JUMP JUMPDEST PUSH1 0x40 DUP3 ADD SWAP1 POP SWAP2 SWAP1 POP JUMP JUMPDEST PUSH1 0x0 PUSH1 0x20 DUP3 ADD SWAP1 POP DUP2 DUP2 SUB PUSH1 0x0 DUP4 ADD MSTORE PUSH2 0x566 DUP2 PUSH2 0x52A JUMP JUMPDEST SWAP1 POP SWAP2 SWAP1 POP JUMP JUMPDEST PUSH32 0x4552524F5220325F5468652053656E6465722043616E6E6F7420626520000000 PUSH1 0x0 DUP3 ADD MSTORE POP JUMP JUMPDEST PUSH1 0x0 PUSH2 0x5A3 PUSH1 0x1D DUP4 PUSH2 0x4CA JUMP JUMPDEST SWAP2 POP PUSH2 0x5AE DUP3 PUSH2 0x56D JUMP JUMPDEST PUSH1 0x20 DUP3 ADD SWAP1 POP SWAP2 SWAP1 POP JUMP JUMPDEST PUSH1 0x0 PUSH1 0x20 DUP3 ADD SWAP1 POP DUP2 DUP2 SUB PUSH1 0x0 DUP4 ADD MSTORE PUSH2 0x5D2 DUP2 PUSH2 0x596 JUMP JUMPDEST SWAP1 POP SWAP2 SWAP1 POP JUMP JUMPDEST PUSH32 0x4E487B7100000000000000000000000000000000000000000000000000000000 PUSH1 0x0 MSTORE PUSH1 0x11 PUSH1 0x4 MSTORE PUSH1 0x24 PUSH1 0x0 REVERT JUMPDEST PUSH1 0x0 PUSH2 0x613 DUP3 PUSH2 0x39A JUMP JUMPDEST SWAP2 POP PUSH2 0x61E DUP4 PUSH2 0x39A JUMP JUMPDEST SWAP3 POP DUP3 PUSH32 0xFFFFFFFFFFFFFFFFFFFFFFFFFFFFFFFFFFFFFFFFFFFFFFFFFFFFFFFFFFFFFFFF SUB DUP3 GT ISZERO PUSH2 0x653 JUMPI PUSH2 0x652 PUSH2 0x5D9 JUMP JUMPDEST JUMPDEST DUP3 DUP3 ADD SWAP1 POP SWAP3 SWAP2 POP POP JUMP JUMPDEST PUSH1 0x0 PUSH2 0x669 DUP3 PUSH2 0x39A JUMP JUMPDEST SWAP2 POP PUSH2 0x674 DUP4 PUSH2 0x39A JUMP JUMPDEST SWAP3 POP DUP3 DUP3 LT ISZERO PUSH2 0x687 JUMPI PUSH2 0x686 PUSH2 0x5D9 JUMP JUMPDEST JUMPDEST DUP3 DUP3 SUB SWAP1 POP SWAP3 SWAP2 POP POP JUMP INVALID LOG2 PUSH5 0x6970667358 0x22 SLT KECCAK256 JUMPDEST 0xBF PUSH12 0xEA28564152D0D7A4F23798D9 CODESIZE CALLER 0xC6 0x4B ADDMOD 0xAD SIGNEXTEND 0xD9 0xE0 DUP7 CREATE DUP8 MUL MLOAD 0x5F 0x22 0xE8 PUSH5 0x736F6C6343 STOP ADDMOD 0xD STOP CALLER "
				},
				"gasEstimates": {
					"creation": {
						"codeDepositCost": "347200",
						"executionCost": "24652",
						"totalCost": "371852"
					},
					"external": {
						"addBalance(uint256)": "infinite",
						"getBalance()": "2504",
						"transfer(address,uint256)": "infinite"
					},
					"internal": {
						"_transfer(address,address,uint256)": "infinite"
					}
				},
				"methodIdentifiers": {
					"addBalance(uint256)": "d91921ed",
					"getBalance()": "12065fe0",
					"transfer(address,uint256)": "a9059cbb"
				}
			},
			"storageLayout": {
				"storage": [
					{
						"astId": 5,
						"contract": "contracts/Require_Transfer.sol:Bank_Require",
						"label": "balance",
						"offset": 0,
						"slot": "0",
						"type": "t_mapping(t_address,t_uint256)"
					},
					{
						"astId": 7,
						"contract": "contracts/Require_Transfer.sol:Bank_Require",
						"label": "owner",
						"offset": 0,
						"slot": "1",
						"type": "t_address"
					}
				],
				"types": {
					"t_address": {
						"encoding": "inplace",
						"label": "address",
						"numberOfBytes": "20"
					},
					"t_mapping(t_address,t_uint256)": {
						"encoding": "mapping",
						"key": "t_address",
						"label": "mapping(address => uint256)",
						"numberOfBytes": "32",
						"value": "t_uint256"
					},
					"t_uint256": {
						"encoding": "inplace",
						"label": "uint256",
						"numberOfBytes": "32"
					}
				}
			},
			"userdoc": {
				"kind": "user",
				"methods": {},
				"version": 1
			}
		}
	}
}