{
	"artifacts/Structs.sol": {
		"Struct": {
			"abi": [
				{
					"inputs": [
						{
							"internalType": "uint256",
							"name": "_age",
							"type": "uint256"
						},
						{
							"internalType": "string",
							"name": "_name",
							"type": "string"
						},
						{
							"internalType": "uint256",
							"name": "_weight",
							"type": "uint256"
						}
					],
					"name": "addPerson",
					"outputs": [],
					"stateMutability": "nonpayable",
					"type": "function"
				},
				{
					"inputs": [
						{
							"internalType": "uint256",
							"name": "_index",
							"type": "uint256"
						}
					],
					"name": "getPerson",
					"outputs": [
						{
							"internalType": "uint256",
							"name": "",
							"type": "uint256"
						},
						{
							"internalType": "string",
							"name": "",
							"type": "string"
						}
					],
					"stateMutability": "view",
					"type": "function"
				}
			],
			"devdoc": {
				"kind": "dev",
				"methods": {},
				"version": 1
			},
			"evm": {
				"assembly": "    /* \"artifacts/Structs.sol\":81:616  contract Struct{... */\n  mstore(0x40, 0x80)\n  callvalue\n  dup1\n  iszero\n  tag_1\n  jumpi\n  0x00\n  dup1\n  revert\ntag_1:\n  pop\n  dataSize(sub_0)\n  dup1\n  dataOffset(sub_0)\n  0x00\n  codecopy\n  0x00\n  return\nstop\n\nsub_0: assembly {\n        /* \"artifacts/Structs.sol\":81:616  contract Struct{... */\n      mstore(0x40, 0x80)\n      callvalue\n      dup1\n      iszero\n      tag_1\n      jumpi\n      0x00\n      dup1\n      revert\n    tag_1:\n      pop\n      jumpi(tag_2, lt(calldatasize, 0x04))\n      shr(0xe0, calldataload(0x00))\n      dup1\n      0x246982c4\n      eq\n      tag_3\n      jumpi\n      dup1\n      0x3df9b366\n      eq\n      tag_4\n      jumpi\n    tag_2:\n      0x00\n      dup1\n      revert\n        /* \"artifacts/Structs.sol\":413:613  function getPerson(uint _index) public view returns (uint, string memory){... */\n    tag_3:\n      tag_5\n      0x04\n      dup1\n      calldatasize\n      sub\n      dup2\n      add\n      swap1\n      tag_6\n      swap2\n      swap1\n      tag_7\n      jump\t// in\n    tag_6:\n      tag_8\n      jump\t// in\n    tag_5:\n      mload(0x40)\n      tag_9\n      swap3\n      swap2\n      swap1\n      tag_10\n      jump\t// in\n    tag_9:\n      mload(0x40)\n      dup1\n      swap2\n      sub\n      swap1\n      return\n        /* \"artifacts/Structs.sol\":225:407  function addPerson(uint _age, string memory _name, uint _weight) public {... */\n    tag_4:\n      tag_11\n      0x04\n      dup1\n      calldatasize\n      sub\n      dup2\n      add\n      swap1\n      tag_12\n      swap2\n      swap1\n      tag_13\n      jump\t// in\n    tag_12:\n      tag_14\n      jump\t// in\n    tag_11:\n      stop\n        /* \"artifacts/Structs.sol\":413:613  function getPerson(uint _index) public view returns (uint, string memory){... */\n    tag_8:\n        /* \"artifacts/Structs.sol\":466:470  uint */\n      0x00\n        /* \"artifacts/Structs.sol\":472:485  string memory */\n      0x60\n        /* \"artifacts/Structs.sol\":497:525  Person memory personToReturn */\n      0x00\n        /* \"artifacts/Structs.sol\":528:534  people */\n      dup1\n        /* \"artifacts/Structs.sol\":535:541  _index */\n      dup5\n        /* \"artifacts/Structs.sol\":528:542  people[_index] */\n      dup2\n      sload\n      dup2\n      lt\n      tag_16\n      jumpi\n      tag_17\n      tag_18\n      jump\t// in\n    tag_17:\n    tag_16:\n      swap1\n      0x00\n      mstore\n      keccak256(0x00, 0x20)\n      swap1\n      0x03\n      mul\n      add\n        /* \"artifacts/Structs.sol\":497:542  Person memory personToReturn = people[_index] */\n      mload(0x40)\n      dup1\n      0x60\n      add\n      0x40\n      mstore\n      swap1\n      dup2\n      0x00\n      dup3\n      add\n      sload\n      dup2\n      mstore\n      0x20\n      add\n      0x01\n      dup3\n      add\n      dup1\n      sload\n      tag_20\n      swap1\n      tag_21\n      jump\t// in\n    tag_20:\n      dup1\n      0x1f\n      add\n      0x20\n      dup1\n      swap2\n      div\n      mul\n      0x20\n      add\n      mload(0x40)\n      swap1\n      dup2\n      add\n      0x40\n      mstore\n      dup1\n      swap3\n      swap2\n      swap1\n      dup2\n      dup2\n      mstore\n      0x20\n      add\n      dup3\n      dup1\n      sload\n      tag_22\n      swap1\n      tag_21\n      jump\t// in\n    tag_22:\n      dup1\n      iszero\n      tag_23\n      jumpi\n      dup1\n      0x1f\n      lt\n      tag_24\n      jumpi\n      0x0100\n      dup1\n      dup4\n      sload\n      div\n      mul\n      dup4\n      mstore\n      swap2\n      0x20\n      add\n      swap2\n      jump(tag_23)\n    tag_24:\n      dup3\n      add\n      swap2\n      swap1\n      0x00\n      mstore\n      keccak256(0x00, 0x20)\n      swap1\n    tag_25:\n      dup2\n      sload\n      dup2\n      mstore\n      swap1\n      0x01\n      add\n      swap1\n      0x20\n      add\n      dup1\n      dup4\n      gt\n      tag_25\n      jumpi\n      dup3\n      swap1\n      sub\n      0x1f\n      and\n      dup3\n      add\n      swap2\n    tag_23:\n      pop\n      pop\n      pop\n      pop\n      pop\n      dup2\n      mstore\n      0x20\n      add\n      0x02\n      dup3\n      add\n      sload\n      dup2\n      mstore\n      pop\n      pop\n      swap1\n      pop\n        /* \"artifacts/Structs.sol\":561:575  personToReturn */\n      dup1\n        /* \"artifacts/Structs.sol\":561:579  personToReturn.age */\n      0x00\n      add\n      mload\n        /* \"artifacts/Structs.sol\":581:595  personToReturn */\n      dup2\n        /* \"artifacts/Structs.sol\":581:600  personToReturn.name */\n      0x20\n      add\n      mload\n        /* \"artifacts/Structs.sol\":553:601  return (personToReturn.age, personToReturn.name) */\n      swap3\n      pop\n      swap3\n      pop\n      pop\n        /* \"artifacts/Structs.sol\":413:613  function getPerson(uint _index) public view returns (uint, string memory){... */\n      swap2\n      pop\n      swap2\n      jump\t// out\n        /* \"artifacts/Structs.sol\":225:407  function addPerson(uint _age, string memory _name, uint _weight) public {... */\n    tag_14:\n        /* \"artifacts/Structs.sol\":308:331  Person memory newPerson */\n      0x00\n        /* \"artifacts/Structs.sol\":334:362  Person(_age, _name, _weight) */\n      mload(0x40)\n      dup1\n      0x60\n      add\n      0x40\n      mstore\n      dup1\n        /* \"artifacts/Structs.sol\":341:345  _age */\n      dup6\n        /* \"artifacts/Structs.sol\":334:362  Person(_age, _name, _weight) */\n      dup2\n      mstore\n      0x20\n      add\n        /* \"artifacts/Structs.sol\":347:352  _name */\n      dup5\n        /* \"artifacts/Structs.sol\":334:362  Person(_age, _name, _weight) */\n      dup2\n      mstore\n      0x20\n      add\n        /* \"artifacts/Structs.sol\":354:361  _weight */\n      dup4\n        /* \"artifacts/Structs.sol\":334:362  Person(_age, _name, _weight) */\n      dup2\n      mstore\n      pop\n        /* \"artifacts/Structs.sol\":308:362  Person memory newPerson = Person(_age, _name, _weight) */\n      swap1\n      pop\n        /* \"artifacts/Structs.sol\":373:379  people */\n      0x00\n        /* \"artifacts/Structs.sol\":385:394  newPerson */\n      dup2\n        /* \"artifacts/Structs.sol\":373:395  people.push(newPerson) */\n      swap1\n      dup1\n      0x01\n      dup2\n      sload\n      add\n      dup1\n      dup3\n      sstore\n      dup1\n      swap2\n      pop\n      pop\n      0x01\n      swap1\n      sub\n      swap1\n      0x00\n      mstore\n      keccak256(0x00, 0x20)\n      swap1\n      0x03\n      mul\n      add\n      0x00\n      swap1\n      swap2\n      swap1\n      swap2\n      swap1\n      swap2\n      pop\n      0x00\n      dup3\n      add\n      mload\n      dup2\n      0x00\n      add\n      sstore\n      0x20\n      dup3\n      add\n      mload\n      dup2\n      0x01\n      add\n      swap1\n      dup1\n      mload\n      swap1\n      0x20\n      add\n      swap1\n      tag_28\n      swap3\n      swap2\n      swap1\n      tag_29\n      jump\t// in\n    tag_28:\n      pop\n      0x40\n      dup3\n      add\n      mload\n      dup2\n      0x02\n      add\n      sstore\n      pop\n      pop\n        /* \"artifacts/Structs.sol\":297:407  {... */\n      pop\n        /* \"artifacts/Structs.sol\":225:407  function addPerson(uint _age, string memory _name, uint _weight) public {... */\n      pop\n      pop\n      pop\n      jump\t// out\n    tag_29:\n      dup3\n      dup1\n      sload\n      tag_30\n      swap1\n      tag_21\n      jump\t// in\n    tag_30:\n      swap1\n      0x00\n      mstore\n      keccak256(0x00, 0x20)\n      swap1\n      0x1f\n      add\n      0x20\n      swap1\n      div\n      dup2\n      add\n      swap3\n      dup3\n      tag_32\n      jumpi\n      0x00\n      dup6\n      sstore\n      jump(tag_31)\n    tag_32:\n      dup3\n      0x1f\n      lt\n      tag_33\n      jumpi\n      dup1\n      mload\n      not(0xff)\n      and\n      dup4\n      dup1\n      add\n      or\n      dup6\n      sstore\n      jump(tag_31)\n    tag_33:\n      dup3\n      dup1\n      add\n      0x01\n      add\n      dup6\n      sstore\n      dup3\n      iszero\n      tag_31\n      jumpi\n      swap2\n      dup3\n      add\n    tag_34:\n      dup3\n      dup2\n      gt\n      iszero\n      tag_35\n      jumpi\n      dup3\n      mload\n      dup3\n      sstore\n      swap2\n      0x20\n      add\n      swap2\n      swap1\n      0x01\n      add\n      swap1\n      jump(tag_34)\n    tag_35:\n    tag_31:\n      pop\n      swap1\n      pop\n      tag_36\n      swap2\n      swap1\n      tag_37\n      jump\t// in\n    tag_36:\n      pop\n      swap1\n      jump\t// out\n    tag_37:\n    tag_38:\n      dup1\n      dup3\n      gt\n      iszero\n      tag_39\n      jumpi\n      0x00\n      dup2\n      0x00\n      swap1\n      sstore\n      pop\n      0x01\n      add\n      jump(tag_38)\n    tag_39:\n      pop\n      swap1\n      jump\t// out\n        /* \"#utility.yul\":7:82   */\n    tag_40:\n        /* \"#utility.yul\":40:46   */\n      0x00\n        /* \"#utility.yul\":73:75   */\n      0x40\n        /* \"#utility.yul\":67:76   */\n      mload\n        /* \"#utility.yul\":57:76   */\n      swap1\n      pop\n        /* \"#utility.yul\":7:82   */\n      swap1\n      jump\t// out\n        /* \"#utility.yul\":88:205   */\n    tag_41:\n        /* \"#utility.yul\":197:198   */\n      0x00\n        /* \"#utility.yul\":194:195   */\n      dup1\n        /* \"#utility.yul\":187:199   */\n      revert\n        /* \"#utility.yul\":211:328   */\n    tag_42:\n        /* \"#utility.yul\":320:321   */\n      0x00\n        /* \"#utility.yul\":317:318   */\n      dup1\n        /* \"#utility.yul\":310:322   */\n      revert\n        /* \"#utility.yul\":334:411   */\n    tag_43:\n        /* \"#utility.yul\":371:378   */\n      0x00\n        /* \"#utility.yul\":400:405   */\n      dup2\n        /* \"#utility.yul\":389:405   */\n      swap1\n      pop\n        /* \"#utility.yul\":334:411   */\n      swap2\n      swap1\n      pop\n      jump\t// out\n        /* \"#utility.yul\":417:539   */\n    tag_44:\n        /* \"#utility.yul\":490:514   */\n      tag_68\n        /* \"#utility.yul\":508:513   */\n      dup2\n        /* \"#utility.yul\":490:514   */\n      tag_43\n      jump\t// in\n    tag_68:\n        /* \"#utility.yul\":483:488   */\n      dup2\n        /* \"#utility.yul\":480:515   */\n      eq\n        /* \"#utility.yul\":470:533   */\n      tag_69\n      jumpi\n        /* \"#utility.yul\":529:530   */\n      0x00\n        /* \"#utility.yul\":526:527   */\n      dup1\n        /* \"#utility.yul\":519:531   */\n      revert\n        /* \"#utility.yul\":470:533   */\n    tag_69:\n        /* \"#utility.yul\":417:539   */\n      pop\n      jump\t// out\n        /* \"#utility.yul\":545:684   */\n    tag_45:\n        /* \"#utility.yul\":591:596   */\n      0x00\n        /* \"#utility.yul\":629:635   */\n      dup2\n        /* \"#utility.yul\":616:636   */\n      calldataload\n        /* \"#utility.yul\":607:636   */\n      swap1\n      pop\n        /* \"#utility.yul\":645:678   */\n      tag_71\n        /* \"#utility.yul\":672:677   */\n      dup2\n        /* \"#utility.yul\":645:678   */\n      tag_44\n      jump\t// in\n    tag_71:\n        /* \"#utility.yul\":545:684   */\n      swap3\n      swap2\n      pop\n      pop\n      jump\t// out\n        /* \"#utility.yul\":690:1019   */\n    tag_7:\n        /* \"#utility.yul\":749:755   */\n      0x00\n        /* \"#utility.yul\":798:800   */\n      0x20\n        /* \"#utility.yul\":786:795   */\n      dup3\n        /* \"#utility.yul\":777:784   */\n      dup5\n        /* \"#utility.yul\":773:796   */\n      sub\n        /* \"#utility.yul\":769:801   */\n      slt\n        /* \"#utility.yul\":766:885   */\n      iszero\n      tag_73\n      jumpi\n        /* \"#utility.yul\":804:883   */\n      tag_74\n      tag_41\n      jump\t// in\n    tag_74:\n        /* \"#utility.yul\":766:885   */\n    tag_73:\n        /* \"#utility.yul\":924:925   */\n      0x00\n        /* \"#utility.yul\":949:1002   */\n      tag_75\n        /* \"#utility.yul\":994:1001   */\n      dup5\n        /* \"#utility.yul\":985:991   */\n      dup3\n        /* \"#utility.yul\":974:983   */\n      dup6\n        /* \"#utility.yul\":970:992   */\n      add\n        /* \"#utility.yul\":949:1002   */\n      tag_45\n      jump\t// in\n    tag_75:\n        /* \"#utility.yul\":939:1002   */\n      swap2\n      pop\n        /* \"#utility.yul\":895:1012   */\n      pop\n        /* \"#utility.yul\":690:1019   */\n      swap3\n      swap2\n      pop\n      pop\n      jump\t// out\n        /* \"#utility.yul\":1025:1143   */\n    tag_46:\n        /* \"#utility.yul\":1112:1136   */\n      tag_77\n        /* \"#utility.yul\":1130:1135   */\n      dup2\n        /* \"#utility.yul\":1112:1136   */\n      tag_43\n      jump\t// in\n    tag_77:\n        /* \"#utility.yul\":1107:1110   */\n      dup3\n        /* \"#utility.yul\":1100:1137   */\n      mstore\n        /* \"#utility.yul\":1025:1143   */\n      pop\n      pop\n      jump\t// out\n        /* \"#utility.yul\":1149:1248   */\n    tag_47:\n        /* \"#utility.yul\":1201:1207   */\n      0x00\n        /* \"#utility.yul\":1235:1240   */\n      dup2\n        /* \"#utility.yul\":1229:1241   */\n      mload\n        /* \"#utility.yul\":1219:1241   */\n      swap1\n      pop\n        /* \"#utility.yul\":1149:1248   */\n      swap2\n      swap1\n      pop\n      jump\t// out\n        /* \"#utility.yul\":1254:1423   */\n    tag_48:\n        /* \"#utility.yul\":1338:1349   */\n      0x00\n        /* \"#utility.yul\":1372:1378   */\n      dup3\n        /* \"#utility.yul\":1367:1370   */\n      dup3\n        /* \"#utility.yul\":1360:1379   */\n      mstore\n        /* \"#utility.yul\":1412:1416   */\n      0x20\n        /* \"#utility.yul\":1407:1410   */\n      dup3\n        /* \"#utility.yul\":1403:1417   */\n      add\n        /* \"#utility.yul\":1388:1417   */\n      swap1\n      pop\n        /* \"#utility.yul\":1254:1423   */\n      swap3\n      swap2\n      pop\n      pop\n      jump\t// out\n        /* \"#utility.yul\":1429:1736   */\n    tag_49:\n        /* \"#utility.yul\":1497:1498   */\n      0x00\n        /* \"#utility.yul\":1507:1620   */\n    tag_81:\n        /* \"#utility.yul\":1521:1527   */\n      dup4\n        /* \"#utility.yul\":1518:1519   */\n      dup2\n        /* \"#utility.yul\":1515:1528   */\n      lt\n        /* \"#utility.yul\":1507:1620   */\n      iszero\n      tag_83\n      jumpi\n        /* \"#utility.yul\":1606:1607   */\n      dup1\n        /* \"#utility.yul\":1601:1604   */\n      dup3\n        /* \"#utility.yul\":1597:1608   */\n      add\n        /* \"#utility.yul\":1591:1609   */\n      mload\n        /* \"#utility.yul\":1587:1588   */\n      dup2\n        /* \"#utility.yul\":1582:1585   */\n      dup5\n        /* \"#utility.yul\":1578:1589   */\n      add\n        /* \"#utility.yul\":1571:1610   */\n      mstore\n        /* \"#utility.yul\":1543:1545   */\n      0x20\n        /* \"#utility.yul\":1540:1541   */\n      dup2\n        /* \"#utility.yul\":1536:1546   */\n      add\n        /* \"#utility.yul\":1531:1546   */\n      swap1\n      pop\n        /* \"#utility.yul\":1507:1620   */\n      jump(tag_81)\n    tag_83:\n        /* \"#utility.yul\":1638:1644   */\n      dup4\n        /* \"#utility.yul\":1635:1636   */\n      dup2\n        /* \"#utility.yul\":1632:1645   */\n      gt\n        /* \"#utility.yul\":1629:1730   */\n      iszero\n      tag_84\n      jumpi\n        /* \"#utility.yul\":1718:1719   */\n      0x00\n        /* \"#utility.yul\":1709:1715   */\n      dup5\n        /* \"#utility.yul\":1704:1707   */\n      dup5\n        /* \"#utility.yul\":1700:1716   */\n      add\n        /* \"#utility.yul\":1693:1720   */\n      mstore\n        /* \"#utility.yul\":1629:1730   */\n    tag_84:\n        /* \"#utility.yul\":1478:1736   */\n      pop\n        /* \"#utility.yul\":1429:1736   */\n      pop\n      pop\n      pop\n      jump\t// out\n        /* \"#utility.yul\":1742:1844   */\n    tag_50:\n        /* \"#utility.yul\":1783:1789   */\n      0x00\n        /* \"#utility.yul\":1834:1836   */\n      0x1f\n        /* \"#utility.yul\":1830:1837   */\n      not\n        /* \"#utility.yul\":1825:1827   */\n      0x1f\n        /* \"#utility.yul\":1818:1823   */\n      dup4\n        /* \"#utility.yul\":1814:1828   */\n      add\n        /* \"#utility.yul\":1810:1838   */\n      and\n        /* \"#utility.yul\":1800:1838   */\n      swap1\n      pop\n        /* \"#utility.yul\":1742:1844   */\n      swap2\n      swap1\n      pop\n      jump\t// out\n        /* \"#utility.yul\":1850:2214   */\n    tag_51:\n        /* \"#utility.yul\":1938:1941   */\n      0x00\n        /* \"#utility.yul\":1966:2005   */\n      tag_87\n        /* \"#utility.yul\":1999:2004   */\n      dup3\n        /* \"#utility.yul\":1966:2005   */\n      tag_47\n      jump\t// in\n    tag_87:\n        /* \"#utility.yul\":2021:2092   */\n      tag_88\n        /* \"#utility.yul\":2085:2091   */\n      dup2\n        /* \"#utility.yul\":2080:2083   */\n      dup6\n        /* \"#utility.yul\":2021:2092   */\n      tag_48\n      jump\t// in\n    tag_88:\n        /* \"#utility.yul\":2014:2092   */\n      swap4\n      pop\n        /* \"#utility.yul\":2101:2153   */\n      tag_89\n        /* \"#utility.yul\":2146:2152   */\n      dup2\n        /* \"#utility.yul\":2141:2144   */\n      dup6\n        /* \"#utility.yul\":2134:2138   */\n      0x20\n        /* \"#utility.yul\":2127:2132   */\n      dup7\n        /* \"#utility.yul\":2123:2139   */\n      add\n        /* \"#utility.yul\":2101:2153   */\n      tag_49\n      jump\t// in\n    tag_89:\n        /* \"#utility.yul\":2178:2207   */\n      tag_90\n        /* \"#utility.yul\":2200:2206   */\n      dup2\n        /* \"#utility.yul\":2178:2207   */\n      tag_50\n      jump\t// in\n    tag_90:\n        /* \"#utility.yul\":2173:2176   */\n      dup5\n        /* \"#utility.yul\":2169:2208   */\n      add\n        /* \"#utility.yul\":2162:2208   */\n      swap2\n      pop\n        /* \"#utility.yul\":1942:2214   */\n      pop\n        /* \"#utility.yul\":1850:2214   */\n      swap3\n      swap2\n      pop\n      pop\n      jump\t// out\n        /* \"#utility.yul\":2220:2643   */\n    tag_10:\n        /* \"#utility.yul\":2361:2365   */\n      0x00\n        /* \"#utility.yul\":2399:2401   */\n      0x40\n        /* \"#utility.yul\":2388:2397   */\n      dup3\n        /* \"#utility.yul\":2384:2402   */\n      add\n        /* \"#utility.yul\":2376:2402   */\n      swap1\n      pop\n        /* \"#utility.yul\":2412:2483   */\n      tag_92\n        /* \"#utility.yul\":2480:2481   */\n      0x00\n        /* \"#utility.yul\":2469:2478   */\n      dup4\n        /* \"#utility.yul\":2465:2482   */\n      add\n        /* \"#utility.yul\":2456:2462   */\n      dup6\n        /* \"#utility.yul\":2412:2483   */\n      tag_46\n      jump\t// in\n    tag_92:\n        /* \"#utility.yul\":2530:2539   */\n      dup2\n        /* \"#utility.yul\":2524:2528   */\n      dup2\n        /* \"#utility.yul\":2520:2540   */\n      sub\n        /* \"#utility.yul\":2515:2517   */\n      0x20\n        /* \"#utility.yul\":2504:2513   */\n      dup4\n        /* \"#utility.yul\":2500:2518   */\n      add\n        /* \"#utility.yul\":2493:2541   */\n      mstore\n        /* \"#utility.yul\":2558:2636   */\n      tag_93\n        /* \"#utility.yul\":2631:2635   */\n      dup2\n        /* \"#utility.yul\":2622:2628   */\n      dup5\n        /* \"#utility.yul\":2558:2636   */\n      tag_51\n      jump\t// in\n    tag_93:\n        /* \"#utility.yul\":2550:2636   */\n      swap1\n      pop\n        /* \"#utility.yul\":2220:2643   */\n      swap4\n      swap3\n      pop\n      pop\n      pop\n      jump\t// out\n        /* \"#utility.yul\":2649:2766   */\n    tag_52:\n        /* \"#utility.yul\":2758:2759   */\n      0x00\n        /* \"#utility.yul\":2755:2756   */\n      dup1\n        /* \"#utility.yul\":2748:2760   */\n      revert\n        /* \"#utility.yul\":2772:2889   */\n    tag_53:\n        /* \"#utility.yul\":2881:2882   */\n      0x00\n        /* \"#utility.yul\":2878:2879   */\n      dup1\n        /* \"#utility.yul\":2871:2883   */\n      revert\n        /* \"#utility.yul\":2895:3075   */\n    tag_54:\n        /* \"#utility.yul\":2943:3020   */\n      0x4e487b7100000000000000000000000000000000000000000000000000000000\n        /* \"#utility.yul\":2940:2941   */\n      0x00\n        /* \"#utility.yul\":2933:3021   */\n      mstore\n        /* \"#utility.yul\":3040:3044   */\n      0x41\n        /* \"#utility.yul\":3037:3038   */\n      0x04\n        /* \"#utility.yul\":3030:3045   */\n      mstore\n        /* \"#utility.yul\":3064:3068   */\n      0x24\n        /* \"#utility.yul\":3061:3062   */\n      0x00\n        /* \"#utility.yul\":3054:3069   */\n      revert\n        /* \"#utility.yul\":3081:3362   */\n    tag_55:\n        /* \"#utility.yul\":3164:3191   */\n      tag_98\n        /* \"#utility.yul\":3186:3190   */\n      dup3\n        /* \"#utility.yul\":3164:3191   */\n      tag_50\n      jump\t// in\n    tag_98:\n        /* \"#utility.yul\":3156:3162   */\n      dup2\n        /* \"#utility.yul\":3152:3192   */\n      add\n        /* \"#utility.yul\":3294:3300   */\n      dup2\n        /* \"#utility.yul\":3282:3292   */\n      dup2\n        /* \"#utility.yul\":3279:3301   */\n      lt\n        /* \"#utility.yul\":3258:3276   */\n      0xffffffffffffffff\n        /* \"#utility.yul\":3246:3256   */\n      dup3\n        /* \"#utility.yul\":3243:3277   */\n      gt\n        /* \"#utility.yul\":3240:3302   */\n      or\n        /* \"#utility.yul\":3237:3325   */\n      iszero\n      tag_99\n      jumpi\n        /* \"#utility.yul\":3305:3323   */\n      tag_100\n      tag_54\n      jump\t// in\n    tag_100:\n        /* \"#utility.yul\":3237:3325   */\n    tag_99:\n        /* \"#utility.yul\":3345:3355   */\n      dup1\n        /* \"#utility.yul\":3341:3343   */\n      0x40\n        /* \"#utility.yul\":3334:3356   */\n      mstore\n        /* \"#utility.yul\":3124:3362   */\n      pop\n        /* \"#utility.yul\":3081:3362   */\n      pop\n      pop\n      jump\t// out\n        /* \"#utility.yul\":3368:3497   */\n    tag_56:\n        /* \"#utility.yul\":3402:3408   */\n      0x00\n        /* \"#utility.yul\":3429:3449   */\n      tag_102\n      tag_40\n      jump\t// in\n    tag_102:\n        /* \"#utility.yul\":3419:3449   */\n      swap1\n      pop\n        /* \"#utility.yul\":3458:3491   */\n      tag_103\n        /* \"#utility.yul\":3486:3490   */\n      dup3\n        /* \"#utility.yul\":3478:3484   */\n      dup3\n        /* \"#utility.yul\":3458:3491   */\n      tag_55\n      jump\t// in\n    tag_103:\n        /* \"#utility.yul\":3368:3497   */\n      swap2\n      swap1\n      pop\n      jump\t// out\n        /* \"#utility.yul\":3503:3811   */\n    tag_57:\n        /* \"#utility.yul\":3565:3569   */\n      0x00\n        /* \"#utility.yul\":3655:3673   */\n      0xffffffffffffffff\n        /* \"#utility.yul\":3647:3653   */\n      dup3\n        /* \"#utility.yul\":3644:3674   */\n      gt\n        /* \"#utility.yul\":3641:3697   */\n      iszero\n      tag_105\n      jumpi\n        /* \"#utility.yul\":3677:3695   */\n      tag_106\n      tag_54\n      jump\t// in\n    tag_106:\n        /* \"#utility.yul\":3641:3697   */\n    tag_105:\n        /* \"#utility.yul\":3715:3744   */\n      tag_107\n        /* \"#utility.yul\":3737:3743   */\n      dup3\n        /* \"#utility.yul\":3715:3744   */\n      tag_50\n      jump\t// in\n    tag_107:\n        /* \"#utility.yul\":3707:3744   */\n      swap1\n      pop\n        /* \"#utility.yul\":3799:3803   */\n      0x20\n        /* \"#utility.yul\":3793:3797   */\n      dup2\n        /* \"#utility.yul\":3789:3804   */\n      add\n        /* \"#utility.yul\":3781:3804   */\n      swap1\n      pop\n        /* \"#utility.yul\":3503:3811   */\n      swap2\n      swap1\n      pop\n      jump\t// out\n        /* \"#utility.yul\":3817:3971   */\n    tag_58:\n        /* \"#utility.yul\":3901:3907   */\n      dup3\n        /* \"#utility.yul\":3896:3899   */\n      dup2\n        /* \"#utility.yul\":3891:3894   */\n      dup4\n        /* \"#utility.yul\":3878:3908   */\n      calldatacopy\n        /* \"#utility.yul\":3963:3964   */\n      0x00\n        /* \"#utility.yul\":3954:3960   */\n      dup4\n        /* \"#utility.yul\":3949:3952   */\n      dup4\n        /* \"#utility.yul\":3945:3961   */\n      add\n        /* \"#utility.yul\":3938:3965   */\n      mstore\n        /* \"#utility.yul\":3817:3971   */\n      pop\n      pop\n      pop\n      jump\t// out\n        /* \"#utility.yul\":3977:4389   */\n    tag_59:\n        /* \"#utility.yul\":4055:4060   */\n      0x00\n        /* \"#utility.yul\":4080:4146   */\n      tag_110\n        /* \"#utility.yul\":4096:4145   */\n      tag_111\n        /* \"#utility.yul\":4138:4144   */\n      dup5\n        /* \"#utility.yul\":4096:4145   */\n      tag_57\n      jump\t// in\n    tag_111:\n        /* \"#utility.yul\":4080:4146   */\n      tag_56\n      jump\t// in\n    tag_110:\n        /* \"#utility.yul\":4071:4146   */\n      swap1\n      pop\n        /* \"#utility.yul\":4169:4175   */\n      dup3\n        /* \"#utility.yul\":4162:4167   */\n      dup2\n        /* \"#utility.yul\":4155:4176   */\n      mstore\n        /* \"#utility.yul\":4207:4211   */\n      0x20\n        /* \"#utility.yul\":4200:4205   */\n      dup2\n        /* \"#utility.yul\":4196:4212   */\n      add\n        /* \"#utility.yul\":4245:4248   */\n      dup5\n        /* \"#utility.yul\":4236:4242   */\n      dup5\n        /* \"#utility.yul\":4231:4234   */\n      dup5\n        /* \"#utility.yul\":4227:4243   */\n      add\n        /* \"#utility.yul\":4224:4249   */\n      gt\n        /* \"#utility.yul\":4221:4333   */\n      iszero\n      tag_112\n      jumpi\n        /* \"#utility.yul\":4252:4331   */\n      tag_113\n      tag_53\n      jump\t// in\n    tag_113:\n        /* \"#utility.yul\":4221:4333   */\n    tag_112:\n        /* \"#utility.yul\":4342:4383   */\n      tag_114\n        /* \"#utility.yul\":4376:4382   */\n      dup5\n        /* \"#utility.yul\":4371:4374   */\n      dup3\n        /* \"#utility.yul\":4366:4369   */\n      dup6\n        /* \"#utility.yul\":4342:4383   */\n      tag_58\n      jump\t// in\n    tag_114:\n        /* \"#utility.yul\":4061:4389   */\n      pop\n        /* \"#utility.yul\":3977:4389   */\n      swap4\n      swap3\n      pop\n      pop\n      pop\n      jump\t// out\n        /* \"#utility.yul\":4409:4749   */\n    tag_60:\n        /* \"#utility.yul\":4465:4470   */\n      0x00\n        /* \"#utility.yul\":4514:4517   */\n      dup3\n        /* \"#utility.yul\":4507:4511   */\n      0x1f\n        /* \"#utility.yul\":4499:4505   */\n      dup4\n        /* \"#utility.yul\":4495:4512   */\n      add\n        /* \"#utility.yul\":4491:4518   */\n      slt\n        /* \"#utility.yul\":4481:4603   */\n      tag_116\n      jumpi\n        /* \"#utility.yul\":4522:4601   */\n      tag_117\n      tag_52\n      jump\t// in\n    tag_117:\n        /* \"#utility.yul\":4481:4603   */\n    tag_116:\n        /* \"#utility.yul\":4639:4645   */\n      dup2\n        /* \"#utility.yul\":4626:4646   */\n      calldataload\n        /* \"#utility.yul\":4664:4743   */\n      tag_118\n        /* \"#utility.yul\":4739:4742   */\n      dup5\n        /* \"#utility.yul\":4731:4737   */\n      dup3\n        /* \"#utility.yul\":4724:4728   */\n      0x20\n        /* \"#utility.yul\":4716:4722   */\n      dup7\n        /* \"#utility.yul\":4712:4729   */\n      add\n        /* \"#utility.yul\":4664:4743   */\n      tag_59\n      jump\t// in\n    tag_118:\n        /* \"#utility.yul\":4655:4743   */\n      swap2\n      pop\n        /* \"#utility.yul\":4471:4749   */\n      pop\n        /* \"#utility.yul\":4409:4749   */\n      swap3\n      swap2\n      pop\n      pop\n      jump\t// out\n        /* \"#utility.yul\":4755:5554   */\n    tag_13:\n        /* \"#utility.yul\":4842:4848   */\n      0x00\n        /* \"#utility.yul\":4850:4856   */\n      dup1\n        /* \"#utility.yul\":4858:4864   */\n      0x00\n        /* \"#utility.yul\":4907:4909   */\n      0x60\n        /* \"#utility.yul\":4895:4904   */\n      dup5\n        /* \"#utility.yul\":4886:4893   */\n      dup7\n        /* \"#utility.yul\":4882:4905   */\n      sub\n        /* \"#utility.yul\":4878:4910   */\n      slt\n        /* \"#utility.yul\":4875:4994   */\n      iszero\n      tag_120\n      jumpi\n        /* \"#utility.yul\":4913:4992   */\n      tag_121\n      tag_41\n      jump\t// in\n    tag_121:\n        /* \"#utility.yul\":4875:4994   */\n    tag_120:\n        /* \"#utility.yul\":5033:5034   */\n      0x00\n        /* \"#utility.yul\":5058:5111   */\n      tag_122\n        /* \"#utility.yul\":5103:5110   */\n      dup7\n        /* \"#utility.yul\":5094:5100   */\n      dup3\n        /* \"#utility.yul\":5083:5092   */\n      dup8\n        /* \"#utility.yul\":5079:5101   */\n      add\n        /* \"#utility.yul\":5058:5111   */\n      tag_45\n      jump\t// in\n    tag_122:\n        /* \"#utility.yul\":5048:5111   */\n      swap4\n      pop\n        /* \"#utility.yul\":5004:5121   */\n      pop\n        /* \"#utility.yul\":5188:5190   */\n      0x20\n        /* \"#utility.yul\":5177:5186   */\n      dup5\n        /* \"#utility.yul\":5173:5191   */\n      add\n        /* \"#utility.yul\":5160:5192   */\n      calldataload\n        /* \"#utility.yul\":5219:5237   */\n      0xffffffffffffffff\n        /* \"#utility.yul\":5211:5217   */\n      dup2\n        /* \"#utility.yul\":5208:5238   */\n      gt\n        /* \"#utility.yul\":5205:5322   */\n      iszero\n      tag_123\n      jumpi\n        /* \"#utility.yul\":5241:5320   */\n      tag_124\n      tag_42\n      jump\t// in\n    tag_124:\n        /* \"#utility.yul\":5205:5322   */\n    tag_123:\n        /* \"#utility.yul\":5346:5409   */\n      tag_125\n        /* \"#utility.yul\":5401:5408   */\n      dup7\n        /* \"#utility.yul\":5392:5398   */\n      dup3\n        /* \"#utility.yul\":5381:5390   */\n      dup8\n        /* \"#utility.yul\":5377:5399   */\n      add\n        /* \"#utility.yul\":5346:5409   */\n      tag_60\n      jump\t// in\n    tag_125:\n        /* \"#utility.yul\":5336:5409   */\n      swap3\n      pop\n        /* \"#utility.yul\":5131:5419   */\n      pop\n        /* \"#utility.yul\":5458:5460   */\n      0x40\n        /* \"#utility.yul\":5484:5537   */\n      tag_126\n        /* \"#utility.yul\":5529:5536   */\n      dup7\n        /* \"#utility.yul\":5520:5526   */\n      dup3\n        /* \"#utility.yul\":5509:5518   */\n      dup8\n        /* \"#utility.yul\":5505:5527   */\n      add\n        /* \"#utility.yul\":5484:5537   */\n      tag_45\n      jump\t// in\n    tag_126:\n        /* \"#utility.yul\":5474:5537   */\n      swap2\n      pop\n        /* \"#utility.yul\":5429:5547   */\n      pop\n        /* \"#utility.yul\":4755:5554   */\n      swap3\n      pop\n      swap3\n      pop\n      swap3\n      jump\t// out\n        /* \"#utility.yul\":5560:5740   */\n    tag_18:\n        /* \"#utility.yul\":5608:5685   */\n      0x4e487b7100000000000000000000000000000000000000000000000000000000\n        /* \"#utility.yul\":5605:5606   */\n      0x00\n        /* \"#utility.yul\":5598:5686   */\n      mstore\n        /* \"#utility.yul\":5705:5709   */\n      0x32\n        /* \"#utility.yul\":5702:5703   */\n      0x04\n        /* \"#utility.yul\":5695:5710   */\n      mstore\n        /* \"#utility.yul\":5729:5733   */\n      0x24\n        /* \"#utility.yul\":5726:5727   */\n      0x00\n        /* \"#utility.yul\":5719:5734   */\n      revert\n        /* \"#utility.yul\":5746:5926   */\n    tag_61:\n        /* \"#utility.yul\":5794:5871   */\n      0x4e487b7100000000000000000000000000000000000000000000000000000000\n        /* \"#utility.yul\":5791:5792   */\n      0x00\n        /* \"#utility.yul\":5784:5872   */\n      mstore\n        /* \"#utility.yul\":5891:5895   */\n      0x22\n        /* \"#utility.yul\":5888:5889   */\n      0x04\n        /* \"#utility.yul\":5881:5896   */\n      mstore\n        /* \"#utility.yul\":5915:5919   */\n      0x24\n        /* \"#utility.yul\":5912:5913   */\n      0x00\n        /* \"#utility.yul\":5905:5920   */\n      revert\n        /* \"#utility.yul\":5932:6252   */\n    tag_21:\n        /* \"#utility.yul\":5976:5982   */\n      0x00\n        /* \"#utility.yul\":6013:6014   */\n      0x02\n        /* \"#utility.yul\":6007:6011   */\n      dup3\n        /* \"#utility.yul\":6003:6015   */\n      div\n        /* \"#utility.yul\":5993:6015   */\n      swap1\n      pop\n        /* \"#utility.yul\":6060:6061   */\n      0x01\n        /* \"#utility.yul\":6054:6058   */\n      dup3\n        /* \"#utility.yul\":6050:6062   */\n      and\n        /* \"#utility.yul\":6081:6099   */\n      dup1\n        /* \"#utility.yul\":6071:6152   */\n      tag_130\n      jumpi\n        /* \"#utility.yul\":6137:6141   */\n      0x7f\n        /* \"#utility.yul\":6129:6135   */\n      dup3\n        /* \"#utility.yul\":6125:6142   */\n      and\n        /* \"#utility.yul\":6115:6142   */\n      swap2\n      pop\n        /* \"#utility.yul\":6071:6152   */\n    tag_130:\n        /* \"#utility.yul\":6199:6201   */\n      0x20\n        /* \"#utility.yul\":6191:6197   */\n      dup3\n        /* \"#utility.yul\":6188:6202   */\n      lt\n        /* \"#utility.yul\":6168:6186   */\n      dup2\n        /* \"#utility.yul\":6165:6203   */\n      sub\n        /* \"#utility.yul\":6162:6246   */\n      tag_131\n      jumpi\n        /* \"#utility.yul\":6218:6236   */\n      tag_132\n      tag_61\n      jump\t// in\n    tag_132:\n        /* \"#utility.yul\":6162:6246   */\n    tag_131:\n        /* \"#utility.yul\":5983:6252   */\n      pop\n        /* \"#utility.yul\":5932:6252   */\n      swap2\n      swap1\n      pop\n      jump\t// out\n\n    auxdata: 0xa2646970667358221220c6f2b1ffcbd234b4fb82af3cd1a4d290a06bc0790a0233bcc9a9bedb5fd6f4fd64736f6c634300080d0033\n}\n",
				"bytecode": {
					"linkReferences": {},
					"object": "608060405234801561001057600080fd5b50610655806100206000396000f3fe608060405234801561001057600080fd5b50600436106100365760003560e01c8063246982c41461003b5780633df9b3661461006c575b600080fd5b610055600480360381019061005091906102e7565b610088565b6040516100639291906103bc565b60405180910390f35b61008660048036038101906100819190610521565b610176565b005b6000606060008084815481106100a1576100a0610590565b5b9060005260206000209060030201604051806060016040529081600082015481526020016001820180546100d4906105ee565b80601f0160208091040260200160405190810160405280929190818152602001828054610100906105ee565b801561014d5780601f106101225761010080835404028352916020019161014d565b820191906000526020600020905b81548152906001019060200180831161013057829003601f168201915b505050505081526020016002820154815250509050806000015181602001519250925050915091565b6000604051806060016040528085815260200184815260200183815250905060008190806001815401808255809150506001900390600052602060002090600302016000909190919091506000820151816000015560208201518160010190805190602001906101e79291906101fa565b5060408201518160020155505050505050565b828054610206906105ee565b90600052602060002090601f016020900481019282610228576000855561026f565b82601f1061024157805160ff191683800117855561026f565b8280016001018555821561026f579182015b8281111561026e578251825591602001919060010190610253565b5b50905061027c9190610280565b5090565b5b80821115610299576000816000905550600101610281565b5090565b6000604051905090565b600080fd5b600080fd5b6000819050919050565b6102c4816102b1565b81146102cf57600080fd5b50565b6000813590506102e1816102bb565b92915050565b6000602082840312156102fd576102fc6102a7565b5b600061030b848285016102d2565b91505092915050565b61031d816102b1565b82525050565b600081519050919050565b600082825260208201905092915050565b60005b8381101561035d578082015181840152602081019050610342565b8381111561036c576000848401525b50505050565b6000601f19601f8301169050919050565b600061038e82610323565b610398818561032e565b93506103a881856020860161033f565b6103b181610372565b840191505092915050565b60006040820190506103d16000830185610314565b81810360208301526103e38184610383565b90509392505050565b600080fd5b600080fd5b7f4e487b7100000000000000000000000000000000000000000000000000000000600052604160045260246000fd5b61042e82610372565b810181811067ffffffffffffffff8211171561044d5761044c6103f6565b5b80604052505050565b600061046061029d565b905061046c8282610425565b919050565b600067ffffffffffffffff82111561048c5761048b6103f6565b5b61049582610372565b9050602081019050919050565b82818337600083830152505050565b60006104c46104bf84610471565b610456565b9050828152602081018484840111156104e0576104df6103f1565b5b6104eb8482856104a2565b509392505050565b600082601f830112610508576105076103ec565b5b81356105188482602086016104b1565b91505092915050565b60008060006060848603121561053a576105396102a7565b5b6000610548868287016102d2565b935050602084013567ffffffffffffffff811115610569576105686102ac565b5b610575868287016104f3565b9250506040610586868287016102d2565b9150509250925092565b7f4e487b7100000000000000000000000000000000000000000000000000000000600052603260045260246000fd5b7f4e487b7100000000000000000000000000000000000000000000000000000000600052602260045260246000fd5b6000600282049050600182168061060657607f821691505b602082108103610619576106186105bf565b5b5091905056fea2646970667358221220c6f2b1ffcbd234b4fb82af3cd1a4d290a06bc0790a0233bcc9a9bedb5fd6f4fd64736f6c634300080d0033",
					"opcodes": "PUSH1 0x80 PUSH1 0x40 MSTORE CALLVALUE DUP1 ISZERO PUSH2 0x10 JUMPI PUSH1 0x0 DUP1 REVERT JUMPDEST POP PUSH2 0x655 DUP1 PUSH2 0x20 PUSH1 0x0 CODECOPY PUSH1 0x0 RETURN INVALID PUSH1 0x80 PUSH1 0x40 MSTORE CALLVALUE DUP1 ISZERO PUSH2 0x10 JUMPI PUSH1 0x0 DUP1 REVERT JUMPDEST POP PUSH1 0x4 CALLDATASIZE LT PUSH2 0x36 JUMPI PUSH1 0x0 CALLDATALOAD PUSH1 0xE0 SHR DUP1 PUSH4 0x246982C4 EQ PUSH2 0x3B JUMPI DUP1 PUSH4 0x3DF9B366 EQ PUSH2 0x6C JUMPI JUMPDEST PUSH1 0x0 DUP1 REVERT JUMPDEST PUSH2 0x55 PUSH1 0x4 DUP1 CALLDATASIZE SUB DUP2 ADD SWAP1 PUSH2 0x50 SWAP2 SWAP1 PUSH2 0x2E7 JUMP JUMPDEST PUSH2 0x88 JUMP JUMPDEST PUSH1 0x40 MLOAD PUSH2 0x63 SWAP3 SWAP2 SWAP1 PUSH2 0x3BC JUMP JUMPDEST PUSH1 0x40 MLOAD DUP1 SWAP2 SUB SWAP1 RETURN JUMPDEST PUSH2 0x86 PUSH1 0x4 DUP1 CALLDATASIZE SUB DUP2 ADD SWAP1 PUSH2 0x81 SWAP2 SWAP1 PUSH2 0x521 JUMP JUMPDEST PUSH2 0x176 JUMP JUMPDEST STOP JUMPDEST PUSH1 0x0 PUSH1 0x60 PUSH1 0x0 DUP1 DUP5 DUP2 SLOAD DUP2 LT PUSH2 0xA1 JUMPI PUSH2 0xA0 PUSH2 0x590 JUMP JUMPDEST JUMPDEST SWAP1 PUSH1 0x0 MSTORE PUSH1 0x20 PUSH1 0x0 KECCAK256 SWAP1 PUSH1 0x3 MUL ADD PUSH1 0x40 MLOAD DUP1 PUSH1 0x60 ADD PUSH1 0x40 MSTORE SWAP1 DUP2 PUSH1 0x0 DUP3 ADD SLOAD DUP2 MSTORE PUSH1 0x20 ADD PUSH1 0x1 DUP3 ADD DUP1 SLOAD PUSH2 0xD4 SWAP1 PUSH2 0x5EE JUMP JUMPDEST DUP1 PUSH1 0x1F ADD PUSH1 0x20 DUP1 SWAP2 DIV MUL PUSH1 0x20 ADD PUSH1 0x40 MLOAD SWAP1 DUP2 ADD PUSH1 0x40 MSTORE DUP1 SWAP3 SWAP2 SWAP1 DUP2 DUP2 MSTORE PUSH1 0x20 ADD DUP3 DUP1 SLOAD PUSH2 0x100 SWAP1 PUSH2 0x5EE JUMP JUMPDEST DUP1 ISZERO PUSH2 0x14D JUMPI DUP1 PUSH1 0x1F LT PUSH2 0x122 JUMPI PUSH2 0x100 DUP1 DUP4 SLOAD DIV MUL DUP4 MSTORE SWAP2 PUSH1 0x20 ADD SWAP2 PUSH2 0x14D JUMP JUMPDEST DUP3 ADD SWAP2 SWAP1 PUSH1 0x0 MSTORE PUSH1 0x20 PUSH1 0x0 KECCAK256 SWAP1 JUMPDEST DUP2 SLOAD DUP2 MSTORE SWAP1 PUSH1 0x1 ADD SWAP1 PUSH1 0x20 ADD DUP1 DUP4 GT PUSH2 0x130 JUMPI DUP3 SWAP1 SUB PUSH1 0x1F AND DUP3 ADD SWAP2 JUMPDEST POP POP POP POP POP DUP2 MSTORE PUSH1 0x20 ADD PUSH1 0x2 DUP3 ADD SLOAD DUP2 MSTORE POP POP SWAP1 POP DUP1 PUSH1 0x0 ADD MLOAD DUP2 PUSH1 0x20 ADD MLOAD SWAP3 POP SWAP3 POP POP SWAP2 POP SWAP2 JUMP JUMPDEST PUSH1 0x0 PUSH1 0x40 MLOAD DUP1 PUSH1 0x60 ADD PUSH1 0x40 MSTORE DUP1 DUP6 DUP2 MSTORE PUSH1 0x20 ADD DUP5 DUP2 MSTORE PUSH1 0x20 ADD DUP4 DUP2 MSTORE POP SWAP1 POP PUSH1 0x0 DUP2 SWAP1 DUP1 PUSH1 0x1 DUP2 SLOAD ADD DUP1 DUP3 SSTORE DUP1 SWAP2 POP POP PUSH1 0x1 SWAP1 SUB SWAP1 PUSH1 0x0 MSTORE PUSH1 0x20 PUSH1 0x0 KECCAK256 SWAP1 PUSH1 0x3 MUL ADD PUSH1 0x0 SWAP1 SWAP2 SWAP1 SWAP2 SWAP1 SWAP2 POP PUSH1 0x0 DUP3 ADD MLOAD DUP2 PUSH1 0x0 ADD SSTORE PUSH1 0x20 DUP3 ADD MLOAD DUP2 PUSH1 0x1 ADD SWAP1 DUP1 MLOAD SWAP1 PUSH1 0x20 ADD SWAP1 PUSH2 0x1E7 SWAP3 SWAP2 SWAP1 PUSH2 0x1FA JUMP JUMPDEST POP PUSH1 0x40 DUP3 ADD MLOAD DUP2 PUSH1 0x2 ADD SSTORE POP POP POP POP POP POP JUMP JUMPDEST DUP3 DUP1 SLOAD PUSH2 0x206 SWAP1 PUSH2 0x5EE JUMP JUMPDEST SWAP1 PUSH1 0x0 MSTORE PUSH1 0x20 PUSH1 0x0 KECCAK256 SWAP1 PUSH1 0x1F ADD PUSH1 0x20 SWAP1 DIV DUP2 ADD SWAP3 DUP3 PUSH2 0x228 JUMPI PUSH1 0x0 DUP6 SSTORE PUSH2 0x26F JUMP JUMPDEST DUP3 PUSH1 0x1F LT PUSH2 0x241 JUMPI DUP1 MLOAD PUSH1 0xFF NOT AND DUP4 DUP1 ADD OR DUP6 SSTORE PUSH2 0x26F JUMP JUMPDEST DUP3 DUP1 ADD PUSH1 0x1 ADD DUP6 SSTORE DUP3 ISZERO PUSH2 0x26F JUMPI SWAP2 DUP3 ADD JUMPDEST DUP3 DUP2 GT ISZERO PUSH2 0x26E JUMPI DUP3 MLOAD DUP3 SSTORE SWAP2 PUSH1 0x20 ADD SWAP2 SWAP1 PUSH1 0x1 ADD SWAP1 PUSH2 0x253 JUMP JUMPDEST JUMPDEST POP SWAP1 POP PUSH2 0x27C SWAP2 SWAP1 PUSH2 0x280 JUMP JUMPDEST POP SWAP1 JUMP JUMPDEST JUMPDEST DUP1 DUP3 GT ISZERO PUSH2 0x299 JUMPI PUSH1 0x0 DUP2 PUSH1 0x0 SWAP1 SSTORE POP PUSH1 0x1 ADD PUSH2 0x281 JUMP JUMPDEST POP SWAP1 JUMP JUMPDEST PUSH1 0x0 PUSH1 0x40 MLOAD SWAP1 POP SWAP1 JUMP JUMPDEST PUSH1 0x0 DUP1 REVERT JUMPDEST PUSH1 0x0 DUP1 REVERT JUMPDEST PUSH1 0x0 DUP2 SWAP1 POP SWAP2 SWAP1 POP JUMP JUMPDEST PUSH2 0x2C4 DUP2 PUSH2 0x2B1 JUMP JUMPDEST DUP2 EQ PUSH2 0x2CF JUMPI PUSH1 0x0 DUP1 REVERT JUMPDEST POP JUMP JUMPDEST PUSH1 0x0 DUP2 CALLDATALOAD SWAP1 POP PUSH2 0x2E1 DUP2 PUSH2 0x2BB JUMP JUMPDEST SWAP3 SWAP2 POP POP JUMP JUMPDEST PUSH1 0x0 PUSH1 0x20 DUP3 DUP5 SUB SLT ISZERO PUSH2 0x2FD JUMPI PUSH2 0x2FC PUSH2 0x2A7 JUMP JUMPDEST JUMPDEST PUSH1 0x0 PUSH2 0x30B DUP5 DUP3 DUP6 ADD PUSH2 0x2D2 JUMP JUMPDEST SWAP2 POP POP SWAP3 SWAP2 POP POP JUMP JUMPDEST PUSH2 0x31D DUP2 PUSH2 0x2B1 JUMP JUMPDEST DUP3 MSTORE POP POP JUMP JUMPDEST PUSH1 0x0 DUP2 MLOAD SWAP1 POP SWAP2 SWAP1 POP JUMP JUMPDEST PUSH1 0x0 DUP3 DUP3 MSTORE PUSH1 0x20 DUP3 ADD SWAP1 POP SWAP3 SWAP2 POP POP JUMP JUMPDEST PUSH1 0x0 JUMPDEST DUP4 DUP2 LT ISZERO PUSH2 0x35D JUMPI DUP1 DUP3 ADD MLOAD DUP2 DUP5 ADD MSTORE PUSH1 0x20 DUP2 ADD SWAP1 POP PUSH2 0x342 JUMP JUMPDEST DUP4 DUP2 GT ISZERO PUSH2 0x36C JUMPI PUSH1 0x0 DUP5 DUP5 ADD MSTORE JUMPDEST POP POP POP POP JUMP JUMPDEST PUSH1 0x0 PUSH1 0x1F NOT PUSH1 0x1F DUP4 ADD AND SWAP1 POP SWAP2 SWAP1 POP JUMP JUMPDEST PUSH1 0x0 PUSH2 0x38E DUP3 PUSH2 0x323 JUMP JUMPDEST PUSH2 0x398 DUP2 DUP6 PUSH2 0x32E JUMP JUMPDEST SWAP4 POP PUSH2 0x3A8 DUP2 DUP6 PUSH1 0x20 DUP7 ADD PUSH2 0x33F JUMP JUMPDEST PUSH2 0x3B1 DUP2 PUSH2 0x372 JUMP JUMPDEST DUP5 ADD SWAP2 POP POP SWAP3 SWAP2 POP POP JUMP JUMPDEST PUSH1 0x0 PUSH1 0x40 DUP3 ADD SWAP1 POP PUSH2 0x3D1 PUSH1 0x0 DUP4 ADD DUP6 PUSH2 0x314 JUMP JUMPDEST DUP2 DUP2 SUB PUSH1 0x20 DUP4 ADD MSTORE PUSH2 0x3E3 DUP2 DUP5 PUSH2 0x383 JUMP JUMPDEST SWAP1 POP SWAP4 SWAP3 POP POP POP JUMP JUMPDEST PUSH1 0x0 DUP1 REVERT JUMPDEST PUSH1 0x0 DUP1 REVERT JUMPDEST PUSH32 0x4E487B7100000000000000000000000000000000000000000000000000000000 PUSH1 0x0 MSTORE PUSH1 0x41 PUSH1 0x4 MSTORE PUSH1 0x24 PUSH1 0x0 REVERT JUMPDEST PUSH2 0x42E DUP3 PUSH2 0x372 JUMP JUMPDEST DUP2 ADD DUP2 DUP2 LT PUSH8 0xFFFFFFFFFFFFFFFF DUP3 GT OR ISZERO PUSH2 0x44D JUMPI PUSH2 0x44C PUSH2 0x3F6 JUMP JUMPDEST JUMPDEST DUP1 PUSH1 0x40 MSTORE POP POP POP JUMP JUMPDEST PUSH1 0x0 PUSH2 0x460 PUSH2 0x29D JUMP JUMPDEST SWAP1 POP PUSH2 0x46C DUP3 DUP3 PUSH2 0x425 JUMP JUMPDEST SWAP2 SWAP1 POP JUMP JUMPDEST PUSH1 0x0 PUSH8 0xFFFFFFFFFFFFFFFF DUP3 GT ISZERO PUSH2 0x48C JUMPI PUSH2 0x48B PUSH2 0x3F6 JUMP JUMPDEST JUMPDEST PUSH2 0x495 DUP3 PUSH2 0x372 JUMP JUMPDEST SWAP1 POP PUSH1 0x20 DUP2 ADD SWAP1 POP SWAP2 SWAP1 POP JUMP JUMPDEST DUP3 DUP2 DUP4 CALLDATACOPY PUSH1 0x0 DUP4 DUP4 ADD MSTORE POP POP POP JUMP JUMPDEST PUSH1 0x0 PUSH2 0x4C4 PUSH2 0x4BF DUP5 PUSH2 0x471 JUMP JUMPDEST PUSH2 0x456 JUMP JUMPDEST SWAP1 POP DUP3 DUP2 MSTORE PUSH1 0x20 DUP2 ADD DUP5 DUP5 DUP5 ADD GT ISZERO PUSH2 0x4E0 JUMPI PUSH2 0x4DF PUSH2 0x3F1 JUMP JUMPDEST JUMPDEST PUSH2 0x4EB DUP5 DUP3 DUP6 PUSH2 0x4A2 JUMP JUMPDEST POP SWAP4 SWAP3 POP POP POP JUMP JUMPDEST PUSH1 0x0 DUP3 PUSH1 0x1F DUP4 ADD SLT PUSH2 0x508 JUMPI PUSH2 0x507 PUSH2 0x3EC JUMP JUMPDEST JUMPDEST DUP2 CALLDATALOAD PUSH2 0x518 DUP5 DUP3 PUSH1 0x20 DUP7 ADD PUSH2 0x4B1 JUMP JUMPDEST SWAP2 POP POP SWAP3 SWAP2 POP POP JUMP JUMPDEST PUSH1 0x0 DUP1 PUSH1 0x0 PUSH1 0x60 DUP5 DUP7 SUB SLT ISZERO PUSH2 0x53A JUMPI PUSH2 0x539 PUSH2 0x2A7 JUMP JUMPDEST JUMPDEST PUSH1 0x0 PUSH2 0x548 DUP7 DUP3 DUP8 ADD PUSH2 0x2D2 JUMP JUMPDEST SWAP4 POP POP PUSH1 0x20 DUP5 ADD CALLDATALOAD PUSH8 0xFFFFFFFFFFFFFFFF DUP2 GT ISZERO PUSH2 0x569 JUMPI PUSH2 0x568 PUSH2 0x2AC JUMP JUMPDEST JUMPDEST PUSH2 0x575 DUP7 DUP3 DUP8 ADD PUSH2 0x4F3 JUMP JUMPDEST SWAP3 POP POP PUSH1 0x40 PUSH2 0x586 DUP7 DUP3 DUP8 ADD PUSH2 0x2D2 JUMP JUMPDEST SWAP2 POP POP SWAP3 POP SWAP3 POP SWAP3 JUMP JUMPDEST PUSH32 0x4E487B7100000000000000000000000000000000000000000000000000000000 PUSH1 0x0 MSTORE PUSH1 0x32 PUSH1 0x4 MSTORE PUSH1 0x24 PUSH1 0x0 REVERT JUMPDEST PUSH32 0x4E487B7100000000000000000000000000000000000000000000000000000000 PUSH1 0x0 MSTORE PUSH1 0x22 PUSH1 0x4 MSTORE PUSH1 0x24 PUSH1 0x0 REVERT JUMPDEST PUSH1 0x0 PUSH1 0x2 DUP3 DIV SWAP1 POP PUSH1 0x1 DUP3 AND DUP1 PUSH2 0x606 JUMPI PUSH1 0x7F DUP3 AND SWAP2 POP JUMPDEST PUSH1 0x20 DUP3 LT DUP2 SUB PUSH2 0x619 JUMPI PUSH2 0x618 PUSH2 0x5BF JUMP JUMPDEST JUMPDEST POP SWAP2 SWAP1 POP JUMP INVALID LOG2 PUSH5 0x6970667358 0x22 SLT KECCAK256 0xC6 CALLCODE 0xB1 SELFDESTRUCT 0xCB 0xD2 CALLVALUE 0xB4 0xFB DUP3 0xAF EXTCODECOPY 0xD1 LOG4 0xD2 SWAP1 LOG0 PUSH12 0xC0790A0233BCC9A9BEDB5FD6 DELEGATECALL REVERT PUSH5 0x736F6C6343 STOP ADDMOD 0xD STOP CALLER "
				},
				"gasEstimates": {
					"creation": {
						"codeDepositCost": "324200",
						"executionCost": "362",
						"totalCost": "324562"
					},
					"external": {
						"addPerson(uint256,string,uint256)": "infinite",
						"getPerson(uint256)": "infinite"
					}
				},
				"methodIdentifiers": {
					"addPerson(uint256,string,uint256)": "3df9b366",
					"getPerson(uint256)": "246982c4"
				}
			},
			"storageLayout": {
				"storage": [
					{
						"astId": 12,
						"contract": "artifacts/Structs.sol:Struct",
						"label": "people",
						"offset": 0,
						"slot": "0",
						"type": "t_array(t_struct(Person)8_storage)dyn_storage"
					}
				],
				"types": {
					"t_array(t_struct(Person)8_storage)dyn_storage": {
						"base": "t_struct(Person)8_storage",
						"encoding": "dynamic_array",
						"label": "struct Struct.Person[]",
						"numberOfBytes": "32"
					},
					"t_string_storage": {
						"encoding": "bytes",
						"label": "string",
						"numberOfBytes": "32"
					},
					"t_struct(Person)8_storage": {
						"encoding": "inplace",
						"label": "struct Struct.Person",
						"members": [
							{
								"astId": 3,
								"contract": "artifacts/Structs.sol:Struct",
								"label": "age",
								"offset": 0,
								"slot": "0",
								"type": "t_uint256"
							},
							{
								"astId": 5,
								"contract": "artifacts/Structs.sol:Struct",
								"label": "name",
								"offset": 0,
								"slot": "1",
								"type": "t_string_storage"
							},
							{
								"astId": 7,
								"contract": "artifacts/Structs.sol:Struct",
								"label": "weight",
								"offset": 0,
								"slot": "2",
								"type": "t_uint256"
							}
						],
						"numberOfBytes": "96"
					},
					"t_uint256": {
						"encoding": "inplace",
						"label": "uint256",
						"numberOfBytes": "32"
					}
				}
			},
			"userdoc": {
				"kind": "user",
				"methods": {},
				"version": 1
			}
		}
	}
}