{
	"artifacts/Arrays.sol": {
		"Arrays": {
			"abi": [
				{
					"inputs": [
						{
							"internalType": "int256",
							"name": "_number",
							"type": "int256"
						}
					],
					"name": "addNumber",
					"outputs": [],
					"stateMutability": "nonpayable",
					"type": "function"
				},
				{
					"inputs": [
						{
							"internalType": "uint256",
							"name": "_index",
							"type": "uint256"
						}
					],
					"name": "getNumber",
					"outputs": [
						{
							"internalType": "int256",
							"name": "",
							"type": "int256"
						}
					],
					"stateMutability": "nonpayable",
					"type": "function"
				}
			],
			"devdoc": {
				"kind": "dev",
				"methods": {},
				"version": 1
			},
			"evm": {
				"assembly": "    /* \"artifacts/Arrays.sol\":27:267  contract Arrays{... */\n  mstore(0x40, 0x80)\n  callvalue\n  dup1\n  iszero\n  tag_1\n  jumpi\n  0x00\n  dup1\n  revert\ntag_1:\n  pop\n  dataSize(sub_0)\n  dup1\n  dataOffset(sub_0)\n  0x00\n  codecopy\n  0x00\n  return\nstop\n\nsub_0: assembly {\n        /* \"artifacts/Arrays.sol\":27:267  contract Arrays{... */\n      mstore(0x40, 0x80)\n      callvalue\n      dup1\n      iszero\n      tag_1\n      jumpi\n      0x00\n      dup1\n      revert\n    tag_1:\n      pop\n      jumpi(tag_2, lt(calldatasize, 0x04))\n      shr(0xe0, calldataload(0x00))\n      dup1\n      0x63893d17\n      eq\n      tag_3\n      jumpi\n      dup1\n      0xfc563658\n      eq\n      tag_4\n      jumpi\n    tag_2:\n      0x00\n      dup1\n      revert\n        /* \"artifacts/Arrays.sol\":73:156  function addNumber(int _number) public {... */\n    tag_3:\n      tag_5\n      0x04\n      dup1\n      calldatasize\n      sub\n      dup2\n      add\n      swap1\n      tag_6\n      swap2\n      swap1\n      tag_7\n      jump\t// in\n    tag_6:\n      tag_8\n      jump\t// in\n    tag_5:\n      stop\n        /* \"artifacts/Arrays.sol\":164:260  function getNumber(uint _index) public returns(int){... */\n    tag_4:\n      tag_9\n      0x04\n      dup1\n      calldatasize\n      sub\n      dup2\n      add\n      swap1\n      tag_10\n      swap2\n      swap1\n      tag_11\n      jump\t// in\n    tag_10:\n      tag_12\n      jump\t// in\n    tag_9:\n      mload(0x40)\n      tag_13\n      swap2\n      swap1\n      tag_14\n      jump\t// in\n    tag_13:\n      mload(0x40)\n      dup1\n      swap2\n      sub\n      swap1\n      return\n        /* \"artifacts/Arrays.sol\":73:156  function addNumber(int _number) public {... */\n    tag_8:\n        /* \"artifacts/Arrays.sol\":123:130  numbers */\n      0x00\n        /* \"artifacts/Arrays.sol\":136:143  _number */\n      dup2\n        /* \"artifacts/Arrays.sol\":123:144  numbers.push(_number) */\n      swap1\n      dup1\n      0x01\n      dup2\n      sload\n      add\n      dup1\n      dup3\n      sstore\n      dup1\n      swap2\n      pop\n      pop\n      0x01\n      swap1\n      sub\n      swap1\n      0x00\n      mstore\n      keccak256(0x00, 0x20)\n      add\n      0x00\n      swap1\n      swap2\n      swap1\n      swap2\n      swap1\n      swap2\n      pop\n      sstore\n        /* \"artifacts/Arrays.sol\":73:156  function addNumber(int _number) public {... */\n      pop\n      jump\t// out\n        /* \"artifacts/Arrays.sol\":164:260  function getNumber(uint _index) public returns(int){... */\n    tag_12:\n        /* \"artifacts/Arrays.sol\":211:214  int */\n      0x00\n        /* \"artifacts/Arrays.sol\":233:240  numbers */\n      dup1\n        /* \"artifacts/Arrays.sol\":241:247  _index */\n      dup3\n        /* \"artifacts/Arrays.sol\":233:248  numbers[_index] */\n      dup2\n      sload\n      dup2\n      lt\n      tag_18\n      jumpi\n      tag_19\n      tag_20\n      jump\t// in\n    tag_19:\n    tag_18:\n      swap1\n      0x00\n      mstore\n      keccak256(0x00, 0x20)\n      add\n      sload\n        /* \"artifacts/Arrays.sol\":226:248  return numbers[_index] */\n      swap1\n      pop\n        /* \"artifacts/Arrays.sol\":164:260  function getNumber(uint _index) public returns(int){... */\n      swap2\n      swap1\n      pop\n      jump\t// out\n        /* \"#utility.yul\":88:205   */\n    tag_23:\n        /* \"#utility.yul\":197:198   */\n      0x00\n        /* \"#utility.yul\":194:195   */\n      dup1\n        /* \"#utility.yul\":187:199   */\n      revert\n        /* \"#utility.yul\":334:410   */\n    tag_25:\n        /* \"#utility.yul\":370:377   */\n      0x00\n        /* \"#utility.yul\":399:404   */\n      dup2\n        /* \"#utility.yul\":388:404   */\n      swap1\n      pop\n        /* \"#utility.yul\":334:410   */\n      swap2\n      swap1\n      pop\n      jump\t// out\n        /* \"#utility.yul\":416:536   */\n    tag_26:\n        /* \"#utility.yul\":488:511   */\n      tag_38\n        /* \"#utility.yul\":505:510   */\n      dup2\n        /* \"#utility.yul\":488:511   */\n      tag_25\n      jump\t// in\n    tag_38:\n        /* \"#utility.yul\":481:486   */\n      dup2\n        /* \"#utility.yul\":478:512   */\n      eq\n        /* \"#utility.yul\":468:530   */\n      tag_39\n      jumpi\n        /* \"#utility.yul\":526:527   */\n      0x00\n        /* \"#utility.yul\":523:524   */\n      dup1\n        /* \"#utility.yul\":516:528   */\n      revert\n        /* \"#utility.yul\":468:530   */\n    tag_39:\n        /* \"#utility.yul\":416:536   */\n      pop\n      jump\t// out\n        /* \"#utility.yul\":542:679   */\n    tag_27:\n        /* \"#utility.yul\":587:592   */\n      0x00\n        /* \"#utility.yul\":625:631   */\n      dup2\n        /* \"#utility.yul\":612:632   */\n      calldataload\n        /* \"#utility.yul\":603:632   */\n      swap1\n      pop\n        /* \"#utility.yul\":641:673   */\n      tag_41\n        /* \"#utility.yul\":667:672   */\n      dup2\n        /* \"#utility.yul\":641:673   */\n      tag_26\n      jump\t// in\n    tag_41:\n        /* \"#utility.yul\":542:679   */\n      swap3\n      swap2\n      pop\n      pop\n      jump\t// out\n        /* \"#utility.yul\":685:1012   */\n    tag_7:\n        /* \"#utility.yul\":743:749   */\n      0x00\n        /* \"#utility.yul\":792:794   */\n      0x20\n        /* \"#utility.yul\":780:789   */\n      dup3\n        /* \"#utility.yul\":771:778   */\n      dup5\n        /* \"#utility.yul\":767:790   */\n      sub\n        /* \"#utility.yul\":763:795   */\n      slt\n        /* \"#utility.yul\":760:879   */\n      iszero\n      tag_43\n      jumpi\n        /* \"#utility.yul\":798:877   */\n      tag_44\n      tag_23\n      jump\t// in\n    tag_44:\n        /* \"#utility.yul\":760:879   */\n    tag_43:\n        /* \"#utility.yul\":918:919   */\n      0x00\n        /* \"#utility.yul\":943:995   */\n      tag_45\n        /* \"#utility.yul\":987:994   */\n      dup5\n        /* \"#utility.yul\":978:984   */\n      dup3\n        /* \"#utility.yul\":967:976   */\n      dup6\n        /* \"#utility.yul\":963:985   */\n      add\n        /* \"#utility.yul\":943:995   */\n      tag_27\n      jump\t// in\n    tag_45:\n        /* \"#utility.yul\":933:995   */\n      swap2\n      pop\n        /* \"#utility.yul\":889:1005   */\n      pop\n        /* \"#utility.yul\":685:1012   */\n      swap3\n      swap2\n      pop\n      pop\n      jump\t// out\n        /* \"#utility.yul\":1018:1095   */\n    tag_28:\n        /* \"#utility.yul\":1055:1062   */\n      0x00\n        /* \"#utility.yul\":1084:1089   */\n      dup2\n        /* \"#utility.yul\":1073:1089   */\n      swap1\n      pop\n        /* \"#utility.yul\":1018:1095   */\n      swap2\n      swap1\n      pop\n      jump\t// out\n        /* \"#utility.yul\":1101:1223   */\n    tag_29:\n        /* \"#utility.yul\":1174:1198   */\n      tag_48\n        /* \"#utility.yul\":1192:1197   */\n      dup2\n        /* \"#utility.yul\":1174:1198   */\n      tag_28\n      jump\t// in\n    tag_48:\n        /* \"#utility.yul\":1167:1172   */\n      dup2\n        /* \"#utility.yul\":1164:1199   */\n      eq\n        /* \"#utility.yul\":1154:1217   */\n      tag_49\n      jumpi\n        /* \"#utility.yul\":1213:1214   */\n      0x00\n        /* \"#utility.yul\":1210:1211   */\n      dup1\n        /* \"#utility.yul\":1203:1215   */\n      revert\n        /* \"#utility.yul\":1154:1217   */\n    tag_49:\n        /* \"#utility.yul\":1101:1223   */\n      pop\n      jump\t// out\n        /* \"#utility.yul\":1229:1368   */\n    tag_30:\n        /* \"#utility.yul\":1275:1280   */\n      0x00\n        /* \"#utility.yul\":1313:1319   */\n      dup2\n        /* \"#utility.yul\":1300:1320   */\n      calldataload\n        /* \"#utility.yul\":1291:1320   */\n      swap1\n      pop\n        /* \"#utility.yul\":1329:1362   */\n      tag_51\n        /* \"#utility.yul\":1356:1361   */\n      dup2\n        /* \"#utility.yul\":1329:1362   */\n      tag_29\n      jump\t// in\n    tag_51:\n        /* \"#utility.yul\":1229:1368   */\n      swap3\n      swap2\n      pop\n      pop\n      jump\t// out\n        /* \"#utility.yul\":1374:1703   */\n    tag_11:\n        /* \"#utility.yul\":1433:1439   */\n      0x00\n        /* \"#utility.yul\":1482:1484   */\n      0x20\n        /* \"#utility.yul\":1470:1479   */\n      dup3\n        /* \"#utility.yul\":1461:1468   */\n      dup5\n        /* \"#utility.yul\":1457:1480   */\n      sub\n        /* \"#utility.yul\":1453:1485   */\n      slt\n        /* \"#utility.yul\":1450:1569   */\n      iszero\n      tag_53\n      jumpi\n        /* \"#utility.yul\":1488:1567   */\n      tag_54\n      tag_23\n      jump\t// in\n    tag_54:\n        /* \"#utility.yul\":1450:1569   */\n    tag_53:\n        /* \"#utility.yul\":1608:1609   */\n      0x00\n        /* \"#utility.yul\":1633:1686   */\n      tag_55\n        /* \"#utility.yul\":1678:1685   */\n      dup5\n        /* \"#utility.yul\":1669:1675   */\n      dup3\n        /* \"#utility.yul\":1658:1667   */\n      dup6\n        /* \"#utility.yul\":1654:1676   */\n      add\n        /* \"#utility.yul\":1633:1686   */\n      tag_30\n      jump\t// in\n    tag_55:\n        /* \"#utility.yul\":1623:1686   */\n      swap2\n      pop\n        /* \"#utility.yul\":1579:1696   */\n      pop\n        /* \"#utility.yul\":1374:1703   */\n      swap3\n      swap2\n      pop\n      pop\n      jump\t// out\n        /* \"#utility.yul\":1709:1824   */\n    tag_31:\n        /* \"#utility.yul\":1794:1817   */\n      tag_57\n        /* \"#utility.yul\":1811:1816   */\n      dup2\n        /* \"#utility.yul\":1794:1817   */\n      tag_25\n      jump\t// in\n    tag_57:\n        /* \"#utility.yul\":1789:1792   */\n      dup3\n        /* \"#utility.yul\":1782:1818   */\n      mstore\n        /* \"#utility.yul\":1709:1824   */\n      pop\n      pop\n      jump\t// out\n        /* \"#utility.yul\":1830:2048   */\n    tag_14:\n        /* \"#utility.yul\":1921:1925   */\n      0x00\n        /* \"#utility.yul\":1959:1961   */\n      0x20\n        /* \"#utility.yul\":1948:1957   */\n      dup3\n        /* \"#utility.yul\":1944:1962   */\n      add\n        /* \"#utility.yul\":1936:1962   */\n      swap1\n      pop\n        /* \"#utility.yul\":1972:2041   */\n      tag_59\n        /* \"#utility.yul\":2038:2039   */\n      0x00\n        /* \"#utility.yul\":2027:2036   */\n      dup4\n        /* \"#utility.yul\":2023:2040   */\n      add\n        /* \"#utility.yul\":2014:2020   */\n      dup5\n        /* \"#utility.yul\":1972:2041   */\n      tag_31\n      jump\t// in\n    tag_59:\n        /* \"#utility.yul\":1830:2048   */\n      swap3\n      swap2\n      pop\n      pop\n      jump\t// out\n        /* \"#utility.yul\":2054:2234   */\n    tag_20:\n        /* \"#utility.yul\":2102:2179   */\n      0x4e487b7100000000000000000000000000000000000000000000000000000000\n        /* \"#utility.yul\":2099:2100   */\n      0x00\n        /* \"#utility.yul\":2092:2180   */\n      mstore\n        /* \"#utility.yul\":2199:2203   */\n      0x32\n        /* \"#utility.yul\":2196:2197   */\n      0x04\n        /* \"#utility.yul\":2189:2204   */\n      mstore\n        /* \"#utility.yul\":2223:2227   */\n      0x24\n        /* \"#utility.yul\":2220:2221   */\n      0x00\n        /* \"#utility.yul\":2213:2228   */\n      revert\n\n    auxdata: 0xa2646970667358221220a4214043736cd09406d5c0693ef7a1e77a4c7792819f87b6e73413b685efab6b64736f6c634300080d0033\n}\n",
				"bytecode": {
					"linkReferences": {},
					"object": "608060405234801561001057600080fd5b50610234806100206000396000f3fe608060405234801561001057600080fd5b50600436106100365760003560e01c806363893d171461003b578063fc56365814610057575b600080fd5b61005560048036038101906100509190610115565b610087565b005b610071600480360381019061006c9190610178565b6100b3565b60405161007e91906101b4565b60405180910390f35b600081908060018154018082558091505060019003906000526020600020016000909190919091505550565b60008082815481106100c8576100c76101cf565b5b90600052602060002001549050919050565b600080fd5b6000819050919050565b6100f2816100df565b81146100fd57600080fd5b50565b60008135905061010f816100e9565b92915050565b60006020828403121561012b5761012a6100da565b5b600061013984828501610100565b91505092915050565b6000819050919050565b61015581610142565b811461016057600080fd5b50565b6000813590506101728161014c565b92915050565b60006020828403121561018e5761018d6100da565b5b600061019c84828501610163565b91505092915050565b6101ae816100df565b82525050565b60006020820190506101c960008301846101a5565b92915050565b7f4e487b7100000000000000000000000000000000000000000000000000000000600052603260045260246000fdfea2646970667358221220a4214043736cd09406d5c0693ef7a1e77a4c7792819f87b6e73413b685efab6b64736f6c634300080d0033",
					"opcodes": "PUSH1 0x80 PUSH1 0x40 MSTORE CALLVALUE DUP1 ISZERO PUSH2 0x10 JUMPI PUSH1 0x0 DUP1 REVERT JUMPDEST POP PUSH2 0x234 DUP1 PUSH2 0x20 PUSH1 0x0 CODECOPY PUSH1 0x0 RETURN INVALID PUSH1 0x80 PUSH1 0x40 MSTORE CALLVALUE DUP1 ISZERO PUSH2 0x10 JUMPI PUSH1 0x0 DUP1 REVERT JUMPDEST POP PUSH1 0x4 CALLDATASIZE LT PUSH2 0x36 JUMPI PUSH1 0x0 CALLDATALOAD PUSH1 0xE0 SHR DUP1 PUSH4 0x63893D17 EQ PUSH2 0x3B JUMPI DUP1 PUSH4 0xFC563658 EQ PUSH2 0x57 JUMPI JUMPDEST PUSH1 0x0 DUP1 REVERT JUMPDEST PUSH2 0x55 PUSH1 0x4 DUP1 CALLDATASIZE SUB DUP2 ADD SWAP1 PUSH2 0x50 SWAP2 SWAP1 PUSH2 0x115 JUMP JUMPDEST PUSH2 0x87 JUMP JUMPDEST STOP JUMPDEST PUSH2 0x71 PUSH1 0x4 DUP1 CALLDATASIZE SUB DUP2 ADD SWAP1 PUSH2 0x6C SWAP2 SWAP1 PUSH2 0x178 JUMP JUMPDEST PUSH2 0xB3 JUMP JUMPDEST PUSH1 0x40 MLOAD PUSH2 0x7E SWAP2 SWAP1 PUSH2 0x1B4 JUMP JUMPDEST PUSH1 0x40 MLOAD DUP1 SWAP2 SUB SWAP1 RETURN JUMPDEST PUSH1 0x0 DUP2 SWAP1 DUP1 PUSH1 0x1 DUP2 SLOAD ADD DUP1 DUP3 SSTORE DUP1 SWAP2 POP POP PUSH1 0x1 SWAP1 SUB SWAP1 PUSH1 0x0 MSTORE PUSH1 0x20 PUSH1 0x0 KECCAK256 ADD PUSH1 0x0 SWAP1 SWAP2 SWAP1 SWAP2 SWAP1 SWAP2 POP SSTORE POP JUMP JUMPDEST PUSH1 0x0 DUP1 DUP3 DUP2 SLOAD DUP2 LT PUSH2 0xC8 JUMPI PUSH2 0xC7 PUSH2 0x1CF JUMP JUMPDEST JUMPDEST SWAP1 PUSH1 0x0 MSTORE PUSH1 0x20 PUSH1 0x0 KECCAK256 ADD SLOAD SWAP1 POP SWAP2 SWAP1 POP JUMP JUMPDEST PUSH1 0x0 DUP1 REVERT JUMPDEST PUSH1 0x0 DUP2 SWAP1 POP SWAP2 SWAP1 POP JUMP JUMPDEST PUSH2 0xF2 DUP2 PUSH2 0xDF JUMP JUMPDEST DUP2 EQ PUSH2 0xFD JUMPI PUSH1 0x0 DUP1 REVERT JUMPDEST POP JUMP JUMPDEST PUSH1 0x0 DUP2 CALLDATALOAD SWAP1 POP PUSH2 0x10F DUP2 PUSH2 0xE9 JUMP JUMPDEST SWAP3 SWAP2 POP POP JUMP JUMPDEST PUSH1 0x0 PUSH1 0x20 DUP3 DUP5 SUB SLT ISZERO PUSH2 0x12B JUMPI PUSH2 0x12A PUSH2 0xDA JUMP JUMPDEST JUMPDEST PUSH1 0x0 PUSH2 0x139 DUP5 DUP3 DUP6 ADD PUSH2 0x100 JUMP JUMPDEST SWAP2 POP POP SWAP3 SWAP2 POP POP JUMP JUMPDEST PUSH1 0x0 DUP2 SWAP1 POP SWAP2 SWAP1 POP JUMP JUMPDEST PUSH2 0x155 DUP2 PUSH2 0x142 JUMP JUMPDEST DUP2 EQ PUSH2 0x160 JUMPI PUSH1 0x0 DUP1 REVERT JUMPDEST POP JUMP JUMPDEST PUSH1 0x0 DUP2 CALLDATALOAD SWAP1 POP PUSH2 0x172 DUP2 PUSH2 0x14C JUMP JUMPDEST SWAP3 SWAP2 POP POP JUMP JUMPDEST PUSH1 0x0 PUSH1 0x20 DUP3 DUP5 SUB SLT ISZERO PUSH2 0x18E JUMPI PUSH2 0x18D PUSH2 0xDA JUMP JUMPDEST JUMPDEST PUSH1 0x0 PUSH2 0x19C DUP5 DUP3 DUP6 ADD PUSH2 0x163 JUMP JUMPDEST SWAP2 POP POP SWAP3 SWAP2 POP POP JUMP JUMPDEST PUSH2 0x1AE DUP2 PUSH2 0xDF JUMP JUMPDEST DUP3 MSTORE POP POP JUMP JUMPDEST PUSH1 0x0 PUSH1 0x20 DUP3 ADD SWAP1 POP PUSH2 0x1C9 PUSH1 0x0 DUP4 ADD DUP5 PUSH2 0x1A5 JUMP JUMPDEST SWAP3 SWAP2 POP POP JUMP JUMPDEST PUSH32 0x4E487B7100000000000000000000000000000000000000000000000000000000 PUSH1 0x0 MSTORE PUSH1 0x32 PUSH1 0x4 MSTORE PUSH1 0x24 PUSH1 0x0 REVERT INVALID LOG2 PUSH5 0x6970667358 0x22 SLT KECCAK256 LOG4 0x21 BLOCKHASH NUMBER PUSH20 0x6CD09406D5C0693EF7A1E77A4C7792819F87B6E7 CALLVALUE SGT 0xB6 DUP6 0xEF 0xAB PUSH12 0x64736F6C634300080D003300 "
				},
				"gasEstimates": {
					"creation": {
						"codeDepositCost": "112800",
						"executionCost": "159",
						"totalCost": "112959"
					},
					"external": {
						"addNumber(int256)": "46807",
						"getNumber(uint256)": "4882"
					}
				},
				"methodIdentifiers": {
					"addNumber(int256)": "63893d17",
					"getNumber(uint256)": "fc563658"
				}
			},
			"storageLayout": {
				"storage": [
					{
						"astId": 4,
						"contract": "artifacts/Arrays.sol:Arrays",
						"label": "numbers",
						"offset": 0,
						"slot": "0",
						"type": "t_array(t_int256)dyn_storage"
					}
				],
				"types": {
					"t_array(t_int256)dyn_storage": {
						"base": "t_int256",
						"encoding": "dynamic_array",
						"label": "int256[]",
						"numberOfBytes": "32"
					},
					"t_int256": {
						"encoding": "inplace",
						"label": "int256",
						"numberOfBytes": "32"
					}
				}
			},
			"userdoc": {
				"kind": "user",
				"methods": {},
				"version": 1
			}
		}
	}
}